:020000040000fa
:10c00000f8ff032021bc06008f8806007b73060022
:10c010008f880600757306008f88060000000000f8
:10c020000000000000000000000000002d350600a8
:10c030008f880600000000009937060007380600c8
:10c040008f8806008f8806008f8806008f8806007c
:10c050008f8806008f8806008f8806008f8806006c
:10c060008f8806008f8806008f88060041bf030076
:10c070008f8806008f8806008f8806008f8806004c
:10c080008f8806008f8806008f8806008f8806003c
:10c090008f8806008f8806008f8806008f8806002c
:10c0a0008f8806008f8806008f8806008f8806001c
:10c0b0008f8806008f8806008f8806008f8806000c
:10c0c0008f8806008f8806008f8806008f880600fc
:10c0d0008f8806008f8806008f8806008f880600ec
:10c0e0008f8806008f880600000000000000000016
:10c0f00000000000797d06008f8806008f8806000a
:10c100008f8806008f8806008f8806008f880600bb
:10c110008f8806008f880600957b0100ad7b0100ab
:10c12000c57b01008f8806008f8806008f88060077
:10c130008f8806008f8806008f8806008f8806008b
:10c140008f8806008f880600f57b01000d7c0100ba
:10c15000257c01008f8806008f8806008f880600e6
:10c160008f8806008f8806008f8806008f8806005b
:10c170008f8806008f8806008f8806008f8806004b
:10c180008f8806008f8806008f8806008f8806003b
:10c190008f8806008f8806008f8806008f8806002b
:10c1a0008f8806008f8806008f8806008f8806001b
:10c1b0008f8806008f8806008f8806008f8806000b
:10c1c0008f8806008f8806008f8806008f880600fb
:10c1d0008f8806008f8806008f8806008f880600eb
:10c1e0008f8806008f8806008f8806008f880600db
:10c1f0008f8806008f8806008f8806008f880600cb
:10c200008f8806008f8806008f8806008f880600ba
:10c210008f8806008f8806008f8806003d860600fe
:10c220008f8806008f8806008f8806008f8806009a
:10c230008f8806008f8806008f8806008f8806008a
:10c240008f8806008f8806008f8806008f8806007a
:10c250008f8806008f8806008f8806008f8806006a
:04c260008f880600bd
:020000040000fa
:10c2640003970181b0b00884000000000d9701819c
:10c27400b0b00b840000000009970181b0b00b84ba
:10c284000000000003970181b0b0088400000000a2
:10c2940003970181b0b00884000000000197018178
:10c2a400b0b008840000000001970181b0b0088498
:10c2b4000000000001970181b0b008840000000074
:10c2c40001970181b0b00884000000000397018148
:10c2d400b0b008840000000003970181b0b0088466
:10c2e4000000000003970181b0b008840000000042
:10c2f40001970181b0b0088400000000019701811a
:10c30400b0b008840000000005970181b0b0088433
:10c314000000000001970181b0b008840000000013
:10c3240002970181b0b009840000000001970181e7
:10c33400b0b008840000000001970181b0b0088407
:10c344000000000003970181b0b0088400000000e1
:10c3540001970181b0b008840000000001970181b9
:10c36400b0b008840000000001970181b0b00884d7
:10c374000000000001970181b0b0088400000000b3
:10c3840003970181b0b00884000000000397018185
:10c39400b0b008840000000003970181b0b00884a5
:10c3a4000000000003970181b0b008840000000081
:10c3b40004970181b0b00984000000000597018151
:10c3c400b0b008840000000005970181b0b0088473
:10c3d4000000000001970181b0b008840000000053
:10c3e40001970181b0b00884000000000397018127
:10c3f400b0b008840000000003970181b0b0088445
:10c404000000000001970181b0b008840000000022
:10c4140001970181b0b008840000000005970181f4
:10c42400b0b008840000000003970181b0b0088414
:10c434000000000003970181b0b0088400000000f0
:10c4440003970181b0b008840000000003970181c4
:10c45400b0b008840000000001970181b0b00884e6
:10c464000000000001970181b0b0088400000000c2
:10c4740003970181b0b00884000000000197018196
:10c48400b0b008840000000001970181b0b00884b6
:10c494000000000003970181b0b008840000000090
:10c4a40001970181b0b00884000000000397018166
:10c4b400b0b008840000000003970181b0b0088484
:10c4c4000000000003970181b0b008840000000060
:10c4d40009970181b0b0088400000000039701812e
:10c4e400b0b008840000000001970181b0b0088456
:10c4f4000000000003970181b0b008840000000030
:10c504000b970181b0b008840000000005970181f9
:10c51400b0b008840000000001970181b0b0088425
:10c524000000000004970181b0b0098400000000fd
:10c5340004970181b0b009840000000001970181d3
:10c54400b0b008840000000002970181b0b00984f3
:10c554000000000001970181b0b0088400000000d1
:10c5640001970181b0b008840000000005970181a3
:10c57400b0b008840000000001970181b0b00884c5
:10c584000000000003970181b0b00884000000009f
:10c5940001970181b0030884000000000197018124
:10c5a400b0b008840000000007970181b0b008848f
:10c5b4000000000001970181b0b008840000000071
:10c5c40001970181b0b00884000000000597018143
:10c5d400b0b008840000000005970181b0b0088461
:10c5e4000000000001970181b0b008840000000041
:10c5f40001970181b0b00884000000000397018115
:10c60400b0b008840000000003970181b0b0088432
:10c614000000000003970181b0b00884000000000e
:10c6240007970181b0b008840000000007970181da
:10c63400b0b008840000000006970181b0b00984fe
:10c644000000000005970181b0b0088400000000dc
:10c6540003970181b0b008840000000001970181b4
:10c66400b0b008840000000001970181b0b00884d4
:10c674000000000005970181b0b0088400000000ac
:10c6840001970181b0b00884000000000597018182
:10c69400b0b008840000000003970181b0b00884a2
:10c6a400000000000d970181b0b008840000000074
:10c6b40009970181b0b00884000000000997018146
:10c6c400b0b008840000000002970181b0b0098472
:10c6d4000000000001970181b0b03b84000000001d
:10c6e40003970181b0b03b840000000003970181ef
:10c6f400b0b008840000000003970181b0b0088442
:10c704000000000003970181b0b00884000000001d
:10c7140003970181b0b008840000000003970181f1
:10c72400b0b008840000000005970181b0b008840f
:10c734000000000003970181b0b0088400000000ed
:10c7440001970181b0b008840000000001970181c5
:10c75400b0b008840000000001970181b0b00884e3
:10c764000000000001970181b0b0088400000000bf
:10c7740001970181b0b00884000000000197018195
:10c78400b0b00b840000000001970181b0b00b84ad
:10c794000000000001970181b0b00b84000000008c
:10c7a40001970181b0b00884000000000597018161
:10c7b400b0b008840000000001970181b0b0088483
:10c7c4000000000009970181b0b008840000000057
:10c7d40001970181b0030b840000000004970181dc
:10c7e400b0030984000000000d970181b0b00884f3
:10c7f4000000000005970181b0b00884000000002b
:10c8040005970181b0b008840000000007970181fa
:10c81400b0b008840000000003970181b0b0088420
:10c824000000000003970181b0b0088400000000fc
:10c8340005970181b0b008840000000009970181c8
:10c84400b0b008840000000005970181b0b00884ee
:10c854000000000005970181b0b0088400000000ca
:10c8640006970181b0b0098400000000019701819e
:10c87400b0b008840000000005970181b0b00884be
:10c884000000000007970181b0b008840000000098
:10c8940007970181b0b00884000000000797018168
:10c8a400b0b008840000000007970181b0b008848c
:10c8b4000000000007970181b0b008840000000068
:10c8c40001970181b0b00884000000000597018140
:10c8d400b0b00b840000000005970181b0b008845b
:10c8e4000000000001970181b0b00884000000003e
:10c8f40001970181b0b00884000000000197018114
:10c90400b0b008840000000003970181b0b008842f
:10c914000000000003970181b0b00884000000000b
:10c9240003970181b0b008840000000001970181e1
:10c93400b0b008840000000001970181b0b0088401
:10c944000000000001970181b0b0088400000000dd
:10c9540003970181b0b00b840000000001970181ae
:10c96400b0b008840000000001970181b0b00884d1
:10c97400000000000d970181b0b0088400000000a1
:10c9840001970181b0b00884000000000197018183
:10c99400b0b008840000000001970181b0b00884a1
:10c9a4000000000005970181b0b008840000000079
:10c9b40005970181b0b0088400000000059701814b
:10c9c400b0b008840000000001970181b0b0088471
:10c9d4000000000004970181b0b009840000000049
:10c9e40001970181b0b00884000000000197018123
:10c9f400b0b008840000000001970181b0b0088441
:10ca04000000000007970181b0b008840000000016
:10ca140003970181b0b008840000000001970181f0
:10ca2400b0b008840000000001970181b0b0088410
:10ca34000000000002970181b0b0098400000000ea
:10ca440008970181b0b009840000000005970181b6
:10ca5400b0b008840000000001970181b0b00b84dd
:10ca64000000000001970181b0b0088400000000bc
:10ca740001970181b0b00884000000000197018192
:10ca8400b0b008840000000001970181b0b00884b0
:10ca94000000000001970181b0b00884000000008c
:10caa40001970181b0b00884000000000197018162
:10cab400b0b008840000000001970181b0b0088480
:10cac4000000000001970181b0b00884000000005c
:10cad40006970181b0b00984000000000597018128
:10cae400b0b008840000000001970181b0b0088450
:10caf4000000000001970181b0b00884000000002c
:10cb040005970181b0b008840000000001970181fd
:10cb1400b0b008840000000001970181b0b008841f
:10cb24000000000005970181b0b0088400000000f7
:10cb340001970181b0b008840000000001970181d1
:10cb4400b0b008840000000001970181b0b00884ef
:10cb54000000000001970181b0b0088400000000cb
:10cb64000b970181b0b00884000000000597018193
:10cb7400b0b008840000000001970181b0b00884bf
:10cb84000000000001970181b0b00884000000009b
:10cb940001970181b0b00884000000000197018171
:10cba400b0b008840000000001970181b0b008848f
:10cbb4000000000008b10181b0b000840000000052
:10cbc40008b10181b0b0008400000000f8b500bfd6
:10cbd400f8bc08bc9e4670472dd9060015c3060054
:10cbe4002d7803000d270300494e06005534060036
:10cbf40021ce0500f96f0200cd920600f9820300f0
:10cc0400615b0200a58d030079540500616d03008a
:10cc140089f1050045fd02001d42060059ee03009e
:10cc240065de0200459a050091ea0500d913020069
:10cc34002d83050001ee0200310506004d4003007e
:10cc440089dc0500ddc605000198020095e30500b6
:10cc5400c573050039b80500f5a10500e197030087
:10cc6400950b030065a9050009a203006df80500f2
:10cc740041640500614c0500e18a05000d6c050066
:10cc840095920500f9c80300d5b0050061d50500eb
:10cc9400c5db0300f8b500bff8bc08bc9e4670476e
:04cca400f1c20600d3
:020000040000fa
:10cca800602c010001000000e82c010034fcff7f2b
:10ccb800b82e010001000000f42e010030fcff7fb7
:10ccc8000830010001000000403001002cfcff7f0b
:10ccd8000c3101000100000040310100010000009a
:10cce8008431010001000000303201000100000021
:10ccf8006c320100010000009832010001000000c0
:10cd0800f832010000fcff7f4834010001000000f8
:10cd1800b8340100fcfbff7f783a010001000000f5
:10cd2800e83a0100f8fbff7f883f0100fcfbff7f2a
:10cd3800e03f010000fcff7f5040010001000000bf
:10cd48009046010001000000fc780100010000008d
:10cd58001c790100010000003c790100010000007d
:10cd680070790100010000009a79010001000000bb
:10cd7800207a0100ab129780847d010018f9ff7fab
:10cd8800f27d01001cf9ff7fae7e010020f9ff7fd4
:10cd98002c7f010024f9ff7f1480010028f9ff7f10
:10cda800fc8201002cf9ff7f0084010030f9ff7f2d
:10cdb8005887010001000000a08d0100010000005b
:10cdc800a88d010001000000c88d010001000000cd
:10cdd800e28d010001000000028e01000100000048
:10cde800228e0100010000003e8e010001000000bb
:10cdf8005e8e0100010000007a8e01000100000033
:10ce0800d28e010001000000288f010001000000ff
:10ce18007a8f010001000000b68f010001000000b8
:10ce2800f28f0100010000001290010001000000d3
:10ce3800d4900100d4f6ff7f30910100010000007a
:10ce4800c0910100010000003092010001000000c3
:10ce580056920100010000006892010001000000e4
:10ce680092920100b0f6ff7fc2920100b4f6ff7ff4
:10ce780088930100b8f6ff7f1c96010001000000ae
:10ce8800c096010001000000f0970100acf6ff7f9a
:10ce9800ca980100b0f6ff7ff89a0100010000006f
:10cea8001a9b0100acf6ff7f309b0100b0f6ff7fb4
:10ceb800569b0100010000009a9b01000100000040
:10cec80030a101000100000038a1010001000000ac
:10ced80058a101000100000072a10100010000003a
:10cee80092a1010001000000b2a1010001000000b0
:10cef800cea1010001000000eea101000100000028
:10cf08000aa201000100000062a201000100000065
:10cf1800b8a20100010000000aa3010001000000fe
:10cf28002aa3010001000000eca301000100000099
:10cf380020a40100d0f3ff7f7ca4010001000000c1
:10cf4800eca4010001000000fea4010001000000a3
:10cf580028a501000100000052a50100b4f3ff7fdd
:10cf680082a50100b8f3ff7fb8a701000100000007
:10cf7800e4a7010001000000faa701000100000079
:10cf880010a801000100000026a801009cf3ff7f03
:10cf98003ca80100a0f3ff7f52a801000100000097
:10cfa80068a801000100000084a801000100000039
:10cfb80098a801008cf3ff7f60aa010090f3ff7f1f
:10cfc8008aaa010094f3ff7fb4aa010001000000bf
:10cfd800ccaa010090f3ff7f6aab010094f3ff7fb6
:10cfe80094ab010098f3ff7fb8ab0100010000008b
:10cff80018ad01000100000078ad0100010000003b
:10d0080064ae010084f3ff7f82ae010088f3ff7fe6
:10d01800a0ae01008cf3ff7fbeae0100010000004e
:10d0280030af0100010000008eaf010080f3ff7fe8
:10d038009cb0010001000000c4b001000100000024
:10d0480040b1010074f3ff7ffeb101000100000050
:10d058004cb201000100000060b2010001000000b4
:10d0680074b201000100000088b201000100000054
:10d078009cb2010001000000c0b2010001000000e4
:10d08800ecb20100010000003ab301000100000009
:10d0980080b3010001000000a4b3010001000000fa
:10d0a800d8b301000100000050b401003cf9ff7f33
:10d0b8004cb7010040f9ff7f8cb7010044f9ff7fae
:10d0c80060ba010048f9ff7f48bb01004cf9ff7fb7
:10d0d800acbb010050f9ff7f18bc01000100000043
:10d0e800f4bc01004cf9ff7f40bf0100ac01978000
:10d0f80038c001000100000000c701000100000065
:10d10800b0ec010001000000d0ec010001000000bb
:10d11800eaec0100010000000aed01000100000036
:10d128002aed01000100000046ed010001000000a9
:10d1380066ed01000100000082ed01000100000021
:10d14800daed01000100000030ee010001000000ee
:10d1580082ee010001000000beee010001000000a7
:10d16800faee0100010000001aef010001000000c2
:10d17800dcef01000100000010f0010048f2ff7f21
:10d188006cf0010001000000fcf00100010000004b
:10d198006cf101000100000092f1010001000000a3
:10d1a800a4f1010001000000cef10100010000001f
:10d1b800f8f101001cf2ff7f28f2010001000000d5
:10d1c80036f2010001000000aaf3010010f2ff7f0f
:10d1d800f2f3010014f2ff7f52f4010018f2ff7f0e
:10d1e800a4f401001cf2ff7fe0f40100010000003c
:10d1f800f4f401000100000008f50100010000003e
:10d208001cf501000100000030f5010001000000dc
:10d2180044f501000100000058f50100010000007c
:10d228003ef601000100000052f60100e0f1ff7f28
:10d238006af60100e4f1ff7f9af60100e8f1ff7f4a
:10d248002cf70100ecf1ff7f62f70100f0f1ff7f9e
:10d2580030fa0100f4f1ff7f60fa0100f8f1ff7f76
:10d2680072fa0100fcf1ff7f84fa010000f2ff7fef
:10d27800c2fa0100010000000efb0100fcf1ff7f73
:10d2880032fb010000f2ff7f56fb010004f2ff7f32
:10d29800a0fb0100ecf5ff7f18fd0100f0f5ff7f12
:10d2a80038ff0100f4f5ff7fc0000200f8f5ff7faa
:10d2b800e4020200fcf5ff7f1405020000f6ff7f80
:10d2c8008805020001000000940b02000100000024
:10d2d8009c0b02006cf6ff7fc40c020070f6ff7f07
:10d2e800680e020001000000b00e02006cf6ff7f1d
:10d2f800d40f020070f6ff7fdc120200010000006c
:10d30800101302006cf6ff7fe014020070f6ff7f36
:10d318004815020001000000e01a020001000000a8
:10d32800e81a020001000000441b0200010000008e
:10d33800ae1b020001000000221c020001000000d8
:10d348006e1c020088f4ff7fac1c02008cf4ff7f87
:10d35800ea1e020001000000f61e020088f4ff7faa
:10d36800382302008cf4ff7fd223020090f4ff7f61
:10d378002824020001000000642402008cf4ff7fce
:10d388001c25020090f4ff7f4025020094f4ff7fe3
:10d398007c25020098f4ff7fd42502009cf4ff7fcf
:10d3a800c4270200a0f4ff7f1c280200a4f4ff7f1a
:10d3b80074280200a8f4ff7f26290200010000005b
:10d3c8004629020001000000742902000100000043
:10d3d8007c290200010000009c29020001000000d5
:10d3e800bc29020001000000dc2902000100000045
:10d3f800fc29020001000000542a0200010000007c
:10d40800aa2a020001000000fc2a02000100000014
:10d41800382b020001000000582b02000100000018
:10d428001c2c020001000000502c0200010000002a
:10d43800c02c020001000000e02c020001000000e6
:10d44800002d020001000000122d02000100000062
:10d458003c2d020001000000662d020001000000c2
:10d46800182e020020f6ff7f682e020024f6ff7fa8
:10d47800e030020001000000143702000100000043
:10d488006c450200010000008c450200010000000c
:10d49800ac45020001000000cc450200010000007c
:10d4a800ec450200010000004446020001000000b3
:10d4b8009a46020001000000ec460200010000004c
:10d4c8000c47020001000000d047020001000000e4
:10d4d8000448020001000000744802000100000036
:10d4e8008648020001000000b04802000100000068
:10d4f800da480200010000000e49020090edff7fab
:10d508005c49020094edff7f8a49020098edff7f95
:10d518009e4902009cedff7fce490200a0edff7fef
:10d52800f4490200ae119780804c02009cedff7f09
:10d53800bc4c020001000000d64c020001000000b3
:10d54800e64c020001000000f64c02000100000059
:10d558001e4d020080edff7f424d020001000000d9
:10d56800a451020001000000ac5e020028f4ff7f15
:10d57800d05f02002cf4ff7f8c61020030f4ff7f43
:10d5880048630200010000007c6302002cf4ff7f66
:10d59800c064020030f4ff7f0c6502000100000047
:10d5a800a46a020001000000f08c0200ccf1ff7fa9
:10d5b800988d0200d0f1ff7f808f0200d4f1ff7fa9
:10d5c800c8910200010000009097020001000000cd
:10d5d8009897020088ecff7fd897020001000000ae
:10d5e8001498020084ecff7f909a020088ecff7f79
:10d5f800149b02008cecff7f849b020008849780b8
:10d60800cc9b0200010000001ca2020001000000e7
:10d6180024a2020074f0ff7feca5020001000000c4
:10d62800d0ac020001000000d8ac020010f1ff7f6e
:10d6380094ad020014f1ff7fe4ae020018f1ff7f01
:10d6480024b002001cf1ff7f6cb102000100000051
:10d658004cb702000100000054b7020010f4ff7f2d
:10d66800d0b7020014f4ff7f08bb020001000000dd
:10d6780068c102000100000070c1020038f4ff7f99
:10d6880090c102003cf4ff7f80c502000100000049
:10d6980070cb02000100000078cb020001000000fe
:10d6a80084cb020001000000dccb02000100000076
:10d6b800fccb0200b0a9028094cc0200b0b0a880d4
:10d6c800e4cc020001000000e8cc020001000000e8
:10d6d800e4cc020001000000e0cc0200b0b0aa8057
:10d6e80018cd0200ae71b280e8cd02000100000042
:10d6f800e4cd0200ab3f38803cce020001000000c0
:10d7080048ce0200b0b0aa8084ce0200010000001a
:10d718008cce02000100000088ce0200010000004b
:10d728008cce020001000000b8ce0200010000000b
:10d73800c8ce020001000000f4ce02000100000083
:10d7480008cf0200ab0eb28070cf0200b0af0a80e3
:10d7580038d202000100000034d2020001000000ab
:10d7680030d20200010000002cd20200ab3f04803e
:10d77800e0e702000100000018e80200ecf3ff7f78
:10d78800b4eb02000100000068f102000100000093
:10d79800e0fa02000100000000fb020001000000a6
:10d7a80020fb02000100000054fb02000100000001
:10d7b8007efb0200d8f3ff7f44fc0200dcf3ff7f0e
:10d7c80008fd0200e0f3ff7f14fe020001000000e4
:10d7d800ec03030001000000500d030001000000ed
:10d7e8003c0e030001000000780e030088f0ff7f64
:10d7f800a4100300010000005816030001000000f7
:10d80800dc53030001000000fc530300010000008a
:10d818001654030001000000365403000100000004
:10d828005654030001000000725403000100000078
:10d838009254030001000000ae54030001000000f0
:10d84800ce540300010000009055030001000000c1
:10d85800c455030080edff7f20560300010000003f
:10d868004a560300010000007456030074edff7f60
:10d87800a456030001000000cc560300010000007c
:10d88800fe56030068edff7f725703006cedff7fc3
:10d89800b657030070edff7f0058030074edff7f5b
:10d8a8004458030001000000ac58030070edff7fee
:10d8b800a259030074edff7f9c5a030078edff7fa7
:10d8c800f45a03007cedff7f2a5b0300010000008f
:10d8d800525b030001000000808503000100000086
:10d8e800a085030001000000ba85030001000000c4
:10d8f800da85030001000000fa850300010000003a
:10d9080016860300010000003686030001000000af
:10d918005286030001000000aa86030001000000ef
:10d928000087030001000000528703000100000087
:10d938008e87030001000000ca8703000100000071
:10d94800ea87030001000000ac8803000100000022
:10d95800e088030054eeff7f3c89030001000000cb
:10d96800cc890300010000003c8a0300010000008c
:10d97800628a030001000000748a030001000000ad
:10d988009e8a030001000000c88a030028eeff7f7a
:10d99800f88a030001000000ca8b030024eeff7f11
:10d9a800f4a503000100000014a603000100000014
:10d9b8002ea60300010000004ea60300010000008f
:10d9c8006ea60300010000008aa603000100000003
:10d9d800aaa6030001000000c6a60300010000007b
:10d9e8001ea703000100000074a703000100000047
:10d9f800c6a7030001000000e6a70300010000001d
:10da0800a8a8030001000000dca803005cebff7f6e
:10da180038a9030001000000a8a9030001000000c4
:10da2800baa9030001000000e4a9030001000000f6
:10da38000eaa030040ebff7f3eaa030044ebff7fe2
:10da480000ab030048ebff7f30ab03004cebff7fdc
:10da580054ab030050ebff7f98ac030001000000bb
:10da6800b8ac03004cebff7fdeac03000100000004
:10da7800f2ac03000100000006ad030040ebff7f9d
:10da88001aad030001000000c46904000100000091
:10da9800de69040001000000fa69040001000000ca
:10daa800166a040058f0ff7f706a04005cf0ff7f7c
:10dab800a06a040008849780646b040058f0ff7f14
:10dac800dc6b0400010000009071040001000000fc
:10dad8009871040001000000dc71040001000000de
:10dae8008472040088ecff7fe873040001000000e2
:10daf8008079040001000000748104000100000026
:10db08008e81040001000000aa81040001000000c9
:10db1800c6810400c4efff7f20820400c8efff7fa6
:10db28005082040008849780d4820400c4efff7fe9
:10db38004c8304000100000000890400010000007b
:10db48000889040001000000708a040004f0ff7fc7
:10db5800f88a040001000000ac90040001000000f5
:10db6800b4900400010000000091040001000000ce
:10db78004c910400d4eeff7f709204000100000075
:10db88003c98040001000000f89f04000100000018
:10db980020a004000100000028a0040001000000eb
:10dba80034a00400ab109780c0a10400010000005d
:10dbb80074a70400010000007ca704000100000015
:10dbc80096a7040001000000b2a7040001000000ad
:10dbd800cea704004cefff7f28a8040050efff7f7a
:10dbe80058a8040054efff7fb4a8040058efff7f43
:10dbf8002ca9040001000000e0ae040001000000b0
:10dc0800e8ae04000100000060af040050efff7fa1
:10dc1800c0b004000100000074b604000100000058
:10dc28007cb60400a4ecff7f14b8040001000000d7
:10dc38000cbe04000100000014be04000100000036
:10dc480058be040001000000f0be040014eeff7f7f
:10dc5800fcbf04000100000094c50400010000009e
:10dc68009cc5040038eeff7fd0c504003ceeff7f62
:10dc780008c7040001000000e4cc04000100000013
:10dc8800eccc0400010000001ccd0400e8eeff7f8e
:10dc980080ce04000100000034d40400010000001c
:10dca8003cd40400010000005cd40400a8edff7f10
:10dcb800b4d504000100000078db04000100000076
:10dcc80080db040001000000a0db0400010000006c
:10dcd800c0db040001000000e0db040001000000dc
:10dce80000dc04000100000058dc04000100000012
:10dcf800aedc04000100000000dd040001000000ab
:10dd08003cdd0400010000005cdd040001000000af
:10dd180020de04000100000054de040001000000c1
:10dd2800c4de040001000000e4de0400010000007d
:10dd380004df04000100000016df040001000000f9
:10dd480040df0400010000006adf040000e9ff7ff3
:10dd580030e0040004e9ff7f54e0040008e9ff7f95
:10dd680072e004000100000084e0040001000000eb
:10dd780098e0040001000000a8e004000100000091
:10dd8800b6e00400ece8ff7fdce1040001000000dd
:10dd9800f0e104000100000004e2040001000000ba
:10dda80038e2040038ecff7f8ce304000100000037
:10ddb80024e90400010000002ce90400e0e6ff7fec
:10ddc800c8e9040001000000f4e9040001000000b3
:10ddd8001cea04000100000036ea0400cce6ff7fdc
:10dde8008cea0400ac0797802ceb0400c8e6ff7fa0
:10ddf8006eeb0400cce6ff7fb8eb0400d0e6ff7fb3
:10de08006eec0400010000007eec0400010000003c
:10de18008eec0400c4e6ff7f48ed0400010000001a
:10de280080ed0400c0e6ff7f96ed040001000000cd
:10de3800c8ed0400bce6ff7ffced0400c0e6ff7ff0
:10de4800a4ef040001000000d0ef0400010000006e
:10de5800d8ef04000100000008f0040024edff7f63
:10de68003cf1040001000000f0f60400010000008d
:10de7800f8f604000100000038f7040054ebff7fb7
:10de880060f8040001000000f8fd04000100000033
:10de980000fe04000100000034fe0400a0ebff7f38
:10dea80030ff040001000000e40405000100000048
:10deb800ec040500010000002405050018eaff7fb6
:10dec8000c06050001000000c00b05000100000061
:10ded800c80b0500c8e8ff7ff00c05000100000032
:10dee800a012050001000000a812050001000000b2
:10def800dc120500d8ebff7fb0130500010000001d
:10df08006419050001000000282005007ceaff7f55
:10df18006020050001000000102605000100000037
:10df28009831050001000000b8310500010000002b
:10df3800d831050001000000f8310500010000009b
:10df480018320500010000007032050001000000d1
:10df5800c63205000100000018330500010000006a
:10df68003833050001000000fc3305000100000003
:10df78003034050001000000a03405000100000055
:10df8800b234050001000000dc3405000100000087
:10df98000635050001000000883505000100000075
:10dfa800a235050001000000bc3505000100000095
:10dfb800d635050001000000fc3505000100000011
:10dfc8002e360500010000005c3605000100000047
:10dfd800bc36050001000000ec3605000100000019
:10dfe80030370500010000006c3705000100000013
:10dff80094370500010000000a3805000100000000
:10e008007038050001000000f63805000100000026
:10e01800ea39050001000000103b0500010000007e
:10e02800b04a050001000000d04a050001000000c8
:10e03800f04a050001000000104b05000100000037
:10e04800304b050001000000504b050001000000a6
:10e05800a84b050001000000fe4b05000100000070
:10e06800504c050001000000704c05000100000044
:10e07800344d050001000000684d05000100000056
:10e08800844d050001000000f44d0500010000006a
:10e09800064e050001000000304e0500010000009a
:10e0a8005a4e0500010000007c4e050001000000ea
:10e0b800b04e050001000000c44e0500010000003c
:10e0c800d84e050001000000ec4e050001000000dc
:10e0d800124f050001000000745305000100000004
:10e0e800b85c050001000000005d050001000000ab
:10e0f800505d050001000000885d0500010000007a
:10e10800a45d050001000000e05d050001000000bd
:10e11800025e050001000000245e05000100000009
:10e12800605e050001000000ac5e05000100000013
:10e13800cc5e0500010000000c5f05000100000036
:10e14800685f050001000000c85f050001000000cd
:10e158002460050001000000306005000100000097
:10e168004060050001000000546005000100000047
:10e17800a460050001000000d86805000100000047
:10e18800686905005ce1ff7fd86a050060e1ff7ff0
:10e19800626b050064e1ff7fe26b0500010000008f
:10e1a800a06c0500010000002c78050001000000ab
:10e1b8005c78050000840480707805000100000088
:10e1c8006c780500b0ad0480347b0500b0a80380ee
:10e1d800547b0500dce9ff7f587b0500e0e9ff7f01
:10e1e800647b050001000000647b0500010000005d
:10e1f800a08e05000100000080a4050001000000b9
:10e20800b2a4050001000000c4a40500010000003c
:10e21800d4a4050001000000e4a4050001000000ea
:10e22800f4a405000100000004a505000100000099
:10e238001ea505000100000036a50500010000002c
:10e2480062a50500010000007aa505000100000094
:10e2580096a5050001000000b2a505000100000018
:10e26800e0a5050001000000e4ae05000100000083
:10e2780030af050008e4ff7fa4af050001000000ef
:10e2880044b00500010000004cb00500010000008a
:10e298005ab005000100000070b005000100000040
:10e2a80080b0050044e4ff7f9cb0050048e4ff7f90
:10e2b800b8b005004ce4ff7fd4b0050050e4ff7f00
:10e2c800f0b0050054e4ff7f0cb1050058e4ff7f6f
:10e2d80040b105005ce4ff7f6cb10500010000005f
:10e2e80078b105000100000086b10500dce2ff7f7f
:10e2f800d4b10500010000008eb205000100000045
:10e3080058c805000100000080c805000100000091
:10e31800b2c8050001000000e4c8050001000000c3
:10e3280054df05000100000098e705003ce5ff7f89
:08e33800b8f30500010000002c
:020000040000fa
:10e340005ca00020040000000100000000000000ac
:10e35000703a02201c00000000000000043b022074
:10e360000400000001000000006cdc02083b0220f9
:10e370000400000000000000fc3a0220050000003c
:10e38000000000000c3b0220040000000000000020
:10e39000103b0220040000000000000000000020ec
:10e3a00024020000000000002402002010000000f1
:10e3b00000000000183a02203000000001000000b8
:10e3c0000200000004001040000003000200700082
:10e3d000b9fc00000000000005000000140020004f
:10e3e00000010000353600000000d700001bb70018
:10e3f000a83a02201800000000000000143b022090
:10e400000400000001000000aaaaaaaadc3a022027
:10e410000800000000000000183b0220040000007b
:10e4200001000000389c000008040020549c0000fb
:10e4300000000000883602200401000000000000f7
:10e44000383902203c000000000000004435022062
:10e450004401000000000000c03a0220100000004b
:10e46000010000003031323334353637383941421b
:10e4700043444546d8d701201104000000000000a5
:10e4800034020020a80000000000000094ce01200b
:10e490001b05000000000000dc0200200800000056
:10e4a00000000000ac390220350000000000000030
:10e4b000e40200201001000000000000e43a022005
:10e4c0000800000000000000f8fa012030020000ff
:10e4d000010000009cf304000000000002000000a6
:10e4e000010000000000000000100000000000001b
:10e4f000a0f30400acf304000000000000040000de
:10e5000000000000bcf30400acf3040000000000b5
:10e510000002000000000000c8f30400acf3040097
:10e52000000000002000000000000000a0f3040034
:10e53000d4f3040000000000800000000000000090
:10e54000bcf30400d4f3040000000000000100004c
:10e5500000000000c8f30400d4f304000000000031
:10e56000e0f30400000100000100000001000000d1
:10e57000000000002000000000000000a0f30400e4
:10e58000e4f3040000000000800000000000000030
:10e59000bcf30400e4f304000000000000010000ec
:10e5a00000000000c8f30400e4f3040000000000d1
:10e5b00063000000000000000000000000000000f8
:10e5c00000000000630000000000000000000000e8
:10e5d00000000000000000006300000000000000d8
:10e5e00000000000000000000000000080f40400b3
:10e5f0000001000001000000010000000000000018
:10e600002000000000000000a0f30400d4f3040088
:10e61000000000008000000000000000c8f30400bb
:10e62000d4f304000000000000040000000000001b
:10e63000c8f30400acf30400000000006300000015
:10e6400000000000000000000000000000000000ca
:10e650006300000000000000000000000000000057
:10e660000000000063000000000000000000000047
:10e67000000000000000000088f404000001000019
:10e680000100000001000000000000000010000078
:10e6900000000000a0f30400acf304000000000040
:10e6a0000004000000000000c8f30400acf3040004
:10e6b000000000008000000000000000c8f304001b
:10e6c000d4f304000000000063000000000000001c
:10e6d00000000000000000000000000063000000d7
:10e6e000000000000000000000000000000000002a
:10e6f00063000000000000000000000000000000b7
:10e700000000000060a00020500b0000000000008e
:10e7100014c10120c006000000000000e4390220fe
:10e720003300000000000000d4c70120c006000034
:10e7300000000000ec3a0220080000000000000089
:10e74000f40300200400000000000000d03a022082
:10e750000c0000000000000028fd01203002000035
:10e7600001000000280c050000000000020000006d
:10e770000100000000000000001000000000000088
:10e780002c0c0500380c05000000000000040000ff
:10e7900000000000480c0500380c050000000000d7
:10e7a0000002000000000000540c0500380c0500b9
:10e7b0000000000020000000000000002c0c0500fc
:10e7c000600c050000000000800000000000000058
:10e7d000480c0500600c050000000000000100006e
:10e7e00000000000540c0500600c05000000000053
:10e7f0006c0c050000010000010000000100000099
:10e800000000000020000000000000002c0c0500ab
:10e81000700c0500000000008000000000000000f7
:10e82000480c0500700c050000000000000100000d
:10e8300000000000540c0500700c050000000000f2
:10e840006300000000000000000000000000000065
:10e850000000000063000000000000000000000055
:10e860000000000000000000630000000000000045
:10e870000000000000000000000000000c0d05007a
:10e880000001000001000000010000000000000085
:10e8900020000000000000002c0c0500600c0500aa
:10e8a000000000008000000000000000540c050083
:10e8b000600c0500000000000004000000000000e3
:10e8c000540c0500380c0500000000006300000037
:10e8d0000000000000000000000000000000000038
:10e8e00063000000000000000000000000000000c5
:10e8f00000000000630000000000000000000000b5
:10e900000000000000000000140d050000010000e0
:10e9100001000000010000000000000000100000e5
:10e92000000000002c0c0500380c05000000000061
:10e930000004000000000000540c0500380c050025
:10e94000000000008000000000000000540c0500e2
:10e95000600c0500000000006300000000000000e3
:10e960000000000000000000000000006300000044
:10e970000000000000000000000000000000000097
:10e980006300000000000000000000000000000024
:10e990000000000050ba0120c10600000000000085
:10e9a0001c3b02200400000000000000f8030020cf
:10e9b000040000000000000090380220a8000000c1
:10e9c00000000000f4df01206c02000001000000e4
:10e9d00040f80300000000000200000001000000f9
:10e9e00000000000001000000000000044f80300d8
:10e9f00050f80300000000000004000000000000c8
:10ea000060f8030050f8030000000000000200005e
:10ea1000000000006cf8030050f803000000000044
:10ea2000200000000000000044f8030078f8030014
:10ea300000000000800000000000000060f80300fb
:10ea400078f8030000000000000100000000000052
:10ea50006cf8030078f803000000000084f803005d
:10ea600000010000010000000100000000000000a3
:10ea7000200000000000000044f8030088f80300b4
:10ea800000000000800000000000000060f80300ab
:10ea900088f80300000000000001000000000000f2
:10eaa0006cf8030088f80300000000006300000019
:10eab0000000000000000000000000000000000056
:10eac00063000000000000000000000000000000e3
:10ead00000000000630000000000000000000000d3
:10eae000000000000000000024f903000001000005
:10eaf00001000000010000000000000020000000f4
:10eb00000000000044f8030078f803000000000053
:10eb100080000000000000006cf8030078f803009b
:10eb20000000000000040000000000006cf803007a
:10eb300050f8030000000000630000000000000027
:10eb40000000000000000000000000006300000062
:10eb500000000000000000000000000000000000b5
:10eb60006300000000000000000000000000000042
:10eb7000000000002cf9030000010000010000006b
:10eb80000100000000000000001000000000000074
:10eb900044f8030050f803000000000000040000e7
:10eba000000000006cf8030050f8030000000000b3
:10ebb00080000000000000006cf8030078f80300fb
:10ebc00000000000630000000000000000000000e2
:10ebd00000000000000000006300000000000000d2
:10ebe00000000000000000000000000063000000c2
:10ebf0000000000000000000000000000000000015
:10ec00000cc7002034c700205cc7002084c7002048
:10ec1000acc70020d4c70020fcc7002024c80020b7
:10ec20004cc8002074c800209cc80020c4c8002024
:10ec3000ecc8002014c900203cc900204cc00020b2
:10ec4000480900000000000058ff012030020000c9
:10ec500001000000801b0400000000000200000012
:10ec60000100000000000000001000000000000093
:10ec7000841b0400901b040000000000000400003e
:10ec800000000000a01b0400901b04000000000016
:10ec90000002000000000000ac1b0400901b0400f8
:10eca000000000002000000000000000841b0400a1
:10ecb000b81b0400000000008000000000000000fd
:10ecc000a01b0400b81b04000000000000010000ad
:10ecd00000000000ac1b0400b81b04000000000092
:10ece000c41b04000001000001000000010000003e
:10ecf000000000002000000000000000841b040051
:10ed0000c81b04000000000080000000000000009c
:10ed1000a01b0400c81b040000000000000100004c
:10ed200000000000ac1b0400c81b04000000000031
:10ed30006300000000000000000000000000000070
:10ed40000000000063000000000000000000000060
:10ed50000000000000000000630000000000000050
:10ed6000000000000000000000000000641c04001f
:10ed70000001000001000000010000000000000090
:10ed80002000000000000000841b0400b81b0400e9
:10ed9000000000008000000000000000ac1b040028
:10eda000b81b040000000000000400000000000088
:10edb000ac1b0400901b0400000000006300000076
:10edc0000000000000000000000000000000000043
:10edd00063000000000000000000000000000000d0
:10ede00000000000630000000000000000000000c0
:10edf00000000000000000006c1c04000001000086
:10ee000001000000010000000000000000100000f0
:10ee100000000000841b0400901b040000000000a0
:10ee20000004000000000000ac1b0400901b040064
:10ee3000000000008000000000000000ac1b040087
:10ee4000b81b040000000000630000000000000088
:10ee5000000000000000000000000000630000004f
:10ee600000000000000000000000000000000000a2
:10ee7000630000000000000000000000000000002f
:10ee800000000000f4b60020580900000000000057
:10ee9000203b022004000000000000007439022022
:10eea000380000000000000068eb01203c02000078
:10eeb000010000009c880400000000000200000027
:10eec0000100000000000000001000000000000031
:10eed000a0880400ac8804000000000000040000ca
:10eee00000000000bc880400ac88040000000000a2
:10eef0000002000000000000c8880400ac88040084
:10ef0000000000002000000000000000a0880400b5
:10ef1000d488040000000000800000000000000011
:10ef2000bc880400d4880400000000000001000038
:10ef300000000000c8880400d4880400000000001d
:10ef4000e088040000010000010000000100000052
:10ef5000000000002000000000000000a088040065
:10ef6000e4880400000000008000000000000000b1
:10ef7000bc880400e48804000000000000010000d8
:10ef800000000000c8880400e488040000000000bd
:10ef9000630000000000000000000000000000000e
:10efa00000000000630000000000000000000000fe
:10efb00000000000000000006300000000000000ee
:10efc0000000000000000000000000008089040034
:10efd000000100000100000001000000000000002e
:10efe0002000000000000000a0880400d488040075
:10eff000000000008000000000000000c88804003d
:10f00000d48804000000000000040000000000009c
:10f01000c8880400ac880400000000006300000001
:10f0200000000000000000000000000000000000e0
:10f03000630000000000000000000000000000006d
:10f04000000000006300000000000000000000005d
:10f05000000000000000000088890400000100009a
:10f06000010000000100000000000000001000008e
:10f0700000000000a0880400ac880400000000002c
:10f080000004000000000000c8880400ac880400f0
:10f09000000000008000000000000000c88804009c
:10f0a000d48804000000000063000000000000009d
:10f0b00000000000000000000000000063000000ed
:10f0c0000000000000000000000000000000000040
:10f0d00063000000000000000000000000000000cd
:10f0e000000000001f1c1f1e1f1e1f1f1e1f1e1fb3
:10f0f0009c2601204007000000000000880102203b
:10f100003002000001000000501405000000000063
:10f1100002000000010000000000000000100000dc
:10f1200000000000541405006014050000000000f9
:10f1300000040000000000007014050060140500c9
:10f140000000000000020000000000007c14050028
:10f150006014050000000000200000000000000016
:10f160005414050088140500000000008000000011
:10f170000000000070140500881405000000000065
:10f1800000010000000000007c1405008814050048
:10f1900000000000941405000001000001000000c0
:10f1a000010000000000000020000000000000003e
:10f1b00054140500981405000000000080000000b1
:10f1c0000000000070140500981405000000000005
:10f1d00000010000000000007c14050098140500e8
:10f1e00000000000630000000000000000000000bc
:10f1f00000000000000000006300000000000000ac
:10f20000000000000000000000000000630000009b
:10f2100000000000000000000000000000000000ee
:10f22000341505000001000001000000010000008d
:10f230000000000020000000000000005414050041
:10f24000881405000000000080000000000000009d
:10f250007c14050088140500000000000004000074
:10f26000000000007c140500601405000000000090
:10f27000630000000000000000000000000000002b
:10f28000000000006300000000000000000000001b
:10f29000000000000000000063000000000000000b
:10f2a0000000000000000000000000003c15050008
:10f2b000000100000100000001000000000000004b
:10f2c0000010000000000000541405006014050048
:10f2d0000000000000040000000000007c14050095
:10f2e0006014050000000000800000000000000025
:10f2f0007c14050088140500000000006300000075
:10f3000000000000000000000000000000000000fd
:10f31000630000000000000000000000000000008a
:10f32000000000006300000000000000000000007a
:10f330000000000000000000041801204c0700003d
:10f3400000000000b80302203002000001000000ad
:10f3500058c204000000000002000000010000008c
:10f360000000000000100000000000005cc204006b
:10f3700068c204000000000000040000000000005b
:10f3800078c2040068c2040000000000000200000f
:10f390000000000084c2040068c2040000000000f5
:10f3a00020000000000000005cc2040090c20400c5
:10f3b00000000000800000000000000078c204008f
:10f3c00090c20400000000000001000000000000e6
:10f3d00084c2040090c20400000000009cc204002b
:10f3e000000100000100000001000000000000001a
:10f3f00020000000000000005cc20400a0c2040065
:10f4000000000000800000000000000078c204003e
:10f41000a0c2040000000000000100000000000085
:10f4200084c20400a0c204000000000063000000c9
:10f4300000000000000000000000000000000000cc
:10f440006300000000000000000000000000000059
:10f450000000000063000000000000000000000049
:10f4600000000000000000003cc304000001000098
:10f47000010000000100000000000000200000006a
:10f48000000000005cc2040090c204000000000004
:10f49000800000000000000084c2040090c204004c
:10f4a00000000000000400000000000084c204000e
:10f4b00068c20400000000006300000000000000bb
:10f4c00000000000000000000000000063000000d9
:10f4d000000000000000000000000000000000002c
:10f4e00063000000000000000000000000000000b9
:10f4f0000000000044c304000001000001000000ff
:10f5000001000000000000000010000000000000ea
:10f510005cc2040068c20400000000000004000097
:10f520000000000084c2040068c204000000000063
:10f53000800000000000000084c2040090c20400ab
:10f540000000000063000000000000000000000058
:10f550000000000000000000630000000000000048
:10f560000000000000000000000000006300000038
:10f57000000000000000000000000000000000008b
:10f58000504301201807000000000000e805022099
:10f590003002000001000000e0b1040000000000a3
:10f5a0000200000001000000000000000010000048
:10f5b00000000000e4b10400f0b10400000000000d
:10f5c000000400000000000000b20400f0b10400dc
:10f5d0000000000000020000000000000cb2040067
:10f5e000f0b1040000000000200000000000000056
:10f5f000e4b1040018b20400000000008000000024
:10f600000000000000b2040018b204000000000076
:10f6100000010000000000000cb2040018b2040059
:10f620000000000024b204000001000001000000fe
:10f6300001000000000000002000000000000000a9
:10f64000e4b1040028b204000000000080000000c3
:10f650000000000000b2040028b204000000000016
:10f6600000010000000000000cb2040028b20400f9
:10f670000000000063000000000000000000000027
:10f680000000000000000000630000000000000017
:10f690000000000000000000000000006300000007
:10f6a000000000000000000000000000000000005a
:10f6b000c4b20400000100000100000001000000cd
:10f6c000000000002000000000000000e4b1040081
:10f6d00018b20400000000008000000000000000dc
:10f6e0000cb2040018b20400000000000004000086
:10f6f000000000000cb20400f0b1040000000000a3
:10f700006300000000000000000000000000000096
:10f710000000000063000000000000000000000086
:10f720000000000000000000630000000000000076
:10f73000000000000000000000000000ccb2040047
:10f7400000010000010000000100000000000000b6
:10f750000010000000000000e4b10400f0b104005b
:10f760000000000000040000000000000cb20400d3
:10f77000f0b1040000000000800000000000000064
:10f780000cb2040018b20400000000006300000086
:10f790000000000000000000000000000000000069
:10f7a00063000000000000000000000000000000f6
:10f7b00000000000630000000000000000000000e6
:10f7c000000000000000000070b30120e00600000f
:10f7d00000000000f43a02200800000000000000d1
:10f7e000f1b600200300000001000000010101004b
:10f7f0008c3a022019000000000000008c37022023
:10f80000010100000000000090f601203402000019
:10f81000010000001cba040000000000020000000b
:10f8200001000000000000000010000000000000c7
:10f8300020ba04002cba04000000000000040000fc
:10f84000000000003cba04002cba040000000000d4
:10f85000000200000000000048ba04002cba0400b6
:10f8600000000000200000000000000020ba04009a
:10f8700054ba0400000000008000000000000000f6
:10f880003cba040054ba040000000000000100006b
:10f890000000000048ba040054ba04000000000050
:10f8a00060ba040000010000010000000100000037
:10f8b00000000000200000000000000020ba04004a
:10f8c00064ba040000000000800000000000000096
:10f8d0003cba040064ba040000000000000100000b
:10f8e0000000000048ba040064ba040000000000f0
:10f8f00063000000000000000000000000000000a5
:10f900000000000063000000000000000000000094
:10f910000000000000000000630000000000000084
:10f9200000000000000000000000000000bb040018
:10f9300000010000010000000100000000000000c4
:10f94000200000000000000020ba040054ba0400a7
:10f9500000000000800000000000000048ba040021
:10f9600054ba040000000000000400000000000081
:10f9700048ba04002cba0400000000006300000034
:10f980000000000000000000000000000000000077
:10f990006300000000000000000000000000000004
:10f9a00000000000630000000000000000000000f4
:10f9b000000000000000000008bb0400000100007f
:10f9c0000100000001000000000000000010000025
:10f9d0000000000020ba04002cba0400000000005f
:10f9e000000400000000000048ba04002cba040023
:10f9f00000000000800000000000000048ba040081
:10fa000054ba040000000000630000000000000081
:10fa10000000000000000000000000006300000083
:10fa200000000000000000000000000000000000d6
:10fa30006300000000000000000000000000000063
:10fa400000000000c3000000d07b01200007000080
:10fa50000000000060e201204102000001000000ff
:10fa6000903d0400000000000200000001000000c2
:10fa7000000000000010000000000000943d0400a1
:10fa8000a03d040000000000000400000000000091
:10fa9000b03d0400a03d0400000000000002000092
:10faa00000000000bc3d0400a03d04000000000078
:10fab0002000000000000000943d0400c83d040048
:10fac000000000008000000000000000b03d0400c5
:10fad000c83d04000000000000010000000000001c
:10fae000bc3d0400c83d040000000000d43d0400fb
:10faf0000001000001000000010000000000000003
:10fb00002000000000000000943d0400d83d0400e7
:10fb1000000000008000000000000000b03d040074
:10fb2000d83d0400000000000001000000000000bb
:10fb3000bc3d0400d83d040000000000630000004c
:10fb400000000000000000000000000000000000b5
:10fb50006300000000000000000000000000000042
:10fb60000000000063000000000000000000000032
:10fb70000000000000000000743e040000010000ce
:10fb80000100000001000000000000002000000053
:10fb900000000000943d0400c83d04000000000087
:10fba0008000000000000000bc3d0400c83d0400cf
:10fbb000000000000004000000000000bc3d040044
:10fbc000a03d0400000000006300000000000000f1
:10fbd00000000000000000000000000063000000c2
:10fbe0000000000000000000000000000000000015
:10fbf00063000000000000000000000000000000a2
:10fc0000000000007c3e0400000100000100000034
:10fc100001000000000000000010000000000000d3
:10fc2000943d0400a03d040000000000000400001a
:10fc300000000000bc3d0400a03d040000000000e6
:10fc40008000000000000000bc3d0400c83d04002e
:10fc50000000000063000000000000000000000041
:10fc60000000000000000000630000000000000031
:10fc70000000000000000000000000006300000021
:10fc80000000000000000000000000000000000074
:10fc900001000000090000001e0000002c0100000f
:10fca0000100000088fa00207d070000000000002d
:10fcb0001808022030020000010000000446040081
:10fcc0000000000002000000010000000000000031
:10fcd0000010000000000000084604001446040064
:10fce00000000000000400000000000024460400a2
:10fcf00014460400000000000002000000000000a4
:10fd000030460400144604000000000020000000fb
:10fd100000000000084604003c460400000000000b
:10fd20008000000000000000244604003c4604005f
:10fd30000000000000010000000000003046040048
:10fd40003c4604000000000048460400000100009a
:10fd50000100000001000000000000002000000081
:10fd600000000000084604004c46040000000000ab
:10fd70008000000000000000244604004c460400ff
:10fd800000000000000100000000000030460400f8
:10fd90004c4604000000000063000000000000006a
:10fda00000000000000000000000000063000000f0
:10fdb0000000000000000000000000000000000043
:10fdc00063000000000000000000000000000000d0
:10fdd00000000000e84604000001000001000000ef
:10fde00001000000000000002000000000000000f2
:10fdf000084604003c4604000000000080000000ab
:10fe000000000000304604003c46040000000000f2
:10fe10000004000000000000304604001446040006
:10fe2000000000006300000000000000000000006f
:10fe3000000000000000000063000000000000005f
:10fe4000000000000000000000000000630000004f
:10fe500000000000000000000000000000000000a2
:10fe6000f046040000010000010000000100000055
:10fe70000000000000100000000000000846040020
:10fe80001446040000000000000400000000000010
:10fe9000304604001446040000000000800000000a
:10fea00000000000304604003c4604000000000052
:10feb00063000000000000000000000000000000df
:10fec00000000000630000000000000000000000cf
:10fed00000000000000000006300000000000000bf
:10fee00000000000000000000000000008020120e7
:10fef0005807000000000000480a022030020000fd
:10ff000001000000ccfb0400000000000200000023
:10ff100001000000000000000010000000000000d0
:10ff2000d0fb0400dcfb0400000000000004000023
:10ff300000000000ecfb0400dcfb040000000000fb
:10ff40000002000000000000f8fb0400dcfb0400dd
:10ff5000000000002000000000000000d0fb0400b2
:10ff600004fc04000000000080000000000000000d
:10ff7000ecfb040004fc0400000000000001000091
:10ff800000000000f8fb040004fc04000000000076
:10ff900010fc04000001000001000000010000004e
:10ffa000000000002000000000000000d0fb040062
:10ffb00014fc0400000000008000000000000000ad
:10ffc000ecfb040014fc0400000000000001000031
:10ffd00000000000f8fb040014fc04000000000016
:10ffe00063000000000000000000000000000000ae
:10fff000000000006300000000000000000000009e
:020000040001f9
:10000000000000000000000063000000000000008d
:10001000000000000000000000000000b0fc040030
:1000200000010000010000000100000000000000cd
:100030002000000000000000d0fb040004fc0400cd
:10004000000000008000000000000000f8fb040039
:1000500004fc040000000000000400000000000098
:10006000f8fb0400dcfb040000000000630000005b
:100070000000000000000000000000000000000080
:10008000630000000000000000000000000000000d
:1000900000000000630000000000000000000000fd
:1000a0000000000000000000b8fc04000001000097
:1000b000010000000100000000000000001000002e
:1000c00000000000d0fb0400dcfb04000000000086
:1000d0000004000000000000f8fb0400dcfb04004a
:1000e000000000008000000000000000f8fb040099
:1000f00004fc040000000000630000000000000099
:10010000000000000000000000000000630000008c
:1001100000000000000000000000000000000000df
:10012000630000000000000000000000000000006c
:1001300000000000d0820120f8060000000000004e
:100140001cf20120390200000100000050010400ef
:10015000000000000200000001000000000000009c
:1001600000100000000000005401040060010400c1
:100170000000000000040000000000007001040006
:100180006001040000000000000200000000000008
:100190007c01040060010400000000002000000059
:1001a0000000000054010400880104000000000069
:1001b00080000000000000007001040088010400bd
:1001c0000000000000010000000000007c010400ad
:1001d00088010400000000009401040000010000f8
:1001e00001000000010000000000000020000000ed
:1001f0000000000054010400980104000000000009
:10020000800000000000000070010400980104005c
:100210000000000000010000000000007c0104005c
:1002200098010400000000006300000000000000ce
:10023000000000000000000000000000630000005b
:1002400000000000000000000000000000000000ae
:10025000630000000000000000000000000000003b
:100260000000000034020400000100000100000052
:10027000010000000000000020000000000000005d
:100280005401040088010400000000008000000008
:10029000000000007c010400880104000000000050
:1002a00000040000000000007c0104006001040064
:1002b00000000000630000000000000000000000db
:1002c00000000000000000006300000000000000cb
:1002d00000000000000000000000000063000000bb
:1002e000000000000000000000000000000000000e
:1002f0003c020400000100000100000001000000b9
:100300000000000000100000000000005401040084
:100310006001040000000000000400000000000074
:100320007c01040060010400000000008000000067
:10033000000000007c0104008801040000000000af
:10034000630000000000000000000000000000004a
:10035000000000006300000000000000000000003a
:10036000000000000000000063000000000000002a
:10037000000000000000000000000000020000007b
:10038000050000000300000060d200207808000093
:1003900000000000780c0220300200000100000084
:1003a000e0900400000000000200000001000000d6
:1003b000000000000010000000000000e4900400b5
:1003c000f0900400000000000004000000000000a5
:1003d00000910400f0900400000000000002000002
:1003e000000000000c910400f090040000000000e8
:1003f0002000000000000000e490040018910400b8
:1004000000000000800000000000000000910400d7
:10041000189104000000000000010000000000002e
:100420000c910400189104000000000024910400c5
:1004300000010000010000000100000000000000b9
:100440002000000000000000e49004002891040057
:100450000000000080000000000000000091040087
:1004600028910400000000000001000000000000ce
:100470000c910400289104000000000063000000bb
:10048000000000000000000000000000000000006c
:1004900063000000000000000000000000000000f9
:1004a00000000000630000000000000000000000e9
:1004b0000000000000000000c491040000010000e2
:1004c000010000000100000000000000200000000a
:1004d00000000000e49004001891040000000000f7
:1004e00080000000000000000c910400189104003e
:1004f0000000000000040000000000000c91040057
:10050000f090040000000000630000000000000004
:100510000000000000000000000000006300000078
:1005200000000000000000000000000000000000cb
:100530006300000000000000000000000000000058
:1005400000000000cc910400000100000100000048
:10055000010000000000000000100000000000008a
:10056000e4900400f090040000000000000400008b
:10057000000000000c910400f09004000000000056
:1005800080000000000000000c910400189104009d
:1005900000000000630000000000000000000000f8
:1005a00000000000000000006300000000000000e8
:1005b00000000000000000000000000063000000d8
:1005c000000000000000000000000000000000002b
:1005d000e4f20020a407000000000000a80e0220a2
:1005e000300200000100000024ef030000000000c2
:1005f00002000000010000000000000000100000e8
:100600000000000028ef030034ef030000000000aa
:10061000000400000000000044ef030034ef03007a
:1006200000000000000200000000000050ef030086
:1006300034ef030000000000200000000000000074
:1006400028ef03005cef03000000000080000000c2
:100650000000000044ef03005cef03000000000016
:10066000000100000000000050ef03005cef0300f9
:100670000000000068ef030000010000010000001e
:100680000100000000000000200000000000000049
:1006900028ef03006cef0300000000008000000062
:1006a0000000000044ef03006cef030000000000b6
:1006b000000100000000000050ef03006cef030099
:1006c00000000000630000000000000000000000c7
:1006d00000000000000000006300000000000000b7
:1006e00000000000000000000000000063000000a7
:1006f00000000000000000000000000000000000fa
:1007000008f00300000100000100000001000000eb
:1007100000000000200000000000000028ef03009f
:100720005cef0300000000008000000000000000fb
:1007300050ef03005cef0300000000000004000025
:100740000000000050ef030034ef03000000000041
:100750006300000000000000000000000000000036
:100760000000000063000000000000000000000026
:100770000000000000000000630000000000000016
:1007800000000000000000000000000010f0030066
:100790000001000001000000010000000000000056
:1007a000001000000000000028ef030034ef0300f9
:1007b00000000000000400000000000050ef0300f3
:1007c00034ef030000000000800000000000000083
:1007d00050ef03005cef0300000000006300000026
:1007e0000000000000000000000000000000000009
:1007f0006300000000000000000000000000000096
:100800000000000063000000000000000000000085
:10081000000000000000000094c90020ca08000089
:1008200000000000d810022030020000010000008b
:100830001078040000000000020000000100000029
:100840000000000000100000000000001478040008
:1008500020780400000000000004000000000000f8
:10086000307804002078040000000000000200003e
:10087000000000003c780400207804000000000024
:1008800020000000000000001478040048780400f4
:10089000000000008000000000000000307804002c
:1008a0004878040000000000000100000000000083
:1008b0003c780400487804000000000054780400ec
:1008c0000001000001000000010000000000000025
:1008d0002000000000000000147804005878040094
:1008e00000000000800000000000000030780400dc
:1008f0005878040000000000000100000000000023
:100900003c780400587804000000000063000000f8
:1009100000000000000000000000000000000000d7
:100920006300000000000000000000000000000064
:100930000000000063000000000000000000000054
:100940000000000000000000f47804000001000036
:100950000100000001000000000000002000000075
:100960000000000014780400487804000000000033
:1009700080000000000000003c780400487804007b
:100980000000000000040000000000003c780400ab
:100990002078040000000000630000000000000058
:1009a00000000000000000000000000063000000e4
:1009b0000000000000000000000000000000000037
:1009c00063000000000000000000000000000000c4
:1009d00000000000fc78040000010000010000009d
:1009e00001000000000000000010000000000000f6
:1009f00014780400207804000000000000040000c7
:100a0000000000003c780400207804000000000092
:100a100080000000000000003c78040048780400da
:100a20000000000063000000000000000000000063
:100a30000000000000000000630000000000000053
:100a40000000000000000000000000006300000043
:100a50000000000000000000000000000000000096
:100a60008cac0120e40600000000000058f40120d6
:100a700035020000010000001835040000000000ed
:100a80000200000001000000000000000010000053
:100a9000000000001c3504002835040000000000a0
:100aa0000004000000000000383504002835040070
:100ab00000000000000200000000000044350400b7
:100ac00028350400000000002000000000000000a5
:100ad0001c350400503504000000000080000000b8
:100ae000000000003835040050350400000000000c
:100af00000010000000000004435040050350400ef
:100b0000000000005c35040000010000010000004e
:100b100001000000000000002000000000000000b4
:100b20001c35040060350400000000008000000057
:100b300000000000383504006035040000000000ab
:100b4000000100000000000044350400603504008e
:100b50000000000063000000000000000000000032
:100b60000000000000000000630000000000000022
:100b70000000000000000000000000006300000012
:100b80000000000000000000000000000000000065
:100b9000fc3504000001000001000000010000001d
:100ba0000000000020000000000000001c350400d0
:100bb000503504000000000080000000000000002c
:100bc000443504005035040000000000000400001b
:100bd0000000000044350400283504000000000037
:100be00063000000000000000000000000000000a2
:100bf0000000000063000000000000000000000092
:100c00000000000000000000630000000000000081
:100c10000000000000000000000000000436040096
:100c200000010000010000000100000000000000c1
:100c300000100000000000001c35040028350400ee
:100c40000000000000040000000000004435040023
:100c500028350400000000008000000000000000b3
:100c6000443504005035040000000000630000001b
:100c70000000000000000000000000000000000074
:100c80006300000000000000000000000000000001
:100c900000000000630000000000000000000000f1
:100ca0000000000000000000010000000100000042
:100cb000d8da0020780800000000000008130220a5
:100cc0003002000001000000fc03050000000000ed
:100cd0000200000001000000000000000010000001
:100ce00000000000000405000c04050000000000e6
:100cf00000040000000000001c0405000c040500b6
:100d000000000000000200000000000028040500b0
:100d10000c0405000000000020000000000000009e
:100d200000040500340405000000000080000000fd
:100d3000000000001c040500340405000000000051
:100d40000001000000000000280405003404050034
:100d50000000000040040500000100000100000048
:100d60000100000000000000200000000000000062
:100d7000000405004404050000000000800000009d
:100d8000000000001c0405004404050000000000f1
:100d900000010000000000002804050044040500d4
:100da00000000000630000000000000000000000e0
:100db00000000000000000006300000000000000d0
:100dc00000000000000000000000000063000000c0
:100dd0000000000000000000000000000000000013
:100de000e004050000010000010000000100000017
:100df00000000000200000000000000000040500ca
:100e00003404050000000000800000000000000025
:100e10002804050034040500000000000004000060
:100e200000000000280405000c040500000000007c
:100e3000630000000000000000000000000000004f
:100e4000000000006300000000000000000000003f
:100e5000000000000000000063000000000000002f
:100e6000000000000000000000000000e804050091
:100e7000000100000100000001000000000000006f
:100e80000010000000000000000405000c04050034
:100e9000000000000004000000000000280405001d
:100ea0000c040500000000008000000000000000ad
:100eb0002804050034040500000000006300000061
:100ec0000000000000000000000000000000000022
:100ed00063000000000000000000000000000000af
:100ee000000000006300000000000000000000009f
:100ef0000000000000000000c87401200807000086
:100f0000000000003815022030020000010000003f
:100f10002099040000000000020000000100000011
:100f200000000000001000000000000024990400f0
:100f300030990400000000000004000000000000e0
:100f400040990400309904000000000000020000f5
:100f5000000000004c9904003099040000000000db
:100f600020000000000000002499040058990400ab
:100f70000000000080000000000000004099040014
:100f8000589904000000000000010000000000006b
:100f90004c99040058990400000000006499040072
:100fa000000100000100000001000000000000003e
:100fb000200000000000000024990400689904004b
:100fc00000000000800000000000000040990400c4
:100fd000689904000000000000010000000000000b
:100fe0004c990400689904000000000063000000b0
:100ff00000000000000000000000000000000000f1
:10100000630000000000000000000000000000007d
:10101000000000006300000000000000000000006d
:101020000000000000000000049a0400000100001d
:10103000010000000100000000000000200000008e
:1010400000000000249904005899040000000000ea
:1010500080000000000000004c9904005899040032
:101060000000000000040000000000004c99040093
:101070003099040000000000630000000000000040
:1010800000000000000000000000000063000000fd
:101090000000000000000000000000000000000050
:1010a00063000000000000000000000000000000dd
:1010b000000000000c9a0400000100000100000084
:1010c000010000000000000000100000000000000f
:1010d000249904003099040000000000000400007e
:1010e000000000004c99040030990400000000004a
:1010f00080000000000000004c9904005899040092
:10110000000000006300000000000000000000007c
:10111000000000000000000063000000000000006c
:10112000000000000000000000000000630000005c
:1011300000000000000000000000000000000000af
:101140002c3c01202407000000000000681702204a
:10115000300200000100000090dc030000000000ed
:10116000020000000100000000000000001000006c
:101170000000000094dc0300a0dc0300000000007d
:101180000004000000000000b0dc0300a0dc03004d
:10119000000000000002000000000000bcdc0300b2
:1011a000a0dc0300000000002000000000000000a0
:1011b00094dc0300c8dc0300000000008000000095
:1011c00000000000b0dc0300c8dc030000000000e9
:1011d0000001000000000000bcdc0300c8dc0300cc
:1011e00000000000d4dc030000010000010000004a
:1011f00001000000000000002000000000000000ce
:1012000094dc0300d8dc0300000000008000000034
:1012100000000000b0dc0300d8dc03000000000088
:101220000001000000000000bcdc0300d8dc03006b
:10123000000000006300000000000000000000004b
:10124000000000000000000063000000000000003b
:10125000000000000000000000000000630000002b
:10126000000000000000000000000000000000007e
:1012700074dd030000010000010000000100000017
:1012800000000000200000000000000094dc0300cb
:10129000c8dc030000000000800000000000000027
:1012a000bcdc0300c8dc03000000000000040000f8
:1012b00000000000bcdc0300a0dc03000000000014
:1012c00063000000000000000000000000000000bb
:1012d00000000000630000000000000000000000ab
:1012e000000000000000000063000000000000009b
:1012f0000000000000000000000000007cdd030092
:1013000000010000010000000100000000000000da
:10131000001000000000000094dc0300a0dc0300cb
:10132000000000000004000000000000bcdc03001e
:10133000a0dc0300000000008000000000000000ae
:10134000bcdc0300c8dc03000000000063000000f8
:10135000000000000000000000000000000000008d
:10136000630000000000000000000000000000001a
:10137000000000006300000000000000000000000a
:101380000000000000000000b0ab0020410b000096
:101390000000000098190220300200000100000047
:1013a00000db04000000000002000000010000005b
:1013b00000000000001000000000000004db04003a
:1013c00010db04000000000000040000000000002a
:1013d00020db040010db040000000000000200001d
:1013e000000000002cdb040010db04000000000003
:1013f000200000000000000004db040038db0400d3
:1014000000000000800000000000000020db04005d
:1014100038db0400000000000001000000000000b4
:101420002cdb040038db04000000000044db040077
:1014300000010000010000000100000000000000a9
:10144000200000000000000004db040048db040072
:1014500000000000800000000000000020db04000d
:1014600048db040000000000000100000000000054
:101470002cdb040048db04000000000063000000d7
:10148000000000000000000000000000000000005c
:1014900063000000000000000000000000000000e9
:1014a00000000000630000000000000000000000d9
:1014b0000000000000000000e4db04000001000068
:1014c00001000000010000000000000020000000fa
:1014d0000000000004db040038db04000000000012
:1014e00080000000000000002cdb040038db04005a
:1014f0000000000000040000000000002cdb0400dd
:1015000010db040000000000630000000000000089
:101510000000000000000000000000006300000068
:1015200000000000000000000000000000000000bb
:101530006300000000000000000000000000000048
:1015400000000000ecdb04000001000001000000ce
:10155000010000000000000000100000000000007a
:1015600004db040010db04000000000000040000a5
:10157000000000002cdb040010db04000000000071
:1015800080000000000000002cdb040038db0400b9
:1015900000000000630000000000000000000000e8
:1015a00000000000000000006300000000000000d8
:1015b00000000000000000000000000063000000c8
:1015c000000000000000000000000000000000001b
:1015d000b06601200907000000000000e8e60120d5
:1015e0003e0200000100000060a1040000000000b5
:1015f00002000000010000000000000000100000d8
:101600000000000064a1040070a1040000000000bc
:10161000000400000000000080a1040070a104008c
:101620000000000000020000000000008ca1040087
:1016300070a1040000000000200000000000000075
:1016400064a1040098a104000000000080000000d4
:101650000000000080a1040098a104000000000028
:1016600000010000000000008ca1040098a104000b
:1016700000000000a4a1040000010000010000001f
:101680000100000000000000200000000000000039
:1016900064a10400a8a10400000000008000000074
:1016a0000000000080a10400a8a1040000000000c8
:1016b00000010000000000008ca10400a8a10400ab
:1016c00000000000630000000000000000000000b7
:1016d00000000000000000006300000000000000a7
:1016e0000000000000000000000000006300000097
:1016f00000000000000000000000000000000000ea
:1017000044a20400000100000100000001000000ec
:1017100000000000200000000000000064a10400a0
:1017200098a10400000000008000000000000000fc
:101730008ca1040098a10400000000000004000037
:10174000000000008ca1040070a104000000000053
:101750006300000000000000000000000000000026
:101760000000000063000000000000000000000016
:101770000000000000000000630000000000000006
:101780000000000000000000000000004ca2040067
:101790000001000001000000010000000000000046
:1017a000001000000000000064a1040070a104000b
:1017b0000000000000040000000000008ca10400f4
:1017c00070a1040000000000800000000000000084
:1017d0008ca1040098a10400000000006300000038
:1017e00000000000000000000000000000000000f9
:1017f0006300000000000000000000000000000086
:101800000000000063000000000000000000000075
:101810000000000000000000284e4f5754522900dd
:101820002857545229000000600901205107000088
:1018300000000000c81b0220300200000100000070
:1018400090ca040000000000020000000100000037
:1018500000000000001000000000000094ca040016
:10186000a0ca040000000000000400000000000006
:10187000b0ca0400a0ca040000000000000200007a
:1018800000000000bcca0400a0ca04000000000060
:10189000200000000000000094ca0400c8ca040030
:1018a000000000008000000000000000b0ca04003a
:1018b000c8ca040000000000000100000000000091
:1018c000bcca0400c8ca040000000000d4ca040056
:1018d0000001000001000000010000000000000005
:1018e000200000000000000094ca0400d8ca0400d0
:1018f000000000008000000000000000b0ca0400ea
:10190000d8ca040000000000000100000000000030
:10191000bcca0400d8ca0400000000006300000034
:1019200000000000000000000000000000000000b7
:101930006300000000000000000000000000000044
:101940000000000063000000000000000000000034
:10195000000000000000000074cb04000001000043
:101960000100000001000000000000002000000055
:101970000000000094ca0400c8ca0400000000006f
:101980008000000000000000bcca0400c8ca0400b7
:10199000000000000004000000000000bcca0400b9
:1019a000a0ca040000000000630000000000000066
:1019b00000000000000000000000000063000000c4
:1019c0000000000000000000000000000000000017
:1019d00063000000000000000000000000000000a4
:1019e000000000007ccb04000001000001000000aa
:1019f00001000000000000000010000000000000d6
:101a000094ca0400a0ca0400000000000004000002
:101a100000000000bcca0400a0ca040000000000ce
:101a20008000000000000000bcca0400c8ca040016
:101a30000000000063000000000000000000000043
:101a40000000000000000000630000000000000033
:101a50000000000000000000000000006300000023
:101a60000000000000000000000000000000000076
:101a7000905801201107000000000000f81d02200e
:101a80003002000001000000701c05000000000092
:101a90000200000001000000000000000010000033
:101aa00000000000741c0500801c05000000000000
:101ab0000004000000000000901c0500801c0500d0
