:020000040000fa
:10c00000f8ff0320d1c90600af950600a7e8060097
:10c01000af950600a1e80600af95060000000000fd
:10c020000000000000000000000000003d4206008b
:10c03000af95060000000000a94406001745060061
:10c04000af950600af950600af950600af950600c8
:10c05000af950600af950600af950600af950600b8
:10c06000af950600af950600af95060065c60300c4
:10c07000af950600af950600af950600af95060098
:10c08000af950600af950600af950600af95060088
:10c09000af950600af950600af950600af95060078
:10c0a000af950600af950600af950600af95060068
:10c0b000af950600af950600af950600af95060058
:10c0c000af950600af950600af950600af95060048
:10c0d000af950600af950600af950600af95060038
:10c0e000af950600af9506000000000000000000bc
:10c0f00000000000998a0600af950600af95060083
:10c10000af950600af950600af950600af95060007
:10c11000af950600af9506009d7b0100b57b010041
:10c12000cd7b0100af950600af950600af950600e8
:10c13000af950600af950600af950600af950600d7
:10c14000af950600af950600fd7b0100157c010050
:10c150002d7c0100af950600af950600af95060057
:10c16000af950600af950600af950600af950600a7
:10c17000af950600af950600af950600af95060097
:10c18000af950600af950600af950600af95060087
:10c19000af950600af950600af950600af95060077
:10c1a000af950600af950600af950600af95060067
:10c1b000af950600af950600af950600af95060057
:10c1c000af950600af950600af950600af95060047
:10c1d000af950600af950600af950600af95060037
:10c1e000af950600af950600af950600af95060027
:10c1f000af950600af950600af950600af95060017
:10c20000af950600af950600af950600af95060006
:10c21000af950600af950600af9506005d9306004a
:10c22000af950600af950600af950600af950600e6
:10c23000af950600af950600af950600af950600d6
:10c24000af950600af950600af950600af950600c6
:10c25000af950600af950600af950600af950600b6
:04c26000af95060090
:020000040000fa
:10c2640003970181b0b00884000000000d9701819c
:10c27400b0b00b840000000009970181b0b00b84ba
:10c284000000000003970181b0b0088400000000a2
:10c2940003970181b0b00884000000000197018178
:10c2a400b0b008840000000001970181b0b0088498
:10c2b4000000000001970181b0b008840000000074
:10c2c40001970181b0b00884000000000397018148
:10c2d400b0b008840000000003970181b0b0088466
:10c2e4000000000003970181b0b008840000000042
:10c2f40001970181b0b0088400000000019701811a
:10c30400b0b008840000000005970181b0b0088433
:10c314000000000001970181b0b008840000000013
:10c3240002970181b0b009840000000001970181e7
:10c33400b0b008840000000001970181b0b0088407
:10c344000000000003970181b0b0088400000000e1
:10c3540001970181b0b008840000000001970181b9
:10c36400b0b008840000000001970181b0b00884d7
:10c374000000000001970181b0b0088400000000b3
:10c3840003970181b0b00884000000000397018185
:10c39400b0b008840000000003970181b0b00884a5
:10c3a4000000000003970181b0b008840000000081
:10c3b40004970181b0b00984000000000597018151
:10c3c400b0b008840000000005970181b0b0088473
:10c3d4000000000001970181b0b008840000000053
:10c3e40001970181b0b00884000000000397018127
:10c3f400b0b008840000000003970181b0b0088445
:10c404000000000001970181b0b008840000000022
:10c4140001970181b0b008840000000005970181f4
:10c42400b0b008840000000003970181b0b0088414
:10c434000000000003970181b0b0088400000000f0
:10c4440003970181b0b008840000000003970181c4
:10c45400b0b008840000000001970181b0b00884e6
:10c464000000000001970181b0b0088400000000c2
:10c4740003970181b0b00884000000000197018196
:10c48400b0b008840000000001970181b0b00884b6
:10c494000000000003970181b0b008840000000090
:10c4a40001970181b0b00884000000000397018166
:10c4b400b0b008840000000003970181b0b0088484
:10c4c4000000000003970181b0b008840000000060
:10c4d40009970181b0b0088400000000039701812e
:10c4e400b0b008840000000001970181b0b0088456
:10c4f4000000000003970181b0b008840000000030
:10c504000b970181b0b008840000000005970181f9
:10c51400b0b008840000000001970181b0b0088425
:10c524000000000004970181b0b0098400000000fd
:10c5340004970181b0b009840000000001970181d3
:10c54400b0b008840000000002970181b0b00984f3
:10c554000000000001970181b0b0088400000000d1
:10c5640001970181b0b008840000000005970181a3
:10c57400b0b008840000000001970181b0b00884c5
:10c584000000000003970181b0b00884000000009f
:10c5940001970181b0030884000000000197018124
:10c5a400b0b008840000000007970181b0b008848f
:10c5b4000000000001970181b0b008840000000071
:10c5c40001970181b0b00884000000000597018143
:10c5d400b0b008840000000005970181b0b0088461
:10c5e4000000000001970181b0b008840000000041
:10c5f40001970181b0b00884000000000397018115
:10c60400b0b008840000000003970181b0b0088432
:10c614000000000003970181b0b00884000000000e
:10c6240007970181b0b008840000000007970181da
:10c63400b0b008840000000006970181b0b00984fe
:10c644000000000005970181b0b0088400000000dc
:10c6540003970181b0b008840000000001970181b4
:10c66400b0b008840000000001970181b0b00884d4
:10c674000000000005970181b0b0088400000000ac
:10c6840001970181b0b00884000000000597018182
:10c69400b0b00884000000001b970181b0b00b8487
:10c6a4000000000003970181b0b00884000000007e
:10c6b4000d970181b0b00884000000000997018142
:10c6c400b0b008840000000009970181b0b008846c
:10c6d4000000000002970181b0b00984000000004e
:10c6e40001970181b0b03b840000000003970181f1
:10c6f400b0b03b840000000003970181b0b008840f
:10c704000000000003970181b0b00884000000001d
:10c7140003970181b0b008840000000003970181f1
:10c72400b0b008840000000003970181b0b0088411
:10c734000000000005970181b0b0088400000000eb
:10c7440003970181b0b008840000000001970181c3
:10c75400b0b008840000000001970181b0b00884e3
:10c764000000000001970181b0b0088400000000bf
:10c7740001970181b0b00884000000000197018195
:10c78400b0b008840000000001970181b0b00b84b0
:10c794000000000001970181b0b00b84000000008c
:10c7a40001970181b0b00b84000000000197018162
:10c7b400b0b008840000000005970181b0b008847f
:10c7c4000000000001970181b0b00884000000005f
:10c7d40009970181b0b0088400000000019701812d
:10c7e400b0030b840000000004970181b0030984a6
:10c7f400000000000d970181b0b008840000000023
:10c8040005970181b0b008840000000005970181fc
:10c81400b0b008840000000007970181b0b008841c
:10c824000000000003970181b0b0088400000000fc
:10c8340003970181b0b008840000000005970181ce
:10c84400b0b008840000000009970181b0b00884ea
:10c854000000000005970181b0b0088400000000ca
:10c8640005970181b0b0088400000000069701819b
:10c87400b0b009840000000001970181b0b00884c1
:10c884000000000005970181b0b00884000000009a
:10c8940007970181b0b00884000000000797018168
:10c8a400b0b008840000000007970181b0b008848c
:10c8b4000000000007970181b0b008840000000068
:10c8c40007970181b0b0088400000000019701813e
:10c8d400b0b008840000000005970181b0b00b845b
:10c8e4000000000005970181b0b00884000000003a
:10c8f40001970181b0b00884000000000197018114
:10c90400b0b008840000000001970181b0b0088431
:10c914000000000003970181b0b00884000000000b
:10c9240003970181b0b008840000000003970181df
:10c93400b0b008840000000001970181b0b0088401
:10c944000000000001970181b0b0088400000000dd
:10c9540017970181b0b0088400000000019701819d
:10c96400b0b008840000000003970181b0b00b84cc
:10c974000000000001970181b0b0088400000000ad
:10c9840001970181b0b0088400000000179701816d
:10c99400b0b008840000000001970181b0b00884a1
:10c9a4000000000001970181b0b00884000000007d
:10c9b40001970181b0b0088400000000059701814f
:10c9c400b0b008840000000005970181b0b008846d
:10c9d4000000000005970181b0b008840000000049
:10c9e40001970181b0b00884000000000497018120
:10c9f400b0b009840000000001970181b0b0088440
:10ca04000000000001970181b0b00884000000001c
:10ca140001970181b0b008840000000007970181ec
:10ca2400b0b008840000000003970181b0b008840e
:10ca34000000000001970181b0b0088400000000ec
:10ca440001970181b0b008840000000002970181c1
:10ca5400b0b009840000000008970181b0b00984d7
:10ca64000000000005970181b0b0088400000000b8
:10ca740001970181b0b00b8400000000019701818f
:10ca8400b0b008840000000001970181b0b00884b0
:10ca94000000000001970181b0b00884000000008c
:10caa40001970181b0b00884000000000197018162
:10cab400b0b008840000000001970181b0b0088480
:10cac4000000000001970181b0b00884000000005c
:10cad40001970181b0b00884000000000197018132
:10cae400b0b008840000000006970181b0b009844a
:10caf4000000000005970181b0b008840000000028
:10cb040001970181b0b00884000000000197018101
:10cb1400b0b008840000000005970181b0b008841b
:10cb24000000000001970181b0b0088400000000fb
:10cb340001970181b0b008840000000005970181cd
:10cb4400b0b008840000000001970181b0b00884ef
:10cb54000000000001970181b0b0088400000000cb
:10cb640001970181b0b008840000000001970181a1
:10cb7400b0b00884000000000b970181b0b00884b5
:10cb84000000000005970181b0b008840000000097
:10cb940001970181b0b00884000000000197018171
:10cba400b0b008840000000001970181b0b008848f
:10cbb4000000000001970181b0b00884000000006b
:10cbc40001970181b0b008840000000008b1018120
:10cbd400b0b000840000000008b10181b0b000844e
:10cbe40000000000f8b500bff8bc08bc9e467047c2
:10cbf4009de60600c5d006008d7503006d24030074
:10cc0400595b060065410600fdd305007959020011
:10cc1400ed9f060059800300c1950200058b0300b7
:10cc240009620500c16a030099fe050069eb020070
:10cc34002d4f06006908040025dc020021a0050030
:10cc4400a1f70500552d020071e20500a9fa0200c2
:10cc540041120600ad3d030099e90500b9cc050079
:10cc6400c5810200a5f005005581050015be05002b
:10cc7400d1a7050041950300f908030041af050061
:10cc8400699f03007d050600d1710500f159050077
:10cc9400bd9005009d790500719805001dd0030025
:10cca400b1b605003ddb0500edf50300f8b500bfa6
:0cccb400f8bc08bc9e467047a1d00600ea
:020000040000fa
:10ccc00028470100010000008047010028fcff7f89
:10ccd0009048010001000000cc48010024fcff7fc7
:10cce0008c49010001000000c449010020fcff7fc5
:10ccf000904a010001000000c44a01000100000048
:10cd0000084b010001000000b44b010001000000cd
:10cd1000f04b0100010000001c4c0100010000006c
:10cd20007c4c0100f4fbff7fc04d010001000000be
:10cd3000304e0100f0fbff7fe453010001000000d2
:10cd400054540100ecfbff7fec580100f0fbff7f27
:10cd500044590100f4fbff7fb459010001000000b9
:10cd6000f45f01000100000088770100010000006d
:10cd7000a877010001000000c27701000100000057
:10cd8000e2770100010000000278010001000000cc
:10cd90001e780100010000003e7801000100000043
:10cda0005a78010001000000b27801000100000083
:10cdb00008790100010000005a790100010000001b
:10cdc0009679010001000000d27901000100000005
:10cdd000f279010001000000b47a010034f7ff7f0e
:10cde000107b010001000000a07b01000100000099
:10cdf000107c010001000000367c010001000000f1
:10ce0000487c010001000000727c010010f7ff7fe8
:10ce1000a27c010014f7ff7f687d010018f7ff7ff7
:10ce2000fc7f010001000000a08001000100000063
:10ce3000d08101000cf7ff7faa82010010f7ff7f6d
:10ce4000d884010001000000fa8401000cf7ff7f84
:10ce50001085010010f7ff7f3685010001000000fa
:10ce60007a85010001000000108b01000100000024
:10ce7000188b010001000000388b01000100000048
:10ce8000528b010001000000728b010001000000c4
:10ce9000928b010001000000ae8b01000100000038
:10cea000ce8b010001000000ea8b010001000000b0
:10ceb000428c010001000000988c0100010000007c
:10cec000ea8c0100010000000a8d01000100000051
:10ced000cc8d010001000000008e010030f4ff7fc6
:10cee0005c8e010001000000cc8e010001000000fa
:10cef000de8e010001000000088f0100010000002b
:10cf0000328f010014f4ff7f628f010018f4ff7f5d
:10cf10009891010001000000c4910100010000008f
:10cf2000da91010001000000f09101000100000011
:10cf300006920100fcf3ff7f1c92010000f4ff7fca
:10cf4000329201000100000048920100010000003f
:10cf5000649201000100000078920100ecf3ff7f71
:10cf600040940100f0f3ff7f6a940100f4f3ff7f27
:10cf70009494010001000000ac940100f0f3ff7fe5
:10cf80004a950100f4f3ff7f74950100f8f3ff7fe9
:10cf90009895010001000000f896010001000000d2
:10cfa000589701000100000044980100e4f3ff7f5e
:10cfb00062980100e8f3ff7f80980100ecf3ff7fa7
:10cfc0009e9801000100000010990100010000007e
:10cfd0006e990100e0f3ff7f7c9a010001000000e0
:10cfe000a49a010001000000209b0100d4f3ff7f00
:10cff000de9b0100010000002c9c010001000000ec
:10d00000409c010001000000549c01000100000050
:10d01000689c0100010000007c9c010001000000f0
:10d02000a09c010001000000cc9c01000100000058
:10d030001a9d010001000000609d01000100000038
:10d04000849d010001000000b89d01000100000066
:10d05000309e0100b4f9ff7f2ca10100b8f9ff7fd9
:10d060006ca10100bcf9ff7f40a40100c0f9ff7f63
:10d0700028a50100c4f9ff7f8ca50100c8f9ff7f36
:10d08000f8a5010001000000d4a60100c4f9ff7f4b
:10d0900020a90100ad0297805caa010001000000f8
:10d0a00024b10100010000002cb1010001000000ca
:10d0b0004cb10100010000006cb101000100000052
:10d0c000a0b1010001000000cab101000100000090
:10d0d00050b20100c8f5ff7fa0b40100ccf5ff7f7e
:10d0e0000eb50100d0f5ff7fcab50100d4f5ff7f72
:10d0f00048b60100d8f5ff7f30b70100dcf5ff7faf
:10d1000004ba0100e0f5ff7f08bb0100e4f5ff7ff2
:10d1100060be010001000000a8c401000100000081
:10d1200058ea01000100000078ea01000100000057
:10d1300092ea010001000000b2ea010001000000d3
:10d14000d2ea010001000000eeea01000100000047
:10d150000eeb0100010000002aeb010001000000bd
:10d1600082eb010001000000d8eb0100010000008b
:10d170002aec01000100000066ec01000100000043
:10d18000a2ec010001000000c2ec0100010000005f
:10d1900084ed010001000000b8ed010030f2ff7fd6
:10d1a00014ee010001000000a4ee010001000000e7
:10d1b00014ef0100010000003aef0100010000003f
:10d1c0004cef01000100000076ef010001000000bb
:10d1d000a0ef010004f2ff7fd0ef0100010000008a
:10d1e000deef01000100000052f10100f8f1ff7fc5
:10d1f0009af10100fcf1ff7ffaf1010000f2ff7fdc
:10d200004cf2010004f2ff7f88f2010001000000ef
:10d210009cf2010001000000b0f2010001000000da
:10d22000c4f2010001000000d8f20100010000007a
:10d23000ecf201000100000000f301000100000019
:10d24000e6f3010001000000faf30100c8f1ff7fde
:10d2500012f40100ccf1ff7f42f40100d0f1ff7f16
:10d26000d4f40100d4f1ff7f0af50100d8f1ff7f6b
:10d27000d8f70100dcf1ff7f08f80100e0f1ff7f43
:10d280001af80100e4f1ff7f2cf80100e8f1ff7fbc
:10d290006af8010001000000b6f80100e4f1ff7f28
:10d2a000daf80100e8f1ff7ffef80100ecf1ff7f02
:10d2b00048f90100e0f5ff7fc0fa0100e4f5ff7fc7
:10d2c000e0fc0100e8f5ff7f68fe0100ecf5ff7f60
:10d2d0008c000200f0f5ff7fbc020200f4f5ff7f36
:10d2e00030030200010000003c09020001000000c0
:10d2f0004409020001000000a00902000100000032
:10d300000a0a0200010000007e0a0200010000007b
:10d31000ca0a0200ccf4ff7f080b0200d0f4ff7fa2
:10d32000460d020001000000520d0200ccf4ff7f08
:10d3300094110200d0f4ff7f2e120200d4f4ff7f7c
:10d340008412020001000000c0120200d0f4ff7f2e
:10d3500078130200d4f4ff7f9c130200d8f4ff7fff
:10d36000d8130200dcf4ff7f30140200e0f4ff7fea
:10d3700020160200e4f4ff7f78160200e8f4ff7f35
:10d38000d0160200ecf4ff7f8217020001000000bb
:10d39000a217020001000000d017020001000000e7
:10d3a000d8170200bcf5ff7f00190200c0f5ff7f0f
:10d3b000a41a020001000000ec1a0200bcf5ff7f75
:10d3c000e41b0200c0f5ff7fec1e0200010000001c
:10d3d000201f0200bcf5ff7fc0200200c0f5ff7fc8
:10d3e0002821020001000000c02602000100000008
:10d3f000c826020001000000e8260200010000002b
:10d400000827020001000000282702000100000098
:10d410004827020001000000a027020001000000d0
:10d42000f627020001000000482802000100000069
:10d430008428020001000000a4280200010000006e
:10d4400068290200010000009c2902000100000080
:10d450000c2a0200010000002c2a0200010000003a
:10d460004c2a0200010000005e2a020001000000b8
:10d47000882a020001000000b22a02000100000018
:10d48000642b020020f6ff7fb42b020024f6ff7ffe
:10d490002c2e020001000000603402000100000098
:10d4a000b442020001000000d4420200010000006a
:10d4b000f4420200010000001443020001000000d9
:10d4c00034430200010000008c4302000100000010
:10d4d000e2430200010000003444020001000000a9
:10d4e0005444020001000000184502000100000041
:10d4f0004c45020001000000bc4502000100000094
:10d50000ce45020001000000f845020001000000c5
:10d5100022460200010000005646020078edff7f1f
:10d52000a44602007cedff7fd246020080edff7f23
:10d53000e646020084edff7f1647020088edff7f7c
:10d540003c470200ae119780c849020084edff7f7e
:10d55000044a0200010000001e4a0200010000000f
:10d560002e4a0200010000003e4a020001000000b5
:10d57000664a020068edff7f8a4a0200010000004f
:10d58000ec4e020001000000f45b020028f4ff7f73
:10d59000185d02002cf4ff7fd45e020030f4ff7fa0
:10d5a0009060020001000000c46002002cf4ff7fc4
:10d5b0000862020030f4ff7f5462020001000000a4
:10d5c000ec67020001000000388a0200c0f1ff7f12
:10d5d000e08a0200c4f1ff7fc88c0200c8f1ff7f1f
:10d5e000108f020001000000d8940200010000002a
:10d5f000e094020070ecff7f209502000100000023
:10d600005c9502006cecff7fd897020070ecff7f06
:10d610005c98020074ecff7fcc980200088497802d
:10d620001499020001000000649f02000100000044
:10d630006c9f02005cf0ff7f34a302000100000039
:10d6400018aa02000100000020aa020004f1ff7fd6
:10d65000dcaa020008f1ff7f2cac02000cf1ff7f76
:10d660006cad020010f1ff7fb4ae020001000000bb
:10d6700094b40200010000009cb4020010f4ff7f8b
:10d6800018b5020014f4ff7f50b80200010000003a
:10d69000b0be020001000000b8be020038f4ff7ff7
:10d6a000d8be02003cf4ff7fc8c2020001000000a7
:10d6b000b8c8020001000000c0c80200010000005c
:10d6c000ccc802000100000024c9020001000000d3
:10d6d00044c90200b0a90280dcc90200b0b0a88031
:10d6e0002cca02000100000030ca02000100000044
:10d6f0002cca02000100000028ca0200b0b0aa80b3
:10d7000060ca0200ae71b28030cb0200010000009e
:10d710002ccb0200ab3f388084cb0200010000001c
:10d7200090cb0200b0b0aa80cccb02000100000078
:10d73000d4cb020001000000d0cb020001000000a9
:10d74000d4cb02000100000000cc02000100000068
:10d7500010cc0200010000003ccc020001000000df
:10d7600050cc0200ab0eb280b8cc0200b0af0a8041
:10d7700080cf0200010000007ccf02000100000009
:10d7800078cf02000100000074cf0200ab3f04809c
:10d79000ecee02000100000024ef0200ecf3ff7f3a
:10d7a000c0f202000100000074f802000100000055
:10d7b000f014030001000000101503000100000038
:10d7c0003015030001000000641503000100000093
:10d7d0008e150300d8f3ff7f54160300dcf3ff7fa0
:10d7e00018170300e0f3ff7f241803000100000076
:10d7f000fc1d030001000000482703000100000099
:10d800003428030001000000702803007cf0ff7f33
:10d810009c2a0300010000005030030001000000ba
:10d82000b460040001000000d460040001000000a6
:10d83000ee600400010000000e6104000100000021
:10d840002e610400010000004a6104000100000094
:10d850006a6104000100000086610400010000000c
:10d86000a6610400010000006862040001000000dd
:10d870009c62040068edff7ff86204000100000074
:10d8800022630400010000004c6304005cedff7f94
:10d890007c63040001000000a46304000100000098
:10d8a000d663040050edff7f4a64040054edff7f0f
:10d8b0008e64040058edff7fd86404005cedff7fa8
:10d8c0001c650400010000008465040058edff7f22
:10d8d0007a6604005cedff7f7467040060edff7ff3
:10d8e000cc67040064edff7f0268040001000000c3
:10d8f0002a680400010000005468040001000000d0
:10d9000074680400010000008e680400010000003b
:10d91000ae68040001000000ce68040001000000b1
:10d92000ea680400010000000a6904000100000028
:10d9300026690400010000007e6904000100000067
:10d94000d469040001000000266a04000100000000
:10d95000626a0400010000009e6a040001000000e9
:10d96000be6a040001000000806b0400010000009a
:10d97000b46b040048eeff7f106c0400010000004f
:10d98000a06c040001000000106d04000100000004
:10d99000366d040001000000486d04000100000025
:10d9a000726d0400010000009c6d04001ceeff7ffe
:10d9b000cc6d0400010000009e6e040018eeff7f95
:10d9c000e06f04000100000000700400010000008e
:10d9d0001a700400010000003a7004000100000009
:10d9e0005a7004000100000076700400010000007d
:10d9f0009670040001000000b270040001000000f5
:10da00000a710400010000006071040001000000c0
:10da1000b271040001000000d27104000100000096
:10da20009472040001000000c872040044ebff7f00
:10da3000247304000100000094730400010000003e
:10da4000a673040001000000d07304000100000070
:10da5000fa73040028ebff7f2a7404002cebff7f8d
:10da6000ec74040030ebff7f1c75040034ebff7f87
:10da70004075040038ebff7f84760400010000004d
:10da8000a476040034ebff7fca7604000100000096
:10da9000de76040001000000f276040028ebff7f30
:10daa00006770400010000003c770400010000003c
:10dab00056770400010000007277040001000000a6
:10dac0008e77040058f0ff7fe87704005cf0ff7f5a
:10dad0001878040008849780dc78040058f0ff7ff1
:10dae0005479040001000000087f040001000000d8
:10daf000107f040001000000547f040001000000ba
:10db0000fc7f04007cecff7f6081040001000000ca
:10db1000f886040001000000ec8e04000100000003
:10db2000068f040001000000228f040001000000a5
:10db30003e8f0400c4efff7f988f0400c8efff7f83
:10db4000c88f0400088497804c900400c4efff7fc6
:10db5000c490040001000000789604000100000059
:10db60008096040001000000e897040004f0ff7fa5
:10db70007098040001000000249e040001000000d1
:10db80002c9e040001000000789e040001000000ab
:10db9000c49e0400d4eeff7fe89f04000100000053
:10dba000b4a504000100000070ad040001000000f5
:10dbb0008aad040001000000a6ad040001000000d1
:10dbc000c2ad04007cefff7f1cae040080efff7f3e
:10dbd0004cae040084efff7fa8ae040088efff7f07
:10dbe00020af040001000000d4b4040001000000d4
:10dbf000dcb404000100000054b5040080efff7f96
:10dc0000b4b604000100000068bc0400010000007c
:10dc100070bc0400c8ecff7f08be040001000000d7
:10dc200000c404000100000008c40400010000005a
:10dc30004cc4040001000000e4c4040044eeff7f73
:10dc4000f0c504000100000088cb040001000000c2
:10dc500090cb040068eeff7fc4cb04006ceeff7f26
:10dc6000fccc040001000000d8d204000100000038
:10dc7000e0d204000100000010d3040018efff7f81
:10dc800074d404000100000028da04000100000040
:10dc900030da04000100000050da0400d8edff7f04
:10dca000a8db0400010000006ce10400010000009a
:10dcb00074e104000100000094e104000100000090
:10dcc000b4e1040001000000d4e104000100000000
:10dcd000f4e10400010000004ce204000100000037
:10dce000a2e2040001000000f4e2040001000000d0
:10dcf00030e304000100000050e3040001000000d4
:10dd000014e404000100000048e4040001000000e5
:10dd1000b8e4040001000000d8e4040001000000a1
:10dd2000f8e40400010000000ae50400010000001e
:10dd300034e50400010000005ee5040018e9ff7fff
:10dd400024e604001ce9ff7f48e6040020e9ff7f89
:10dd500066e604000100000078e60400010000000f
:10dd60008ce60400010000009ce6040001000000b5
:10dd7000aae6040004e9ff7fd0e7040001000000e8
:10dd8000e4e7040001000000f8e7040001000000df
:10dd90002ce8040068ecff7f80e90400010000002b
:10dda00018ef04000100000020ef0400f8e6ff7ff8
:10ddb000bcef040001000000e8ef040001000000d7
:10ddc00010f00400010000002af00400e4e6ff7fe8
:10ddd00080f00400ac07978020f10400e0e6ff7fac
:10dde00062f10400e4e6ff7facf10400e8e6ff7fa7
:10ddf00062f204000100000072f204000100000061
:10de000082f20400dce6ff7f3cf304000100000026
:10de100074f30400d8e6ff7f8af3040001000000d9
:10de2000bcf30400d4e6ff7ff0f30400d8e6ff7fe4
:10de300098f5040001000000c4f504000100000092
:10de4000ccf5040001000000fcf5040054edff7f58
:10de500030f7040001000000e4fc040001000000b1
:10de6000ecfc04000100000014fd040001000000af
:10de70001efd0400010000002cfd0400d8eaff7f15
:10de800034fe040001000000e8030500010000006a
:10de9000f0030500010000003004050054ebff7f93
:10dea0005805050001000000f00a0500010000000f
:10deb000f80a0500010000002c0b0500a0ebff7f15
:10dec000280c050001000000dc1105000100000025
:10ded000e4110500010000001c1205000ceaff7fa0
:10dee0000413050001000000b8180500010000003f
:10def000c0180500bce8ff7fe8190500010000001c
:10df0000981f050001000000a01f0500010000008f
:10df1000d41f0500d8ebff7fa820050001000000fa
:10df20005c26050001000000202d05007ceaff7f33
:10df3000582d050001000000083305000100000015
:10df4000903e050001000000b03e05000100000009
:10df5000d03e050001000000f03e05000100000079
:10df6000103f050001000000683f050001000000af
:10df7000be3f050001000000104005000100000048
:10df80003040050001000000f440050001000000e1
:10df90002841050001000000984105000100000033
:10dfa000aa41050001000000d44105000100000065
:10dfb000fe41050001000000804205000100000054
:10dfc0009a42050001000000b44205000100000073
:10dfd000ce42050001000000f442050001000000ef
:10dfe0002643050001000000544305000100000025
:10dff000b443050001000000e443050001000000f7
:10e0000028440500010000006444050001000000f0
:10e010008c440500010000000245050001000000dd
:10e020006845050001000000ee4505000100000004
:10e03000e24605000100000008480500010000005c
:10e04000a857050001000000c857050001000000a6
:10e05000e857050001000000085805000100000015
:10e060002858050001000000485805000100000084
:10e07000a058050001000000f6580500010000004e
:10e080004859050001000000685905000100000022
:10e090002c5a050001000000605a05000100000034
:10e0a0007c5a050001000000ec5a05000100000048
:10e0b000fe5a050001000000285b05000100000079
:10e0c000525b050001000000745b050001000000c8
:10e0d000a85b050001000000bc5b0500010000001a
:10e0e000d05b050001000000e45b050001000000ba
:10e0f0000a5c0500010000006c60050001000000e2
:10e10000b069050001000000f86905000100000089
:10e11000486a050001000000806a05000100000057
:10e120009c6a050001000000d86a0500010000009b
:10e13000fa6a0500010000001c6b050001000000e8
:10e14000586b050001000000a46b050001000000f1
:10e15000c46b050001000000046c05000100000014
:10e16000606c050001000000c06c050001000000ab
:10e170001c6d050001000000286d05000100000075
:10e18000386d0500010000004c6d05000100000025
:10e190009c6d050001000000d07505000100000025
:10e1a0006076050044e1ff7fd077050048e1ff7ffe
:10e1b0005a7805004ce1ff7fda7805000100000085
:10e1c0009879050001000000248505000100000089
:10e1d0005485050000840480688505000100000066
:10e1e00064850500b0ad04802c880500b0a80380cc
:10e1f0004c880500dce9ff7f50880500e0e9ff7fdf
:10e200005c880500010000005c880500010000003a
:10e21000989b05000100000088b105000100000086
:10e22000bab1050001000000ccb1050001000000fa
:10e23000dcb1050001000000ecb1050001000000a8
:10e24000fcb10500010000000cb205000100000057
:10e2500026b20500010000003eb2050001000000ea
:10e260006ab205000100000082b205000100000052
:10e270009eb2050001000000bab2050001000000d6
:10e28000e8b2050001000000ecbb05000100000041
:10e2900038bc0500f0e3ff7facbc050001000000c6
:10e2a0004cbd05000100000054bd05000100000048
:10e2b00062bd05000100000078bd050001000000fe
:10e2c00088bd050038e4ff7fa4bd05003ce4ff7f66
:10e2d000c0bd050040e4ff7fdcbd050044e4ff7fd6
:10e2e000f8bd050048e4ff7f14be05004ce4ff7f45
:10e2f00048be050050e4ff7f74be05000100000029
:10e3000080be0500010000008ebe0500c4e2ff7f54
:10e31000dcbe05000100000096bf05000100000002
:10e32000a0d6050001000000c8d6050001000000cd
:10e33000fad60500010000002cd7050001000000fe
:10e34000ecec05000100000030f5050030e5ff7f32
:08e350002c0106000100000091
:020000040000fa
:10e358005ca0002004000000010000000000000094
:10e36800d43b02201c000000000000001cd5012046
:10e378000400000001000000006cdc02683c022080
:10e388000400000000000000603c022005000000be
:10e39800000000006c3c02200400000000000000a7
:10e3a800703c022004000000000000000000002073
:10e3b80024020000000000002402002010000000d9
:10e3c800000000007c3b022030000000010000003b
:10e3d800020000000400104000000300020070006a
:10e3e800b9fc000000000000050000001400200037
:10e3f80000010000353600000000d700001bb70000
:10e408000c3c02201800000000000000743c0220b0
:10e418000400000001000000aaaaaaaa403c0220a9
:10e428000800000000000000783c02200400000002
:10e4380001000000389c000008040020549c0000e3
:10e4480000000000ec37022004010000000000007a
:10e458009c3a02203c00000000000000a836022080
:10e468004401000000000000243c022010000000cd
:10e478000100000030313233343536373839414203
:10e488004344454648d9012011040000000000001b
:10e4980034020020a80000000000000000d0012085
:10e4a8001b05000000000000dc020020080000003e
:10e4b80000000000103b02203500000000000000b2
:10e4c800e40200201001000000000000483c022087
:10e4d80008000000000000005cfc01203002000081
:10e4e8000100000050e404000000000002000000e9
:10e4f8000100000000000000001000000000000003
:10e5080054e4040060e4040000000000000400007b
:10e518000000000070e4040060e404000000000053
:10e5280000020000000000007ce4040060e4040035
:10e5380000000000200000000000000054e4040077
:10e5480088e40400000000008000000000000000d3
:10e5580070e4040088e404000000000000010000ea
:10e56800000000007ce4040088e4040000000000cf
:10e5780094e4040000010000010000000100000014
:10e5880000000000200000000000000054e4040027
:10e5980098e4040000000000800000000000000073
:10e5a80070e4040098e4040000000000000100008a
:10e5b800000000007ce4040098e40400000000006f
:10e5c80063000000000000000000000000000000e0
:10e5d80000000000630000000000000000000000d0
:10e5e80000000000000000006300000000000000c0
:10e5f80000000000000000000000000034e50400f6
:10e6080000010000010000000100000000000000ff
:10e61800200000000000000054e4040088e4040026
:10e628000000000080000000000000007ce40400fe
:10e6380088e404000000000000040000000000005e
:10e648007ce4040060e404000000000063000000b3
:10e6580000000000000000000000000000000000b2
:10e66800630000000000000000000000000000003f
:10e67800000000006300000000000000000000002f
:10e6880000000000000000003ce50400000100005c
:10e698000100000001000000000000000010000060
:10e6a8000000000054e4040060e4040000000000de
:10e6b80000040000000000007ce4040060e40400a2
:10e6c8000000000080000000000000007ce404005e
:10e6d80088e404000000000063000000000000005f
:10e6e80000000000000000000000000063000000bf
:10e6f8000000000000000000000000000000000012
:10e70800630000000000000000000000000000009e
:10e718000000000060a00020c00b00000000000006
:10e7280080c20120c006000000000000483b022013
:10e73800330000000000000040c90120c0060000ae
:10e7480000000000503c022008000000000000000b
:10e75800f40300200400000000000000343c022004
:10e768000c000000000000008cfe012030020000b8
:10e778000100000020fe040000000000020000006c
:10e788000100000000000000001000000000000070
:10e7980024fe040030fe0400000000000004000015
:10e7a8000000000040fe040030fe040000000000ed
:10e7b80000020000000000004cfe040030fe0400cf
:10e7c80000000000200000000000000024fe0400fb
:10e7d80058fe040000000000800000000000000057
:10e7e80040fe040058fe0400000000000001000084
:10e7f800000000004cfe040058fe04000000000069
:10e8080064fe040000010000010000000100000097
:10e8180000000000200000000000000024fe0400aa
:10e8280068fe0400000000008000000000000000f6
:10e8380040fe040068fe0400000000000001000023
:10e84800000000004cfe040068fe04000000000008
:10e85800630000000000000000000000000000004d
:10e86800000000006300000000000000000000003d
:10e87800000000000000000063000000000000002d
:10e8880000000000000000000000000004ff040079
:10e89800000100000100000001000000000000006d
:10e8a800200000000000000024fe040058fe0400c0
:10e8b8000000000080000000000000004cfe040082
:10e8c80058fe0400000000000004000000000000e2
:10e8d8004cfe040030fe040000000000630000004d
:10e8e8000000000000000000000000000000000020
:10e8f80063000000000000000000000000000000ad
:10e90800000000006300000000000000000000009c
:10e9180000000000000000000cff040000010000df
:10e9280001000000010000000000000000100000cd
:10e938000000000024fe040030fe04000000000077
:10e9480000040000000000004cfe040030fe04003b
:10e958000000000080000000000000004cfe0400e1
:10e9680058fe0400000000006300000000000000e2
:10e97800000000000000000000000000630000002c
:10e98800000000000000000000000000000000007f
:10e99800630000000000000000000000000000000c
:10e9a80000000000bcbb0120c10600000000000000
:10e9b8007c3c02200400000000000000f803002056
:10e9c8000400000000000000f4390220a800000044
:10e9d8000000000064e101206c020000010000005a
:10e9e800dcda030000000000020000000100000063
:10e9f800000000000010000000000000e0da030042
:10ea0800ecda030000000000000400000000000031
:10ea1800fcda0300ecda030000000000000200004a
:10ea28000000000008db0300ecda0300000000002f
:10ea38002000000000000000e0da030014db0300ff
:10ea4800000000008000000000000000fcda030065
:10ea580014db0300000000000001000000000000bb
:10ea680008db030014db03000000000020db0300c8
:10ea7800000100000100000001000000000000008b
:10ea88002000000000000000e0da030024db03009f
:10ea9800000000008000000000000000fcda030015
:10eaa80024db03000000000000010000000000005b
:10eab80008db030024db0300000000006300000003
:10eac800000000000000000000000000000000003e
:10ead80063000000000000000000000000000000cb
:10eae80000000000630000000000000000000000bb
:10eaf8000000000000000000c0db0300000100006f
:10eb080001000000010000000000000020000000db
:10eb180000000000e0da030014db0300000000003e
:10eb2800800000000000000008db030014db030085
:10eb380000000000000400000000000008db0300e3
:10eb4800ecda030000000000630000000000000091
:10eb5800000000000000000000000000630000004a
:10eb6800000000000000000000000000000000009d
:10eb7800630000000000000000000000000000002a
:10eb880000000000c8db03000001000001000000d5
:10eb9800010000000000000000100000000000005c
:10eba800e0da0300ecda03000000000000040000d3
:10ebb8000000000008db0300ecda0300000000009e
:10ebc800800000000000000008db030014db0300e5
:10ebd80000000000630000000000000000000000ca
:10ebe80000000000000000006300000000000000ba
:10ebf80000000000000000000000000063000000aa
:10ec080000000000000000000000000000000000fc
:10ec180078c70020a0c70020c8c70020f0c7002080
:10ec280018c8002040c8002068c8002090c80020ec
:10ec3800b8c80020e0c8002008c9002030c900205a
:10ec480058c9002080c90020a8c90020b8c00020e9
:10ec58004809000000000000bc000220300200004b
:10ec680001000000b41204000000000002000000cf
:10ec7800010000000000000000100000000000007b
:10ec8800b8120400c41204000000000000040000d0
:10ec980000000000d4120400c412040000000000a8
:10eca8000002000000000000e0120400c41204008a
:10ecb800000000002000000000000000b81204005e
:10ecc800ec120400000000008000000000000000ba
:10ecd800d4120400ec12040000000000000100003f
:10ece80000000000e0120400ec1204000000000024
:10ecf800f8120400000100000100000001000000fb
:10ed0800000000002000000000000000b81204000d
:10ed1800fc12040000000000800000000000000059
:10ed2800d4120400fc1204000000000000010000de
:10ed380000000000e0120400fc12040000000000c3
:10ed48006300000000000000000000000000000058
:10ed58000000000063000000000000000000000048
:10ed68000000000000000000630000000000000038
:10ed780000000000000000000000000098130400dc
:10ed88000001000001000000010000000000000078
:10ed98002000000000000000b8120400ec1204007b
:10eda800000000008000000000000000e0120400e5
:10edb800ec12040000000000000400000000000045
:10edc800e0120400c4120400000000006300000008
:10edd800000000000000000000000000000000002b
:10ede80063000000000000000000000000000000b8
:10edf80000000000630000000000000000000000a8
:10ee08000000000000000000a01304000001000042
:10ee180001000000010000000000000000100000d8
:10ee280000000000b8120400c41204000000000032
:10ee38000004000000000000e0120400c4120400f6
:10ee4800000000008000000000000000e012040044
:10ee5800ec12040000000000630000000000000045
:10ee68000000000000000000000000006300000037
:10ee7800000000000000000000000000000000008a
:10ee88006300000000000000000000000000000017
:10ee98000000000064b700205409000000000000d2
:10eea800803c02200400000000000000d83a022044
:10eeb8003800000000000000d8ec01203c020000ef
:10eec80001000000807c0400000000000200000037
:10eed8000100000000000000001000000000000019
:10eee800847c0400907c0400000000000004000002
:10eef80000000000a07c0400907c040000000000da
:10ef08000002000000000000ac7c0400907c0400bb
:10ef1800000000002000000000000000847c0400c5
:10ef2800b87c040000000000800000000000000021
:10ef3800a07c0400b87c0400000000000001000070
:10ef480000000000ac7c0400b87c04000000000055
:10ef5800c47c040000010000010000000100000062
:10ef6800000000002000000000000000847c040075
:10ef7800c87c0400000000008000000000000000c1
:10ef8800a07c0400c87c0400000000000001000010
:10ef980000000000ac7c0400c87c040000000000f5
:10efa80063000000000000000000000000000000f6
:10efb80000000000630000000000000000000000e6
:10efc80000000000000000006300000000000000d6
:10efd800000000000000000000000000647d040044
:10efe8000001000001000000010000000000000016
:10eff8002000000000000000847c0400b87c0400ad
:10f00800000000008000000000000000ac7c04004c
:10f01800b87c0400000000000004000000000000ac
:10f02800ac7c0400907c0400000000006300000039
:10f0380000000000000000000000000000000000c8
:10f048006300000000000000000000000000000055
:10f058000000000063000000000000000000000045
:10f0680000000000000000006c7d040000010000aa
:10f078000100000001000000000000000010000076
:10f0880000000000847c0400907c04000000000064
:10f098000004000000000000ac7c0400907c040028
:10f0a800000000008000000000000000ac7c0400ac
:10f0b800b87c0400000000006300000000000000ad
:10f0c80000000000000000000000000063000000d5
:10f0d8000000000000000000000000000000000028
:10f0e80063000000000000000000000000000000b5
:10f0f800000000001f1c1f1e1f1e1f1f1e1f1e1f9b
:10f10800082801204007000000000000ec0202204f
:10f118003002000001000000b406050000000000f5
:10f1280002000000010000000000000000100000c4
:10f1380000000000b8060500c40605000000000035
:10f148000004000000000000d4060500c406050005
:10f15800000000000002000000000000e0060500ba
:10f16800c4060500000000002000000000000000a8
:10f17800b8060500ec06050000000000800000004d
:10f1880000000000d4060500ec06050000000000a1
:10f198000001000000000000e0060500ec06050084
:10f1a80000000000f8060500000100000100000052
:10f1b8000100000000000000200000000000000026
:10f1c800b8060500fc0605000000000080000000ed
:10f1d80000000000d4060500fc0605000000000041
:10f1e8000001000000000000e0060500fc06050024
:10f1f80000000000630000000000000000000000a4
:10f208000000000000000000630000000000000093
:10f218000000000000000000000000006300000083
:10f2280000000000000000000000000000000000d6
:10f23800980705000001000001000000010000001f
:10f24800000000002000000000000000b8060500d3
:10f25800ec0605000000000080000000000000002f
:10f26800e0060500ec0605000000000000040000b0
:10f2780000000000e0060500c406050000000000cc
:10f288006300000000000000000000000000000013
:10f298000000000063000000000000000000000003
:10f2a80000000000000000006300000000000000f3
:10f2b800000000000000000000000000a00705009a
:10f2c8000001000001000000010000000000000033
:10f2d8000010000000000000b8060500c406050084
:10f2e800000000000004000000000000e006050027
:10f2f800c4060500000000008000000000000000b7
:10f30800e0060500ec0605000000000063000000b0
:10f3180000000000000000000000000000000000e5
:10f328006300000000000000000000000000000072
:10f338000000000063000000000000000000000062
:10f348000000000000000000701901204c070000b8
:10f35800000000001c05022030020000010000002f
:10f3680084b004000000000002000000010000005a
:10f3780000000000001000000000000088b0040039
:10f3880094b0040000000000000400000000000029
:10f39800a4b0040094b004000000000000020000c3
:10f3a80000000000b0b0040094b0040000000000a9
:10f3b800200000000000000088b00400bcb0040079
:10f3c800000000008000000000000000a4b004005d
:10f3d800bcb00400000000000001000000000000b4
:10f3e800b0b00400bcb0040000000000c8b00400c5
:10f3f8000001000001000000010000000000000002
:10f40800200000000000000088b00400ccb0040018
:10f41800000000008000000000000000a4b004000c
:10f42800ccb0040000000000000100000000000053
:10f43800b0b00400ccb0040000000000630000007d
:10f4480000000000000000000000000000000000b4
:10f458006300000000000000000000000000000041
:10f468000000000063000000000000000000000031
:10f47800000000000000000068b104000001000066
:10f488000100000001000000000000002000000052
:10f498000000000088b00400bcb0040000000000b8
:10f4a8008000000000000000b0b00400bcb0040000
:10f4b800000000000004000000000000b0b00400dc
:10f4c80094b0040000000000630000000000000089
:10f4d80000000000000000000000000063000000c1
:10f4e8000000000000000000000000000000000014
:10f4f80063000000000000000000000000000000a1
:10f508000000000070b104000001000001000000cc
:10f5180001000000000000000010000000000000d2
:10f5280088b0040094b0040000000000000400004b
:10f5380000000000b0b0040094b004000000000017
:10f548008000000000000000b0b00400bcb004005f
:10f558000000000063000000000000000000000040
:10f568000000000000000000630000000000000030
:10f578000000000000000000000000006300000020
:10f588000000000000000000000000000000000073
:10f59800bc44012018070000000000004c070220ae
:10f5a8003002000001000000349f04000000000049
:10f5b8000200000001000000000000000010000030
:10f5c80000000000389f0400449f04000000000071
:10f5d8000004000000000000549f0400449f040041
:10f5e800000000000002000000000000609f04000e
:10f5f800449f0400000000002000000000000000fc
:10f60800389f04006c9f0400000000008000000088
:10f6180000000000549f04006c9f040000000000dc
:10f628000001000000000000609f04006c9f0400bf
:10f6380000000000789f04000001000001000000a5
:10f648000100000000000000200000000000000091
:10f65800389f04007c9f0400000000008000000028
:10f6680000000000549f04007c9f0400000000007c
:10f678000001000000000000609f04007c9f04005f
:10f68800000000006300000000000000000000000f
:10f6980000000000000000006300000000000000ff
:10f6a80000000000000000000000000063000000ef
:10f6b8000000000000000000000000000000000042
:10f6c80018a0040000010000010000000100000073
:10f6d800000000002000000000000000389f040027
:10f6e8006c9f040000000000800000000000000083
:10f6f800609f04006c9f04000000000000040000ec
:10f7080000000000609f0400449f04000000000007
:10f71800630000000000000000000000000000007e
:10f72800000000006300000000000000000000006e
:10f73800000000000000000063000000000000005e
:10f7480000000000000000000000000020a00400ed
:10f75800000100000100000001000000000000009e
:10f768000010000000000000389f0400449f0400bf
:10f77800000000000004000000000000609f04007a
:10f78800449f04000000000080000000000000000a
:10f79800609f04006c9f04000000000063000000ec
:10f7a8000000000000000000000000000000000051
:10f7b80063000000000000000000000000000000de
:10f7c80000000000630000000000000000000000ce
:10f7d8000000000000000000dcb40120e00600008a
:10f7e80000000000583c0220080000000000000053
:10f7f80061b70020030000000100000001010100c2
:10f80800f03b02201900000000000000f038022040
:10f8180001010000000000008cf301203402000008
:10f8280001000000dca70400000000000200000046
:10f8380001000000000000000010000000000000af
:10f84800e0a70400eca7040000000000000400008a
:10f8580000000000fca70400eca704000000000062
:10f86800000200000000000008a80400eca7040043
:10f87800000000002000000000000000e0a70400d5
:10f8880014a8040000000000800000000000000030
:10f89800fca7040014a804000000000000010000f8
:10f8a8000000000008a8040014a8040000000000dc
:10f8b80020a8040000010000010000000100000071
:10f8c800000000002000000000000000e0a7040085
:10f8d80024a80400000000008000000000000000d0
:10f8e800fca7040024a80400000000000001000098
:10f8f8000000000008a8040024a80400000000007c
:10f90800630000000000000000000000000000008c
:10f91800000000006300000000000000000000007c
:10f92800000000000000000063000000000000006c
:10f93800000000000000000000000000c0a8040053
:10f9480000010000010000000100000000000000ac
:10f958002000000000000000e0a7040014a8040034
:10f9680000000000800000000000000008a804005b
:10f9780014a80400000000000004000000000000bb
:10f9880008a80400eca704000000000063000000c1
:10f99800000000000000000000000000000000005f
:10f9a80063000000000000000000000000000000ec
:10f9b80000000000630000000000000000000000dc
:10f9c8000000000000000000c8a8040000010000ba
:10f9d800010000000100000000000000001000000d
:10f9e80000000000e0a70400eca7040000000000ed
:10f9f800000400000000000008a80400eca70400b0
:10fa080000000000800000000000000008a80400ba
:10fa180014a80400000000006300000000000000bb
:10fa2800000000000000000000000000630000006b
:10fa380000000000000000000000000000000000be
:10fa4800630000000000000000000000000000004b
:10fa580000000000c30000003c7d012000070000fa
:10fa680000000000d0e30120410200000100000076
:10fa7800902d0400000000000200000001000000ba
:10fa8800000000000010000000000000942d040099
:10fa9800a02d040000000000000400000000000089
:10faa800b02d0400a02d040000000000000200009a
:10fab80000000000bc2d0400a02d04000000000080
:10fac8002000000000000000942d0400c82d040050
:10fad800000000008000000000000000b02d0400bd
:10fae800c82d040000000000000100000000000014
:10faf800bc2d0400c82d040000000000d42d040013
:10fb080000010000010000000100000000000000ea
:10fb18002000000000000000942d0400d82d0400ef
:10fb2800000000008000000000000000b02d04006c
:10fb3800d82d0400000000000001000000000000b3
:10fb4800bc2d0400d82d0400000000006300000054
:10fb5800000000000000000000000000000000009d
:10fb6800630000000000000000000000000000002a
:10fb7800000000006300000000000000000000001a
:10fb88000000000000000000742e040000010000c6
:10fb9800010000000100000000000000200000003b
:10fba80000000000942d0400c82d0400000000008f
:10fbb8008000000000000000bc2d0400c82d0400d7
:10fbc800000000000004000000000000bc2d04003c
:10fbd800a02d0400000000006300000000000000e9
:10fbe80000000000000000000000000063000000aa
:10fbf80000000000000000000000000000000000fd
:10fc08006300000000000000000000000000000089
:10fc1800000000007c2e040000010000010000002c
:10fc280001000000000000000010000000000000bb
:10fc3800942d0400a02d0400000000000004000022
:10fc480000000000bc2d0400a02d040000000000ee
:10fc58008000000000000000bc2d0400c82d040036
:10fc68000000000063000000000000000000000029
:10fc78000000000000000000630000000000000019
:10fc88000000000000000000000000006300000009
:10fc9800000000000000000000000000000000005c
:10fca80001000000090000001e0000002c010000f7
:10fcb80001000000f4fb00207d07000000000000a8
:10fcc8007c0902203002000001000000403f0400cf
:10fcd8000000000002000000010000000000000019
:10fce8000010000000000000443f0400503f0400e2
:10fcf800000000000004000000000000603f040055
:10fd0800503f040000000000000200000000000056
:10fd18006c3f0400503f0400000000002000000079
:10fd280000000000443f0400783f04000000000089
:10fd38008000000000000000603f0400783f0400dd
:10fd48000000000000010000000000006c3f0400fb
:10fd5800783f040000000000843f04000001000018
:10fd68000100000001000000000000002000000069
:10fd780000000000443f0400883f04000000000029
:10fd88008000000000000000603f0400883f04007d
:10fd98000000000000010000000000006c3f0400ab
:10fda800883f04000000000063000000000000001d
:10fdb80000000000000000000000000063000000d8
:10fdc800000000000000000000000000000000002b
:10fdd80063000000000000000000000000000000b8
:10fde80000000000244004000001000001000000a1
:10fdf80001000000000000002000000000000000da
:10fe0800443f0400783f0400000000008000000028
:10fe1800000000006c3f0400783f04000000000070
:10fe280000040000000000006c3f0400503f040084
:10fe38000000000063000000000000000000000057
:10fe48000000000000000000630000000000000047
:10fe58000000000000000000000000006300000037
:10fe6800000000000000000000000000000000008a
:10fe78002c40040000010000010000000100000007
:10fe8800000000000010000000000000443f0400d3
:10fe9800503f0400000000000004000000000000c3
:10fea8006c3f0400503f0400000000008000000088
:10feb800000000006c3f0400783f040000000000d0
:10fec80063000000000000000000000000000000c7
:10fed80000000000630000000000000000000000b7
:10fee80000000000000000006300000000000000a7
:10fef8000000000000000000000000007403012062
:10ff08005807000000000000ac0b0220300200007f
:10ff180001000000ecec04000000000002000000fa
:10ff280001000000000000000010000000000000b8
:10ff3800f0ec0400fcec04000000000000040000e9
:10ff4800000000000ced0400fcec040000000000c0
:10ff5800000200000000000018ed0400fcec0400a2
:10ff6800000000002000000000000000f0ec040089
:10ff780024ed0400000000008000000000000000e4
:10ff88000ced040024ed0400000000000001000056
:10ff98000000000018ed040024ed0400000000003b
:10ffa80030ed040000010000010000000100000025
:10ffb800000000002000000000000000f0ec040039
:10ffc80034ed040000000000800000000000000084
:10ffd8000ced040034ed04000000000000010000f6
:10ffe8000000000018ed040034ed040000000000db
:10fff8006300000000000000000000000000000096
:020000040001f9
:100008000000000063000000000000000000000085
:100018000000000000000000630000000000000075
:10002800000000000000000000000000d0ed040007
:1000380000010000010000000100000000000000b5
:100048002000000000000000f0ec040024ed040093
:1000580000000000800000000000000018ed04000f
:1000680024ed04000000000000040000000000006f
:1000780018ed0400fcec0400000000006300000020
:100088000000000000000000000000000000000068
:1000980063000000000000000000000000000000f5
:1000a80000000000630000000000000000000000e5
:1000b8000000000000000000d8ed0400000100006e
:1000c8000100000001000000000000000010000016
:1000d80000000000f0ec0400fcec0400000000004c
:1000e800000400000000000018ed0400fcec04000f
:1000f80000000000800000000000000018ed04006f
:1001080024ed04000000000063000000000000006f
:100118000000000000000000000000006300000074
:1001280000000000000000000000000000000000c7
:100138006300000000000000000000000000000054
:10014800000000003c840120f806000000000000c8
:10015800c0f50120340200000100000024f703006c
:100168000000000002000000010000000000000084
:10017800001000000000000028f7030034f7030017
:1001880000000000000400000000000044f7030025
:1001980034f7030000000000000200000000000027
:1001a80050f7030034f703000000000020000000af
:1001b8000000000028f703005cf7030000000000bf
:1001c800800000000000000044f703005cf7030013
:1001d80000000000000100000000000050f70300cc
:1001e8005cf703000000000068f70300000100004e
:1001f80001000000010000000000000020000000d5
:100208000000000028f703006cf70300000000005e
:10021800800000000000000044f703006cf70300b2
:1002280000000000000100000000000050f703007b
:100238006cf70300000000006300000000000000ed
:100248000000000000000000000000006300000043
:100258000000000000000000000000000000000096
:100268006300000000000000000000000000000023
:100278000000000008f80300000100000100000071
:100288000100000000000000200000000000000045
:1002980028f703005cf7030000000000800000005e
:1002a8000000000050f703005cf7030000000000a6
:1002b800000400000000000050f7030034f70300ba
:1002c80000000000630000000000000000000000c3
:1002d80000000000000000006300000000000000b3
:1002e80000000000000000000000000063000000a3
:1002f80000000000000000000000000000000000f6
:1003080010f80300000100000100000001000000d7
:1003180000000000001000000000000028f70300a3
:1003280034f7030000000000000400000000000093
:1003380050f7030034f703000000000080000000bd
:100348000000000050f703005cf703000000000005
:100358006300000000000000000000000000000032
:100368000000000063000000000000000000000022
:100378000000000000000000630000000000000012
:100388000000000000000000000000000200000063
:10039800ccd200209c08000000000000dc0d0220e8
:1003a8003002000001000000703604000000000068
:1003b8000200000001000000000000000010000022
:1003c80000000000743604008036040000000000bd
:1003d800000400000000000090360400803604008d
:1003e8000000000000020000000000009c3604002d
:1003f800803604000000000020000000000000001b
:1004080074360400a83604000000000080000000d4
:100418000000000090360400a83604000000000028
:1004280000010000000000009c360400a83604000b
:1004380000000000b43604000001000001000000c4
:100448000100000000000000200000000000000083
:1004580074360400b8360400000000008000000074
:100468000000000090360400b836040000000000c8
:1004780000010000000000009c360400b8360400ab
:100488000000000063000000000000000000000001
:1004980000000000000000006300000000000000f1
:1004a80000000000000000000000000063000000e1
:1004b8000000000000000000000000000000000034
:1004c8005437040000010000010000000100000092
:1004d8000000000020000000000000007436040046
:1004e800a8360400000000008000000000000000a2
:1004f8009c360400a8360400000000000004000038
:10050800000000009c360400803604000000000053
:100518006300000000000000000000000000000070
:100528000000000063000000000000000000000060
:100538000000000000000000630000000000000050
:100548000000000000000000000000005c3704000c
:100558000001000001000000010000000000000090
:10056800001000000000000074360400803604000b
:100578000000000000040000000000009c36040099
:100588008036040000000000800000000000000029
:100598009c360400a8360400000000006300000038
:1005a8000000000000000000000000000000000043
:1005b80063000000000000000000000000000000d0
:1005c80000000000630000000000000000000000c0
:1005d800000000000000000068db00207c0800002c
:1005e800000000000c100220300200000100000092
:1005f80054d10300000000000200000001000000c8
:1006080000000000001000000000000058d10300a6
:1006180064d1030000000000000400000000000096
:1006280074d1030064d10300000000000002000040
:100638000000000080d1030064d103000000000026
:10064800200000000000000058d103008cd10300f6
:1006580000000000800000000000000074d10300ca
:100668008cd1030000000000000100000000000021
:1006780080d103008cd103000000000098d1030052
:10068800000100000100000001000000000000005f
:10069800200000000000000058d103009cd1030096
:1006a80000000000800000000000000074d103007a
:1006b8009cd10300000000000001000000000000c1
:1006c80080d103009cd103000000000063000000fb
:1006d8000000000000000000000000000000000012
:1006e800630000000000000000000000000000009f
:1006f800000000006300000000000000000000008f
:10070800000000000000000038d2030000010000d3
:1007180001000000010000000000000020000000af
:100728000000000058d103008cd103000000000035
:10073800800000000000000080d103008cd103007d
:1007480000000000000400000000000080d1030049
:1007580064d10300000000006300000000000000f6
:10076800000000000000000000000000630000001e
:100778000000000000000000000000000000000071
:1007880063000000000000000000000000000000fe
:100798000000000040d2030000010000010000003a
:1007a8000100000000000000001000000000000030
:1007b80058d1030064d103000000000000040000c9
:1007c8000000000080d1030064d103000000000095
:1007d800800000000000000080d103008cd10300dd
:1007e800000000006300000000000000000000009e
:1007f800000000000000000063000000000000008e
:10080800000000000000000000000000630000007d
:1008180000000000000000000000000000000000d0
:1008280000ca0020ca080000000000003c12022094
:100838003002000001000000cc730400000000003a
:10084800020000000100000000000000001000008d
:1008580000000000d0730400dc73040000000000f6
:100868000004000000000000ec730400dc730400c6
:10087800000000000002000000000000f8730400ff
:10088800dc730400000000002000000000000000ed
:10089800d07304000474040000000000800000000d
:1008a80000000000ec730400047404000000000061
:1008b8000001000000000000f87304000474040044
:1008c8000000000010740400000100000100000096
:1008d80001000000000000002000000000000000ef
:1008e800d0730400147404000000000080000000ad
:1008f80000000000ec730400147404000000000001
:100908000001000000000000f873040014740400e3
:10091800000000006300000000000000000000006c
:10092800000000000000000063000000000000005c
:10093800000000000000000000000000630000004c
:10094800000000000000000000000000000000009f
:10095800b074040000010000010000000100000064
:10096800000000002000000000000000d073040018
:100978000474040000000000800000000000000073
:10098800f873040004740400000000000004000070
:1009980000000000f8730400dc730400000000008d
:1009a80063000000000000000000000000000000dc
:1009b80000000000630000000000000000000000cc
:1009c80000000000000000006300000000000000bc
:1009d800000000000000000000000000b8740400df
:1009e80000010000010000000100000000000000fc
:1009f8000010000000000000d0730400dc73040045
:100a0800000000000004000000000000f87304006b
:100a1800dc730400000000008000000000000000fb
:100a2800f873040004740400000000006300000070
:100a380000000000000000000000000000000000ae
:100a4800630000000000000000000000000000003b
:100a5800000000006300000000000000000000002b
:100a68000000000000000000f8ad0120e4060000ce
:100a78000000000028fa01203102000001000000f7
:100a8800ac24040000000000020000000100000087
:100a9800000000000010000000000000b024040066
:100aa800bc24040000000000000400000000000056
:100ab800cc240400bc240400000000000002000054
:100ac80000000000d8240400bc240400000000003a
:100ad8002000000000000000b0240400e42404000a
:100ae800000000008000000000000000cc2404008a
:100af800e4240400000000000001000000000000e1
:100b0800d8240400e424040000000000f0240400b9
:100b180000010000010000000100000000000000ca
:100b28002000000000000000b0240400f4240400a9
:100b3800000000008000000000000000cc24040039
:100b4800f424040000000000000100000000000080
:100b5800d8240400f424040000000000630000000e
:100b6800000000000000000000000000000000007d
:100b7800630000000000000000000000000000000a
:100b880000000000630000000000000000000000fa
:100b98000000000000000000902504000001000093
:100ba800010000000100000000000000200000001b
:100bb80000000000b0240400e42404000000000049
:100bc8008000000000000000d8240400e424040091
:100bd800000000000004000000000000d824040009
:100be800bc240400000000006300000000000000b6
:100bf800000000000000000000000000630000008a
:100c080000000000000000000000000000000000dc
:100c18006300000000000000000000000000000069
:100c280000000000982504000001000001000000f9
:100c3800010000000000000000100000000000009b
:100c4800b0240400bc2404000000000000040000dc
:100c580000000000d8240400bc24040000000000a8
:100c68008000000000000000d8240400e4240400f0
:100c78000000000063000000000000000000000009
:100c880000000000000000006300000000000000f9
:100c980000000000000000000000000063000000e9
:100ca800000000000000000000000000000000003c
:100cb80001000000e4e300207c08000000000000c0
:100cc8006c140220300200000100000088f50400c6
:100cd8000000000002000000010000000000000009
:100ce80000100000000000008cf5040098f50400d6
:100cf800000000000004000000000000a8f5040047
:100d080098f5040000000000000200000000000048
:100d1800b4f5040098f5040000000000200000006d
:100d2800000000008cf50400c0f50400000000007d
:100d38008000000000000000a8f50400c0f50400d1
:100d4800000000000001000000000000b4f50400ed
:100d5800c0f5040000000000ccf50400000100000c
:100d68000100000001000000000000002000000059
:100d7800000000008cf50400d0f50400000000001d
:100d88008000000000000000a8f50400d0f5040071
:100d9800000000000001000000000000b4f504009d
:100da800d0f504000000000063000000000000000f
:100db80000000000000000000000000063000000c8
:100dc800000000000000000000000000000000001b
:100dd80063000000000000000000000000000000a8
:100de800000000006cf60400000100000100000093
:100df80001000000000000002000000000000000ca
:100e08008cf50400c0f5040000000000800000001c
:100e180000000000b4f50400c0f504000000000064
:100e28000004000000000000b4f5040098f5040078
:100e38000000000063000000000000000000000047
:100e48000000000000000000630000000000000037
:100e58000000000000000000000000006300000027
:100e6800000000000000000000000000000000007a
:100e780074f60400000100000100000001000000f9
:100e88000000000000100000000000008cf50400c5
:100e980098f50400000000000004000000000000b5
:100ea800b4f5040098f5040000000000800000007c
:100eb80000000000b4f50400c0f5040000000000c4
:100ec80063000000000000000000000000000000b7
:100ed80000000000630000000000000000000000a7
:100ee8000000000000000000630000000000000097
:100ef800000000000000000000000000347601201f
:100f080008070000000000009c16022030020000c4
:100f1800010000003085040000000000020000000d
:100f280001000000000000000010000000000000a8
:100f3800348504004085040000000000000400001f
:100f480000000000508504004085040000000000f7
:100f580000020000000000005c85040040850400d9
:100f6800000000002000000000000000348504009c
:100f780068850400000000008000000000000000f8
:100f8800508504006885040000000000000100008e
:100f9800000000005c850400688504000000000073
:100fa8007485040000010000010000000100000039
:100fb800000000002000000000000000348504004c
:100fc8007885040000000000800000000000000098
:100fd800508504007885040000000000000100002e
:100fe800000000005c850400788504000000000013
:100ff8006300000000000000000000000000000086
:101008000000000063000000000000000000000075
:101018000000000000000000630000000000000065
:10102800000000000000000000000000148604001a
:1010380000010000010000000100000000000000a5
:1010480020000000000000003485040068850400ca
:101058000000000080000000000000005c85040023
:101068006885040000000000000400000000000083
:101078005c85040040850400000000006300000057
:101088000000000000000000000000000000000058
:1010980063000000000000000000000000000000e5
:1010a80000000000630000000000000000000000d5
:1010b80000000000000000001c8604000001000081
:1010c8000100000001000000000000000010000006
:1010d8000000000034850400408504000000000082
:1010e80000040000000000005c8504004085040046
:1010f8000000000080000000000000005c85040083
:101108006885040000000000630000000000000083
:101118000000000000000000000000006300000064
:1011280000000000000000000000000000000000b7
:101138006300000000000000000000000000000044
:1011480000000000983d0120240700000000000076
:10115800cc18022030020000010000006caa030035
:101168000000000002000000010000000000000074
:10117800001000000000000070aa03007caa030011
:101188000000000000040000000000008caa03001a
:101198007caa03000000000000020000000000001c
:1011a80098aa03007caa03000000000020000000a9
:1011b8000000000070aa0300a4aa030000000000b9
:1011c80080000000000000008caa0300a4aa03000d
:1011d80000000000000100000000000098aa0300c1
:1011e800a4aa030000000000b0aa03000001000048
:1011f80001000000010000000000000020000000c5
:101208000000000070aa0300b4aa03000000000058
:1012180080000000000000008caa0300b4aa0300ac
:1012280000000000000100000000000098aa030070
:10123800b4aa0300000000006300000000000000e2
:101248000000000000000000000000006300000033
:101258000000000000000000000000000000000086
:101268006300000000000000000000000000000013
:101278000000000050ab0300000100000100000066
:101288000100000000000000200000000000000035
:1012980070aa0300a4aa0300000000008000000058
:1012a8000000000098aa0300a4aa030000000000a0
:1012b800000400000000000098aa03007caa0300b4
:1012c80000000000630000000000000000000000b3
:1012d80000000000000000006300000000000000a3
:1012e8000000000000000000000000006300000093
:1012f80000000000000000000000000000000000e6
:1013080058ab0300000100000100000001000000cc
:1013180000000000001000000000000070aa030098
:101328007caa030000000000000400000000000088
:1013380098aa03007caa03000000000080000000b7
:101348000000000098aa0300a4aa030000000000ff
:101358006300000000000000000000000000000022
:101368000000000063000000000000000000000012
:101378000000000000000000630000000000000002
:1013880000000000000000000000000020ac002069
:10139800410b000000000000fc1a0220300200008f
:1013a8000100000070ca04000000000002000000f4
:1013b8000100000000000000001000000000000014
:1013c80074ca040080ca0400000000000004000081
:1013d8000000000090ca040080ca04000000000059
:1013e80000020000000000009cca040080ca04003b
:1013f80000000000200000000000000074ca040083
:10140800a8ca0400000000008000000000000000de
:1014180090ca0400a8ca04000000000000010000ef
:10142800000000009cca0400a8ca040000000000d4
:10143800b4ca04000001000001000000010000001f
:1014480000000000200000000000000074ca040032
:10145800b8ca04000000000080000000000000007e
:1014680090ca0400b8ca040000000000000100008f
:10147800000000009cca0400b8ca04000000000074
:1014880063000000000000000000000000000000f1
:1014980000000000630000000000000000000000e1
:1014a80000000000000000006300000000000000d1
:1014b80000000000000000000000000054cb040001
:1014c8000001000001000000010000000000000011
:1014d800200000000000000074ca0400a8ca04002c
:1014e8000000000080000000000000009cca04000a
:1014f800a8ca04000000000000040000000000006a
:101508009cca040080ca04000000000063000000b8
:1015180000000000000000000000000000000000c3
:101528006300000000000000000000000000000050
:101538000000000063000000000000000000000040
:1015480000000000000000005ccb04000001000067
:101558000100000001000000000000000010000071
:101568000000000074ca040080ca040000000000e3
:1015780000040000000000009cca040080ca0400a7
:101588000000000080000000000000009cca040069
:10159800a8ca04000000000063000000000000006a
:1015a80000000000000000000000000063000000d0
:1015b8000000000000000000000000000000000023
:1015c80063000000000000000000000000000000b0
:1015d800000000001c68012009070000000000004e
:1015e80058e801203e02000001000000dc8d0400e4
:1015f80000000000020000000100000000000000e0
:101608000010000000000000e08d0400ec8d0400d4
:10161800000000000004000000000000fc8d040031
:10162800ec8d040000000000000200000000000033
:10163800088e0400ec8d040000000000200000006b
:1016480000000000e08d0400148e0400000000007b
:101658008000000000000000fc8d0400148e0400cf
:10166800000000000001000000000000088e0400d7
:10167800148e040000000000208e04000001000009
:101688000100000001000000000000002000000030
:1016980000000000e08d0400248e0400000000001b
:1016a8008000000000000000fc8d0400248e04006f
:1016b800000000000001000000000000088e040087
:1016c800248e0400000000006300000000000000f9
:1016d800000000000000000000000000630000009f
:1016e80000000000000000000000000000000000f2
:1016f800630000000000000000000000000000007f
:1017080000000000c08e040000010000010000007d
:1017180001000000000000002000000000000000a0
:10172800e08d0400148e040000000000800000001a
:1017380000000000088e0400148e04000000000061
:101748000004000000000000088e0400ec8d040076
:10175800000000006300000000000000000000001e
:10176800000000000000000063000000000000000e
:1017780000000000000000000000000063000000fe
:101788000000000000000000000000000000000051
:10179800c88e0400000100000100000001000000e4
:1017a800000000000010000000000000e08d0400b0
:1017b800ec8d0400000000000004000000000000a0
:1017c800088e0400ec8d040000000000800000007a
:1017d80000000000088e0400148e040000000000c1
:1017e800630000000000000000000000000000008e
:1017f800000000006300000000000000000000007e
:10180800000000000000000063000000000000006d
:10181800000000000000000000000000284e4f57a4
:10182800545229002857545229000000cc0a01209c
:1018380051070000000000002c1d022030020000ab
:101848000100000028b904000000000002000000a8
:10185800010000000000000000100000000000006f
:101868002cb9040038b9040000000000000400008e
:101878000000000048b9040038b904000000000066
:10188800000200000000000054b9040038b9040048
:101898000000000020000000000000002cb9040037
:1018a80060b9040000000000800000000000000093
:1018b80048b9040060b904000000000000010000fd
:1018c8000000000054b9040060b9040000000000e2
:1018d8006cb90400000100000100000001000000d4
:1018e8000000000020000000000000002cb90400e7
:1018f80070b9040000000000800000000000000033
:1019080048b9040070b9040000000000000100009c
:101918000000000054b9040070b904000000000081
:10192800630000000000000000000000000000004c
:10193800000000006300000000000000000000003c
:10194800000000000000000063000000000000002c
:101958000000000000000000000000000cba0400b5
:10196800000100000100000001000000000000006c
:1019780020000000000000002cb9040060b9040039
:1019880000000000800000000000000054b90400be
:1019980060b904000000000000040000000000001e
:1019a80054b9040038b904000000000063000000c6
:1019b800000000000000000000000000000000001f
:1019c80063000000000000000000000000000000ac
:1019d800000000006300000000000000000000009c
:1019e800000000000000000014ba0400000100001c
:1019f80001000000010000000000000000100000cd
:101a0800000000002cb9040038b9040000000000f0
:101a1800000400000000000054b9040038b90400b4
:101a280000000000800000000000000054b904001d
:101a380060b904000000000063000000000000001e
:101a4800000000000000000000000000630000002b
:101a5800000000000000000000000000000000007e
:101a6800630000000000000000000000000000000b
:101a780000000000fc5901201107000000000000d0
:101a88005c1f02203002000001000000400f05002a
:101a9800000000000200000001000000000000003b
:101aa8000010000000000000440f0500500f050062
