:020000040000fa
:10c00000f8ff032051e20600afad06005301070020
:10c01000afad06004d010700afad06000000000007
:10c020000000000000000000000000003d5a060073
:10c03000afad060000000000a95c0600175d060019
:10c04000afad0600afad0600afad0600afad060068
:10c05000afad0600afad0600afad0600afad060058
:10c06000afad0600afad0600afad0600c5e50300fd
:10c07000afad0600afad0600afad0600afad060038
:10c08000afad0600afad0600afad0600afad060028
:10c09000afad0600afad0600afad0600afad060018
:10c0a000afad0600afad0600afad0600afad060008
:10c0b000afad0600afad0600afad0600afad0600f8
:10c0c000afad0600afad0600afad0600afad0600e8
:10c0d000afad0600afad0600afad0600afad0600d8
:10c0e000afad0600afad060000000000000000008c
:10c0f0000000000099a20600afad0600afad06003b
:10c10000afad0600afad0600afad0600afad0600a7
:10c11000afad0600afad0600ad7b0100c57b0100f1
:10c12000dd7b0100afad0600afad0600afad060090
:10c13000afad0600afad0600afad0600afad060077
:10c14000afad0600afad06000d7c0100257c0100ff
:10c150003d7c0100afad0600afad0600afad0600ff
:10c16000afad0600afad0600afad0600afad060047
:10c17000afad0600afad0600afad0600afad060037
:10c18000afad0600afad0600afad0600afad060027
:10c19000afad0600afad0600afad0600afad060017
:10c1a000afad0600afad0600afad0600afad060007
:10c1b000afad0600afad0600afad0600afad0600f7
:10c1c000afad0600afad0600afad0600afad0600e7
:10c1d000afad0600afad0600afad0600afad0600d7
:10c1e000afad0600afad0600afad0600afad0600c7
:10c1f000afad0600afad0600afad0600afad0600b7
:10c20000afad0600afad0600afad0600afad0600a6
:10c21000afad0600afad0600afad06005dab0600ea
:10c22000afad0600afad0600afad0600afad060086
:10c23000afad0600afad0600afad0600afad060076
:10c24000afad0600afad0600afad0600afad060066
:10c25000afad0600afad0600afad0600afad060056
:04c26000afad060078
:020000040000fa
:10c2640003970181b0b00884000000000d9701819c
:10c27400b0b00b840000000009970181b0b00b84ba
:10c284000000000003970181b0b0088400000000a2
:10c2940003970181b0b00884000000000197018178
:10c2a400b0b008840000000001970181b0b0088498
:10c2b4000000000001970181b0b008840000000074
:10c2c40001970181b0b00884000000000397018148
:10c2d400b0b008840000000003970181b0b0088466
:10c2e4000000000003970181b0b008840000000042
:10c2f40001970181b0b0088400000000019701811a
:10c30400b0b008840000000005970181b0b0088433
:10c314000000000001970181b0b008840000000013
:10c3240002970181b0b009840000000001970181e7
:10c33400b0b008840000000001970181b0b0088407
:10c344000000000003970181b0b0088400000000e1
:10c3540001970181b0b008840000000001970181b9
:10c36400b0b008840000000001970181b0b00884d7
:10c374000000000001970181b0b0088400000000b3
:10c3840003970181b0b00884000000000397018185
:10c39400b0b008840000000003970181b0b00884a5
:10c3a4000000000003970181b0b008840000000081
:10c3b40004970181b0b00984000000000597018151
:10c3c400b0b008840000000005970181b0b0088473
:10c3d4000000000001970181b0b008840000000053
:10c3e40001970181b0b00884000000000397018127
:10c3f400b0b008840000000003970181b0b0088445
:10c404000000000001970181b0b008840000000022
:10c4140001970181b0b008840000000005970181f4
:10c42400b0b008840000000003970181b0b0088414
:10c434000000000003970181b0b0088400000000f0
:10c4440003970181b0b008840000000003970181c4
:10c45400b0b008840000000001970181b0b00884e6
:10c464000000000001970181b0b0088400000000c2
:10c4740003970181b0b00884000000000197018196
:10c48400b0b008840000000001970181b0b00884b6
:10c494000000000003970181b0b008840000000090
:10c4a40001970181b0b00884000000000397018166
:10c4b400b0b008840000000003970181b0b0088484
:10c4c4000000000003970181b0b008840000000060
:10c4d40009970181b0b0088400000000039701812e
:10c4e400b0b008840000000001970181b0b0088456
:10c4f4000000000003970181b0b008840000000030
:10c504000b970181b0b008840000000005970181f9
:10c51400b0b008840000000001970181b0b0088425
:10c524000000000004970181b0b0098400000000fd
:10c5340004970181b0b009840000000001970181d3
:10c54400b0b008840000000002970181b0b00984f3
:10c554000000000001970181b0b0088400000000d1
:10c5640001970181b0b008840000000005970181a3
:10c57400b0b008840000000001970181b0b00884c5
:10c584000000000003970181b0b00884000000009f
:10c5940001970181b0030884000000000197018124
:10c5a400b0b008840000000007970181b0b008848f
:10c5b4000000000001970181b0b008840000000071
:10c5c40001970181b0b00884000000000597018143
:10c5d400b0b008840000000005970181b0b0088461
:10c5e4000000000001970181b0b008840000000041
:10c5f40001970181b0b00884000000000397018115
:10c60400b0b008840000000003970181b0b0088432
:10c614000000000003970181b0b00884000000000e
:10c6240007970181b0b008840000000007970181da
:10c63400b0b008840000000006970181b0b00984fe
:10c644000000000005970181b0b0088400000000dc
:10c6540003970181b0b008840000000001970181b4
:10c66400b0b008840000000001970181b0b00884d4
:10c674000000000005970181b0b0088400000000ac
:10c6840001970181b0b00884000000000597018182
:10c69400b0b008840000000027970181b0b008847e
:10c6a4000000000003970181b0b00884000000007e
:10c6b4000d970181b0b00884000000000997018142
:10c6c400b0b008840000000009970181b0b008846c
:10c6d4000000000002970181b0b00984000000004e
:10c6e40001970181b0b03b840000000003970181f1
:10c6f400b0b03b840000000003970181b0b008840f
:10c704000000000003970181b0b00884000000001d
:10c7140003970181b0b008840000000003970181f1
:10c72400b0b008840000000003970181b0b0088411
:10c734000000000005970181b0b0088400000000eb
:10c7440003970181b0b008840000000001970181c3
:10c75400b0b008840000000001970181b0b00884e3
:10c764000000000001970181b0b0088400000000bf
:10c7740001970181b0b00884000000000197018195
:10c78400b0b008840000000001970181b0b00b84b0
:10c794000000000001970181b0b00b84000000008c
:10c7a40001970181b0b00b84000000000197018162
:10c7b400b0b008840000000005970181b0b008847f
:10c7c4000000000001970181b0b00884000000005f
:10c7d40009970181b0b0088400000000019701812d
:10c7e400b0030b840000000004970181b0030984a6
:10c7f400000000000d970181b0b008840000000023
:10c8040005970181b0b008840000000005970181fc
:10c81400b0b008840000000007970181b0b008841c
:10c824000000000003970181b0b0088400000000fc
:10c8340003970181b0b008840000000005970181ce
:10c84400b0b008840000000009970181b0b00884ea
:10c854000000000005970181b0b0088400000000ca
:10c8640005970181b0b0088400000000069701819b
:10c87400b0b009840000000001970181b0b00884c1
:10c884000000000005970181b0b00884000000009a
:10c8940007970181b0b00884000000000797018168
:10c8a400b0b008840000000007970181b0b008848c
:10c8b4000000000007970181b0b008840000000068
:10c8c40007970181b0b0088400000000019701813e
:10c8d400b0b008840000000005970181b0b00b845b
:10c8e4000000000005970181b0b00884000000003a
:10c8f40001970181b0b00884000000000197018114
:10c90400b0b008840000000001970181b0b0088431
:10c914000000000003970181b0b00884000000000b
:10c9240003970181b0b008840000000003970181df
:10c93400b0b008840000000001970181b0b0088401
:10c944000000000001970181b0b0088400000000dd
:10c9540025970181b0b0088400000000019701818f
:10c96400b0b008840000000003970181b0b00b84cc
:10c974000000000001970181b0b0088400000000ad
:10c9840001970181b0b00884000000002397018161
:10c99400b0b008840000000001970181b0b00884a1
:10c9a4000000000001970181b0b00884000000007d
:10c9b40001970181b0b0088400000000059701814f
:10c9c400b0b008840000000005970181b0b008846d
:10c9d4000000000005970181b0b008840000000049
:10c9e40001970181b0b00884000000000497018120
:10c9f400b0b009840000000001970181b0b0088440
:10ca04000000000001970181b0b00884000000001c
:10ca140001970181b0b008840000000007970181ec
:10ca2400b0b008840000000003970181b0b008840e
:10ca34000000000001970181b0b0088400000000ec
:10ca440001970181b0b008840000000002970181c1
:10ca5400b0b009840000000008970181b0b00984d7
:10ca64000000000005970181b0b0088400000000b8
:10ca740001970181b0b00b8400000000019701818f
:10ca8400b0b008840000000001970181b0b00884b0
:10ca94000000000001970181b0b00884000000008c
:10caa40001970181b0b00884000000000197018162
:10cab400b0b008840000000001970181b0b0088480
:10cac4000000000001970181b0b00884000000005c
:10cad40001970181b0b00884000000000197018132
:10cae400b0b008840000000006970181b0b009844a
:10caf4000000000005970181b0b008840000000028
:10cb040001970181b0b00884000000000197018101
:10cb1400b0b008840000000005970181b0b008841b
:10cb24000000000001970181b0b0088400000000fb
:10cb340001970181b0b008840000000005970181cd
:10cb4400b0b008840000000001970181b0b00884ef
:10cb54000000000001970181b0b0088400000000cb
:10cb640001970181b0b008840000000001970181a1
:10cb7400b0b00884000000000b970181b0b00884b5
:10cb84000000000005970181b0b008840000000097
:10cb940001970181b0b00884000000000197018171
:10cba400b0b008840000000001970181b0b008848f
:10cbb4000000000001970181b0b00884000000006b
:10cbc40001970181b0b008840000000008b1018120
:10cbd400b0b000840000000008b10181b0b000844e
:10cbe40000000000f8b500bff8bc08bc9e467047c2
:10cbf40041ff060045e906003d7603001d250300bc
:10cc0400597306006d59060005ec0500515a0200df
:10cc1400c9b90600098103008d820200b58b0300a7
:10cc2400117a0500716b0300a116060059fb02007e
:10cc34002d67060089f50400a1dc020029b805006f
:10cc4400a90f06002d2e020079fa050015ec02004a
:10cc5400492a06005d3e0300a1010600c1e4050067
:10cc64003d960200ad0806005d9905001dd605003d
:10cc7400d9bf050051a00300a909030049c7050055
:10cc840079aa0300851d0600d9890500f9710500fc
:10cc9400c5a80500a591050079b005002df903008c
:10cca400b9ce050045f30500f5570400f8b500bffb
:0cccb400f8bc08bc9e46704721e9060051
:020000040000fa
:10ccc0003847010001000000c047010028fcff7f39
:10ccd0009049010001000000cc49010024fcff7fc5
:10cce000b44a010001000000ec4a010020fcff7f73
:10ccf000b84b010001000000ec4b010001000000f6
:10cd0000304c010001000000dc4c0100010000007b
:10cd1000184d010001000000444d01000100000019
:10cd2000a44d0100f4fbff7fb84e0100010000009c
:10cd3000284f0100f0fbff7fc854010001000000f4
:10cd400038550100ecfbff7fc4590100f0fbff7f69
:10cd50001c5a0100f4fbff7f8c5a01000100000007
:10cd6000cc600100010000006078010001000000bb
:10cd700080780100010000009a78010001000000a5
:10cd8000ba78010001000000da780100010000001b
:10cd9000f678010001000000167901000100000092
:10cda00032790100010000008a79010001000000d1
:10cdb000e079010001000000327a0100010000006a
:10cdc0006e7a010001000000aa7a01000100000053
:10cdd000ca7a0100010000008c7b010034f7ff7f5c
:10cde000e87b010001000000787c010001000000e8
:10cdf000e87c0100010000000e7d01000100000040
:10ce0000207d0100010000004a7d010010f7ff7f36
:10ce10007a7d010014f7ff7f407e010018f7ff7f45
:10ce2000d4800100010000007881010001000000b1
:10ce3000a88201000cf7ff7f8283010010f7ff7fbb
:10ce4000b085010001000000d28501000cf7ff7fd2
:10ce5000e885010010f7ff7f0e8601000100000049
:10ce60005286010001000000e88b01000100000073
:10ce7000f08b010001000000108c01000100000097
:10ce80002a8c0100010000004a8c01000100000012
:10ce90006a8c010001000000868c01000100000086
:10cea000a68c010001000000c28c010001000000fe
:10ceb0001a8d010001000000708d010001000000ca
:10cec000c28d010001000000e28d010001000000a0
:10ced000a48e010001000000d88e010030f4ff7f15
:10cee000348f010001000000a48f01000100000048
:10cef000b68f010001000000e08f0100010000007a
:10cf00000a90010014f4ff7f3a90010018f4ff7fab
:10cf100070920100010000009c92010001000000dd
:10cf2000b292010001000000c8920100010000005f
:10cf3000de920100fcf3ff7ff492010000f4ff7f1a
:10cf40000a9301000100000020930100010000008d
:10cf50003c9301000100000050930100ecf3ff7fbf
:10cf600018950100f0f3ff7f42950100f4f3ff7f75
:10cf70006c9501000100000084950100f0f3ff7f33
:10cf800022960100f4f3ff7f4c960100f8f3ff7f37
:10cf90007096010001000000d09701000100000020
:10cfa00030980100010000001c990100e4f3ff7fac
:10cfb0003a990100e8f3ff7f58990100ecf3ff7ff5
:10cfc0007699010001000000e899010001000000cd
:10cfd000469a0100e0f3ff7f549b0100010000002e
:10cfe0007c9b010001000000f89b0100d4f3ff7f4f
:10cff000b69c010001000000049d0100010000003a
:10d00000189d0100010000002c9d0100010000009e
:10d01000409d010001000000549d0100010000003e
:10d02000789d010001000000a49d010001000000a6
:10d03000f29d010001000000389e01000100000087
:10d040005c9e0100010000007c9e010001000000c8
:10d050009c9e010001000000d09e01000100000024
:10d06000fa9e010001000000809f010030f6ff7f62
:10d07000c0a1010034f6ff7f2ea2010038f6ff7f29
:10d08000eaa201003cf6ff7f68a3010040f6ff7fa3
:10d0900050a4010044f6ff7f38a7010048f6ff7f47
:10d0a0003ca801004cf6ff7f94ab0100010000009a
:10d0b000dcb1010001000000e4b10100010000004a
:10d0c00018b201000100000090b201003cf9ff7f9e
:10d0d0008cb5010040f9ff7fccb5010044f9ff7f1a
:10d0e000a0b8010048f9ff7f88b901004cf9ff7f23
:10d0f000ecb9010050f9ff7f58ba010001000000af
:10d1000034bb01004cf9ff7f80bd0100ac0197806a
:10d110005cbe01000100000024c501000100000008
:10d12000d4ea010001000000f4ea0100010000005f
:10d130000eeb0100010000002eeb010001000000d9
:10d140004eeb0100010000006aeb0100010000004d
:10d150008aeb010001000000a6eb010001000000c5
:10d16000feeb01000100000054ec01000100000092
:10d17000a6ec010001000000e2ec0100010000004b
:10d180001eed0100010000003eed01000100000065
:10d1900000ee01000100000034ee010030f2ff7fdc
:10d1a00090ee01000100000020ef010001000000ee
:10d1b00090ef010001000000b6ef01000100000047
:10d1c000c8ef010001000000f2ef010001000000c3
:10d1d0001cf0010004f2ff7f4cf001000100000090
:10d1e0005af0010001000000cef10100f8f1ff7fcc
:10d1f00016f20100fcf1ff7f76f2010000f2ff7fe2
:10d20000c8f2010004f2ff7f04f3010001000000f6
:10d2100018f30100010000002cf3010001000000e0
:10d2200040f301000100000054f301000100000080
:10d2300068f30100010000007cf301000100000020
:10d2400062f401000100000076f40100c8f1ff7fe4
:10d250008ef40100ccf1ff7fbef40100d0f1ff7f1e
:10d2600050f50100d4f1ff7f86f50100d8f1ff7f72
:10d2700054f80100dcf1ff7f84f80100e0f1ff7f4a
:10d2800096f80100e4f1ff7fa8f80100e8f1ff7fc4
:10d29000e6f801000100000032f90100e4f1ff7f2f
:10d2a00056f90100e8f1ff7f7af90100ecf1ff7f08
:10d2b000c4f90100e0f5ff7f3cfb0100e4f5ff7fce
:10d2c0005cfd0100e8f5ff7fe4fe0100ecf5ff7f67
:10d2d00008010200f0f5ff7f38030200f4f5ff7f3c
:10d2e000ac03020001000000b809020001000000c8
:10d2f000c00902006cf6ff7fe80a020070f6ff7fab
:10d300008c0c020001000000d40c02006cf6ff7fc0
:10d31000cc0d020070f6ff7fd41002000100000067
:10d32000081102006cf6ff7fdc12020070f6ff7f2e
:10d330004413020001000000dc180200010000009c
:10d34000e418020001000000401902000100000082
:10d35000aa190200010000001e1a020001000000cc
:10d360006a1a02007cf4ff7fa81a020080f4ff7f93
:10d37000e61c020001000000f21c02007cf4ff7faa
:10d380003421020080f4ff7fce21020084f4ff7f6d
:10d3900024220200010000006022020080f4ff7fce
:10d3a0001823020084f4ff7f3c23020088f4ff7fef
:10d3b000782302008cf4ff7fd023020090f4ff7fdb
:10d3c000c025020094f4ff7f1826020098f4ff7f26
:10d3d000702602009cf4ff7f22270200010000005b
:10d3e0004227020001000000702702000100000037
:10d3f00078270200010000009827020001000000c9
:10d40000b827020001000000d82702000100000038
:10d41000f82702000100000050280200010000006f
:10d42000a628020001000000f82802000100000008
:10d43000342902000100000054290200010000000c
:10d44000182a0200010000004c2a0200010000001e
:10d45000bc2a020001000000dc2a020001000000da
:10d46000fc2a0200010000000e2b02000100000057
:10d47000382b020001000000622b020001000000b6
:10d48000142c020020f6ff7f642c020024f6ff7f9c
:10d49000dc2e020001000000103502000100000037
:10d4a0006443020001000000844302000100000008
:10d4b000a443020001000000c44302000100000078
:10d4c000e4430200010000003c44020001000000af
:10d4d0009244020001000000e44402000100000048
:10d4e0000445020001000000c845020001000000e0
:10d4f000fc450200010000006c4602000100000033
:10d500007e46020001000000a84602000100000063
:10d51000d2460200010000000647020078edff7fbe
:10d52000544702007cedff7f8247020080edff7fc1
:10d530009647020084edff7fc647020088edff7f1b
:10d54000ec470200ae119780784a020084edff7f1d
:10d55000b44a020001000000ce4a020001000000af
:10d56000de4a020001000000ee4a02000100000055
:10d57000164b020068edff7f3a4b020001000000ed
:10d580009c4f020001000000a45c020028f4ff7f11
:10d59000c85d02002cf4ff7f845f020030f4ff7f3f
:10d5a0004061020001000000746102002cf4ff7f62
:10d5b000b862020030f4ff7f046302000100000043
:10d5c0009c68020001000000e88a0200c0f1ff7fb1
:10d5d000908b0200c4f1ff7f788d0200c8f1ff7fbd
:10d5e000c08f0200010000008895020001000000c9
:10d5f0009095020070ecff7fd095020001000000c2
:10d600000c9602006cecff7f8898020070ecff7fa4
:10d610000c99020074ecff7f7c99020008849780cb
:10d62000c49902000100000014a0020001000000e3
:10d630001ca002005cf0ff7fe4a3020001000000d8
:10d64000c8aa020001000000d0aa020004f1ff7f76
:10d650008cab020008f1ff7fdcac02000cf1ff7f15
:10d660001cae020010f1ff7f64af02000100000059
:10d6700044b5020001000000acbf020010f4ff7fbf
:10d6800028c0020014f4ff7f60c302000100000004
:10d69000c0c9020001000000c8c9020038f4ff7fc1
:10d6a000e8c902003cf4ff7fd8cd02000100000071
:10d6b000c8d3020001000000e4f1020001000000f4
:10d6c000f0f102000100000048f202000100000039
:10d6d00068f20200b0a9028000f30200b0b0a88096
:10d6e00050f302000100000054f3020001000000aa
:10d6f00050f30200010000004cf30200b0b0aa8019
:10d7000084f30200ae71b28054f402000100000004
:10d7100050f40200ab3f3880a8f402000100000082
:10d72000b4f40200b0b0aa80f0f4020001000000de
:10d73000f8f4020001000000f4f40200010000000f
:10d74000f8f402000100000024f5020001000000ce
:10d7500034f502000100000060f502000100000045
:10d7600074f50200ab0eb280dcf50200b0af0a80a7
:10d77000a4f8020001000000a0f80200010000006f
:10d780009cf802000100000098f80200ab3f048002
:10d79000fc1703000100000034180300ecf3ff7fc6
:10d7a000d01b0300010000008421030001000000e1
:10d7b000f876030001000000187703000100000064
:10d7c00038770300010000006c77030001000000bf
:10d7d00096770300d8f3ff7f5c780300dcf3ff7fcc
:10d7e00020790300e0f3ff7f2c7a030001000000a2
:10d7f0000480030001000000681404000100000020
:10d800005415040001000000901504007cf0ff7f17
:10d81000bc17040001000000701d0400010000009e
:10d82000bc78040001000000dc7804000100000066
:10d83000f6780400010000001679040001000000e1
:10d840003679040001000000527904000100000054
:10d8500072790400010000008e79040001000000cc
:10d86000ae79040001000000707a0400010000009d
:10d87000a47a040068edff7f007b04000100000033
:10d880002a7b040001000000547b04005cedff7f54
:10d89000847b040001000000ac7b04000100000058
:10d8a000de7b040050edff7f527c040054edff7fcf
:10d8b000967c040058edff7fe07c04005cedff7f68
:10d8c000247d0400010000008c7d040058edff7fe2
:10d8d000827e04005cedff7f7c7f040060edff7fb3
:10d8e000d47f040064edff7f0a8004000100000083
:10d8f00032800400010000005c8004000100000090
:10d900007c800400010000009680040001000000fb
:10d91000b680040001000000d68004000100000071
:10d92000f2800400010000001281040001000000e8
:10d930002e81040001000000868104000100000027
:10d94000dc810400010000002e82040001000000c0
:10d950006a82040001000000a682040001000000a9
:10d96000c68204000100000088830400010000005a
:10d97000bc83040048eeff7f18840400010000000f
:10d98000a8840400010000001885040001000000c4
:10d990003e850400010000005085040001000000e5
:10d9a0007a85040001000000a48504001ceeff7fbe
:10d9b000d485040001000000a686040018eeff7f55
:10d9c000e88704000100000008880400010000004e
:10d9d00022880400010000004288040001000000c9
:10d9e00062880400010000007e880400010000003d
:10d9f0009e88040001000000ba88040001000000b5
:10da00001289040001000000688904000100000080
:10da1000ba89040001000000da8904000100000056
:10da20009c8a040001000000d08a040044ebff7fc0
:10da30002c8b0400010000009c8b040001000000fe
:10da4000ae8b040001000000d88b04000100000030
:10da5000028c040028ebff7f328c04002cebff7f4c
:10da6000f48c040030ebff7f248d040034ebff7f47
:10da7000488d040038ebff7f8c8e0400010000000d
:10da8000ac8e040034ebff7fd28e04000100000056
:10da9000e68e040001000000fa8e040028ebff7ff0
:10daa0000e8f040001000000448f040001000000fc
:10dab0005e8f0400010000007a8f04000100000066
:10dac000968f040058f0ff7ff08f04005cf0ff7f1a
:10dad0002090040008849780e490040058f0ff7fb1
:10dae0005c91040001000000109704000100000098
:10daf00018970400010000005c970400010000007a
:10db0000049804007cecff7f689904000100000089
:10db1000009f040001000000f4a6040001000000c2
:10db20000ea70400010000002aa704000100000065
:10db300046a70400c4efff7fa0a70400c8efff7f43
:10db4000d0a704000884978054a80400c4efff7f86
:10db5000cca804000100000080ae04000100000019
:10db600088ae040001000000f0af040004f0ff7f65
:10db700078b00400010000002cb604000100000091
:10db800034b604000100000080b60400010000006b
:10db9000ccb60400d4eeff7ff0b704000100000013
:10dba000bcbd04000100000078c5040001000000b5
:10dbb00092c5040001000000aec504000100000091
:10dbc000cac504007cefff7f24c6040080efff7ffe
:10dbd00054c6040084efff7fb0c6040088efff7fc7
:10dbe00028c7040001000000dccc04000100000094
:10dbf000e4cc0400010000005ccd040080efff7f56
:10dc0000bcce04000100000070d40400010000003c
:10dc100078d40400c8ecff7f10d604000100000097
:10dc200008dc04000100000010dc0400010000001a
:10dc300054dc040001000000ecdc040044eeff7f33
:10dc4000f8dd04000100000090e304000100000082
:10dc500098e3040068eeff7fcce304006ceeff7fe6
:10dc600004e5040001000000e0ea040001000000f7
:10dc7000e8ea04000100000018eb040018efff7f41
:10dc80007cec04000100000030f204000100000000
:10dc900038f204000100000058f20400d8edff7fc4
:10dca000b0f304000100000074f90400010000005a
:10dcb0007cf90400010000009cf904000100000050
:10dcc000bcf9040001000000dcf9040001000000c0
:10dcd000fcf904000100000054fa040001000000f7
:10dce000aafa040001000000fcfa04000100000090
:10dcf00038fb04000100000058fb04000100000094
:10dd00001cfc04000100000050fc040001000000a5
:10dd1000c0fc040001000000e0fc04000100000061
:10dd200000fd04000100000012fd040001000000dd
:10dd30003cfd04000100000066fd040018e9ff7fbf
:10dd40002cfe04001ce9ff7f50fe040020e9ff7f49
:10dd50006efe04000100000080fe040001000000cf
:10dd600094fe040001000000a4fe04000100000075
:10dd7000b2fe040004e9ff7fd8ff040001000000a8
:10dd8000ecff04000100000000000500010000009d
:10dd90003400050068ecff7f8801050001000000e9
:10dda000200705000100000028070500f8e6ff7fb6
:10ddb000c407050001000000f00705000100000095
:10ddc000180805000100000032080500e4e6ff7fa6
:10ddd00088080500ac07978028090500e0e6ff7f6a
:10dde0006a090500e4e6ff7fb4090500e8e6ff7f65
:10ddf0006a0a0500010000007a0a0500010000001f
:10de00008a0a0500dce6ff7f440b050001000000e4
:10de10007c0b0500d8e6ff7f920b05000100000097
:10de2000c40b0500d4e6ff7ff80b0500d8e6ff7fa2
:10de3000a00d050001000000cc0d05000100000050
:10de4000d40d050001000000040e050054edff7f15
:10de5000380f050001000000ec140500010000006f
:10de6000f414050001000000181505000100000071
:10de7000221505000100000030150500d8eaff7fdb
:10de80003c16050001000000f01b05000100000029
:10de9000f81b050001000000381c050054ebff7f53
:10dea000601d050001000000f822050001000000cf
:10deb000002305000100000034230500a0ebff7fd4
:10dec0003024050001000000e429050001000000e5
:10ded000ec29050001000000242a05000ceaff7f60
:10dee0000c2b050001000000c030050001000000ff
:10def000c8300500bce8ff7ff031050001000000dc
:10df0000a037050001000000a8370500010000004f
:10df1000dc370500d8ebff7fb038050001000000ba
:10df2000643e050001000000284505007ceaff7ff3
:10df30006045050001000000104b050001000000d5
:10df40009856050001000000b856050001000000c9
:10df5000d856050001000000f85605000100000039
:10df6000185705000100000070570500010000006f
:10df7000c657050001000000185805000100000008
:10df80003858050001000000fc58050001000000a1
:10df90003059050001000000a059050001000000f3
:10dfa000b259050001000000dc5905000100000025
:10dfb000065a050001000000885a05000100000013
:10dfc000a25a050001000000bc5a05000100000033
:10dfd000d65a050001000000fc5a050001000000af
:10dfe0002e5b0500010000005c5b050001000000e5
:10dff000bc5b050001000000ec5b050001000000b7
:10e00000305c0500010000006c5c050001000000b0
:10e01000945c0500010000000a5d0500010000009d
:10e02000705d050001000000f65d050001000000c4
:10e03000ea5e05000100000010600500010000001c
:10e04000b06f050001000000d06f05000100000066
:10e05000f06f0500010000001070050001000000d5
:10e060003070050001000000507005000100000044
:10e07000a870050001000000fe700500010000000e
:10e0800050710500010000007071050001000000e2
:10e0900034720500010000006872050001000000f4
:10e0a0008472050001000000f47205000100000008
:10e0b0000673050001000000307305000100000038
:10e0c0005a730500010000007c7305000100000088
:10e0d000b073050001000000c473050001000000da
:10e0e000d873050001000000ec730500010000007a
:10e0f00012740500010000007478050001000000a2
:10e10000b081050001000000f88105000100000059
:10e110004882050001000000808205000100000027
:10e120009c82050001000000d8820500010000006b
:10e13000fa820500010000001c83050001000000b8
:10e140005883050001000000a483050001000000c1
:10e15000c4830500010000000484050001000000e4
:10e160006084050001000000c0840500010000007b
:10e170001c85050001000000288505000100000045
:10e1800038850500010000004c85050001000000f5
:10e190009c85050001000000d08d050001000000f5
:10e1a000608e050044e1ff7fd08f050048e1ff7fce
:10e1b0005a9005004ce1ff7fda9005000100000055
:10e1c0009891050001000000249d05000100000059
:10e1d000549d050000840480689d05000100000036
:10e1e000649d0500b0ad04802ca00500b0a803809c
:10e1f0004ca00500dce9ff7f50a00500e0e9ff7faf
:10e200005ca00500010000005ca00500010000000a
:10e2100098b305000100000088c905000100000056
:10e22000bac9050001000000ccc9050001000000ca
:10e23000dcc9050001000000ecc905000100000078
:10e24000fcc90500010000000cca05000100000027
:10e2500026ca0500010000003eca050001000000ba
:10e260006aca05000100000082ca05000100000022
:10e270009eca050001000000baca050001000000a6
:10e28000e8ca050001000000c8d505000100000033
:10e2900014d60500f0e3ff7f88d6050001000000da
:10e2a00028d705000100000030d70500010000005c
:10e2b0003ed705000100000054d705000100000012
:10e2c00064d7050038e4ff7f80d705003ce4ff7f7a
:10e2d0009cd7050040e4ff7fb8d7050044e4ff7fea
:10e2e000d4d7050048e4ff7ff0d705004ce4ff7f5a
:10e2f00024d8050050e4ff7f50d80500010000003d
:10e300005cd80500010000006ad80500c4e2ff7f68
:10e31000b8d805000100000072d905000100000016
:10e3200040ef05000100000068ef0500010000005b
:10e330009aef050001000000ccef0500010000008d
:10e340006c05060001000000b00d060030e5ff7fff
:08e35000d019060001000000d5
:020000040000fa
:10e358001cb90020040000000100000000000000bb
:10e36800ec4c02201c000000000000002ce60120fc
:10e378000400000001000000006cdc02804d022057
:10e388000400000000000000784d02200500000095
:10e3980000000000844d022004000000000000007e
:10e3a800884d02200400000000000000000000204a
:10e3b80024020000000000002402002010000000d9
:10e3c80000000000944c0220300000000100000012
:10e3d800020000000400104000000300020070006a
:10e3e800b9fc000000000000050000001400200037
:10e3f80000010000353600000000d700001bb70000
:10e40800244d022018000000000000008c4d02205e
:10e418000400000001000000aaaaaaaa584d022080
:10e428000800000000000000904d022004000000d9
:10e4380001000000389c000008040020549c0000e3
:10e448000000000004490220040100000000000050
:10e45800b44b02203c00000000000000c04702202e
:10e4680044010000000000003c4d022010000000a4
:10e478000100000030313233343536373839414203
:10e488004344454658ea01201104000000000000fa
:10e4980034020020a80000000000000010e1012064
:10e4a8001b05000000000000dc020020080000003e
:10e4b80000000000284c0220350000000000000089
:10e4c800e40200201001000000000000604d02205e
:10e4d8000800000000000000740d02203002000057
:10e4e80001000000e8e40400000000000200000051
:10e4f8000100000000000000001000000000000003
:10e50800ece40400f8e4040000000000000400004b
:10e518000000000008e50400f8e404000000000022
:10e52800000200000000000014e50400f8e4040004
:10e53800000000002000000000000000ece40400df
:10e5480020e504000000000080000000000000003a
:10e5580008e5040020e504000000000000010000b8
:10e568000000000014e5040020e50400000000009d
:10e578002ce504000001000001000000010000007b
:10e58800000000002000000000000000ece404008f
:10e5980030e50400000000008000000000000000da
:10e5a80008e5040030e50400000000000001000058
:10e5b8000000000014e5040030e50400000000003d
:10e5c80063000000000000000000000000000000e0
:10e5d80000000000630000000000000000000000d0
:10e5e80000000000000000006300000000000000c0
:10e5f800000000000000000000000000cce504005e
:10e6080000010000010000000100000000000000ff
:10e618002000000000000000ece4040020e50400f5
:10e6280000000000800000000000000014e5040065
:10e6380020e50400000000000004000000000000c5
:10e6480014e50400f8e40400000000006300000082
:10e6580000000000000000000000000000000000b2
:10e66800630000000000000000000000000000003f
:10e67800000000006300000000000000000000002f
:10e688000000000000000000d4e5040000010000c4
:10e698000100000001000000000000000010000060
:10e6a80000000000ece40400f8e4040000000000ae
:10e6b800000400000000000014e50400f8e4040071
:10e6c80000000000800000000000000014e50400c5
:10e6d80020e50400000000006300000000000000c6
:10e6e80000000000000000000000000063000000bf
:10e6f8000000000000000000000000000000000012
:10e70800630000000000000000000000000000009e
:10e718000000000020b90020580c00000000000094
:10e7280090d30120c006000000000000604c0220c9
:10e73800330000000000000050da0120c00600008d
:10e7480000000000684d02200800000000000000e2
:10e75800f403002004000000000000004c4d0220db
:10e768000c00000000000000a40f0220300200008e
:10e7780001000000c80905000000000002000000b8
:10e788000100000000000000001000000000000070
:10e79800cc090500d80905000000000000040000ad
:10e7a80000000000e8090500d80905000000000085
:10e7b8000002000000000000f4090500d809050067
:10e7c800000000002000000000000000cc09050047
:10e7d800000a0500000000008000000000000000a2
:10e7e800e8090500000a050000000000000100001b
:10e7f80000000000f4090500000a05000000000000
:10e808000c0a0500000100000100000001000000e2
:10e81800000000002000000000000000cc090500f6
:10e82800100a050000000000800000000000000041
:10e83800e8090500100a05000000000000010000ba
:10e8480000000000f4090500100a0500000000009f
:10e85800630000000000000000000000000000004d
:10e86800000000006300000000000000000000003d
:10e87800000000000000000063000000000000002d
:10e88800000000000000000000000000ac0a0500c5
:10e89800000100000100000001000000000000006d
:10e8a8002000000000000000cc090500000a050057
:10e8b800000000008000000000000000f4090500ce
:10e8c800000a05000000000000040000000000002d
:10e8d800f4090500d80905000000000063000000e5
:10e8e8000000000000000000000000000000000020
:10e8f80063000000000000000000000000000000ad
:10e90800000000006300000000000000000000009c
:10e918000000000000000000b40a0500000100002b
:10e9280001000000010000000000000000100000cd
:10e9380000000000cc090500d8090500000000000f
:10e948000004000000000000f4090500d8090500d3
:10e95800000000008000000000000000f40905002d
:10e96800000a05000000000063000000000000002d
:10e97800000000000000000000000000630000002c
:10e98800000000000000000000000000000000007f
:10e99800630000000000000000000000000000000c
:10e9a80000000000cccc0120c106000000000000df
:10e9b800944d02200400000000000000f80300202d
:10e9c80004000000000000000c4b0220a80000001a
:10e9d8000000000074f201206c0200000100000039
:10e9e80070b60300000000000200000001000000f3
:10e9f80000000000001000000000000074b60300d2
:10ea080080b60300000000000004000000000000c1
:10ea180090b6030080b6030000000000000200006a
:10ea2800000000009cb6030080b603000000000050
:10ea3800200000000000000074b60300a8b6030020
:10ea480000000000800000000000000090b60300f5
:10ea5800a8b603000000000000010000000000004c
:10ea68009cb60300a8b6030000000000b4b603007b
:10ea7800000100000100000001000000000000008b
:10ea8800200000000000000074b60300b8b60300c0
:10ea980000000000800000000000000090b60300a5
:10eaa800b8b60300000000000001000000000000ec
:10eab8009cb60300b8b60300000000006300000025
:10eac800000000000000000000000000000000003e
:10ead80063000000000000000000000000000000cb
:10eae80000000000630000000000000000000000bb
:10eaf800000000000000000054b7030000010000ff
:10eb080001000000010000000000000020000000db
:10eb18000000000074b60300a8b60300000000005f
:10eb280080000000000000009cb60300a8b60300a7
:10eb38000000000000040000000000009cb6030074
:10eb480080b6030000000000630000000000000021
:10eb5800000000000000000000000000630000004a
:10eb6800000000000000000000000000000000009d
:10eb7800630000000000000000000000000000002a
:10eb8800000000005cb70300000100000100000065
:10eb9800010000000000000000100000000000005c
:10eba80074b6030080b603000000000000040000f3
:10ebb800000000009cb6030080b6030000000000bf
:10ebc80080000000000000009cb60300a8b6030007
:10ebd80000000000630000000000000000000000ca
:10ebe80000000000000000006300000000000000ba
:10ebf80000000000000000000000000063000000aa
:10ec080000000000000000000000000000000000fc
:10ec1800d0e00020f8e0002020e1002048e10020ba
:10ec280070e1002098e10020c0e10020e8e1002028
:10ec380010e2002038e2002060e2002088e2002094
:10ec4800b0e20020d8e2002000e3002010da002023
:10ec58004809000000000000d41102203002000022
:10ec68000100000000fb030000000000020000009b
:10ec7800010000000000000000100000000000007b
:10ec880004fb030010fb0300000000000004000068
:10ec98000000000020fb030010fb03000000000040
:10eca80000020000000000002cfb030010fb030022
:10ecb80000000000200000000000000004fb03002a
:10ecc80038fb030000000000800000000000000086
:10ecd80020fb030038fb03000000000000010000d7
:10ece800000000002cfb030038fb030000000000bc
:10ecf80044fb0300000100000100000001000000c7
:10ed080000000000200000000000000004fb0300d9
:10ed180048fb030000000000800000000000000025
:10ed280020fb030048fb0300000000000001000076
:10ed3800000000002cfb030048fb0300000000005b
:10ed48006300000000000000000000000000000058
:10ed58000000000063000000000000000000000048
:10ed68000000000000000000630000000000000038
:10ed7800000000000000000000000000e4fb0300a9
:10ed88000001000001000000010000000000000078
:10ed9800200000000000000004fb030038fb030013
:10eda8000000000080000000000000002cfb0300b1
:10edb80038fb030000000000000400000000000011
:10edc8002cfb030010fb03000000000063000000a0
:10edd800000000000000000000000000000000002b
:10ede80063000000000000000000000000000000b8
:10edf80000000000630000000000000000000000a8
:10ee08000000000000000000ecfb0300000100000f
:10ee180001000000010000000000000000100000d8
:10ee28000000000004fb030010fb030000000000ca
:10ee380000040000000000002cfb030010fb03008e
:10ee48000000000080000000000000002cfb030010
:10ee580038fb030000000000630000000000000011
:10ee68000000000000000000000000006300000037
:10ee7800000000000000000000000000000000008a
:10ee88006300000000000000000000000000000017
:10ee980000000000bcd00020540900000000000061
:10eea800984d02200400000000000000f04b0220f2
:10eeb8003800000000000000e8fd01203c020000ce
:10eec80001000000c87504000000000002000000f6
:10eed8000100000000000000001000000000000019
:10eee800cc750400d8750400000000000004000080
:10eef80000000000e8750400d87504000000000058
:10ef08000002000000000000f4750400d875040039
:10ef1800000000002000000000000000cc75040084
:10ef280000760400000000008000000000000000df
:10ef3800e8750400007604000000000000010000ed
:10ef480000000000f47504000076040000000000d2
:10ef58000c76040000010000010000000100000020
:10ef6800000000002000000000000000cc75040034
:10ef7800107604000000000080000000000000007f
:10ef8800e87504001076040000000000000100008d
:10ef980000000000f4750400107604000000000072
:10efa80063000000000000000000000000000000f6
:10efb80000000000630000000000000000000000e6
:10efc80000000000000000006300000000000000d6
:10efd800000000000000000000000000ac76040003
:10efe8000001000001000000010000000000000016
:10eff8002000000000000000cc750400007604002a
:10f00800000000008000000000000000f47504000b
:10f01800007604000000000000040000000000006a
:10f02800f4750400d87504000000000063000000b7
:10f0380000000000000000000000000000000000c8
:10f048006300000000000000000000000000000055
:10f058000000000063000000000000000000000045
:10f068000000000000000000b47604000001000069
:10f078000100000001000000000000000010000076
:10f0880000000000cc750400d875040000000000e2
:10f098000004000000000000f4750400d8750400a6
:10f0a800000000008000000000000000f47504006b
:10f0b800007604000000000063000000000000006b
:10f0c80000000000000000000000000063000000d5
:10f0d8000000000000000000000000000000000028
:10f0e80063000000000000000000000000000000b5
:10f0f800000000001f1c1f1e1f1e1f1f1e1f1e1f9b
:10f108001839012040070000000000000414022004
:10f118003002000001000000f812050000000000a5
:10f1280002000000010000000000000000100000c4
:10f1380000000000fc120500081305000000000094
:10f148000004000000000000181305000813050063
:10f158000000000000020000000000002413050069
:10f168000813050000000000200000000000000057
:10f17800fc120500301305000000000080000000ac
:10f1880000000000181305003013050000000000ff
:10f1980000010000000000002413050030130500e2
:10f1a800000000003c130500000100000100000001
:10f1b8000100000000000000200000000000000026
:10f1c800fc1205004013050000000000800000004c
:10f1d800000000001813050040130500000000009f
:10f1e8000001000000000000241305004013050082
:10f1f80000000000630000000000000000000000a4
:10f208000000000000000000630000000000000093
:10f218000000000000000000000000006300000083
:10f2280000000000000000000000000000000000d6
:10f23800dc130500000100000100000001000000cf
:10f24800000000002000000000000000fc12050083
:10f2580030130500000000008000000000000000de
:10f26800241305003013050000000000000400000e
:10f27800000000002413050008130500000000002a
:10f288006300000000000000000000000000000013
:10f298000000000063000000000000000000000003
:10f2a80000000000000000006300000000000000f3
:10f2b800000000000000000000000000e41305004a
:10f2c8000001000001000000010000000000000033
:10f2d8000010000000000000fc12050008130500e3
:10f2e80000000000000400000000000024130500d6
:10f2f8000813050000000000800000000000000066
:10f30800241305003013050000000000630000000e
:10f3180000000000000000000000000000000000e5
:10f328006300000000000000000000000000000072
:10f338000000000063000000000000000000000062
:10f348000000000000000000802a01204c07000097
:10f358000000000034160220300200000100000006
:10f3680074ad04000000000002000000010000006d
:10f3780000000000001000000000000078ad04004c
:10f3880084ad04000000000000040000000000003c
:10f3980094ad040084ad04000000000000020000e9
:10f3a80000000000a0ad040084ad040000000000cf
:10f3b800200000000000000078ad0400acad04009f
:10f3c80000000000800000000000000094ad040070
:10f3d800acad0400000000000001000000000000c7
:10f3e800a0ad0400acad040000000000b8ad0400fe
:10f3f8000001000001000000010000000000000002
:10f40800200000000000000078ad0400bcad04003e
:10f4180000000000800000000000000094ad04001f
:10f42800bcad040000000000000100000000000066
:10f43800a0ad0400bcad04000000000063000000a3
:10f4480000000000000000000000000000000000b4
:10f458006300000000000000000000000000000041
:10f468000000000063000000000000000000000031
:10f47800000000000000000058ae04000001000079
:10f488000100000001000000000000002000000052
:10f498000000000078ad0400acad040000000000de
:10f4a8008000000000000000a0ad0400acad040026
:10f4b800000000000004000000000000a0ad0400ef
:10f4c80084ad04000000000063000000000000009c
:10f4d80000000000000000000000000063000000c1
:10f4e8000000000000000000000000000000000014
:10f4f80063000000000000000000000000000000a1
:10f508000000000060ae04000001000001000000df
:10f5180001000000000000000010000000000000d2
:10f5280078ad040084ad0400000000000004000071
:10f5380000000000a0ad040084ad0400000000003d
:10f548008000000000000000a0ad0400acad040085
:10f558000000000063000000000000000000000040
:10f568000000000000000000630000000000000030
:10f578000000000000000000000000006300000020
:10f588000000000000000000000000000000000073
:10f59800cc55012018070000000000006418022064
:10f5a8003002000001000000ec9a04000000000096
:10f5b8000200000001000000000000000010000030
:10f5c80000000000f09a0400fc9a0400000000000b
:10f5d80000040000000000000c9b0400fc9a0400da
:10f5e800000000000002000000000000189b04005a
:10f5f800fc9a040000000000200000000000000049
:10f60800f09a0400249b0400000000008000000021
:10f61800000000000c9b0400249b04000000000074
:10f628000001000000000000189b0400249b040057
:10f6380000000000309b04000001000001000000f1
:10f648000100000000000000200000000000000091
:10f65800f09a0400349b04000000000080000000c1
:10f66800000000000c9b0400349b04000000000014
:10f678000001000000000000189b0400349b0400f7
:10f68800000000006300000000000000000000000f
:10f6980000000000000000006300000000000000ff
:10f6a80000000000000000000000000063000000ef
:10f6b8000000000000000000000000000000000042
:10f6c800d09b0400000100000100000001000000c0
:10f6d800000000002000000000000000f09a040074
:10f6e800249b0400000000008000000000000000cf
:10f6f800189b0400249b0400000000000004000084
:10f7080000000000189b0400fc9a040000000000a0
:10f71800630000000000000000000000000000007e
:10f72800000000006300000000000000000000006e
:10f73800000000000000000063000000000000005e
:10f74800000000000000000000000000d89b04003a
:10f75800000100000100000001000000000000009e
:10f768000010000000000000f09a0400fc9a040059
:10f77800000000000004000000000000189b0400c6
:10f78800fc9a040000000000800000000000000057
:10f79800189b0400249b0400000000006300000084
:10f7a8000000000000000000000000000000000051
:10f7b80063000000000000000000000000000000de
:10f7c80000000000630000000000000000000000ce
:10f7d8000000000000000000ecc50120e006000069
:10f7e80000000000704d022008000000000000002a
:10f7f800b9d0002003000000010000000101010051
:10f80800084d02201900000000000000084a0220ec
:10f818000101000000000000d806022034020000a8
:10f828000100000030a404000000000002000000f5
:10f8380001000000000000000010000000000000af
:10f8480034a4040040a404000000000000040000e8
:10f858000000000050a4040040a4040000000000c0
:10f8680000020000000000005ca4040040a40400a2
:10f8780000000000200000000000000034a4040084
:10f8880068a40400000000008000000000000000e0
:10f8980050a4040068a40400000000000001000057
:10f8a800000000005ca4040068a40400000000003c
:10f8b80074a4040000010000010000000100000021
:10f8c80000000000200000000000000034a4040034
:10f8d80078a4040000000000800000000000000080
:10f8e80050a4040078a404000000000000010000f7
:10f8f800000000005ca4040078a4040000000000dc
:10f90800630000000000000000000000000000008c
:10f91800000000006300000000000000000000007c
:10f92800000000000000000063000000000000006c
:10f9380000000000000000000000000014a5040002
:10f9480000010000010000000100000000000000ac
:10f95800200000000000000034a4040068a4040093
:10f968000000000080000000000000005ca404000b
:10f9780068a404000000000000040000000000006b
:10f988005ca4040040a40400000000006300000020
:10f99800000000000000000000000000000000005f
:10f9a80063000000000000000000000000000000ec
:10f9b80000000000630000000000000000000000dc
:10f9c80000000000000000001ca504000001000069
:10f9d800010000000100000000000000001000000d
:10f9e8000000000034a4040040a40400000000004b
:10f9f80000040000000000005ca4040040a404000f
:10fa08000000000080000000000000005ca404006a
:10fa180068a404000000000063000000000000006b
:10fa2800000000000000000000000000630000006b
:10fa380000000000000000000000000000000000be
:10fa4800630000000000000000000000000000004b
:10fa580000000000c30000004c8e012000070000d9
:10fa680000000000e0f40120410200000100000055
:10fa78005021040000000000020000000100000006
:10fa880000000000001000000000000054210400e5
:10fa980060210400000000000004000000000000d5
:10faa8007021040060210400000000000002000032
:10fab800000000007c210400602104000000000018
:10fac80020000000000000005421040088210400e8
:10fad8000000000080000000000000007021040009
:10fae8008821040000000000000100000000000060
:10faf8007c210400882104000000000094210400f7
:10fb080000010000010000000100000000000000ea
:10fb18002000000000000000542104009821040087
:10fb280000000000800000000000000070210400b8
:10fb380098210400000000000001000000000000ff
:10fb48007c210400982104000000000063000000ec
:10fb5800000000000000000000000000000000009d
:10fb6800630000000000000000000000000000002a
:10fb7800000000006300000000000000000000001a
:10fb88000000000000000000342204000001000012
:10fb9800010000000100000000000000200000003b
:10fba8000000000054210400882104000000000027
:10fbb80080000000000000007c210400882104006f
:10fbc8000000000000040000000000007c21040088
:10fbd8006021040000000000630000000000000035
:10fbe80000000000000000000000000063000000aa
:10fbf80000000000000000000000000000000000fd
:10fc08006300000000000000000000000000000089
:10fc1800000000003c220400000100000100000078
:10fc280001000000000000000010000000000000bb
:10fc380054210400602104000000000000040000ba
:10fc4800000000007c210400602104000000000086
:10fc580080000000000000007c21040088210400ce
:10fc68000000000063000000000000000000000029
:10fc78000000000000000000630000000000000019
:10fc88000000000000000000000000006300000009
:10fc9800000000000000000000000000000000005c
:10fca80001000000090000001e0000002c010000f7
:10fcb80001000000040d01207d0700000000000085
:10fcc800941a022030020000010000003c340400b5
:10fcd8000000000002000000010000000000000019
:10fce8000010000000000000403404004c34040000
:10fcf8000000000000040000000000005c34040064
:10fd08004c34040000000000000200000000000065
:10fd1800683404004c340400000000002000000097
:10fd280000000000403404007434040000000000a7
:10fd380080000000000000005c34040074340400fb
:10fd4800000000000001000000000000683404000a
:10fd58007434040000000000803404000001000036
:10fd68000100000001000000000000002000000069
:10fd78000000000040340400843404000000000047
:10fd880080000000000000005c340400843404009b
:10fd980000000000000100000000000068340400ba
:10fda800843404000000000063000000000000002c
:10fdb80000000000000000000000000063000000d8
:10fdc800000000000000000000000000000000002b
:10fdd80063000000000000000000000000000000b8
:10fde80000000000203504000001000001000000b0
:10fdf80001000000000000002000000000000000da
:10fe08004034040074340400000000008000000046
:10fe1800000000006834040074340400000000008e
:10fe28000004000000000000683404004c340400a2
:10fe38000000000063000000000000000000000057
:10fe48000000000000000000630000000000000047
:10fe58000000000000000000000000006300000037
:10fe6800000000000000000000000000000000008a
:10fe78002835040000010000010000000100000016
:10fe880000000000001000000000000040340400e2
:10fe98004c340400000000000004000000000000d2
:10fea800683404004c3404000000000080000000a6
:10feb80000000000683404007434040000000000ee
:10fec80063000000000000000000000000000000c7
:10fed80000000000630000000000000000000000b7
:10fee80000000000000000006300000000000000a7
:10fef8000000000000000000000000008414012041
:10ff08005807000000000000c41c02203002000056
:10ff1800010000005cf7040000000000020000007f
:10ff280001000000000000000010000000000000b8
:10ff380060f704006cf704000000000000040000f3
:10ff4800000000007cf704006cf7040000000000cb
:10ff5800000200000000000088f704006cf70400ad
:10ff680000000000200000000000000060f704000e
:10ff780094f704000000000080000000000000006a
:10ff88007cf7040094f70400000000000001000062
:10ff98000000000088f7040094f704000000000047
:10ffa800a0f70400000100000100000001000000ab
:10ffb80000000000200000000000000060f70400be
:10ffc800a4f704000000000080000000000000000a
:10ffd8007cf70400a4f70400000000000001000002
:10ffe8000000000088f70400a4f7040000000000e7
:10fff8006300000000000000000000000000000096
:020000040001f9
:100008000000000063000000000000000000000085
:100018000000000000000000630000000000000075
:1000280000000000000000000000000040f804008c
:1000380000010000010000000100000000000000b5
:10004800200000000000000060f7040094f704009e
:1000580000000000800000000000000088f7040095
:1000680094f70400000000000004000000000000f5
:1000780088f704006cf7040000000000630000002b
:100088000000000000000000000000000000000068
:1000980063000000000000000000000000000000f5
:1000a80000000000630000000000000000000000e5
:1000b800000000000000000048f8040000010000f3
:1000c8000100000001000000000000000010000016
:1000d8000000000060f704006cf704000000000056
:1000e800000400000000000088f704006cf704001a
:1000f80000000000800000000000000088f70400f5
:1001080094f70400000000006300000000000000f5
:100118000000000000000000000000006300000074
:1001280000000000000000000000000000000000c7
:100138006300000000000000000000000000000054
:10014800000000004c950120f806000000000000a7
:100158009c040220390200000100000088c003004e
:100168000000000002000000010000000000000084
:1001780000100000000000008cc0030098c00300bd
:10018800000000000004000000000000a8c00300f8
:1001980098c00300000000000002000000000000fa
:1001a800b4c0030098c00300000000002000000055
:1001b800000000008cc00300c0c003000000000065
:1001c8008000000000000000a8c00300c0c00300b9
:1001d800000000000001000000000000b4c003009f
:1001e800c0c0030000000000ccc0030000010000f4
:1001f80001000000010000000000000020000000d5
:10020800000000008cc00300d0c003000000000004
:100218008000000000000000a8c00300d0c0030058
:10022800000000000001000000000000b4c003004e
:10023800d0c00300000000006300000000000000c0
:100248000000000000000000000000006300000043
:100258000000000000000000000000000000000096
:100268006300000000000000000000000000000023
:10027800000000006cc10300000100000100000044
:100288000100000000000000200000000000000045
:100298008cc00300c0c00300000000008000000004
:1002a80000000000b4c00300c0c00300000000004c
:1002b8000004000000000000b4c0030098c0030060
:1002c80000000000630000000000000000000000c3
:1002d80000000000000000006300000000000000b3
:1002e80000000000000000000000000063000000a3
:1002f80000000000000000000000000000000000f6
:1003080074c10300000100000100000001000000aa
:100318000000000000100000000000008cc0030076
:1003280098c0030000000000000400000000000066
:10033800b4c0030098c00300000000008000000063
:1003480000000000b4c00300c0c0030000000000ab
:100358006300000000000000000000000000000032
:100368000000000063000000000000000000000022
:100378000000000000000000630000000000000012
:100388000000000000000000000000000200000063
:10039800050000000300000058e30020d00800001a
:1003a80000000000f41e02203002000001000000de
:1003b800a404040000000000020000000100000086
:1003c800000000000010000000000000a804040065
:1003d800b404040000000000000400000000000055
:1003e800c4040400b404040000000000000200007b
:1003f80000000000d0040400b40404000000000061
:100408002000000000000000a8040400dc04040030
:10041800000000008000000000000000c404040088
:10042800dc040400000000000001000000000000df
:10043800d0040400dc04040000000000e804040008
:1004480000010000010000000100000000000000a1
:100458002000000000000000a8040400ec040400d0
:10046800000000008000000000000000c404040038
:10047800ec0404000000000000010000000000007f
:10048800d0040400ec040400000000006300000035
:100498000000000000000000000000000000000054
:1004a80063000000000000000000000000000000e1
:1004b80000000000630000000000000000000000d1
:1004c8000000000000000000880504000001000092
:1004d80001000000010000000000000020000000f2
:1004e80000000000a8040400dc0404000000000070
:1004f8008000000000000000d0040400dc040400b8
:10050800000000000004000000000000d004040007
:10051800b4040400000000006300000000000000b4
:100528000000000000000000000000006300000060
:1005380000000000000000000000000000000000b3
:100548006300000000000000000000000000000040
:1005580000000000900504000001000001000000f8
:100568000100000000000000001000000000000072
:10057800a8040400b4040400000000000004000003
:1005880000000000d0040400b404040000000000cf
:100598008000000000000000d0040400dc04040017
:1005a80000000000630000000000000000000000e0
:1005b80000000000000000006300000000000000d0
:1005c80000000000000000000000000063000000c0
:1005d8000000000000000000000000000000000013
:1005e8005ca00020c01800000000000024210220a8
:1005f80030020000010000004cac030000000000c5
:1006080002000000010000000000000000100000cf
:100618000000000050ac03005cac030000000000c8
:1006280000040000000000006cac03005cac030098
:1006380000000000000200000000000078ac030089
:100648005cac030000000000200000000000000077
:1006580050ac030084ac03000000000080000000e0
:10066800000000006cac030084ac03000000000034
:10067800000100000000000078ac030084ac030017
:100688000000000090ac0300000100000100000021
:100698000100000000000000200000000000000031
:1006a80050ac030094ac0300000000008000000080
:1006b800000000006cac030094ac030000000000d4
:1006c800000100000000000078ac030094ac0300b7
:1006d80000000000630000000000000000000000af
:1006e800000000000000000063000000000000009f
:1006f800000000000000000000000000630000008f
:1007080000000000000000000000000000000000e1
:1007180030ad0300000100000100000001000000ee
:1007280000000000200000000000000050ac0300a2
:1007380084ac0300000000008000000000000000fe
:1007480078ac030084ac0300000000000004000043
:100758000000000078ac03005cac0300000000005f
:10076800630000000000000000000000000000001e
:10077800000000006300000000000000000000000e
:1007880000000000000000006300000000000000fe
:1007980000000000000000000000000038ad030069
:1007a800000100000100000001000000000000003e
:1007b800001000000000000050ac03005cac030017
:1007c80000000000000400000000000078ac0300f6
:1007d8005cac030000000000800000000000000086
:1007e80078ac030084ac0300000000006300000044
:1007f80000000000000000000000000000000000f1
:10080800630000000000000000000000000000007d
:10081800000000006300000000000000000000006d
:10082800000000000000000028ec0020ca080000ba
:1008380000000000542302203002000001000000e4
:10084800786c0400000000000200000001000000b5
:100858000000000000100000000000007c6c040094
:10086800886c040000000000000400000000000084
:10087800986c0400886c040000000000000200006e
:1008880000000000a46c0400886c04000000000054
:1008980020000000000000007c6c0400b06c040024
:1008a800000000008000000000000000986c0400b8
:1008b800b06c04000000000000010000000000000f
:1008c800a46c0400b06c040000000000bc6c0400c0
:1008d800000100000100000001000000000000000d
:1008e80020000000000000007c6c0400c06c0400c4
:1008f800000000008000000000000000986c040068
:10090800c06c0400000000000001000000000000ae
:10091800a46c0400c06c0400000000006300000028
:1009280000000000000000000000000000000000bf
:10093800630000000000000000000000000000004c
:10094800000000006300000000000000000000003c
:1009580000000000000000005c6d040000010000c1
:10096800010000000100000000000000200000005d
:10097800000000007c6c0400b06c04000000000063
:100988008000000000000000a46c0400b06c0400ab
:10099800000000000004000000000000a46c040037
:1009a800886c0400000000006300000000000000e4
:1009b80000000000000000000000000063000000cc
:1009c800000000000000000000000000000000001f
:1009d80063000000000000000000000000000000ac
:1009e80000000000646d0400000100000100000028
:1009f80001000000000000000010000000000000de
:100a08007c6c0400886c04000000000000040000f6
:100a180000000000a46c0400886c040000000000c2
:100a28008000000000000000a46c0400b06c04000a
:100a3800000000006300000000000000000000004b
:100a4800000000000000000063000000000000003b
:100a5800000000000000000000000000630000002b
:100a6800000000000000000000000000000000007e
:100a780008bf0120e406000000000000400b02202f
:100a88003102000001000000d0170400000000003f
:100a9800020000000100000000000000001000003b
:100aa80000000000d4170400e01704000000000054
:100ab8000004000000000000f0170400e017040024
:100ac800000000000002000000000000fc17040005
:100ad800e0170400000000002000000000000000f3
:100ae800d41704000818040000000000800000006b
:100af80000000000f01704000818040000000000bf
:100b08000001000000000000fc17040008180400a1
:100b1800000000001418040000010000010000009b
:100b2800010000000000000020000000000000009c
:100b3800d41704001818040000000000800000000a
:100b480000000000f017040018180400000000005e
:100b58000001000000000000fc1704001818040041
:100b6800000000006300000000000000000000001a
:100b7800000000000000000063000000000000000a
:100b880000000000000000000000000063000000fa
:100b9800000000000000000000000000000000004d
:100ba800b41804000001000001000000010000006a
:100bb800000000002000000000000000d41704001e
:100bc8000818040000000000800000000000000079
:100bd800fc170400081804000000000000040000ce
:100be80000000000fc170400e017040000000000eb
:100bf800630000000000000000000000000000008a
:100c08000000000063000000000000000000000079
:100c18000000000000000000630000000000000069
:100c2800000000000000000000000000bc180400e4
:100c380000010000010000000100000000000000a9
:100c48000010000000000000d4170400e0170400a2
:100c5800000000000004000000000000fc17040071
:100c6800e017040000000000800000000000000001
:100c7800fc170400081804000000000063000000ce
:100c8800000000000000000000000000000000005c
:100c980063000000000000000000000000000000e9
:100ca80000000000630000000000000000000000d9
:100cb800000000000000000001000000f4f4002023
:100cc8007c0800000000000084250220300200009b
:100cd8000100000094000500000000000200000070
:100ce80001000000000000000010000000000000eb
:100cf80098000500a40005000000000000040000a2
:100d080000000000b4000500a40005000000000079
:100d18000002000000000000c0000500a40005005b
:100d280000000000200000000000000098000500fe
:100d3800cc0005000000000080000000000000005a
:100d4800b4000500cc000500000000000001000010
:100d580000000000c0000500cc00050000000000f5
:100d6800d80005000001000001000000010000009b
:100d780000000000200000000000000098000500ae
:100d8800dc000500000000008000000000000000fa
:100d9800b4000500dc0005000000000000010000b0
:100da80000000000c0000500dc0005000000000095
:100db80063000000000000000000000000000000c8
:100dc80000000000630000000000000000000000b8
:100dd80000000000000000006300000000000000a8
:100de800000000000000000000000000780105007d
:100df80000010000010000000100000000000000e8
:100e0800200000000000000098000500cc0005004c
:100e1800000000008000000000000000c000050085
:100e2800cc000500000000000004000000000000e5
:100e3800c0000500a40005000000000063000000d9
:100e4800000000000000000000000000000000009a
:100e58006300000000000000000000000000000027
:100e68000000000063000000000000000000000017
:100e780000000000000000008001050000010000e3
:100e88000100000001000000000000000010000048
:100e98000000000098000500a40005000000000004
:100ea8000004000000000000c0000500a4000500c8
:100eb800000000008000000000000000c0000500e5
:100ec800cc000500000000006300000000000000e6
:100ed80000000000000000000000000063000000a7
:100ee80000000000000000000000000000000000fa
:100ef8006300000000000000000000000000000087
:100f080000000000448701200807000000000000de
:100f1800b42702203002000001000000147f040002
:100f280000000000020000000100000000000000b6
:100f38000010000000000000187f0400247f040057
:100f4800000000000004000000000000347f0400de
:100f5800247f0400000000000002000000000000e0
:100f6800407f0400247f04000000000020000000ef
:100f780000000000187f04004c7f040000000000ff
:100f88008000000000000000347f04004c7f040053
:100f9800000000000001000000000000407f040085
:100fa8004c7f040000000000587f0400000100008e
:100fb8000100000001000000000000002000000007
:100fc80000000000187f04005c7f0400000000009f
:100fd8008000000000000000347f04005c7f0400f3
:100fe800000000000001000000000000407f040035
:100ff8005c7f0400000000006300000000000000a7
:101008000000000000000000000000006300000075
:1010180000000000000000000000000000000000c8
:101028006300000000000000000000000000000055
:1010380000000000f87f040000010000010000002b
:101048000100000000000000200000000000000077
:10105800187f04004c7f040000000000800000009e
:1010680000000000407f04004c7f040000000000e6
:101078000004000000000000407f0400247f0400fa
:1010880000000000630000000000000000000000f5
:1010980000000000000000006300000000000000e5
:1010a80000000000000000000000000063000000d5
:1010b8000000000000000000000000000000000028
:1010c8000080040000010000010000000100000091
:1010d800000000000010000000000000187f04005d
:1010e800247f04000000000000040000000000004d
:1010f800407f0400247f04000000000080000000fe
:1011080000000000407f04004c7f04000000000045
:101118006300000000000000000000000000000064
:101128000000000063000000000000000000000054
:101138000000000000000000630000000000000044
:10114800000000000000000000000000a84e012080
:101158002407000000000000e429022030020000fb
:1011680001000000888d030000000000020000005c
:101178000100000000000000001000000000000056
:101188008c8d0300988d030000000000000400000f
:1011980000000000a88d0300988d030000000000e7
:1011a8000002000000000000b48d0300988d0300c9
:1011b8000000000020000000000000008c8d0300eb
:1011c800c08d030000000000800000000000000047
:1011d800a88d0300c08d030000000000000100007e
:1011e80000000000b48d0300c08d03000000000063
:1011f800cc8d030000010000010000000100000088
:101208000000000020000000000000008c8d03009a
:10121800d08d0300000000008000000000000000e6
:10122800a88d0300d08d030000000000000100001d
:1012380000000000b48d0300d08d03000000000002
:101248006300000000000000000000000000000033
:101258000000000063000000000000000000000023
:101268000000000000000000630000000000000013
:101278000000000000000000000000006c8e030069
:101288000001000001000000010000000000000053
:1012980020000000000000008c8d0300c08d0300ba
:1012a800000000008000000000000000b48d030072
:1012b800c08d0300000000000004000000000000d2
:1012c800b48d0300988d0300000000006300000047
:1012d8000000000000000000000000000000000006
:1012e8006300000000000000000000000000000093
:1012f8000000000063000000000000000000000083
:101308000000000000000000748e030000010000cf
:1013180001000000010000000000000000100000b3
:10132800000000008c8d0300988d03000000000071
:101338000004000000000000b48d0300988d030035
:10134800000000008000000000000000b48d0300d1
:10135800c08d0300000000006300000000000000d2
:101368000000000000000000000000006300000012
:101378000000000000000000000000000000000065
:1013880063000000000000000000000000000000f2
:101398000000000078c50020410b0000000000009c
:1013a800142c0220300200000100000034c904009f
:1013b8000000000002000000010000000000000022
:1013c800001000000000000038c9040044c90400ef
:1013d80000000000000400000000000054c90400e0
:1013e80044c90400000000000002000000000000e2
:1013f80060c9040044c90400000000002000000087
:101408000000000038c904006cc904000000000096
:10141800800000000000000054c904006cc90400ea
:1014280000000000000100000000000060c9040086
:101438006cc904000000000078c904000001000025
:101448000100000001000000000000002000000072
:101458000000000038c904007cc904000000000036
:10146800800000000000000054c904007cc904008a
:1014780000000000000100000000000060c9040036
:101488007cc90400000000006300000000000000a8
:1014980000000000000000000000000063000000e1
:1014a8000000000000000000000000000000000034
:1014b80063000000000000000000000000000000c1
:1014c8000000000018ca040000010000010000002c
:1014d80001000000000000002000000000000000e3
:1014e80038c904006cc90400000000008000000036
:1014f8000000000060c904006cc90400000000007e
:10150800000400000000000060c9040044c9040091
:101518000000000063000000000000000000000060
:101528000000000000000000630000000000000050
:101538000000000000000000000000006300000040
:101548000000000000000000000000000000000093
:1015580020ca040000010000010000000100000092
:1015680000000000001000000000000038c904005e
:1015780044c904000000000000040000000000004e
:1015880060c9040044c90400000000008000000095
:101598000000000060c904006cc9040000000000dd
:1015a80063000000000000000000000000000000d0
:1015b80000000000630000000000000000000000c0
:1015c80000000000000000006300000000000000b0
:1015d8000000000000000000000000002c7901203d
:1015e800090700000000000068f901203e02000021
:1015f800010000005c8804000000000002000000f8
:1016080001000000000000000010000000000000c1
:10161800608804006c8804000000000000040000da
:10162800000000007c8804006c88040000000000b2
:101638000002000000000000888804006c88040094
:101648000000000020000000000000006088040086
:1016580094880400000000008000000000000000e2
:101668007c88040094880400000000000001000049
:10167800000000008888040094880400000000002e
:10168800a088040000010000010000000100000023
:101698000000000020000000000000006088040036
:1016a800a488040000000000800000000000000082
:1016b8007c880400a48804000000000000010000e9
:1016c8000000000088880400a488040000000000ce
:1016d800630000000000000000000000000000009f
:1016e800000000006300000000000000000000008f
:1016f800000000000000000063000000000000007f
:101708000000000000000000000000004089040004
:1017180000010000010000000100000000000000be
:101728002000000000000000608804009488040085
:10173800000000008000000000000000888804000d
:10174800948804000000000000040000000000006d
:10175800888804006c880400000000006300000012
:101768000000000000000000000000000000000071
:1017780063000000000000000000000000000000fe
:1017880000000000630000000000000000000000ee
:10179800000000000000000048890400000100006b
:1017a800010000000100000000000000001000001f
:1017b80000000000608804006c880400000000003d
:1017c8000004000000000000888804006c88040001
:1017d800000000008000000000000000888804006d
:1017e800948804000000000063000000000000006e
:1017f800000000000000000000000000630000007e
:1018080000000000000000000000000000000000d0
:10181800630000000000000000000000000000005d
:1018280000000000284e4f575452290028575452a0
:1018380029000000dc1b0120510700000000000007
:10184800442e02203002000001000000b4b604005b
:10185800000000000200000001000000000000007d
:101868000010000000000000b8b60400c4b6040070
:10187800000000000004000000000000d4b60400ce
:10188800c4b60400000000000002000000000000d0
:10189800e0b60400c4b60400000000002000000008
:1018a80000000000b8b60400ecb604000000000018
:1018b8008000000000000000d4b60400ecb604006c
:1018c800000000000001000000000000e0b6040075
:1018d800ecb6040000000000f8b6040000010000a7
:1018e80001000000010000000000000020000000ce
:1018f80000000000b8b60400fcb6040000000000b8
:101908008000000000000000d4b60400fcb604000b
:10191800000000000001000000000000e0b6040024
:10192800fcb6040000000000630000000000000096
:10193800000000000000000000000000630000003c
:10194800000000000000000000000000000000008f
:10195800630000000000000000000000000000001c
:101968000000000098b7040000010000010000001a
:10197800010000000000000020000000000000003e
:10198800b8b60400ecb604000000000080000000b7
:1019980000000000e0b60400ecb6040000000000ff
:1019a8000004000000000000e0b60400c4b6040013
:1019b80000000000630000000000000000000000bc
:1019c80000000000000000006300000000000000ac
:1019d800000000000000000000000000630000009c
:1019e80000000000000000000000000000000000ef
:1019f800a0b7040000010000010000000100000081
:101a0800000000000010000000000000b8b604004c
:101a1800c4b604000000000000040000000000003c
:101a2800e0b60400c4b60400000000008000000016
:101a380000000000e0b60400ecb60400000000005e
:101a4800630000000000000000000000000000002b
:101a5800000000006300000000000000000000001b
:101a6800000000000000000063000000000000000b
:101a78000000000000000000000000000c6b0120c6
:101a8800110700000000000074300220300200003e
:101a980001000000201c05000000000002000000fa
:101aa800010000000000000000100000000000001d
