:020000040000fa
:10c00000f0ff0320a1bb06000f880600a3da06009c
:10c010000f8806009dda06000f8806000000000069
:10c020000000000000000000000000009d34060039
:10c030000f88060000000000093706007737060069
:10c040000f8806000f8806000f8806000f8806007c
:10c050000f8806000f8806000f8806000f8806006c
:10c060000f8806000f8806000f880600c9be03006f
:10c070000f8806000f8806000f8806000f8806004c
:10c080000f8806000f8806000f8806000f8806003c
:10c090000f8806000f8806000f8806000f8806002c
:10c0a0000f8806000f8806000f8806000f8806001c
:10c0b0000f8806000f8806000f8806000f8806000c
:10c0c0000f8806000f8806000f8806000f880600fc
:10c0d0000f8806000f8806000f8806000f880600ec
:10c0e0000f8806000f880600000000000000000016
:10c0f00000000000f97c06000f8806000f8806008b
:10c100000f8806000f8806000f8806000f880600bb
:10c110000f8806000f8806008d7b0100a57b0100bb
:10c12000bd7b01000f8806000f8806000f880600ff
:10c130000f8806000f8806000f8806000f8806008b
:10c140000f8806000f880600ed7b0100057c0100ca
:10c150001d7c01000f8806000f8806000f8806006e
:10c160000f8806000f8806000f8806000f8806005b
:10c170000f8806000f8806000f8806000f8806004b
:10c180000f8806000f8806000f8806000f8806003b
:10c190000f8806000f8806000f8806000f8806002b
:10c1a0000f8806000f8806000f8806000f8806001b
:10c1b0000f8806000f8806000f8806000f8806000b
:10c1c0000f8806000f8806000f8806000f880600fb
:10c1d0000f8806000f8806000f8806000f880600eb
:10c1e0000f8806000f8806000f8806000f880600db
:10c1f0000f8806000f8806000f8806000f880600cb
:10c200000f8806000f8806000f8806000f880600ba
:10c210000f8806000f8806000f880600bd850600ff
:10c220000f8806000f8806000f8806000f8806009a
:10c230000f8806000f8806000f8806000f8806008a
:10c240000f8806000f8806000f8806000f8806007a
:10c250000f8806000f8806000f8806000f8806006a
:04c260000f8806003d
:020000040000fa
:10c2640003970181b0b00884000000000d9701819c
:10c27400b0b00b840000000009970181b0b00b84ba
:10c284000000000003970181b0b0088400000000a2
:10c2940003970181b0b00884000000000197018178
:10c2a400b0b008840000000001970181b0b0088498
:10c2b4000000000001970181b0b008840000000074
:10c2c40001970181b0b00884000000000397018148
:10c2d400b0b008840000000003970181b0b0088466
:10c2e4000000000003970181b0b008840000000042
:10c2f40001970181b0b0088400000000019701811a
:10c30400b0b008840000000005970181b0b0088433
:10c314000000000001970181b0b008840000000013
:10c3240002970181b0b009840000000001970181e7
:10c33400b0b008840000000001970181b0b0088407
:10c344000000000003970181b0b0088400000000e1
:10c3540001970181b0b008840000000001970181b9
:10c36400b0b008840000000001970181b0b00884d7
:10c374000000000001970181b0b0088400000000b3
:10c3840003970181b0b00884000000000397018185
:10c39400b0b008840000000003970181b0b00884a5
:10c3a4000000000003970181b0b008840000000081
:10c3b40004970181b0b00984000000000597018151
:10c3c400b0b008840000000005970181b0b0088473
:10c3d4000000000001970181b0b008840000000053
:10c3e40001970181b0b00884000000000397018127
:10c3f400b0b008840000000003970181b0b0088445
:10c404000000000001970181b0b008840000000022
:10c4140001970181b0b008840000000005970181f4
:10c42400b0b008840000000003970181b0b0088414
:10c434000000000003970181b0b0088400000000f0
:10c4440003970181b0b008840000000003970181c4
:10c45400b0b008840000000001970181b0b00884e6
:10c464000000000001970181b0b0088400000000c2
:10c4740003970181b0b00884000000000197018196
:10c48400b0b008840000000001970181b0b00884b6
:10c494000000000003970181b0b008840000000090
:10c4a40001970181b0b00884000000000397018166
:10c4b400b0b008840000000003970181b0b0088484
:10c4c4000000000003970181b0b008840000000060
:10c4d40009970181b0b0088400000000039701812e
:10c4e400b0b008840000000001970181b0b0088456
:10c4f4000000000003970181b0b008840000000030
:10c504000b970181b0b008840000000005970181f9
:10c51400b0b008840000000001970181b0b0088425
:10c524000000000004970181b0b0098400000000fd
:10c5340004970181b0b009840000000001970181d3
:10c54400b0b008840000000002970181b0b00984f3
:10c554000000000001970181b0b0088400000000d1
:10c5640001970181b0b008840000000005970181a3
:10c57400b0b008840000000001970181b0b00884c5
:10c584000000000003970181b0b00884000000009f
:10c5940001970181b0030884000000000197018124
:10c5a400b0b008840000000007970181b0b008848f
:10c5b4000000000001970181b0b008840000000071
:10c5c40001970181b0b00884000000000597018143
:10c5d400b0b008840000000005970181b0b0088461
:10c5e4000000000001970181b0b008840000000041
:10c5f40001970181b0b00884000000000397018115
:10c60400b0b008840000000003970181b0b0088432
:10c614000000000003970181b0b00884000000000e
:10c6240007970181b0b008840000000007970181da
:10c63400b0b008840000000006970181b0b00984fe
:10c644000000000005970181b0b0088400000000dc
:10c6540003970181b0b008840000000001970181b4
:10c66400b0b008840000000001970181b0b00884d4
:10c674000000000005970181b0b0088400000000ac
:10c6840001970181b0b00884000000000597018182
:10c69400b0b008840000000003970181b0b00884a2
:10c6a400000000000d970181b0b008840000000074
:10c6b40009970181b0b00884000000000997018146
:10c6c400b0b008840000000002970181b0b0098472
:10c6d4000000000001970181b0b03b84000000001d
:10c6e40003970181b0b03b840000000003970181ef
:10c6f400b0b008840000000003970181b0b0088442
:10c704000000000003970181b0b00884000000001d
:10c7140003970181b0b008840000000003970181f1
:10c72400b0b008840000000005970181b0b008840f
:10c734000000000003970181b0b0088400000000ed
:10c7440001970181b0b008840000000001970181c5
:10c75400b0b008840000000001970181b0b00884e3
:10c764000000000001970181b0b0088400000000bf
:10c7740001970181b0b00884000000000197018195
:10c78400b0b00b840000000001970181b0b00b84ad
:10c794000000000001970181b0b00b84000000008c
:10c7a40001970181b0b00884000000000597018161
:10c7b400b0b008840000000001970181b0b0088483
:10c7c4000000000009970181b0b008840000000057
:10c7d40001970181b0030b840000000004970181dc
:10c7e400b0030984000000000d970181b0b00884f3
:10c7f4000000000005970181b0b00884000000002b
:10c8040005970181b0b008840000000007970181fa
:10c81400b0b008840000000003970181b0b0088420
:10c824000000000003970181b0b0088400000000fc
:10c8340005970181b0b008840000000009970181c8
:10c84400b0b008840000000005970181b0b00884ee
:10c854000000000005970181b0b0088400000000ca
:10c8640006970181b0b0098400000000019701819e
:10c87400b0b008840000000005970181b0b00884be
:10c884000000000007970181b0b008840000000098
:10c8940007970181b0b00884000000000797018168
:10c8a400b0b008840000000007970181b0b008848c
:10c8b4000000000007970181b0b008840000000068
:10c8c40001970181b0b00884000000000597018140
:10c8d400b0b00b840000000005970181b0b008845b
:10c8e4000000000001970181b0b00884000000003e
:10c8f40001970181b0b00884000000000197018114
:10c90400b0b008840000000003970181b0b008842f
:10c914000000000003970181b0b00884000000000b
:10c9240003970181b0b008840000000001970181e1
:10c93400b0b008840000000001970181b0b0088401
:10c944000000000001970181b0b0088400000000dd
:10c9540003970181b0b00b840000000001970181ae
:10c96400b0b008840000000001970181b0b00884d1
:10c97400000000000d970181b0b0088400000000a1
:10c9840001970181b0b00884000000000197018183
:10c99400b0b008840000000001970181b0b00884a1
:10c9a4000000000005970181b0b008840000000079
:10c9b40005970181b0b0088400000000059701814b
:10c9c400b0b008840000000001970181b0b0088471
:10c9d4000000000004970181b0b009840000000049
:10c9e40001970181b0b00884000000000197018123
:10c9f400b0b008840000000001970181b0b0088441
:10ca04000000000007970181b0b008840000000016
:10ca140003970181b0b008840000000001970181f0
:10ca2400b0b008840000000001970181b0b0088410
:10ca34000000000002970181b0b0098400000000ea
:10ca440008970181b0b009840000000005970181b6
:10ca5400b0b008840000000001970181b0b00b84dd
:10ca64000000000001970181b0b0088400000000bc
:10ca740001970181b0b00884000000000197018192
:10ca8400b0b008840000000001970181b0b00884b0
:10ca94000000000001970181b0b00884000000008c
:10caa40001970181b0b00884000000000197018162
:10cab400b0b008840000000001970181b0b0088480
:10cac4000000000001970181b0b00884000000005c
:10cad40006970181b0b00984000000000597018128
:10cae400b0b008840000000001970181b0b0088450
:10caf4000000000001970181b0b00884000000002c
:10cb040005970181b0b008840000000001970181fd
:10cb1400b0b008840000000001970181b0b008841f
:10cb24000000000005970181b0b0088400000000f7
:10cb340001970181b0b008840000000001970181d1
:10cb4400b0b008840000000001970181b0b00884ef
:10cb54000000000001970181b0b0088400000000cb
:10cb64000b970181b0b00884000000000597018193
:10cb7400b0b008840000000001970181b0b00884bf
:10cb84000000000001970181b0b00884000000009b
:10cb940001970181b0b00884000000000197018171
:10cba400b0b008840000000001970181b0b008848f
:10cbb4000000000008b10181b0b000840000000052
:10cbc40008b10181b0b0008400000000f8b500bfd6
:10cbd400f8bc08bc9e46704791d8060095c2060072
:10cbe400b577030095260300b94d0600d13306003e
:10cbf4009dcd0500816f02004d92060081820300e5
:10cc0400e55a02002d8d0300f5530500e96c03007d
:10cc140005f10500cdfc02008d410600e1ed0300a5
:10cc2400eddd0200c19905000dea0500352e020074
:10cc3400a982050089ed0200ad040600d53f03007a
:10cc440005dc050059c605008997020011e30500bb
:10cc540041730500b5b7050071a10500699703008c
:10cc64001d0b0300e1a8050091a10300e9f70500ed
:10cc7400bd630500e94b05005d8a0500896b05006d
:10cc84001192050081c8030051b00500ddd40500f0
:10cc94004ddb0300f8b500bff8bc08bc9e467047e6
:04cca40071c2060053
:020000040000fa
:10cca8003047010001000000b847010034fcff7f55
:10ccb8008849010001000000c449010030fcff7fe1
:10ccc800d84a010001000000104b01002cfcff7f36
:10ccd800dc4b010001000000104c010001000000c5
:10cce800544c010001000000e44c01000100000068
:10ccf800204d010001000000684d010008fcff7f85
:10cd0800b84e010001000000284f010004fcff7f1d
:10cd1800cc540100010000003c55010000fcff7fdd
:10cd2800ec59010004fcff7f445a010008fcff7f16
:10cd3800b45a010001000000f46001000100000085
:10cd48008878010001000000a878010001000000b7
:10cd5800c878010001000000fc7801000100000013
:10cd68002679010001000000ac790100ab12978020
:10cd7800107d010020f9ff7f7e7d010024f9ff7fef
:10cd88003a7e010028f9ff7fb87e01002cf9ff7f69
:10cd9800a07f010030f9ff7f8882010034f9ff7f0e
:10cda8008c83010038f9ff7fe48601000100000050
:10cdb8002c8d010001000000388d010001000000e9
:10cdc800588d010001000000728d01000100000073
:10cdd800928d010001000000b28d010001000000e9
:10cde800ce8d010001000000ee8d01000100000061
:10cdf8000a8e010001000000628e0100010000009f
:10ce0800b88e0100010000000a8f01000100000037
:10ce1800468f010001000000828f01000100000020
:10ce2800a28f01000100000064900100dcf6ff7f82
:10ce3800c0900100010000005091010001000000b5
:10ce4800c091010001000000e6910100010000000e
:10ce5800f89101000100000022920100b8f6ff7f5e
:10ce680052920100bcf6ff7f18930100c0f6ff7fc5
:10ce7800ac9501000100000050960100010000007f
:10ce880080970100b4f6ff7f5a980100b8f6ff7f3b
:10ce9800889a010001000000aa9a0100b4f6ff7ff9
:10cea800c09a0100b8f6ff7fe69a01000100000071
:10ceb8002a9b010001000000c0a001000100000041
:10cec800c8a0010001000000e8a001000100000066
:10ced80002a101000100000022a1010001000000e0
:10cee80042a10100010000005ea101000100000054
:10cef8007ea10100010000009aa1010001000000cc
:10cf0800f2a101000100000048a201000100000098
:10cf18009aa2010001000000baa20100010000006d
:10cf28007ca3010001000000b0a30100d8f3ff7f3b
:10cf38000ca40100010000007ca401000100000015
:10cf48008ea4010001000000b8a401000100000047
:10cf5800e2a40100bcf3ff7f12a50100c0f3ff7f2c
:10cf680048a701000100000074a7010001000000ab
:10cf78008aa7010001000000a0a70100010000002d
:10cf8800b6a70100a4f3ff7fcca70100a8f3ff7f99
:10cf9800e2a7010001000000f8a70100010000005d
:10cfa80014a801000100000028a8010094f3ff7fe5
:10cfb800f0a9010098f3ff7f1aaa01009cf3ff7ff4
:10cfc80044aa0100010000005caa010098f3ff7f59
:10cfd800faaa01009cf3ff7f24ab0100a0f3ff7fb6
:10cfe80048ab010001000000a8ac010001000000ee
:10cff80008ad010001000000f4ad01008cf3ff7fd3
:10d0080012ae010090f3ff7f30ae010094f3ff7f72
:10d018004eae010001000000c0ae0100010000009a
:10d028001eaf010088f3ff7f2cb001000100000053
:10d0380054b0010001000000d0b001007cf3ff7f74
:10d048008eb1010001000000dcb101000100000008
:10d05800f0b101000100000004b20100010000006d
:10d0680018b20100010000002cb20100010000000c
:10d0780050b20100010000007cb201000100000074
:10d08800cab201000100000010b301000100000055
:10d0980034b301000100000068b301000100000082
:10d0a800e0b3010044f9ff7fdcb6010048f9ff7fd7
:10d0b8001cb701004cf9ff7ff0b9010050f9ff7f60
:10d0c800d8ba010054f9ff7f3cbb010058f9ff7f33
:10d0d800a8bb01000100000084bc010054f9ff7fd7
:10d0e800d0be0100ac019780c8bf0100010000005c
:10d0f80090c601000100000040ec010001000000a2
:10d1080060ec0100010000007aec01000100000061
:10d118009aec010001000000baec010001000000d7
:10d12800d6ec010001000000f6ec0100010000004f
:10d1380012ed0100010000006aed0100010000008d
:10d14800c0ed01000100000012ee01000100000026
:10d158004eee0100010000008aee0100010000000f
:10d16800aaee0100010000006cef010001000000c0
:10d17800a0ef010050f2ff7ffcef0100010000006a
:10d188008cf0010001000000fcf00100010000002b
:10d1980022f101000100000034f10100010000004b
:10d1a8005ef101000100000088f1010024f2ff7f18
:10d1b800b8f1010001000000c6f101000100000003
:10d1c8003af3010018f2ff7f82f301001cf2ff7f9f
:10d1d800e2f3010020f2ff7f34f4010024f2ff7f24
:10d1e80070f401000100000084f401000100000057
:10d1f80098f4010001000000acf4010001000000f7
:10d20800c0f4010001000000d4f401000100000096
:10d21800e8f4010001000000cef501000100000063
:10d22800e2f50100e8f1ff7ffaf50100ecf1ff7f7c
:10d238002af60100f0f1ff7fbcf60100f4f1ff7f50
:10d24800f2f60100f8f1ff7fc0f90100fcf1ff7f61
:10d25800f0f9010000f2ff7f02fa010004f2ff7ffb
:10d2680014fa010008f2ff7f52fa010001000000e1
:10d278009efa010004f2ff7fc2fa010008f2ff7f64
:10d28800e6fa01000cf2ff7f30fb0100f4f5ff7fa6
:10d29800a8fc0100f8f5ff7fc8fe0100fcf5ff7f40
:10d2a8005000020000f6ff7f7402020004f6ff7fc0
:10d2b800a404020008f6ff7f180502000100000020
:10d2c800240b0200010000002c0b020074f6ff7f03
:10d2d800540c020078f6ff7ff80d020001000000f0
:10d2e800400e020074f6ff7f640f020078f6ff7f9d
:10d2f8006c12020001000000a012020074f6ff7f09
:10d308007014020078f6ff7fd814020001000000b4
:10d31800701a020001000000781a020001000000e3
:10d32800d41a0200010000003e1b020001000000a8
:10d33800b21b020001000000fe1b020090f4ff7ff8
:10d348003c1c020094f4ff7f7a1e020001000000da
:10d35800861e020090f4ff7fc822020094f4ff7f2b
:10d368006223020098f4ff7fb82302000100000046
:10d37800f423020094f4ff7fac24020098f4ff7faa
:10d38800d02402009cf4ff7f0c250200a0f4ff7f4c
:10d3980064250200a4f4ff7f54270200a8f4ff7f4d
:10d3a800ac270200acf4ff7f04280200b0f4ff7f32
:10d3b800b628020001000000d62802000100000083
:10d3c80004290200010000000c29020001000000ed
:10d3d8002c290200010000004c2902000100000075
:10d3e8006c290200010000008c29020001000000e5
:10d3f800e4290200010000003a2a020001000000ae
:10d408008c2a020001000000c82a02000100000066
:10d41800e82a020001000000ac2b02000100000015
:10d42800e02b020001000000502c02000100000067
:10d43800702c020001000000902c02000100000086
:10d44800a22c020001000000cc2c02000100000008
:10d45800f62c020001000000a82d020028f6ff7f2c
:10d46800f82d02002cf6ff7f70300200010000004a
:10d47800a436020001000000fc4402000100000084
:10d488001c450200010000003c45020001000000ac
:10d498005c450200010000007c450200010000001c
:10d4a800d4450200010000002a46020001000000e5
:10d4b8007c460200010000009c46020001000000ba
:10d4c80060470200010000009447020001000000cc
:10d4d8000448020001000000164802000100000094
:10d4e80040480200010000006a48020001000000f4
:10d4f8009e48020098edff7fec4802009cedff7ffc
:10d508001a490200a0edff7f2e490200a4edff7f1b
:10d518005e490200a8edff7f84490200ae119780a2
:10d52800104c0200a4edff7f4c4c020001000000eb
:10d53800664c020001000000764c02000100000069
:10d54800864c020001000000ae4c020088edff7f0f
:10d55800d24c02000100000034510200010000001a
:10d568003c5e020030f4ff7f605f020034f4ff7f0e
:10d578001c61020038f4ff7fd8620200010000003d
:10d588000c63020034f4ff7f5064020038f4ff7f1c
:10d598009c64020001000000346a020001000000df
:10d5a800808c0200d4f1ff7f288d0200d8f1ff7f24
:10d5b800108f0200dcf1ff7f58910200010000008b
:10d5c80020970200010000002897020090ecff7fde
:10d5d8006897020001000000a49702008cecff7f0e
:10d5e800209a020090ecff7fa49a020094ecff7f3f
:10d5f800149b0200088497805c9b020001000000d5
:10d60800aca1020001000000b4a102007cf0ff7f81
:10d618007ca502000100000060ac020001000000cf
:10d6280068ac020018f1ff7f24ad02001cf1ff7ff7
:10d6380074ae020020f1ff7fb4af020024f1ff7f37
:10d64800fcb0020001000000dcb60200010000008e
:10d65800e4b6020018f4ff7f60b702001cf4ff7ff5
:10d6680098ba020001000000f8c0020001000000a2
:10d6780000c1020040f4ff7f20c1020044f4ff7f94
:10d6880010c502000100000000cb020001000000ec
:10d6980008cb02000100000014cb020001000000ca
:10d6a8006ccb0200010000008ccb0200b0a9028004
:10d6b80024cc0200b0b0a88074cc020001000000a5
:10d6c80078cc02000100000074cc020001000000c8
:10d6d80070cc0200b0b0aa80a8cc0200ae71b280b3
:10d6e80078cd02000100000074cd0200ab3f388005
:10d6f800cccd020001000000d8cd0200b0b0aa8055
:10d7080014ce0200010000001cce0200010000003f
:10d7180018ce0200010000001cce0200010000002b
:10d7280048ce02000100000058ce020001000000af
:10d7380084ce02000100000098ce0200ab0eb28039
:10d7480000cf0200b0af0a80c8d10200010000007b
:10d75800c4d1020001000000c0d102000100000095
:10d76800bcd10200ab3f048070e70200010000005a
:10d77800a8e70200f4f3ff7f44eb02000100000079
:10d78800f8f002000100000070fa02000100000039
:10d7980090fa020001000000b0fa02000100000047
:10d7a800e4fa0200010000000efb0200e0f3ff7f34
:10d7b800d4fb0200e4f3ff7f98fc0200e8f3ff7f4c
:10d7c800a4fd0200010000007c030300010000002a
:10d7d800e00c030001000000cc0d03000100000074
:10d7e800080e030090f0ff7f3410030001000000d2
:10d7f800e8150300010000006c530300010000005d
:10d808008c53030001000000a65303000100000030
:10d81800c653030001000000e653030001000000a6
:10d82800025403000100000022540300010000001c
:10d838003e540300010000005e5403000100000094
:10d8480020550300010000005455030088edff7fb8
:10d85800b055030001000000da5503000100000084
:10d86800045603007cedff7f3456030001000000de
:10d878005c560300010000008e56030070edff7f28
:10d888000257030074edff7f4657030078edff7fd2
:10d89800905703007cedff7fd45703000100000080
:10d8a8003c58030078edff7f325903007cedff7f81
:10d8b8002c5a030080edff7f845a030084edff7f1c
:10d8c800ba5a030001000000e25a030001000000f8
:10d8d80010850300010000003085030001000000ee
:10d8e8004a850300010000006a850300010000006a
:10d8f8008a85030001000000a685030001000000de
:10d90800c685030001000000e28503000100000055
:10d918003a86030001000000908603000100000021
:10d92800e2860300010000001e87030001000000da
:10d938005a870300010000007a87030001000000f5
:10d948003c88030001000000708803005ceeff7f44
:10d95800cc880300010000005c890300010000007e
:10d96800cc89030001000000f289030001000000d7
:10d97800048a0300010000002e8a03000100000051
:10d98800588a030030eeff7f888a030001000000f8
:10d998005a8b03002ceeff7f84a5030001000000d2
:10d9a800a4a5030001000000bea5030001000000bb
:10d9b800dea5030001000000fea503000100000031
:10d9c8001aa60300010000003aa6030001000000a7
:10d9d80056a6030001000000aea6030001000000e7
:10d9e80004a703000100000056a70300010000007f
:10d9f80076a703000100000038a80300010000001a
:10da08006ca8030064ebff7fc8a8030001000000b6
:10da180038a90300010000004aa903000100000022
:10da280074a90300010000009ea9030048ebff7fd2
:10da3800cea903004cebff7f90aa030050ebff7fb9
:10da4800c0aa030054ebff7fe4aa030058ebff7f52
:10da580028ac03000100000048ac030054ebff7f32
:10da68006eac03000100000082ac0300010000005e
:10da780096ac030048ebff7faaac0300010000004e
:10da880054690400010000006e69040001000000f0
:10da98008a69040001000000a669040060f0ff7fa5
:10daa800006a040064f0ff7f306a040008849780ed
:10dab800f46a040060f0ff7f6c6b04000100000052
:10dac800207104000100000028710400010000001a
:10dad8006c710400010000000872040090ecff7fe4
:10dae8006c730400010000000479040001000000c8
:10daf800f880040001000000128104000100000009
:10db08002e810400010000004a810400ccefff7f51
:10db1800a4810400d0efff7fd4810400088497809b
:10db280058820400ccefff7fd0820400010000007f
:10db380084880400010000008c88040001000000b3
:10db4800f48904000cf0ff7f7c8a040001000000c7
:10db5800309004000100000038900400010000002b
:10db68008490040001000000d0900400dceeff7fe8
:10db7800f491040001000000c097040001000000b7
:10db88007c9f040001000000a49f04000100000025
:10db9800ac9f040001000000b89f0400ab10978000
:10dba80044a1040001000000f8a6040001000000e0
:10dbb80000a70400010000001aa7040001000000eb
:10dbc80036a704000100000052a7040054efff7fad
:10dbd800aca7040058efff7fdca704005cefff7fd1
:10dbe80038a8040060efff7fb0a80400010000001f
:10dbf80064ae0400010000006cae040001000000e7
:10dc0800e4ae040058efff7f44b0040001000000b8
:10dc1800f8b504000100000000b60400acecff7f7a
:10dc280098b704000100000090bd04000100000046
:10dc380098bd040001000000dcbd040001000000e4
:10dc480074be04001ceeff7f80bf040001000000ca
:10dc580018c504000100000020c5040040eeff7f45
:10dc680054c5040044eeff7f8cc604000100000088
:10dc780068cc04000100000070cc04000100000022
:10dc8800a0cc0400f0eeff7f04ce040001000000e9
:10dc9800b8d3040001000000c0d304000100000054
:10dca800e0d30400b0edff7f38d504000100000088
:10dcb800fcda04000100000004db0400010000009d
:10dcc80024db04000100000044db04000100000024
:10dcd80064db04000100000084db04000100000094
:10dce800dcdb04000100000032dc0400010000005d
:10dcf80084dc040001000000c0dc04000100000016
:10dd0800e0dc040001000000a4dd040001000000c4
:10dd1800d8dd04000100000048de04000100000016
:10dd280068de04000100000088de04000100000035
:10dd38009ade040001000000c4de040001000000b7
:10dd4800eede040008e9ff7fb4df04000ce9ff7f82
:10dd5800d8df040010e9ff7ff6df040001000000af
:10dd680008e00400010000001ce0040001000000bd
:10dd78002ce00400010000003ae00400f4e8ff7f12
:10dd880060e104000100000074e1040001000000eb
:10dd980088e1040001000000bce1040040ecff7fc2
:10dda80010e3040001000000a8e8040001000000de
:10ddb800b0e80400e8e6ff7f4ce904000100000039
:10ddc80078e9040001000000a0e904000100000057
:10ddd800bae90400d4e6ff7f10ea0400ac07978094
:10dde800b0ea0400d0e6ff7ff2ea0400d4e6ff7f41
:10ddf8003ceb0400d8e6ff7ff2eb040001000000d2
:10de080002ec04000100000012ec0400cce6ff7fe5
:10de1800ccec04000100000004ed0400c8e6ff7f1c
:10de28001aed0400010000004ced0400c4e6ff7f79
:10de380080ed0400c8e6ff7f28ef04000100000021
:10de480054ef0400010000005cef04000100000032
:10de58008cef04002cedff7fc0f0040001000000ef
:10de680074f60400010000007cf6040001000000c4
:10de7800bcf604005cebff7fe4f70400010000003f
:10de88007cfd04000100000084fd04000100000086
:10de9800b8fd0400a8ebff7fb4fe040001000000f9
:10dea800680405000100000070040500010000007e
:10deb800a804050020eaff7f900505000100000086
:10dec800440b0500010000004c0b0500d0e8ff7f63
:10ded800740c050001000000241205000100000078
:10dee8002c1205000100000060120500e0ebff7f26
:10def8003413050001000000e818050001000000c7
:10df0800ac1f050084eaff7fe41f05000100000044
:10df180094250500010000001c31050001000000e7
:10df28003c310500010000005c31050001000000e3
:10df38007c310500010000009c3105000100000053
:10df4800f4310500010000004a320500010000001c
:10df58009c32050001000000bc32050001000000f1
:10df68008033050001000000b43305000100000003
:10df780024340500010000003634050001000000cb
:10df880060340500010000008a340500010000002b
:10df98000c350500010000002635050001000000d1
:10dfa80040350500010000005a3505000100000059
:10dfb8008035050001000000b235050001000000b1
:10dfc800e0350500010000004036050001000000b2
:10dfd8007036050001000000b4360500010000009d
:10dfe800f0360500010000001837050001000000a8
:10dff8008e37050001000000f4370500010000001d
:10e008007a380500010000006e39050001000000a3
:10e01800943a050001000000344a050001000000a0
:10e02800544a050001000000744a05000100000080
:10e03800944a050001000000b44a050001000000f0
:10e04800d44a0500010000002c4b05000100000027
:10e05800824b050001000000d44b050001000000c0
:10e06800f44b050001000000b84c05000100000059
:10e07800ec4c050001000000084d050001000000ff
:10e08800784d0500010000008a4d050001000000e0
:10e09800b44d050001000000de4d05000100000040
:10e0a800004e050001000000344e0500010000008c
:10e0b800484e0500010000005c4e0500010000000c
:10e0c800704e050001000000964e0500010000009a
:10e0d800f852050001000000305c05000100000056
:10e0e800785c050001000000c85c05000100000024
:10e0f800005d0500010000001c5d05000100000036
:10e10800585d0500010000007a5d0500010000006f
:10e118009c5d050001000000d85d050001000000bd
:10e12800245e050001000000445e050001000000b7
:10e13800845e050001000000e05e050001000000ab
:10e14800405f0500010000009c5f05000100000021
:10e15800a85f050001000000b85f0500010000008d
:10e16800cc5f0500010000001c60050001000000f4
:10e178005068050001000000e068050064e1ff7fc9
:10e18800506a050068e1ff7fda6a05006ce1ff7fed
:10e198005a6b050001000000186c05000100000022
:10e1a800a477050001000000d477050000840480ee
:10e1b800e877050001000000e4770500b0ad0480b1
:10e1c800ac7a0500b0a80380cc7a0500e4e9ff7fab
:10e1d800d07a0500e8e9ff7fdc7a0500010000003d
:10e1e800dc7a050001000000188e0500010000001f
:10e1f80008a40500010000003aa405000100000081
:10e208004ca40500010000005ca40500010000000a
:10e218006ca40500010000007ca4050001000000ba
:10e228008ca4050001000000a6a405000100000060
:10e23800bea4050001000000eaa4050001000000da
:10e2480002a50500010000001ea505000100000050
:10e258003aa505000100000068a5050001000000be
:10e268006cae050001000000b8ae050010e4ff7fa9
:10e278002caf050001000000ccaf05000100000034
:10e28800d4af050001000000e2af05000100000066
:10e29800f8af05000100000008b005004ce4ff7f5e
:10e2a80024b0050050e4ff7f40b0050054e4ff7f30
:10e2b8005cb0050058e4ff7f78b005005ce4ff7fa0
:10e2c80094b0050060e4ff7fc8b0050064e4ff7ff8
:10e2d800f4b005000100000000b1050001000000d5
:10e2e8000eb10500e4e2ff7f5cb10500010000000b
:10e2f80016b2050001000000e0c70500010000009b
:10e3080008c80500010000003ac805000100000027
:10e318006cc8050001000000dcde050001000000fb
:10e3280020e7050044e5ff7f40f3050001000000f9
:020000040000fa
:10e338005ca00020040000000100000000000000b4
:10e348006c3a02201c00000000000000003b022084
:10e358000400000001000000006cdc02043b022005
:10e368000400000000000000f83a02200500000048
:10e3780000000000083b022004000000000000002c
:10e388000c3b0220040000000000000000000020f8
:10e3980024020000000000002402002010000000f9
:10e3a80000000000143a02203000000001000000c4
:10e3b800020000000400104000000300020070008a
:10e3c800b9fc000000000000050000001400200057
:10e3d80000010000353600000000d700001bb70020
:10e3e800a43a02201800000000000000103b0220a0
:10e3f8000400000001000000aaaaaaaad83a022034
:10e408000800000000000000143b02200400000087
:10e4180001000000389c000008040020549c000003
:10e428000000000084360220040100000000000003
:10e43800343902203c000000000000004035022072
:10e448004401000000000000bc3a02201000000057
:10e458000100000030313233343536373839414223
:10e4680043444546d8d701201104000000000000ad
:10e4780034020020a80000000000000094ce012013
:10e488001b05000000000000dc020020080000005e
:10e4980000000000a839022035000000000000003c
:10e4a800e40200201001000000000000e03a022011
:10e4b8000800000000000000f4fa0120300200000b
:10e4c8000100000024f30400000000000200000026
:10e4d8000100000000000000001000000000000023
:10e4e80028f3040034f304000000000000040000d6
:10e4f8000000000044f3040034f3040000000000ae
:10e50800000200000000000050f3040034f304008f
:10e5180000000000200000000000000028f30400b4
:10e528005cf3040000000000800000000000000010
:10e5380044f304005cf30400000000000001000044
:10e548000000000050f304005cf304000000000029
:10e5580068f3040000010000010000000100000051
:10e5680000000000200000000000000028f3040064
:10e578006cf30400000000008000000000000000b0
:10e5880044f304006cf304000000000000010000e4
:10e598000000000050f304006cf3040000000000c9
:10e5a8006300000000000000000000000000000000
:10e5b80000000000630000000000000000000000f0
:10e5c80000000000000000006300000000000000e0
:10e5d80000000000000000000000000008f4040033
:10e5e8000001000001000000010000000000000020
:10e5f800200000000000000028f304005cf3040081
:10e6080000000000800000000000000050f304003b
:10e618005cf304000000000000040000000000009b
:10e6280050f3040034f3040000000000630000000d
:10e6380000000000000000000000000000000000d2
:10e64800630000000000000000000000000000005f
:10e65800000000006300000000000000000000004f
:10e66800000000000000000010f404000001000099
:10e678000100000001000000000000000010000080
:10e688000000000028f3040034f304000000000038
:10e69800000400000000000050f3040034f30400fc
:10e6a80000000000800000000000000050f304009b
:10e6b8005cf304000000000063000000000000009c
:10e6c80000000000000000000000000063000000df
:10e6d8000000000000000000000000000000000032
:10e6e80063000000000000000000000000000000bf
:10e6f8000000000060a00020500b00000000000097
:10e7080014c10120c006000000000000e03902200a
:10e718003300000000000000d4c70120c00600003c
:10e7280000000000e83a0220080000000000000095
:10e73800f40300200400000000000000cc3a02208e
:10e748000c0000000000000024fd01203002000041
:10e7580001000000b00b05000000000002000000ee
:10e768000100000000000000001000000000000090
:10e77800b40b0500c00b05000000000000040000f9
:10e7880000000000d00b0500c00b050000000000d1
:10e798000002000000000000dc0b0500c00b0500b3
:10e7a800000000002000000000000000b40b05007d
:10e7b800e80b0500000000008000000000000000d9
:10e7c800d00b0500e80b0500000000000001000068
:10e7d80000000000dc0b0500e80b0500000000004d
:10e7e800f40b05000001000001000000010000001a
:10e7f800000000002000000000000000b40b05002d
:10e80800f80b050000000000800000000000000078
:10e81800d00b0500f80b0500000000000001000007
:10e8280000000000dc0b0500f80b050000000000ec
:10e83800630000000000000000000000000000006d
:10e84800000000006300000000000000000000005d
:10e85800000000000000000063000000000000004d
:10e86800000000000000000000000000940c0500fb
:10e87800000100000100000001000000000000008d
:10e888002000000000000000b40b0500e80b0500a4
:10e89800000000008000000000000000dc0b050004
:10e8a800e80b050000000000000400000000000064
:10e8b800dc0b0500c00b0500000000006300000031
:10e8c8000000000000000000000000000000000040
:10e8d80063000000000000000000000000000000cd
:10e8e80000000000630000000000000000000000bd
:10e8f80000000000000000009c0c05000001000062
:10e9080001000000010000000000000000100000ed
:10e9180000000000b40b0500c00b0500000000005b
:10e928000004000000000000dc0b0500c00b05001f
:10e93800000000008000000000000000dc0b050063
:10e94800e80b050000000000630000000000000064
:10e95800000000000000000000000000630000004c
:10e96800000000000000000000000000000000009f
:10e97800630000000000000000000000000000002c
:10e988000000000050ba0120c1060000000000008d
:10e99800183b02200400000000000000f8030020db
:10e9a80004000000000000008c380220a8000000cd
:10e9b80000000000f4df01206c02000001000000ec
:10e9c800c8f703000000000002000000010000007a
:10e9d800000000000010000000000000ccf7030059
:10e9e800d8f7030000000000000400000000000049
:10e9f800e8f70300d8f70300000000000002000059
:10ea080000000000f4f70300d8f70300000000003e
:10ea18002000000000000000ccf7030000f803000d
:10ea2800000000008000000000000000e8f703007c
:10ea380000f80300000000000001000000000000d2
:10ea4800f4f7030000f80300000000000cf80300ce
:10ea580000010000010000000100000000000000ab
:10ea68002000000000000000ccf7030010f80300ad
:10ea7800000000008000000000000000e8f703002c
:10ea880010f8030000000000000100000000000072
:10ea9800f4f7030010f80300000000006300000012
:10eaa800000000000000000000000000000000005e
:10eab80063000000000000000000000000000000eb
:10eac80000000000630000000000000000000000db
:10ead8000000000000000000acf803000001000086
:10eae80001000000010000000000000020000000fc
:10eaf80000000000ccf7030000f80300000000004d
:10eb08008000000000000000f4f7030000f8030094
:10eb1800000000000004000000000000f4f70300fb
:10eb2800d8f70300000000006300000000000000a8
:10eb3800000000000000000000000000630000006a
:10eb480000000000000000000000000000000000bd
:10eb5800630000000000000000000000000000004a
:10eb680000000000b4f803000001000001000000ec
:10eb7800010000000000000000100000000000007c
:10eb8800ccf70300d8f703000000000000040000e1
:10eb980000000000f4f70300d8f7030000000000ad
:10eba8008000000000000000f4f7030000f80300f4
:10ebb80000000000630000000000000000000000ea
:10ebc80000000000000000006300000000000000da
:10ebd80000000000000000000000000063000000ca
:10ebe800000000000000000000000000000000001d
:10ebf8000cc7002034c700205cc7002084c7002051
:10ec0800acc70020d4c70020fcc7002024c80020bf
:10ec18004cc8002074c800209cc80020c4c800202c
:10ec2800ecc8002014c900203cc900204cc00020ba
:10ec3800480900000000000054ff012030020000d5
:10ec480001000000081b0400000000000200000092
:10ec5800010000000000000000100000000000009b
:10ec68000c1b0400181b0400000000000004000036
:10ec780000000000281b0400181b0400000000000e
:10ec88000002000000000000341b0400181b0400f0
:10ec98000000000020000000000000000c1b040021
:10eca800401b04000000000080000000000000007d
:10ecb800281b0400401b04000000000000010000a5
:10ecc80000000000341b0400401b0400000000008a
:10ecd8004c1b0400000100000100000001000000be
:10ece8000000000020000000000000000c1b0400d1
:10ecf800501b04000000000080000000000000001d
:10ed0800281b0400501b0400000000000001000044
:10ed180000000000341b0400501b04000000000029
:10ed28006300000000000000000000000000000078
:10ed38000000000063000000000000000000000068
:10ed48000000000000000000630000000000000058
:10ed5800000000000000000000000000ec1b0400a0
:10ed68000001000001000000010000000000000098
:10ed780020000000000000000c1b0400401b0400e1
:10ed8800000000008000000000000000341b0400a8
:10ed9800401b040000000000000400000000000008
:10eda800341b0400181b040000000000630000006e
:10edb800000000000000000000000000000000004b
:10edc80063000000000000000000000000000000d8
:10edd80000000000630000000000000000000000c8
:10ede8000000000000000000f41b04000001000007
:10edf80001000000010000000000000000100000f9
:10ee0800000000000c1b0400181b04000000000098
:10ee18000004000000000000341b0400181b04005c
:10ee2800000000008000000000000000341b040007
:10ee3800401b040000000000630000000000000008
:10ee48000000000000000000000000006300000057
:10ee580000000000000000000000000000000000aa
:10ee68006300000000000000000000000000000037
:10ee780000000000f4b6002058090000000000005f
:10ee88001c3b022004000000000000007039022032
:10ee9800380000000000000068eb01203c02000080
:10eea80001000000248804000000000002000000a7
:10eeb8000100000000000000001000000000000039
:10eec80028880400348804000000000000040000c2
:10eed800000000004488040034880400000000009a
:10eee800000200000000000050880400348804007c
:10eef8000000000020000000000000002888040036
:10ef08005c88040000000000800000000000000091
:10ef1800448804005c880400000000000001000030
:10ef280000000000508804005c8804000000000015
:10ef380068880400000100000100000001000000d2
:10ef480000000000200000000000000028880400e5
:10ef58006c88040000000000800000000000000031
:10ef6800448804006c8804000000000000010000d0
:10ef780000000000508804006c88040000000000b5
:10ef88006300000000000000000000000000000016
:10ef98000000000063000000000000000000000006
:10efa80000000000000000006300000000000000f6
:10efb80000000000000000000000000008890400b4
:10efc8000001000001000000010000000000000036
:10efd8002000000000000000288804005c8804006d
:10efe80000000000800000000000000050880400bd
:10eff8005c8804000000000000040000000000001d
:10f0080050880400348804000000000063000000f9
:10f0180000000000000000000000000000000000e8
:10f028006300000000000000000000000000000075
:10f038000000000063000000000000000000000065
:10f04800000000000000000010890400000100001a
:10f058000100000001000000000000000010000096
:10f068000000000028880400348804000000000024
:10f0780000040000000000005088040034880400e8
:10f08800000000008000000000000000508804001c
:10f098005c8804000000000063000000000000001d
:10f0a80000000000000000000000000063000000f5
:10f0b8000000000000000000000000000000000048
:10f0c80063000000000000000000000000000000d5
:10f0d800000000001f1c1f1e1f1e1f1f1e1f1e1fbb
:10f0e8009c26012040070000000000008401022047
:10f0f8003002000001000000d813050000000000e5
:10f1080002000000010000000000000000100000e4
:10f1180000000000dc130500e813050000000000f3
:10f128000004000000000000f8130500e8130500c3
:10f1380000000000000200000000000004140500a8
:10f14800e813050000000000200000000000000097
:10f15800dc1305001014050000000000800000000a
:10f1680000000000f813050010140500000000005e
:10f178000001000000000000041405001014050040
:10f18800000000001c140500000100000100000040
:10f198000100000000000000200000000000000046
:10f1a800dc130500201405000000000080000000aa
:10f1b80000000000f81305002014050000000000fe
:10f1c80000010000000000000414050020140500e0
:10f1d80000000000630000000000000000000000c4
:10f1e80000000000000000006300000000000000b4
:10f1f80000000000000000000000000063000000a4
:10f2080000000000000000000000000000000000f6
:10f21800bc1405000001000001000000010000000e
:10f22800000000002000000000000000dc130500c2
:10f23800101405000000000080000000000000001d
:10f24800041405001014050000000000000400006c
:10f258000000000004140500e81305000000000089
:10f268006300000000000000000000000000000033
:10f278000000000063000000000000000000000023
:10f288000000000000000000630000000000000013
:10f29800000000000000000000000000c414050089
:10f2a8000001000001000000010000000000000053
:10f2b8000010000000000000dc130500e813050042
:10f2c8000000000000040000000000000414050015
:10f2d800e8130500000000008000000000000000a6
:10f2e800041405001014050000000000630000006d
:10f2f8000000000000000000000000000000000006
:10f308006300000000000000000000000000000092
:10f318000000000063000000000000000000000082
:10f328000000000000000000041801204c07000045
:10f3380000000000b40302203002000001000000b9
:10f34800e0c104000000000002000000010000000d
:10f35800000000000010000000000000e4c10400ec
:10f36800f0c10400000000000004000000000000dc
:10f3780000c20400f0c10400000000000002000008
:10f38800000000000cc20400f0c1040000000000ee
:10f398002000000000000000e4c1040018c20400be
:10f3a80000000000800000000000000000c204000f
:10f3b80018c2040000000000000100000000000066
:10f3c8000cc2040018c204000000000024c204009b
:10f3d8000001000001000000010000000000000022
:10f3e8002000000000000000e4c1040028c204005e
:10f3f80000000000800000000000000000c20400bf
:10f4080028c2040000000000000100000000000005
:10f418000cc2040028c204000000000063000000c1
:10f4280000000000000000000000000000000000d4
:10f438006300000000000000000000000000000061
:10f448000000000063000000000000000000000051
:10f458000000000000000000c4c204000001000019
:10f468000100000001000000000000002000000072
:10f4780000000000e4c1040018c2040000000000fd
:10f4880080000000000000000cc2040018c2040044
:10f498000000000000040000000000000cc204008e
:10f4a800f0c104000000000063000000000000003c
:10f4b80000000000000000000000000063000000e1
:10f4c8000000000000000000000000000000000034
:10f4d80063000000000000000000000000000000c1
:10f4e80000000000ccc20400000100000100000080
:10f4f80001000000000000000010000000000000f3
:10f50800e4c10400f0c10400000000000004000091
:10f51800000000000cc20400f0c10400000000005c
:10f5280080000000000000000cc2040018c20400a3
:10f538000000000063000000000000000000000060
:10f548000000000000000000630000000000000050
:10f558000000000000000000000000006300000040
:10f568000000000000000000000000000000000093
:10f57800504301201807000000000000e4050220a5
:10f58800300200000100000068b104000000000023
:10f598000200000001000000000000000010000050
:10f5a800000000006cb1040078b104000000000005
:10f5b800000400000000000088b1040078b10400d5
:10f5c80000000000000200000000000094b10400e8
:10f5d80078b10400000000002000000000000000d6
:10f5e8006cb10400a0b1040000000000800000001d
:10f5f8000000000088b10400a0b104000000000071
:10f60800000100000000000094b10400a0b1040053
:10f6180000000000acb1040000010000010000007f
:10f6280001000000000000002000000000000000b1
:10f638006cb10400b0b104000000000080000000bc
:10f648000000000088b10400b0b104000000000010
:10f65800000100000000000094b10400b0b10400f3
:10f66800000000006300000000000000000000002f
:10f67800000000000000000063000000000000001f
:10f68800000000000000000000000000630000000f
:10f698000000000000000000000000000000000062
:10f6a8004cb204000001000001000000010000004d
:10f6b8000000000020000000000000006cb1040001
:10f6c800a0b104000000000080000000000000005d
:10f6d80094b10400a0b10400000000000004000080
:10f6e8000000000094b1040078b10400000000009c
:10f6f800630000000000000000000000000000009f
:10f70800000000006300000000000000000000008e
:10f71800000000000000000063000000000000007e
:10f7280000000000000000000000000054b20400c7
:10f7380000010000010000000100000000000000be
:10f7480000100000000000006cb1040078b1040053
:10f7580000000000000400000000000094b1040054
:10f7680078b10400000000008000000000000000e4
:10f7780094b10400a0b10400000000006300000080
:10f788000000000000000000000000000000000071
:10f7980063000000000000000000000000000000fe
:10f7a80000000000630000000000000000000000ee
:10f7b800000000000000000070b30120e006000017
:10f7c80000000000f03a02200800000000000000dd
:10f7d800f1b6002003000000010000000101010053
:10f7e800883a022019000000000000008837022033
:10f7f800010100000000000058f40120340200005c
:10f8080001000000a4b9040000000000020000008c
:10f8180001000000000000000010000000000000cf
:10f82800a8b90400b4b904000000000000040000f6
:10f8380000000000c4b90400b4b9040000000000ce
:10f848000002000000000000d0b90400b4b90400b0
:10f85800000000002000000000000000a8b904001b
:10f86800dcb9040000000000800000000000000077
:10f87800c4b90400dcb90400000000000001000065
:10f8880000000000d0b90400dcb90400000000004a
:10f89800e8b90400000100000100000001000000b8
:10f8a800000000002000000000000000a8b90400cb
:10f8b800ecb9040000000000800000000000000017
:10f8c800c4b90400ecb90400000000000001000005
:10f8d80000000000d0b90400ecb9040000000000ea
:10f8e80063000000000000000000000000000000ad
:10f8f800000000006300000000000000000000009d
:10f90800000000000000000063000000000000008c
:10f9180000000000000000000000000088ba040099
:10f9280000010000010000000100000000000000cc
:10f938002000000000000000a8b90400dcb90400a1
:10f94800000000008000000000000000d0b90400a2
:10f95800dcb9040000000000000400000000000002
:10f96800d0b90400b4b9040000000000630000002e
:10f97800000000000000000000000000000000007f
:10f98800630000000000000000000000000000000c
:10f9980000000000630000000000000000000000fc
:10f9a800000000000000000090ba04000001000000
:10f9b800010000000100000000000000001000002d
:10f9c80000000000a8b90400b4b904000000000059
:10f9d8000004000000000000d0b90400b4b904001d
:10f9e800000000008000000000000000d0b9040002
:10f9f800dcb9040000000000630000000000000003
:10fa0800000000000000000000000000630000008b
:10fa180000000000000000000000000000000000de
:10fa2800630000000000000000000000000000006b
:10fa380000000000c3000000d07b01200007000088
:10fa48000000000060e20120410200000100000007
:10fa5800183d040000000000020000000100000042
:10fa68000000000000100000000000001c3d040021
:10fa7800283d040000000000000400000000000011
:10fa8800383d0400283d040000000000000200008a
:10fa980000000000443d0400283d04000000000070
:10faa80020000000000000001c3d0400503d040040
:10fab800000000008000000000000000383d040045
:10fac800503d04000000000000010000000000009c
:10fad800443d0400503d0400000000005c3d04006b
:10fae800000100000100000001000000000000000b
:10faf80020000000000000001c3d0400603d0400e0
:10fb0800000000008000000000000000383d0400f4
:10fb1800603d04000000000000010000000000003b
:10fb2800443d0400603d0400000000006300000044
:10fb380000000000000000000000000000000000bd
:10fb4800630000000000000000000000000000004a
:10fb5800000000006300000000000000000000003a
:10fb68000000000000000000fc3d0400000100004f
:10fb7800010000000100000000000000200000005b
:10fb8800000000001c3d0400503d0400000000007f
:10fb98008000000000000000443d0400503d0400c7
:10fba800000000000004000000000000443d0400c4
:10fbb800283d040000000000630000000000000071
:10fbc80000000000000000000000000063000000ca
:10fbd800000000000000000000000000000000001d
:10fbe80063000000000000000000000000000000aa
:10fbf80000000000043e04000001000001000000b5
:10fc080001000000000000000010000000000000db
:10fc18001c3d0400283d0400000000000004000012
:10fc280000000000443d0400283d040000000000de
:10fc38008000000000000000443d0400503d040026
:10fc48000000000063000000000000000000000049
:10fc58000000000000000000630000000000000039
:10fc68000000000000000000000000006300000029
:10fc7800000000000000000000000000000000007c
:10fc880001000000090000001e0000002c01000017
:10fc98000100000088fa00207d0700000000000035
:10fca8001408022030020000010000008c45040006
:10fcb8000000000002000000010000000000000039
:10fcc8000010000000000000904504009c4504005e
:10fcd800000000000004000000000000ac45040023
:10fce8009c45040000000000000200000000000025
:10fcf800b84504009c4504000000000020000000f6
:10fd08000000000090450400c44504000000000005
:10fd18008000000000000000ac450400c445040059
:10fd2800000000000001000000000000b8450400c9
:10fd3800c445040000000000d04504000001000094
:10fd48000100000001000000000000002000000089
:10fd58000000000090450400d445040000000000a5
:10fd68008000000000000000ac450400d4450400f9
:10fd7800000000000001000000000000b845040079
:10fd8800d4450400000000006300000000000000eb
:10fd980000000000000000000000000063000000f8
:10fda800000000000000000000000000000000004b
:10fdb80063000000000000000000000000000000d8
:10fdc800000000007046040000010000010000006f
:10fdd80001000000000000002000000000000000fa
:10fde80090450400c44504000000000080000000a5
:10fdf80000000000b8450400c445040000000000ed
:10fe08000004000000000000b84504009c45040000
:10fe18000000000063000000000000000000000077
:10fe28000000000000000000630000000000000067
:10fe38000000000000000000000000006300000057
:10fe480000000000000000000000000000000000aa
:10fe580078460400000100000100000001000000d5
:10fe680000000000001000000000000090450400a1
:10fe78009c45040000000000000400000000000091
:10fe8800b84504009c450400000000008000000004
:10fe980000000000b8450400c4450400000000004c
:10fea80063000000000000000000000000000000e7
:10feb80000000000630000000000000000000000d7
:10fec80000000000000000006300000000000000c7
:10fed80000000000000000000000000008020120ef
:10fee8005807000000000000440a02203002000009
:10fef8000100000054fb04000000000002000000a4
:10ff080001000000000000000010000000000000d8
:10ff180058fb040064fb040000000000000400001b
:10ff28000000000074fb040064fb040000000000f3
:10ff3800000200000000000080fb040064fb0400d5
:10ff480000000000200000000000000058fb040032
:10ff58008cfb04000000000080000000000000008e
:10ff680074fb04008cfb040000000000000100008a
:10ff78000000000080fb04008cfb0400000000006f
:10ff880098fb0400000100000100000001000000cf
:10ff980000000000200000000000000058fb0400e2
:10ffa8009cfb04000000000080000000000000002e
:10ffb80074fb04009cfb040000000000000100002a
:10ffc8000000000080fb04009cfb0400000000000f
:10ffd80063000000000000000000000000000000b6
:10ffe80000000000630000000000000000000000a6
:10fff8000000000000000000630000000000000096
:020000040001f9
:1000080000000000000000000000000038fc0400b0
:1000180000010000010000000100000000000000d5
:10002800200000000000000058fb04008cfb0400c6
:1000380000000000800000000000000080fb0400b9
:100048008cfb040000000000000400000000000019
:1000580080fb040064fb0400000000006300000053
:100068000000000000000000000000000000000088
:100078006300000000000000000000000000000015
:100088000000000063000000000000000000000005
:10009800000000000000000040fc04000001000017
:1000a8000100000001000000000000000010000036
:1000b8000000000058fb040064fb0400000000007e
:1000c800000400000000000080fb040064fb040042
:1000d80000000000800000000000000080fb040019
:1000e8008cfb04000000000063000000000000001a
:1000f8000000000000000000000000006300000095
:1001080000000000000000000000000000000000e7
:100118006300000000000000000000000000000074
:1001280000000000d0820120f80600000000000056
:100138001cf201203902000001000000d800040070
:1001480000000000020000000100000000000000a4
:100158000010000000000000dc000400e8000400bb
:10016800000000000004000000000000f800040087
:10017800e800040000000000000200000000000089
:1001880004010400e8000400000000002000000052
:1001980000000000dc000400100104000000000062
:1001a8008000000000000000f800040010010400b6
:1001b800000000000001000000000000040104002d
:1001c80010010400000000001c01040000010000f0
:1001d80001000000010000000000000020000000f5
:1001e80000000000dc000400200104000000000002
:1001f8008000000000000000f80004002001040056
:1002080000000000000100000000000004010400dc
:10021800200104000000000063000000000000004e
:100228000000000000000000000000006300000063
:1002380000000000000000000000000000000000b6
:100248006300000000000000000000000000000043
:1002580000000000bc0104000001000001000000d3
:100268000100000000000000200000000000000065
:10027800dc00040010010400000000008000000001
:100288000000000004010400100104000000000048
:10029800000400000000000004010400e80004005d
:1002a80000000000630000000000000000000000e3
:1002b80000000000000000006300000000000000d3
:1002c80000000000000000000000000063000000c3
:1002d8000000000000000000000000000000000016
:1002e800c40104000001000001000000010000003a
:1002f800000000000010000000000000dc00040006
:10030800e8000400000000000004000000000000f5
:1003180004010400e8000400000000008000000060
:1003280000000000040104001001040000000000a7
:100338006300000000000000000000000000000052
:100348000000000063000000000000000000000042
:100358000000000000000000630000000000000032
:100368000000000000000000000000000200000083
:100378000500000003000000dcda0020740800001b
:1003880000000000740c0220300200000100000090
:100398006890040000000000020000000100000056
:1003a8000000000000100000000000006c90040035
:1003b8007890040000000000000400000000000025
:1003c80088900400789004000000000000020000fb
:1003d80000000000949004007890040000000000e1
:1003e80020000000000000006c900400a0900400b1
:1003f8000000000080000000000000008890040059
:10040800a0900400000000000001000000000000af
:1004180094900400a090040000000000ac90040038
:1004280000010000010000000100000000000000c1
:1004380020000000000000006c900400b090040050
:100448000000000080000000000000008890040008
:10045800b09004000000000000010000000000004f
:1004680094900400b09004000000000063000000b5
:100478000000000000000000000000000000000074
:100488006300000000000000000000000000000001
:1004980000000000630000000000000000000000f1
:1004a80000000000000000004c9104000001000062
:1004b8000100000001000000000000002000000012
:1004c800000000006c900400a090040000000000f0
:1004d800800000000000000094900400a090040038
:1004e80000000000000400000000000094900400d8
:1004f8007890040000000000630000000000000085
:100508000000000000000000000000006300000080
:1005180000000000000000000000000000000000d3
:100528006300000000000000000000000000000060
:1005380000000000549104000001000001000000c8
:100548000100000000000000001000000000000092
:100558006c90040078900400000000000004000083
:10056800000000009490040078900400000000004f
:10057800800000000000000094900400a090040097
:100588000000000063000000000000000000000000
:1005980000000000000000006300000000000000f0
:1005a80000000000000000000000000063000000e0
:1005b8000000000000000000000000000000000033
:1005c800e4f20020a407000000000000a40e0220ae
:1005d8003002000001000000acee03000000000043
:1005e80002000000010000000000000000100000f0
:1005f80000000000b0ee0300bcee030000000000a5
:100608000004000000000000ccee0300bcee030074
:10061800000000000002000000000000d8ee030007
:10062800bcee0300000000002000000000000000f5
:10063800b0ee0300e4ee03000000000080000000bc
:1006480000000000ccee0300e4ee03000000000010
:100658000001000000000000d8ee0300e4ee0300f3
:1006680000000000f0ee030000010000010000009f
:100678000100000000000000200000000000000051
:10068800b0ee0300f4ee030000000000800000005c
:1006980000000000ccee0300f4ee030000000000b0
:1006a8000001000000000000d8ee0300f4ee030093
:1006b80000000000630000000000000000000000cf
:1006c80000000000000000006300000000000000bf
:1006d80000000000000000000000000063000000af
:1006e8000000000000000000000000000000000002
:1006f80090ef03000001000001000000010000006d
:10070800000000002000000000000000b0ee030020
:10071800e4ee03000000000080000000000000007c
:10072800d8ee0300e4ee030000000000000400001f
:1007380000000000d8ee0300bcee0300000000003b
:10074800630000000000000000000000000000003e
:10075800000000006300000000000000000000002e
:10076800000000000000000063000000000000001e
:1007780000000000000000000000000098ef0300e7
:10078800000100000100000001000000000000005e
:100798000010000000000000b0ee0300bcee0300f3
:1007a800000000000004000000000000d8ee030074
:1007b800bcee030000000000800000000000000004
:1007c800d8ee0300e4ee0300000000006300000020
:1007d8000000000000000000000000000000000011
:1007e800630000000000000000000000000000009e
:1007f800000000006300000000000000000000008e
:10080800000000000000000094c90020ca08000091
:1008180000000000d4100220300200000100000097
:1008280098770400000000000200000001000000aa
:100838000000000000100000000000009c77040089
:10084800a877040000000000000400000000000079
:10085800b8770400a8770400000000000002000038
:1008680000000000c4770400a8770400000000001e
:1008780020000000000000009c770400d0770400ee
:10088800000000008000000000000000b8770400ad
:10089800d077040000000000000100000000000004
:1008a800c4770400d077040000000000dc7704005f
:1008b800000100000100000001000000000000002d
:1008c80020000000000000009c770400e07704008e
:1008d800000000008000000000000000b87704005d
:1008e800e0770400000000000001000000000000a4
:1008f800c4770400e07704000000000063000000f3
:1009080000000000000000000000000000000000df
:10091800630000000000000000000000000000006c
:10092800000000006300000000000000000000005c
:1009380000000000000000007c78040000010000b6
:10094800010000000100000000000000200000007d
:10095800000000009c770400d0770400000000002d
:100968008000000000000000c4770400d077040075
:10097800000000000004000000000000c47704002c
:10098800a8770400000000006300000000000000d9
:1009980000000000000000000000000063000000ec
:1009a800000000000000000000000000000000003f
:1009b80063000000000000000000000000000000cc
:1009c800000000008478040000010000010000001d
:1009d80001000000000000000010000000000000fe
:1009e8009c770400a87704000000000000040000c1
:1009f80000000000c4770400a8770400000000008d
:100a08008000000000000000c4770400d0770400d4
:100a1800000000006300000000000000000000006b
:100a2800000000000000000063000000000000005b
:100a3800000000000000000000000000630000004b
:100a4800000000000000000000000000000000009e
:100a58008cac0120e406000000000000c0f8012072
:100a68003202000001000000a03404000000000071
:100a7800020000000100000000000000001000005b
:100a880000000000a4340400b0340400000000009a
:100a98000004000000000000c0340400b03404006a
:100aa800000000000002000000000000cc34040038
:100ab800b034040000000000200000000000000026
:100ac800a4340400d83404000000000080000000b2
:100ad80000000000c0340400d83404000000000006
:100ae8000001000000000000cc340400d8340400e9
:100af80000000000e43404000001000001000000d0
:100b080001000000000000002000000000000000bc
:100b1800a4340400e8340400000000008000000051
:100b280000000000c0340400e834040000000000a5
:100b38000001000000000000cc340400e834040088
:100b4800000000006300000000000000000000003a
:100b5800000000000000000063000000000000002a
:100b6800000000000000000000000000630000001a
:100b7800000000000000000000000000000000006d
:100b8800843504000001000001000000010000009d
:100b9800000000002000000000000000a434040051
:100ba800d8340400000000008000000000000000ad
:100bb800cc340400d8340400000000000004000015
:100bc80000000000cc340400b03404000000000031
:100bd80063000000000000000000000000000000aa
:100be800000000006300000000000000000000009a
:100bf800000000000000000063000000000000008a
:100c08000000000000000000000000008c35040017
:100c180000010000010000000100000000000000c9
:100c28000010000000000000a4340400b0340400e8
:100c3800000000000004000000000000cc340400a4
:100c4800b034040000000000800000000000000034
:100c5800cc340400d8340400000000006300000015
:100c6800000000000000000000000000000000007c
:100c78006300000000000000000000000000000009
:100c880000000000630000000000000000000000f9
:100c980000000000000000000101000060d20020f8
:100ca8007c0800000000000004130220300200004d
:100cb800010000008403050000000000020000009d
:100cc800010000000000000000100000000000000b
:100cd80088030500940305000000000000040000dc
:100ce80000000000a40305009403050000000000b4
:100cf8000002000000000000b00305009403050096
:100d0800000000002000000000000000880305002b
:100d1800bc03050000000000800000000000000087
:100d2800a4030500bc03050000000000000100004a
:100d380000000000b0030500bc030500000000002f
:100d4800c8030500000100000100000001000000c8
:100d580000000000200000000000000088030500db
:100d6800cc03050000000000800000000000000027
:100d7800a4030500cc0305000000000000010000ea
:100d880000000000b0030500cc03050000000000cf
:100d980063000000000000000000000000000000e8
:100da80000000000630000000000000000000000d8
:100db80000000000000000006300000000000000c8
:100dc80000000000000000000000000068040500aa
:100dd8000001000001000000010000000000000008
:100de800200000000000000088030500bc03050087
:100df800000000008000000000000000b0030500b3
:100e0800bc03050000000000000400000000000012
:100e1800b003050094030500000000006300000013
:100e280000000000000000000000000000000000ba
:100e38006300000000000000000000000000000047
:100e48000000000063000000000000000000000037
:100e58000000000000000000700405000001000010
:100e68000100000001000000000000000010000068
:100e7800000000008803050094030500000000003e
:100e88000004000000000000b00305009403050002
:100e9800000000008000000000000000b003050012
:100ea800bc03050000000000630000000000000013
:100eb80000000000000000000000000063000000c7
:100ec800000000000000000000000000000000001a
:100ed80063000000000000000000000000000000a7
:100ee80000000000c874012008070000000000008e
:100ef800341502203002000001000000a898040008
:100f080000000000020000000100000000000000d6
:100f18000010000000000000ac980400b89804001d
:100f2800000000000004000000000000c898040051
:100f3800b898040000000000000200000000000053
:100f4800d4980400b89804000000000020000000b5
:100f580000000000ac980400e098040000000000c5
:100f68008000000000000000c8980400e098040019
:100f7800000000000001000000000000d4980400f8
:100f8800e098040000000000ec9804000001000054
:100f98000100000001000000000000002000000027
:100fa80000000000ac980400f09804000000000065
:100fb8008000000000000000c8980400f0980400b9
:100fc800000000000001000000000000d4980400a8
:100fd800f09804000000000063000000000000001a
:100fe8000000000000000000000000006300000096
:100ff80000000000000000000000000000000000e9
:101008006300000000000000000000000000000075
:10101800000000008c99040000010000010000009d
:101028000100000000000000200000000000000097
:10103800ac980400e0980400000000008000000064
:1010480000000000d4980400e098040000000000ac
:101058000004000000000000d4980400b8980400c0
:101068000000000063000000000000000000000015
:101078000000000000000000630000000000000005
:1010880000000000000000000000000063000000f5
:101098000000000000000000000000000000000048
:1010a8009499040000010000010000000100000004
:1010b800000000000010000000000000ac980400d0
:1010c800b8980400000000000004000000000000c0
:1010d800d4980400b89804000000000080000000c4
:1010e80000000000d4980400e0980400000000000c
:1010f8006300000000000000000000000000000085
:101108000000000063000000000000000000000074
:101118000000000000000000630000000000000064
:101128000000000000000000000000002c3c01202e
:1011380024070000000000006417022030020000ad
:101148000100000018dc030000000000020000009d
:101158000100000000000000001000000000000076
:101168001cdc030028dc0300000000000004000071
:101178000000000038dc030028dc03000000000049
:10118800000200000000000044dc030028dc03002b
:101198000000000020000000000000001cdc03002c
:1011a80050dc030000000000800000000000000088
:1011b80038dc030050dc03000000000000010000e0
:1011c8000000000044dc030050dc030000000000c5
:1011d8005cdc0300000100000100000001000000c9
:1011e8000000000020000000000000001cdc0300dc
:1011f80060dc030000000000800000000000000028
:1012080038dc030060dc030000000000000100007f
:101218000000000044dc030060dc03000000000064
:101228006300000000000000000000000000000053
:101238000000000063000000000000000000000043
:101248000000000000000000630000000000000033
:10125800000000000000000000000000fcdc0300ab
:101268000001000001000000010000000000000073
:1012780020000000000000001cdc030050dc03001c
:1012880000000000800000000000000044dc0300b3
:1012980050dc030000000000000400000000000013
:1012a80044dc030028dc03000000000063000000a9
:1012b8000000000000000000000000000000000026
:1012c80063000000000000000000000000000000b3
:1012d80000000000630000000000000000000000a3
:1012e800000000000000000004dd03000001000011
:1012f80001000000010000000000000000100000d4
:10130800000000001cdc030028dc030000000000d3
:10131800000400000000000044dc030028dc030097
:1013280000000000800000000000000044dc030012
:1013380050dc030000000000630000000000000013
:101348000000000000000000000000006300000032
:101358000000000000000000000000000000000085
:101368006300000000000000000000000000000012
:1013780000000000b0ab0020410b0000000000009e
:1013880094190220300200000100000088da0400ed
:101398000000000002000000010000000000000042
:1013a80000100000000000008cda040098da040045
:1013b800000000000004000000000000a8da04009b
:1013c80098da04000000000000020000000000009d
:1013d800b4da040098da04000000000020000000dd
:1013e800000000008cda0400c0da040000000000ed
:1013f8008000000000000000a8da0400c0da040041
:10140800000000000001000000000000b4da040041
:10141800c0da040000000000ccda0400000100007b
:101428000100000001000000000000002000000092
:10143800000000008cda0400d0da0400000000008c
:101448008000000000000000a8da0400d0da0400e0
:10145800000000000001000000000000b4da0400f1
:10146800d0da040000000000630000000000000063
:101478000000000000000000000000006300000001
:101488000000000000000000000000000000000054
:1014980063000000000000000000000000000000e1
:1014a800000000006cdb04000001000001000000e7
:1014b8000100000000000000200000000000000003
:1014c8008cda0400c0da040000000000800000008c
:1014d80000000000b4da0400c0da040000000000d4
:1014e8000004000000000000b4da040098da0400e8
:1014f8000000000063000000000000000000000081
:101508000000000000000000630000000000000070
:101518000000000000000000000000006300000060
:1015280000000000000000000000000000000000b3
:1015380074db04000001000001000000010000004d
:101548000000000000100000000000008cda040019
:1015580098da040000000000000400000000000009
:10156800b4da040098da04000000000080000000eb
:1015780000000000b4da0400c0da04000000000033
:1015880063000000000000000000000000000000f0
:1015980000000000630000000000000000000000e0
:1015a80000000000000000006300000000000000d0
:1015b800000000000000000000000000b0660120ec
:1015c8000907000000000000e8e601203e020000d4
:1015d80001000000e8a00400000000000200000074
:1015e80001000000000000000010000000000000e2
:1015f800eca00400f8a004000000000000040000b3
:101608000000000008a10400f8a004000000000089
:10161800000200000000000014a10400f8a004006b
:10162800000000002000000000000000eca0040002
:1016380020a104000000000080000000000000005d
:1016480008a1040020a1040000000000000100001f
:101658000000000014a1040020a104000000000004
:101668002ca104000001000001000000010000009e
:10167800000000002000000000000000eca00400b2
:1016880030a10400000000008000000000000000fd
:1016980008a1040030a104000000000000010000bf
:1016a8000000000014a1040030a1040000000000a4
:1016b80063000000000000000000000000000000bf
:1016c80000000000630000000000000000000000af
:1016d800000000000000000063000000000000009f
:1016e800000000000000000000000000cca1040081
:1016f80000010000010000000100000000000000df
:101708002000000000000000eca0040020a104005c
:1017180000000000800000000000000014a1040088
:1017280020a10400000000000004000000000000e8
:1017380014a10400f8a004000000000063000000e9
:101748000000000000000000000000000000000091
:10175800630000000000000000000000000000001e
:10176800000000006300000000000000000000000e
:101778000000000000000000d4a1040000010000e7
:10178800010000000100000000000000001000003f
:1017980000000000eca00400f8a004000000000015
:1017a800000400000000000014a10400f8a00400d8
:1017b80000000000800000000000000014a10400e8
:1017c80020a10400000000006300000000000000e9
:1017d800000000000000000000000000630000009e
:1017e80000000000000000000000000000000000f1
:1017f800630000000000000000000000000000007e
:1018080000000000284e4f575452290028575452c0
:1018180029000000600901205107000000000000b5
:10182800c41b0220300200000100000018ca040096
:10183800000000000200000001000000000000009d
:1018480000100000000000001cca040028ca0400a0
:1018580000000000000400000000000038ca040076
:1018680028ca040000000000000200000000000078
:1018780044ca040028ca0400000000002000000038
:10188800000000001cca040050ca04000000000048
:10189800800000000000000038ca040050ca04009c
:1018a80000000000000100000000000044ca04001d
:1018b80050ca0400000000005cca040000010000d7
:1018c80001000000010000000000000020000000ee
:1018d800000000001cca040060ca040000000000e8
:1018e800800000000000000038ca040060ca04003c
:1018f80000000000000100000000000044ca0400cd
:1019080060ca04000000000063000000000000003e
:10191800000000000000000000000000630000005c
:1019280000000000000000000000000000000000af
:10193800630000000000000000000000000000003c
:1019480000000000fcca04000001000001000000c3
:10195800010000000000000020000000000000005e
:101968001cca040050ca04000000000080000000e7
:101978000000000044ca040050ca0400000000002f
:10198800000400000000000044ca040028ca040043
:1019980000000000630000000000000000000000dc
:1019a80000000000000000006300000000000000cc
:1019b80000000000000000000000000063000000bc
:1019c800000000000000000000000000000000000f
:1019d80004cb040000010000010000000100000029
:1019e8000000000000100000000000001cca0400f5
:1019f80028ca0400000000000004000000000000e5
:101a080044ca040028ca0400000000008000000046
:101a18000000000044ca040050ca0400000000008e
:101a2800630000000000000000000000000000004b
:101a3800000000006300000000000000000000003b
:101a4800000000000000000063000000000000002b
:101a58000000000000000000000000009058012075
:101a68001107000000000000f41d022030020000f1
:101a780001000000f81b0500000000000200000043
:101a8800010000000000000000100000000000003d
:101a9800fc1b0500081c05000000000000040000f5
:101aa80000000000181c0500081c050000000000cc
