:020000040000fa
:10c00000f8ff032021bc06008f88060037db0600fe
:10c010008f88060031db06008f88060000000000d4
:10c020000000000000000000000000002d350600a8
:10c030008f880600000000009937060007380600c8
:10c040008f8806008f8806008f8806008f8806007c
:10c050008f8806008f8806008f8806008f8806006c
:10c060008f8806008f8806008f88060049bf03006e
:10c070008f8806008f8806008f8806008f8806004c
:10c080008f8806008f8806008f8806008f8806003c
:10c090008f8806008f8806008f8806008f8806002c
:10c0a0008f8806008f8806008f8806008f8806001c
:10c0b0008f8806008f8806008f8806008f8806000c
:10c0c0008f8806008f8806008f8806008f880600fc
:10c0d0008f8806008f8806008f8806008f880600ec
:10c0e0008f8806008f880600000000000000000016
:10c0f00000000000797d06008f8806008f8806000a
:10c100008f8806008f8806008f8806008f880600bb
:10c110008f8806008f880600957b0100ad7b0100ab
:10c12000c57b01008f8806008f8806008f88060077
:10c130008f8806008f8806008f8806008f8806008b
:10c140008f8806008f880600f57b01000d7c0100ba
:10c15000257c01008f8806008f8806008f880600e6
:10c160008f8806008f8806008f8806008f8806005b
:10c170008f8806008f8806008f8806008f8806004b
:10c180008f8806008f8806008f8806008f8806003b
:10c190008f8806008f8806008f8806008f8806002b
:10c1a0008f8806008f8806008f8806008f8806001b
:10c1b0008f8806008f8806008f8806008f8806000b
:10c1c0008f8806008f8806008f8806008f880600fb
:10c1d0008f8806008f8806008f8806008f880600eb
:10c1e0008f8806008f8806008f8806008f880600db
:10c1f0008f8806008f8806008f8806008f880600cb
:10c200008f8806008f8806008f8806008f880600ba
:10c210008f8806008f8806008f8806003d860600fe
:10c220008f8806008f8806008f8806008f8806009a
:10c230008f8806008f8806008f8806008f8806008a
:10c240008f8806008f8806008f8806008f8806007a
:10c250008f8806008f8806008f8806008f8806006a
:04c260008f880600bd
:020000040000fa
:10c2640003970181b0b00884000000000d9701819c
:10c27400b0b00b840000000009970181b0b00b84ba
:10c284000000000003970181b0b0088400000000a2
:10c2940003970181b0b00884000000000197018178
:10c2a400b0b008840000000001970181b0b0088498
:10c2b4000000000001970181b0b008840000000074
:10c2c40001970181b0b00884000000000397018148
:10c2d400b0b008840000000003970181b0b0088466
:10c2e4000000000003970181b0b008840000000042
:10c2f40001970181b0b0088400000000019701811a
:10c30400b0b008840000000005970181b0b0088433
:10c314000000000001970181b0b008840000000013
:10c3240002970181b0b009840000000001970181e7
:10c33400b0b008840000000001970181b0b0088407
:10c344000000000003970181b0b0088400000000e1
:10c3540001970181b0b008840000000001970181b9
:10c36400b0b008840000000001970181b0b00884d7
:10c374000000000001970181b0b0088400000000b3
:10c3840003970181b0b00884000000000397018185
:10c39400b0b008840000000003970181b0b00884a5
:10c3a4000000000003970181b0b008840000000081
:10c3b40004970181b0b00984000000000597018151
:10c3c400b0b008840000000005970181b0b0088473
:10c3d4000000000001970181b0b008840000000053
:10c3e40001970181b0b00884000000000397018127
:10c3f400b0b008840000000003970181b0b0088445
:10c404000000000001970181b0b008840000000022
:10c4140001970181b0b008840000000005970181f4
:10c42400b0b008840000000003970181b0b0088414
:10c434000000000003970181b0b0088400000000f0
:10c4440003970181b0b008840000000003970181c4
:10c45400b0b008840000000001970181b0b00884e6
:10c464000000000001970181b0b0088400000000c2
:10c4740003970181b0b00884000000000197018196
:10c48400b0b008840000000001970181b0b00884b6
:10c494000000000003970181b0b008840000000090
:10c4a40001970181b0b00884000000000397018166
:10c4b400b0b008840000000003970181b0b0088484
:10c4c4000000000003970181b0b008840000000060
:10c4d40009970181b0b0088400000000039701812e
:10c4e400b0b008840000000001970181b0b0088456
:10c4f4000000000003970181b0b008840000000030
:10c504000b970181b0b008840000000005970181f9
:10c51400b0b008840000000001970181b0b0088425
:10c524000000000004970181b0b0098400000000fd
:10c5340004970181b0b009840000000001970181d3
:10c54400b0b008840000000002970181b0b00984f3
:10c554000000000001970181b0b0088400000000d1
:10c5640001970181b0b008840000000005970181a3
:10c57400b0b008840000000001970181b0b00884c5
:10c584000000000003970181b0b00884000000009f
:10c5940001970181b0030884000000000197018124
:10c5a400b0b008840000000007970181b0b008848f
:10c5b4000000000001970181b0b008840000000071
:10c5c40001970181b0b00884000000000597018143
:10c5d400b0b008840000000005970181b0b0088461
:10c5e4000000000001970181b0b008840000000041
:10c5f40001970181b0b00884000000000397018115
:10c60400b0b008840000000003970181b0b0088432
:10c614000000000003970181b0b00884000000000e
:10c6240007970181b0b008840000000007970181da
:10c63400b0b008840000000006970181b0b00984fe
:10c644000000000005970181b0b0088400000000dc
:10c6540003970181b0b008840000000001970181b4
:10c66400b0b008840000000001970181b0b00884d4
:10c674000000000005970181b0b0088400000000ac
:10c6840001970181b0b00884000000000597018182
:10c69400b0b008840000000003970181b0b00884a2
:10c6a400000000000d970181b0b008840000000074
:10c6b40009970181b0b00884000000000997018146
:10c6c400b0b008840000000002970181b0b0098472
:10c6d4000000000001970181b0b03b84000000001d
:10c6e40003970181b0b03b840000000003970181ef
:10c6f400b0b008840000000003970181b0b0088442
:10c704000000000003970181b0b00884000000001d
:10c7140003970181b0b008840000000003970181f1
:10c72400b0b008840000000005970181b0b008840f
:10c734000000000003970181b0b0088400000000ed
:10c7440001970181b0b008840000000001970181c5
:10c75400b0b008840000000001970181b0b00884e3
:10c764000000000001970181b0b0088400000000bf
:10c7740001970181b0b00884000000000197018195
:10c78400b0b00b840000000001970181b0b00b84ad
:10c794000000000001970181b0b00b84000000008c
:10c7a40001970181b0b00884000000000597018161
:10c7b400b0b008840000000001970181b0b0088483
:10c7c4000000000009970181b0b008840000000057
:10c7d40001970181b0030b840000000004970181dc
:10c7e400b0030984000000000d970181b0b00884f3
:10c7f4000000000005970181b0b00884000000002b
:10c8040005970181b0b008840000000007970181fa
:10c81400b0b008840000000003970181b0b0088420
:10c824000000000003970181b0b0088400000000fc
:10c8340005970181b0b008840000000009970181c8
:10c84400b0b008840000000005970181b0b00884ee
:10c854000000000005970181b0b0088400000000ca
:10c8640006970181b0b0098400000000019701819e
:10c87400b0b008840000000005970181b0b00884be
:10c884000000000007970181b0b008840000000098
:10c8940007970181b0b00884000000000797018168
:10c8a400b0b008840000000007970181b0b008848c
:10c8b4000000000007970181b0b008840000000068
:10c8c40001970181b0b00884000000000597018140
:10c8d400b0b00b840000000005970181b0b008845b
:10c8e4000000000001970181b0b00884000000003e
:10c8f40001970181b0b00884000000000197018114
:10c90400b0b008840000000003970181b0b008842f
:10c914000000000003970181b0b00884000000000b
:10c9240003970181b0b008840000000001970181e1
:10c93400b0b008840000000001970181b0b0088401
:10c944000000000001970181b0b0088400000000dd
:10c9540003970181b0b00b840000000001970181ae
:10c96400b0b008840000000001970181b0b00884d1
:10c97400000000000d970181b0b0088400000000a1
:10c9840001970181b0b00884000000000197018183
:10c99400b0b008840000000001970181b0b00884a1
:10c9a4000000000005970181b0b008840000000079
:10c9b40005970181b0b0088400000000059701814b
:10c9c400b0b008840000000001970181b0b0088471
:10c9d4000000000004970181b0b009840000000049
:10c9e40001970181b0b00884000000000197018123
:10c9f400b0b008840000000001970181b0b0088441
:10ca04000000000007970181b0b008840000000016
:10ca140003970181b0b008840000000001970181f0
:10ca2400b0b008840000000001970181b0b0088410
:10ca34000000000002970181b0b0098400000000ea
:10ca440008970181b0b009840000000005970181b6
:10ca5400b0b008840000000001970181b0b00b84dd
:10ca64000000000001970181b0b0088400000000bc
:10ca740001970181b0b00884000000000197018192
:10ca8400b0b008840000000001970181b0b00884b0
:10ca94000000000001970181b0b00884000000008c
:10caa40001970181b0b00884000000000197018162
:10cab400b0b008840000000001970181b0b0088480
:10cac4000000000001970181b0b00884000000005c
:10cad40006970181b0b00984000000000597018128
:10cae400b0b008840000000001970181b0b0088450
:10caf4000000000001970181b0b00884000000002c
:10cb040005970181b0b008840000000001970181fd
:10cb1400b0b008840000000001970181b0b008841f
:10cb24000000000005970181b0b0088400000000f7
:10cb340001970181b0b008840000000001970181d1
:10cb4400b0b008840000000001970181b0b00884ef
:10cb54000000000001970181b0b0088400000000cb
:10cb64000b970181b0b00884000000000597018193
:10cb7400b0b008840000000001970181b0b00884bf
:10cb84000000000001970181b0b00884000000009b
:10cb940001970181b0b00884000000000197018171
:10cba400b0b008840000000001970181b0b008848f
:10cbb4000000000008b10181b0b000840000000052
:10cbc40008b10181b0b0008400000000f8b500bfd6
:10cbd400f8bc08bc9e4670472dd9060015c3060054
:10cbe4003578030015270300494e06005d3406001e
:10cbf40029ce050001700200cd92060001830300d6
:10cc0400695b0200ad8d030081540500696d03006a
:10cc140091f105004dfd02001d42060061ee030086
:10cc24006dde02004d9a050099ea0500e113020049
:10cc34003583050009ee020039050600554003005e
:10cc440091dc0500e5c60500099802009de3050096
:10cc5400cd73050041b80500fda10500e997030067
:10cc64009d0b03006da9050011a2030075f80500d2
:10cc740049640500694c0500e98a0500156c050046
:10cc84009d92050001c90300ddb0050069d50500ca
:10cc9400cddb0300f8b500bff8bc08bc9e46704766
:04cca400f1c20600d3
:020000040000fa
:10cca800602c010001000000e82c010034fcff7f2b
:10ccb800b82e010001000000f42e010030fcff7fb7
:10ccc8000830010001000000403001002cfcff7f0b
:10ccd8000c3101000100000040310100010000009a
:10cce8008431010001000000303201000100000021
:10ccf8006c320100010000009832010001000000c0
:10cd0800f832010000fcff7f4834010001000000f8
:10cd1800b8340100fcfbff7f783a010001000000f5
:10cd2800e83a0100f8fbff7f903f0100fcfbff7f22
:10cd3800e83f010000fcff7f5840010001000000af
:10cd4800984601000100000004790100010000007c
:10cd5800247901000100000044790100010000006d
:10cd68007879010001000000a279010001000000ab
:10cd7800287a0100ab1297808c7d010018f9ff7f9b
:10cd8800fa7d01001cf9ff7fb67e010020f9ff7fc4
:10cd9800347f010024f9ff7f1c80010028f9ff7f00
:10cda800048301002cf9ff7f0884010030f9ff7f1c
:10cdb8006087010001000000a88d0100010000004b
:10cdc800b08d010001000000d08d010001000000bd
:10cdd800ea8d0100010000000a8e01000100000038
:10cde8002a8e010001000000468e010001000000ab
:10cdf800668e010001000000828e01000100000023
:10ce0800da8e010001000000308f010001000000ef
:10ce1800828f010001000000be8f010001000000a8
:10ce2800fa8f0100010000001a90010001000000c3
:10ce3800dc900100d4f6ff7f38910100010000006a
:10ce4800c8910100010000003892010001000000b3
:10ce58005e920100010000007092010001000000d4
:10ce68009a920100b0f6ff7fca920100b4f6ff7fe4
:10ce780090930100b8f6ff7f24960100010000009e
:10ce8800c896010001000000f8970100acf6ff7f8a
:10ce9800d2980100b0f6ff7f009b0100010000005e
:10cea800229b0100acf6ff7f389b0100b0f6ff7fa4
:10ceb8005e9b010001000000a29b01000100000030
:10cec80038a101000100000040a10100010000009c
:10ced80060a10100010000007aa10100010000002a
:10cee8009aa1010001000000baa1010001000000a0
:10cef800d6a1010001000000f6a101000100000018
:10cf080012a20100010000006aa201000100000055
:10cf1800c0a201000100000012a3010001000000ee
:10cf280032a3010001000000f4a301000100000089
:10cf380028a40100d0f3ff7f84a4010001000000b1
:10cf4800f4a401000100000006a501000100000092
:10cf580030a50100010000005aa50100b4f3ff7fcd
:10cf68008aa50100b8f3ff7fc0a7010001000000f7
:10cf7800eca701000100000002a801000100000068
:10cf880018a80100010000002ea801009cf3ff7ff3
:10cf980044a80100a0f3ff7f5aa801000100000087
:10cfa80070a80100010000008ca801000100000029
:10cfb800a0a801008cf3ff7f68aa010090f3ff7f0f
:10cfc80092aa010094f3ff7fbcaa010001000000af
:10cfd800d4aa010090f3ff7f72ab010094f3ff7fa6
:10cfe8009cab010098f3ff7fc0ab0100010000007b
:10cff80020ad01000100000080ad0100010000002b
:10d008006cae010084f3ff7f8aae010088f3ff7fd6
:10d01800a8ae01008cf3ff7fc6ae0100010000003e
:10d0280038af01000100000096af010080f3ff7fd8
:10d03800a4b0010001000000ccb001000100000014
:10d0480048b1010074f3ff7f06b20100010000003f
:10d0580054b201000100000068b2010001000000a4
:10d068007cb201000100000090b201000100000044
:10d07800a4b2010001000000c8b2010001000000d4
:10d08800f4b201000100000042b3010001000000f9
:10d0980088b3010001000000acb3010001000000ea
:10d0a800e0b301000100000058b401003cf9ff7f23
:10d0b80054b7010040f9ff7f94b7010044f9ff7f9e
:10d0c80068ba010048f9ff7f50bb01004cf9ff7fa7
:10d0d800b4bb010050f9ff7f20bc01000100000033
:10d0e800fcbc01004cf9ff7f48bf0100ac019780f0
:10d0f80040c001000100000008c701000100000055
:10d10800b8ec010001000000d8ec010001000000ab
:10d11800f2ec01000100000012ed01000100000026
:10d1280032ed0100010000004eed01000100000099
:10d138006eed0100010000008aed01000100000011
:10d14800e2ed01000100000038ee010001000000de
:10d158008aee010001000000c6ee01000100000097
:10d1680002ef01000100000022ef010001000000b1
:10d17800e4ef01000100000018f0010048f2ff7f11
:10d1880074f001000100000004f10100010000003a
:10d1980074f10100010000009af101000100000093
:10d1a800acf1010001000000d6f10100010000000f
:10d1b80000f201001cf2ff7f30f2010001000000c4
:10d1c8003ef2010001000000b2f3010010f2ff7fff
:10d1d800faf3010014f2ff7f5af4010018f2ff7ffe
:10d1e800acf401001cf2ff7fe8f40100010000002c
:10d1f800fcf401000100000010f50100010000002e
:10d2080024f501000100000038f5010001000000cc
:10d218004cf501000100000060f50100010000006c
:10d2280046f60100010000005af60100e0f1ff7f18
:10d2380072f60100e4f1ff7fa2f60100e8f1ff7f3a
:10d2480034f70100ecf1ff7f6af70100f0f1ff7f8e
:10d2580038fa0100f4f1ff7f68fa0100f8f1ff7f66
:10d268007afa0100fcf1ff7f8cfa010000f2ff7fdf
:10d27800cafa01000100000016fb0100fcf1ff7f63
:10d288003afb010000f2ff7f5efb010004f2ff7f22
:10d29800a8fb0100ecf5ff7f20fd0100f0f5ff7f02
:10d2a80040ff0100f4f5ff7fc8000200f8f5ff7f9a
:10d2b800ec020200fcf5ff7f1c05020000f6ff7f70
:10d2c80090050200010000009c0b02000100000014
:10d2d800a40b02006cf6ff7fcc0c020070f6ff7ff7
:10d2e800700e020001000000b80e02006cf6ff7f0d
:10d2f800dc0f020070f6ff7fe4120200010000005c
:10d30800181302006cf6ff7fe814020070f6ff7f26
:10d318005015020001000000e81a02000100000098
:10d32800f01a0200010000004c1b0200010000007e
:10d33800b61b0200010000002a1c020001000000c8
:10d34800761c020088f4ff7fb41c02008cf4ff7f77
:10d35800f21e020001000000fe1e020088f4ff7f9a
:10d36800402302008cf4ff7fda23020090f4ff7f51
:10d3780030240200010000006c2402008cf4ff7fbe
:10d388002425020090f4ff7f4825020094f4ff7fd3
:10d398008425020098f4ff7fdc2502009cf4ff7fbf
:10d3a800cc270200a0f4ff7f24280200a4f4ff7f0a
:10d3b8007c280200a8f4ff7f2e290200010000004b
:10d3c8004e290200010000007c2902000100000033
:10d3d8008429020001000000a429020001000000c5
:10d3e800c429020001000000e42902000100000035
:10d3f800042a0200010000005c2a0200010000006b
:10d40800b22a020001000000042b02000100000003
:10d41800402b020001000000602b02000100000008
:10d42800242c020001000000582c0200010000001a
:10d43800c82c020001000000e82c020001000000d6
:10d44800082d0200010000001a2d02000100000052
:10d45800442d0200010000006e2d020001000000b2
:10d46800202e020020f6ff7f702e020024f6ff7f98
:10d47800e8300200010000001c3702000100000033
:10d4880074450200010000009445020001000000fc
:10d49800b445020001000000d4450200010000006c
:10d4a800f4450200010000004c46020001000000a3
:10d4b800a246020001000000f4460200010000003c
:10d4c8001447020001000000d847020001000000d4
:10d4d8000c480200010000007c4802000100000026
:10d4e8008e48020001000000b84802000100000058
:10d4f800e2480200010000001649020090edff7f9b
:10d508006449020094edff7f9249020098edff7f85
:10d51800a64902009cedff7fd6490200a0edff7fdf
:10d52800fc490200ae119780884c02009cedff7ff9
:10d53800c44c020001000000de4c020001000000a3
:10d54800ee4c020001000000fe4c02000100000049
:10d55800264d020080edff7f4a4d020001000000c9
:10d56800ac51020001000000b45e020028f4ff7f05
:10d57800d85f02002cf4ff7f9461020030f4ff7f33
:10d588005063020001000000846302002cf4ff7f56
:10d59800c864020030f4ff7f146502000100000037
:10d5a800ac6a020001000000f88c0200ccf1ff7f99
:10d5b800a08d0200d0f1ff7f888f0200d4f1ff7f99
:10d5c800d0910200010000009897020001000000bd
:10d5d800a097020088ecff7fe0970200010000009e
:10d5e8001c98020084ecff7f989a020088ecff7f69
:10d5f8001c9b02008cecff7f8c9b020008849780a8
:10d60800d49b02000100000024a2020001000000d7
:10d618002ca2020074f0ff7ff4a5020001000000b4
:10d62800d8ac020001000000e0ac020010f1ff7f5e
:10d638009cad020014f1ff7fecae020018f1ff7ff1
:10d648002cb002001cf1ff7f74b102000100000041
:10d6580054b70200010000005cb7020010f4ff7f1d
:10d66800d8b7020014f4ff7f10bb020001000000cd
:10d6780070c102000100000078c1020038f4ff7f89
:10d6880098c102003cf4ff7f88c502000100000039
:10d6980078cb02000100000080cb020001000000ee
:10d6a8008ccb020001000000e4cb02000100000066
:10d6b80004cc0200b0a902809ccc0200b0b0a880c3
:10d6c800eccc020001000000f0cc020001000000d8
:10d6d800eccc020001000000e8cc0200b0b0aa8047
:10d6e80020cd0200ae71b280f0cd02000100000032
:10d6f800eccd0200ab3f388044ce020001000000b0
:10d7080050ce0200b0b0aa808cce0200010000000a
:10d7180094ce02000100000090ce0200010000003b
:10d7280094ce020001000000c0ce020001000000fb
:10d73800d0ce020001000000fcce02000100000073
:10d7480010cf0200ab0eb28078cf0200b0af0a80d3
:10d7580040d20200010000003cd20200010000009b
:10d7680038d202000100000034d20200ab3f04802e
:10d77800e8e702000100000020e80200ecf3ff7f68
:10d78800bceb02000100000070f102000100000083
:10d79800e8fa02000100000008fb02000100000096
:10d7a80028fb0200010000005cfb020001000000f1
:10d7b80086fb0200d8f3ff7f4cfc0200dcf3ff7ffe
:10d7c80010fd0200e0f3ff7f1cfe020001000000d4
:10d7d800f403030001000000580d030001000000dd
:10d7e800440e030001000000800e030088f0ff7f54
:10d7f800ac100300010000006016030001000000e7
:10d80800e453030001000000045403000100000079
:10d818001e540300010000003e54030001000000f4
:10d828005e540300010000007a5403000100000068
:10d838009a54030001000000b654030001000000e0
:10d84800d6540300010000009855030001000000b1
:10d85800cc55030080edff7f28560300010000002f
:10d8680052560300010000007c56030074edff7f50
:10d87800ac56030001000000d4560300010000006c
:10d888000657030068edff7f7a5703006cedff7fb2
:10d89800be57030070edff7f0858030074edff7f4b
:10d8a8004c58030001000000b458030070edff7fde
:10d8b800aa59030074edff7fa45a030078edff7f97
:10d8c800fc5a03007cedff7f325b0300010000007f
:10d8d8005a5b030001000000888503000100000076
:10d8e800a885030001000000c285030001000000b4
:10d8f800e285030001000000028603000100000029
:10d908001e860300010000003e860300010000009f
:10d918005a86030001000000b286030001000000df
:10d9280008870300010000005a8703000100000077
:10d938009687030001000000d28703000100000061
:10d94800f287030001000000b48803000100000012
:10d95800e888030054eeff7f4489030001000000bb
:10d96800d489030001000000448a0300010000007c
:10d978006a8a0300010000007c8a0300010000009d
:10d98800a68a030001000000d08a030028eeff7f6a
:10d99800008b030001000000d28b030024eeff7f00
:10d9a800fca50300010000001ca603000100000004
:10d9b80036a603000100000056a60300010000007f
:10d9c80076a603000100000092a6030001000000f3
:10d9d800b2a6030001000000cea60300010000006b
:10d9e80026a70300010000007ca703000100000037
:10d9f800cea7030001000000eea70300010000000d
:10da0800b0a8030001000000e4a803005cebff7f5e
:10da180040a9030001000000b0a9030001000000b4
:10da2800c2a9030001000000eca9030001000000e6
:10da380016aa030040ebff7f46aa030044ebff7fd2
:10da480008ab030048ebff7f38ab03004cebff7fcc
:10da58005cab030050ebff7fa0ac030001000000ab
:10da6800c0ac03004cebff7fe6ac030001000000f4
:10da7800faac0300010000000ead030040ebff7f8d
:10da880022ad030001000000cc6904000100000081
:10da9800e669040001000000026a040001000000b9
:10daa8001e6a040058f0ff7f786a04005cf0ff7f6c
:10dab800a86a0400088497806c6b040058f0ff7f04
:10dac800e46b0400010000009871040001000000ec
:10dad800a071040001000000e471040001000000ce
:10dae8008c72040088ecff7ff073040001000000d2
:10daf80088790400010000007c8104000100000016
:10db08009681040001000000b281040001000000b9
:10db1800ce810400c4efff7f28820400c8efff7f96
:10db28005882040008849780dc820400c4efff7fd9
:10db3800548304000100000008890400010000006b
:10db48001089040001000000788a040004f0ff7fb7
:10db5800008b040001000000b490040001000000e4
:10db6800bc900400010000000891040001000000be
:10db780054910400d4eeff7f789204000100000065
:10db8800449804000100000000a004000100000007
:10db980028a004000100000030a0040001000000db
:10dba8003ca00400ab109780c8a10400010000004d
:10dbb8007ca704000100000084a704000100000005
:10dbc8009ea7040001000000baa70400010000009d
:10dbd800d6a704004cefff7f30a8040050efff7f6a
:10dbe80060a8040054efff7fbca8040058efff7f33
:10dbf80034a9040001000000e8ae040001000000a0
:10dc0800f0ae04000100000068af040050efff7f91
:10dc1800c8b00400010000007cb604000100000048
:10dc280084b60400a4ecff7f1cb8040001000000c7
:10dc380014be0400010000001cbe04000100000026
:10dc480060be040001000000f8be040014eeff7f6f
:10dc580004c00400010000009cc50400010000008d
:10dc6800a4c5040038eeff7fd8c504003ceeff7f52
:10dc780010c7040001000000eccc04000100000003
:10dc8800f4cc04000100000024cd0400e8eeff7f7e
:10dc980088ce0400010000003cd40400010000000c
:10dca80044d404000100000064d40400a8edff7f00
:10dcb800bcd504000100000080db04000100000066
:10dcc80088db040001000000a8db0400010000005c
:10dcd800c8db040001000000e8db040001000000cc
:10dce80008dc04000100000060dc04000100000002
:10dcf800b6dc04000100000008dd0400010000009b
:10dd080044dd04000100000064dd0400010000009f
:10dd180028de0400010000005cde040001000000b1
:10dd2800ccde040001000000ecde0400010000006d
:10dd38000cdf0400010000001edf040001000000e9
:10dd480048df04000100000072df040000e9ff7fe3
:10dd580038e0040004e9ff7f5ce0040008e9ff7f85
:10dd68007ae00400010000008ce0040001000000db
:10dd7800a0e0040001000000b0e004000100000081
:10dd8800bee00400ece8ff7fe4e1040001000000cd
:10dd9800f8e10400010000000ce2040001000000aa
:10dda80040e2040038ecff7f94e304000100000027
:10ddb8002ce904000100000034e90400e0e6ff7fdc
:10ddc800d0e9040001000000fce9040001000000a3
:10ddd80024ea0400010000003eea0400cce6ff7fcc
:10dde80094ea0400ac07978034eb0400c8e6ff7f90
:10ddf80076eb0400cce6ff7fc0eb0400d0e6ff7fa3
:10de080076ec04000100000086ec0400010000002c
:10de180096ec0400c4e6ff7f50ed0400010000000a
:10de280088ed0400c0e6ff7f9eed040001000000bd
:10de3800d0ed0400bce6ff7f04ee0400c0e6ff7fdf
:10de4800acef040001000000d8ef0400010000005e
:10de5800e0ef04000100000010f0040024edff7f53
:10de680044f1040001000000f8f60400010000007d
:10de780000f704000100000040f7040054ebff7fa6
:10de880068f804000100000000fe04000100000022
:10de980008fe0400010000003cfe0400a0ebff7f28
:10dea80038ff040001000000ec0405000100000038
:10deb800f4040500010000002c05050018eaff7fa6
:10dec8001406050001000000c80b05000100000051
:10ded800d00b0500c8e8ff7ff80c05000100000022
:10dee800a812050001000000b012050001000000a2
:10def800e4120500d8ebff7fb8130500010000000d
:10df08006c19050001000000302005007ceaff7f45
:10df18006820050001000000182605000100000027
:10df2800a031050001000000c0310500010000001b
:10df3800e03105000100000000320500010000008a
:10df480020320500010000007832050001000000c1
:10df5800ce3205000100000020330500010000005a
:10df680040330500010000000434050001000000f2
:10df78003834050001000000a83405000100000045
:10df8800ba34050001000000e43405000100000077
:10df98000e35050001000000903505000100000065
:10dfa800aa35050001000000c43505000100000085
:10dfb800de35050001000000043605000100000000
:10dfc8003636050001000000643605000100000037
:10dfd800c436050001000000f43605000100000009
:10dfe8003837050001000000743705000100000003
:10dff8009c370500010000001238050001000000f0
:10e008007838050001000000fe3805000100000016
:10e01800f239050001000000183b0500010000006e
:10e02800b84a050001000000d84a050001000000b8
:10e03800f84a050001000000184b05000100000027
:10e04800384b050001000000584b05000100000096
:10e05800b04b050001000000064c0500010000005f
:10e06800584c050001000000784c05000100000034
:10e078003c4d050001000000704d05000100000046
:10e088008c4d050001000000fc4d0500010000005a
:10e098000e4e050001000000384e0500010000008a
:10e0a800624e050001000000844e050001000000da
:10e0b800b84e050001000000cc4e0500010000002c
:10e0c800e04e050001000000f44e050001000000cc
:10e0d8001a4f0500010000007c53050001000000f4
:10e0e800b85c050001000000005d050001000000ab
:10e0f800505d050001000000885d0500010000007a
:10e10800a45d050001000000e05d050001000000bd
:10e11800025e050001000000245e05000100000009
:10e12800605e050001000000ac5e05000100000013
:10e13800cc5e0500010000000c5f05000100000036
:10e14800685f050001000000c85f050001000000cd
:10e158002460050001000000306005000100000097
:10e168004060050001000000546005000100000047
:10e17800a460050001000000d86805000100000047
:10e18800686905005ce1ff7fd86a050060e1ff7ff0
:10e19800626b050064e1ff7fe26b0500010000008f
:10e1a800a06c0500010000002c78050001000000ab
:10e1b8005c78050000840480707805000100000088
:10e1c8006c780500b0ad0480347b0500b0a80380ee
:10e1d800547b0500dce9ff7f587b0500e0e9ff7f01
:10e1e800647b050001000000647b0500010000005d
:10e1f800a08e05000100000080a4050001000000b9
:10e20800b2a4050001000000c4a40500010000003c
:10e21800d4a4050001000000e4a4050001000000ea
:10e22800f4a405000100000004a505000100000099
:10e238001ea505000100000036a50500010000002c
:10e2480062a50500010000007aa505000100000094
:10e2580096a5050001000000b2a505000100000018
:10e26800e0a5050001000000e4ae05000100000083
:10e2780030af050008e4ff7fa4af050001000000ef
:10e2880044b00500010000004cb00500010000008a
:10e298005ab005000100000070b005000100000040
:10e2a80080b0050044e4ff7f9cb0050048e4ff7f90
:10e2b800b8b005004ce4ff7fd4b0050050e4ff7f00
:10e2c800f0b0050054e4ff7f0cb1050058e4ff7f6f
:10e2d80040b105005ce4ff7f6cb10500010000005f
:10e2e80078b105000100000086b10500dce2ff7f7f
:10e2f800d4b10500010000008eb205000100000045
:10e3080058c805000100000080c805000100000091
:10e31800b2c8050001000000e4c8050001000000c3
:10e3280054df05000100000098e705003ce5ff7f89
:08e33800b8f30500010000002c
:020000040000fa
:10e340005ca00020040000000100000000000000ac
:10e35000703a02201c00000000000000043b022074
:10e360000400000001000000006cdc02083b0220f9
:10e370000400000000000000fc3a0220050000003c
:10e38000000000000c3b0220040000000000000020
:10e39000103b0220040000000000000000000020ec
:10e3a00024020000000000002402002010000000f1
:10e3b00000000000183a02203000000001000000b8
:10e3c0000200000004001040000003000200700082
:10e3d000b9fc00000000000005000000140020004f
:10e3e00000010000353600000000d700001bb70018
:10e3f000a83a02201800000000000000143b022090
:10e400000400000001000000aaaaaaaadc3a022027
:10e410000800000000000000183b0220040000007b
:10e4200001000000389c000008040020549c0000fb
:10e4300000000000883602200401000000000000f7
:10e44000383902203c000000000000004435022062
:10e450004401000000000000c03a0220100000004b
:10e46000010000003031323334353637383941421b
:10e4700043444546d8d701201104000000000000a5
:10e4800034020020a80000000000000094ce01200b
:10e490001b05000000000000dc0200200800000056
:10e4a00000000000ac390220350000000000000030
:10e4b000e40200201001000000000000e43a022005
:10e4c0000800000000000000f8fa012030020000ff
:10e4d00001000000a4f3040000000000020000009e
:10e4e000010000000000000000100000000000001b
:10e4f000a8f30400b4f304000000000000040000ce
:10e5000000000000c4f30400b4f3040000000000a5
:10e510000002000000000000d0f30400b4f3040087
:10e52000000000002000000000000000a8f304002c
:10e53000dcf3040000000000800000000000000088
:10e54000c4f30400dcf3040000000000000100003c
:10e5500000000000d0f30400dcf304000000000021
:10e56000e8f30400000100000100000001000000c9
:10e57000000000002000000000000000a8f30400dc
:10e58000ecf3040000000000800000000000000028
:10e59000c4f30400ecf304000000000000010000dc
:10e5a00000000000d0f30400ecf3040000000000c1
:10e5b00063000000000000000000000000000000f8
:10e5c00000000000630000000000000000000000e8
:10e5d00000000000000000006300000000000000d8
:10e5e00000000000000000000000000088f40400ab
:10e5f0000001000001000000010000000000000018
:10e600002000000000000000a8f30400dcf3040078
:10e61000000000008000000000000000d0f30400b3
:10e62000dcf3040000000000000400000000000013
:10e63000d0f30400b4f30400000000006300000005
:10e6400000000000000000000000000000000000ca
:10e650006300000000000000000000000000000057
:10e660000000000063000000000000000000000047
:10e67000000000000000000090f404000001000011
:10e680000100000001000000000000000010000078
:10e6900000000000a8f30400b4f304000000000030
:10e6a0000004000000000000d0f30400b4f30400f4
:10e6b000000000008000000000000000d0f3040013
:10e6c000dcf3040000000000630000000000000014
:10e6d00000000000000000000000000063000000d7
:10e6e000000000000000000000000000000000002a
:10e6f00063000000000000000000000000000000b7
:10e700000000000060a00020500b0000000000008e
:10e7100014c10120c006000000000000e4390220fe
:10e720003300000000000000d4c70120c006000034
:10e7300000000000ec3a0220080000000000000089
:10e74000f40300200400000000000000d03a022082
:10e750000c0000000000000028fd01203002000035
:10e7600001000000300c0500000000000200000065
:10e770000100000000000000001000000000000088
:10e78000340c0500400c05000000000000040000ef
:10e7900000000000500c0500400c050000000000c7
:10e7a00000020000000000005c0c0500400c0500a9
:10e7b000000000002000000000000000340c0500f4
:10e7c000680c050000000000800000000000000050
:10e7d000500c0500680c050000000000000100005e
:10e7e000000000005c0c0500680c05000000000043
:10e7f000740c050000010000010000000100000091
:10e80000000000002000000000000000340c0500a3
:10e81000780c0500000000008000000000000000ef
:10e82000500c0500780c05000000000000010000fd
:10e83000000000005c0c0500780c050000000000e2
:10e840006300000000000000000000000000000065
:10e850000000000063000000000000000000000055
:10e860000000000000000000630000000000000045
:10e87000000000000000000000000000140d050072
:10e880000001000001000000010000000000000085
:10e890002000000000000000340c0500680c05009a
:10e8a0000000000080000000000000005c0c05007b
:10e8b000680c0500000000000004000000000000db
:10e8c0005c0c0500400c0500000000006300000027
:10e8d0000000000000000000000000000000000038
:10e8e00063000000000000000000000000000000c5
:10e8f00000000000630000000000000000000000b5
:10e9000000000000000000001c0d050000010000d8
:10e9100001000000010000000000000000100000e5
:10e9200000000000340c0500400c05000000000051
:10e9300000040000000000005c0c0500400c050015
:10e940000000000080000000000000005c0c0500da
:10e95000680c0500000000006300000000000000db
:10e960000000000000000000000000006300000044
:10e970000000000000000000000000000000000097
:10e980006300000000000000000000000000000024
:10e990000000000050ba0120c10600000000000085
:10e9a0001c3b02200400000000000000f8030020cf
:10e9b000040000000000000090380220a8000000c1
:10e9c00000000000f4df01206c02000001000000e4
:10e9d00048f80300000000000200000001000000f1
:10e9e0000000000000100000000000004cf80300d0
:10e9f00058f80300000000000004000000000000c0
:10ea000068f8030058f8030000000000000200004e
:10ea10000000000074f8030058f803000000000034
:10ea200020000000000000004cf8030080f8030004
:10ea300000000000800000000000000068f80300f3
:10ea400080f803000000000000010000000000004a
:10ea500074f8030080f80300000000008cf8030045
:10ea600000010000010000000100000000000000a3
:10ea700020000000000000004cf8030090f80300a4
:10ea800000000000800000000000000068f80300a3
:10ea900090f80300000000000001000000000000ea
:10eaa00074f8030090f80300000000006300000009
:10eab0000000000000000000000000000000000056
:10eac00063000000000000000000000000000000e3
:10ead00000000000630000000000000000000000d3
:10eae00000000000000000002cf9030000010000fd
:10eaf00001000000010000000000000020000000f4
:10eb0000000000004cf8030080f803000000000043
:10eb1000800000000000000074f8030080f803008b
:10eb200000000000000400000000000074f8030072
:10eb300058f803000000000063000000000000001f
:10eb40000000000000000000000000006300000062
:10eb500000000000000000000000000000000000b5
:10eb60006300000000000000000000000000000042
:10eb70000000000034f90300000100000100000063
:10eb80000100000000000000001000000000000074
:10eb90004cf8030058f803000000000000040000d7
:10eba0000000000074f8030058f8030000000000a3
:10ebb000800000000000000074f8030080f80300eb
:10ebc00000000000630000000000000000000000e2
:10ebd00000000000000000006300000000000000d2
:10ebe00000000000000000000000000063000000c2
:10ebf0000000000000000000000000000000000015
:10ec00000cc7002034c700205cc7002084c7002048
:10ec1000acc70020d4c70020fcc7002024c80020b7
:10ec20004cc8002074c800209cc80020c4c8002024
:10ec3000ecc8002014c900203cc900204cc00020b2
:10ec4000480900000000000058ff012030020000c9
:10ec500001000000881b040000000000020000000a
:10ec60000100000000000000001000000000000093
:10ec70008c1b0400981b040000000000000400002e
:10ec800000000000a81b0400981b04000000000006
:10ec90000002000000000000b41b0400981b0400e8
:10eca0000000000020000000000000008c1b040099
:10ecb000c01b0400000000008000000000000000f5
:10ecc000a81b0400c01b040000000000000100009d
:10ecd00000000000b41b0400c01b04000000000082
:10ece000cc1b040000010000010000000100000036
:10ecf0000000000020000000000000008c1b040049
:10ed0000d01b040000000000800000000000000094
:10ed1000a81b0400d01b040000000000000100003c
:10ed200000000000b41b0400d01b04000000000021
:10ed30006300000000000000000000000000000070
:10ed40000000000063000000000000000000000060
:10ed50000000000000000000630000000000000050
:10ed60000000000000000000000000006c1c040017
:10ed70000001000001000000010000000000000090
:10ed800020000000000000008c1b0400c01b0400d9
:10ed9000000000008000000000000000b41b040020
:10eda000c01b040000000000000400000000000080
:10edb000b41b0400981b0400000000006300000066
:10edc0000000000000000000000000000000000043
:10edd00063000000000000000000000000000000d0
:10ede00000000000630000000000000000000000c0
:10edf0000000000000000000741c0400000100007e
:10ee000001000000010000000000000000100000f0
:10ee1000000000008c1b0400981b04000000000090
:10ee20000004000000000000b41b0400981b040054
:10ee3000000000008000000000000000b41b04007f
:10ee4000c01b040000000000630000000000000080
:10ee5000000000000000000000000000630000004f
:10ee600000000000000000000000000000000000a2
:10ee7000630000000000000000000000000000002f
:10ee800000000000f4b60020580900000000000057
:10ee9000203b022004000000000000007439022022
:10eea000380000000000000068eb01203c02000078
:10eeb00001000000a488040000000000020000001f
:10eec0000100000000000000001000000000000031
:10eed000a8880400b48804000000000000040000ba
:10eee00000000000c4880400b48804000000000092
:10eef0000002000000000000d0880400b488040074
:10ef0000000000002000000000000000a8880400ad
:10ef1000dc88040000000000800000000000000009
:10ef2000c4880400dc880400000000000001000028
:10ef300000000000d0880400dc880400000000000d
:10ef4000e88804000001000001000000010000004a
:10ef5000000000002000000000000000a88804005d
:10ef6000ec880400000000008000000000000000a9
:10ef7000c4880400ec8804000000000000010000c8
:10ef800000000000d0880400ec88040000000000ad
:10ef9000630000000000000000000000000000000e
:10efa00000000000630000000000000000000000fe
:10efb00000000000000000006300000000000000ee
:10efc000000000000000000000000000888904002c
:10efd000000100000100000001000000000000002e
:10efe0002000000000000000a8880400dc88040065
:10eff000000000008000000000000000d088040035
:10f00000dc88040000000000000400000000000094
:10f01000d0880400b48804000000000063000000f1
:10f0200000000000000000000000000000000000e0
:10f03000630000000000000000000000000000006d
:10f04000000000006300000000000000000000005d
:10f050000000000000000000908904000001000092
:10f06000010000000100000000000000001000008e
:10f0700000000000a8880400b4880400000000001c
:10f080000004000000000000d0880400b4880400e0
:10f09000000000008000000000000000d088040094
:10f0a000dc88040000000000630000000000000095
:10f0b00000000000000000000000000063000000ed
:10f0c0000000000000000000000000000000000040
:10f0d00063000000000000000000000000000000cd
:10f0e000000000001f1c1f1e1f1e1f1f1e1f1e1fb3
:10f0f0009c2601204007000000000000880102203b
:10f10000300200000100000058140500000000005b
:10f1100002000000010000000000000000100000dc
:10f12000000000005c1405006814050000000000e9
:10f1300000040000000000007814050068140500b9
:10f140000000000000020000000000008414050020
:10f15000681405000000000020000000000000000e
:10f160005c14050090140500000000008000000001
:10f170000000000078140500901405000000000055
:10f180000001000000000000841405009014050038
:10f19000000000009c1405000001000001000000b8
:10f1a000010000000000000020000000000000003e
:10f1b0005c140500a01405000000000080000000a1
:10f1c0000000000078140500a014050000000000f5
:10f1d000000100000000000084140500a0140500d8
:10f1e00000000000630000000000000000000000bc
:10f1f00000000000000000006300000000000000ac
:10f20000000000000000000000000000630000009b
:10f2100000000000000000000000000000000000ee
:10f220003c15050000010000010000000100000085
:10f230000000000020000000000000005c14050039
:10f240009014050000000000800000000000000095
:10f250008414050090140500000000000004000064
:10f260000000000084140500681405000000000080
:10f27000630000000000000000000000000000002b
:10f28000000000006300000000000000000000001b
:10f29000000000000000000063000000000000000b
:10f2a0000000000000000000000000004415050000
:10f2b000000100000100000001000000000000004b
:10f2c00000100000000000005c1405006814050038
:10f2d000000000000004000000000000841405008d
:10f2e000681405000000000080000000000000001d
:10f2f0008414050090140500000000006300000065
:10f3000000000000000000000000000000000000fd
:10f31000630000000000000000000000000000008a
:10f32000000000006300000000000000000000007a
:10f330000000000000000000041801204c0700003d
:10f3400000000000b80302203002000001000000ad
:10f3500060c2040000000000020000000100000084
:10f3600000000000001000000000000064c2040063
:10f3700070c2040000000000000400000000000053
:10f3800080c2040070c204000000000000020000ff
:10f39000000000008cc2040070c2040000000000e5
:10f3a000200000000000000064c2040098c20400b5
:10f3b00000000000800000000000000080c2040087
:10f3c00098c20400000000000001000000000000de
:10f3d0008cc2040098c2040000000000a4c2040013
:10f3e000000100000100000001000000000000001a
:10f3f000200000000000000064c20400a8c2040055
:10f4000000000000800000000000000080c2040036
:10f41000a8c204000000000000010000000000007d
:10f420008cc20400a8c204000000000063000000b9
:10f4300000000000000000000000000000000000cc
:10f440006300000000000000000000000000000059
:10f450000000000063000000000000000000000049
:10f46000000000000000000044c304000001000090
:10f47000010000000100000000000000200000006a
:10f480000000000064c2040098c2040000000000f4
:10f4900080000000000000008cc2040098c204003c
:10f4a0000000000000040000000000008cc2040006
:10f4b00070c20400000000006300000000000000b3
:10f4c00000000000000000000000000063000000d9
:10f4d000000000000000000000000000000000002c
:10f4e00063000000000000000000000000000000b9
:10f4f000000000004cc304000001000001000000f7
:10f5000001000000000000000010000000000000ea
:10f5100064c2040070c20400000000000004000087
:10f52000000000008cc2040070c204000000000053
:10f5300080000000000000008cc2040098c204009b
:10f540000000000063000000000000000000000058
:10f550000000000000000000630000000000000048
:10f560000000000000000000000000006300000038
:10f57000000000000000000000000000000000008b
:10f58000504301201807000000000000e805022099
:10f590003002000001000000e8b10400000000009b
:10f5a0000200000001000000000000000010000048
:10f5b00000000000ecb10400f8b1040000000000fd
:10f5c000000400000000000008b20400f8b10400cc
:10f5d00000000000000200000000000014b204005f
:10f5e000f8b104000000000020000000000000004e
:10f5f000ecb1040020b20400000000008000000014
:10f600000000000008b2040020b204000000000066
:10f61000000100000000000014b2040020b2040049
:10f62000000000002cb204000001000001000000f6
:10f6300001000000000000002000000000000000a9
:10f64000ecb1040030b204000000000080000000b3
:10f650000000000008b2040030b204000000000006
:10f66000000100000000000014b2040030b20400e9
:10f670000000000063000000000000000000000027
:10f680000000000000000000630000000000000017
:10f690000000000000000000000000006300000007
:10f6a000000000000000000000000000000000005a
:10f6b000ccb20400000100000100000001000000c5
:10f6c000000000002000000000000000ecb1040079
:10f6d00020b20400000000008000000000000000d4
:10f6e00014b2040020b20400000000000004000076
:10f6f0000000000014b20400f8b104000000000093
:10f700006300000000000000000000000000000096
:10f710000000000063000000000000000000000086
:10f720000000000000000000630000000000000076
:10f73000000000000000000000000000d4b204003f
:10f7400000010000010000000100000000000000b6
:10f750000010000000000000ecb10400f8b104004b
:10f7600000000000000400000000000014b20400cb
:10f77000f8b104000000000080000000000000005c
:10f7800014b2040020b20400000000006300000076
:10f790000000000000000000000000000000000069
:10f7a00063000000000000000000000000000000f6
:10f7b00000000000630000000000000000000000e6
:10f7c000000000000000000070b30120e00600000f
:10f7d00000000000f43a02200800000000000000d1
:10f7e000f1b600200300000001000000010101004b
:10f7f0008c3a022019000000000000008c37022023
:10f80000010100000000000090f601203402000019
:10f810000100000024ba0400000000000200000003
:10f8200001000000000000000010000000000000c7
:10f8300028ba040034ba04000000000000040000ec
:10f840000000000044ba040034ba040000000000c4
:10f85000000200000000000050ba040034ba0400a6
:10f8600000000000200000000000000028ba040092
:10f870005cba0400000000008000000000000000ee
:10f8800044ba04005cba040000000000000100005b
:10f890000000000050ba04005cba04000000000040
:10f8a00068ba04000001000001000000010000002f
:10f8b00000000000200000000000000028ba040042
:10f8c0006cba04000000000080000000000000008e
:10f8d00044ba04006cba04000000000000010000fb
:10f8e0000000000050ba04006cba040000000000e0
:10f8f00063000000000000000000000000000000a5
:10f900000000000063000000000000000000000094
:10f910000000000000000000630000000000000084
:10f9200000000000000000000000000008bb040010
:10f9300000010000010000000100000000000000c4
:10f94000200000000000000028ba04005cba040097
:10f9500000000000800000000000000050ba040019
:10f960005cba040000000000000400000000000079
:10f9700050ba040034ba0400000000006300000024
:10f980000000000000000000000000000000000077
:10f990006300000000000000000000000000000004
:10f9a00000000000630000000000000000000000f4
:10f9b000000000000000000010bb04000001000077
:10f9c0000100000001000000000000000010000025
:10f9d0000000000028ba040034ba0400000000004f
:10f9e000000400000000000050ba040034ba040013
:10f9f00000000000800000000000000050ba040079
:10fa00005cba040000000000630000000000000079
:10fa10000000000000000000000000006300000083
:10fa200000000000000000000000000000000000d6
:10fa30006300000000000000000000000000000063
:10fa400000000000c3000000d07b01200007000080
:10fa50000000000060e201204102000001000000ff
:10fa6000983d0400000000000200000001000000ba
:10fa70000000000000100000000000009c3d040099
:10fa8000a83d040000000000000400000000000089
:10fa9000b83d0400a83d0400000000000002000082
:10faa00000000000c43d0400a83d04000000000068
:10fab00020000000000000009c3d0400d03d040038
:10fac000000000008000000000000000b83d0400bd
:10fad000d03d040000000000000100000000000014
:10fae000c43d0400d03d040000000000dc3d0400e3
:10faf0000001000001000000010000000000000003
:10fb000020000000000000009c3d0400e03d0400d7
:10fb1000000000008000000000000000b83d04006c
:10fb2000e03d0400000000000001000000000000b3
:10fb3000c43d0400e03d040000000000630000003c
:10fb400000000000000000000000000000000000b5
:10fb50006300000000000000000000000000000042
:10fb60000000000063000000000000000000000032
:10fb700000000000000000007c3e040000010000c6
:10fb80000100000001000000000000002000000053
:10fb9000000000009c3d0400d03d04000000000077
:10fba0008000000000000000c43d0400d03d0400bf
:10fbb000000000000004000000000000c43d04003c
:10fbc000a83d0400000000006300000000000000e9
:10fbd00000000000000000000000000063000000c2
:10fbe0000000000000000000000000000000000015
:10fbf00063000000000000000000000000000000a2
:10fc000000000000843e040000010000010000002c
:10fc100001000000000000000010000000000000d3
:10fc20009c3d0400a83d040000000000000400000a
:10fc300000000000c43d0400a83d040000000000d6
:10fc40008000000000000000c43d0400d03d04001e
:10fc50000000000063000000000000000000000041
:10fc60000000000000000000630000000000000031
:10fc70000000000000000000000000006300000021
:10fc80000000000000000000000000000000000074
:10fc900001000000090000001e0000002c0100000f
:10fca0000100000088fa00207d070000000000002d
:10fcb0001808022030020000010000000c46040079
:10fcc0000000000002000000010000000000000031
:10fcd0000010000000000000104604001c46040054
:10fce0000000000000040000000000002c4604009a
:10fcf0001c4604000000000000020000000000009c
:10fd0000384604001c4604000000000020000000eb
:10fd100000000000104604004446040000000000fb
:10fd200080000000000000002c460400444604004f
:10fd30000000000000010000000000003846040040
:10fd4000444604000000000050460400000100008a
:10fd50000100000001000000000000002000000081
:10fd6000000000001046040054460400000000009b
:10fd700080000000000000002c46040054460400ef
:10fd800000000000000100000000000038460400f0
:10fd90005446040000000000630000000000000062
:10fda00000000000000000000000000063000000f0
:10fdb0000000000000000000000000000000000043
:10fdc00063000000000000000000000000000000d0
:10fdd00000000000f04604000001000001000000e7
:10fde00001000000000000002000000000000000f2
:10fdf000104604004446040000000000800000009b
:10fe000000000000384604004446040000000000e2
:10fe10000004000000000000384604001c460400f6
:10fe2000000000006300000000000000000000006f
:10fe3000000000000000000063000000000000005f
:10fe4000000000000000000000000000630000004f
:10fe500000000000000000000000000000000000a2
:10fe6000f84604000001000001000000010000004d
:10fe70000000000000100000000000001046040018
:10fe80001c46040000000000000400000000000008
:10fe9000384604001c4604000000000080000000fa
:10fea0000000000038460400444604000000000042
:10feb00063000000000000000000000000000000df
:10fec00000000000630000000000000000000000cf
:10fed00000000000000000006300000000000000bf
:10fee00000000000000000000000000008020120e7
:10fef0005807000000000000480a022030020000fd
:10ff000001000000d4fb040000000000020000001b
:10ff100001000000000000000010000000000000d0
:10ff2000d8fb0400e4fb0400000000000004000013
:10ff300000000000f4fb0400e4fb040000000000eb
:10ff4000000200000000000000fc0400e4fb0400cc
:10ff5000000000002000000000000000d8fb0400aa
:10ff60000cfc040000000000800000000000000005
:10ff7000f4fb04000cfc0400000000000001000081
:10ff80000000000000fc04000cfc04000000000065
:10ff900018fc040000010000010000000100000046
:10ffa000000000002000000000000000d8fb04005a
:10ffb0001cfc0400000000008000000000000000a5
:10ffc000f4fb04001cfc0400000000000001000021
:10ffd0000000000000fc04001cfc04000000000005
:10ffe00063000000000000000000000000000000ae
:10fff000000000006300000000000000000000009e
:020000040001f9
:10000000000000000000000063000000000000008d
:10001000000000000000000000000000b8fc040028
:1000200000010000010000000100000000000000cd
:100030002000000000000000d8fb04000cfc0400bd
:1000400000000000800000000000000000fc040030
:100050000cfc040000000000000400000000000090
:1000600000fc0400e4fb040000000000630000004a
:100070000000000000000000000000000000000080
:10008000630000000000000000000000000000000d
:1000900000000000630000000000000000000000fd
:1000a0000000000000000000c0fc0400000100008f
:1000b000010000000100000000000000001000002e
:1000c00000000000d8fb0400e4fb04000000000076
:1000d000000400000000000000fc0400e4fb040039
:1000e00000000000800000000000000000fc040090
:1000f0000cfc040000000000630000000000000091
:10010000000000000000000000000000630000008c
:1001100000000000000000000000000000000000df
:10012000630000000000000000000000000000006c
:1001300000000000d0820120f8060000000000004e
:100140001cf20120390200000100000058010400e7
:10015000000000000200000001000000000000009c
:1001600000100000000000005c01040068010400b1
:1001700000000000000400000000000078010400fe
:100180006801040000000000000200000000000000
:100190008401040068010400000000002000000049
:1001a000000000005c010400900104000000000059
:1001b00080000000000000007801040090010400ad
:1001c00000000000000100000000000084010400a5
:1001d00090010400000000009c01040000010000e8
:1001e00001000000010000000000000020000000ed
:1001f000000000005c010400a001040000000000f9
:10020000800000000000000078010400a00104004c
:100210000000000000010000000000008401040054
:10022000a0010400000000006300000000000000c6
:10023000000000000000000000000000630000005b
:1002400000000000000000000000000000000000ae
:10025000630000000000000000000000000000003b
:10026000000000003c02040000010000010000004a
:10027000010000000000000020000000000000005d
:100280005c010400900104000000000080000000f8
:100290000000000084010400900104000000000040
:1002a0000004000000000000840104006801040054
:1002b00000000000630000000000000000000000db
:1002c00000000000000000006300000000000000cb
:1002d00000000000000000000000000063000000bb
:1002e000000000000000000000000000000000000e
:1002f00044020400000100000100000001000000b1
:100300000000000000100000000000005c0104007c
:10031000680104000000000000040000000000006c
:100320008401040068010400000000008000000057
:10033000000000008401040090010400000000009f
:10034000630000000000000000000000000000004a
:10035000000000006300000000000000000000003a
:10036000000000000000000063000000000000002a
:10037000000000000000000000000000020000007b
:10038000050000000300000060d200207808000093
:1003900000000000780c0220300200000100000084
:1003a000e8900400000000000200000001000000ce
:1003b000000000000010000000000000ec900400ad
:1003c000f89004000000000000040000000000009d
:1003d00008910400f89004000000000000020000f2
:1003e0000000000014910400f890040000000000d8
:1003f0002000000000000000ec90040020910400a8
:1004000000000000800000000000000008910400cf
:100410002091040000000000000100000000000026
:100420001491040020910400000000002c910400ad
:1004300000010000010000000100000000000000b9
:100440002000000000000000ec9004003091040047
:10045000000000008000000000000000089104007f
:1004600030910400000000000001000000000000c6
:1004700014910400309104000000000063000000ab
:10048000000000000000000000000000000000006c
:1004900063000000000000000000000000000000f9
:1004a00000000000630000000000000000000000e9
:1004b0000000000000000000cc91040000010000da
:1004c000010000000100000000000000200000000a
:1004d00000000000ec9004002091040000000000e7
:1004e000800000000000000014910400209104002e
:1004f000000000000004000000000000149104004f
:10050000f8900400000000006300000000000000fc
:100510000000000000000000000000006300000078
:1005200000000000000000000000000000000000cb
:100530006300000000000000000000000000000058
:1005400000000000d4910400000100000100000040
:10055000010000000000000000100000000000008a
:10056000ec900400f890040000000000000400007b
:100570000000000014910400f89004000000000046
:10058000800000000000000014910400209104008d
:1005900000000000630000000000000000000000f8
:1005a00000000000000000006300000000000000e8
:1005b00000000000000000000000000063000000d8
:1005c000000000000000000000000000000000002b
:1005d000e4f20020a407000000000000a80e0220a2
:1005e00030020000010000002cef030000000000ba
:1005f00002000000010000000000000000100000e8
:100600000000000030ef03003cef0300000000009a
:1006100000040000000000004cef03003cef03006a
:1006200000000000000200000000000058ef03007e
:100630003cef03000000000020000000000000006c
:1006400030ef030064ef03000000000080000000b2
:10065000000000004cef030064ef03000000000006
:10066000000100000000000058ef030064ef0300e9
:100670000000000070ef0300000100000100000016
:100680000100000000000000200000000000000049
:1006900030ef030074ef0300000000008000000052
:1006a000000000004cef030074ef030000000000a6
:1006b000000100000000000058ef030074ef030089
:1006c00000000000630000000000000000000000c7
:1006d00000000000000000006300000000000000b7
:1006e00000000000000000000000000063000000a7
:1006f00000000000000000000000000000000000fa
:1007000010f00300000100000100000001000000e3
:1007100000000000200000000000000030ef030097
:1007200064ef0300000000008000000000000000f3
:1007300058ef030064ef0300000000000004000015
:100740000000000058ef03003cef03000000000031
:100750006300000000000000000000000000000036
:100760000000000063000000000000000000000026
:100770000000000000000000630000000000000016
:1007800000000000000000000000000018f003005e
:100790000001000001000000010000000000000056
:1007a000001000000000000030ef03003cef0300e9
:1007b00000000000000400000000000058ef0300eb
:1007c0003cef03000000000080000000000000007b
:1007d00058ef030064ef0300000000006300000016
:1007e0000000000000000000000000000000000009
:1007f0006300000000000000000000000000000096
:100800000000000063000000000000000000000085
:10081000000000000000000094c90020ca08000089
:1008200000000000d810022030020000010000008b
:100830001878040000000000020000000100000021
:100840000000000000100000000000001c78040000
:1008500028780400000000000004000000000000f0
:10086000387804002878040000000000000200002e
:100870000000000044780400287804000000000014
:1008800020000000000000001c78040050780400e4
:100890000000000080000000000000003878040024
:1008a000507804000000000000010000000000007b
:1008b0004478040050780400000000005c780400d4
:1008c0000001000001000000010000000000000025
:1008d00020000000000000001c7804006078040084
:1008e00000000000800000000000000038780400d4
:1008f000607804000000000000010000000000001b
:1009000044780400607804000000000063000000e8
:1009100000000000000000000000000000000000d7
:100920006300000000000000000000000000000064
:100930000000000063000000000000000000000054
:100940000000000000000000fc780400000100002e
:100950000100000001000000000000002000000075
:10096000000000001c780400507804000000000023
:10097000800000000000000044780400507804006b
:1009800000000000000400000000000044780400a3
:100990002878040000000000630000000000000050
:1009a00000000000000000000000000063000000e4
:1009b0000000000000000000000000000000000037
:1009c00063000000000000000000000000000000c4
:1009d0000000000004790400000100000100000094
:1009e00001000000000000000010000000000000f6
:1009f0001c780400287804000000000000040000b7
:100a00000000000044780400287804000000000082
:100a100080000000000000004478040050780400ca
:100a20000000000063000000000000000000000063
:100a30000000000000000000630000000000000053
:100a40000000000000000000000000006300000043
:100a50000000000000000000000000000000000096
:100a60008cac0120e40600000000000058f40120d6
:100a700035020000010000002035040000000000e5
:100a80000200000001000000000000000010000053
:100a90000000000024350400303504000000000090
:100aa0000004000000000000403504003035040060
:100ab0000000000000020000000000004c350400af
:100ac000303504000000000020000000000000009d
:100ad00024350400583504000000000080000000a8
:100ae00000000000403504005835040000000000fc
:100af00000010000000000004c35040058350400df
:100b00000000000064350400000100000100000046
:100b100001000000000000002000000000000000b4
:100b20002435040068350400000000008000000047
:100b3000000000004035040068350400000000009b
:100b400000010000000000004c350400683504007e
:100b50000000000063000000000000000000000032
:100b60000000000000000000630000000000000022
:100b70000000000000000000000000006300000012
:100b80000000000000000000000000000000000065
:100b90000436040000010000010000000100000014
:100ba00000000000200000000000000024350400c8
:100bb0005835040000000000800000000000000024
:100bc0004c3504005835040000000000000400000b
:100bd000000000004c350400303504000000000027
:100be00063000000000000000000000000000000a2
:100bf0000000000063000000000000000000000092
:100c00000000000000000000630000000000000081
:100c10000000000000000000000000000c3604008e
:100c200000010000010000000100000000000000c1
:100c300000100000000000002435040030350400de
:100c40000000000000040000000000004c3504001b
:100c500030350400000000008000000000000000ab
:100c60004c3504005835040000000000630000000b
:100c70000000000000000000000000000000000074
:100c80006300000000000000000000000000000001
:100c900000000000630000000000000000000000f1
:100ca0000000000000000000010000000100000042
:100cb000d8da0020780800000000000008130220a5
:100cc00030020000010000000404050000000000e4
:100cd0000200000001000000000000000010000001
:100ce00000000000080405001404050000000000d6
:100cf00000040000000000002404050014040500a6
:100d000000000000000200000000000030040500a8
:100d10001404050000000000200000000000000096
:100d2000080405003c0405000000000080000000ed
:100d300000000000240405003c0405000000000041
:100d40000001000000000000300405003c04050024
:100d50000000000048040500000100000100000040
:100d60000100000000000000200000000000000062
:100d7000080405004c04050000000000800000008d
:100d800000000000240405004c04050000000000e1
:100d90000001000000000000300405004c040500c4
:100da00000000000630000000000000000000000e0
:100db00000000000000000006300000000000000d0
:100dc00000000000000000000000000063000000c0
:100dd0000000000000000000000000000000000013
:100de000e80405000001000001000000010000000f
:100df00000000000200000000000000008040500c2
:100e00003c0405000000000080000000000000001d
:100e1000300405003c040500000000000004000050
:100e2000000000003004050014040500000000006c
:100e3000630000000000000000000000000000004f
:100e4000000000006300000000000000000000003f
:100e5000000000000000000063000000000000002f
:100e6000000000000000000000000000f004050089
:100e7000000100000100000001000000000000006f
:100e80000010000000000000080405001404050024
:100e90000000000000040000000000003004050015
:100ea00014040500000000008000000000000000a5
:100eb000300405003c040500000000006300000051
:100ec0000000000000000000000000000000000022
:100ed00063000000000000000000000000000000af
:100ee000000000006300000000000000000000009f
:100ef0000000000000000000c87401200807000086
:100f0000000000003815022030020000010000003f
:100f10002899040000000000020000000100000009
:100f20000000000000100000000000002c990400e8
:100f300038990400000000000004000000000000d8
:100f400048990400389904000000000000020000e5
:100f500000000000549904003899040000000000cb
:100f600020000000000000002c990400609904009b
:100f7000000000008000000000000000489904000c
:100f80006099040000000000000100000000000063
:100f90005499040060990400000000006c9904005a
:100fa000000100000100000001000000000000003e
:100fb00020000000000000002c990400709904003b
:100fc00000000000800000000000000048990400bc
:100fd0007099040000000000000100000000000003
:100fe00054990400709904000000000063000000a0
:100ff00000000000000000000000000000000000f1
:10100000630000000000000000000000000000007d
:10101000000000006300000000000000000000006d
:1010200000000000000000000c9a04000001000015
:10103000010000000100000000000000200000008e
:10104000000000002c9904006099040000000000da
:101050008000000000000000549904006099040022
:10106000000000000004000000000000549904008b
:101070003899040000000000630000000000000038
:1010800000000000000000000000000063000000fd
:101090000000000000000000000000000000000050
:1010a00063000000000000000000000000000000dd
:1010b00000000000149a040000010000010000007c
:1010c000010000000000000000100000000000000f
:1010d0002c9904003899040000000000000400006e
:1010e000000000005499040038990400000000003a
:1010f0008000000000000000549904006099040082
:10110000000000006300000000000000000000007c
:10111000000000000000000063000000000000006c
:10112000000000000000000000000000630000005c
:1011300000000000000000000000000000000000af
:101140002c3c01202407000000000000681702204a
:10115000300200000100000098dc030000000000e5
:10116000020000000100000000000000001000006c
:10117000000000009cdc0300a8dc0300000000006d
:101180000004000000000000b8dc0300a8dc03003d
:10119000000000000002000000000000c4dc0300aa
:1011a000a8dc030000000000200000000000000098
:1011b0009cdc0300d0dc0300000000008000000085
:1011c00000000000b8dc0300d0dc030000000000d9
:1011d0000001000000000000c4dc0300d0dc0300bc
:1011e00000000000dcdc0300000100000100000042
:1011f00001000000000000002000000000000000ce
:101200009cdc0300e0dc0300000000008000000024
:1012100000000000b8dc0300e0dc03000000000078
:101220000001000000000000c4dc0300e0dc03005b
:10123000000000006300000000000000000000004b
:10124000000000000000000063000000000000003b
:10125000000000000000000000000000630000002b
:10126000000000000000000000000000000000007e
:101270007cdd03000001000001000000010000000f
:101280000000000020000000000000009cdc0300c3
:10129000d0dc03000000000080000000000000001f
:1012a000c4dc0300d0dc03000000000000040000e8
:1012b00000000000c4dc0300a8dc03000000000004
:1012c00063000000000000000000000000000000bb
:1012d00000000000630000000000000000000000ab
:1012e000000000000000000063000000000000009b
:1012f00000000000000000000000000084dd03008a
:1013000000010000010000000100000000000000da
:1013100000100000000000009cdc0300a8dc0300bb
:10132000000000000004000000000000c4dc030016
:10133000a8dc0300000000008000000000000000a6
:10134000c4dc0300d0dc03000000000063000000e8
:10135000000000000000000000000000000000008d
:10136000630000000000000000000000000000001a
:10137000000000006300000000000000000000000a
:101380000000000000000000b0ab0020410b000096
:101390000000000098190220300200000100000047
:1013a00008db040000000000020000000100000053
:1013b0000000000000100000000000000cdb040032
:1013c00018db040000000000000400000000000022
:1013d00028db040018db040000000000000200000d
:1013e0000000000034db040018db040000000000f3
:1013f00020000000000000000cdb040040db0400c3
:1014000000000000800000000000000028db040055
:1014100040db0400000000000001000000000000ac
:1014200034db040040db0400000000004cdb04005f
:1014300000010000010000000100000000000000a9
:1014400020000000000000000cdb040050db040062
:1014500000000000800000000000000028db040005
:1014600050db04000000000000010000000000004c
:1014700034db040050db04000000000063000000c7
:10148000000000000000000000000000000000005c
:1014900063000000000000000000000000000000e9
:1014a00000000000630000000000000000000000d9
:1014b0000000000000000000ecdb04000001000060
:1014c00001000000010000000000000020000000fa
:1014d000000000000cdb040040db04000000000002
:1014e000800000000000000034db040040db04004a
:1014f00000000000000400000000000034db0400d5
:1015000018db040000000000630000000000000081
:101510000000000000000000000000006300000068
:1015200000000000000000000000000000000000bb
:101530006300000000000000000000000000000048
:1015400000000000f4db04000001000001000000c6
:10155000010000000000000000100000000000007a
:101560000cdb040018db0400000000000004000095
:101570000000000034db040018db04000000000061
:10158000800000000000000034db040040db0400a9
:1015900000000000630000000000000000000000e8
:1015a00000000000000000006300000000000000d8
:1015b00000000000000000000000000063000000c8
:1015c000000000000000000000000000000000001b
:1015d000b06601200907000000000000e8e60120d5
:1015e0003e0200000100000068a1040000000000ad
:1015f00002000000010000000000000000100000d8
:10160000000000006ca1040078a1040000000000ac
:10161000000400000000000088a1040078a104007c
:1016200000000000000200000000000094a104007f
:1016300078a104000000000020000000000000006d
:101640006ca10400a0a104000000000080000000c4
:101650000000000088a10400a0a104000000000018
:10166000000100000000000094a10400a0a10400fb
:1016700000000000aca10400000100000100000017
:101680000100000000000000200000000000000039
:101690006ca10400b0a10400000000008000000064
:1016a0000000000088a10400b0a1040000000000b8
:1016b000000100000000000094a10400b0a104009b
:1016c00000000000630000000000000000000000b7
:1016d00000000000000000006300000000000000a7
:1016e0000000000000000000000000006300000097
:1016f00000000000000000000000000000000000ea
:101700004ca20400000100000100000001000000e4
:101710000000000020000000000000006ca1040098
:10172000a0a10400000000008000000000000000f4
:1017300094a10400a0a10400000000000004000027
:101740000000000094a1040078a104000000000043
:101750006300000000000000000000000000000026
:101760000000000063000000000000000000000016
:101770000000000000000000630000000000000006
:1017800000000000000000000000000054a204005f
:101790000001000001000000010000000000000046
:1017a00000100000000000006ca1040078a10400fb
:1017b00000000000000400000000000094a10400ec
:1017c00078a104000000000080000000000000007c
:1017d00094a10400a0a10400000000006300000028
:1017e00000000000000000000000000000000000f9
:1017f0006300000000000000000000000000000086
:101800000000000063000000000000000000000075
:101810000000000000000000284e4f5754522900dd
:101820002857545229000000600901205107000088
:1018300000000000c81b0220300200000100000070
:1018400098ca04000000000002000000010000002f
:101850000000000000100000000000009cca04000e
:10186000a8ca0400000000000004000000000000fe
:10187000b8ca0400a8ca040000000000000200006a
:1018800000000000c4ca0400a8ca04000000000050
:1018900020000000000000009cca0400d0ca040020
:1018a000000000008000000000000000b8ca040032
:1018b000d0ca040000000000000100000000000089
:1018c000c4ca0400d0ca040000000000dcca04003e
:1018d0000001000001000000010000000000000005
:1018e00020000000000000009cca0400e0ca0400c0
:1018f000000000008000000000000000b8ca0400e2
:10190000e0ca040000000000000100000000000028
:10191000c4ca0400e0ca0400000000006300000024
:1019200000000000000000000000000000000000b7
:101930006300000000000000000000000000000044
:101940000000000063000000000000000000000034
:1019500000000000000000007ccb0400000100003b
:101960000100000001000000000000002000000055
:10197000000000009cca0400d0ca0400000000005f
:101980008000000000000000c4ca0400d0ca0400a7
:10199000000000000004000000000000c4ca0400b1
:1019a000a8ca04000000000063000000000000005e
:1019b00000000000000000000000000063000000c4
:1019c0000000000000000000000000000000000017
:1019d00063000000000000000000000000000000a4
:1019e0000000000084cb04000001000001000000a2
:1019f00001000000000000000010000000000000d6
:101a00009cca0400a8ca04000000000000040000f2
:101a100000000000c4ca0400a8ca040000000000be
:101a20008000000000000000c4ca0400d0ca040006
:101a30000000000063000000000000000000000043
:101a40000000000000000000630000000000000033
:101a50000000000000000000000000006300000023
:101a60000000000000000000000000000000000076
:101a7000905801201107000000000000f81d02200e
:101a80003002000001000000781c0500000000008a
:101a90000200000001000000000000000010000033
:101aa000000000007c1c0500881c050000000000f0
:101ab0000004000000000000981c0500881c0500c0
