:020000040000fa
:10c00000f8ff0320e1b606004f830600f7d50600cf
:10c010004f830600f1d506004f83060000000000a4
:10c02000000000000000000000000000ed2f0600ee
:10c030004f8306000000000059320600c732060098
:10c040004f8306004f8306004f8306004f83060090
:10c050004f8306004f8306004f8306004f83060080
:10c060004f8306004f8306004f83060019ba030072
:10c070004f8306004f8306004f8306004f83060060
:10c080004f8306004f8306004f8306004f83060050
:10c090004f8306004f8306004f8306004f83060040
:10c0a0004f8306004f8306004f8306004f83060030
:10c0b0004f8306004f8306004f8306004f83060020
:10c0c0004f8306004f8306004f8306004f83060010
:10c0d0004f8306004f8306004f8306004f83060000
:10c0e0004f8306004f8306000000000000000000a0
:10c0f00000000000397806004f8306004f830600d9
:10c100004f8306004f8306004f8306004f830600cf
:10c110004f8306004f8306006d7b0100857b010085
:10c120009d7b01004f8306004f8306004f8306006e
:10c130004f8306004f8306004f8306004f8306009f
:10c140004f8306004f830600cd7b0100e57b010095
:10c15000fd7b01004f8306004f8306004f830600de
:10c160004f8306004f8306004f8306004f8306006f
:10c170004f8306004f8306004f8306004f8306005f
:10c180004f8306004f8306004f8306004f8306004f
:10c190004f8306004f8306004f8306004f8306003f
:10c1a0004f8306004f8306004f8306004f8306002f
:10c1b0004f8306004f8306004f8306004f8306001f
:10c1c0004f8306004f8306004f8306004f8306000f
:10c1d0004f8306004f8306004f8306004f830600ff
:10c1e0004f8306004f8306004f8306004f830600ef
:10c1f0004f8306004f8306004f8306004f830600df
:10c200004f8306004f8306004f8306004f830600ce
:10c210004f8306004f8306004f830600fd80060013
:10c220004f8306004f8306004f8306004f830600ae
:10c230004f8306004f8306004f8306004f8306009e
:10c240004f8306004f8306004f8306004f8306008e
:10c250004f8306004f8306004f8306004f8306007e
:04c260004f83060002
:020000040000fa
:10c2640003970181b0b00884000000000d9701819c
:10c27400b0b00b840000000009970181b0b00b84ba
:10c284000000000003970181b0b0088400000000a2
:10c2940003970181b0b00884000000000197018178
:10c2a400b0b008840000000001970181b0b0088498
:10c2b4000000000001970181b0b008840000000074
:10c2c40001970181b0b00884000000000397018148
:10c2d400b0b008840000000003970181b0b0088466
:10c2e4000000000003970181b0b008840000000042
:10c2f40001970181b0b0088400000000019701811a
:10c30400b0b008840000000005970181b0b0088433
:10c314000000000001970181b0b008840000000013
:10c3240002970181b0b009840000000001970181e7
:10c33400b0b008840000000001970181b0b0088407
:10c344000000000003970181b0b0088400000000e1
:10c3540001970181b0b008840000000001970181b9
:10c36400b0b008840000000001970181b0b00884d7
:10c374000000000001970181b0b0088400000000b3
:10c3840003970181b0b00884000000000397018185
:10c39400b0b008840000000003970181b0b00884a5
:10c3a4000000000003970181b0b008840000000081
:10c3b40004970181b0b00984000000000597018151
:10c3c400b0b008840000000005970181b0b0088473
:10c3d4000000000001970181b0b008840000000053
:10c3e40001970181b0b00884000000000397018127
:10c3f400b0b008840000000003970181b0b0088445
:10c404000000000001970181b0b008840000000022
:10c4140001970181b0b008840000000005970181f4
:10c42400b0b008840000000003970181b0b0088414
:10c434000000000003970181b0b0088400000000f0
:10c4440003970181b0b008840000000003970181c4
:10c45400b0b008840000000001970181b0b00884e6
:10c464000000000001970181b0b0088400000000c2
:10c4740003970181b0b00884000000000197018196
:10c48400b0b008840000000001970181b0b00884b6
:10c494000000000003970181b0b008840000000090
:10c4a40001970181b0b00884000000000397018166
:10c4b400b0b008840000000003970181b0b0088484
:10c4c4000000000003970181b0b008840000000060
:10c4d40009970181b0b0088400000000039701812e
:10c4e400b0b008840000000001970181b0b0088456
:10c4f4000000000003970181b0b008840000000030
:10c504000b970181b0b008840000000005970181f9
:10c51400b0b008840000000001970181b0b0088425
:10c524000000000004970181b0b0098400000000fd
:10c5340004970181b0b009840000000001970181d3
:10c54400b0b008840000000002970181b0b00984f3
:10c554000000000001970181b0b0088400000000d1
:10c5640001970181b0b008840000000005970181a3
:10c57400b0b008840000000001970181b0b00884c5
:10c584000000000003970181b0b00884000000009f
:10c5940001970181b0030884000000000197018124
:10c5a400b0b008840000000007970181b0b008848f
:10c5b4000000000001970181b0b008840000000071
:10c5c40001970181b0b00884000000000597018143
:10c5d400b0b008840000000005970181b0b0088461
:10c5e4000000000001970181b0b008840000000041
:10c5f40001970181b0b00884000000000397018115
:10c60400b0b008840000000003970181b0b0088432
:10c614000000000003970181b0b00884000000000e
:10c6240007970181b0b008840000000007970181da
:10c63400b0b008840000000006970181b0b00984fe
:10c644000000000005970181b0b0088400000000dc
:10c6540003970181b0b008840000000001970181b4
:10c66400b0b008840000000001970181b0b00884d4
:10c674000000000005970181b0b0088400000000ac
:10c6840001970181b0b00884000000000597018182
:10c69400b0b008840000000003970181b0b00884a2
:10c6a400000000000d970181b0b008840000000074
:10c6b40009970181b0b00884000000000997018146
:10c6c400b0b008840000000002970181b0b0098472
:10c6d4000000000001970181b0b03b84000000001d
:10c6e40003970181b0b03b840000000003970181ef
:10c6f400b0b008840000000003970181b0b0088442
:10c704000000000003970181b0b00884000000001d
:10c7140003970181b0b008840000000003970181f1
:10c72400b0b008840000000005970181b0b008840f
:10c734000000000003970181b0b0088400000000ed
:10c7440001970181b0b008840000000001970181c5
:10c75400b0b008840000000001970181b0b00884e3
:10c764000000000001970181b0b0088400000000bf
:10c7740001970181b0b00884000000000197018195
:10c78400b0b00b840000000001970181b0b00b84ad
:10c794000000000001970181b0b00b84000000008c
:10c7a40001970181b0b00884000000000597018161
:10c7b400b0b008840000000001970181b0b0088483
:10c7c4000000000009970181b0b008840000000057
:10c7d40001970181b0030b840000000004970181dc
:10c7e400b0030984000000000d970181b0b00884f3
:10c7f4000000000005970181b0b00884000000002b
:10c8040005970181b0b008840000000007970181fa
:10c81400b0b008840000000003970181b0b0088420
:10c824000000000003970181b0b0088400000000fc
:10c8340005970181b0b008840000000009970181c8
:10c84400b0b008840000000005970181b0b00884ee
:10c854000000000005970181b0b0088400000000ca
:10c8640006970181b0b0098400000000019701819e
:10c87400b0b008840000000005970181b0b00884be
:10c884000000000007970181b0b008840000000098
:10c8940007970181b0b00884000000000797018168
:10c8a400b0b008840000000007970181b0b008848c
:10c8b4000000000007970181b0b008840000000068
:10c8c40001970181b0b00884000000000597018140
:10c8d400b0b00b840000000005970181b0b008845b
:10c8e4000000000001970181b0b00884000000003e
:10c8f40001970181b0b00884000000000397018112
:10c90400b0b008840000000003970181b0b008842f
:10c914000000000003970181b0b00884000000000b
:10c9240001970181b0b008840000000001970181e3
:10c93400b0b008840000000001970181b0b0088401
:10c944000000000003970181b0b00b8400000000d8
:10c9540001970181b0b008840000000001970181b3
:10c96400b0b00884000000000d970181b0b00884c5
:10c974000000000001970181b0b0088400000000ad
:10c9840001970181b0b00884000000000197018183
:10c99400b0b008840000000005970181b0b008849d
:10c9a4000000000005970181b0b008840000000079
:10c9b40005970181b0b0088400000000019701814f
:10c9c400b0b008840000000004970181b0b009846d
:10c9d4000000000001970181b0b00884000000004d
:10c9e40001970181b0b00884000000000197018123
:10c9f400b0b008840000000007970181b0b008843b
:10ca04000000000003970181b0b00884000000001a
:10ca140001970181b0b008840000000001970181f2
:10ca2400b0b008840000000002970181b0b009840e
:10ca34000000000008970181b0b0098400000000e4
:10ca440005970181b0b008840000000001970181be
:10ca5400b0b00b840000000001970181b0b00884dd
:10ca64000000000001970181b0b0088400000000bc
:10ca740001970181b0b00884000000000197018192
:10ca8400b0b008840000000001970181b0b00884b0
:10ca94000000000001970181b0b00884000000008c
:10caa40001970181b0b00884000000000197018162
:10cab400b0b008840000000001970181b0b0088480
:10cac4000000000006970181b0b009840000000056
:10cad40005970181b0b0088400000000019701812e
:10cae400b0b008840000000001970181b0b0088450
:10caf4000000000005970181b0b008840000000028
:10cb040001970181b0b00884000000000197018101
:10cb1400b0b008840000000005970181b0b008841b
:10cb24000000000001970181b0b0088400000000fb
:10cb340001970181b0b008840000000001970181d1
:10cb4400b0b008840000000001970181b0b00884ef
:10cb5400000000000b970181b0b0088400000000c1
:10cb640005970181b0b0088400000000019701819d
:10cb7400b0b008840000000001970181b0b00884bf
:10cb84000000000001970181b0b00884000000009b
:10cb940001970181b0b00884000000000197018171
:10cba400b0b008840000000008b10181b0b0008476
:10cbb4000000000008b10181b0b000840000000052
:10cbc400f8b500bff8bc08bc9e467047edd306001c
:10cbd400d5bd060005730300e521030009490600dd
:10cbe4001d2f0600e9c80500315702008d8d06008f
:10cbf400d17d03006d7f02007d880300414f050055
:10cc04003968030051ec0500e1e80200dd3c060050
:10cc140031e903009dd902000d95050059e5050091
:10cc240099420200f57d05001df80200f9ff050098
:10cc3400253b030051d70500a5c105003993020027
:10cc44005dde05008d6e050001b30500bd9c050089
:10cc5400b99203006d0603002da40500e19c0300b6
:10cc640035f30500095f050029470500a98505007e
:10cc7400d56605005d8d0500d1c303009dab05009d
:10cc840029d005009dd60300f8b500bff8bc08bc48
:08cc94009e467047b1bd060089
:020000040000fa
:10cc9c00a85e010001000000e45e010040fcff7f83
:10ccac00a45f010001000000dc5f01003cfcff7f81
:10ccbc00b060010001000000e46001000100000010
:10cccc002861010001000000d46101000100000096
:10ccdc0010620100010000003c6201000100000034
:10ccec009c62010010fcff7fb46301000100000096
:10ccfc00246401000cfcff7fac6901000100000002
:10cd0c001c6a010008fcff7f8c6e01000cfcff7f8d
:10cd1c00e46e010010fcff7f486f01000100000071
:10cd2c006c75010001000000747501000100000029
:10cd3c009475010001000000ae75010001000000b7
:10cd4c00ce75010001000000ee750100010000002d
:10cd5c000a760100010000002a76010001000000a3
:10cd6c0046760100010000009e76010001000000e3
:10cd7c00f47601000100000046770100010000007c
:10cd8c008277010001000000be7701000100000065
:10cd9c00de77010001000000a078010068f7ff7f3a
:10cdac00fc780100010000008c79010001000000fa
:10cdbc00fc79010001000000227a01000100000052
:10cdcc00347a0100010000005e7a010044f7ff7f15
:10cddc008e7a010048f7ff7f547b01004cf7ff7ff0
:10cdec00e87d0100010000008c7e010001000000c4
:10cdfc00bc7f010040f7ff7f9680010044f7ff7f66
:10ce0c00c482010001000000e682010040f7ff7fb0
:10ce1c00fc82010044f7ff7f228301000100000027
:10ce2c006683010001000000fc8801000100000085
:10ce3c0004890100010000002489010001000000a8
:10ce4c003e890100010000005e8901000100000024
:10ce5c007e890100010000009a8901000100000098
:10ce6c00ba89010001000000d68901000100000010
:10ce7c002e8a010001000000848a010001000000dc
:10ce8c00d68a010001000000f68a010001000000b2
:10ce9c00b88b010001000000ec8b010064f4ff7ff3
:10ceac00488c010001000000b88c0100010000005a
:10cebc00ca8c010001000000f48c0100010000008c
:10cecc001e8d010048f4ff7f4e8d01004cf4ff7f56
:10cedc00848f010001000000b08f010001000000f0
:10ceec00c68f010001000000dc8f01000100000072
:10cefc00f28f010030f4ff7f0890010034f4ff7fc3
:10cf0c001e9001000100000034900100010000009f
:10cf1c0050900100010000006490010020f4ff7f9c
:10cf2c002c92010024f4ff7f5692010028f4ff7f1d
:10cf3c0080920100010000009892010024f4ff7f10
:10cf4c003693010028f4ff7f609301002cf4ff7fdf
:10cf5c008493010001000000e49401000100000032
:10cf6c0044950100010000003096010018f4ff7f89
:10cf7c004e9601001cf4ff7f6c96010020f4ff7f9d
:10cf8c008a96010001000000fc96010001000000df
:10cf9c005a97010014f4ff7f68980100010000000b
:10cfac0090980100010000000c99010008f4ff7f2b
:10cfbc00ca99010001000000189a0100010000004c
:10cfcc002c9a010001000000409a010001000000b1
:10cfdc00549a010001000000689a01000100000051
:10cfec008c9a010001000000b89a010001000000b9
:10cffc00069b0100010000004c9b01000100000099
:10d00c00709b010001000000909b010001000000da
:10d01c00b09b010001000000e49b01000100000036
:10d02c000e9c010001000000949c0100ab12978043
:10d03c00f09e01005cf6ff7f5e9f010060f6ff7fb3
:10d04c001aa0010064f6ff7f98a0010068f6ff7f2c
:10d05c0080a101006cf6ff7f4ca4010070f6ff7fed
:10d06c0050a5010074f6ff7fa8a801000100000084
:10d07c00f0ae010001000000f8ae0100010000005c
:10d08c002caf010001000000a4af01004cf9ff7fa0
:10d09c00a0b2010050f9ff7fe0b2010054f9ff7f0c
:10d0ac00b4b5010058f9ff7f9cb601005cf9ff7f15
:10d0bc0000b7010060f9ff7f6cb7010001000000b0
:10d0cc0048b801005cf9ff7f94ba0100ac0197806d
:10d0dc008cbb01000100000054c2010001000000e3
:10d0ec0004e801000100000024e801000100000038
:10d0fc003ee80100010000005ee8010001000000b4
:10d10c007ee80100010000009ae801000100000027
:10d11c00bae8010001000000d6e80100010000009f
:10d12c002ee901000100000084e90100010000006b
:10d13c00d6e901000100000012ea01000100000024
:10d14c004eea0100010000006eea0100010000003f
:10d15c0030eb01000100000064eb010064f2ff7f82
:10d16c00c0eb01000100000050ec010001000000c8
:10d17c00c0ec010001000000e6ec01000100000021
:10d18c00f8ec01000100000022ed0100010000009c
:10d19c004ced010038f2ff7f7ced01000100000036
:10d1ac008aed010001000000feee01002cf2ff7f71
:10d1bc0046ef010030f2ff7fa6ef010034f2ff7f53
:10d1cc00f8ef010038f2ff7f34f00100010000009d
:10d1dc0048f00100010000005cf0010001000000bb
:10d1ec0070f001000100000084f00100010000005b
:10d1fc0098f0010001000000acf0010001000000fb
:10d20c0092f1010001000000a6f10100fcf1ff7f8a
:10d21c00bef1010000f2ff7feef1010004f2ff7f8e
:10d22c0080f2010008f2ff7fb6f201000cf2ff7fe2
:10d23c0084f5010010f2ff7fb4f5010014f2ff7fba
:10d24c00c6f5010018f2ff7fd8f501001cf2ff7f34
:10d25c0016f601000100000062f6010018f2ff7fd3
:10d26c0086f601001cf2ff7faaf6010020f2ff7f78
:10d27c00f4f6010008f6ff7f6cf801000cf6ff7f56
:10d28c008cfa010010f6ff7f14fc010014f6ff7fee
:10d29c0038fe010018f6ff7f680002001cf6ff7fc5
:10d2ac00dc00020001000000e806020001000000a2
:10d2bc00f0060200010000004c0702000100000013
:10d2cc00b6070200010000002a080200010000005d
:10d2dc0076080200f4f4ff7fb4080200f8f4ff7f34
:10d2ec00f20a020001000000fe0a0200f4f4ff7fc3
:10d2fc00400f0200f8f4ff7fda0f0200fcf4ff7f0e
:10d30c0030100200010000006c100200f8f4ff7fe6
:10d31c0024110200fcf4ff7f4811020000f5ff7f8e
:10d32c008411020004f5ff7fdc11020008f5ff7f79
:10d33c00cc1302000cf5ff7f2414020010f5ff7fc4
:10d34c007c14020014f5ff7f2e1502000100000072
:10d35c004e150200010000007c15020001000000c7
:10d36c0084150200ccf5ff7fac160200d0f5ff7fd0
:10d37c00501802000100000098180200ccf5ff7f45
:10d38c0090190200d0f5ff7f981c020001000000ec
:10d39c00cc1c0200ccf5ff7f681e0200d0f5ff7f8d
:10d3ac00d01e0200010000006824020001000000f1
:10d3bc007024020001000000902402000100000013
:10d3cc00b024020001000000d02402000100000083
:10d3dc00f0240200010000004825020001000000ba
:10d3ec009e25020001000000f02502000100000053
:10d3fc002c260200010000004c2602000100000057
:10d40c001027020001000000442702000100000068
:10d41c00b427020001000000d42702000100000024
:10d42c00f4270200010000000628020001000000a1
:10d43c0030280200010000005a2802000100000000
:10d44c000c29020030f6ff7f5c29020034f6ff7fc6
:10d45c00d42b020001000000083202000100000081
:10d46c00604002000100000080400200010000004a
:10d47c00a040020001000000c040020001000000ba
:10d48c00e0400200010000003841020001000000f1
:10d49c008e41020001000000e0410200010000008a
:10d4ac000042020001000000c44202000100000022
:10d4bc00f842020001000000684302000100000075
:10d4cc007a43020001000000a443020001000000a6
:10d4dc00ce4302000100000002440200acedff7fcd
:10d4ec0050440200b0edff7f7e440200b4edff7f9c
:10d4fc0092440200b8edff7fc2440200bcedff7ff6
:10d50c00e8440200ae11978074470200b8edff7f2b
:10d51c00b047020001000000ca47020001000000f1
:10d52c00da47020001000000ea4702000100000097
:10d53c00124802009cedff7f3648020001000000fb
:10d54c00984c020001000000a059020038f4ff7f43
:10d55c00c45a02003cf4ff7f805c020040f4ff7f61
:10d56c003c5e020001000000705e02003cf4ff7f94
:10d57c00b45f020040f4ff7f006002000100000075
:10d58c009865020001000000e4870200e8f1ff7fcb
:10d59c008c880200ecf1ff7f748a0200f0f1ff7faf
:10d5ac00bc8c02000100000084920200010000000b
:10d5bc008c920200a4ecff7fcc92020001000000d0
:10d5cc0008930200a0ecff7f84950200a4ecff7f7f
:10d5dc0008960200a8ecff7f7896020008849780da
:10d5ec00c096020001000000109d02000100000026
:10d5fc00189d020090f0ff7fe0a0020001000000e7
:10d60c00c4a7020001000000cca702002cf1ff7f90
:10d61c0088a8020030f1ff7fd8a9020034f1ff7f07
:10d62c0018ab020038f1ff7f60ac02000100000073
:10d63c0040b202000100000048b2020020f4ff7f5b
:10d64c00c4b2020024f4ff7ffcb50200010000000c
:10d65c005cbc02000100000064bc020048f4ff7fc7
:10d66c0084bc02004cf4ff7f74c002000100000077
:10d67c0064c60200010000006cc60200010000003c
:10d68c0078c6020001000000d0c6020001000000b4
:10d69c00f0c60200b0a9028088c70200b0b0a88012
:10d6ac00d8c7020001000000dcc702000100000026
:10d6bc00d8c7020001000000d4c70200b0b0aa8095
:10d6cc000cc80200ae71b280dcc802000100000080
:10d6dc00d8c80200ab3f388030c9020001000000fe
:10d6ec003cc90200b0b0aa8078c902000100000059
:10d6fc0080c90200010000007cc90200010000008a
:10d70c0080c9020001000000acc902000100000049
:10d71c00bcc9020001000000e8c9020001000000c1
:10d72c00fcc90200ab0eb28064ca0200b0af0a8022
:10d73c002ccd02000100000028cd020001000000e9
:10d74c0024cd02000100000020cd0200ab3f04807c
:10d75c00d4e20200010000000ce30200fcf3ff7fa6
:10d76c00a8e60200010000005cec020001000000d1
:10d77c00d4f5020001000000f4f5020001000000e5
:10d78c0014f602000100000048f60200010000003f
:10d79c0072f60200e8f3ff7f38f70200ecf3ff7f2c
:10d7ac00fcf70200f0f3ff7f08f902000100000013
:10d7bc00e0fe02000100000044080300010000002c
:10d7cc0030090300010000006c090300a4f0ff7f86
:10d7dc00980b0300010000004c1103000100000035
:10d7ec00c04e030001000000e04e030001000000e9
:10d7fc00fa4e0300010000001a4f03000100000064
:10d80c003a4f030001000000564f030001000000d6
:10d81c00764f030001000000924f0300010000004e
:10d82c00b24f03000100000074500300010000001f
:10d83c00a85003009cedff7f045103000100000081
:10d84c002e510300010000005851030090edff7fa2
:10d85c008851030001000000b051030001000000da
:10d86c00e251030084edff7f5652030088edff7fe9
:10d87c009a5203008cedff7fe452030090edff7f82
:10d88c002853030001000000905303008cedff7f30
:10d89c008654030090edff7f8055030094edff7fcd
:10d8ac00d855030098edff7f0e56030001000000d1
:10d8bc0036560300010000006480030001000000e4
:10d8cc0084800300010000009e8003000100000022
:10d8dc00be80030001000000de8003000100000098
:10d8ec00fa800300010000001a810300010000000f
:10d8fc0036810300010000008e810300010000004e
:10d90c00e4810300010000003682030001000000e6
:10d91c007282030001000000ae82030001000000cf
:10d92c00ce82030001000000908303000100000080
:10d93c00c483030070eeff7f20840300010000000d
:10d94c00b0840300010000002085030001000000ea
:10d95c00468503000100000058850300010000000b
:10d96c008285030001000000ac85030044eeff7fbc
:10d97c00dc85030001000000ae86030040eeff7f53
:10d98c00d8a0030001000000f8a003000100000073
:10d99c0012a103000100000032a1030001000000ed
:10d9ac0052a10300010000006ea103000100000061
:10d9bc008ea1030001000000aaa1030001000000d9
:10d9cc0002a203000100000058a2030001000000a5
:10d9dc00aaa2030001000000caa20300010000007b
:10d9ec008ca3030001000000c0a3030078ebff7fb1
:10d9fc001ca40300010000008ca403000100000023
:10da0c009ea4030001000000c8a403000100000054
:10da1c00f2a403005cebff7f22a5030060ebff7f09
:10da2c00e4a5030064ebff7f14a6030068ebff7f03
:10da3c0038a603006cebff7f7ca7030001000000fd
:10da4c009ca7030068ebff7fc2a703000100000046
:10da5c00d6a7030001000000eaa703005cebff7fe0
:10da6c00fea7030001000000a864040001000000f0
:10da7c00c264040001000000de6404000100000028
:10da8c00fa64040068f0ff7f546504006cf0ff7fbb
:10da9c0084650400088497804866040068f0ff7f62
:10daac00c066040001000000746c0400010000005a
:10dabc007c6c040001000000c06c0400010000003c
:10dacc00686d0400a4ecff7fcc6e04000100000024
:10dadc006474040001000000587c04000100000084
:10daec00727c0400010000008e7c04000100000028
:10dafc00aa7c0400d4efff7f047d0400d8efff7fe5
:10db0c00347d040008849780b87d0400d4efff7f37
:10db1c00307e040001000000e483040001000000da
:10db2c00ec830400010000005485040014f0ff7f16
:10db3c00dc85040001000000908b04000100000053
:10db4c00988b040001000000e48b0400010000002d
:10db5c00308c0400e4eeff7f548d040001000000c3
:10db6c002093040001000000dc9a04000100000076
:10db7c00049b0400010000000c9b04000100000049
:10db8c00189b0400ab109780a49c040001000000bb
:10db9c0058a204000100000060a204000100000073
:10dbac007aa204000100000096a20400010000000b
:10dbbc00b2a204005cefff7f0ca3040060efff7fb8
:10dbcc003ca3040064efff7f98a3040068efff7f81
:10dbdc0010a4040001000000c4a90400010000000e
:10dbec00cca904000100000044aa040060efff7ff0
:10dbfc00a4ab04000100000058b1040001000000b7
:10dc0c0060b10400c0ecff7ff8b20400010000001a
:10dc1c00f0b8040001000000f8b804000100000096
:10dc2c003cb9040001000000d4b9040024eeff7fcd
:10dc3c00e0ba04000100000078c0040001000000fc
:10dc4c0080c0040048eeff7fb4c004004ceeff7fa0
:10dc5c00ecc1040001000000c8c704000100000072
:10dc6c00d0c704000100000000c80400f8eeff7fdc
:10dc7c0064c904000100000018cf0400010000007a
:10dc8c0020cf04000100000040cf0400b8edff7f5e
:10dc9c0098d00400010000005cd6040001000000d4
:10dcac0064d604000100000084d6040001000000ca
:10dcbc00a4d6040001000000c4d60400010000003a
:10dccc00e4d60400010000003cd704000100000071
:10dcdc0092d7040001000000e4d70400010000000a
:10dcec0020d804000100000040d80400010000000e
:10dcfc0004d904000100000038d904000100000020
:10dd0c00a8d9040001000000c8d9040001000000db
:10dd1c00e8d9040001000000fad904000100000059
:10dd2c0024da0400010000004eda04001ce9ff7f35
:10dd3c0014db040020e9ff7f38db040024e9ff7fbb
:10dd4c0056db04000100000068db04000100000049
:10dd5c007cdb0400010000008cdb040001000000ef
:10dd6c009adb040008e9ff7fc0dc0400010000001e
:10dd7c00d4dc040001000000e8dc04000100000019
:10dd8c001cdd040048ecff7f70de04000100000085
:10dd9c0008e404000100000010e40400fce6ff7f2e
:10ddac00ace4040001000000d8e404000100000011
:10ddbc0000e50400010000001ae50400e8e6ff7f1e
:10ddcc0070e50400ac07978010e60400e4e6ff7fe2
:10dddc0052e60400e8e6ff7f9ce60400ece6ff7fd9
:10ddec0052e704000100000062e70400010000009b
:10ddfc0072e70400e0e6ff7f2ce80400010000005d
:10de0c0064e80400dce6ff7f7ae80400010000000f
:10de1c00ace80400d8e6ff7fe0e80400dce6ff7f16
:10de2c0088ea040001000000b4ea040001000000cc
:10de3c00bcea040001000000ecea040034edff7fb2
:10de4c0020ec040001000000d4f1040001000000eb
:10de5c00dcf10400010000001cf2040064ebff7f05
:10de6c0044f3040001000000dcf804000100000091
:10de7c00e4f804000100000018f90400b0ebff7f87
:10de8c0014fa040001000000c8ff040001000000a7
:10de9c00d0ff0400010000000800050034eaff7ff9
:10deac00f000050001000000a406050001000000c0
:10debc00ac060500e4e8ff7fd40705000100000074
:10decc00840d0500010000008c0d05000100000010
:10dedc00c00d0500e8ebff7f940e0500010000006b
:10deec0048140500010000000c1b05008ceaff7fa4
:10defc00441b050001000000f42005000100000097
:10df0c007c2c0500010000009c2c05000100000089
:10df1c00bc2c050001000000dc2c050001000000f9
:10df2c00fc2c050001000000542d05000100000030
:10df3c00aa2d050001000000fc2d050001000000c9
:10df4c001c2e050001000000e02e05000100000061
:10df5c00142f050001000000842f050001000000b3
:10df6c00962f050001000000c02f050001000000e5
:10df7c00ea2f0500010000006c30050001000000d4
:10df8c008630050001000000a030050001000000f3
:10df9c00ba30050001000000e0300500010000006f
:10dfac0012310500010000004031050001000000a5
:10dfbc00a031050001000000d03105000100000077
:10dfcc001432050001000000503205000100000071
:10dfdc007832050001000000ee320500010000005f
:10dfec005433050001000000da3305000100000085
:10dffc00ce34050001000000f435050001000000de
:10e00c009445050001000000b44505000100000026
:10e01c00d445050001000000f44505000100000096
:10e02c001446050001000000344605000100000004
:10e03c008c46050001000000e246050001000000ce
:10e04c0034470500010000005447050001000000a2
:10e05c0018480500010000004c48050001000000b4
:10e06c006848050001000000d848050001000000c8
:10e07c00ea480500010000001449050001000000f9
:10e08c003e49050001000000604905000100000048
:10e09c009449050001000000a8490500010000009a
:10e0ac00bc49050001000000d0490500010000003a
:10e0bc00f649050001000000584e05000100000063
:10e0cc009457050001000000dc570500010000001a
:10e0dc002c580500010000006458050001000000e8
:10e0ec008058050001000000bc580500010000002c
:10e0fc00de58050001000000005905000100000079
:10e10c003c59050001000000885905000100000081
:10e11c00a859050001000000e859050001000000a5
:10e12c00445a050001000000a45a0500010000003b
:10e13c00005b0500010000000c5b05000100000005
:10e14c001c5b050001000000305b050001000000b5
:10e15c00805b050001000000b463050001000000b5
:10e16c004464050078e1ff7fb46505007ce1ff7f26
:10e17c003e66050080e1ff7fbe66050001000000e1
:10e18c007c67050001000000087305000100000019
:10e19c0038730500008404804c73050001000000f6
:10e1ac0048730500b0ad048010760500b0a803805c
:10e1bc0030760500ece9ff7f34760500f0e9ff7f4f
:10e1cc0040760500010000004076050001000000cb
:10e1dc007c890500010000005c9f05000100000027
:10e1ec008e9f050001000000a09f050001000000ab
:10e1fc00b09f050001000000c09f05000100000059
:10e20c00d09f050001000000e09f05000100000008
:10e21c00fa9f05000100000012a00500010000009b
:10e22c003ea005000100000056a005000100000002
:10e23c0072a00500010000008ea005000100000086
:10e24c00bca0050001000000c0a9050001000000f1
:10e25c000caa050024e4ff7f80aa05000100000041
:10e26c0020ab05000100000028ab050001000000f8
:10e27c0036ab0500010000004cab050001000000ae
:10e28c005cab050060e4ff7f78ab050064e4ff7fc6
:10e29c0094ab050068e4ff7fb0ab05006ce4ff7f36
:10e2ac00ccab050070e4ff7fe8ab050074e4ff7fa6
:10e2bc001cac050078e4ff7f48ac050001000000b1
:10e2cc0054ac05000100000062ac0500f8e2ff7fd1
:10e2dc00b0ac0500010000006aad050001000000b3
:10e2ec0034c30500010000005cc305000100000000
:10e2fc008ec3050001000000c0c305000100000032
:10e30c0030da05000100000074e2050058e5ff7fdb
:08e31c0094ee05000100000071
:020000040000fa
:10e324005ca00020040000000100000000000000c8
:10e33400283a02201c00000000000000bc3a022021
:10e344000400000001000000006cdc02c03a02205e
:10e354000400000000000000b43a022005000000a0
:10e3640000000000c43a0220040000000000000085
:10e37400c83a022004000000000000000000002051
:10e38400240200000000000024020020100000000d
:10e3940000000000d039022030000000010000001d
:10e3a400020000000400104000000300020070009e
:10e3b400b9fc00000000000005000000140020006b
:10e3c40000010000353600000000d700001bb70034
:10e3d400603a02201800000000000000cc3a02203d
:10e3e4000400000001000000aaaaaaaa943a02208c
:10e3f4000800000000000000d03a022004000000e1
:10e4040001000000389c000008040020549c000017
:10e41400000000004036022004010000000000005b
:10e42400f03802203c00000000000000fc34022010
:10e434004401000000000000783a022010000000af
:10e444000100000030313233343536373839414237
:10e4540043444546a0d701201104000000000000f9
:10e4640034020020a8000000000000005cce01205f
:10e474001b05000000000000dc0200200800000072
:10e484000000000064390220350000000000000094
:10e49400e402002010010000000000009c3a022069
:10e4a400080000000000000080f801203002000095
:10e4b4000100000064ee04000000000002000000ff
:10e4c4000100000000000000001000000000000037
:10e4d40068ee040074ee0400000000000004000074
:10e4e4000000000084ee040074ee0400000000004c
:10e4f400000200000000000090ee040074ee04002e
:10e5040000000000200000000000000068ee04008d
:10e514009cee0400000000008000000000000000e9
:10e5240084ee04009cee04000000000000010000e2
:10e534000000000090ee04009cee040000000000c7
:10e54400a8ee04000001000001000000010000002a
:10e5540000000000200000000000000068ee04003d
:10e56400acee040000000000800000000000000089
:10e5740084ee0400acee0400000000000001000082
:10e584000000000090ee0400acee04000000000067
:10e594006300000000000000000000000000000014
:10e5a4000000000063000000000000000000000004
:10e5b40000000000000000006300000000000000f4
:10e5c40000000000000000000000000048ef04000c
:10e5d4000001000001000000010000000000000034
:10e5e400200000000000000068ee04009cee04001f
:10e5f40000000000800000000000000090ee040015
:10e604009cee040000000000000400000000000074
:10e6140090ee040074ee04000000000063000000ab
:10e6240000000000000000000000000000000000e6
:10e634006300000000000000000000000000000073
:10e644000000000063000000000000000000000063
:10e65400000000000000000050ef04000001000072
:10e664000100000001000000000000000010000094
:10e674000000000068ee040074ee040000000000d6
:10e68400000400000000000090ee040074ee04009a
:10e6940000000000800000000000000090ee040074
:10e6a4009cee040000000000630000000000000075
:10e6b40000000000000000000000000063000000f3
:10e6c4000000000000000000000000000000000046
:10e6d40063000000000000000000000000000000d3
:10e6e4000000000060a00020500b000000000000ab
:10e6f400dcc00120c0060000000000009c3902209c
:10e7040033000000000000009cc70120c006000088
:10e7140000000000a43a02200800000000000000ed
:10e72400f40300200400000000000000883a0220e6
:10e734000c00000000000000b0fa012030020000cc
:10e7440001000000f00605000000000002000000c7
:10e7540001000000000000000010000000000000a4
:10e76400f406050000070500000000000004000096
:10e77400000000001007050000070500000000006d
:10e7840000020000000000001c070500000705004f
:10e79400000000002000000000000000f406050056
:10e7a40028070500000000008000000000000000b1
:10e7b4001007050028070500000000000001000004
:10e7c400000000001c0705002807050000000000e9
:10e7d40034070500000100000100000001000000f2
:10e7e400000000002000000000000000f406050006
:10e7f4003807050000000000800000000000000051
:10e8040010070500380705000000000000010000a3
:10e81400000000001c070500380705000000000088
:10e824006300000000000000000000000000000081
:10e834000000000063000000000000000000000071
:10e844000000000000000000630000000000000061
:10e85400000000000000000000000000d4070500d4
:10e8640000010000010000000100000000000000a1
:10e874002000000000000000f40605002807050041
:10e884000000000080000000000000001c070500dc
:10e89400280705000000000000040000000000003c
:10e8a4001c070500000705000000000063000000cd
:10e8b4000000000000000000000000000000000054
:10e8c40063000000000000000000000000000000e1
:10e8d40000000000630000000000000000000000d1
:10e8e4000000000000000000dc070500000100003b
:10e8f4000100000001000000000000000010000002
:10e9040000000000f40605000007050000000000f8
:10e9140000040000000000001c07050000070500bb
:10e924000000000080000000000000001c0705003b
:10e93400280705000000000063000000000000003c
:10e944000000000000000000000000006300000060
:10e9540000000000000000000000000000000000b3
:10e964006300000000000000000000000000000040
:10e974000000000018ba0120c106000000000000d9
:10e98400d43a02200400000000000000f803002034
:10e99400040000000000000048380220a800000025
:10e9a40000000000bcdf01206c0200000100000038
:10e9b40018f3030000000000020000000100000042
:10e9c4000000000000100000000000001cf3030021
:10e9d40028f3030000000000000400000000000011
:10e9e40038f3030028f303000000000000020000d5
:10e9f4000000000044f3030028f3030000000000bb
:10ea040020000000000000001cf3030050f303008a
:10ea140000000000800000000000000038f3030044
:10ea240050f303000000000000010000000000009b
:10ea340044f3030050f30300000000005cf3030000
:10ea440000010000010000000100000000000000bf
:10ea540020000000000000001cf3030060f303002a
:10ea640000000000800000000000000038f30300f4
:10ea740060f303000000000000010000000000003b
:10ea840044f3030060f3030000000000630000008f
:10ea94000000000000000000000000000000000072
:10eaa40063000000000000000000000000000000ff
:10eab40000000000630000000000000000000000ef
:10eac4000000000000000000fcf30300000100004f
:10ead4000100000001000000000000002000000010
:10eae400000000001cf3030050f3030000000000ca
:10eaf400800000000000000044f3030050f3030012
:10eb040000000000000400000000000044f30300c3
:10eb140028f3030000000000630000000000000070
:10eb2400000000000000000000000000630000007e
:10eb340000000000000000000000000000000000d1
:10eb4400630000000000000000000000000000005e
:10eb54000000000004f403000001000001000000b4
:10eb64000100000000000000001000000000000090
:10eb74001cf3030028f3030000000000000400005d
:10eb84000000000044f3030028f303000000000029
:10eb9400800000000000000044f3030050f3030071
:10eba40000000000630000000000000000000000fe
:10ebb40000000000000000006300000000000000ee
:10ebc40000000000000000000000000063000000de
:10ebd4000000000000000000000000000000000031
:10ebe40008c7002030c7002058c7002080c7002075
:10ebf400a8c70020d0c70020f8c7002020c80020e4
:10ec040048c8002070c8002098c80020c0c8002050
:10ec1400e8c8002010c9002038c9002048c00020de
:10ec24004809000000000000e0fc01203002000060
:10ec3400010000004816040000000000020000006b
:10ec440001000000000000000010000000000000af
:10ec54004c160400581604000000000000040000d4
:10ec640000000000681604005816040000000000ac
:10ec7400000200000000000074160400581604008e
:10ec84000000000020000000000000004c160400fa
:10ec94008016040000000000800000000000000056
:10eca4006816040080160400000000000001000043
:10ecb4000000000074160400801604000000000028
:10ecc4008c16040000010000010000000100000097
:10ecd4000000000020000000000000004c160400aa
:10ece40090160400000000008000000000000000f6
:10ecf40068160400901604000000000000010000e3
:10ed040000000000741604009016040000000000c7
:10ed1400630000000000000000000000000000008c
:10ed2400000000006300000000000000000000007c
:10ed3400000000000000000063000000000000006c
:10ed44000000000000000000000000002c17040078
:10ed540000010000010000000100000000000000ac
:10ed640020000000000000004c160400801604007f
:10ed74000000000080000000000000007416040081
:10ed840080160400000000000004000000000000e1
:10ed9400741604005816040000000000630000000c
:10eda400000000000000000000000000000000005f
:10edb40063000000000000000000000000000000ec
:10edc40000000000630000000000000000000000dc
:10edd40000000000000000003417040000010000df
:10ede400010000000100000000000000001000000d
:10edf400000000004c160400581604000000000037
:10ee040000040000000000007416040058160400fa
:10ee140000000000800000000000000074160400e0
:10ee240080160400000000006300000000000000e1
:10ee3400000000000000000000000000630000006b
:10ee440000000000000000000000000000000000be
:10ee5400630000000000000000000000000000004b
:10ee640000000000f4b60020540900000000000077
:10ee7400d83a022004000000000000002c390220cf
:10ee8400380000000000000030eb01203c020000cc
:10ee94000100000064830400000000000200000080
:10eea400010000000000000000100000000000004d
:10eeb4006883040074830400000000000004000060
:10eec4000000000084830400748304000000000038
:10eed400000200000000000090830400748304001a
:10eee400000000002000000000000000688304000f
:10eef4009c8304000000000080000000000000006b
:10ef0400848304009c8304000000000000010000ce
:10ef140000000000908304009c83040000000000b3
:10ef2400a8830400000100000100000001000000ab
:10ef340000000000200000000000000068830400be
:10ef4400ac8304000000000080000000000000000a
:10ef540084830400ac83040000000000000100006e
:10ef64000000000090830400ac8304000000000053
:10ef7400630000000000000000000000000000002a
:10ef8400000000006300000000000000000000001a
:10ef9400000000000000000063000000000000000a
:10efa400000000000000000000000000488404008d
:10efb400000100000100000001000000000000004a
:10efc4002000000000000000688304009c8304000b
:10efd4000000000080000000000000009083040096
:10efe4009c830400000000000004000000000000f6
:10eff4009083040074830400000000006300000098
:10f0040000000000000000000000000000000000fc
:10f014006300000000000000000000000000000089
:10f024000000000063000000000000000000000079
:10f0340000000000000000005084040000010000f3
:10f0440001000000010000000000000000100000aa
:10f0540000000000688304007483040000000000c2
:10f064000004000000000000908304007483040086
:10f0740000000000800000000000000090830400f5
:10f084009c830400000000006300000000000000f6
:10f094000000000000000000000000006300000009
:10f0a400000000000000000000000000000000005c
:10f0b40063000000000000000000000000000000e9
:10f0c400000000001f1c1f1e1f1e1f1f1e1f1e1fcf
:10f0d40064260120400700000000000010ff01200a
:10f0e4003002000001000000180f050000000000bd
:10f0f40002000000010000000000000000100000f9
:10f10400000000001c0f0500280f0500000000008f
:10f114000004000000000000380f0500280f05005f
:10f12400000000000002000000000000440f050081
:10f13400280f05000000000020000000000000006f
:10f144001c0f0500500f05000000000080000000a7
:10f1540000000000380f0500500f050000000000fb
:10f164000001000000000000440f0500500f0500de
:10f17400000000005c0f0500000100000100000019
:10f18400010000000000000020000000000000005a
:10f194001c0f0500600f0500000000008000000047
:10f1a40000000000380f0500600f0500000000009b
:10f1b4000001000000000000440f0500600f05007e
:10f1c40000000000630000000000000000000000d8
:10f1d40000000000000000006300000000000000c8
:10f1e40000000000000000000000000063000000b8
:10f1f400000000000000000000000000000000000b
:10f20400fc0f0500000100000100000001000000e7
:10f214000000000020000000000000001c0f05009a
:10f22400500f0500000000008000000000000000f6
:10f23400440f0500500f050000000000000400000a
:10f2440000000000440f0500280f05000000000026
:10f254006300000000000000000000000000000047
:10f264000000000063000000000000000000000037
:10f274000000000000000000630000000000000027
:10f284000000000000000000000000000410050061
:10f294000001000001000000010000000000000067
:10f2a40000100000000000001c0f0500280f0500de
:10f2b400000000000004000000000000440f0500ee
:10f2c400280f05000000000080000000000000007e
:10f2d400440f0500500f050000000000630000000b
:10f2e400000000000000000000000000000000001a
:10f2f40063000000000000000000000000000000a7
:10f304000000000063000000000000000000000096
:10f314000000000000000000cc1701204c07000092
:10f324000000000040010220300200000100000043
:10f3340020bd0400000000000200000001000000e5
:10f3440000000000001000000000000024bd0400c4
:10f3540030bd0400000000000004000000000000b4
:10f3640040bd040030bd04000000000000020000a5
:10f37400000000004cbd040030bd0400000000008b
:10f38400200000000000000024bd040058bd04005b
:10f3940000000000800000000000000040bd0400e8
:10f3a40058bd04000000000000010000000000003f
:10f3b4004cbd040058bd04000000000064bd0400fe
:10f3c4000001000001000000010000000000000036
:10f3d400200000000000000024bd040068bd0400fb
:10f3e40000000000800000000000000040bd040098
:10f3f40068bd0400000000000001000000000000df
:10f404004cbd040068bd040000000000630000005f
:10f4140000000000000000000000000000000000e8
:10f424006300000000000000000000000000000075
:10f434000000000063000000000000000000000065
:10f44400000000000000000004be040000010000f1
:10f454000100000001000000000000002000000086
:10f464000000000024bd040058bd0400000000009a
:10f4740080000000000000004cbd040058bd0400e2
:10f484000000000000040000000000004cbd040067
:10f4940030bd040000000000630000000000000014
:10f4a40000000000000000000000000063000000f5
:10f4b4000000000000000000000000000000000048
:10f4c40063000000000000000000000000000000d5
:10f4d400000000000cbe0400000100000100000058
:10f4e4000100000000000000001000000000000007
:10f4f40024bd040030bd040000000000000400002e
:10f50400000000004cbd040030bd040000000000f9
:10f5140080000000000000004cbd040058bd040041
:10f524000000000063000000000000000000000074
:10f534000000000000000000630000000000000064
:10f544000000000000000000000000006300000054
:10f5540000000000000000000000000000000000a7
:10f564001843012018070000000000007003022067
:10f574003002000001000000a8ac040000000000fc
:10f584000200000001000000000000000010000064
:10f5940000000000acac0400b8ac040000000000a3
:10f5a4000004000000000000c8ac0400b8ac040073
:10f5b400000000000002000000000000d4ac0400c1
:10f5c400b8ac0400000000002000000000000000af
:10f5d400acac0400e0ac04000000000080000000bb
:10f5e40000000000c8ac0400e0ac0400000000000f
:10f5f4000001000000000000d4ac0400e0ac0400f2
:10f6040000000000ecac0400000100000100000058
:10f6140001000000000000002000000000000000c5
:10f62400acac0400f0ac040000000000800000005a
:10f6340000000000c8ac0400f0ac040000000000ae
:10f644000001000000000000d4ac0400f0ac040091
:10f654000000000063000000000000000000000043
:10f664000000000000000000630000000000000033
:10f674000000000000000000000000006300000023
:10f684000000000000000000000000000000000076
:10f694008cad040000010000010000000100000026
:10f6a400000000002000000000000000acac0400da
:10f6b400e0ac040000000000800000000000000036
:10f6c400d4ac0400e0ac040000000000000400001e
:10f6d40000000000d4ac0400b8ac0400000000003a
:10f6e40063000000000000000000000000000000b3
:10f6f40000000000630000000000000000000000a3
:10f704000000000000000000630000000000000092
:10f7140000000000000000000000000094ad0400a0
:10f7240000010000010000000100000000000000d2
:10f734000010000000000000acac0400b8ac0400f1
:10f74400000000000004000000000000d4ac04002d
:10f75400b8ac0400000000008000000000000000bd
:10f76400d4ac0400e0ac040000000000630000001e
:10f774000000000000000000000000000000000085
:10f784006300000000000000000000000000000012
:10f794000000000063000000000000000000000002
:10f7a400000000000000000038b30120e006000063
:10f7b40000000000ac3a0220080000000000000035
:10f7c400f1b6002003000000010000000101010067
:10f7d400443a0220190000000000000044370220cf
:10f7e4000101000000000000e4f1012034020000e7
:10f7f40001000000e4b40400000000000200000066
:10f8040001000000000000000010000000000000e3
:10f81400e8b40400f4b40400000000000004000094
:10f824000000000004b50400f4b40400000000006b
:10f83400000200000000000010b50400f4b404004d
:10f84400000000002000000000000000e8b40400f4
:10f854001cb504000000000080000000000000004f
:10f8640004b504001cb50400000000000001000001
:10f874000000000010b504001cb5040000000000e6
:10f8840028b5040000010000010000000100000090
:10f89400000000002000000000000000e8b40400a4
:10f8a4002cb50400000000008000000000000000ef
:10f8b40004b504002cb504000000000000010000a1
:10f8c4000000000010b504002cb504000000000086
:10f8d40063000000000000000000000000000000c1
:10f8e40000000000630000000000000000000000b1
:10f8f40000000000000000006300000000000000a1
:10f90400000000000000000000000000c8b5040072
:10f9140000010000010000000100000000000000e0
:10f924002000000000000000e8b404001cb504003e
:10f9340000000000800000000000000010b504007a
:10f944001cb50400000000000004000000000000da
:10f9540010b50400f4b404000000000063000000cb
:10f964000000000000000000000000000000000093
:10f974006300000000000000000000000000000020
:10f984000000000063000000000000000000000010
:10f994000000000000000000d0b5040000010000d9
:10f9a4000100000001000000000000000010000041
:10f9b40000000000e8b40400f4b4040000000000f7
:10f9c400000400000000000010b50400f4b40400ba
:10f9d40000000000800000000000000010b50400da
:10f9e4001cb50400000000006300000000000000db
:10f9f40000000000000000000000000063000000a0
:10fa040000000000000000000000000000000000f2
:10fa1400630000000000000000000000000000007f
:10fa240000000000c3000000987b012000070000d4
:10fa34000000000028e20120410200000100000053
:10fa4400583804000000000002000000010000001b
:10fa54000000000000100000000000005c380400fa
:10fa640068380400000000000004000000000000ea
:10fa74007838040068380400000000000002000028
:10fa8400000000008438040068380400000000000e
:10fa940020000000000000005c38040090380400de
:10faa400000000008000000000000000783804001e
:10fab4009038040000000000000100000000000075
:10fac4008438040090380400000000009c380400ce
:10fad400000100000100000001000000000000001f
:10fae40020000000000000005c380400a03804007e
:10faf40000000000800000000000000078380400ce
:10fb0400a038040000000000000100000000000014
:10fb140084380400a03804000000000063000000e2
:10fb240000000000000000000000000000000000d1
:10fb3400630000000000000000000000000000005e
:10fb4400000000006300000000000000000000004e
:10fb540000000000000000003c3904000001000027
:10fb6400010000000100000000000000200000006f
:10fb7400000000005c38040090380400000000001d
:10fb84008000000000000000843804009038040065
:10fb9400000000000004000000000000843804009d
:10fba400683804000000000063000000000000004a
:10fbb40000000000000000000000000063000000de
:10fbc4000000000000000000000000000000000031
:10fbd40063000000000000000000000000000000be
:10fbe400000000004439040000010000010000008e
:10fbf40001000000000000000010000000000000f0
:10fc04005c380400683804000000000000040000b0
:10fc1400000000008438040068380400000000007c
:10fc240080000000000000008438040090380400c4
:10fc3400000000006300000000000000000000005d
:10fc4400000000000000000063000000000000004d
:10fc5400000000000000000000000000630000003d
:10fc64000000000000000000000000000000000090
:10fc740001000000090000001e0000002c0100002b
:10fc84000100000050fa00207d0700000000000081
:10fc9400a00502203002000001000000cc40040056
:10fca400000000000200000001000000000000004d
:10fcb4000010000000000000d0400400dc400400fc
:10fcc400000000000004000000000000ec400400fc
:10fcd400dc400400000000000002000000000000fe
:10fce400f8400400dc400400000000002000000094
:10fcf40000000000d04004000441040000000000a3
:10fd04008000000000000000ec40040004410400f6
:10fd1400000000000001000000000000f8400400a2
:10fd24000441040000000000104104000001000030
:10fd3400010000000100000000000000200000009d
:10fd440000000000d0400400144104000000000042
:10fd54008000000000000000ec4004001441040096
:10fd6400000000000001000000000000f840040052
:10fd740014410400000000006300000000000000c3
:10fd8400000000000000000000000000630000000c
:10fd9400000000000000000000000000000000005f
:10fda40063000000000000000000000000000000ec
:10fdb40000000000b0410400000100000100000048
:10fdc400010000000000000020000000000000000e
:10fdd400d040040004410400000000008000000042
:10fde40000000000f840040004410400000000008a
:10fdf4000004000000000000f8400400dc4004009f
:10fe0400000000006300000000000000000000008b
:10fe1400000000000000000063000000000000007b
:10fe2400000000000000000000000000630000006b
:10fe340000000000000000000000000000000000be
:10fe4400b8410400000100000100000001000000ae
:10fe5400000000000010000000000000d04004007a
:10fe6400dc4004000000000000040000000000006a
:10fe7400f8400400dc4004000000000080000000a2
:10fe840000000000f84004000441040000000000e9
:10fe940063000000000000000000000000000000fb
:10fea40000000000630000000000000000000000eb
:10feb40000000000000000006300000000000000db
:10fec400000000000000000000000000d00101203c
:10fed4005807000000000000d00702203002000094
:10fee4000100000094f6040000000000020000007d
:10fef40001000000000000000010000000000000ed
:10ff040098f60400a4f604000000000000040000b9
:10ff140000000000b4f60400a4f604000000000091
:10ff24000002000000000000c0f60400a4f6040073
:10ff340000000000200000000000000098f604000b
:10ff4400ccf6040000000000800000000000000067
:10ff5400b4f60400ccf60400000000000001000028
:10ff640000000000c0f60400ccf60400000000000d
:10ff7400d8f60400000100000100000001000000a8
:10ff840000000000200000000000000098f60400bb
:10ff9400dcf6040000000000800000000000000007
:10ffa400b4f60400dcf604000000000000010000c8
:10ffb40000000000c0f60400dcf6040000000000ad
:10ffc40063000000000000000000000000000000ca
:10ffd40000000000630000000000000000000000ba
:10ffe40000000000000000006300000000000000aa
:10fff40000000000000000000000000078f704008a
:020000040001f9
:1000040000010000010000000100000000000000e9
:10001400200000000000000098f60400ccf6040064
:10002400000000008000000000000000c0f6040092
:10003400ccf60400000000000004000000000000f2
:10004400c0f60400a4f604000000000063000000f1
:10005400000000000000000000000000000000009c
:100064006300000000000000000000000000000029
:100074000000000063000000000000000000000019
:10008400000000000000000080f7040000010000f0
:10009400010000000100000000000000001000004a
:1000a4000000000098f60400a4f60400000000001c
:1000b4000004000000000000c0f60400a4f60400e0
:1000c400000000008000000000000000c0f60400f2
:1000d400ccf60400000000006300000000000000f3
:1000e40000000000000000000000000063000000a9
:1000f40000000000000000000000000000000000fc
:100104006300000000000000000000000000000088
:100114000000000098820120f806000000000000a2
:10012400000a0220300200000100000028fc030045
:1001340000000000020000000100000000000000b8
:1001440000100000000000002cfc030038fc030039
:1001540000000000000400000000000048fc030050
:1001640038fc030000000000000200000000000052
:1001740054fc030038fc03000000000020000000d1
:10018400000000002cfc030060fc030000000000e1
:10019400800000000000000048fc030060fc030035
:1001a40000000000000100000000000054fc0300f7
:1001b40060fc0300000000006cfc03000001000070
:1001c4000100000001000000000000002000000009
:1001d400000000002cfc030070fc03000000000081
:1001e400800000000000000048fc030070fc0300d5
:1001f40000000000000100000000000054fc0300a7
:1002040070fc030000000000630000000000000018
:100214000000000000000000000000006300000077
:1002240000000000000000000000000000000000ca
:100234006300000000000000000000000000000057
:10024400000000000cfd030000010000010000009c
:100254000100000000000000200000000000000079
:100264002cfc030060fc0300000000008000000080
:100274000000000054fc030060fc030000000000c8
:10028400000400000000000054fc030038fc0300dc
:1002940000000000630000000000000000000000f7
:1002a40000000000000000006300000000000000e7
:1002b40000000000000000000000000063000000d7
:1002c400000000000000000000000000000000002a
:1002d40014fd030000010000010000000100000003
:1002e4000000000000100000000000002cfc0300cf
:1002f40038fc0300000000000004000000000000bf
:1003040054fc030038fc03000000000080000000df
:100314000000000054fc030060fc03000000000027
:100324006300000000000000000000000000000066
:100334000000000063000000000000000000000056
:100344000000000000000000630000000000000046
:10035400000000000000000000000000d8da0020c7
:100364004008000000000000300c022030020000b1
:1003740001000000a88b040000000000020000003f
:100384000100000000000000001000000000000058
:10039400ac8b0400b88b04000000000000040000d3
:1003a40000000000c88b0400b88b040000000000ab
:1003b4000002000000000000d48b0400b88b04008d
:1003c400000000002000000000000000ac8b0400ce
:1003d400e08b04000000000080000000000000002a
:1003e400c88b0400e08b0400000000000001000042
:1003f40000000000d48b0400e08b04000000000027
:10040400ec8b04000001000001000000010000006a
:10041400000000002000000000000000ac8b04007d
:10042400f08b0400000000008000000000000000c9
:10043400c88b0400f08b04000000000000010000e1
:1004440000000000d48b0400f08b040000000000c6
:100454006300000000000000000000000000000035
:100464000000000063000000000000000000000025
:100474000000000000000000630000000000000015
:100484000000000000000000000000008c8c04004c
:100494000001000001000000010000000000000055
:1004a4002000000000000000ac8b0400e08b04007e
:1004b400000000008000000000000000d48b040055
:1004c400e08b0400000000000004000000000000b5
:1004d400d48b0400b88b040000000000630000000b
:1004e4000000000000000000000000000000000008
:1004f4006300000000000000000000000000000095
:100504000000000063000000000000000000000084
:100514000000000000000000948c040000010000b2
:1005240001000000010000000000000000100000b5
:1005340000000000ac8b0400b88b04000000000035
:100544000004000000000000d48b0400b88b0400f9
:10055400000000008000000000000000d48b0400b4
:10056400e08b0400000000006300000000000000b5
:100574000000000000000000000000006300000014
:100584000000000000000000000000000000000067
:1005940063000000000000000000000000000000f4
:1005a40000000000acf20020a407000000000000de
:1005b400600e02203002000001000000fce903008c
:1005c4000000000002000000010000000000000024
:1005d400001000000000000000ea03000cea030021
:1005e4000000000000040000000000001cea0300fa
:1005f4000cea0300000000000002000000000000fc
:1006040028ea03000cea03000000000020000000b8
:100614000000000000ea030034ea030000000000c8
:1006240080000000000000001cea030034ea03001c
:1006340000000000000100000000000028ea0300a0
:1006440034ea03000000000040ea03000001000057
:100654000100000001000000000000002000000074
:100664000000000000ea030044ea03000000000068
:1006740080000000000000001cea030044ea0300bc
:1006840000000000000100000000000028ea030050
:1006940044ea0300000000006300000000000000c2
:1006a40000000000000000000000000063000000e3
:1006b4000000000000000000000000000000000036
:1006c40063000000000000000000000000000000c3
:1006d40000000000e0ea0300000100000100000047
:1006e40001000000000000002000000000000000e5
:1006f40000ea030034ea0300000000008000000068
:100704000000000028ea030034ea030000000000af
:10071400000400000000000028ea03000cea0300c3
:100724000000000063000000000000000000000062
:100734000000000000000000630000000000000052
:100744000000000000000000000000006300000042
:100754000000000000000000000000000000000095
:10076400e8ea0300000100000100000001000000ad
:1007740000000000001000000000000000ea030078
:100784000cea030000000000000400000000000068
:1007940028ea03000cea03000000000080000000c7
:1007a4000000000028ea030034ea0300000000000f
:1007b40063000000000000000000000000000000d2
:1007c40000000000630000000000000000000000c2
:1007d40000000000000000006300000000000000b2
:1007e40000000000000000000000000090c900208c
:1007f400ca0800000000000090100220300200002f
:1008040001000000d8720400000000000200000093
:1008140001000000000000000010000000000000c3
:10082400dc720400e8720400000000000004000010
:1008340000000000f8720400e872040000000000e8
:10084400000200000000000004730400e8720400c9
:10085400000000002000000000000000dc72040022
:10086400107304000000000080000000000000007d
:10087400f87204001073040000000000000100007e
:100884000000000004730400107304000000000062
:100894001c730400000100000100000001000000be
:1008a400000000002000000000000000dc720400d2
:1008b400207304000000000080000000000000001d
:1008c400f87204002073040000000000000100001e
:1008d4000000000004730400207304000000000002
:1008e40063000000000000000000000000000000a1
:1008f4000000000063000000000000000000000091
:100904000000000000000000630000000000000080
:10091400000000000000000000000000bc730400a0
:1009240000010000010000000100000000000000c0
:100934002000000000000000dc72040010730400ba
:1009440000000000800000000000000004730400a8
:100954001073040000000000000400000000000008
:1009640004730400e8720400000000006300000047
:100974000000000000000000000000000000000073
:100984006300000000000000000000000000000000
:1009940000000000630000000000000000000000f0
:1009a4000000000000000000c47304000001000007
:1009b4000100000001000000000000000010000021
:1009c40000000000dc720400e87204000000000073
:1009d400000400000000000004730400e872040036
:1009e4000000000080000000000000000473040008
:1009f4001073040000000000630000000000000009
:100a0400000000000000000000000000630000007f
:100a140000000000000000000000000000000000d2
:100a2400630000000000000000000000000000005f
:100a34000000000054ac0120e406000000000000a7
:100a44004cf601203102000001000000e02f0400f8
:100a5400000000000200000001000000000000008f
:100a64000010000000000000e42f0400f02f040038
:100a7400000000000004000000000000003004003a
:100a8400f02f04000000000000020000000000003d
:100a94000c300400f02f04000000000020000000cf
:100aa40000000000e42f04001830040000000000df
:100ab4008000000000000000003004001830040032
:100ac4000000000000010000000000000c300400e1
:100ad400183004000000000024300400000100006d
:100ae40001000000010000000000000020000000e0
:100af40000000000e42f040028300400000000007f
:100b040080000000000000000030040028300400d1
:100b14000000000000010000000000000c30040090
:100b24002830040000000000630000000000000002
:100b3400000000000000000000000000630000004e
:100b440000000000000000000000000000000000a1
:100b5400630000000000000000000000000000002e
:100b640000000000c4300400000100000100000087
:100b74000100000000000000200000000000000050
:100b8400e42f04001830040000000000800000007e
:100b9400000000000c3004001830040000000000c5
:100ba40000040000000000000c300400f02f0400da
:100bb40000000000630000000000000000000000ce
:100bc40000000000000000006300000000000000be
:100bd40000000000000000000000000063000000ae
:100be4000000000000000000000000000000000001
:100bf400cc300400000100000100000001000000ee
:100c0400000000000010000000000000e42f0400b9
:100c1400f02f0400000000000004000000000000a9
:100c24000c300400f02f04000000000080000000dd
:100c3400000000000c300400183004000000000024
:100c4400630000000000000000000000000000003d
:100c5400000000006300000000000000000000002d
:100c6400000000000000000063000000000000001d
:100c7400000000000000000000000000010000006f
:100c84005cd200207c08000000000000c01202209a
:100c94003002000001000000c4fe04000000000057
:100ca400020000000100000000000000001000002d
:100cb40000000000c8fe0400d4fe04000000000090
:100cc4000004000000000000e4fe0400d4fe040060
:100cd400000000000002000000000000f0fe04001c
:100ce400d4fe04000000000020000000000000000a
:100cf400c8fe0400fcfe04000000000080000000a8
:100d040000000000e4fe0400fcfe040000000000fb
:100d14000001000000000000f0fe0400fcfe0400de
:100d24000000000008ff04000001000001000000b2
:100d3400010000000000000020000000000000008e
:100d4400c8fe04000cff0400000000008000000046
:100d540000000000e4fe04000cff0400000000009a
:100d64000001000000000000f0fe04000cff04007d
:100d7400000000006300000000000000000000000c
:100d840000000000000000006300000000000000fc
:100d940000000000000000000000000063000000ec
:100da400000000000000000000000000000000003f
:100db400a8ff040000010000010000000100000081
:100dc400000000002000000000000000c8fe040035
:100dd400fcfe040000000000800000000000000091
:100de400f0fe0400fcfe040000000000000400000b
:100df40000000000f0fe0400d4fe04000000000027
:100e0400630000000000000000000000000000007b
:100e1400000000006300000000000000000000006b
:100e2400000000000000000063000000000000005b
:100e3400000000000000000000000000b0ff0400fb
:100e4400000100000100000001000000000000009b
:100e54000010000000000000c8fe0400d4fe0400de
:100e6400000000000004000000000000f0fe040088
:100e7400d4fe040000000000800000000000000018
:100e8400f0fe0400fcfe040000000000630000000b
:100e9400000000000000000000000000000000004e
:100ea40063000000000000000000000000000000db
:100eb40000000000630000000000000000000000cb
:100ec40000000000000000009074012008070000ea
:100ed40000000000f01402203002000001000000b5
:100ee400e89304000000000002000000010000007c
:100ef400000000000010000000000000ec9304005b
:100f0400f89304000000000000040000000000004a
:100f140008940400f893040000000000000200009c
:100f24000000000014940400f89304000000000082
:100f34002000000000000000ec9304002094040052
:100f4400000000008000000000000000089404007d
:100f540020940400000000000001000000000000d4
:100f64001494040020940400000000002c94040055
:100f7400000100000100000001000000000000006a
:100f84002000000000000000ec93040030940400f2
:100f9400000000008000000000000000089404002d
:100fa4003094040000000000000100000000000074
:100fb4001494040030940400000000006300000056
:100fc400000000000000000000000000000000001d
:100fd40063000000000000000000000000000000aa
:100fe400000000006300000000000000000000009a
:100ff4000000000000000000cc9404000001000088
:1010040001000000010000000000000020000000ba
:1010140000000000ec930400209404000000000091
:1010240080000000000000001494040020940400d8
:1010340000000000000400000000000014940400fc
:10104400f8930400000000006300000000000000aa
:101054000000000000000000000000006300000029
:10106400000000000000000000000000000000007c
:101074006300000000000000000000000000000009
:1010840000000000d49404000001000001000000ee
:10109400010000000000000000100000000000003b
:1010a400ec930400f8930400000000000004000026
:1010b4000000000014940400f893040000000000f1
:1010c4008000000000000000149404002094040038
:1010d40000000000630000000000000000000000a9
:1010e4000000000000000000630000000000000099
:1010f4000000000000000000000000006300000089
:1011040000000000000000000000000000000000db
:10111400f43b0120240700000000000020170220f7
:10112400300200000100000068d703000000000046
:101134000200000001000000000000000010000098
:10114400000000006cd7030078d703000000000003
:10115400000400000000000088d7030078d70300d3
:1011640000000000000200000000000094d703000b
:1011740078d70300000000002000000000000000f9
:101184006cd70300a0d7030000000000800000001b
:101194000000000088d70300a0d70300000000006f
:1011a400000100000000000094d70300a0d7030052
:1011b40000000000acd703000001000001000000a3
:1011c40001000000000000002000000000000000fa
:1011d4006cd70300b0d703000000000080000000bb
:1011e4000000000088d70300b0d70300000000000f
:1011f400000100000000000094d70300b0d70300f2
:101204000000000063000000000000000000000077
:101214000000000000000000630000000000000067
:101224000000000000000000000000006300000057
:1012340000000000000000000000000000000000aa
:101244004cd8030000010000010000000100000070
:101254000000000020000000000000006cd7030024
:10126400a0d7030000000000800000000000000080
:1012740094d70300a0d7030000000000000400007e
:101284000000000094d7030078d70300000000009a
:1012940063000000000000000000000000000000e7
:1012a40000000000630000000000000000000000d7
:1012b40000000000000000006300000000000000c7
:1012c40000000000000000000000000054d80300eb
:1012d4000001000001000000010000000000000007
:1012e40000100000000000006cd7030078d7030052
:1012f40000000000000400000000000094d7030078
:1013040078d7030000000000800000000000000007
:1013140094d70300a0d7030000000000630000007e
:1013240000000000000000000000000000000000b9
:101334006300000000000000000000000000000046
:101344000000000063000000000000000000000036
:101354000000000000000000b0ab0020410b0000c2
:1013640000000000501902203002000001000000bb
:10137400c8d50400000000000200000001000000c5
:10138400000000000010000000000000ccd50400a4
:10139400d8d5040000000000000400000000000094
:1013a400e8d50400d8d504000000000000020000c5
:1013b40000000000f4d50400d8d5040000000000ab
:1013c4002000000000000000ccd5040000d604007a
:1013d400000000008000000000000000e8d50400c8
:1013e40000d604000000000000010000000000001e
:1013f400f4d5040000d60400000000000cd604005c
:1014040000010000010000000100000000000000d5
:101414002000000000000000ccd5040010d6040019
:10142400000000008000000000000000e8d5040077
:1014340010d60400000000000001000000000000bd
:10144400f4d5040010d6040000000000630000007e
:101454000000000000000000000000000000000088
:101464006300000000000000000000000000000015
:101474000000000063000000000000000000000005
:101484000000000000000000acd6040000010000d1
:101494000100000001000000000000002000000026
:1014a40000000000ccd5040000d6040000000000b9
:1014b4008000000000000000f4d5040000d6040001
:1014c400000000000004000000000000f4d5040047
:1014d400d8d50400000000006300000000000000f4
:1014e4000000000000000000000000006300000095
:1014f40000000000000000000000000000000000e8
:101504006300000000000000000000000000000074
:1015140000000000b4d60400000100000100000037
:1015240001000000000000000010000000000000a6
:10153400ccd50400d8d5040000000000000400004d
:1015440000000000f4d50400d8d504000000000019
:101554008000000000000000f4d5040000d6040060
:101564000000000063000000000000000000000014
:101574000000000000000000630000000000000004
:1015840000000000000000000000000063000000f4
:101594000000000000000000000000000000000047
:1015a400786601200907000000000000b0e6012071
:1015b4003e02000001000000289c0400000000001e
:1015c4000200000001000000000000000010000004
:1015d400000000002c9c0400389c04000000000063
:1015e4000004000000000000489c0400389c040033
:1015f400000000000002000000000000549c0400f1
:10160400389c0400000000002000000000000000de
:101614002c9c0400609c040000000000800000007a
:1016240000000000489c0400609c040000000000ce
:101634000001000000000000549c0400609c0400b1
:10164400000000006c9c0400000100000100000088
:101654000100000000000000200000000000000065
:101664002c9c0400709c040000000000800000001a
:1016740000000000489c0400709c0400000000006e
:101684000001000000000000549c0400709c040051
:1016940000000000630000000000000000000000e3
:1016a40000000000000000006300000000000000d3
:1016b40000000000000000000000000063000000c3
:1016c4000000000000000000000000000000000016
:1016d4000c9d040000010000010000000100000056
:1016e4000000000020000000000000002c9c04000a
:1016f400609c040000000000800000000000000066
:10170400549c0400609c04000000000000040000dd
:1017140000000000549c0400389c040000000000f9
:101724006300000000000000000000000000000052
:101734000000000063000000000000000000000042
:101744000000000000000000630000000000000032
:10175400000000000000000000000000149d0400d0
:101764000001000001000000010000000000000072
:1017740000100000000000002c9c0400389c0400b1
:10178400000000000004000000000000549c04005d
:10179400389c0400000000008000000000000000ed
:1017a400549c0400609c04000000000063000000de
:1017b4000000000000000000000000000000000025
:1017c40063000000000000000000000000000000b2
:1017d40000000000630000000000000000000000a2
:1017e4000000000000000000284e4f57545229000a
:1017f40028575452290000002809012051070000ed
:1018040000000000801b02203002000001000000e4
:1018140058c50400000000000200000001000000a0
:101824000000000000100000000000005cc504007f
:1018340068c504000000000000040000000000006f
:1018440078c5040068c50400000000000002000020
:101854000000000084c5040068c504000000000006
:1018640020000000000000005cc5040090c50400d6
:1018740000000000800000000000000078c50400a3
:1018840090c50400000000000001000000000000fa
:1018940084c5040090c50400000000009cc5040039
:1018a4000001000001000000010000000000000031
:1018b40020000000000000005cc50400a0c5040076
:1018c40000000000800000000000000078c5040053
:1018d400a0c504000000000000010000000000009a
:1018e40084c50400a0c504000000000063000000db
:1018f40000000000000000000000000000000000e4
:101904006300000000000000000000000000000070
:101914000000000063000000000000000000000060
:1019240000000000000000003cc6040000010000ac
:101934000100000001000000000000002000000081
:10194400000000005cc5040090c504000000000015
:10195400800000000000000084c5040090c504005d
:1019640000000000000400000000000084c5040022
:1019740068c50400000000006300000000000000cf
:1019840000000000000000000000000063000000f0
:101994000000000000000000000000000000000043
:1019a40063000000000000000000000000000000d0
:1019b4000000000044c60400000100000100000013
:1019c4000100000000000000001000000000000002
:1019d4005cc5040068c504000000000000040000a9
:1019e4000000000084c5040068c504000000000075
:1019f400800000000000000084c5040090c50400bd
:101a0400000000006300000000000000000000006f
:101a1400000000000000000063000000000000005f
:101a2400000000000000000000000000630000004f
:101a340000000000000000000000000000000000a2
:101a4400585801201107000000000000b01d0220ba
:101a540030020000010000003817050000000000fb
:101a6400020000000100000000000000001000005f
:101a7400000000003c1705004817050000000000a6
:101a84000004000000000000581705004817050076
:101a940000000000000200000000000064170500c0
:101aa40048170500000000002000000000000000ae
:101ab4003c170500701705000000000080000000be
