:020000040000fa
:10c00000f8ff032061bb0600cf87060063da060055
:10c01000cf8706005dda0600cf870600000000002b
:10c020000000000000000000000000005d34060079
:10c03000cf87060000000000c9360600373706002b
:10c04000cf870600cf870600cf870600cf87060080
:10c05000cf870600cf870600cf870600cf87060070
:10c06000cf870600cf870600cf87060079be030082
:10c07000cf870600cf870600cf870600cf87060050
:10c08000cf870600cf870600cf870600cf87060040
:10c09000cf870600cf870600cf870600cf87060030
:10c0a000cf870600cf870600cf870600cf87060020
:10c0b000cf870600cf870600cf870600cf87060010
:10c0c000cf870600cf870600cf870600cf87060000
:10c0d000cf870600cf870600cf870600cf870600f0
:10c0e000cf870600cf870600000000000000000098
:10c0f00000000000b97c0600cf870600cf8706004d
:10c10000cf870600cf870600cf870600cf870600bf
:10c11000cf870600cf870600957b0100ad7b01002d
:10c12000c57b0100cf870600cf870600cf870600ba
:10c13000cf870600cf870600cf870600cf8706008f
:10c14000cf870600cf870600f57b01000d7c01003c
:10c15000257c0100cf870600cf870600cf87060029
:10c16000cf870600cf870600cf870600cf8706005f
:10c17000cf870600cf870600cf870600cf8706004f
:10c18000cf870600cf870600cf870600cf8706003f
:10c19000cf870600cf870600cf870600cf8706002f
:10c1a000cf870600cf870600cf870600cf8706001f
:10c1b000cf870600cf870600cf870600cf8706000f
:10c1c000cf870600cf870600cf870600cf870600ff
:10c1d000cf870600cf870600cf870600cf870600ef
:10c1e000cf870600cf870600cf870600cf870600df
:10c1f000cf870600cf870600cf870600cf870600cf
:10c20000cf870600cf870600cf870600cf870600be
:10c21000cf870600cf870600cf8706007d85060002
:10c22000cf870600cf870600cf870600cf8706009e
:10c23000cf870600cf870600cf870600cf8706008e
:10c24000cf870600cf870600cf870600cf8706007e
:10c25000cf870600cf870600cf870600cf8706006e
:04c26000cf8706007e
:020000040000fa
:10c2640003970181b0b00884000000000d9701819c
:10c27400b0b00b840000000009970181b0b00b84ba
:10c284000000000003970181b0b0088400000000a2
:10c2940003970181b0b00884000000000197018178
:10c2a400b0b008840000000001970181b0b0088498
:10c2b4000000000001970181b0b008840000000074
:10c2c40001970181b0b00884000000000397018148
:10c2d400b0b008840000000003970181b0b0088466
:10c2e4000000000003970181b0b008840000000042
:10c2f40001970181b0b0088400000000019701811a
:10c30400b0b008840000000005970181b0b0088433
:10c314000000000001970181b0b008840000000013
:10c3240002970181b0b009840000000001970181e7
:10c33400b0b008840000000001970181b0b0088407
:10c344000000000003970181b0b0088400000000e1
:10c3540001970181b0b008840000000001970181b9
:10c36400b0b008840000000001970181b0b00884d7
:10c374000000000001970181b0b0088400000000b3
:10c3840003970181b0b00884000000000397018185
:10c39400b0b008840000000003970181b0b00884a5
:10c3a4000000000003970181b0b008840000000081
:10c3b40004970181b0b00984000000000597018151
:10c3c400b0b008840000000005970181b0b0088473
:10c3d4000000000001970181b0b008840000000053
:10c3e40001970181b0b00884000000000397018127
:10c3f400b0b008840000000003970181b0b0088445
:10c404000000000001970181b0b008840000000022
:10c4140001970181b0b008840000000005970181f4
:10c42400b0b008840000000003970181b0b0088414
:10c434000000000003970181b0b0088400000000f0
:10c4440003970181b0b008840000000003970181c4
:10c45400b0b008840000000001970181b0b00884e6
:10c464000000000001970181b0b0088400000000c2
:10c4740003970181b0b00884000000000197018196
:10c48400b0b008840000000001970181b0b00884b6
:10c494000000000003970181b0b008840000000090
:10c4a40001970181b0b00884000000000397018166
:10c4b400b0b008840000000003970181b0b0088484
:10c4c4000000000003970181b0b008840000000060
:10c4d40009970181b0b0088400000000039701812e
:10c4e400b0b008840000000001970181b0b0088456
:10c4f4000000000003970181b0b008840000000030
:10c504000b970181b0b008840000000005970181f9
:10c51400b0b008840000000001970181b0b0088425
:10c524000000000004970181b0b0098400000000fd
:10c5340004970181b0b009840000000001970181d3
:10c54400b0b008840000000002970181b0b00984f3
:10c554000000000001970181b0b0088400000000d1
:10c5640001970181b0b008840000000005970181a3
:10c57400b0b008840000000001970181b0b00884c5
:10c584000000000003970181b0b00884000000009f
:10c5940001970181b0030884000000000197018124
:10c5a400b0b008840000000007970181b0b008848f
:10c5b4000000000001970181b0b008840000000071
:10c5c40001970181b0b00884000000000597018143
:10c5d400b0b008840000000005970181b0b0088461
:10c5e4000000000001970181b0b008840000000041
:10c5f40001970181b0b00884000000000397018115
:10c60400b0b008840000000003970181b0b0088432
:10c614000000000003970181b0b00884000000000e
:10c6240007970181b0b008840000000007970181da
:10c63400b0b008840000000006970181b0b00984fe
:10c644000000000005970181b0b0088400000000dc
:10c6540003970181b0b008840000000001970181b4
:10c66400b0b008840000000001970181b0b00884d4
:10c674000000000005970181b0b0088400000000ac
:10c6840001970181b0b00884000000000597018182
:10c69400b0b008840000000003970181b0b00884a2
:10c6a400000000000d970181b0b008840000000074
:10c6b40009970181b0b00884000000000997018146
:10c6c400b0b008840000000002970181b0b0098472
:10c6d4000000000001970181b0b03b84000000001d
:10c6e40003970181b0b03b840000000003970181ef
:10c6f400b0b008840000000003970181b0b0088442
:10c704000000000003970181b0b00884000000001d
:10c7140003970181b0b008840000000003970181f1
:10c72400b0b008840000000005970181b0b008840f
:10c734000000000003970181b0b0088400000000ed
:10c7440001970181b0b008840000000001970181c5
:10c75400b0b008840000000001970181b0b00884e3
:10c764000000000001970181b0b0088400000000bf
:10c7740001970181b0b00884000000000197018195
:10c78400b0b00b840000000001970181b0b00b84ad
:10c794000000000001970181b0b00b84000000008c
:10c7a40001970181b0b00884000000000597018161
:10c7b400b0b008840000000001970181b0b0088483
:10c7c4000000000009970181b0b008840000000057
:10c7d40001970181b0030b840000000004970181dc
:10c7e400b0030984000000000d970181b0b00884f3
:10c7f4000000000005970181b0b00884000000002b
:10c8040005970181b0b008840000000007970181fa
:10c81400b0b008840000000003970181b0b0088420
:10c824000000000003970181b0b0088400000000fc
:10c8340005970181b0b008840000000009970181c8
:10c84400b0b008840000000005970181b0b00884ee
:10c854000000000005970181b0b0088400000000ca
:10c8640006970181b0b0098400000000019701819e
:10c87400b0b008840000000005970181b0b00884be
:10c884000000000007970181b0b008840000000098
:10c8940007970181b0b00884000000000797018168
:10c8a400b0b008840000000007970181b0b008848c
:10c8b4000000000007970181b0b008840000000068
:10c8c40001970181b0b00884000000000597018140
:10c8d400b0b00b840000000005970181b0b008845b
:10c8e4000000000001970181b0b00884000000003e
:10c8f40001970181b0b00884000000000197018114
:10c90400b0b008840000000003970181b0b008842f
:10c914000000000003970181b0b00884000000000b
:10c9240003970181b0b008840000000001970181e1
:10c93400b0b008840000000001970181b0b0088401
:10c944000000000001970181b0b0088400000000dd
:10c9540003970181b0b00b840000000001970181ae
:10c96400b0b008840000000001970181b0b00884d1
:10c97400000000000d970181b0b0088400000000a1
:10c9840001970181b0b00884000000000197018183
:10c99400b0b008840000000001970181b0b00884a1
:10c9a4000000000005970181b0b008840000000079
:10c9b40005970181b0b0088400000000059701814b
:10c9c400b0b008840000000001970181b0b0088471
:10c9d4000000000004970181b0b009840000000049
:10c9e40001970181b0b00884000000000197018123
:10c9f400b0b008840000000001970181b0b0088441
:10ca04000000000007970181b0b008840000000016
:10ca140003970181b0b008840000000001970181f0
:10ca2400b0b008840000000001970181b0b0088410
:10ca34000000000002970181b0b0098400000000ea
:10ca440008970181b0b009840000000005970181b6
:10ca5400b0b008840000000001970181b0b00b84dd
:10ca64000000000001970181b0b0088400000000bc
:10ca740001970181b0b00884000000000197018192
:10ca8400b0b008840000000001970181b0b00884b0
:10ca94000000000001970181b0b00884000000008c
:10caa40001970181b0b00884000000000197018162
:10cab400b0b008840000000001970181b0b0088480
:10cac4000000000001970181b0b00884000000005c
:10cad40006970181b0b00984000000000597018128
:10cae400b0b008840000000001970181b0b0088450
:10caf4000000000001970181b0b00884000000002c
:10cb040005970181b0b008840000000001970181fd
:10cb1400b0b008840000000001970181b0b008841f
:10cb24000000000005970181b0b0088400000000f7
:10cb340001970181b0b008840000000001970181d1
:10cb4400b0b008840000000001970181b0b00884ef
:10cb54000000000001970181b0b0088400000000cb
:10cb64000b970181b0b00884000000000597018193
:10cb7400b0b008840000000001970181b0b00884bf
:10cb84000000000001970181b0b00884000000009b
:10cb940001970181b0b00884000000000197018171
:10cba400b0b008840000000001970181b0b008848f
:10cbb4000000000008b10181b0b000840000000052
:10cbc40008b10181b0b0008400000000f8b500bfd6
:10cbd400f8bc08bc9e46704751d8060055c20600f2
:10cbe4006577030045260300794d06008d33060062
:10cbf40059cd0500d95a02000d9206003182030076
:10cc04002d6f0200dd8c0300b1530500996c030005
:10cc1400c1f005007dfc02004d41060091ed0300ca
:10cc24009ddd02007d990500c9e90500d9130200c4
:10cc34006582050039ed020069040600853f0300a2
:10cc4400c1db050015c6050039970200cde20500d9
:10cc5400fd72050071b705002da1050019970300a9
:10cc6400cd0a03009da8050041a10300a5f7050016
:10cc740079630500994b0500198a0500456b050089
:10cc8400cd91050031c803000db0050099d405000d
:10cc9400fdda0300f8b500bff8bc08bc9e46704737
:04cca40031c2060093
:020000040000fa
:10cca800602c010001000000e82c010034fcff7f2b
:10ccb800b82e010001000000f42e010030fcff7fb7
:10ccc8000830010001000000403001002cfcff7f0b
:10ccd8000c3101000100000040310100010000009a
:10cce8008431010001000000303201000100000021
:10ccf8006c320100010000009832010001000000c0
:10cd0800f832010000fcff7f4834010001000000f8
:10cd1800b8340100fcfbff7f783a010001000000f5
:10cd2800e83a0100f8fbff7f883f0100fcfbff7f2a
:10cd3800e03f010000fcff7f5040010001000000bf
:10cd48009046010001000000007901000100000088
:10cd580020790100010000003a790100010000007b
:10cd68005a790100010000007a79010001000000f1
:10cd78009679010001000000b67901000100000069
:10cd8800d2790100010000002a7a010001000000a8
:10cd9800807a010001000000d27a01000100000041
:10cda8000e7b0100010000004a7b01000100000029
:10cdb8006a7b0100010000002c7c01004cf7ff7f1a
:10cdc800887c010001000000187d010001000000be
:10cdd800887d010001000000ae7d01000100000017
:10cde800c07d010001000000ea7d010028f7ff7ff7
:10cdf8001a7e01002cf7ff7fe07e010030f7ff7fed
:10ce08007481010001000000188201000100000087
:10ce18004883010024f7ff7f2284010028f7ff7f61
:10ce280050860100010000007286010024f7ff7f90
:10ce38008886010028f7ff7fae8601000100000008
:10ce4800f286010001000000888c0100010000004a
:10ce5800908c010001000000b08c0100010000006e
:10ce6800d08c010001000000048d010001000000c9
:10ce78002e8d010001000000b48d0100ab129780d7
:10ce88004890010010f8ff7fb690010014f8ff7f6a
:10ce98007291010018f8ff7ff09101001cf8ff7fe4
:10cea800d892010020f8ff7fc095010024f8ff7f89
:10ceb800c496010028f8ff7f1c9a010001000000b9
:10cec80064a001000100000070a001000100000042
:10ced80090a0010001000000aaa0010001000000cc
:10cee800caa0010001000000eaa001000100000042
:10cef80006a101000100000026a1010001000000b8
:10cf080042a10100010000009aa1010001000000f7
:10cf1800f0a101000100000042a201000100000090
:10cf280062a201000100000024a30100010000002a
:10cf380058a30100d0f3ff7fb4a301000100000053
:10cf480024a401000100000036a401000100000033
:10cf580060a40100010000008aa40100b4f3ff7f6f
:10cf6800baa40100b8f3ff7ff0a601000100000099
:10cf78001ca701000100000032a701000100000009
:10cf880048a70100010000005ea701009cf3ff7f95
:10cf980074a70100a0f3ff7f8aa701000100000029
:10cfa800a0a7010001000000bca7010001000000cb
:10cfb800d0a701008cf3ff7f98a9010090f3ff7fb1
:10cfc800c2a9010094f3ff7feca901000100000051
:10cfd80004aa010090f3ff7fa2aa010094f3ff7f47
:10cfe800ccaa010098f3ff7ff0aa0100010000001d
:10cff80050ac010001000000b0ac010001000000cd
:10d008009cad010084f3ff7fbaad010088f3ff7f78
:10d01800d8ad01008cf3ff7ff6ad010001000000e0
:10d0280068ae010001000000c6ae010080f3ff7f7a
:10d03800d4af010001000000fcaf010001000000b6
:10d0480078b0010074f3ff7f36b1010001000000e1
:10d0580084b101000100000098b101000100000046
:10d06800acb1010001000000c0b1010001000000e6
:10d07800d4b1010001000000f8b101000100000076
:10d0880024b201000100000072b20100010000009a
:10d09800b8b2010001000000dcb20100010000008c
:10d0a80010b301000100000088b301003cf9ff7fc4
:10d0b80084b6010040f9ff7fc4b6010044f9ff7f40
:10d0c80098b9010048f9ff7f80ba01004cf9ff7f49
:10d0d800e4ba010050f9ff7f50bb010001000000d5
:10d0e8002cbc01004cf9ff7f78be0100ac01978091
:10d0f80070bf01000100000038c6010001000000f7
:10d10800e8eb01000100000008ec0100010000004c
:10d1180022ec01000100000042ec010001000000c7
:10d1280062ec0100010000007eec0100010000003b
:10d138009eec010001000000baec010001000000b3
:10d1480012ed01000100000068ed0100010000007f
:10d15800baed010001000000f6ed01000100000039
:10d1680032ee01000100000052ee01000100000053
:10d1780014ef01000100000048ef010048f2ff7fb2
:10d18800a4ef01000100000034f0010001000000dc
:10d19800a4f0010001000000caf001000100000035
:10d1a800dcf001000100000006f1010001000000b0
:10d1b80030f101001cf2ff7f60f101000100000066
:10d1c8006ef1010001000000e2f2010010f2ff7fa1
:10d1d8002af3010014f2ff7f8af3010018f2ff7f9f
:10d1e800dcf301001cf2ff7f18f4010001000000cd
:10d1f8002cf401000100000040f4010001000000cf
:10d2080054f401000100000068f40100010000006e
:10d218007cf401000100000090f40100010000000e
:10d2280076f50100010000008af50100e0f1ff7fba
:10d23800a2f50100e4f1ff7fd2f50100e8f1ff7fdc
:10d2480064f60100ecf1ff7f9af60100f0f1ff7f30
:10d2580068f90100f4f1ff7f98f90100f8f1ff7f08
:10d26800aaf90100fcf1ff7fbcf9010000f2ff7f81
:10d27800faf901000100000046fa0100fcf1ff7f05
:10d288006afa010000f2ff7f8efa010004f2ff7fc4
:10d29800d8fa0100ecf5ff7f50fc0100f0f5ff7fa4
:10d2a80070fe0100f4f5ff7ff8ff0100f8f5ff7f3d
:10d2b8001c020200fcf5ff7f4c04020000f6ff7f11
:10d2c800c004020001000000cc0a020001000000b6
:10d2d800d40a02006cf6ff7ffc0b020070f6ff7f99
:10d2e800a00d020001000000e80d02006cf6ff7faf
:10d2f8000c0f020070f6ff7f1412020001000000fc
:10d30800481202006cf6ff7f1814020070f6ff7fc7
:10d318008014020001000000181a02000100000039
:10d32800201a0200010000007c1a0200010000001f
:10d33800e61a0200010000005a1b0200010000006a
:10d34800a61b020088f4ff7fe41b02008cf4ff7f19
:10d35800221e0200010000002e1e020088f4ff7f3a
:10d36800702202008cf4ff7f0a23020090f4ff7ff2
:10d3780060230200010000009c2302008cf4ff7f60
:10d388005424020090f4ff7f7824020094f4ff7f75
:10d39800b424020098f4ff7f0c2502009cf4ff7f60
:10d3a800fc260200a0f4ff7f54270200a4f4ff7fac
:10d3b800ac270200a8f4ff7f5e28020001000000ed
:10d3c8007e28020001000000ac28020001000000d5
:10d3d800b428020001000000d42802000100000067
:10d3e800f4280200010000001429020001000000d6
:10d3f80034290200010000008c290200010000000d
:10d40800e229020001000000342a020001000000a5
:10d41800702a020001000000902a020001000000aa
:10d42800542b020001000000882b020001000000bc
:10d43800f82b020001000000182c02000100000077
:10d44800382c0200010000004a2c020001000000f4
:10d45800742c0200010000009e2c02000100000054
:10d46800502d020020f6ff7fa02d020024f6ff7f3a
:10d4780018300200010000004c36020001000000d4
:10d48800a444020001000000c4440200010000009e
:10d49800e44402000100000004450200010000000d
:10d4a80024450200010000007c4502000100000044
:10d4b800d2450200010000002446020001000000dd
:10d4c8004446020001000000084702000100000075
:10d4d8003c47020001000000ac47020001000000c8
:10d4e800be47020001000000e847020001000000fa
:10d4f80012480200010000004648020090edff7f3c
:10d508009448020094edff7fc248020098edff7f27
:10d51800d64802009cedff7f06490200a0edff7f80
:10d528002c490200ae119780b84b02009cedff7f9a
:10d53800f44b0200010000000e4c02000100000044
:10d548001e4c0200010000002e4c020001000000e9
:10d55800564c020080edff7f7a4c0200010000006b
:10d56800dc50020001000000e45d020028f4ff7fa7
:10d57800085f02002cf4ff7fc460020030f4ff7fd4
:10d588008062020001000000b46202002cf4ff7ff8
:10d59800f863020030f4ff7f4464020001000000d9
:10d5a800dc69020001000000288c0200ccf1ff7f3a
:10d5b800d08c0200d0f1ff7fb88e0200d4f1ff7f3b
:10d5c8000091020001000000c8960200010000005e
:10d5d800d096020088ecff7f10970200010000003f
:10d5e8004c97020084ecff7fc899020088ecff7f0b
:10d5f8004c9a02008cecff7fbc9a0200088497804a
:10d60800049b02000100000054a102000100000078
:10d618005ca1020074f0ff7f24a502000100000055
:10d6280008ac02000100000010ac020010f1ff7ffe
:10d63800ccac020014f1ff7f1cae020018f1ff7f92
:10d648005caf02001cf1ff7fa4b0020001000000e3
:10d6580084b60200010000008cb6020010f4ff7fbf
:10d6680008b7020014f4ff7f40ba0200010000006e
:10d67800a0c0020001000000a8c0020038f4ff7f2b
:10d68800c8c002003cf4ff7fb8c4020001000000db
:10d69800a8ca020001000000b0ca02000100000090
:10d6a800bcca02000100000014cb02000100000007
:10d6b80034cb0200b0a90280cccb0200b0b0a88065
:10d6c8001ccc02000100000020cc02000100000078
:10d6d8001ccc02000100000018cc0200b0b0aa80e7
:10d6e80050cc0200ae71b28020cd020001000000d3
:10d6f8001ccd0200ab3f388074cd02000100000051
:10d7080080cd0200b0b0aa80bccd020001000000ac
:10d71800c4cd020001000000c0cd020001000000dd
:10d72800c4cd020001000000f0cd0200010000009d
:10d7380000ce0200010000002cce02000100000013
:10d7480040ce0200ab0eb280a8ce0200b0af0a8075
:10d7580070d10200010000006cd10200010000003d
:10d7680068d102000100000064d10200ab3f0480d0
:10d7780018e702000100000050e70200ecf3ff7f09
:10d78800ecea020001000000a0f002000100000025
:10d7980018fa02000100000038fa02000100000037
:10d7a80058fa0200010000008cfa02000100000093
:10d7b800b6fa0200d8f3ff7f7cfb0200dcf3ff7fa0
:10d7c80040fc0200e0f3ff7f4cfd02000100000076
:10d7d8002403030001000000880c0300010000007e
:10d7e800740d030001000000b00d030088f0ff7ff6
:10d7f800dc0f030001000000901503000100000089
:10d80800145303000100000034530300010000001a
:10d818004e530300010000006e5303000100000096
:10d828008e53030001000000aa530300010000000a
:10d83800ca53030001000000e65303000100000082
:10d848000654030001000000c85403000100000052
:10d85800fc54030080edff7f5855030001000000d1
:10d868008255030001000000ac55030074edff7ff2
:10d87800dc5503000100000004560300010000000d
:10d888003656030068edff7faa5603006cedff7f54
:10d89800ee56030070edff7f3857030074edff7fed
:10d8a8007c57030001000000e457030070edff7f80
:10d8b800da58030074edff7fd459030078edff7f39
:10d8c8002c5a03007cedff7f625a03000100000020
:10d8d8008a5a030001000000b88403000100000018
:10d8e800d884030001000000f28403000100000056
:10d8f80012850300010000003285030001000000ca
:10d908004e850300010000006e8503000100000041
:10d918008a85030001000000e28503000100000081
:10d9280038860300010000008a8603000100000019
:10d93800c686030001000000028703000100000002
:10d948002287030001000000e487030001000000b3
:10d958001888030054eeff7f74880300010000005c
:10d96800048903000100000074890300010000001d
:10d978009a89030001000000ac890300010000003f
:10d98800d689030001000000008a030028eeff7f0b
:10d99800308a030001000000028b030024eeff7fa1
:10d9a8002ca50300010000004ca5030001000000a5
:10d9b80066a503000100000086a503000100000021
:10d9c800a6a5030001000000c2a503000100000095
:10d9d800e2a5030001000000fea50300010000000d
:10d9e80056a6030001000000aca6030001000000d9
:10d9f800fea60300010000001ea7030001000000ae
:10da0800e0a703000100000014a803005cebff7fff
:10da180070a8030001000000e0a803000100000056
:10da2800f2a80300010000001ca903000100000087
:10da380046a9030040ebff7f76a9030044ebff7f74
:10da480038aa030048ebff7f68aa03004cebff7f6e
:10da58008caa030050ebff7fd0ab0300010000004d
:10da6800f0ab03004cebff7f16ac03000100000095
:10da78002aac0300010000003eac030040ebff7f2e
:10da880052ac030001000000fc6804000100000023
:10da9800166904000100000032690400010000005a
:10daa8004e69040058f0ff7fa86904005cf0ff7f0e
:10dab800d8690400088497809c6a040058f0ff7fa6
:10dac800146b040001000000c8700400010000008d
:10dad800d07004000100000014710400010000006f
:10dae800bc71040088ecff7f207304000100000073
:10daf800b878040001000000ac80040001000000b8
:10db0800c680040001000000e2800400010000005b
:10db1800fe800400c4efff7f58810400c8efff7f38
:10db280088810400088497800c820400c4efff7f7a
:10db3800848204000100000038880400010000000d
:10db48004088040001000000a889040004f0ff7f59
:10db5800308a040001000000e48f04000100000086
:10db6800ec8f040001000000389004000100000060
:10db780084900400d4eeff7fa89104000100000007
:10db88007497040001000000309f040001000000a9
:10db9800589f040001000000609f0400010000007d
:10dba8006c9f0400ab109780f8a0040001000000ef
:10dbb800aca6040001000000b4a6040001000000a7
:10dbc800cea6040001000000eaa60400010000003f
:10dbd80006a704004cefff7f60a7040050efff7f0b
:10dbe80090a7040054efff7feca7040058efff7fd5
:10dbf80064a804000100000018ae04000100000041
:10dc080020ae04000100000098ae040050efff7f32
:10dc1800f8af040001000000acb5040001000000ea
:10dc2800b4b50400a4ecff7f4cb704000100000069
:10dc380044bd0400010000004cbd040001000000c8
:10dc480090bd04000100000028be040014eeff7f10
:10dc580034bf040001000000ccc40400010000002f
:10dc6800d4c4040038eeff7f08c504003ceeff7ff3
:10dc780040c60400010000001ccc040001000000a4
:10dc880024cc04000100000054cc0400e8eeff7f1f
:10dc9800b8cd0400010000006cd3040001000000ae
:10dca80074d304000100000094d30400a8edff7fa2
:10dcb800ecd4040001000000b0da04000100000008
:10dcc800b8da040001000000d8da040001000000fe
:10dcd800f8da04000100000018db0400010000006d
:10dce80038db04000100000090db040001000000a4
:10dcf800e6db04000100000038dc0400010000003d
:10dd080074dc04000100000094dc04000100000041
:10dd180058dd0400010000008cdd04000100000053
:10dd2800fcdd0400010000001cde0400010000000e
:10dd38003cde0400010000004ede0400010000008b
:10dd480078de040001000000a2de040000e9ff7f85
:10dd580068df040004e9ff7f8cdf040008e9ff7f27
:10dd6800aadf040001000000bcdf0400010000007d
:10dd7800d0df040001000000e0df04000100000023
:10dd8800eedf0400ece8ff7f14e10400010000006e
:10dd980028e10400010000003ce10400010000004b
:10dda80070e1040038ecff7fc4e2040001000000c9
:10ddb8005ce804000100000064e80400e0e6ff7f7e
:10ddc80000e90400010000002ce904000100000043
:10ddd80054e90400010000006ee90400cce6ff7f6e
:10dde800c4e90400ac07978064ea0400c8e6ff7f32
:10ddf800a6ea0400cce6ff7ff0ea0400d0e6ff7f45
:10de0800a6eb040001000000b6eb040001000000ce
:10de1800c6eb0400c4e6ff7f80ec040001000000ac
:10de2800b8ec0400c0e6ff7fceec0400010000005f
:10de380000ed0400bce6ff7f34ed0400c0e6ff7f80
:10de4800dcee04000100000008ef040001000000ff
:10de580010ef04000100000040ef040024edff7ff4
:10de680074f004000100000028f60400010000001e
:10de780030f604000100000070f6040054ebff7f48
:10de880098f704000100000030fd040001000000c4
:10de980038fd0400010000006cfd0400a0ebff7fca
:10dea80068fe0400010000001c04050001000000d9
:10deb80024040500010000005c04050018eaff7f47
:10dec8004405050001000000f80a050001000000f3
:10ded800000b0500c8e8ff7f280c050001000000c2
:10dee800d811050001000000e01105000100000044
:10def80014120500d8ebff7fe812050001000000ae
:10df08009c18050001000000601f05007ceaff7fe7
:10df1800981f0500010000004825050001000000c9
:10df2800d030050001000000f030050001000000bd
:10df3800103105000100000030310500010000002b
:10df48005031050001000000a83105000100000063
:10df5800fe310500010000005032050001000000fc
:10df68007032050001000000343305000100000094
:10df78006833050001000000d833050001000000e7
:10df8800ea33050001000000143405000100000018
:10df98003e34050001000000c03405000100000007
:10dfa800da34050001000000f43405000100000027
:10dfb8000e350500010000003435050001000000a1
:10dfc80066350500010000009435050001000000d9
:10dfd800f4350500010000002436050001000000aa
:10dfe8006836050001000000a436050001000000a5
:10dff800cc36050001000000423705000100000092
:10e00800a8370500010000002e38050001000000b7
:10e018002239050001000000483a0500010000000f
:10e02800e849050001000000084a05000100000059
:10e03800284a050001000000484a050001000000c8
:10e04800684a050001000000884a05000100000038
:10e05800e04a050001000000364b05000100000001
:10e06800884b050001000000a84b050001000000d6
:10e078006c4c050001000000a04c050001000000e8
:10e08800bc4c0500010000002c4d050001000000fb
:10e098003e4d050001000000684d0500010000002c
:10e0a800924d050001000000b44d0500010000007c
:10e0b800e84d050001000000fc4d050001000000ce
:10e0c800104e050001000000244e0500010000006c
:10e0d8004a4e050001000000ac5205000100000096
:10e0e800e85b050001000000305c0500010000004d
:10e0f800805c050001000000b85c0500010000001c
:10e10800d45c050001000000105d0500010000005e
:10e11800325d050001000000545d050001000000ab
:10e12800905d050001000000dc5d050001000000b5
:10e13800fc5d0500010000003c5e050001000000d8
:10e14800985e050001000000f85e0500010000006f
:10e15800545f050001000000605f05000100000039
:10e16800705f050001000000845f050001000000e9
:10e17800d45f0500010000000868050001000000e8
:10e18800986805005ce1ff7f086a050060e1ff7f91
:10e19800926a050064e1ff7f126b05000100000030
:10e1a800d06b0500010000005c770500010000004d
:10e1b8008c77050000840480a0770500010000002a
:10e1c8009c770500b0ad0480647a0500b0a8038090
:10e1d800847a0500dce9ff7f887a0500e0e9ff7fa3
:10e1e800947a050001000000947a050001000000ff
:10e1f800d08d050001000000c0a30500010000004b
:10e20800f2a305000100000004a4050001000000bd
:10e2180014a405000100000024a40500010000006a
:10e2280034a405000100000044a40500010000001a
:10e238005ea405000100000076a4050001000000ae
:10e24800a2a4050001000000baa405000100000016
:10e25800d6a4050001000000f2a40500010000009a
:10e2680020a505000100000024ae05000100000003
:10e2780070ae050008e4ff7fe4ae05000100000071
:10e2880084af0500010000008caf0500010000000c
:10e298009aaf050001000000b0af050001000000c2
:10e2a800c0af050044e4ff7fdcaf050048e4ff7f12
:10e2b800f8af05004ce4ff7f14b0050050e4ff7f81
:10e2c80030b0050054e4ff7f4cb0050058e4ff7ff0
:10e2d80080b005005ce4ff7facb0050001000000e1
:10e2e800b8b0050001000000c6b00500dce2ff7f01
:10e2f80014b1050001000000ceb1050001000000c6
:10e3080098c7050001000000c0c705000100000013
:10e31800f2c705000100000024c805000100000044
:10e3280094de050001000000d8e605003ce5ff7f0b
:08e33800f8f2050001000000ed
:020000040000fa
:10e340005ca00020040000000100000000000000ac
:10e35000703a02201c00000000000000043b022074
:10e360000400000001000000006cdc02083b0220f9
:10e370000400000000000000fc3a0220050000003c
:10e38000000000000c3b0220040000000000000020
:10e39000103b0220040000000000000000000020ec
:10e3a00024020000000000002402002010000000f1
:10e3b00000000000183a02203000000001000000b8
:10e3c0000200000004001040000003000200700082
:10e3d000b9fc00000000000005000000140020004f
:10e3e00000010000353600000000d700001bb70018
:10e3f000a83a02201800000000000000143b022090
:10e400000400000001000000aaaaaaaadc3a022027
:10e410000800000000000000183b0220040000007b
:10e4200001000000389c000008040020549c0000fb
:10e4300000000000883602200401000000000000f7
:10e44000383902203c000000000000004435022062
:10e450004401000000000000c03a0220100000004b
:10e46000010000003031323334353637383941421b
:10e4700043444546d8d701201104000000000000a5
:10e4800034020020a80000000000000094ce01200b
:10e490001b05000000000000dc0200200800000056
:10e4a00000000000ac390220350000000000000030
:10e4b000e40200201001000000000000e43a022005
:10e4c0000800000000000000f8fa012030020000ff
:10e4d00001000000d4f2040000000000020000006f
:10e4e000010000000000000000100000000000001b
:10e4f000d8f20400e4f20400000000000004000070
:10e5000000000000f4f20400e4f204000000000047
:10e51000000200000000000000f30400e4f2040028
:10e52000000000002000000000000000d8f20400fd
:10e530000cf3040000000000800000000000000058
:10e54000f4f204000cf304000000000000010000dd
:10e550000000000000f304000cf3040000000000c1
:10e5600018f3040000010000010000000100000099
:10e57000000000002000000000000000d8f20400ad
:10e580001cf30400000000008000000000000000f8
:10e59000f4f204001cf3040000000000000100007d
:10e5a0000000000000f304001cf304000000000061
:10e5b00063000000000000000000000000000000f8
:10e5c00000000000630000000000000000000000e8
:10e5d00000000000000000006300000000000000d8
:10e5e000000000000000000000000000b8f304007c
:10e5f0000001000001000000010000000000000018
:10e600002000000000000000d8f204000cf3040019
:10e6100000000000800000000000000000f3040083
:10e620000cf30400000000000004000000000000e3
:10e6300000f30400e4f204000000000063000000a6
:10e6400000000000000000000000000000000000ca
:10e650006300000000000000000000000000000057
:10e660000000000063000000000000000000000047
:10e670000000000000000000c0f3040000010000e2
:10e680000100000001000000000000000010000078
:10e6900000000000d8f20400e4f2040000000000d2
:10e6a000000400000000000000f30400e4f2040095
:10e6b00000000000800000000000000000f30400e3
:10e6c0000cf30400000000006300000000000000e4
:10e6d00000000000000000000000000063000000d7
:10e6e000000000000000000000000000000000002a
:10e6f00063000000000000000000000000000000b7
:10e700000000000060a00020500b0000000000008e
:10e7100014c10120c006000000000000e4390220fe
:10e720003300000000000000d4c70120c006000034
:10e7300000000000ec3a0220080000000000000089
:10e74000f40300200400000000000000d03a022082
:10e750000c0000000000000028fd01203002000035
:10e7600001000000600b0500000000000200000036
:10e770000100000000000000001000000000000088
:10e78000640b0500700b0500000000000004000091
:10e7900000000000800b0500700b05000000000069
:10e7a00000020000000000008c0b0500700b05004b
:10e7b000000000002000000000000000640b0500c5
:10e7c000980b050000000000800000000000000021
:10e7d000800b0500980b0500000000000001000000
:10e7e000000000008c0b0500980b050000000000e5
:10e7f000a40b050000010000010000000100000062
:10e80000000000002000000000000000640b050074
:10e81000a80b0500000000008000000000000000c0
:10e82000800b0500a80b050000000000000100009f
:10e83000000000008c0b0500a80b05000000000084
:10e840006300000000000000000000000000000065
:10e850000000000063000000000000000000000055
:10e860000000000000000000630000000000000045
:10e87000000000000000000000000000440c050043
:10e880000001000001000000010000000000000085
:10e890002000000000000000640b0500980b05003c
:10e8a0000000000080000000000000008c0b05004c
:10e8b000980b0500000000000004000000000000ac
:10e8c0008c0b0500700b05000000000063000000c9
:10e8d0000000000000000000000000000000000038
:10e8e00063000000000000000000000000000000c5
:10e8f00000000000630000000000000000000000b5
:10e9000000000000000000004c0c050000010000a9
:10e9100001000000010000000000000000100000e5
:10e9200000000000640b0500700b050000000000f3
:10e9300000040000000000008c0b0500700b0500b7
:10e940000000000080000000000000008c0b0500ab
:10e95000980b0500000000006300000000000000ac
:10e960000000000000000000000000006300000044
:10e970000000000000000000000000000000000097
:10e980006300000000000000000000000000000024
:10e990000000000050ba0120c10600000000000085
:10e9a0001c3b02200400000000000000f8030020cf
:10e9b000040000000000000090380220a8000000c1
:10e9c00000000000f4df01206c02000001000000e4
:10e9d00078f70300000000000200000001000000c2
:10e9e0000000000000100000000000007cf70300a1
:10e9f00088f7030000000000000400000000000091
:10ea000098f7030088f703000000000000020000f0
:10ea100000000000a4f7030088f7030000000000d6
:10ea200020000000000000007cf70300b0f70300a6
:10ea300000000000800000000000000098f70300c4
:10ea4000b0f703000000000000010000000000001b
:10ea5000a4f70300b0f7030000000000bcf70300b8
:10ea600000010000010000000100000000000000a3
:10ea700020000000000000007cf70300c0f7030046
:10ea800000000000800000000000000098f7030074
:10ea9000c0f70300000000000001000000000000bb
:10eaa000a4f70300c0f703000000000063000000ab
:10eab0000000000000000000000000000000000056
:10eac00063000000000000000000000000000000e3
:10ead00000000000630000000000000000000000d3
:10eae00000000000000000005cf8030000010000ce
:10eaf00001000000010000000000000020000000f4
:10eb0000000000007cf70300b0f7030000000000e5
:10eb10008000000000000000a4f70300b0f703002d
:10eb2000000000000004000000000000a4f7030043
:10eb300088f70300000000006300000000000000f0
:10eb40000000000000000000000000006300000062
:10eb500000000000000000000000000000000000b5
:10eb60006300000000000000000000000000000042
:10eb70000000000064f80300000100000100000034
:10eb80000100000000000000001000000000000074
:10eb90007cf7030088f70300000000000004000079
:10eba00000000000a4f7030088f703000000000045
:10ebb0008000000000000000a4f70300b0f703008d
:10ebc00000000000630000000000000000000000e2
:10ebd00000000000000000006300000000000000d2
:10ebe00000000000000000000000000063000000c2
:10ebf0000000000000000000000000000000000015
:10ec00000cc7002034c700205cc7002084c7002048
:10ec1000acc70020d4c70020fcc7002024c80020b7
:10ec20004cc8002074c800209cc80020c4c8002024
:10ec3000ecc8002014c900203cc900204cc00020b2
:10ec4000480900000000000058ff012030020000c9
:10ec500001000000b81a04000000000002000000db
:10ec60000100000000000000001000000000000093
:10ec7000bc1a0400c81a04000000000000040000d0
:10ec800000000000d81a0400c81a040000000000a8
:10ec90000002000000000000e41a0400c81a04008a
:10eca000000000002000000000000000bc1a04006a
:10ecb000f01a0400000000008000000000000000c6
:10ecc000d81a0400f01a040000000000000100003f
:10ecd00000000000e41a0400f01a04000000000024
:10ece000fc1a040000010000010000000100000007
:10ecf000000000002000000000000000bc1a04001a
:10ed0000001b040000000000800000000000000064
:10ed1000d81a0400001b04000000000000010000dd
:10ed200000000000e41a0400001b040000000000c2
:10ed30006300000000000000000000000000000070
:10ed40000000000063000000000000000000000060
:10ed50000000000000000000630000000000000050
:10ed60000000000000000000000000009c1b0400e8
:10ed70000001000001000000010000000000000090
:10ed80002000000000000000bc1a0400f01a04007b
:10ed9000000000008000000000000000e41a0400f1
:10eda000f01a040000000000000400000000000051
:10edb000e41a0400c81a0400000000006300000008
:10edc0000000000000000000000000000000000043
:10edd00063000000000000000000000000000000d0
:10ede00000000000630000000000000000000000c0
:10edf0000000000000000000a41b0400000100004f
:10ee000001000000010000000000000000100000f0
:10ee100000000000bc1a0400c81a04000000000032
:10ee20000004000000000000e41a0400c81a0400f6
:10ee3000000000008000000000000000e41a040050
:10ee4000f01a040000000000630000000000000051
:10ee5000000000000000000000000000630000004f
:10ee600000000000000000000000000000000000a2
:10ee7000630000000000000000000000000000002f
:10ee800000000000f4b60020580900000000000057
:10ee9000203b022004000000000000007439022022
:10eea000380000000000000068eb01203c02000078
:10eeb00001000000d48704000000000002000000f0
:10eec0000100000000000000001000000000000031
:10eed000d8870400e487040000000000000400005c
:10eee00000000000f4870400e48704000000000034
:10eef000000200000000000000880400e487040015
:10ef0000000000002000000000000000d88704007e
:10ef10000c880400000000008000000000000000d9
:10ef2000f48704000c8804000000000000010000c9
:10ef300000000000008804000c88040000000000ad
:10ef4000188804000001000001000000010000001a
:10ef5000000000002000000000000000d88704002e
:10ef60001c88040000000000800000000000000079
:10ef7000f48704001c880400000000000001000069
:10ef800000000000008804001c880400000000004d
:10ef9000630000000000000000000000000000000e
:10efa00000000000630000000000000000000000fe
:10efb00000000000000000006300000000000000ee
:10efc000000000000000000000000000b8880400fd
:10efd000000100000100000001000000000000002e
:10efe0002000000000000000d88704000c88040006
:10eff0000000000080000000000000000088040005
:10f000000c88040000000000000400000000000064
:10f0100000880400e4870400000000006300000092
:10f0200000000000000000000000000000000000e0
:10f03000630000000000000000000000000000006d
:10f04000000000006300000000000000000000005d
:10f050000000000000000000c08804000001000063
:10f06000010000000100000000000000001000008e
:10f0700000000000d8870400e487040000000000be
:10f08000000400000000000000880400e487040081
:10f090000000000080000000000000000088040064
:10f0a0000c88040000000000630000000000000065
:10f0b00000000000000000000000000063000000ed
:10f0c0000000000000000000000000000000000040
:10f0d00063000000000000000000000000000000cd
:10f0e000000000001f1c1f1e1f1e1f1f1e1f1e1fb3
:10f0f0009c2601204007000000000000880102203b
:10f10000300200000100000088130500000000002c
:10f1100002000000010000000000000000100000dc
:10f12000000000008c13050098130500000000008b
:10f130000004000000000000a8130500981305005b
:10f14000000000000002000000000000b4130500f1
:10f1500098130500000000002000000000000000df
:10f160008c130500c01305000000000080000000a3
:10f1700000000000a8130500c013050000000000f7
:10f180000001000000000000b4130500c0130500da
:10f1900000000000cc130500000100000100000089
:10f1a000010000000000000020000000000000003e
:10f1b0008c130500d0130500000000008000000043
:10f1c00000000000a8130500d01305000000000097
:10f1d0000001000000000000b4130500d01305007a
:10f1e00000000000630000000000000000000000bc
:10f1f00000000000000000006300000000000000ac
:10f20000000000000000000000000000630000009b
:10f2100000000000000000000000000000000000ee
:10f220006c14050000010000010000000100000056
:10f230000000000020000000000000008c1305000a
:10f24000c013050000000000800000000000000066
:10f25000b4130500c0130500000000000004000006
:10f2600000000000b4130500981305000000000022
:10f27000630000000000000000000000000000002b
:10f28000000000006300000000000000000000001b
:10f29000000000000000000063000000000000000b
:10f2a00000000000000000000000000074140500d1
:10f2b000000100000100000001000000000000004b
:10f2c00000100000000000008c13050098130500da
:10f2d000000000000004000000000000b41305005e
:10f2e00098130500000000008000000000000000ee
:10f2f000b4130500c0130500000000006300000007
:10f3000000000000000000000000000000000000fd
:10f31000630000000000000000000000000000008a
:10f32000000000006300000000000000000000007a
:10f330000000000000000000041801204c0700003d
:10f3400000000000b80302203002000001000000ad
:10f3500090c1040000000000020000000100000055
:10f3600000000000001000000000000094c1040034
:10f37000a0c1040000000000000400000000000024
:10f38000b0c10400a0c104000000000000020000a1
:10f3900000000000bcc10400a0c104000000000087
:10f3a000200000000000000094c10400c8c1040057
:10f3b000000000008000000000000000b0c1040058
:10f3c000c8c10400000000000001000000000000af
:10f3d000bcc10400c8c1040000000000d4c1040086
:10f3e000000100000100000001000000000000001a
:10f3f000200000000000000094c10400d8c10400f7
:10f40000000000008000000000000000b0c1040007
:10f41000d8c104000000000000010000000000004e
:10f42000bcc10400d8c1040000000000630000005b
:10f4300000000000000000000000000000000000cc
:10f440006300000000000000000000000000000059
:10f450000000000063000000000000000000000049
:10f46000000000000000000074c204000001000061
:10f47000010000000100000000000000200000006a
:10f480000000000094c10400c8c104000000000096
:10f490008000000000000000bcc10400c8c10400de
:10f4a000000000000004000000000000bcc10400d7
:10f4b000a0c1040000000000630000000000000084
:10f4c00000000000000000000000000063000000d9
:10f4d000000000000000000000000000000000002c
:10f4e00063000000000000000000000000000000b9
:10f4f000000000007cc204000001000001000000c8
:10f5000001000000000000000010000000000000ea
:10f5100094c10400a0c10400000000000004000029
:10f5200000000000bcc10400a0c1040000000000f5
:10f530008000000000000000bcc10400c8c104003d
:10f540000000000063000000000000000000000058
:10f550000000000000000000630000000000000048
:10f560000000000000000000000000006300000038
:10f57000000000000000000000000000000000008b
:10f58000504301201807000000000000e805022099
:10f59000300200000100000018b10400000000006b
:10f5a0000200000001000000000000000010000048
:10f5b000000000001cb1040028b10400000000009d
:10f5c000000400000000000038b1040028b104006d
:10f5d00000000000000200000000000044b1040030
:10f5e00028b104000000000020000000000000001e
:10f5f0001cb1040050b104000000000080000000b5
:10f600000000000038b1040050b104000000000008
:10f61000000100000000000044b1040050b10400eb
:10f62000000000005cb104000001000001000000c7
:10f6300001000000000000002000000000000000a9
:10f640001cb1040060b10400000000008000000054
:10f650000000000038b1040060b1040000000000a8
:10f66000000100000000000044b1040060b104008b
:10f670000000000063000000000000000000000027
:10f680000000000000000000630000000000000017
:10f690000000000000000000000000006300000007
:10f6a000000000000000000000000000000000005a
:10f6b000fcb1040000010000010000000100000096
:10f6c0000000000020000000000000001cb1040049
:10f6d00050b10400000000008000000000000000a5
:10f6e00044b1040050b10400000000000004000018
:10f6f0000000000044b1040028b104000000000034
:10f700006300000000000000000000000000000096
:10f710000000000063000000000000000000000086
:10f720000000000000000000630000000000000076
:10f7300000000000000000000000000004b204000f
:10f7400000010000010000000100000000000000b6
:10f7500000100000000000001cb1040028b10400eb
:10f7600000000000000400000000000044b104009c
:10f7700028b104000000000080000000000000002c
:10f7800044b1040050b10400000000006300000018
:10f790000000000000000000000000000000000069
:10f7a00063000000000000000000000000000000f6
:10f7b00000000000630000000000000000000000e6
:10f7c000000000000000000070b30120e00600000f
:10f7d00000000000f43a02200800000000000000d1
:10f7e000f1b600200300000001000000010101004b
:10f7f0008c3a022019000000000000008c37022023
:10f80000010100000000000090f601203402000019
:10f810000100000054b904000000000002000000d4
:10f8200001000000000000000010000000000000c7
:10f8300058b9040064b9040000000000000400008e
:10f840000000000074b9040064b904000000000066
:10f85000000200000000000080b9040064b9040048
:10f8600000000000200000000000000058b9040063
:10f870008cb90400000000008000000000000000bf
:10f8800074b904008cb904000000000000010000fd
:10f890000000000080b904008cb9040000000000e2
:10f8a00098b9040000010000010000000100000000
:10f8b00000000000200000000000000058b9040013
:10f8c0009cb904000000000080000000000000005f
:10f8d00074b904009cb9040000000000000100009d
:10f8e0000000000080b904009cb904000000000082
:10f8f00063000000000000000000000000000000a5
:10f900000000000063000000000000000000000094
:10f910000000000000000000630000000000000084
:10f9200000000000000000000000000038ba0400e1
:10f9300000010000010000000100000000000000c4
:10f94000200000000000000058b904008cb9040039
:10f9500000000000800000000000000080b90400ea
:10f960008cb904000000000000040000000000004a
:10f9700080b9040064b904000000000063000000c6
:10f980000000000000000000000000000000000077
:10f990006300000000000000000000000000000004
:10f9a00000000000630000000000000000000000f4
:10f9b000000000000000000040ba04000001000048
:10f9c0000100000001000000000000000010000025
:10f9d0000000000058b9040064b9040000000000f1
:10f9e000000400000000000080b9040064b90400b5
:10f9f00000000000800000000000000080b904004a
:10fa00008cb904000000000063000000000000004a
:10fa10000000000000000000000000006300000083
:10fa200000000000000000000000000000000000d6
:10fa30006300000000000000000000000000000063
:10fa400000000000c3000000d07b01200007000080
:10fa50000000000060e201204102000001000000ff
:10fa6000c83c04000000000002000000010000008b
:10fa7000000000000010000000000000cc3c04006a
:10fa8000d83c04000000000000040000000000005a
:10fa9000e83c0400d83c0400000000000002000024
:10faa00000000000f43c0400d83c0400000000000a
:10fab0002000000000000000cc3c0400003d0400d9
:10fac000000000008000000000000000e83c04008e
:10fad000003d0400000000000001000000000000e4
:10fae000f43c0400003d0400000000000c3d040054
:10faf0000001000001000000010000000000000003
:10fb00002000000000000000cc3c0400103d040078
:10fb1000000000008000000000000000e83c04003d
:10fb2000103d040000000000000100000000000083
:10fb3000f43c0400103d04000000000063000000dd
:10fb400000000000000000000000000000000000b5
:10fb50006300000000000000000000000000000042
:10fb60000000000063000000000000000000000032
:10fb70000000000000000000ac3d04000001000097
:10fb80000100000001000000000000002000000053
:10fb900000000000cc3c0400003d04000000000018
:10fba0008000000000000000f43c0400003d040060
:10fbb000000000000004000000000000f43c04000d
:10fbc000d83c0400000000006300000000000000ba
:10fbd00000000000000000000000000063000000c2
:10fbe0000000000000000000000000000000000015
:10fbf00063000000000000000000000000000000a2
:10fc000000000000b43d04000001000001000000fd
:10fc100001000000000000000010000000000000d3
:10fc2000cc3c0400d83c04000000000000040000ac
:10fc300000000000f43c0400d83c04000000000078
:10fc40008000000000000000f43c0400003d0400bf
:10fc50000000000063000000000000000000000041
:10fc60000000000000000000630000000000000031
:10fc70000000000000000000000000006300000021
:10fc80000000000000000000000000000000000074
:10fc900001000000090000001e0000002c0100000f
:10fca0000100000088fa00207d070000000000002d
:10fcb0001808022030020000010000003c4504004a
:10fcc0000000000002000000010000000000000031
:10fcd0000010000000000000404504004c450400f6
:10fce0000000000000040000000000005c4504006b
:10fcf0004c4504000000000000020000000000006d
:10fd0000684504004c45040000000000200000008d
:10fd1000000000004045040074450400000000009d
:10fd200080000000000000005c45040074450400f1
:10fd30000000000000010000000000006845040011
:10fd4000744504000000000080450400000100002c
:10fd50000100000001000000000000002000000081
:10fd6000000000004045040084450400000000003d
:10fd700080000000000000005c4504008445040091
:10fd800000000000000100000000000068450400c1
:10fd90008445040000000000630000000000000033
:10fda00000000000000000000000000063000000f0
:10fdb0000000000000000000000000000000000043
:10fdc00063000000000000000000000000000000d0
:10fdd00000000000204604000001000001000000b7
:10fde00001000000000000002000000000000000f2
:10fdf000404504007445040000000000800000003d
:10fe00000000000068450400744504000000000084
:10fe10000004000000000000684504004c45040098
:10fe2000000000006300000000000000000000006f
:10fe3000000000000000000063000000000000005f
:10fe4000000000000000000000000000630000004f
:10fe500000000000000000000000000000000000a2
:10fe6000284604000001000001000000010000001d
:10fe700000000000001000000000000040450400e9
:10fe80004c450400000000000004000000000000d9
:10fe9000684504004c45040000000000800000009c
:10fea00000000000684504007445040000000000e4
:10feb00063000000000000000000000000000000df
:10fec00000000000630000000000000000000000cf
:10fed00000000000000000006300000000000000bf
:10fee00000000000000000000000000008020120e7
:10fef0005807000000000000480a022030020000fd
:10ff00000100000004fb04000000000002000000eb
:10ff100001000000000000000010000000000000d0
:10ff200008fb040014fb04000000000000040000b3
:10ff30000000000024fb040014fb0400000000008b
:10ff4000000200000000000030fb040014fb04006d
:10ff500000000000200000000000000008fb04007a
:10ff60003cfb0400000000008000000000000000d6
:10ff700024fb04003cfb0400000000000001000022
:10ff80000000000030fb04003cfb04000000000007
:10ff900048fb040000010000010000000100000017
:10ffa00000000000200000000000000008fb04002a
:10ffb0004cfb040000000000800000000000000076
:10ffc00024fb04004cfb04000000000000010000c2
:10ffd0000000000030fb04004cfb040000000000a7
:10ffe00063000000000000000000000000000000ae
:10fff000000000006300000000000000000000009e
:020000040001f9
:10000000000000000000000063000000000000008d
:10001000000000000000000000000000e8fb0400f9
:1000200000010000010000000100000000000000cd
:10003000200000000000000008fb04003cfb04005e
:1000400000000000800000000000000030fb040001
:100050003cfb040000000000000400000000000061
:1000600030fb040014fb04000000000063000000eb
:100070000000000000000000000000000000000080
:10008000630000000000000000000000000000000d
:1000900000000000630000000000000000000000fd
:1000a0000000000000000000f0fb04000001000060
:1000b000010000000100000000000000001000002e
:1000c0000000000008fb040014fb04000000000016
:1000d000000400000000000030fb040014fb0400da
:1000e00000000000800000000000000030fb040061
:1000f0003cfb040000000000630000000000000062
:10010000000000000000000000000000630000008c
:1001100000000000000000000000000000000000df
:10012000630000000000000000000000000000006c
:1001300000000000d0820120f8060000000000004e
:100140001cf20120390200000100000088000400b8
:10015000000000000200000001000000000000009c
:1001600000100000000000008c0004009800040053
:10017000000000000004000000000000a8000400cf
:1001800098000400000000000002000000000000d1
:10019000b4000400980004000000000020000000eb
:1001a000000000008c000400c000040000000000fb
:1001b0008000000000000000a8000400c00004004f
:1001c000000000000001000000000000b400040076
:1001d000c000040000000000cc000400000100008a
:1001e00001000000010000000000000020000000ed
:1001f000000000008c000400d0000400000000009b
:100200008000000000000000a8000400d0000400ee
:10021000000000000001000000000000b400040025
:10022000d000040000000000630000000000000097
:10023000000000000000000000000000630000005b
:1002400000000000000000000000000000000000ae
:10025000630000000000000000000000000000003b
:10026000000000006c01040000010000010000001b
:10027000010000000000000020000000000000005d
:100280008c000400c000040000000000800000009a
:1002900000000000b4000400c000040000000000e2
:1002a0000004000000000000b400040098000400f6
:1002b00000000000630000000000000000000000db
:1002c00000000000000000006300000000000000cb
:1002d00000000000000000000000000063000000bb
:1002e000000000000000000000000000000000000e
:1002f0007401040000010000010000000100000082
:100300000000000000100000000000008c0004004d
:10031000980004000000000000040000000000003d
:10032000b4000400980004000000000080000000f9
:1003300000000000b4000400c00004000000000041
:10034000630000000000000000000000000000004a
:10035000000000006300000000000000000000003a
:10036000000000000000000063000000000000002a
:10037000000000000000000000000000020000007b
:10038000050000000300000060d200207808000093
:1003900000000000780c0220300200000100000084
:1003a000189004000000000002000000010000009e
:1003b0000000000000100000000000001c9004007d
:1003c000289004000000000000040000000000006d
:1003d0003890040028900400000000000002000093
:1003e0000000000044900400289004000000000079
:1003f00020000000000000001c9004005090040049
:1004000000000000800000000000000038900400a0
:1004100050900400000000000001000000000000f7
:100420004490040050900400000000005c90040020
:1004300000010000010000000100000000000000b9
:1004400020000000000000001c90040060900400e8
:100450000000000080000000000000003890040050
:100460006090040000000000000100000000000097
:10047000449004006090040000000000630000004d
:10048000000000000000000000000000000000006c
:1004900063000000000000000000000000000000f9
:1004a00000000000630000000000000000000000e9
:1004b0000000000000000000fc90040000010000ab
:1004c000010000000100000000000000200000000a
:1004d000000000001c900400509004000000000088
:1004e00080000000000000004490040050900400d0
:1004f0000000000000040000000000004490040020
:1005000028900400000000006300000000000000cc
:100510000000000000000000000000006300000078
:1005200000000000000000000000000000000000cb
:100530006300000000000000000000000000000058
:100540000000000004910400000100000100000010
:10055000010000000000000000100000000000008a
:100560001c9004002890040000000000000400001b
:1005700000000000449004002890040000000000e7
:10058000800000000000000044900400509004002f
:1005900000000000630000000000000000000000f8
:1005a00000000000000000006300000000000000e8
:1005b00000000000000000000000000063000000d8
:1005c000000000000000000000000000000000002b
:1005d000e4f20020a407000000000000a80e0220a2
:1005e00030020000010000005cee0300000000008b
:1005f00002000000010000000000000000100000e8
:100600000000000060ee03006cee0300000000003c
:1006100000040000000000007cee03006cee03000c
:1006200000000000000200000000000088ee03004f
:100630006cee03000000000020000000000000003d
:1006400060ee030094ee0300000000008000000054
:10065000000000007cee030094ee030000000000a8
:10066000000100000000000088ee030094ee03008b
:1006700000000000a0ee03000001000001000000e7
:100680000100000000000000200000000000000049
:1006900060ee0300a4ee03000000000080000000f4
:1006a000000000007cee0300a4ee03000000000048
:1006b000000100000000000088ee0300a4ee03002b
:1006c00000000000630000000000000000000000c7
:1006d00000000000000000006300000000000000b7
:1006e00000000000000000000000000063000000a7
:1006f00000000000000000000000000000000000fa
:1007000040ef0300000100000100000001000000b4
:1007100000000000200000000000000060ee030068
:1007200094ee0300000000008000000000000000c4
:1007300088ee030094ee03000000000000040000b7
:100740000000000088ee03006cee030000000000d3
:100750006300000000000000000000000000000036
:100760000000000063000000000000000000000026
:100770000000000000000000630000000000000016
:1007800000000000000000000000000048ef03002f
:100790000001000001000000010000000000000056
:1007a000001000000000000060ee03006cee03008b
:1007b00000000000000400000000000088ee0300bc
:1007c0006cee03000000000080000000000000004c
:1007d00088ee030094ee03000000000063000000b8
:1007e0000000000000000000000000000000000009
:1007f0006300000000000000000000000000000096
:100800000000000063000000000000000000000085
:10081000000000000000000094c90020ca08000089
:1008200000000000d810022030020000010000008b
:1008300048770400000000000200000001000000f2
:100840000000000000100000000000004c770400d1
:1008500058770400000000000004000000000000c1
:1008600068770400587704000000000000020000d0
:1008700000000000747704005877040000000000b6
:1008800020000000000000004c7704008077040086
:1008900000000000800000000000000068770400f5
:1008a000807704000000000000010000000000004c
:1008b0007477040080770400000000008c77040047
:1008c0000001000001000000010000000000000025
:1008d00020000000000000004c7704009077040026
:1008e00000000000800000000000000068770400a5
:1008f00090770400000000000001000000000000ec
:10090000747704009077040000000000630000008a
:1009100000000000000000000000000000000000d7
:100920006300000000000000000000000000000064
:100930000000000063000000000000000000000054
:1009400000000000000000002c78040000010000fe
:100950000100000001000000000000002000000075
:10096000000000004c7704008077040000000000c5
:10097000800000000000000074770400807704000d
:100980000000000000040000000000007477040074
:100990005877040000000000630000000000000021
:1009a00000000000000000000000000063000000e4
:1009b0000000000000000000000000000000000037
:1009c00063000000000000000000000000000000c4
:1009d0000000000034780400000100000100000065
:1009e00001000000000000000010000000000000f6
:1009f0004c77040058770400000000000004000059
:100a00000000000074770400587704000000000024
:100a1000800000000000000074770400807704006c
:100a20000000000063000000000000000000000063
:100a30000000000000000000630000000000000053
:100a40000000000000000000000000006300000043
:100a50000000000000000000000000000000000096
:100a60008cac0120e40600000000000058f40120d6
:100a700035020000010000005034040000000000b6
:100a80000200000001000000000000000010000053
:100a90000000000054340400603404000000000032
:100aa0000004000000000000703404006034040002
:100ab0000000000000020000000000007c34040080
:100ac000603404000000000020000000000000006e
:100ad000543404008834040000000000800000004a
:100ae000000000007034040088340400000000009e
:100af00000010000000000007c3404008834040081
:100b00000000000094340400000100000100000017
:100b100001000000000000002000000000000000b4
:100b200054340400983404000000000080000000e9
:100b3000000000007034040098340400000000003d
:100b400000010000000000007c3404009834040020
:100b50000000000063000000000000000000000032
:100b60000000000000000000630000000000000022
:100b70000000000000000000000000006300000012
:100b80000000000000000000000000000000000065
:100b900034350400000100000100000001000000e5
:100ba0000000000020000000000000005434040099
:100bb00088340400000000008000000000000000f5
:100bc0007c340400883404000000000000040000ad
:100bd000000000007c3404006034040000000000c9
:100be00063000000000000000000000000000000a2
:100bf0000000000063000000000000000000000092
:100c00000000000000000000630000000000000081
:100c10000000000000000000000000003c3504005f
:100c200000010000010000000100000000000000c1
:100c30000010000000000000543404006034040080
:100c40000000000000040000000000007c340400ec
:100c5000603404000000000080000000000000007c
:100c60007c340400883404000000000063000000ad
:100c70000000000000000000000000000000000074
:100c80006300000000000000000000000000000001
:100c900000000000630000000000000000000000f1
:100ca0000000000000000000010000000100000042
:100cb000d8da0020780800000000000008130220a5
:100cc00030020000010000003403050000000000b5
:100cd0000200000001000000000000000010000001
:100ce0000000000038030500440305000000000078
:100cf0000004000000000000540305004403050048
:100d00000000000000020000000000006003050079
:100d10004403050000000000200000000000000067
:100d2000380305006c03050000000000800000008f
:100d300000000000540305006c03050000000000e3
:100d40000001000000000000600305006c030500c6
:100d50000000000078030500000100000100000011
:100d60000100000000000000200000000000000062
:100d7000380305007c03050000000000800000002f
:100d800000000000540305007c0305000000000083
:100d90000001000000000000600305007c03050066
:100da00000000000630000000000000000000000e0
:100db00000000000000000006300000000000000d0
:100dc00000000000000000000000000063000000c0
:100dd0000000000000000000000000000000000013
:100de00018040500000100000100000001000000df
:100df0000000000020000000000000003803050093
:100e00006c030500000000008000000000000000ee
:100e1000600305006c0305000000000000040000f2
:100e2000000000006003050044030500000000000e
:100e3000630000000000000000000000000000004f
:100e4000000000006300000000000000000000003f
:100e5000000000000000000063000000000000002f
:100e60000000000000000000000000002004050059
:100e7000000100000100000001000000000000006f
:100e800000100000000000003803050044030500c6
:100e900000000000000400000000000060030500e6
:100ea0004403050000000000800000000000000076
:100eb000600305006c0305000000000063000000f3
:100ec0000000000000000000000000000000000022
:100ed00063000000000000000000000000000000af
:100ee000000000006300000000000000000000009f
:100ef0000000000000000000c87401200807000086
:100f0000000000003815022030020000010000003f
:100f100058980400000000000200000001000000da
:100f20000000000000100000000000005c980400b9
:100f300068980400000000000004000000000000a9
:100f40007898040068980400000000000002000087
:100f5000000000008498040068980400000000006d
:100f600020000000000000005c980400909804003d
:100f700000000000800000000000000078980400dd
:100f80009098040000000000000100000000000034
:100f90008498040090980400000000009c980400cd
:100fa000000100000100000001000000000000003e
:100fb00020000000000000005c980400a0980400dd
:100fc000000000008000000000000000789804008d
:100fd000a0980400000000000001000000000000d4
:100fe00084980400a0980400000000006300000042
:100ff00000000000000000000000000000000000f1
:10100000630000000000000000000000000000007d
:10101000000000006300000000000000000000006d
:1010200000000000000000003c99040000010000e6
:10103000010000000100000000000000200000008e
:10104000000000005c98040090980400000000007c
:1010500080000000000000008498040090980400c4
:10106000000000000004000000000000849804005c
:101070006898040000000000630000000000000009
:1010800000000000000000000000000063000000fd
:101090000000000000000000000000000000000050
:1010a00063000000000000000000000000000000dd
:1010b000000000004499040000010000010000004d
:1010c000010000000000000000100000000000000f
:1010d0005c98040068980400000000000004000010
:1010e00000000000849804006898040000000000dc
:1010f0008000000000000000849804009098040024
:10110000000000006300000000000000000000007c
:10111000000000000000000063000000000000006c
:10112000000000000000000000000000630000005c
:1011300000000000000000000000000000000000af
:101140002c3c01202407000000000000681702204a
:101150003002000001000000c8db030000000000b6
:10116000020000000100000000000000001000006c
:1011700000000000ccdb0300d8db0300000000000f
:101180000004000000000000e8db0300d8db0300df
:10119000000000000002000000000000f4db03007b
:1011a000d8db030000000000200000000000000069
:1011b000ccdb030000dc0300000000008000000026
:1011c00000000000e8db030000dc0300000000007a
:1011d0000001000000000000f4db030000dc03005d
:1011e000000000000cdc0300000100000100000012
:1011f00001000000000000002000000000000000ce
:10120000ccdb030010dc03000000000080000000c5
:1012100000000000e8db030010dc03000000000019
:101220000001000000000000f4db030010dc0300fc
:10123000000000006300000000000000000000004b
:10124000000000000000000063000000000000003b
:10125000000000000000000000000000630000002b
:10126000000000000000000000000000000000007e
:10127000acdc0300000100000100000001000000e0
:10128000000000002000000000000000ccdb030094
:1012900000dc0300000000008000000000000000ef
:1012a000f4db030000dc0300000000000004000089
:1012b00000000000f4db0300d8db030000000000a6
:1012c00063000000000000000000000000000000bb
:1012d00000000000630000000000000000000000ab
:1012e000000000000000000063000000000000009b
:1012f000000000000000000000000000b4dc03005b
:1013000000010000010000000100000000000000da
:101310000010000000000000ccdb0300d8db03005d
:10132000000000000004000000000000f4db0300e7
:10133000d8db030000000000800000000000000077
:10134000f4db030000dc0300000000006300000089
:10135000000000000000000000000000000000008d
:10136000630000000000000000000000000000001a
:10137000000000006300000000000000000000000a
:101380000000000000000000b0ab0020410b000096
:101390000000000098190220300200000100000047
:1013a00038da040000000000020000000100000024
:1013b0000000000000100000000000003cda040003
:1013c00048da0400000000000004000000000000f3
:1013d00058da040048da04000000000000020000af
:1013e0000000000064da040048da04000000000095
:1013f00020000000000000003cda040070da040065
:1014000000000000800000000000000058da040026
:1014100070da04000000000000010000000000007d
:1014200064da040070da0400000000007cda0400d2
:1014300000010000010000000100000000000000a9
:1014400020000000000000003cda040080da040004
:1014500000000000800000000000000058da0400d6
:1014600080da04000000000000010000000000001d
:1014700064da040080da0400000000006300000069
:10148000000000000000000000000000000000005c
:1014900063000000000000000000000000000000e9
:1014a00000000000630000000000000000000000d9
:1014b00000000000000000001cdb04000001000030
:1014c00001000000010000000000000020000000fa
:1014d000000000003cda040070da040000000000a4
:1014e000800000000000000064da040070da0400ec
:1014f00000000000000400000000000064da0400a6
:1015000048da040000000000630000000000000052
:101510000000000000000000000000006300000068
:1015200000000000000000000000000000000000bb
:101530006300000000000000000000000000000048
:101540000000000024db0400000100000100000096
:10155000010000000000000000100000000000007a
:101560003cda040048da0400000000000004000037
:101570000000000064da040048da04000000000003
:10158000800000000000000064da040070da04004b
:1015900000000000630000000000000000000000e8
:1015a00000000000000000006300000000000000d8
:1015b00000000000000000000000000063000000c8
:1015c000000000000000000000000000000000001b
:1015d000b06601200907000000000000e8e60120d5
:1015e0003e0200000100000098a00400000000007e
:1015f00002000000010000000000000000100000d8
:10160000000000009ca00400a8a00400000000004e
:101610000004000000000000b8a00400a8a004001e
:10162000000000000002000000000000c4a0040050
:10163000a8a004000000000020000000000000003e
:101640009ca00400d0a00400000000008000000066
:1016500000000000b8a00400d0a0040000000000ba
:101660000001000000000000c4a00400d0a004009d
:1016700000000000dca004000001000001000000e8
:101680000100000000000000200000000000000039
:101690009ca00400e0a00400000000008000000006
:1016a00000000000b8a00400e0a00400000000005a
:1016b0000001000000000000c4a00400e0a004003d
:1016c00000000000630000000000000000000000b7
:1016d00000000000000000006300000000000000a7
:1016e0000000000000000000000000006300000097
:1016f00000000000000000000000000000000000ea
:101700007ca10400000100000100000001000000b5
:101710000000000020000000000000009ca0040069
:10172000d0a00400000000008000000000000000c5
:10173000c4a00400d0a004000000000000040000c9
:1017400000000000c4a00400a8a0040000000000e5
:101750006300000000000000000000000000000026
:101760000000000063000000000000000000000016
:101770000000000000000000630000000000000006
:1017800000000000000000000000000084a1040030
:101790000001000001000000010000000000000046
:1017a00000100000000000009ca00400a8a004009d
:1017b000000000000004000000000000c4a00400bd
:1017c000a8a004000000000080000000000000004d
:1017d000c4a00400d0a004000000000063000000ca
:1017e00000000000000000000000000000000000f9
:1017f0006300000000000000000000000000000086
:101800000000000063000000000000000000000075
:101810000000000000000000284e4f5754522900dd
:101820002857545229000000600901205107000088
:1018300000000000c81b0220300200000100000070
:10184000c8c9040000000000020000000100000000
:10185000000000000010000000000000ccc90400df
:10186000d8c90400000000000004000000000000cf
:10187000e8c90400d8c9040000000000000200000c
:1018800000000000f4c90400d8c9040000000000f2
:101890002000000000000000ccc9040000ca0400c1
:1018a000000000008000000000000000e8c9040003
:1018b00000ca040000000000000100000000000059
:1018c000f4c9040000ca0400000000000cca0400af
:1018d0000001000001000000010000000000000005
:1018e0002000000000000000ccc9040010ca040061
:1018f000000000008000000000000000e8c90400b3
:1019000010ca0400000000000001000000000000f8
:10191000f4c9040010ca04000000000063000000c5
:1019200000000000000000000000000000000000b7
:101930006300000000000000000000000000000044
:101940000000000063000000000000000000000034
:101950000000000000000000acca0400000100000c
:101960000100000001000000000000002000000055
:1019700000000000ccc9040000ca04000000000000
:101980008000000000000000f4c9040000ca040048
:10199000000000000004000000000000f4c9040082
:1019a000d8c904000000000063000000000000002f
:1019b00000000000000000000000000063000000c4
:1019c0000000000000000000000000000000000017
:1019d00063000000000000000000000000000000a4
:1019e00000000000b4ca0400000100000100000073
:1019f00001000000000000000010000000000000d6
:101a0000ccc90400d8c90400000000000004000094
:101a100000000000f4c90400d8c904000000000060
:101a20008000000000000000f4c9040000ca0400a7
:101a30000000000063000000000000000000000043
:101a40000000000000000000630000000000000033
:101a50000000000000000000000000006300000023
:101a60000000000000000000000000000000000076
:101a7000905801201107000000000000f81d02200e
:101a80003002000001000000a81b0500000000005b
:101a90000200000001000000000000000010000033
:101aa00000000000ac1b0500b81b05000000000092
:101ab0000004000000000000c81b0500b81b050062
