:020000040000fa
:10c00000f8ff0320d1c90600af950600b3e806008b
:10c01000af950600ade80600af95060000000000f1
:10c020000000000000000000000000003d4206008b
:10c03000af95060000000000a94406001745060061
:10c04000af950600af950600af950600af950600c8
:10c05000af950600af950600af950600af950600b8
:10c06000af950600af950600af9506006dc60300bc
:10c07000af950600af950600af950600af95060098
:10c08000af950600af950600af950600af95060088
:10c09000af950600af950600af950600af95060078
:10c0a000af950600af950600af950600af95060068
:10c0b000af950600af950600af950600af95060058
:10c0c000af950600af950600af950600af95060048
:10c0d000af950600af950600af950600af95060038
:10c0e000af950600af9506000000000000000000bc
:10c0f00000000000998a0600af950600af95060083
:10c10000af950600af950600af950600af95060007
:10c11000af950600af9506009d7b0100b57b010041
:10c12000cd7b0100af950600af950600af950600e8
:10c13000af950600af950600af950600af950600d7
:10c14000af950600af950600fd7b0100157c010050
:10c150002d7c0100af950600af950600af95060057
:10c16000af950600af950600af950600af950600a7
:10c17000af950600af950600af950600af95060097
:10c18000af950600af950600af950600af95060087
:10c19000af950600af950600af950600af95060077
:10c1a000af950600af950600af950600af95060067
:10c1b000af950600af950600af950600af95060057
:10c1c000af950600af950600af950600af95060047
:10c1d000af950600af950600af950600af95060037
:10c1e000af950600af950600af950600af95060027
:10c1f000af950600af950600af950600af95060017
:10c20000af950600af950600af950600af95060006
:10c21000af950600af950600af9506005d9306004a
:10c22000af950600af950600af950600af950600e6
:10c23000af950600af950600af950600af950600d6
:10c24000af950600af950600af950600af950600c6
:10c25000af950600af950600af950600af950600b6
:04c26000af95060090
:020000040000fa
:10c2640003970181b0b00884000000000d9701819c
:10c27400b0b00b840000000009970181b0b00b84ba
:10c284000000000003970181b0b0088400000000a2
:10c2940003970181b0b00884000000000197018178
:10c2a400b0b008840000000001970181b0b0088498
:10c2b4000000000001970181b0b008840000000074
:10c2c40001970181b0b00884000000000397018148
:10c2d400b0b008840000000003970181b0b0088466
:10c2e4000000000003970181b0b008840000000042
:10c2f40001970181b0b0088400000000019701811a
:10c30400b0b008840000000005970181b0b0088433
:10c314000000000001970181b0b008840000000013
:10c3240002970181b0b009840000000001970181e7
:10c33400b0b008840000000001970181b0b0088407
:10c344000000000003970181b0b0088400000000e1
:10c3540001970181b0b008840000000001970181b9
:10c36400b0b008840000000001970181b0b00884d7
:10c374000000000001970181b0b0088400000000b3
:10c3840003970181b0b00884000000000397018185
:10c39400b0b008840000000003970181b0b00884a5
:10c3a4000000000003970181b0b008840000000081
:10c3b40004970181b0b00984000000000597018151
:10c3c400b0b008840000000005970181b0b0088473
:10c3d4000000000001970181b0b008840000000053
:10c3e40001970181b0b00884000000000397018127
:10c3f400b0b008840000000003970181b0b0088445
:10c404000000000001970181b0b008840000000022
:10c4140001970181b0b008840000000005970181f4
:10c42400b0b008840000000003970181b0b0088414
:10c434000000000003970181b0b0088400000000f0
:10c4440003970181b0b008840000000003970181c4
:10c45400b0b008840000000001970181b0b00884e6
:10c464000000000001970181b0b0088400000000c2
:10c4740003970181b0b00884000000000197018196
:10c48400b0b008840000000001970181b0b00884b6
:10c494000000000003970181b0b008840000000090
:10c4a40001970181b0b00884000000000397018166
:10c4b400b0b008840000000003970181b0b0088484
:10c4c4000000000003970181b0b008840000000060
:10c4d40009970181b0b0088400000000039701812e
:10c4e400b0b008840000000001970181b0b0088456
:10c4f4000000000003970181b0b008840000000030
:10c504000b970181b0b008840000000005970181f9
:10c51400b0b008840000000001970181b0b0088425
:10c524000000000004970181b0b0098400000000fd
:10c5340004970181b0b009840000000001970181d3
:10c54400b0b008840000000002970181b0b00984f3
:10c554000000000001970181b0b0088400000000d1
:10c5640001970181b0b008840000000005970181a3
:10c57400b0b008840000000001970181b0b00884c5
:10c584000000000003970181b0b00884000000009f
:10c5940001970181b0030884000000000197018124
:10c5a400b0b008840000000007970181b0b008848f
:10c5b4000000000001970181b0b008840000000071
:10c5c40001970181b0b00884000000000597018143
:10c5d400b0b008840000000005970181b0b0088461
:10c5e4000000000001970181b0b008840000000041
:10c5f40001970181b0b00884000000000397018115
:10c60400b0b008840000000003970181b0b0088432
:10c614000000000003970181b0b00884000000000e
:10c6240007970181b0b008840000000007970181da
:10c63400b0b008840000000006970181b0b00984fe
:10c644000000000005970181b0b0088400000000dc
:10c6540003970181b0b008840000000001970181b4
:10c66400b0b008840000000001970181b0b00884d4
:10c674000000000005970181b0b0088400000000ac
:10c6840001970181b0b00884000000000597018182
:10c69400b0b00884000000001b970181b0b00b8487
:10c6a4000000000003970181b0b00884000000007e
:10c6b4000d970181b0b00884000000000997018142
:10c6c400b0b008840000000009970181b0b008846c
:10c6d4000000000002970181b0b00984000000004e
:10c6e40001970181b0b03b840000000003970181f1
:10c6f400b0b03b840000000003970181b0b008840f
:10c704000000000003970181b0b00884000000001d
:10c7140003970181b0b008840000000003970181f1
:10c72400b0b008840000000003970181b0b0088411
:10c734000000000005970181b0b0088400000000eb
:10c7440003970181b0b008840000000001970181c3
:10c75400b0b008840000000001970181b0b00884e3
:10c764000000000001970181b0b0088400000000bf
:10c7740001970181b0b00884000000000197018195
:10c78400b0b008840000000001970181b0b00b84b0
:10c794000000000001970181b0b00b84000000008c
:10c7a40001970181b0b00b84000000000197018162
:10c7b400b0b008840000000005970181b0b008847f
:10c7c4000000000001970181b0b00884000000005f
:10c7d40009970181b0b0088400000000019701812d
:10c7e400b0030b840000000004970181b0030984a6
:10c7f400000000000d970181b0b008840000000023
:10c8040005970181b0b008840000000005970181fc
:10c81400b0b008840000000007970181b0b008841c
:10c824000000000003970181b0b0088400000000fc
:10c8340003970181b0b008840000000005970181ce
:10c84400b0b008840000000009970181b0b00884ea
:10c854000000000005970181b0b0088400000000ca
:10c8640005970181b0b0088400000000069701819b
:10c87400b0b009840000000001970181b0b00884c1
:10c884000000000005970181b0b00884000000009a
:10c8940007970181b0b00884000000000797018168
:10c8a400b0b008840000000007970181b0b008848c
:10c8b4000000000007970181b0b008840000000068
:10c8c40007970181b0b0088400000000019701813e
:10c8d400b0b008840000000005970181b0b00b845b
:10c8e4000000000005970181b0b00884000000003a
:10c8f40001970181b0b00884000000000197018114
:10c90400b0b008840000000001970181b0b0088431
:10c914000000000003970181b0b00884000000000b
:10c9240003970181b0b008840000000003970181df
:10c93400b0b008840000000001970181b0b0088401
:10c944000000000001970181b0b0088400000000dd
:10c9540017970181b0b0088400000000019701819d
:10c96400b0b008840000000003970181b0b00b84cc
:10c974000000000001970181b0b0088400000000ad
:10c9840001970181b0b0088400000000179701816d
:10c99400b0b008840000000001970181b0b00884a1
:10c9a4000000000001970181b0b00884000000007d
:10c9b40001970181b0b0088400000000059701814f
:10c9c400b0b008840000000005970181b0b008846d
:10c9d4000000000005970181b0b008840000000049
:10c9e40001970181b0b00884000000000497018120
:10c9f400b0b009840000000001970181b0b0088440
:10ca04000000000001970181b0b00884000000001c
:10ca140001970181b0b008840000000007970181ec
:10ca2400b0b008840000000003970181b0b008840e
:10ca34000000000001970181b0b0088400000000ec
:10ca440001970181b0b008840000000002970181c1
:10ca5400b0b009840000000008970181b0b00984d7
:10ca64000000000005970181b0b0088400000000b8
:10ca740001970181b0b00b8400000000019701818f
:10ca8400b0b008840000000001970181b0b00884b0
:10ca94000000000001970181b0b00884000000008c
:10caa40001970181b0b00884000000000197018162
:10cab400b0b008840000000001970181b0b0088480
:10cac4000000000001970181b0b00884000000005c
:10cad40001970181b0b00884000000000197018132
:10cae400b0b008840000000006970181b0b009844a
:10caf4000000000005970181b0b008840000000028
:10cb040001970181b0b00884000000000197018101
:10cb1400b0b008840000000005970181b0b008841b
:10cb24000000000001970181b0b0088400000000fb
:10cb340001970181b0b008840000000005970181cd
:10cb4400b0b008840000000001970181b0b00884ef
:10cb54000000000001970181b0b0088400000000cb
:10cb640001970181b0b008840000000001970181a1
:10cb7400b0b00884000000000b970181b0b00884b5
:10cb84000000000005970181b0b008840000000097
:10cb940001970181b0b00884000000000197018171
:10cba400b0b008840000000001970181b0b008848f
:10cbb4000000000001970181b0b00884000000006b
:10cbc40001970181b0b008840000000008b1018120
:10cbd400b0b000840000000008b10181b0b000844e
:10cbe40000000000f8b500bff8bc08bc9e467047c2
:10cbf4009de60600c5d00600957503007524030064
:10cc0400595b06006d41060005d405007959020000
:10cc1400ed9f060061800300c59502000d8b0300a3
:10cc240011620500c96a0300a1fe05006deb020054
:10cc34002d4f06007108040029dc020029a005001c
:10cc4400a9f70500552d020079e20500adfa0200ae
:10cc540049120600b53d0300a1e90500c1cc050059
:10cc6400c5810200adf005005d8105001dbe050013
:10cc7400d9a7050049950300fd08030049af050045
:10cc8400719f030085050600d9710500f959050057
:10cc9400c5900500a57905007998050025d0030005
:10cca400b9b6050045db0500f5f50300f8b500bf8e
:0cccb400f8bc08bc9e467047a1d00600ea
:020000040000fa
:10ccc00028470100010000008047010028fcff7f89
:10ccd0009048010001000000cc48010024fcff7fc7
:10cce0008c49010001000000c449010020fcff7fc5
:10ccf000904a010001000000c44a01000100000048
:10cd0000084b010001000000b44b010001000000cd
:10cd1000f04b0100010000001c4c0100010000006c
:10cd20007c4c0100f4fbff7fc04d010001000000be
:10cd3000304e0100f0fbff7fe453010001000000d2
:10cd400054540100ecfbff7fec580100f0fbff7f27
:10cd500044590100f4fbff7fb459010001000000b9
:10cd6000f45f01000100000088770100010000006d
:10cd7000a877010001000000c27701000100000057
:10cd8000e2770100010000000278010001000000cc
:10cd90001e780100010000003e7801000100000043
:10cda0005a78010001000000b27801000100000083
:10cdb00008790100010000005a790100010000001b
:10cdc0009679010001000000d27901000100000005
:10cdd000f279010001000000b47a010034f7ff7f0e
:10cde000107b010001000000a07b01000100000099
:10cdf000107c010001000000367c010001000000f1
:10ce0000487c010001000000727c010010f7ff7fe8
:10ce1000a27c010014f7ff7f687d010018f7ff7ff7
:10ce2000fc7f010001000000a08001000100000063
:10ce3000d08101000cf7ff7faa82010010f7ff7f6d
:10ce4000d884010001000000fa8401000cf7ff7f84
:10ce50001085010010f7ff7f3685010001000000fa
:10ce60007a85010001000000108b01000100000024
:10ce7000188b010001000000388b01000100000048
:10ce8000528b010001000000728b010001000000c4
:10ce9000928b010001000000ae8b01000100000038
:10cea000ce8b010001000000ea8b010001000000b0
:10ceb000428c010001000000988c0100010000007c
:10cec000ea8c0100010000000a8d01000100000051
:10ced000cc8d010001000000008e010030f4ff7fc6
:10cee0005c8e010001000000cc8e010001000000fa
:10cef000de8e010001000000088f0100010000002b
:10cf0000328f010014f4ff7f628f010018f4ff7f5d
:10cf10009891010001000000c4910100010000008f
:10cf2000da91010001000000f09101000100000011
:10cf300006920100fcf3ff7f1c92010000f4ff7fca
:10cf4000329201000100000048920100010000003f
:10cf5000649201000100000078920100ecf3ff7f71
:10cf600040940100f0f3ff7f6a940100f4f3ff7f27
:10cf70009494010001000000ac940100f0f3ff7fe5
:10cf80004a950100f4f3ff7f74950100f8f3ff7fe9
:10cf90009895010001000000f896010001000000d2
:10cfa000589701000100000044980100e4f3ff7f5e
:10cfb00062980100e8f3ff7f80980100ecf3ff7fa7
:10cfc0009e9801000100000010990100010000007e
:10cfd0006e990100e0f3ff7f7c9a010001000000e0
:10cfe000a49a010001000000209b0100d4f3ff7f00
:10cff000de9b0100010000002c9c010001000000ec
:10d00000409c010001000000549c01000100000050
:10d01000689c0100010000007c9c010001000000f0
:10d02000a09c010001000000cc9c01000100000058
:10d030001a9d010001000000609d01000100000038
:10d04000849d010001000000b89d01000100000066
:10d05000309e0100b4f9ff7f2ca10100b8f9ff7fd9
:10d060006ca10100bcf9ff7f40a40100c0f9ff7f63
:10d0700028a50100c4f9ff7f8ca50100c8f9ff7f36
:10d08000f8a5010001000000d4a60100c4f9ff7f4b
:10d0900020a90100ad0297805caa010001000000f8
:10d0a00024b10100010000002cb1010001000000ca
:10d0b0004cb10100010000006cb101000100000052
:10d0c000a0b1010001000000cab101000100000090
:10d0d00050b20100c8f5ff7fa0b40100ccf5ff7f7e
:10d0e0000eb50100d0f5ff7fcab50100d4f5ff7f72
:10d0f00048b60100d8f5ff7f30b70100dcf5ff7faf
:10d1000008ba0100e0f5ff7f0cbb0100e4f5ff7fea
:10d1100064be010001000000acc401000100000079
:10d120005cea0100010000007cea0100010000004f
:10d1300096ea010001000000b6ea010001000000cb
:10d14000d6ea010001000000f2ea0100010000003f
:10d1500012eb0100010000002eeb010001000000b5
:10d1600086eb010001000000dceb01000100000083
:10d170002eec0100010000006aec0100010000003b
:10d18000a6ec010001000000c6ec01000100000057
:10d1900088ed010001000000bced010030f2ff7fce
:10d1a00018ee010001000000a8ee010001000000df
:10d1b00018ef0100010000003eef01000100000037
:10d1c00050ef0100010000007aef010001000000b3
:10d1d000a4ef010004f2ff7fd4ef01000100000082
:10d1e000e2ef01000100000056f10100f8f1ff7fbd
:10d1f0009ef10100fcf1ff7ffef1010000f2ff7fd4
:10d2000050f2010004f2ff7f8cf2010001000000e7
:10d21000a0f2010001000000b4f2010001000000d2
:10d22000c8f2010001000000dcf201000100000072
:10d23000f0f201000100000004f301000100000011
:10d24000eaf3010001000000fef30100c8f1ff7fd6
:10d2500016f40100ccf1ff7f46f40100d0f1ff7f0e
:10d26000d8f40100d4f1ff7f0ef50100d8f1ff7f63
:10d27000dcf70100dcf1ff7f0cf80100e0f1ff7f3b
:10d280001ef80100e4f1ff7f30f80100e8f1ff7fb4
:10d290006ef8010001000000baf80100e4f1ff7f20
:10d2a000def80100e8f1ff7f02f90100ecf1ff7ff9
:10d2b0004cf90100e0f5ff7fc4fa0100e4f5ff7fbf
:10d2c000e4fc0100e8f5ff7f6cfe0100ecf5ff7f58
:10d2d00090000200f0f5ff7fc0020200f4f5ff7f2e
:10d2e00034030200010000004009020001000000b8
:10d2f0004809020001000000a4090200010000002a
:10d300000e0a020001000000820a02000100000073
:10d31000ce0a0200ccf4ff7f0c0b0200d0f4ff7f9a
:10d320004a0d020001000000560d0200ccf4ff7f00
:10d3300098110200d0f4ff7f32120200d4f4ff7f74
:10d340008812020001000000c4120200d0f4ff7f26
:10d350007c130200d4f4ff7fa0130200d8f4ff7ff7
:10d36000dc130200dcf4ff7f34140200e0f4ff7fe2
:10d3700024160200e4f4ff7f7c160200e8f4ff7f2d
:10d38000d4160200ecf4ff7f8617020001000000b3
:10d39000a617020001000000d417020001000000df
:10d3a000dc170200bcf5ff7f04190200c0f5ff7f07
:10d3b000a81a020001000000f01a0200bcf5ff7f6d
:10d3c000e81b0200c0f5ff7ff01e02000100000014
:10d3d000241f0200bcf5ff7fc4200200c0f5ff7fc0
:10d3e0002c21020001000000c42602000100000000
:10d3f000cc26020001000000ec2602000100000023
:10d400000c270200010000002c2702000100000090
:10d410004c27020001000000a427020001000000c8
:10d42000fa270200010000004c2802000100000061
:10d430008828020001000000a82802000100000066
:10d440006c29020001000000a02902000100000078
:10d45000102a020001000000302a02000100000032
:10d46000502a020001000000622a020001000000b0
:10d470008c2a020001000000b62a02000100000010
:10d48000682b020020f6ff7fb82b020024f6ff7ff6
:10d49000302e020001000000643402000100000090
:10d4a000bc42020001000000dc420200010000005a
:10d4b000fc420200010000001c43020001000000c9
:10d4c0003c43020001000000944302000100000000
:10d4d000ea430200010000003c4402000100000099
:10d4e0005c44020001000000204502000100000031
:10d4f0005445020001000000c44502000100000084
:10d50000d6450200010000000046020001000000b4
:10d510002a460200010000005e46020078edff7f0f
:10d52000ac4602007cedff7fda46020080edff7f13
:10d53000ee46020084edff7f1e47020088edff7f6c
:10d5400044470200ae119780d049020084edff7f6e
:10d550000c4a020001000000264a020001000000ff
:10d56000364a020001000000464a020001000000a5
:10d570006e4a020068edff7f924a0200010000003f
:10d58000f44e020001000000fc5b020028f4ff7f63
:10d59000205d02002cf4ff7fdc5e020030f4ff7f90
:10d5a0009860020001000000cc6002002cf4ff7fb4
:10d5b0001062020030f4ff7f5c6202000100000094
:10d5c000f467020001000000408a0200c0f1ff7f02
:10d5d000e88a0200c4f1ff7fd08c0200c8f1ff7f0f
:10d5e000188f020001000000e0940200010000001a
:10d5f000e894020070ecff7f289502000100000013
:10d60000649502006cecff7fe097020070ecff7ff6
:10d610006498020074ecff7fd4980200088497801d
:10d620001c990200010000006c9f02000100000034
:10d63000749f02005cf0ff7f3ca302000100000029
:10d6400020aa02000100000028aa020004f1ff7fc6
:10d65000e4aa020008f1ff7f34ac02000cf1ff7f66
:10d6600074ad020010f1ff7fbcae020001000000ab
:10d670009cb4020001000000a4b4020010f4ff7f7b
:10d6800020b5020014f4ff7f58b80200010000002a
:10d69000b8be020001000000c0be020038f4ff7fe7
:10d6a000e0be02003cf4ff7fd0c202000100000097
:10d6b000c0c8020001000000c8c80200010000004c
:10d6c000d4c80200010000002cc9020001000000c3
:10d6d0004cc90200b0a90280e4c90200b0b0a88021
:10d6e00034ca02000100000038ca02000100000034
:10d6f00034ca02000100000030ca0200b0b0aa80a3
:10d7000068ca0200ae71b28038cb0200010000008e
:10d7100034cb0200ab3f38808ccb0200010000000c
:10d7200098cb0200b0b0aa80d4cb02000100000068
:10d73000dccb020001000000d8cb02000100000099
:10d74000dccb02000100000008cc02000100000058
:10d7500018cc02000100000044cc020001000000cf
:10d7600058cc0200ab0eb280c0cc0200b0af0a8031
:10d7700088cf02000100000084cf020001000000f9
:10d7800080cf0200010000007ccf0200ab3f04808c
:10d79000f4ee0200010000002cef0200ecf3ff7f2a
:10d7a000c8f20200010000007cf802000100000045
:10d7b000f814030001000000181503000100000028
:10d7c00038150300010000006c1503000100000083
:10d7d00096150300d8f3ff7f5c160300dcf3ff7f90
:10d7e00020170300e0f3ff7f2c1803000100000066
:10d7f000041e030001000000502703000100000088
:10d800003c28030001000000782803007cf0ff7f23
:10d81000a42a0300010000005830030001000000aa
:10d82000bc60040001000000dc6004000100000096
:10d83000f660040001000000166104000100000011
:10d840003661040001000000526104000100000084
:10d8500072610400010000008e61040001000000fc
:10d86000ae610400010000007062040001000000cd
:10d87000a462040068edff7f006304000100000063
:10d880002a63040001000000546304005cedff7f84
:10d890008463040001000000ac6304000100000088
:10d8a000de63040050edff7f5264040054edff7fff
:10d8b0009664040058edff7fe06404005cedff7f98
:10d8c00024650400010000008c65040058edff7f12
:10d8d000826604005cedff7f7c67040060edff7fe3
:10d8e000d467040064edff7f0a68040001000000b3
:10d8f00032680400010000005c68040001000000c0
:10d900007c6804000100000096680400010000002b
:10d91000b668040001000000d668040001000000a1
:10d92000f268040001000000126904000100000018
:10d930002e69040001000000866904000100000057
:10d94000dc690400010000002e6a040001000000f0
:10d950006a6a040001000000a66a040001000000d9
:10d96000c66a040001000000886b0400010000008a
:10d97000bc6b040048eeff7f186c0400010000003f
:10d98000a86c040001000000186d040001000000f4
:10d990003e6d040001000000506d04000100000015
:10d9a0007a6d040001000000a46d04001ceeff7fee
:10d9b000d46d040001000000a66e040018eeff7f85
:10d9c000e86f04000100000008700400010000007e
:10d9d00022700400010000004270040001000000f9
:10d9e00062700400010000007e700400010000006d
:10d9f0009e70040001000000ba70040001000000e5
:10da000012710400010000006871040001000000b0
:10da1000ba71040001000000da7104000100000086
:10da20009c72040001000000d072040044ebff7ff0
:10da30002c730400010000009c730400010000002e
:10da4000ae73040001000000d87304000100000060
:10da50000274040028ebff7f327404002cebff7f7c
:10da6000f474040030ebff7f2475040034ebff7f77
:10da70004875040038ebff7f8c760400010000003d
:10da8000ac76040034ebff7fd27604000100000086
:10da9000e676040001000000fa76040028ebff7f20
:10daa0000e7704000100000044770400010000002c
:10dab0005e770400010000007a7704000100000096
:10dac0009677040058f0ff7ff07704005cf0ff7f4a
:10dad0002078040008849780e478040058f0ff7fe1
:10dae0005c79040001000000107f040001000000c8
:10daf000187f0400010000005c7f040001000000aa
:10db0000048004007cecff7f6881040001000000b9
:10db10000087040001000000f48e040001000000f2
:10db20000e8f0400010000002a8f04000100000095
:10db3000468f0400c4efff7fa08f0400c8efff7f73
:10db4000d08f04000884978054900400c4efff7fb6
:10db5000cc90040001000000809604000100000049
:10db60008896040001000000f097040004f0ff7f95
:10db700078980400010000002c9e040001000000c1
:10db8000349e040001000000809e0400010000009b
:10db9000cc9e0400d4eeff7ff09f04000100000043
:10dba000bca504000100000078ad040001000000e5
:10dbb00092ad040001000000aead040001000000c1
:10dbc000caad04007cefff7f24ae040080efff7f2e
:10dbd00054ae040084efff7fb0ae040088efff7ff7
:10dbe00028af040001000000dcb4040001000000c4
:10dbf000e4b40400010000005cb5040080efff7f86
:10dc0000bcb604000100000070bc0400010000006c
:10dc100078bc0400c8ecff7f10be040001000000c7
:10dc200008c404000100000010c40400010000004a
:10dc300054c4040001000000ecc4040044eeff7f63
:10dc4000f8c504000100000090cb040001000000b2
:10dc500098cb040068eeff7fcccb04006ceeff7f16
:10dc600004cd040001000000e0d204000100000027
:10dc7000e8d204000100000018d3040018efff7f71
:10dc80007cd404000100000030da04000100000030
:10dc900038da04000100000058da0400d8edff7ff4
:10dca000b0db04000100000074e10400010000008a
:10dcb0007ce10400010000009ce104000100000080
:10dcc000bce1040001000000dce1040001000000f0
:10dcd000fce104000100000054e204000100000027
:10dce000aae2040001000000fce2040001000000c0
:10dcf00038e304000100000058e3040001000000c4
:10dd00001ce404000100000050e4040001000000d5
:10dd1000c0e4040001000000e0e404000100000091
:10dd200000e504000100000012e50400010000000d
:10dd30003ce504000100000066e5040018e9ff7fef
:10dd40002ce604001ce9ff7f50e6040020e9ff7f79
:10dd50006ee604000100000080e6040001000000ff
:10dd600094e6040001000000a4e6040001000000a5
:10dd7000b2e6040004e9ff7fd8e7040001000000d8
:10dd8000ece704000100000000e8040001000000ce
:10dd900034e8040068ecff7f88e90400010000001b
:10dda00020ef04000100000028ef0400f8e6ff7fe8
:10ddb000c4ef040001000000f0ef040001000000c7
:10ddc00018f004000100000032f00400e4e6ff7fd8
:10ddd00088f00400ac07978028f10400e0e6ff7f9c
:10dde0006af10400e4e6ff7fb4f10400e8e6ff7f97
:10ddf0006af20400010000007af204000100000051
:10de00008af20400dce6ff7f44f304000100000016
:10de10007cf30400d8e6ff7f92f3040001000000c9
:10de2000c4f30400d4e6ff7ff8f30400d8e6ff7fd4
:10de3000a0f5040001000000ccf504000100000082
:10de4000d4f504000100000004f6040054edff7f47
:10de500038f7040001000000ecfc040001000000a1
:10de6000f4fc0400010000001cfd0400010000009f
:10de700026fd04000100000034fd0400d8eaff7f05
:10de80003cfe040001000000f0030500010000005a
:10de9000f8030500010000003804050054ebff7f83
:10dea0006005050001000000f80a050001000000ff
:10deb000000b050001000000340b0500a0ebff7f04
:10dec000300c050001000000e41105000100000015
:10ded000ec11050001000000241205000ceaff7f90
:10dee0000c13050001000000c0180500010000002f
:10def000c8180500bce8ff7ff0190500010000000c
:10df0000a01f050001000000a81f0500010000007f
:10df1000dc1f0500d8ebff7fb020050001000000ea
:10df20006426050001000000282d05007ceaff7f23
:10df3000602d050001000000103305000100000005
:10df4000983e050001000000b83e050001000000f9
:10df5000d83e050001000000f83e05000100000069
:10df6000183f050001000000703f0500010000009f
:10df7000c63f050001000000184005000100000038
:10df80003840050001000000fc40050001000000d1
:10df90003041050001000000a04105000100000023
:10dfa000b241050001000000dc4105000100000055
:10dfb0000642050001000000884205000100000043
:10dfc000a242050001000000bc4205000100000063
:10dfd000d642050001000000fc42050001000000df
:10dfe0002e430500010000005c4305000100000015
:10dff000bc43050001000000ec43050001000000e7
:10e0000030440500010000006c44050001000000e0
:10e0100094440500010000000a45050001000000cd
:10e020007045050001000000f645050001000000f4
:10e03000ea4605000100000010480500010000004c
:10e04000b057050001000000d05705000100000096
:10e05000f057050001000000105805000100000005
:10e060003058050001000000505805000100000074
:10e07000a858050001000000fe580500010000003e
:10e080005059050001000000705905000100000012
:10e09000345a050001000000685a05000100000024
:10e0a000845a050001000000f45a05000100000038
:10e0b000065b050001000000305b05000100000068
:10e0c0005a5b0500010000007c5b050001000000b8
:10e0d000b05b050001000000c45b0500010000000a
:10e0e000d85b050001000000ec5b050001000000aa
:10e0f000125c0500010000007460050001000000d2
:10e10000b069050001000000f86905000100000089
:10e11000486a050001000000806a05000100000057
:10e120009c6a050001000000d86a0500010000009b
:10e13000fa6a0500010000001c6b050001000000e8
:10e14000586b050001000000a46b050001000000f1
:10e15000c46b050001000000046c05000100000014
:10e16000606c050001000000c06c050001000000ab
:10e170001c6d050001000000286d05000100000075
:10e18000386d0500010000004c6d05000100000025
:10e190009c6d050001000000d07505000100000025
:10e1a0006076050044e1ff7fd077050048e1ff7ffe
:10e1b0005a7805004ce1ff7fda7805000100000085
:10e1c0009879050001000000248505000100000089
:10e1d0005485050000840480688505000100000066
:10e1e00064850500b0ad04802c880500b0a80380cc
:10e1f0004c880500dce9ff7f50880500e0e9ff7fdf
:10e200005c880500010000005c880500010000003a
:10e21000989b05000100000088b105000100000086
:10e22000bab1050001000000ccb1050001000000fa
:10e23000dcb1050001000000ecb1050001000000a8
:10e24000fcb10500010000000cb205000100000057
:10e2500026b20500010000003eb2050001000000ea
:10e260006ab205000100000082b205000100000052
:10e270009eb2050001000000bab2050001000000d6
:10e28000e8b2050001000000ecbb05000100000041
:10e2900038bc0500f0e3ff7facbc050001000000c6
:10e2a0004cbd05000100000054bd05000100000048
:10e2b00062bd05000100000078bd050001000000fe
:10e2c00088bd050038e4ff7fa4bd05003ce4ff7f66
:10e2d000c0bd050040e4ff7fdcbd050044e4ff7fd6
:10e2e000f8bd050048e4ff7f14be05004ce4ff7f45
:10e2f00048be050050e4ff7f74be05000100000029
:10e3000080be0500010000008ebe0500c4e2ff7f54
:10e31000dcbe05000100000096bf05000100000002
:10e32000a0d6050001000000c8d6050001000000cd
:10e33000fad60500010000002cd7050001000000fe
:10e34000ecec05000100000030f5050030e5ff7f32
:08e350002c0106000100000091
:020000040000fa
:10e358005ca0002004000000010000000000000094
:10e36800d43b02201c000000000000001cd5012046
:10e378000400000001000000006cdc02683c022080
:10e388000400000000000000603c022005000000be
:10e39800000000006c3c02200400000000000000a7
:10e3a800703c022004000000000000000000002073
:10e3b80024020000000000002402002010000000d9
:10e3c800000000007c3b022030000000010000003b
:10e3d800020000000400104000000300020070006a
:10e3e800b9fc000000000000050000001400200037
:10e3f80000010000353600000000d700001bb70000
:10e408000c3c02201800000000000000743c0220b0
:10e418000400000001000000aaaaaaaa403c0220a9
:10e428000800000000000000783c02200400000002
:10e4380001000000389c000008040020549c0000e3
:10e4480000000000ec37022004010000000000007a
:10e458009c3a02203c00000000000000a836022080
:10e468004401000000000000243c022010000000cd
:10e478000100000030313233343536373839414203
:10e488004344454648d9012011040000000000001b
:10e4980034020020a80000000000000000d0012085
:10e4a8001b05000000000000dc020020080000003e
:10e4b80000000000103b02203500000000000000b2
:10e4c800e40200201001000000000000483c022087
:10e4d80008000000000000005cfc01203002000081
:10e4e8000100000058e404000000000002000000e1
:10e4f8000100000000000000001000000000000003
:10e508005ce4040068e4040000000000000400006b
:10e518000000000078e4040068e404000000000043
:10e52800000200000000000084e4040068e4040025
:10e538000000000020000000000000005ce404006f
:10e5480090e40400000000008000000000000000cb
:10e5580078e4040090e404000000000000010000da
:10e568000000000084e4040090e4040000000000bf
:10e578009ce404000001000001000000010000000c
:10e588000000000020000000000000005ce404001f
:10e59800a0e404000000000080000000000000006b
:10e5a80078e40400a0e4040000000000000100007a
:10e5b8000000000084e40400a0e40400000000005f
:10e5c80063000000000000000000000000000000e0
:10e5d80000000000630000000000000000000000d0
:10e5e80000000000000000006300000000000000c0
:10e5f8000000000000000000000000003ce50400ee
:10e6080000010000010000000100000000000000ff
:10e6180020000000000000005ce4040090e4040016
:10e6280000000000800000000000000084e40400f6
:10e6380090e4040000000000000400000000000056
:10e6480084e4040068e404000000000063000000a3
:10e6580000000000000000000000000000000000b2
:10e66800630000000000000000000000000000003f
:10e67800000000006300000000000000000000002f
:10e68800000000000000000044e504000001000054
:10e698000100000001000000000000000010000060
:10e6a800000000005ce4040068e4040000000000ce
:10e6b800000400000000000084e4040068e4040092
:10e6c80000000000800000000000000084e4040056
:10e6d80090e4040000000000630000000000000057
:10e6e80000000000000000000000000063000000bf
:10e6f8000000000000000000000000000000000012
:10e70800630000000000000000000000000000009e
:10e718000000000060a00020c00b00000000000006
:10e7280080c20120c006000000000000483b022013
:10e73800330000000000000040c90120c0060000ae
:10e7480000000000503c022008000000000000000b
:10e75800f40300200400000000000000343c022004
:10e768000c000000000000008cfe012030020000b8
:10e778000100000028fe0400000000000200000064
:10e788000100000000000000001000000000000070
:10e798002cfe040038fe0400000000000004000005
:10e7a8000000000048fe040038fe040000000000dd
:10e7b800000200000000000054fe040038fe0400bf
:10e7c8000000000020000000000000002cfe0400f3
:10e7d80060fe04000000000080000000000000004f
:10e7e80048fe040060fe0400000000000001000074
:10e7f8000000000054fe040060fe04000000000059
:10e808006cfe04000001000001000000010000008f
:10e818000000000020000000000000002cfe0400a2
:10e8280070fe0400000000008000000000000000ee
:10e8380048fe040070fe0400000000000001000013
:10e848000000000054fe040070fe040000000000f8
:10e85800630000000000000000000000000000004d
:10e86800000000006300000000000000000000003d
:10e87800000000000000000063000000000000002d
:10e888000000000000000000000000000cff040071
:10e89800000100000100000001000000000000006d
:10e8a80020000000000000002cfe040060fe0400b0
:10e8b80000000000800000000000000054fe04007a
:10e8c80060fe0400000000000004000000000000da
:10e8d80054fe040038fe040000000000630000003d
:10e8e8000000000000000000000000000000000020
:10e8f80063000000000000000000000000000000ad
:10e90800000000006300000000000000000000009c
:10e91800000000000000000014ff040000010000d7
:10e9280001000000010000000000000000100000cd
:10e93800000000002cfe040038fe04000000000067
:10e94800000400000000000054fe040038fe04002b
:10e9580000000000800000000000000054fe0400d9
:10e9680060fe0400000000006300000000000000da
:10e97800000000000000000000000000630000002c
:10e98800000000000000000000000000000000007f
:10e99800630000000000000000000000000000000c
:10e9a80000000000bcbb0120c10600000000000000
:10e9b8007c3c02200400000000000000f803002056
:10e9c8000400000000000000f4390220a800000044
:10e9d8000000000064e101206c020000010000005a
:10e9e800e4da03000000000002000000010000005b
:10e9f800000000000010000000000000e8da03003a
:10ea0800f4da030000000000000400000000000029
:10ea180004db0300f4da0300000000000002000039
:10ea28000000000010db0300f4da0300000000001f
:10ea38002000000000000000e8da03001cdb0300ef
:10ea480000000000800000000000000004db03005c
:10ea58001cdb0300000000000001000000000000b3
:10ea680010db03001cdb03000000000028db0300b0
:10ea7800000100000100000001000000000000008b
:10ea88002000000000000000e8da03002cdb03008f
:10ea980000000000800000000000000004db03000c
:10eaa8002cdb030000000000000100000000000053
:10eab80010db03002cdb03000000000063000000f3
:10eac800000000000000000000000000000000003e
:10ead80063000000000000000000000000000000cb
:10eae80000000000630000000000000000000000bb
:10eaf8000000000000000000c8db03000001000067
:10eb080001000000010000000000000020000000db
:10eb180000000000e8da03001cdb0300000000002e
:10eb2800800000000000000010db03001cdb030075
:10eb380000000000000400000000000010db0300db
:10eb4800f4da030000000000630000000000000089
:10eb5800000000000000000000000000630000004a
:10eb6800000000000000000000000000000000009d
:10eb7800630000000000000000000000000000002a
:10eb880000000000d0db03000001000001000000cd
:10eb9800010000000000000000100000000000005c
:10eba800e8da0300f4da03000000000000040000c3
:10ebb8000000000010db0300f4da0300000000008e
:10ebc800800000000000000010db03001cdb0300d5
:10ebd80000000000630000000000000000000000ca
:10ebe80000000000000000006300000000000000ba
:10ebf80000000000000000000000000063000000aa
:10ec080000000000000000000000000000000000fc
:10ec180078c70020a0c70020c8c70020f0c7002080
:10ec280018c8002040c8002068c8002090c80020ec
:10ec3800b8c80020e0c8002008c9002030c900205a
:10ec480058c9002080c90020a8c90020b8c00020e9
:10ec58004809000000000000bc000220300200004b
:10ec680001000000bc1204000000000002000000c7
:10ec7800010000000000000000100000000000007b
:10ec8800c0120400cc1204000000000000040000c0
:10ec980000000000dc120400cc1204000000000098
:10eca8000002000000000000e8120400cc1204007a
:10ecb800000000002000000000000000c012040056
:10ecc800f4120400000000008000000000000000b2
:10ecd800dc120400f412040000000000000100002f
:10ece80000000000e8120400f41204000000000014
:10ecf80000130400000100000100000001000000f2
:10ed0800000000002000000000000000c012040005
:10ed18000413040000000000800000000000000050
:10ed2800dc120400041304000000000000010000cd
:10ed380000000000e81204000413040000000000b2
:10ed48006300000000000000000000000000000058
:10ed58000000000063000000000000000000000048
:10ed68000000000000000000630000000000000038
:10ed7800000000000000000000000000a0130400d4
:10ed88000001000001000000010000000000000078
:10ed98002000000000000000c0120400f41204006b
:10eda800000000008000000000000000e8120400dd
:10edb800f41204000000000000040000000000003d
:10edc800e8120400cc1204000000000063000000f8
:10edd800000000000000000000000000000000002b
:10ede80063000000000000000000000000000000b8
:10edf80000000000630000000000000000000000a8
:10ee08000000000000000000a8130400000100003a
:10ee180001000000010000000000000000100000d8
:10ee280000000000c0120400cc1204000000000022
:10ee38000004000000000000e8120400cc120400e6
:10ee4800000000008000000000000000e81204003c
:10ee5800f41204000000000063000000000000003d
:10ee68000000000000000000000000006300000037
:10ee7800000000000000000000000000000000008a
:10ee88006300000000000000000000000000000017
:10ee98000000000064b700205409000000000000d2
:10eea800803c02200400000000000000d83a022044
:10eeb8003800000000000000d8ec01203c020000ef
:10eec80001000000887c040000000000020000002f
:10eed8000100000000000000001000000000000019
:10eee8008c7c0400987c04000000000000040000f2
:10eef80000000000a87c0400987c040000000000ca
:10ef08000002000000000000b47c0400987c0400ab
:10ef18000000000020000000000000008c7c0400bd
:10ef2800c07c040000000000800000000000000019
:10ef3800a87c0400c07c0400000000000001000060
:10ef480000000000b47c0400c07c04000000000045
:10ef5800cc7c04000001000001000000010000005a
:10ef68000000000020000000000000008c7c04006d
:10ef7800d07c0400000000008000000000000000b9
:10ef8800a87c0400d07c0400000000000001000000
:10ef980000000000b47c0400d07c040000000000e5
:10efa80063000000000000000000000000000000f6
:10efb80000000000630000000000000000000000e6
:10efc80000000000000000006300000000000000d6
:10efd8000000000000000000000000006c7d04003c
:10efe8000001000001000000010000000000000016
:10eff80020000000000000008c7c0400c07c04009d
:10f00800000000008000000000000000b47c040044
:10f01800c07c0400000000000004000000000000a4
:10f02800b47c0400987c0400000000006300000029
:10f0380000000000000000000000000000000000c8
:10f048006300000000000000000000000000000055
:10f058000000000063000000000000000000000045
:10f068000000000000000000747d040000010000a2
:10f078000100000001000000000000000010000076
:10f08800000000008c7c0400987c04000000000054
:10f098000004000000000000b47c0400987c040018
:10f0a800000000008000000000000000b47c0400a4
:10f0b800c07c0400000000006300000000000000a5
:10f0c80000000000000000000000000063000000d5
:10f0d8000000000000000000000000000000000028
:10f0e80063000000000000000000000000000000b5
:10f0f800000000001f1c1f1e1f1e1f1f1e1f1e1f9b
:10f10800082801204007000000000000ec0202204f
:10f118003002000001000000bc06050000000000ed
:10f1280002000000010000000000000000100000c4
:10f1380000000000c0060500cc0605000000000025
:10f148000004000000000000dc060500cc060500f5
:10f15800000000000002000000000000e8060500b2
:10f16800cc060500000000002000000000000000a0
:10f17800c0060500f406050000000000800000003d
:10f1880000000000dc060500f40605000000000091
:10f198000001000000000000e8060500f406050074
:10f1a8000000000000070500000100000100000049
:10f1b8000100000000000000200000000000000026
:10f1c800c0060500040705000000000080000000dc
:10f1d80000000000dc060500040705000000000030
:10f1e8000001000000000000e80605000407050013
:10f1f80000000000630000000000000000000000a4
:10f208000000000000000000630000000000000093
:10f218000000000000000000000000006300000083
:10f2280000000000000000000000000000000000d6
:10f23800a007050000010000010000000100000017
:10f24800000000002000000000000000c0060500cb
:10f25800f406050000000000800000000000000027
:10f26800e8060500f40605000000000000040000a0
:10f2780000000000e8060500cc06050000000000bc
:10f288006300000000000000000000000000000013
:10f298000000000063000000000000000000000003
:10f2a80000000000000000006300000000000000f3
:10f2b800000000000000000000000000a807050092
:10f2c8000001000001000000010000000000000033
:10f2d8000010000000000000c0060500cc06050074
:10f2e800000000000004000000000000e80605001f
:10f2f800cc060500000000008000000000000000af
:10f30800e8060500f40605000000000063000000a0
:10f3180000000000000000000000000000000000e5
:10f328006300000000000000000000000000000072
:10f338000000000063000000000000000000000062
:10f348000000000000000000701901204c070000b8
:10f35800000000001c05022030020000010000002f
:10f368008cb0040000000000020000000100000052
:10f3780000000000001000000000000090b0040031
:10f388009cb0040000000000000400000000000021
:10f39800acb004009cb004000000000000020000b3
:10f3a80000000000b8b004009cb004000000000099
:10f3b800200000000000000090b00400c4b0040069
:10f3c800000000008000000000000000acb0040055
:10f3d800c4b00400000000000001000000000000ac
:10f3e800b8b00400c4b0040000000000d0b00400ad
:10f3f8000001000001000000010000000000000002
:10f40800200000000000000090b00400d4b0040008
:10f41800000000008000000000000000acb0040004
:10f42800d4b004000000000000010000000000004b
:10f43800b8b00400d4b0040000000000630000006d
:10f4480000000000000000000000000000000000b4
:10f458006300000000000000000000000000000041
:10f468000000000063000000000000000000000031
:10f47800000000000000000070b10400000100005e
:10f488000100000001000000000000002000000052
:10f498000000000090b00400c4b0040000000000a8
:10f4a8008000000000000000b8b00400c4b00400f0
:10f4b800000000000004000000000000b8b00400d4
:10f4c8009cb0040000000000630000000000000081
:10f4d80000000000000000000000000063000000c1
:10f4e8000000000000000000000000000000000014
:10f4f80063000000000000000000000000000000a1
:10f508000000000078b104000001000001000000c4
:10f5180001000000000000000010000000000000d2
:10f5280090b004009cb0040000000000000400003b
:10f5380000000000b8b004009cb004000000000007
:10f548008000000000000000b8b00400c4b004004f
:10f558000000000063000000000000000000000040
:10f568000000000000000000630000000000000030
:10f578000000000000000000000000006300000020
:10f588000000000000000000000000000000000073
:10f59800bc44012018070000000000004c070220ae
:10f5a80030020000010000003c9f04000000000041
:10f5b8000200000001000000000000000010000030
:10f5c80000000000409f04004c9f04000000000061
:10f5d80000040000000000005c9f04004c9f040031
:10f5e800000000000002000000000000689f040006
:10f5f8004c9f0400000000002000000000000000f4
:10f60800409f0400749f0400000000008000000078
:10f61800000000005c9f0400749f040000000000cc
:10f628000001000000000000689f0400749f0400af
:10f6380000000000809f040000010000010000009d
:10f648000100000000000000200000000000000091
:10f65800409f0400849f0400000000008000000018
:10f66800000000005c9f0400849f0400000000006c
:10f678000001000000000000689f0400849f04004f
:10f68800000000006300000000000000000000000f
:10f6980000000000000000006300000000000000ff
:10f6a80000000000000000000000000063000000ef
:10f6b8000000000000000000000000000000000042
:10f6c80020a004000001000001000000010000006b
:10f6d800000000002000000000000000409f04001f
:10f6e800749f04000000000080000000000000007b
:10f6f800689f0400749f04000000000000040000dc
:10f7080000000000689f04004c9f040000000000f7
:10f71800630000000000000000000000000000007e
:10f72800000000006300000000000000000000006e
:10f73800000000000000000063000000000000005e
:10f7480000000000000000000000000028a00400e5
:10f75800000100000100000001000000000000009e
:10f768000010000000000000409f04004c9f0400af
:10f77800000000000004000000000000689f040072
:10f788004c9f040000000000800000000000000002
:10f79800689f0400749f04000000000063000000dc
:10f7a8000000000000000000000000000000000051
:10f7b80063000000000000000000000000000000de
:10f7c80000000000630000000000000000000000ce
:10f7d8000000000000000000dcb40120e00600008a
:10f7e80000000000583c0220080000000000000053
:10f7f80061b70020030000000100000001010100c2
:10f80800f03b02201900000000000000f038022040
:10f8180001010000000000008cf301203402000008
:10f8280001000000e4a7040000000000020000003e
:10f8380001000000000000000010000000000000af
:10f84800e8a70400f4a7040000000000000400007a
:10f858000000000004a80400f4a704000000000051
:10f86800000200000000000010a80400f4a7040033
:10f87800000000002000000000000000e8a70400cd
:10f888001ca8040000000000800000000000000028
:10f8980004a804001ca804000000000000010000e7
:10f8a8000000000010a804001ca8040000000000cc
:10f8b80028a8040000010000010000000100000069
:10f8c800000000002000000000000000e8a704007d
:10f8d8002ca80400000000008000000000000000c8
:10f8e80004a804002ca80400000000000001000087
:10f8f8000000000010a804002ca80400000000006c
:10f90800630000000000000000000000000000008c
:10f91800000000006300000000000000000000007c
:10f92800000000000000000063000000000000006c
:10f93800000000000000000000000000c8a804004b
:10f9480000010000010000000100000000000000ac
:10f958002000000000000000e8a704001ca8040024
:10f9680000000000800000000000000010a8040053
:10f978001ca80400000000000004000000000000b3
:10f9880010a80400f4a704000000000063000000b1
:10f99800000000000000000000000000000000005f
:10f9a80063000000000000000000000000000000ec
:10f9b80000000000630000000000000000000000dc
:10f9c8000000000000000000d0a8040000010000b2
:10f9d800010000000100000000000000001000000d
:10f9e80000000000e8a70400f4a7040000000000dd
:10f9f800000400000000000010a80400f4a70400a0
:10fa080000000000800000000000000010a80400b2
:10fa18001ca80400000000006300000000000000b3
:10fa2800000000000000000000000000630000006b
:10fa380000000000000000000000000000000000be
:10fa4800630000000000000000000000000000004b
:10fa580000000000c30000003c7d012000070000fa
:10fa680000000000d0e30120410200000100000076
:10fa7800982d0400000000000200000001000000b2
:10fa88000000000000100000000000009c2d040091
:10fa9800a82d040000000000000400000000000081
:10faa800b82d0400a82d040000000000000200008a
:10fab80000000000c42d0400a82d04000000000070
:10fac80020000000000000009c2d0400d02d040040
:10fad800000000008000000000000000b82d0400b5
:10fae800d02d04000000000000010000000000000c
:10faf800c42d0400d02d040000000000dc2d0400fb
:10fb080000010000010000000100000000000000ea
:10fb180020000000000000009c2d0400e02d0400df
:10fb2800000000008000000000000000b82d040064
:10fb3800e02d0400000000000001000000000000ab
:10fb4800c42d0400e02d0400000000006300000044
:10fb5800000000000000000000000000000000009d
:10fb6800630000000000000000000000000000002a
:10fb7800000000006300000000000000000000001a
:10fb880000000000000000007c2e040000010000be
:10fb9800010000000100000000000000200000003b
:10fba800000000009c2d0400d02d0400000000007f
:10fbb8008000000000000000c42d0400d02d0400c7
:10fbc800000000000004000000000000c42d040034
:10fbd800a82d0400000000006300000000000000e1
:10fbe80000000000000000000000000063000000aa
:10fbf80000000000000000000000000000000000fd
:10fc08006300000000000000000000000000000089
:10fc180000000000842e0400000100000100000024
:10fc280001000000000000000010000000000000bb
:10fc38009c2d0400a82d0400000000000004000012
:10fc480000000000c42d0400a82d040000000000de
:10fc58008000000000000000c42d0400d02d040026
:10fc68000000000063000000000000000000000029
:10fc78000000000000000000630000000000000019
:10fc88000000000000000000000000006300000009
:10fc9800000000000000000000000000000000005c
:10fca80001000000090000001e0000002c010000f7
:10fcb80001000000f4fb00207d07000000000000a8
:10fcc8007c0902203002000001000000483f0400c7
:10fcd8000000000002000000010000000000000019
:10fce80000100000000000004c3f0400583f0400d2
:10fcf800000000000004000000000000683f04004d
:10fd0800583f04000000000000020000000000004e
:10fd1800743f0400583f0400000000002000000069
:10fd2800000000004c3f0400803f04000000000079
:10fd38008000000000000000683f0400803f0400cd
:10fd4800000000000001000000000000743f0400f3
:10fd5800803f0400000000008c3f04000001000008
:10fd68000100000001000000000000002000000069
:10fd7800000000004c3f0400903f04000000000019
:10fd88008000000000000000683f0400903f04006d
:10fd9800000000000001000000000000743f0400a3
:10fda800903f040000000000630000000000000015
:10fdb80000000000000000000000000063000000d8
:10fdc800000000000000000000000000000000002b
:10fdd80063000000000000000000000000000000b8
:10fde800000000002c400400000100000100000099
:10fdf80001000000000000002000000000000000da
:10fe08004c3f0400803f0400000000008000000018
:10fe180000000000743f0400803f04000000000060
:10fe28000004000000000000743f0400583f040074
:10fe38000000000063000000000000000000000057
:10fe48000000000000000000630000000000000047
:10fe58000000000000000000000000006300000037
:10fe6800000000000000000000000000000000008a
:10fe780034400400000100000100000001000000ff
:10fe88000000000000100000000000004c3f0400cb
:10fe9800583f0400000000000004000000000000bb
:10fea800743f0400583f0400000000008000000078
:10feb80000000000743f0400803f040000000000c0
:10fec80063000000000000000000000000000000c7
:10fed80000000000630000000000000000000000b7
:10fee80000000000000000006300000000000000a7
:10fef8000000000000000000000000007403012062
:10ff08005807000000000000ac0b0220300200007f
:10ff180001000000f4ec04000000000002000000f2
:10ff280001000000000000000010000000000000b8
:10ff3800f8ec040004ed04000000000000040000d8
:10ff48000000000014ed040004ed040000000000af
:10ff5800000200000000000020ed040004ed040091
:10ff6800000000002000000000000000f8ec040081
:10ff78002ced0400000000008000000000000000dc
:10ff880014ed04002ced0400000000000001000046
:10ff98000000000020ed04002ced0400000000002b
:10ffa80038ed04000001000001000000010000001d
:10ffb800000000002000000000000000f8ec040031
:10ffc8003ced04000000000080000000000000007c
:10ffd80014ed04003ced04000000000000010000e6
:10ffe8000000000020ed04003ced040000000000cb
:10fff8006300000000000000000000000000000096
:020000040001f9
:100008000000000063000000000000000000000085
:100018000000000000000000630000000000000075
:10002800000000000000000000000000d8ed0400ff
:1000380000010000010000000100000000000000b5
:100048002000000000000000f8ec04002ced040083
:1000580000000000800000000000000020ed040007
:100068002ced040000000000000400000000000067
:1000780020ed040004ed040000000000630000000f
:100088000000000000000000000000000000000068
:1000980063000000000000000000000000000000f5
:1000a80000000000630000000000000000000000e5
:1000b8000000000000000000e0ed04000001000066
:1000c8000100000001000000000000000010000016
:1000d80000000000f8ec040004ed0400000000003b
:1000e800000400000000000020ed040004ed0400fe
:1000f80000000000800000000000000020ed040067
:100108002ced040000000000630000000000000067
:100118000000000000000000000000006300000074
:1001280000000000000000000000000000000000c7
:100138006300000000000000000000000000000054
:10014800000000003c840120f806000000000000c8
:10015800c0f5012034020000010000002cf7030064
:100168000000000002000000010000000000000084
:10017800001000000000000030f703003cf7030007
:100188000000000000040000000000004cf703001d
:100198003cf703000000000000020000000000001f
:1001a80058f703003cf7030000000000200000009f
:1001b8000000000030f7030064f7030000000000af
:1001c80080000000000000004cf7030064f7030003
:1001d80000000000000100000000000058f70300c4
:1001e80064f703000000000070f70300000100003e
:1001f80001000000010000000000000020000000d5
:100208000000000030f7030074f70300000000004e
:1002180080000000000000004cf7030074f70300a2
:1002280000000000000100000000000058f7030073
:1002380074f70300000000006300000000000000e5
:100248000000000000000000000000006300000043
:100258000000000000000000000000000000000096
:100268006300000000000000000000000000000023
:100278000000000010f80300000100000100000069
:100288000100000000000000200000000000000045
:1002980030f7030064f7030000000000800000004e
:1002a8000000000058f7030064f703000000000096
:1002b800000400000000000058f703003cf70300aa
:1002c80000000000630000000000000000000000c3
:1002d80000000000000000006300000000000000b3
:1002e80000000000000000000000000063000000a3
:1002f80000000000000000000000000000000000f6
:1003080018f80300000100000100000001000000cf
:1003180000000000001000000000000030f703009b
:100328003cf703000000000000040000000000008b
:1003380058f703003cf703000000000080000000ad
:100348000000000058f7030064f7030000000000f5
:100358006300000000000000000000000000000032
:100368000000000063000000000000000000000022
:100378000000000000000000630000000000000012
:100388000000000000000000000000000200000063
:10039800ccd200209c08000000000000dc0d0220e8
:1003a8003002000001000000783604000000000060
:1003b8000200000001000000000000000010000022
:1003c800000000007c3604008836040000000000ad
:1003d800000400000000000098360400883604007d
:1003e800000000000002000000000000a436040025
:1003f8008836040000000000200000000000000013
:100408007c360400b03604000000000080000000c4
:100418000000000098360400b03604000000000018
:100428000001000000000000a4360400b0360400fb
:1004380000000000bc3604000001000001000000bc
:100448000100000000000000200000000000000083
:100458007c360400c0360400000000008000000064
:100468000000000098360400c036040000000000b8
:100478000001000000000000a4360400c03604009b
:100488000000000063000000000000000000000001
:1004980000000000000000006300000000000000f1
:1004a80000000000000000000000000063000000e1
:1004b8000000000000000000000000000000000034
:1004c8005c3704000001000001000000010000008a
:1004d8000000000020000000000000007c3604003e
:1004e800b03604000000000080000000000000009a
:1004f800a4360400b0360400000000000004000028
:1005080000000000a4360400883604000000000043
:100518006300000000000000000000000000000070
:100528000000000063000000000000000000000060
:100538000000000000000000630000000000000050
:100548000000000000000000000000006437040004
:100558000001000001000000010000000000000090
:1005680000100000000000007c36040088360400fb
:10057800000000000004000000000000a436040091
:100588008836040000000000800000000000000021
:10059800a4360400b0360400000000006300000028
:1005a8000000000000000000000000000000000043
:1005b80063000000000000000000000000000000d0
:1005c80000000000630000000000000000000000c0
:1005d800000000000000000068db00207c0800002c
:1005e800000000000c100220300200000100000092
:1005f8005cd10300000000000200000001000000c0
:1006080000000000001000000000000060d103009e
:100618006cd103000000000000040000000000008e
:100628007cd103006cd10300000000000002000030
:100638000000000088d103006cd103000000000016
:10064800200000000000000060d1030094d10300e6
:100658000000000080000000000000007cd10300c2
:1006680094d1030000000000000100000000000019
:1006780088d1030094d1030000000000a0d103003a
:10068800000100000100000001000000000000005f
:10069800200000000000000060d10300a4d1030086
:1006a8000000000080000000000000007cd1030072
:1006b800a4d10300000000000001000000000000b9
:1006c80088d10300a4d103000000000063000000eb
:1006d8000000000000000000000000000000000012
:1006e800630000000000000000000000000000009f
:1006f800000000006300000000000000000000008f
:10070800000000000000000040d2030000010000cb
:1007180001000000010000000000000020000000af
:100728000000000060d1030094d103000000000025
:10073800800000000000000088d1030094d103006d
:1007480000000000000400000000000088d1030041
:100758006cd10300000000006300000000000000ee
:10076800000000000000000000000000630000001e
:100778000000000000000000000000000000000071
:1007880063000000000000000000000000000000fe
:100798000000000048d20300000100000100000032
:1007a8000100000000000000001000000000000030
:1007b80060d103006cd103000000000000040000b9
:1007c8000000000088d103006cd103000000000085
:1007d800800000000000000088d1030094d10300cd
:1007e800000000006300000000000000000000009e
:1007f800000000000000000063000000000000008e
:10080800000000000000000000000000630000007d
:1008180000000000000000000000000000000000d0
:1008280000ca0020ca080000000000003c12022094
:100838003002000001000000d47304000000000032
:10084800020000000100000000000000001000008d
:1008580000000000d8730400e473040000000000e6
:100868000004000000000000f4730400e4730400b6
:1008780000000000000200000000000000740400f6
:10088800e4730400000000002000000000000000e5
:10089800d87304000c7404000000000080000000fd
:1008a80000000000f47304000c7404000000000051
:1008b8000001000000000000007404000c74040033
:1008c800000000001874040000010000010000008e
:1008d80001000000000000002000000000000000ef
:1008e800d87304001c74040000000000800000009d
:1008f80000000000f47304001c74040000000000f1
:100908000001000000000000007404001c740400d2
:10091800000000006300000000000000000000006c
:10092800000000000000000063000000000000005c
:10093800000000000000000000000000630000004c
:10094800000000000000000000000000000000009f
:10095800b87404000001000001000000010000005c
:10096800000000002000000000000000d873040010
:100978000c7404000000000080000000000000006b
:10098800007404000c74040000000000000400005f
:100998000000000000740400e4730400000000007c
:1009a80063000000000000000000000000000000dc
:1009b80000000000630000000000000000000000cc
:1009c80000000000000000006300000000000000bc
:1009d800000000000000000000000000c0740400d7
:1009e80000010000010000000100000000000000fc
:1009f8000010000000000000d8730400e473040035
:100a08000000000000040000000000000074040062
:100a1800e4730400000000008000000000000000f3
:100a2800007404000c74040000000000630000005f
:100a380000000000000000000000000000000000ae
:100a4800630000000000000000000000000000003b
:100a5800000000006300000000000000000000002b
:100a68000000000000000000f8ad0120e4060000ce
:100a78000000000028fa01203102000001000000f7
:100a8800b42404000000000002000000010000007f
:100a9800000000000010000000000000b82404005e
:100aa800c42404000000000000040000000000004e
:100ab800d4240400c4240400000000000002000044
:100ac80000000000e0240400c4240400000000002a
:100ad8002000000000000000b8240400ec240400fa
:100ae800000000008000000000000000d424040082
:100af800ec240400000000000001000000000000d9
:100b0800e0240400ec24040000000000f8240400a1
:100b180000010000010000000100000000000000ca
:100b28002000000000000000b8240400fc24040099
:100b3800000000008000000000000000d424040031
:100b4800fc24040000000000000100000000000078
:100b5800e0240400fc2404000000000063000000fe
:100b6800000000000000000000000000000000007d
:100b7800630000000000000000000000000000000a
:100b880000000000630000000000000000000000fa
:100b9800000000000000000098250400000100008b
:100ba800010000000100000000000000200000001b
:100bb80000000000b8240400ec2404000000000039
:100bc8008000000000000000e0240400ec24040081
:100bd800000000000004000000000000e024040001
:100be800c4240400000000006300000000000000ae
:100bf800000000000000000000000000630000008a
:100c080000000000000000000000000000000000dc
:100c18006300000000000000000000000000000069
:100c280000000000a02504000001000001000000f1
:100c3800010000000000000000100000000000009b
:100c4800b8240400c42404000000000000040000cc
:100c580000000000e0240400c42404000000000098
:100c68008000000000000000e0240400ec240400e0
:100c78000000000063000000000000000000000009
:100c880000000000000000006300000000000000f9
:100c980000000000000000000000000063000000e9
:100ca800000000000000000000000000000000003c
:100cb80001000000e4e300207c08000000000000c0
:100cc8006c140220300200000100000090f50400be
:100cd8000000000002000000010000000000000009
:100ce800001000000000000094f50400a0f50400c6
:100cf800000000000004000000000000b0f504003f
:100d0800a0f5040000000000000200000000000040
:100d1800bcf50400a0f5040000000000200000005d
:100d28000000000094f50400c8f50400000000006d
:100d38008000000000000000b0f50400c8f50400c1
:100d4800000000000001000000000000bcf50400e5
:100d5800c8f5040000000000d4f5040000010000fc
:100d68000100000001000000000000002000000059
:100d78000000000094f50400d8f50400000000000d
:100d88008000000000000000b0f50400d8f5040061
:100d9800000000000001000000000000bcf5040095
:100da800d8f5040000000000630000000000000007
:100db80000000000000000000000000063000000c8
:100dc800000000000000000000000000000000001b
:100dd80063000000000000000000000000000000a8
:100de8000000000074f6040000010000010000008b
:100df80001000000000000002000000000000000ca
:100e080094f50400c8f5040000000000800000000c
:100e180000000000bcf50400c8f504000000000054
:100e28000004000000000000bcf50400a0f5040068
:100e38000000000063000000000000000000000047
:100e48000000000000000000630000000000000037
:100e58000000000000000000000000006300000027
:100e6800000000000000000000000000000000007a
:100e78007cf60400000100000100000001000000f1
:100e880000000000001000000000000094f50400bd
:100e9800a0f50400000000000004000000000000ad
:100ea800bcf50400a0f5040000000000800000006c
:100eb80000000000bcf50400c8f5040000000000b4
:100ec80063000000000000000000000000000000b7
:100ed80000000000630000000000000000000000a7
:100ee8000000000000000000630000000000000097
:100ef800000000000000000000000000347601201f
:100f080008070000000000009c16022030020000c4
:100f18000100000038850400000000000200000005
:100f280001000000000000000010000000000000a8
:100f38003c8504004885040000000000000400000f
:100f480000000000588504004885040000000000e7
:100f580000020000000000006485040048850400c9
:100f68000000000020000000000000003c85040094
:100f780070850400000000008000000000000000f0
:100f8800588504007085040000000000000100007e
:100f98000000000064850400708504000000000063
:100fa8007c85040000010000010000000100000031
:100fb8000000000020000000000000003c85040044
:100fc8008085040000000000800000000000000090
:100fd800588504008085040000000000000100001e
:100fe8000000000064850400808504000000000003
:100ff8006300000000000000000000000000000086
:101008000000000063000000000000000000000075
:101018000000000000000000630000000000000065
:101028000000000000000000000000001c86040012
:1010380000010000010000000100000000000000a5
:1010480020000000000000003c85040070850400ba
:10105800000000008000000000000000648504001b
:10106800708504000000000000040000000000007b
:101078006485040048850400000000006300000047
:101088000000000000000000000000000000000058
:1010980063000000000000000000000000000000e5
:1010a80000000000630000000000000000000000d5
:1010b8000000000000000000248604000001000079
:1010c8000100000001000000000000000010000006
:1010d800000000003c850400488504000000000072
:1010e8000004000000000000648504004885040036
:1010f800000000008000000000000000648504007b
:10110800708504000000000063000000000000007b
:101118000000000000000000000000006300000064
:1011280000000000000000000000000000000000b7
:101138006300000000000000000000000000000044
:1011480000000000983d0120240700000000000076
:10115800cc180220300200000100000074aa03002d
:101168000000000002000000010000000000000074
:10117800001000000000000078aa030084aa030001
:1011880000000000000400000000000094aa030012
:1011980084aa030000000000000200000000000014
:1011a800a0aa030084aa0300000000002000000099
:1011b8000000000078aa0300acaa030000000000a9
:1011c800800000000000000094aa0300acaa0300fd
:1011d800000000000001000000000000a0aa0300b9
:1011e800acaa030000000000b8aa03000001000038
:1011f80001000000010000000000000020000000c5
:101208000000000078aa0300bcaa03000000000048
:10121800800000000000000094aa0300bcaa03009c
:10122800000000000001000000000000a0aa030068
:10123800bcaa0300000000006300000000000000da
:101248000000000000000000000000006300000033
:101258000000000000000000000000000000000086
:101268006300000000000000000000000000000013
:101278000000000058ab030000010000010000005e
:101288000100000000000000200000000000000035
:1012980078aa0300acaa0300000000008000000048
:1012a80000000000a0aa0300acaa03000000000090
:1012b8000004000000000000a0aa030084aa0300a4
:1012c80000000000630000000000000000000000b3
:1012d80000000000000000006300000000000000a3
:1012e8000000000000000000000000006300000093
:1012f80000000000000000000000000000000000e6
:1013080060ab0300000100000100000001000000c4
:1013180000000000001000000000000078aa030090
:1013280084aa030000000000000400000000000080
:10133800a0aa030084aa03000000000080000000a7
:1013480000000000a0aa0300acaa030000000000ef
:101358006300000000000000000000000000000022
:101368000000000063000000000000000000000012
:101378000000000000000000630000000000000002
:1013880000000000000000000000000020ac002069
:10139800410b000000000000fc1a0220300200008f
:1013a8000100000078ca04000000000002000000ec
:1013b8000100000000000000001000000000000014
:1013c8007cca040088ca0400000000000004000071
:1013d8000000000098ca040088ca04000000000049
:1013e8000002000000000000a4ca040088ca04002b
:1013f8000000000020000000000000007cca04007b
:10140800b0ca0400000000008000000000000000d6
:1014180098ca0400b0ca04000000000000010000df
:1014280000000000a4ca0400b0ca040000000000c4
:10143800bcca040000010000010000000100000017
:101448000000000020000000000000007cca04002a
:10145800c0ca040000000000800000000000000076
:1014680098ca0400c0ca040000000000000100007f
:1014780000000000a4ca0400c0ca04000000000064
:1014880063000000000000000000000000000000f1
:1014980000000000630000000000000000000000e1
:1014a80000000000000000006300000000000000d1
:1014b8000000000000000000000000005ccb0400f9
:1014c8000001000001000000010000000000000011
:1014d80020000000000000007cca0400b0ca04001c
:1014e800000000008000000000000000a4ca040002
:1014f800b0ca040000000000000400000000000062
:10150800a4ca040088ca04000000000063000000a8
:1015180000000000000000000000000000000000c3
:101528006300000000000000000000000000000050
:101538000000000063000000000000000000000040
:10154800000000000000000064cb0400000100005f
:101558000100000001000000000000000010000071
:10156800000000007cca040088ca040000000000d3
:101578000004000000000000a4ca040088ca040097
:10158800000000008000000000000000a4ca040061
:10159800b0ca040000000000630000000000000062
:1015a80000000000000000000000000063000000d0
:1015b8000000000000000000000000000000000023
:1015c80063000000000000000000000000000000b0
:1015d800000000001c68012009070000000000004e
:1015e80058e801203e02000001000000e48d0400dc
:1015f80000000000020000000100000000000000e0
:101608000010000000000000e88d0400f48d0400c4
:10161800000000000004000000000000048e040028
:10162800f48d04000000000000020000000000002b
:10163800108e0400f48d040000000000200000005b
:1016480000000000e88d04001c8e0400000000006b
:101658008000000000000000048e04001c8e0400be
:10166800000000000001000000000000108e0400cf
:101678001c8e040000000000288e040000010000f9
:101688000100000001000000000000002000000030
:1016980000000000e88d04002c8e0400000000000b
:1016a8008000000000000000048e04002c8e04005e
:1016b800000000000001000000000000108e04007f
:1016c8002c8e0400000000006300000000000000f1
:1016d800000000000000000000000000630000009f
:1016e80000000000000000000000000000000000f2
:1016f800630000000000000000000000000000007f
:1017080000000000c88e0400000100000100000075
:1017180001000000000000002000000000000000a0
:10172800e88d04001c8e040000000000800000000a
:1017380000000000108e04001c8e04000000000051
:101748000004000000000000108e0400f48d040066
:10175800000000006300000000000000000000001e
:10176800000000000000000063000000000000000e
:1017780000000000000000000000000063000000fe
:101788000000000000000000000000000000000051
:10179800d08e0400000100000100000001000000dc
:1017a800000000000010000000000000e88d0400a8
:1017b800f48d040000000000000400000000000098
:1017c800108e0400f48d040000000000800000006a
:1017d80000000000108e04001c8e040000000000b1
:1017e800630000000000000000000000000000008e
:1017f800000000006300000000000000000000007e
:10180800000000000000000063000000000000006d
:10181800000000000000000000000000284e4f57a4
:10182800545229002857545229000000cc0a01209c
:1018380051070000000000002c1d022030020000ab
:101848000100000030b904000000000002000000a0
:10185800010000000000000000100000000000006f
:1018680034b9040040b9040000000000000400007e
:101878000000000050b9040040b904000000000056
:1018880000020000000000005cb9040040b9040038
:1018980000000000200000000000000034b904002f
:1018a80068b904000000000080000000000000008b
:1018b80050b9040068b904000000000000010000ed
:1018c800000000005cb9040068b9040000000000d2
:1018d80074b90400000100000100000001000000cc
:1018e80000000000200000000000000034b90400df
:1018f80078b904000000000080000000000000002b
:1019080050b9040078b9040000000000000100008c
:10191800000000005cb9040078b904000000000071
:10192800630000000000000000000000000000004c
:10193800000000006300000000000000000000003c
:10194800000000000000000063000000000000002c
:1019580000000000000000000000000014ba0400ad
:10196800000100000100000001000000000000006c
:10197800200000000000000034b9040068b9040029
:101988000000000080000000000000005cb90400b6
:1019980068b9040000000000000400000000000016
:1019a8005cb9040040b904000000000063000000b6
:1019b800000000000000000000000000000000001f
:1019c80063000000000000000000000000000000ac
:1019d800000000006300000000000000000000009c
:1019e80000000000000000001cba04000001000014
:1019f80001000000010000000000000000100000cd
:101a08000000000034b9040040b9040000000000e0
:101a180000040000000000005cb9040040b90400a4
:101a28000000000080000000000000005cb9040015
:101a380068b9040000000000630000000000000016
:101a4800000000000000000000000000630000002b
:101a5800000000000000000000000000000000007e
:101a6800630000000000000000000000000000000b
:101a780000000000fc5901201107000000000000d0
:101a88005c1f02203002000001000000480f050022
:101a9800000000000200000001000000000000003b
:101aa80000100000000000004c0f0500580f050052
