:020000040000fa
:10c00000f8ff0320e1bb06004f880600e3da0600d4
:10c010004f880600ddda06004f88060000000000a9
:10c02000000000000000000000000000dd340600f9
:10c030004f8806000000000049370600b7370600a9
:10c040004f8806004f8806004f8806004f8806007c
:10c050004f8806004f8806004f8806004f8806006c
:10c060004f8806004f8806004f880600f9be03007f
:10c070004f8806004f8806004f8806004f8806004c
:10c080004f8806004f8806004f8806004f8806003c
:10c090004f8806004f8806004f8806004f8806002c
:10c0a0004f8806004f8806004f8806004f8806001c
:10c0b0004f8806004f8806004f8806004f8806000c
:10c0c0004f8806004f8806004f8806004f880600fc
:10c0d0004f8806004f8806004f8806004f880600ec
:10c0e0004f8806004f880600000000000000000096
:10c0f00000000000397d06004f8806004f880600ca
:10c100004f8806004f8806004f8806004f880600bb
:10c110004f8806004f8806008d7b0100a57b01003b
:10c12000bd7b01004f8806004f8806004f8806003f
:10c130004f8806004f8806004f8806004f8806008b
:10c140004f8806004f880600ed7b0100057c01004a
:10c150001d7c01004f8806004f8806004f880600ae
:10c160004f8806004f8806004f8806004f8806005b
:10c170004f8806004f8806004f8806004f8806004b
:10c180004f8806004f8806004f8806004f8806003b
:10c190004f8806004f8806004f8806004f8806002b
:10c1a0004f8806004f8806004f8806004f8806001b
:10c1b0004f8806004f8806004f8806004f8806000b
:10c1c0004f8806004f8806004f8806004f880600fb
:10c1d0004f8806004f8806004f8806004f880600eb
:10c1e0004f8806004f8806004f8806004f880600db
:10c1f0004f8806004f8806004f8806004f880600cb
:10c200004f8806004f8806004f8806004f880600ba
:10c210004f8806004f8806004f880600fd850600ff
:10c220004f8806004f8806004f8806004f8806009a
:10c230004f8806004f8806004f8806004f8806008a
:10c240004f8806004f8806004f8806004f8806007a
:10c250004f8806004f8806004f8806004f8806006a
:04c260004f880600fd
:020000040000fa
:10c2640003970181b0b00884000000000d9701819c
:10c27400b0b00b840000000009970181b0b00b84ba
:10c284000000000003970181b0b0088400000000a2
:10c2940003970181b0b00884000000000197018178
:10c2a400b0b008840000000001970181b0b0088498
:10c2b4000000000001970181b0b008840000000074
:10c2c40001970181b0b00884000000000397018148
:10c2d400b0b008840000000003970181b0b0088466
:10c2e4000000000003970181b0b008840000000042
:10c2f40001970181b0b0088400000000019701811a
:10c30400b0b008840000000005970181b0b0088433
:10c314000000000001970181b0b008840000000013
:10c3240002970181b0b009840000000001970181e7
:10c33400b0b008840000000001970181b0b0088407
:10c344000000000003970181b0b0088400000000e1
:10c3540001970181b0b008840000000001970181b9
:10c36400b0b008840000000001970181b0b00884d7
:10c374000000000001970181b0b0088400000000b3
:10c3840003970181b0b00884000000000397018185
:10c39400b0b008840000000003970181b0b00884a5
:10c3a4000000000003970181b0b008840000000081
:10c3b40004970181b0b00984000000000597018151
:10c3c400b0b008840000000005970181b0b0088473
:10c3d4000000000001970181b0b008840000000053
:10c3e40001970181b0b00884000000000397018127
:10c3f400b0b008840000000003970181b0b0088445
:10c404000000000001970181b0b008840000000022
:10c4140001970181b0b008840000000005970181f4
:10c42400b0b008840000000003970181b0b0088414
:10c434000000000003970181b0b0088400000000f0
:10c4440003970181b0b008840000000003970181c4
:10c45400b0b008840000000001970181b0b00884e6
:10c464000000000001970181b0b0088400000000c2
:10c4740003970181b0b00884000000000197018196
:10c48400b0b008840000000001970181b0b00884b6
:10c494000000000003970181b0b008840000000090
:10c4a40001970181b0b00884000000000397018166
:10c4b400b0b008840000000003970181b0b0088484
:10c4c4000000000003970181b0b008840000000060
:10c4d40009970181b0b0088400000000039701812e
:10c4e400b0b008840000000001970181b0b0088456
:10c4f4000000000003970181b0b008840000000030
:10c504000b970181b0b008840000000005970181f9
:10c51400b0b008840000000001970181b0b0088425
:10c524000000000004970181b0b0098400000000fd
:10c5340004970181b0b009840000000001970181d3
:10c54400b0b008840000000002970181b0b00984f3
:10c554000000000001970181b0b0088400000000d1
:10c5640001970181b0b008840000000005970181a3
:10c57400b0b008840000000001970181b0b00884c5
:10c584000000000003970181b0b00884000000009f
:10c5940001970181b0030884000000000197018124
:10c5a400b0b008840000000007970181b0b008848f
:10c5b4000000000001970181b0b008840000000071
:10c5c40001970181b0b00884000000000597018143
:10c5d400b0b008840000000005970181b0b0088461
:10c5e4000000000001970181b0b008840000000041
:10c5f40001970181b0b00884000000000397018115
:10c60400b0b008840000000003970181b0b0088432
:10c614000000000003970181b0b00884000000000e
:10c6240007970181b0b008840000000007970181da
:10c63400b0b008840000000006970181b0b00984fe
:10c644000000000005970181b0b0088400000000dc
:10c6540003970181b0b008840000000001970181b4
:10c66400b0b008840000000001970181b0b00884d4
:10c674000000000005970181b0b0088400000000ac
:10c6840001970181b0b00884000000000597018182
:10c69400b0b008840000000003970181b0b00884a2
:10c6a400000000000d970181b0b008840000000074
:10c6b40009970181b0b00884000000000997018146
:10c6c400b0b008840000000002970181b0b0098472
:10c6d4000000000001970181b0b03b84000000001d
:10c6e40003970181b0b03b840000000003970181ef
:10c6f400b0b008840000000003970181b0b0088442
:10c704000000000003970181b0b00884000000001d
:10c7140003970181b0b008840000000003970181f1
:10c72400b0b008840000000005970181b0b008840f
:10c734000000000003970181b0b0088400000000ed
:10c7440001970181b0b008840000000001970181c5
:10c75400b0b008840000000001970181b0b00884e3
:10c764000000000001970181b0b0088400000000bf
:10c7740001970181b0b00884000000000197018195
:10c78400b0b00b840000000001970181b0b00b84ad
:10c794000000000001970181b0b00b84000000008c
:10c7a40001970181b0b00884000000000597018161
:10c7b400b0b008840000000001970181b0b0088483
:10c7c4000000000009970181b0b008840000000057
:10c7d40001970181b0030b840000000004970181dc
:10c7e400b0030984000000000d970181b0b00884f3
:10c7f4000000000005970181b0b00884000000002b
:10c8040005970181b0b008840000000007970181fa
:10c81400b0b008840000000003970181b0b0088420
:10c824000000000003970181b0b0088400000000fc
:10c8340005970181b0b008840000000009970181c8
:10c84400b0b008840000000005970181b0b00884ee
:10c854000000000005970181b0b0088400000000ca
:10c8640006970181b0b0098400000000019701819e
:10c87400b0b008840000000005970181b0b00884be
:10c884000000000007970181b0b008840000000098
:10c8940007970181b0b00884000000000797018168
:10c8a400b0b008840000000007970181b0b008848c
:10c8b4000000000007970181b0b008840000000068
:10c8c40001970181b0b00884000000000597018140
:10c8d400b0b00b840000000005970181b0b008845b
:10c8e4000000000001970181b0b00884000000003e
:10c8f40001970181b0b00884000000000197018114
:10c90400b0b008840000000003970181b0b008842f
:10c914000000000003970181b0b00884000000000b
:10c9240003970181b0b008840000000001970181e1
:10c93400b0b008840000000001970181b0b0088401
:10c944000000000001970181b0b0088400000000dd
:10c9540003970181b0b00b840000000001970181ae
:10c96400b0b008840000000001970181b0b00884d1
:10c97400000000000d970181b0b0088400000000a1
:10c9840001970181b0b00884000000000197018183
:10c99400b0b008840000000001970181b0b00884a1
:10c9a4000000000005970181b0b008840000000079
:10c9b40005970181b0b0088400000000059701814b
:10c9c400b0b008840000000001970181b0b0088471
:10c9d4000000000004970181b0b009840000000049
:10c9e40001970181b0b00884000000000197018123
:10c9f400b0b008840000000001970181b0b0088441
:10ca04000000000007970181b0b008840000000016
:10ca140003970181b0b008840000000001970181f0
:10ca2400b0b008840000000001970181b0b0088410
:10ca34000000000002970181b0b0098400000000ea
:10ca440008970181b0b009840000000005970181b6
:10ca5400b0b008840000000001970181b0b00b84dd
:10ca64000000000001970181b0b0088400000000bc
:10ca740001970181b0b00884000000000197018192
:10ca8400b0b008840000000001970181b0b00884b0
:10ca94000000000001970181b0b00884000000008c
:10caa40001970181b0b00884000000000197018162
:10cab400b0b008840000000001970181b0b0088480
:10cac4000000000001970181b0b00884000000005c
:10cad40006970181b0b00984000000000597018128
:10cae400b0b008840000000001970181b0b0088450
:10caf4000000000001970181b0b00884000000002c
:10cb040005970181b0b008840000000001970181fd
:10cb1400b0b008840000000001970181b0b008841f
:10cb24000000000005970181b0b0088400000000f7
:10cb340001970181b0b008840000000001970181d1
:10cb4400b0b008840000000001970181b0b00884ef
:10cb54000000000001970181b0b0088400000000cb
:10cb64000b970181b0b00884000000000597018193
:10cb7400b0b008840000000001970181b0b00884bf
:10cb84000000000001970181b0b00884000000009b
:10cb940001970181b0b00884000000000197018171
:10cba400b0b008840000000001970181b0b008848f
:10cbb4000000000008b10181b0b000840000000052
:10cbc40008b10181b0b0008400000000f8b500bfd6
:10cbd400f8bc08bc9e467047d1d80600d5c20600f2
:10cbe400e5770300c5260300f94d06000d34060061
:10cbf400d9cd0500b16f02008d920600b182030009
:10cc0400155b02005d8d030031540500196d0300ae
:10cc140041f10500fdfc0200cd41060011ee0300c8
:10cc24001dde0200fd99050049ea0500652e02009b
:10cc3400e5820500b9ed0200e904060005400300a1
:10cc440041dc050095c60500b99702004de30500d7
:10cc54007d730500f1b70500ada1050099970300a8
:10cc64004d0b03001da90500c1a1030025f8050013
:10cc7400f9630500194c0500998a0500c56b050088
:10cc84004d920500b1c803008db0050019d505000b
:10cc94007ddb0300f8b500bff8bc08bc9e467047b6
:04cca400b1c2060013
:020000040000fa
:10cca8003047010001000000b847010034fcff7f55
:10ccb8008849010001000000c449010030fcff7fe1
:10ccc800d84a010001000000104b01002cfcff7f36
:10ccd800dc4b010001000000104c010001000000c5
:10cce800544c010001000000004d0100010000004b
:10ccf8003c4d010001000000844d010008fcff7f4d
:10cd0800d44e010001000000444f010004fcff7fe5
:10cd180004550100010000007455010000fcff7f6c
:10cd28001c5a010004fcff7f745a010008fcff7fb5
:10cd3800e45a010001000000246101000100000024
:10cd4800b878010001000000d87801000100000057
:10cd5800f8780100010000002c79010001000000b2
:10cd68005679010001000000dc790100ab129780c0
:10cd7800407d010020f9ff7fae7d010024f9ff7f8f
:10cd88006a7e010028f9ff7fe87e01002cf9ff7f09
:10cd9800d07f010030f9ff7fb882010034f9ff7fae
:10cda800bc83010038f9ff7f1487010001000000ef
:10cdb8005c8d010001000000688d01000100000089
:10cdc800888d010001000000a28d01000100000013
:10cdd800c28d010001000000e28d01000100000089
:10cde800fe8d0100010000001e8e01000100000000
:10cdf8003a8e010001000000928e0100010000003f
:10ce0800e88e0100010000003a8f010001000000d7
:10ce1800768f010001000000b28f010001000000c0
:10ce2800d28f01000100000094900100dcf6ff7f22
:10ce3800f090010001000000809101000100000055
:10ce4800f0910100010000001692010001000000ad
:10ce5800289201000100000052920100b8f6ff7ffd
:10ce680082920100bcf6ff7f48930100c0f6ff7f65
:10ce7800dc9501000100000080960100010000001f
:10ce8800b0970100b4f6ff7f8a980100b8f6ff7fdb
:10ce9800b89a010001000000da9a0100b4f6ff7f99
:10cea800f09a0100b8f6ff7f169b01000100000010
:10ceb8005a9b010001000000f0a0010001000000e1
:10cec800f8a001000100000018a101000100000005
:10ced80032a101000100000052a101000100000080
:10cee80072a10100010000008ea1010001000000f4
:10cef800aea1010001000000caa10100010000006c
:10cf080022a201000100000078a201000100000037
:10cf1800caa2010001000000eaa20100010000000d
:10cf2800aca3010001000000e0a30100d8f3ff7fdb
:10cf38003ca4010001000000aca4010001000000b5
:10cf4800bea4010001000000e8a4010001000000e7
:10cf580012a50100bcf3ff7f42a50100c0f3ff7fcb
:10cf680078a7010001000000a4a70100010000004b
:10cf7800baa7010001000000d0a7010001000000cd
:10cf8800e6a70100a4f3ff7ffca70100a8f3ff7f39
:10cf980012a801000100000028a8010001000000fb
:10cfa80044a801000100000058a8010094f3ff7f85
:10cfb80020aa010098f3ff7f4aaa01009cf3ff7f93
:10cfc80074aa0100010000008caa010098f3ff7ff9
:10cfd8002aab01009cf3ff7f54ab0100a0f3ff7f55
:10cfe80078ab010001000000d8ac0100010000008e
:10cff80038ad01000100000024ae01008cf3ff7f72
:10d0080042ae010090f3ff7f60ae010094f3ff7f12
:10d018007eae010001000000f0ae0100010000003a
:10d028004eaf010088f3ff7f5cb0010001000000f3
:10d0380084b001000100000000b101007cf3ff7f13
:10d04800beb10100010000000cb2010001000000a7
:10d0580020b201000100000034b20100010000000c
:10d0680048b20100010000005cb2010001000000ac
:10d0780080b2010001000000acb201000100000014
:10d08800fab201000100000040b3010001000000f5
:10d0980064b301000100000098b301000100000022
:10d0a80010b4010044f9ff7f0cb7010048f9ff7f75
:10d0b8004cb701004cf9ff7f20ba010050f9ff7fff
:10d0c80008bb010054f9ff7f6cbb010058f9ff7fd2
:10d0d800d8bb010001000000b4bc010054f9ff7f77
:10d0e80000bf0100ac019780f8bf010001000000fb
:10d0f800c0c601000100000070ec01000100000042
:10d1080090ec010001000000aaec01000100000001
:10d11800caec010001000000eaec01000100000077
:10d1280006ed01000100000026ed010001000000ed
:10d1380042ed0100010000009aed0100010000002d
:10d14800f0ed01000100000042ee010001000000c6
:10d158007eee010001000000baee010001000000af
:10d16800daee0100010000009cef01000100000060
:10d17800d0ef010050f2ff7f2cf001000100000009
:10d18800bcf00100010000002cf1010001000000ca
:10d1980052f101000100000064f1010001000000eb
:10d1a8008ef1010001000000b8f1010024f2ff7fb8
:10d1b800e8f1010001000000f6f1010001000000a3
:10d1c8006af3010018f2ff7fb2f301001cf2ff7f3f
:10d1d80012f4010020f2ff7f64f4010024f2ff7fc3
:10d1e800a0f4010001000000b4f4010001000000f7
:10d1f800c8f4010001000000dcf401000100000097
:10d20800f0f401000100000004f501000100000035
:10d2180018f5010001000000fef501000100000002
:10d2280012f60100e8f1ff7f2af60100ecf1ff7f1a
:10d238005af60100f0f1ff7fecf60100f4f1ff7ff0
:10d2480022f70100f8f1ff7ff0f90100fcf1ff7f00
:10d2580020fa010000f2ff7f32fa010004f2ff7f9a
:10d2680044fa010008f2ff7f82fa01000100000081
:10d27800cefa010004f2ff7ff2fa010008f2ff7f04
:10d2880016fb01000cf2ff7f60fb0100f4f5ff7f45
:10d29800d8fc0100f8f5ff7ff8fe0100fcf5ff7fe0
:10d2a8008000020000f6ff7fa402020004f6ff7f60
:10d2b800d404020008f6ff7f4805020001000000c0
:10d2c800540b0200010000005c0b020074f6ff7fa3
:10d2d800840c020078f6ff7f280e0200010000008f
:10d2e800700e020074f6ff7f940f020078f6ff7f3d
:10d2f8009c12020001000000d012020074f6ff7fa9
:10d30800a014020078f6ff7f081502000100000053
:10d31800a01a020001000000a81a02000100000083
:10d32800041b0200010000006e1b02000100000047
:10d33800e21b0200010000002e1c020090f4ff7f97
:10d348006c1c020094f4ff7faa1e0200010000007a
:10d35800b61e020090f4ff7ff822020094f4ff7fcb
:10d368009223020098f4ff7fe823020001000000e6
:10d378002424020094f4ff7fdc24020098f4ff7f49
:10d38800002502009cf4ff7f3c250200a0f4ff7feb
:10d3980094250200a4f4ff7f84270200a8f4ff7fed
:10d3a800dc270200acf4ff7f34280200b0f4ff7fd2
:10d3b800e628020001000000062902000100000022
:10d3c80034290200010000003c290200010000008d
:10d3d8005c290200010000007c2902000100000015
:10d3e8009c29020001000000bc2902000100000085
:10d3f800142a0200010000006a2a0200010000004d
:10d40800bc2a020001000000f82a02000100000006
:10d41800182b020001000000dc2b020001000000b4
:10d42800102c020001000000802c02000100000006
:10d43800a02c020001000000c02c02000100000026
:10d44800d22c020001000000fc2c020001000000a8
:10d45800262d020001000000d82d020028f6ff7fcb
:10d46800282e02002cf6ff7fa030020001000000e9
:10d47800d4360200010000002c4502000100000023
:10d488004c450200010000006c450200010000004c
:10d498008c45020001000000ac45020001000000bc
:10d4a80004460200010000005a4602000100000084
:10d4b800ac46020001000000cc460200010000005a
:10d4c8009047020001000000c4470200010000006c
:10d4d8003448020001000000464802000100000034
:10d4e80070480200010000009a4802000100000094
:10d4f800ce48020098edff7f1c4902009cedff7f9b
:10d508004a490200a0edff7f5e490200a4edff7fbb
:10d518008e490200a8edff7fb4490200ae11978042
:10d52800404c0200a4edff7f7c4c0200010000008b
:10d53800964c020001000000a64c02000100000009
:10d54800b64c020001000000de4c020088edff7faf
:10d55800024d0200010000006451020001000000b9
:10d568006c5e020030f4ff7f905f020034f4ff7fae
:10d578004c61020038f4ff7f0863020001000000dc
:10d588003c63020034f4ff7f8064020038f4ff7fbc
:10d59800cc64020001000000646a0200010000007f
:10d5a800b08c0200d4f1ff7f588d0200d8f1ff7fc4
:10d5b800408f0200dcf1ff7f88910200010000002b
:10d5c80050970200010000005897020090ecff7f7e
:10d5d8009897020001000000d49702008cecff7fae
:10d5e800509a020090ecff7fd49a020094ecff7fdf
:10d5f800449b0200088497808c9b02000100000075
:10d60800dca1020001000000e4a102007cf0ff7f21
:10d61800aca502000100000090ac0200010000006f
:10d6280098ac020018f1ff7f54ad02001cf1ff7f97
:10d63800a4ae020020f1ff7fe4af020024f1ff7fd7
:10d648002cb10200010000000cb70200010000002c
:10d6580014b7020018f4ff7f90b702001cf4ff7f94
:10d66800c8ba02000100000028c102000100000041
:10d6780030c1020040f4ff7f50c1020044f4ff7f34
:10d6880040c502000100000030cb0200010000008c
:10d6980038cb02000100000044cb0200010000006a
:10d6a8009ccb020001000000bccb0200b0a90280a4
:10d6b80054cc0200b0b0a880a4cc02000100000045
:10d6c800a8cc020001000000a4cc02000100000068
:10d6d800a0cc0200b0b0aa80d8cc0200ae71b28053
:10d6e800a8cd020001000000a4cd0200ab3f3880a5
:10d6f800fccd02000100000008ce0200b0b0aa80f4
:10d7080044ce0200010000004cce020001000000df
:10d7180048ce0200010000004cce020001000000cb
:10d7280078ce02000100000088ce0200010000004f
:10d73800b4ce020001000000c8ce0200ab0eb280d9
:10d7480030cf0200b0af0a80f8d10200010000001b
:10d75800f4d1020001000000f0d102000100000035
:10d76800ecd10200ab3f0480a0e7020001000000fa
:10d77800d8e70200f4f3ff7f74eb02000100000019
:10d7880028f1020001000000a0fa020001000000d8
:10d79800c0fa020001000000e0fa020001000000e7
:10d7a80014fb0200010000003efb0200e0f3ff7fd3
:10d7b80004fc0200e4f3ff7fc8fc0200e8f3ff7feb
:10d7c800d4fd020001000000ac03030001000000ca
:10d7d800100d030001000000fc0d03000100000013
:10d7e800380e030090f0ff7f641003000100000072
:10d7f80018160300010000009c53030001000000fc
:10d80800bc53030001000000d653030001000000d0
:10d81800f653030001000000165403000100000045
:10d8280032540300010000005254030001000000bc
:10d838006e540300010000008e5403000100000034
:10d8480050550300010000008455030088edff7f58
:10d85800e0550300010000000a5603000100000023
:10d86800345603007cedff7f64560300010000007e
:10d878008c56030001000000be56030070edff7fc8
:10d888003257030074edff7f7657030078edff7f72
:10d89800c05703007cedff7f04580300010000001f
:10d8a8006c58030078edff7f625903007cedff7f21
:10d8b8005c5a030080edff7fb45a030084edff7fbc
:10d8c800ea5a030001000000125b03000100000097
:10d8d800408503000100000060850300010000008e
:10d8e8007a850300010000009a850300010000000a
:10d8f800ba85030001000000d6850300010000007e
:10d90800f6850300010000001286030001000000f4
:10d918006a86030001000000c086030001000000c1
:10d9280012870300010000004e8703000100000079
:10d938008a87030001000000aa8703000100000095
:10d948006c88030001000000a08803005ceeff7fe4
:10d95800fc880300010000008c890300010000001e
:10d96800fc89030001000000228a03000100000076
:10d97800348a0300010000005e8a030001000000f1
:10d98800888a030030eeff7fb88a03000100000098
:10d998008a8b03002ceeff7fb4a503000100000072
:10d9a800d4a5030001000000eea50300010000005b
:10d9b8000ea60300010000002ea6030001000000cf
:10d9c8004aa60300010000006aa603000100000047
:10d9d80086a6030001000000dea603000100000087
:10d9e80034a703000100000086a70300010000001f
:10d9f800a6a703000100000068a8030001000000ba
:10da08009ca8030064ebff7ff8a803000100000056
:10da180068a90300010000007aa9030001000000c2
:10da2800a4a9030001000000cea9030048ebff7f72
:10da3800fea903004cebff7fc0aa030050ebff7f59
:10da4800f0aa030054ebff7f14ab030058ebff7ff1
:10da580058ac03000100000078ac030054ebff7fd2
:10da68009eac030001000000b2ac030001000000fe
:10da7800c6ac030048ebff7fdaac030001000000ee
:10da880084690400010000009e6904000100000090
:10da9800ba69040001000000d669040060f0ff7f45
:10daa800306a040064f0ff7f606a0400088497808d
:10dab800246b040060f0ff7f9c6b040001000000f1
:10dac80050710400010000005871040001000000ba
:10dad8009c710400010000004472040090ecff7f78
:10dae800a873040001000000407904000100000050
:10daf80034810400010000004e8104000100000090
:10db08006a8104000100000086810400ccefff7fd9
:10db1800e0810400d0efff7f108204000884978022
:10db280094820400ccefff7f0c8304000100000006
:10db3800c088040001000000c8880400010000003b
:10db4800308a04000cf0ff7fb88a0400010000004e
:10db58006c900400010000007490040001000000b3
:10db6800c0900400010000000c910400dceeff7f6f
:10db78003092040001000000fc970400010000003e
:10db8800b89f040001000000e09f040001000000ad
:10db9800e89f040001000000f49f0400ab10978088
:10dba80080a104000100000034a704000100000067
:10dbb8003ca704000100000056a704000100000073
:10dbc80072a70400010000008ea7040054efff7f35
:10dbd800e8a7040058efff7f18a804005cefff7f58
:10dbe80074a8040060efff7feca8040001000000a7
:10dbf800a0ae040001000000a8ae0400010000006f
:10dc080020af040058efff7f80b00400010000003f
:10dc180034b60400010000003cb60400acecff7f01
:10dc2800d4b7040001000000ccbd040001000000ce
:10dc3800d4bd04000100000018be0400010000006b
:10dc4800b0be04001ceeff7fbcbf04000100000052
:10dc580054c50400010000005cc5040040eeff7fcd
:10dc680090c5040044eeff7fc8c604000100000010
:10dc7800a4cc040001000000accc040001000000aa
:10dc8800dccc0400f0eeff7f40ce04000100000071
:10dc9800f4d3040001000000fcd3040001000000dc
:10dca8001cd40400b0edff7f74d50400010000000f
:10dcb80038db04000100000040db04000100000024
:10dcc80060db04000100000080db040001000000ac
:10dcd800a0db040001000000c0db0400010000001c
:10dce80018dc0400010000006edc040001000000e4
:10dcf800c0dc040001000000fcdc0400010000009e
:10dd08001cdd040001000000e0dd0400010000004b
:10dd180014de04000100000084de0400010000009d
:10dd2800a4de040001000000c4de040001000000bd
:10dd3800d6de04000100000000df0400010000003e
:10dd48002adf040008e9ff7ff0df04000ce9ff7f09
:10dd580014e0040010e9ff7f32e004000100000035
:10dd680044e004000100000058e004000100000045
:10dd780068e004000100000076e00400f4e8ff7f9a
:10dd88009ce1040001000000b0e104000100000073
:10dd9800c4e1040001000000f8e1040040ecff7f4a
:10dda8004ce3040001000000e4e804000100000066
:10ddb800ece80400e8e6ff7f88e9040001000000c1
:10ddc800b4e9040001000000dce9040001000000df
:10ddd800f6e90400d4e6ff7f4cea0400ac0797801c
:10dde800ecea0400d0e6ff7f2eeb0400d4e6ff7fc8
:10ddf80078eb0400d8e6ff7f2eec04000100000059
:10de08003eec0400010000004eec0400cce6ff7f6d
:10de180008ed04000100000040ed0400c8e6ff7fa3
:10de280056ed04000100000088ed0400c4e6ff7f01
:10de3800bced0400c8e6ff7f64ef040001000000a9
:10de480090ef04000100000098ef040001000000ba
:10de5800c8ef04002cedff7ffcf004000100000077
:10de6800b0f6040001000000b8f60400010000004c
:10de7800f8f604005cebff7f20f8040001000000c6
:10de8800b8fd040001000000c0fd0400010000000e
:10de9800f4fd0400a8ebff7ff0fe04000100000081
:10dea800a404050001000000ac0405000100000006
:10deb800e404050020eaff7fcc050500010000000e
:10dec800800b050001000000880b0500d0e8ff7feb
:10ded800b00c050001000000601205000100000000
:10dee80068120500010000009c120500e0ebff7fae
:10def800701305000100000024190500010000004e
:10df0800e81f050084eaff7f2020050001000000cb
:10df1800d02505000100000058310500010000006f
:10df2800783105000100000098310500010000006b
:10df3800b831050001000000d831050001000000db
:10df480030320500010000008632050001000000a3
:10df5800d832050001000000f83205000100000079
:10df6800bc33050001000000f0330500010000008b
:10df78006034050001000000723405000100000053
:10df88009c34050001000000c634050001000000b3
:10df98004835050001000000623505000100000059
:10dfa8007c350500010000009635050001000000e1
:10dfb800bc35050001000000ee3505000100000039
:10dfc8001c360500010000007c3605000100000039
:10dfd800ac36050001000000f03605000100000025
:10dfe8002c3705000100000054370500010000002f
:10dff800ca370500010000003038050001000000a4
:10e00800b638050001000000aa390500010000002b
:10e01800d03a050001000000704a05000100000028
:10e02800904a050001000000b04a05000100000008
:10e03800d04a050001000000f04a05000100000078
:10e04800104b050001000000684b050001000000ae
:10e05800be4b050001000000104c05000100000047
:10e06800304c050001000000f44c050001000000e0
:10e07800284d050001000000444d05000100000086
:10e08800b44d050001000000c64d05000100000068
:10e09800f04d0500010000001a4e050001000000c7
:10e0a8003c4e050001000000704e05000100000014
:10e0b800844e050001000000984e05000100000094
:10e0c800ac4e050001000000d24e05000100000022
:10e0d8003453050001000000705c050001000000d9
:10e0e800b85c050001000000085d050001000000a3
:10e0f800405d0500010000005c5d050001000000b6
:10e10800985d050001000000ba5d050001000000ef
:10e11800dc5d050001000000185e0500010000003c
:10e12800645e050001000000845e05000100000037
:10e13800c45e050001000000205f0500010000002a
:10e14800805f050001000000dc5f050001000000a1
:10e15800e85f050001000000f85f0500010000000d
:10e168000c600500010000005c6005000100000073
:10e1780090680500010000002069050064e1ff7f48
:10e18800906a050068e1ff7f1a6b05006ce1ff7f6c
:10e198009a6b050001000000586c050001000000a2
:10e1a800e47705000100000014780500008404806d
:10e1b800287805000100000024780500b0ad04802f
:10e1c800ec7a0500b0a803800c7b0500e4e9ff7f2a
:10e1d800107b0500e8e9ff7f1c7b050001000000bb
:10e1e8001c7b050001000000588e0500010000009e
:10e1f80048a40500010000007aa405000100000001
:10e208008ca40500010000009ca40500010000008a
:10e21800aca4050001000000bca40500010000003a
:10e22800cca4050001000000e6a4050001000000e0
:10e23800fea40500010000002aa505000100000059
:10e2480042a50500010000005ea5050001000000d0
:10e258007aa5050001000000a8a50500010000003e
:10e26800acae050001000000f8ae050010e4ff7f29
:10e278006caf0500010000000cb0050001000000b3
:10e2880014b005000100000022b0050001000000e4
:10e2980038b005000100000048b005004ce4ff7fdd
:10e2a80064b0050050e4ff7f80b0050054e4ff7fb0
:10e2b8009cb0050058e4ff7fb8b005005ce4ff7f20
:10e2c800d4b0050060e4ff7f08b1050064e4ff7f77
:10e2d80034b105000100000040b105000100000054
:10e2e8004eb10500e4e2ff7f9cb10500010000008b
:10e2f80056b205000100000020c80500010000001a
:10e3080048c80500010000007ac8050001000000a7
:10e31800acc80500010000001cdf0500010000007a
:10e3280060e7050044e5ff7f80f305000100000079
:020000040000fa
:10e338005ca00020040000000100000000000000b4
:10e34800703a02201c00000000000000043b02207c
:10e358000400000001000000006cdc02083b022001
:10e368000400000000000000fc3a02200500000044
:10e37800000000000c3b0220040000000000000028
:10e38800103b0220040000000000000000000020f4
:10e3980024020000000000002402002010000000f9
:10e3a80000000000183a02203000000001000000c0
:10e3b800020000000400104000000300020070008a
:10e3c800b9fc000000000000050000001400200057
:10e3d80000010000353600000000d700001bb70020
:10e3e800a83a02201800000000000000143b022098
:10e3f8000400000001000000aaaaaaaadc3a022030
:10e408000800000000000000183b02200400000083
:10e4180001000000389c000008040020549c000003
:10e4280000000000883602200401000000000000ff
:10e43800383902203c00000000000000443502206a
:10e448004401000000000000c03a02201000000053
:10e458000100000030313233343536373839414223
:10e4680043444546d8d701201104000000000000ad
:10e4780034020020a80000000000000094ce012013
:10e488001b05000000000000dc020020080000005e
:10e4980000000000ac390220350000000000000038
:10e4a800e40200201001000000000000e43a02200d
:10e4b8000800000000000000f8fa01203002000007
:10e4c8000100000054f304000000000002000000f6
:10e4d8000100000000000000001000000000000023
:10e4e80058f3040064f30400000000000004000076
:10e4f8000000000074f3040064f30400000000004e
:10e50800000200000000000080f3040064f304002f
:10e5180000000000200000000000000058f3040084
:10e528008cf30400000000008000000000000000e0
:10e5380074f304008cf304000000000000010000e4
:10e548000000000080f304008cf3040000000000c9
:10e5580098f3040000010000010000000100000021
:10e5680000000000200000000000000058f3040034
:10e578009cf3040000000000800000000000000080
:10e5880074f304009cf30400000000000001000084
:10e598000000000080f304009cf304000000000069
:10e5a8006300000000000000000000000000000000
:10e5b80000000000630000000000000000000000f0
:10e5c80000000000000000006300000000000000e0
:10e5d80000000000000000000000000038f4040003
:10e5e8000001000001000000010000000000000020
:10e5f800200000000000000058f304008cf3040021
:10e6080000000000800000000000000080f304000b
:10e618008cf304000000000000040000000000006b
:10e6280080f3040064f304000000000063000000ad
:10e6380000000000000000000000000000000000d2
:10e64800630000000000000000000000000000005f
:10e65800000000006300000000000000000000004f
:10e66800000000000000000040f404000001000069
:10e678000100000001000000000000000010000080
:10e688000000000058f3040064f3040000000000d8
:10e69800000400000000000080f3040064f304009c
:10e6a80000000000800000000000000080f304006b
:10e6b8008cf304000000000063000000000000006c
:10e6c80000000000000000000000000063000000df
:10e6d8000000000000000000000000000000000032
:10e6e80063000000000000000000000000000000bf
:10e6f8000000000060a00020500b00000000000097
:10e7080014c10120c006000000000000e439022006
:10e718003300000000000000d4c70120c00600003c
:10e7280000000000ec3a0220080000000000000091
:10e73800f40300200400000000000000d03a02208a
:10e748000c0000000000000028fd0120300200003d
:10e7580001000000e00b05000000000002000000be
:10e768000100000000000000001000000000000090
:10e77800e40b0500f00b0500000000000004000099
:10e7880000000000000c0500f00b05000000000070
:10e7980000020000000000000c0c0500f00b050052
:10e7a800000000002000000000000000e40b05004d
:10e7b800180c0500000000008000000000000000a8
:10e7c800000c0500180c0500000000000001000006
:10e7d800000000000c0c0500180c050000000000eb
:10e7e800240c0500000100000100000001000000e9
:10e7f800000000002000000000000000e40b0500fd
:10e80800280c050000000000800000000000000047
:10e81800000c0500280c05000000000000010000a5
:10e82800000000000c0c0500280c0500000000008a
:10e83800630000000000000000000000000000006d
:10e84800000000006300000000000000000000005d
:10e85800000000000000000063000000000000004d
:10e86800000000000000000000000000c40c0500cb
:10e87800000100000100000001000000000000008d
:10e888002000000000000000e40b0500180c050043
:10e898000000000080000000000000000c0c0500d3
:10e8a800180c050000000000000400000000000033
:10e8b8000c0c0500f00b05000000000063000000d0
:10e8c8000000000000000000000000000000000040
:10e8d80063000000000000000000000000000000cd
:10e8e80000000000630000000000000000000000bd
:10e8f8000000000000000000cc0c05000001000032
:10e9080001000000010000000000000000100000ed
:10e9180000000000e40b0500f00b050000000000fb
:10e9280000040000000000000c0c0500f00b0500be
:10e938000000000080000000000000000c0c050032
:10e94800180c050000000000630000000000000033
:10e95800000000000000000000000000630000004c
:10e96800000000000000000000000000000000009f
:10e97800630000000000000000000000000000002c
:10e988000000000050ba0120c1060000000000008d
:10e998001c3b02200400000000000000f8030020d7
:10e9a800040000000000000090380220a8000000c9
:10e9b80000000000f4df01206c02000001000000ec
:10e9c800f8f703000000000002000000010000004a
:10e9d800000000000010000000000000fcf7030029
:10e9e80008f8030000000000000400000000000018
:10e9f80018f8030008f803000000000000020000f7
:10ea08000000000024f8030008f8030000000000dc
:10ea18002000000000000000fcf7030030f80300ad
:10ea280000000000800000000000000018f803004b
:10ea380030f80300000000000001000000000000a2
:10ea480024f8030030f80300000000003cf803003d
:10ea580000010000010000000100000000000000ab
:10ea68002000000000000000fcf7030040f803004d
:10ea780000000000800000000000000018f80300fb
:10ea880040f8030000000000000100000000000042
:10ea980024f8030040f803000000000063000000b1
:10eaa800000000000000000000000000000000005e
:10eab80063000000000000000000000000000000eb
:10eac80000000000630000000000000000000000db
:10ead8000000000000000000dcf803000001000056
:10eae80001000000010000000000000020000000fc
:10eaf80000000000fcf7030030f8030000000000ed
:10eb0800800000000000000024f8030030f8030033
:10eb180000000000000400000000000024f80300ca
:10eb280008f8030000000000630000000000000077
:10eb3800000000000000000000000000630000006a
:10eb480000000000000000000000000000000000bd
:10eb5800630000000000000000000000000000004a
:10eb680000000000e4f803000001000001000000bc
:10eb7800010000000000000000100000000000007c
:10eb8800fcf7030008f80300000000000004000080
:10eb98000000000024f8030008f80300000000004b
:10eba800800000000000000024f8030030f8030093
:10ebb80000000000630000000000000000000000ea
:10ebc80000000000000000006300000000000000da
:10ebd80000000000000000000000000063000000ca
:10ebe800000000000000000000000000000000001d
:10ebf8000cc7002034c700205cc7002084c7002051
:10ec0800acc70020d4c70020fcc7002024c80020bf
:10ec18004cc8002074c800209cc80020c4c800202c
:10ec2800ecc8002014c900203cc900204cc00020ba
:10ec3800480900000000000058ff012030020000d1
:10ec480001000000381b0400000000000200000062
:10ec5800010000000000000000100000000000009b
:10ec68003c1b0400481b04000000000000040000d6
:10ec780000000000581b0400481b040000000000ae
:10ec88000002000000000000641b0400481b040090
:10ec98000000000020000000000000003c1b0400f1
:10eca800701b04000000000080000000000000004d
:10ecb800581b0400701b0400000000000001000045
:10ecc80000000000641b0400701b0400000000002a
:10ecd8007c1b04000001000001000000010000008e
:10ece8000000000020000000000000003c1b0400a1
:10ecf800801b0400000000008000000000000000ed
:10ed0800581b0400801b04000000000000010000e4
:10ed180000000000641b0400801b040000000000c9
:10ed28006300000000000000000000000000000078
:10ed38000000000063000000000000000000000068
:10ed48000000000000000000630000000000000058
:10ed58000000000000000000000000001c1c04006f
:10ed68000001000001000000010000000000000098
:10ed780020000000000000003c1b0400701b040081
:10ed8800000000008000000000000000641b040078
:10ed9800701b0400000000000004000000000000d8
:10eda800641b0400481b040000000000630000000e
:10edb800000000000000000000000000000000004b
:10edc80063000000000000000000000000000000d8
:10edd80000000000630000000000000000000000c8
:10ede8000000000000000000241c040000010000d6
:10edf80001000000010000000000000000100000f9
:10ee0800000000003c1b0400481b04000000000038
:10ee18000004000000000000641b0400481b0400fc
:10ee2800000000008000000000000000641b0400d7
:10ee3800701b0400000000006300000000000000d8
:10ee48000000000000000000000000006300000057
:10ee580000000000000000000000000000000000aa
:10ee68006300000000000000000000000000000037
:10ee780000000000f4b6002058090000000000005f
:10ee8800203b02200400000000000000743902202a
:10ee9800380000000000000068eb01203c02000080
:10eea8000100000054880400000000000200000077
:10eeb8000100000000000000001000000000000039
:10eec8005888040064880400000000000004000062
:10eed800000000007488040064880400000000003a
:10eee800000200000000000080880400648804001c
:10eef8000000000020000000000000005888040006
:10ef08008c88040000000000800000000000000061
:10ef1800748804008c8804000000000000010000d0
:10ef280000000000808804008c88040000000000b5
:10ef380098880400000100000100000001000000a2
:10ef480000000000200000000000000058880400b5
:10ef58009c88040000000000800000000000000001
:10ef6800748804009c880400000000000001000070
:10ef780000000000808804009c8804000000000055
:10ef88006300000000000000000000000000000016
:10ef98000000000063000000000000000000000006
:10efa80000000000000000006300000000000000f6
:10efb8000000000000000000000000003889040084
:10efc8000001000001000000010000000000000036
:10efd8002000000000000000588804008c8804000d
:10efe800000000008000000000000000808804008d
:10eff8008c880400000000000004000000000000ed
:10f008008088040064880400000000006300000099
:10f0180000000000000000000000000000000000e8
:10f028006300000000000000000000000000000075
:10f038000000000063000000000000000000000065
:10f0480000000000000000004089040000010000ea
:10f058000100000001000000000000000010000096
:10f0680000000000588804006488040000000000c4
:10f078000004000000000000808804006488040088
:10f0880000000000800000000000000080880400ec
:10f098008c880400000000006300000000000000ed
:10f0a80000000000000000000000000063000000f5
:10f0b8000000000000000000000000000000000048
:10f0c80063000000000000000000000000000000d5
:10f0d800000000001f1c1f1e1f1e1f1f1e1f1e1fbb
:10f0e8009c26012040070000000000008801022043
:10f0f80030020000010000000814050000000000b4
:10f1080002000000010000000000000000100000e4
:10f11800000000000c140500181405000000000091
:10f128000004000000000000281405001814050061
:10f138000000000000020000000000003414050078
:10f148001814050000000000200000000000000066
:10f158000c140500401405000000000080000000a9
:10f1680000000000281405004014050000000000fd
:10f1780000010000000000003414050040140500e0
:10f18800000000004c140500000100000100000010
:10f198000100000000000000200000000000000046
:10f1a8000c14050050140500000000008000000049
:10f1b800000000002814050050140500000000009d
:10f1c8000001000000000000341405005014050080
:10f1d80000000000630000000000000000000000c4
:10f1e80000000000000000006300000000000000b4
:10f1f80000000000000000000000000063000000a4
:10f2080000000000000000000000000000000000f6
:10f21800ec140500000100000100000001000000de
:10f228000000000020000000000000000c14050091
:10f2380040140500000000008000000000000000ed
:10f24800341405004014050000000000000400000c
:10f258000000000034140500181405000000000028
:10f268006300000000000000000000000000000033
:10f278000000000063000000000000000000000023
:10f288000000000000000000630000000000000013
:10f29800000000000000000000000000f414050059
:10f2a8000001000001000000010000000000000053
:10f2b80000100000000000000c14050018140500e0
:10f2c80000000000000400000000000034140500e5
:10f2d8001814050000000000800000000000000075
:10f2e800341405004014050000000000630000000d
:10f2f8000000000000000000000000000000000006
:10f308006300000000000000000000000000000092
:10f318000000000063000000000000000000000082
:10f328000000000000000000041801204c07000045
:10f3380000000000b80302203002000001000000b5
:10f3480010c20400000000000200000001000000dc
:10f3580000000000001000000000000014c20400bb
:10f3680020c20400000000000004000000000000ab
:10f3780030c2040020c204000000000000020000a7
:10f38800000000003cc2040020c20400000000008d
:10f39800200000000000000014c2040048c204005d
:10f3a80000000000800000000000000030c20400df
:10f3b80048c2040000000000000100000000000036
:10f3c8003cc2040048c204000000000054c204000b
:10f3d8000001000001000000010000000000000022
:10f3e800200000000000000014c2040058c20400fd
:10f3f80000000000800000000000000030c204008f
:10f4080058c20400000000000001000000000000d5
:10f418003cc2040058c20400000000006300000061
:10f4280000000000000000000000000000000000d4
:10f438006300000000000000000000000000000061
:10f448000000000063000000000000000000000051
:10f458000000000000000000f4c2040000010000e9
:10f468000100000001000000000000002000000072
:10f478000000000014c2040048c20400000000009c
:10f4880080000000000000003cc2040048c20400e4
:10f498000000000000040000000000003cc204005e
:10f4a80020c204000000000063000000000000000b
:10f4b80000000000000000000000000063000000e1
:10f4c8000000000000000000000000000000000034
:10f4d80063000000000000000000000000000000c1
:10f4e80000000000fcc20400000100000100000050
:10f4f80001000000000000000010000000000000f3
:10f5080014c2040020c2040000000000000400002f
:10f51800000000003cc2040020c2040000000000fb
:10f5280080000000000000003cc2040048c2040043
:10f538000000000063000000000000000000000060
:10f548000000000000000000630000000000000050
:10f558000000000000000000000000006300000040
:10f568000000000000000000000000000000000093
:10f57800504301201807000000000000e8050220a1
:10f58800300200000100000098b1040000000000f3
:10f598000200000001000000000000000010000050
:10f5a800000000009cb10400a8b1040000000000a5
:10f5b8000004000000000000b8b10400a8b1040075
:10f5c800000000000002000000000000c4b10400b8
:10f5d800a8b10400000000002000000000000000a6
:10f5e8009cb10400d0b104000000000080000000bd
:10f5f80000000000b8b10400d0b104000000000011
:10f608000001000000000000c4b10400d0b10400f3
:10f6180000000000dcb1040000010000010000004f
:10f6280001000000000000002000000000000000b1
:10f638009cb10400e0b1040000000000800000005c
:10f6480000000000b8b10400e0b1040000000000b0
:10f658000001000000000000c4b10400e0b1040093
:10f66800000000006300000000000000000000002f
:10f67800000000000000000063000000000000001f
:10f68800000000000000000000000000630000000f
:10f698000000000000000000000000000000000062
:10f6a8007cb204000001000001000000010000001d
:10f6b8000000000020000000000000009cb10400d1
:10f6c800d0b104000000000080000000000000002d
:10f6d800c4b10400d0b10400000000000004000020
:10f6e80000000000c4b10400a8b10400000000003c
:10f6f800630000000000000000000000000000009f
:10f70800000000006300000000000000000000008e
:10f71800000000000000000063000000000000007e
:10f7280000000000000000000000000084b2040097
:10f7380000010000010000000100000000000000be
:10f7480000100000000000009cb10400a8b10400f3
:10f75800000000000004000000000000c4b1040024
:10f76800a8b10400000000008000000000000000b4
:10f77800c4b10400d0b10400000000006300000020
:10f788000000000000000000000000000000000071
:10f7980063000000000000000000000000000000fe
:10f7a80000000000630000000000000000000000ee
:10f7b800000000000000000070b30120e006000017
:10f7c80000000000f43a02200800000000000000d9
:10f7d800f1b6002003000000010000000101010053
:10f7e8008c3a022019000000000000008c3702202b
:10f7f800010100000000000090f601203402000022
:10f8080001000000d4b9040000000000020000005c
:10f8180001000000000000000010000000000000cf
:10f82800d8b90400e4b90400000000000004000096
:10f8380000000000f4b90400e4b90400000000006e
:10f84800000200000000000000ba0400e4b904004f
:10f85800000000002000000000000000d8b90400eb
:10f868000cba040000000000800000000000000046
:10f87800f4b904000cba0400000000000001000004
:10f888000000000000ba04000cba040000000000e8
:10f8980018ba040000010000010000000100000087
:10f8a800000000002000000000000000d8b904009b
:10f8b8001cba0400000000008000000000000000e6
:10f8c800f4b904001cba04000000000000010000a4
:10f8d8000000000000ba04001cba04000000000088
:10f8e80063000000000000000000000000000000ad
:10f8f800000000006300000000000000000000009d
:10f90800000000000000000063000000000000008c
:10f91800000000000000000000000000b8ba040069
:10f9280000010000010000000100000000000000cc
:10f938002000000000000000d8b904000cba040040
:10f9480000000000800000000000000000ba040071
:10f958000cba0400000000000004000000000000d1
:10f9680000ba0400e4b904000000000063000000cd
:10f97800000000000000000000000000000000007f
:10f98800630000000000000000000000000000000c
:10f9980000000000630000000000000000000000fc
:10f9a8000000000000000000c0ba040000010000d0
:10f9b800010000000100000000000000001000002d
:10f9c80000000000d8b90400e4b9040000000000f9
:10f9d800000400000000000000ba0400e4b90400bc
:10f9e80000000000800000000000000000ba0400d1
:10f9f8000cba0400000000006300000000000000d2
:10fa0800000000000000000000000000630000008b
:10fa180000000000000000000000000000000000de
:10fa2800630000000000000000000000000000006b
:10fa380000000000c3000000d07b01200007000088
:10fa48000000000060e20120410200000100000007
:10fa5800483d040000000000020000000100000012
:10fa68000000000000100000000000004c3d0400f1
:10fa7800583d0400000000000004000000000000e1
:10fa8800683d0400583d040000000000000200002a
:10fa980000000000743d0400583d04000000000010
:10faa80020000000000000004c3d0400803d0400e0
:10fab800000000008000000000000000683d040015
:10fac800803d04000000000000010000000000006c
:10fad800743d0400803d0400000000008c3d0400db
:10fae800000100000100000001000000000000000b
:10faf80020000000000000004c3d0400903d040080
:10fb0800000000008000000000000000683d0400c4
:10fb1800903d04000000000000010000000000000b
:10fb2800743d0400903d04000000000063000000e4
:10fb380000000000000000000000000000000000bd
:10fb4800630000000000000000000000000000004a
:10fb5800000000006300000000000000000000003a
:10fb680000000000000000002c3e0400000100001e
:10fb7800010000000100000000000000200000005b
:10fb8800000000004c3d0400803d0400000000001f
:10fb98008000000000000000743d0400803d040067
:10fba800000000000004000000000000743d040094
:10fbb800583d040000000000630000000000000041
:10fbc80000000000000000000000000063000000ca
:10fbd800000000000000000000000000000000001d
:10fbe80063000000000000000000000000000000aa
:10fbf80000000000343e0400000100000100000085
:10fc080001000000000000000010000000000000db
:10fc18004c3d0400583d04000000000000040000b2
:10fc280000000000743d0400583d0400000000007e
:10fc38008000000000000000743d0400803d0400c6
:10fc48000000000063000000000000000000000049
:10fc58000000000000000000630000000000000039
:10fc68000000000000000000000000006300000029
:10fc7800000000000000000000000000000000007c
:10fc880001000000090000001e0000002c01000017
:10fc98000100000088fa00207d0700000000000035
:10fca800180802203002000001000000bc450400d2
:10fcb8000000000002000000010000000000000039
:10fcc8000010000000000000c0450400cc450400fe
:10fcd800000000000004000000000000dc450400f3
:10fce800cc450400000000000002000000000000f5
:10fcf800e8450400cc450400000000002000000096
:10fd080000000000c0450400f445040000000000a5
:10fd18008000000000000000dc450400f4450400f9
:10fd2800000000000001000000000000e845040099
:10fd3800f445040000000000004604000001000033
:10fd48000100000001000000000000002000000089
:10fd580000000000c0450400044604000000000044
:10fd68008000000000000000dc4504000446040098
:10fd7800000000000001000000000000e845040049
:10fd880004460400000000006300000000000000ba
:10fd980000000000000000000000000063000000f8
:10fda800000000000000000000000000000000004b
:10fdb80063000000000000000000000000000000d8
:10fdc80000000000a046040000010000010000003f
:10fdd80001000000000000002000000000000000fa
:10fde800c0450400f4450400000000008000000045
:10fdf80000000000e8450400f4450400000000008d
:10fe08000004000000000000e8450400cc450400a0
:10fe18000000000063000000000000000000000077
:10fe28000000000000000000630000000000000067
:10fe38000000000000000000000000006300000057
:10fe480000000000000000000000000000000000aa
:10fe5800a8460400000100000100000001000000a5
:10fe6800000000000010000000000000c045040071
:10fe7800cc45040000000000000400000000000061
:10fe8800e8450400cc4504000000000080000000a4
:10fe980000000000e8450400f445040000000000ec
:10fea80063000000000000000000000000000000e7
:10feb80000000000630000000000000000000000d7
:10fec80000000000000000006300000000000000c7
:10fed80000000000000000000000000008020120ef
:10fee8005807000000000000480a02203002000005
:10fef8000100000084fb0400000000000200000074
:10ff080001000000000000000010000000000000d8
:10ff180088fb040094fb04000000000000040000bb
:10ff280000000000a4fb040094fb04000000000093
:10ff38000002000000000000b0fb040094fb040075
:10ff480000000000200000000000000088fb040002
:10ff5800bcfb04000000000080000000000000005e
:10ff6800a4fb0400bcfb040000000000000100002a
:10ff780000000000b0fb0400bcfb0400000000000f
:10ff8800c8fb04000001000001000000010000009f
:10ff980000000000200000000000000088fb0400b2
:10ffa800ccfb0400000000008000000000000000fe
:10ffb800a4fb0400ccfb04000000000000010000ca
:10ffc80000000000b0fb0400ccfb040000000000af
:10ffd80063000000000000000000000000000000b6
:10ffe80000000000630000000000000000000000a6
:10fff8000000000000000000630000000000000096
:020000040001f9
:1000080000000000000000000000000068fc040080
:1000180000010000010000000100000000000000d5
:10002800200000000000000088fb0400bcfb040066
:10003800000000008000000000000000b0fb040089
:10004800bcfb0400000000000004000000000000e9
:10005800b0fb040094fb04000000000063000000f3
:100068000000000000000000000000000000000088
:100078006300000000000000000000000000000015
:100088000000000063000000000000000000000005
:10009800000000000000000070fc040000010000e7
:1000a8000100000001000000000000000010000036
:1000b8000000000088fb040094fb0400000000001e
:1000c8000004000000000000b0fb040094fb0400e2
:1000d800000000008000000000000000b0fb0400e9
:1000e800bcfb0400000000006300000000000000ea
:1000f8000000000000000000000000006300000095
:1001080000000000000000000000000000000000e7
:100118006300000000000000000000000000000074
:1001280000000000d0820120f80600000000000056
:100138001cf201203902000001000000080104003f
:1001480000000000020000000100000000000000a4
:1001580000100000000000000c0104001801040059
:100168000000000000040000000000002801040056
:100178001801040000000000000200000000000058
:1001880034010400180104000000000020000000f1
:10019800000000000c010400400104000000000001
:1001a8008000000000000000280104004001040055
:1001b80000000000000100000000000034010400fd
:1001c80040010400000000004c0104000001000090
:1001d80001000000010000000000000020000000f5
:1001e800000000000c0104005001040000000000a1
:1001f80080000000000000002801040050010400f5
:1002080000000000000100000000000034010400ac
:10021800500104000000000063000000000000001e
:100228000000000000000000000000006300000063
:1002380000000000000000000000000000000000b6
:100248006300000000000000000000000000000043
:1002580000000000ec0104000001000001000000a3
:100268000100000000000000200000000000000065
:100278000c010400400104000000000080000000a0
:1002880000000000340104004001040000000000e8
:1002980000040000000000003401040018010400fc
:1002a80000000000630000000000000000000000e3
:1002b80000000000000000006300000000000000d3
:1002c80000000000000000000000000063000000c3
:1002d8000000000000000000000000000000000016
:1002e800f40104000001000001000000010000000a
:1002f8000000000000100000000000000c010400d5
:1003080018010400000000000004000000000000c4
:1003180034010400180104000000000080000000ff
:100328000000000034010400400104000000000047
:100338006300000000000000000000000000000052
:100348000000000063000000000000000000000042
:100358000000000000000000630000000000000032
:100368000000000000000000000000000200000083
:10037800050000000300000060d20020780800009b
:1003880000000000780c022030020000010000008c
:100398009890040000000000020000000100000026
:1003a8000000000000100000000000009c90040005
:1003b800a8900400000000000004000000000000f5
:1003c800b8900400a890040000000000000200009b
:1003d80000000000c4900400a89004000000000081
:1003e80020000000000000009c900400d090040051
:1003f800000000008000000000000000b890040029
:10040800d09004000000000000010000000000007f
:10041800c4900400d090040000000000dc900400a8
:1004280000010000010000000100000000000000c1
:1004380020000000000000009c900400e0900400f0
:10044800000000008000000000000000b8900400d8
:10045800e09004000000000000010000000000001f
:10046800c4900400e0900400000000006300000055
:100478000000000000000000000000000000000074
:100488006300000000000000000000000000000001
:1004980000000000630000000000000000000000f1
:1004a80000000000000000007c9104000001000032
:1004b8000100000001000000000000002000000012
:1004c800000000009c900400d09004000000000090
:1004d8008000000000000000c4900400d0900400d8
:1004e800000000000004000000000000c4900400a8
:1004f800a890040000000000630000000000000055
:100508000000000000000000000000006300000080
:1005180000000000000000000000000000000000d3
:100528006300000000000000000000000000000060
:100538000000000084910400000100000100000098
:100548000100000000000000001000000000000092
:100558009c900400a8900400000000000004000023
:1005680000000000c4900400a890040000000000ef
:100578008000000000000000c4900400d090040037
:100588000000000063000000000000000000000000
:1005980000000000000000006300000000000000f0
:1005a80000000000000000000000000063000000e0
:1005b8000000000000000000000000000000000033
:1005c800e4f20020a407000000000000a80e0220aa
:1005d8003002000001000000dcee03000000000013
:1005e80002000000010000000000000000100000f0
:1005f80000000000e0ee0300ecee03000000000045
:100608000004000000000000fcee0300ecee030014
:1006180000000000000200000000000008ef0300d6
:10062800ecee0300000000002000000000000000c5
:10063800e0ee030014ef030000000000800000005b
:1006480000000000fcee030014ef030000000000af
:10065800000100000000000008ef030014ef030091
:100668000000000020ef030000010000010000006e
:100678000100000000000000200000000000000051
:10068800e0ee030024ef03000000000080000000fb
:1006980000000000fcee030024ef0300000000004f
:1006a800000100000000000008ef030024ef030031
:1006b80000000000630000000000000000000000cf
:1006c80000000000000000006300000000000000bf
:1006d80000000000000000000000000063000000af
:1006e8000000000000000000000000000000000002
:1006f800c0ef03000001000001000000010000003d
:10070800000000002000000000000000e0ee0300f0
:1007180014ef03000000000080000000000000004b
:1007280008ef030014ef03000000000000040000bd
:100738000000000008ef0300ecee030000000000da
:10074800630000000000000000000000000000003e
:10075800000000006300000000000000000000002e
:10076800000000000000000063000000000000001e
:10077800000000000000000000000000c8ef0300b7
:10078800000100000100000001000000000000005e
:100798000010000000000000e0ee0300ecee030093
:1007a80000000000000400000000000008ef030043
:1007b800ecee0300000000008000000000000000d4
:1007c80008ef030014ef03000000000063000000be
:1007d8000000000000000000000000000000000011
:1007e800630000000000000000000000000000009e
:1007f800000000006300000000000000000000008e
:10080800000000000000000094c90020ca08000091
:1008180000000000d8100220300200000100000093
:10082800c87704000000000002000000010000007a
:10083800000000000010000000000000cc77040059
:10084800d877040000000000000400000000000049
:10085800e8770400d87704000000000000020000d8
:1008680000000000f4770400d877040000000000be
:100878002000000000000000cc770400007804008d
:10088800000000008000000000000000e87704007d
:1008980000780400000000000001000000000000d3
:1008a800f477040000780400000000000c780400cd
:1008b800000100000100000001000000000000002d
:1008c8002000000000000000cc770400107804002d
:1008d800000000008000000000000000e87704002d
:1008e8001078040000000000000100000000000073
:1008f800f477040010780400000000006300000092
:1009080000000000000000000000000000000000df
:10091800630000000000000000000000000000006c
:10092800000000006300000000000000000000005c
:100938000000000000000000ac7804000001000086
:10094800010000000100000000000000200000007d
:1009580000000000cc7704000078040000000000cc
:100968008000000000000000f47704000078040014
:10097800000000000004000000000000f4770400fc
:10098800d8770400000000006300000000000000a9
:1009980000000000000000000000000063000000ec
:1009a800000000000000000000000000000000003f
:1009b80063000000000000000000000000000000cc
:1009c80000000000b47804000001000001000000ed
:1009d80001000000000000000010000000000000fe
:1009e800cc770400d8770400000000000004000061
:1009f80000000000f4770400d8770400000000002d
:100a08008000000000000000f47704000078040073
:100a1800000000006300000000000000000000006b
:100a2800000000000000000063000000000000005b
:100a3800000000000000000000000000630000004b
:100a4800000000000000000000000000000000009e
:100a58008cac0120e40600000000000058f40120de
:100a68003502000001000000d0340400000000003e
:100a7800020000000100000000000000001000005b
:100a880000000000d4340400e0340400000000003a
:100a98000004000000000000f0340400e03404000a
:100aa800000000000002000000000000fc34040008
:100ab800e0340400000000002000000000000000f6
:100ac800d434040008350400000000008000000051
:100ad80000000000f03404000835040000000000a5
:100ae8000001000000000000fc3404000835040088
:100af800000000001435040000010000010000009f
:100b080001000000000000002000000000000000bc
:100b1800d4340400183504000000000080000000f0
:100b280000000000f0340400183504000000000044
:100b38000001000000000000fc3404001835040027
:100b4800000000006300000000000000000000003a
:100b5800000000000000000063000000000000002a
:100b6800000000000000000000000000630000001a
:100b7800000000000000000000000000000000006d
:100b8800b43504000001000001000000010000006d
:100b9800000000002000000000000000d434040021
:100ba800083504000000000080000000000000007c
:100bb800fc340400083504000000000000040000b4
:100bc80000000000fc340400e034040000000000d1
:100bd80063000000000000000000000000000000aa
:100be800000000006300000000000000000000009a
:100bf800000000000000000063000000000000008a
:100c0800000000000000000000000000bc350400e7
:100c180000010000010000000100000000000000c9
:100c28000010000000000000d4340400e034040088
:100c3800000000000004000000000000fc34040074
:100c4800e034040000000000800000000000000004
:100c5800fc340400083504000000000063000000b4
:100c6800000000000000000000000000000000007c
:100c78006300000000000000000000000000000009
:100c880000000000630000000000000000000000f9
:100c9800000000000000000001000000010000004a
:100ca800d8da0020780800000000000008130220ad
:100cb8003002000001000000b4030500000000003d
:100cc8000200000001000000000000000010000009
:100cd80000000000b8030500c40305000000000080
:100ce8000004000000000000d4030500c403050050
:100cf800000000000002000000000000e003050002
:100d0800c4030500000000002000000000000000ef
:100d1800b8030500ec030500000000008000000097
:100d280000000000d4030500ec03050000000000eb
:100d38000001000000000000e0030500ec030500ce
:100d480000000000f8030500000100000100000099
:100d5800010000000000000020000000000000006a
:100d6800b8030500fc030500000000008000000037
:100d780000000000d4030500fc030500000000008b
:100d88000001000000000000e0030500fc0305006e
:100d980000000000630000000000000000000000e8
:100da80000000000000000006300000000000000d8
:100db80000000000000000000000000063000000c8
:100dc800000000000000000000000000000000001b
:100dd8009804050000010000010000000100000067
:100de800000000002000000000000000b80305001b
:100df800ec03050000000000800000000000000077
:100e0800e0030500ec0305000000000000040000fa
:100e180000000000e0030500c40305000000000016
:100e28006300000000000000000000000000000057
:100e38000000000063000000000000000000000047
:100e48000000000000000000630000000000000037
:100e5800000000000000000000000000a0040500e1
:100e68000001000001000000010000000000000077
:100e78000010000000000000b8030500c4030500ce
:100e8800000000000004000000000000e00305006e
:100e9800c4030500000000008000000000000000fe
:100ea800e0030500ec0305000000000063000000fb
:100eb800000000000000000000000000000000002a
:100ec80063000000000000000000000000000000b7
:100ed80000000000630000000000000000000000a7
:100ee8000000000000000000c8740120080700008e
:100ef8000000000038150220300200000100000048
:100f0800d898040000000000020000000100000062
:100f1800000000000010000000000000dc98040041
:100f2800e898040000000000000400000000000031
:100f3800f8980400e898040000000000000200008f
:100f48000000000004990400e89804000000000074
:100f58002000000000000000dc9804001099040044
:100f6800000000008000000000000000f898040065
:100f780010990400000000000001000000000000bb
:100f88000499040010990400000000001c99040052
:100f98000001000001000000010000000000000046
:100fa8002000000000000000dc98040020990400e4
:100fb800000000008000000000000000f898040015
:100fc800209904000000000000010000000000005b
:100fd8000499040020990400000000006300000048
:100fe80000000000000000000000000000000000f9
:100ff8006300000000000000000000000000000086
:101008000000000063000000000000000000000075
:101018000000000000000000bc990400000100006e
:101028000100000001000000000000002000000096
:1010380000000000dc980400109904000000000083
:1010480080000000000000000499040010990400ca
:1010580000000000000400000000000004990400e3
:10106800e898040000000000630000000000000091
:101078000000000000000000000000006300000005
:101088000000000000000000000000000000000058
:1010980063000000000000000000000000000000e5
:1010a80000000000c49904000001000001000000d5
:1010b8000100000000000000001000000000000017
:1010c800dc980400e8980400000000000004000018
:1010d8000000000004990400e898040000000000e3
:1010e800800000000000000004990400109904002a
:1010f8000000000063000000000000000000000085
:101108000000000000000000630000000000000074
:101118000000000000000000000000006300000064
:1011280000000000000000000000000000000000b7
:101138002c3c012024070000000000006817022052
:10114800300200000100000048dc0300000000003d
:101158000200000001000000000000000010000074
:10116800000000004cdc030058dc03000000000015
:10117800000400000000000068dc030058dc0300e5
:1011880000000000000200000000000074dc030002
:1011980058dc0300000000002000000000000000f0
:1011a8004cdc030080dc030000000000800000002d
:1011b8000000000068dc030080dc03000000000081
:1011c800000100000000000074dc030080dc030064
:1011d800000000008cdc030000010000010000009a
:1011e80001000000000000002000000000000000d6
:1011f8004cdc030090dc03000000000080000000cd
:101208000000000068dc030090dc03000000000020
:10121800000100000000000074dc030090dc030003
:101228000000000063000000000000000000000053
:101238000000000000000000630000000000000043
:101248000000000000000000000000006300000033
:101258000000000000000000000000000000000086
:101268002cdd030000010000010000000100000067
:101278000000000020000000000000004cdc03001b
:1012880080dc030000000000800000000000000077
:1012980074dc030080dc0300000000000004000090
:1012a8000000000074dc030058dc030000000000ac
:1012b80063000000000000000000000000000000c3
:1012c80000000000630000000000000000000000b3
:1012d80000000000000000006300000000000000a3
:1012e80000000000000000000000000034dd0300e2
:1012f80000010000010000000100000000000000e3
:1013080000100000000000004cdc030058dc030063
:1013180000000000000400000000000074dc03006e
:1013280058dc0300000000008000000000000000fe
:1013380074dc030080dc0300000000006300000090
:101348000000000000000000000000000000000095
:101358006300000000000000000000000000000022
:101368000000000063000000000000000000000012
:101378000000000000000000b0ab0020410b00009e
:10138800000000009819022030020000010000004f
:10139800b8da0400000000000200000001000000ac
:1013a800000000000010000000000000bcda04008b
:1013b800c8da04000000000000040000000000007b
:1013c800d8da0400c8da04000000000000020000b7
:1013d80000000000e4da0400c8da0400000000009d
:1013e8002000000000000000bcda0400f0da04006d
:1013f800000000008000000000000000d8da0400af
:10140800f0da040000000000000100000000000005
:10141800e4da0400f0da040000000000fcda04005a
:1014280000010000010000000100000000000000b1
:101438002000000000000000bcda040000db04000b
:10144800000000008000000000000000d8da04005e
:1014580000db0400000000000001000000000000a4
:10146800e4da040000db0400000000006300000070
:101478000000000000000000000000000000000064
:1014880063000000000000000000000000000000f1
:1014980000000000630000000000000000000000e1
:1014a80000000000000000009cdb040000010000b8
:1014b8000100000001000000000000002000000002
:1014c80000000000bcda0400f0da040000000000ac
:1014d8008000000000000000e4da0400f0da0400f4
:1014e800000000000004000000000000e4da04002e
:1014f800c8da0400000000006300000000000000db
:101508000000000000000000000000006300000070
:1015180000000000000000000000000000000000c3
:101528006300000000000000000000000000000050
:1015380000000000a4db040000010000010000001e
:101548000100000000000000001000000000000082
:10155800bcda0400c8da040000000000000400003f
:1015680000000000e4da0400c8da0400000000000b
:101578008000000000000000e4da0400f0da040053
:1015880000000000630000000000000000000000f0
:1015980000000000000000006300000000000000e0
:1015a80000000000000000000000000063000000d0
:1015b8000000000000000000000000000000000023
:1015c800b06601200907000000000000e8e60120dd
:1015d8003e0200000100000018a104000000000005
:1015e80002000000010000000000000000100000e0
:1015f800000000001ca1040028a104000000000055
:10160800000400000000000038a1040028a1040024
:1016180000000000000200000000000044a10400d7
:1016280028a10400000000002000000000000000c5
:101638001ca1040050a1040000000000800000006c
:101648000000000038a1040050a1040000000000c0
:10165800000100000000000044a1040050a10400a3
:10166800000000005ca1040000010000010000006f
:101678000100000000000000200000000000000041
:101688001ca1040060a1040000000000800000000c
:101698000000000038a1040060a104000000000060
:1016a800000100000000000044a1040060a1040043
:1016b80000000000630000000000000000000000bf
:1016c80000000000000000006300000000000000af
:1016d800000000000000000000000000630000009f
:1016e80000000000000000000000000000000000f2
:1016f800fca104000001000001000000010000003e
:101708000000000020000000000000001ca10400f0
:1017180050a104000000000080000000000000004c
:1017280044a1040050a104000000000000040000cf
:101738000000000044a1040028a1040000000000eb
:10174800630000000000000000000000000000002e
:10175800000000006300000000000000000000001e
:10176800000000000000000063000000000000000e
:1017780000000000000000000000000004a20400b7
:10178800000100000100000001000000000000004e
:1017980000100000000000001ca1040028a10400a3
:1017a80000000000000400000000000044a1040044
:1017b80028a10400000000008000000000000000d4
:1017c80044a1040050a104000000000063000000d0
:1017d8000000000000000000000000000000000001
:1017e800630000000000000000000000000000008e
:1017f800000000006300000000000000000000007e
:101808000000000000000000284e4f5754522900e5
:101818002857545229000000600901205107000090
:1018280000000000c81b0220300200000100000078
:1018380048ca040000000000020000000100000087
:101848000000000000100000000000004cca040066
:1018580058ca040000000000000400000000000056
:1018680068ca040058ca0400000000000002000012
:101878000000000074ca040058ca040000000000f8
:1018880020000000000000004cca040080ca0400c8
:1018980000000000800000000000000068ca04008a
:1018a80080ca0400000000000001000000000000e1
:1018b80074ca040080ca0400000000008cca040036
:1018c800000100000100000001000000000000000d
:1018d80020000000000000004cca040090ca040068
:1018e80000000000800000000000000068ca04003a
:1018f80090ca040000000000000100000000000081
:1019080074ca040090ca04000000000063000000cc
:1019180000000000000000000000000000000000bf
:10192800630000000000000000000000000000004c
:10193800000000006300000000000000000000003c
:1019480000000000000000002ccb04000001000093
:10195800010000000100000000000000200000005d
:10196800000000004cca040080ca04000000000007
:10197800800000000000000074ca040080ca04004f
:1019880000000000000400000000000074ca040009
:1019980058ca0400000000006300000000000000b6
:1019a80000000000000000000000000063000000cc
:1019b800000000000000000000000000000000001f
:1019c80063000000000000000000000000000000ac
:1019d8000000000034cb04000001000001000000fa
:1019e80001000000000000000010000000000000de
:1019f8004cca040058ca040000000000000400009b
:101a08000000000074ca040058ca04000000000066
:101a1800800000000000000074ca040080ca0400ae
:101a2800000000006300000000000000000000004b
:101a3800000000000000000063000000000000003b
:101a4800000000000000000000000000630000002b
:101a5800000000000000000000000000000000007e
:101a6800905801201107000000000000f81d022016
:101a78003002000001000000281c050000000000e2
:101a8800020000000100000000000000001000003b
:101a9800000000002c1c0500381c05000000000098
:101aa8000004000000000000481c0500381c050068
