:020000040000fa
:10c00000f0ff032091cc06008f98060093eb06000a
:10c010008f9806008deb06008f9806000000000048
:10c020000000000000000000000000001d450600a8
:10c030008f9806000000000089470600f7470600b9
:10c040008f9806008f9806008f9806008f9806003c
:10c050008f9806008f9806008f9806008f9806002c
:10c060008f9806008f9806008f98060055c9030028
:10c070008f9806008f9806008f9806008f9806000c
:10c080008f9806008f9806008f9806008f980600fc
:10c090008f9806008f9806008f9806008f980600ec
:10c0a0008f9806008f9806008f9806008f980600dc
:10c0b0008f9806008f9806008f9806008f980600cc
:10c0c0008f9806008f9806008f9806008f980600bc
:10c0d0008f9806008f9806008f9806008f980600ac
:10c0e0008f9806008f9806000000000000000000f6
:10c0f00000000000798d06008f9806008f980600da
:10c100008f9806008f9806008f9806008f9806007b
:10c110008f9806008f980600ad7b0100c57b01005b
:10c12000dd7b01008f9806008f9806008f9806002f
:10c130008f9806008f9806008f9806008f9806004b
:10c140008f9806008f9806000d7c0100257c010069
:10c150003d7c01008f9806008f9806008f9806009e
:10c160008f9806008f9806008f9806008f9806001b
:10c170008f9806008f9806008f9806008f9806000b
:10c180008f9806008f9806008f9806008f980600fb
:10c190008f9806008f9806008f9806008f980600eb
:10c1a0008f9806008f9806008f9806008f980600db
:10c1b0008f9806008f9806008f9806008f980600cb
:10c1c0008f9806008f9806008f9806008f980600bb
:10c1d0008f9806008f9806008f9806008f980600ab
:10c1e0008f9806008f9806008f9806008f9806009b
:10c1f0008f9806008f9806008f9806008f9806008b
:10c200008f9806008f9806008f9806008f9806007a
:10c210008f9806008f9806008f9806003d960600be
:10c220008f9806008f9806008f9806008f9806005a
:10c230008f9806008f9806008f9806008f9806004a
:10c240008f9806008f9806008f9806008f9806003a
:10c250008f9806008f9806008f9806008f9806002a
:04c260008f980600ad
:020000040000fa
:10c2640003970181b0b00884000000000d9701819c
:10c27400b0b00b840000000009970181b0b00b84ba
:10c284000000000003970181b0b0088400000000a2
:10c2940003970181b0b00884000000000197018178
:10c2a400b0b008840000000001970181b0b0088498
:10c2b4000000000001970181b0b008840000000074
:10c2c40001970181b0b00884000000000397018148
:10c2d400b0b008840000000003970181b0b0088466
:10c2e4000000000003970181b0b008840000000042
:10c2f40001970181b0b0088400000000019701811a
:10c30400b0b008840000000005970181b0b0088433
:10c314000000000001970181b0b008840000000013
:10c3240002970181b0b009840000000001970181e7
:10c33400b0b008840000000001970181b0b0088407
:10c344000000000003970181b0b0088400000000e1
:10c3540001970181b0b008840000000001970181b9
:10c36400b0b008840000000001970181b0b00884d7
:10c374000000000001970181b0b0088400000000b3
:10c3840003970181b0b00884000000000397018185
:10c39400b0b008840000000003970181b0b00884a5
:10c3a4000000000003970181b0b008840000000081
:10c3b40004970181b0b00984000000000597018151
:10c3c400b0b008840000000005970181b0b0088473
:10c3d4000000000001970181b0b008840000000053
:10c3e40001970181b0b00884000000000397018127
:10c3f400b0b008840000000003970181b0b0088445
:10c404000000000001970181b0b008840000000022
:10c4140001970181b0b008840000000005970181f4
:10c42400b0b008840000000003970181b0b0088414
:10c434000000000003970181b0b0088400000000f0
:10c4440003970181b0b008840000000003970181c4
:10c45400b0b008840000000001970181b0b00884e6
:10c464000000000001970181b0b0088400000000c2
:10c4740003970181b0b00884000000000197018196
:10c48400b0b008840000000001970181b0b00884b6
:10c494000000000003970181b0b008840000000090
:10c4a40001970181b0b00884000000000397018166
:10c4b400b0b008840000000003970181b0b0088484
:10c4c4000000000003970181b0b008840000000060
:10c4d40009970181b0b0088400000000039701812e
:10c4e400b0b008840000000001970181b0b0088456
:10c4f4000000000003970181b0b008840000000030
:10c504000b970181b0b008840000000005970181f9
:10c51400b0b008840000000001970181b0b0088425
:10c524000000000004970181b0b0098400000000fd
:10c5340004970181b0b009840000000001970181d3
:10c54400b0b008840000000002970181b0b00984f3
:10c554000000000001970181b0b0088400000000d1
:10c5640001970181b0b008840000000005970181a3
:10c57400b0b008840000000001970181b0b00884c5
:10c584000000000003970181b0b00884000000009f
:10c5940001970181b0030884000000000197018124
:10c5a400b0b008840000000007970181b0b008848f
:10c5b4000000000001970181b0b008840000000071
:10c5c40001970181b0b00884000000000597018143
:10c5d400b0b008840000000005970181b0b0088461
:10c5e4000000000001970181b0b008840000000041
:10c5f40001970181b0b00884000000000397018115
:10c60400b0b008840000000003970181b0b0088432
:10c614000000000003970181b0b00884000000000e
:10c6240007970181b0b008840000000007970181da
:10c63400b0b008840000000006970181b0b00984fe
:10c644000000000005970181b0b0088400000000dc
:10c6540003970181b0b008840000000001970181b4
:10c66400b0b008840000000001970181b0b00884d4
:10c674000000000005970181b0b0088400000000ac
:10c6840001970181b0b00884000000000597018182
:10c69400b0b00884000000001b970181b0b00b8487
:10c6a4000000000003970181b0b00884000000007e
:10c6b4000d970181b0b00884000000000997018142
:10c6c400b0b008840000000009970181b0b008846c
:10c6d4000000000002970181b0b00984000000004e
:10c6e40001970181b0b03b840000000003970181f1
:10c6f400b0b03b840000000003970181b0b008840f
:10c704000000000003970181b0b00884000000001d
:10c7140003970181b0b008840000000003970181f1
:10c72400b0b008840000000003970181b0b0088411
:10c734000000000005970181b0b0088400000000eb
:10c7440003970181b0b008840000000001970181c3
:10c75400b0b008840000000001970181b0b00884e3
:10c764000000000001970181b0b0088400000000bf
:10c7740001970181b0b00884000000000197018195
:10c78400b0b008840000000001970181b0b00b84b0
:10c794000000000001970181b0b00b84000000008c
:10c7a40001970181b0b00b84000000000197018162
:10c7b400b0b008840000000005970181b0b008847f
:10c7c4000000000001970181b0b00884000000005f
:10c7d40009970181b0b0088400000000019701812d
:10c7e400b0030b840000000004970181b0030984a6
:10c7f400000000000d970181b0b008840000000023
:10c8040005970181b0b008840000000005970181fc
:10c81400b0b008840000000007970181b0b008841c
:10c824000000000003970181b0b0088400000000fc
:10c8340003970181b0b008840000000005970181ce
:10c84400b0b008840000000009970181b0b00884ea
:10c854000000000005970181b0b0088400000000ca
:10c8640005970181b0b0088400000000069701819b
:10c87400b0b009840000000001970181b0b00884c1
:10c884000000000005970181b0b00884000000009a
:10c8940007970181b0b00884000000000797018168
:10c8a400b0b008840000000007970181b0b008848c
:10c8b4000000000007970181b0b008840000000068
:10c8c40007970181b0b0088400000000019701813e
:10c8d400b0b008840000000005970181b0b00b845b
:10c8e4000000000005970181b0b00884000000003a
:10c8f40001970181b0b00884000000000197018114
:10c90400b0b008840000000001970181b0b0088431
:10c914000000000003970181b0b00884000000000b
:10c9240003970181b0b008840000000003970181df
:10c93400b0b008840000000001970181b0b0088401
:10c944000000000001970181b0b0088400000000dd
:10c9540017970181b0b0088400000000019701819d
:10c96400b0b008840000000003970181b0b00b84cc
:10c974000000000001970181b0b0088400000000ad
:10c9840001970181b0b0088400000000179701816d
:10c99400b0b008840000000001970181b0b00884a1
:10c9a4000000000001970181b0b00884000000007d
:10c9b40001970181b0b0088400000000059701814f
:10c9c400b0b008840000000005970181b0b008846d
:10c9d4000000000005970181b0b008840000000049
:10c9e40001970181b0b00884000000000497018120
:10c9f400b0b009840000000001970181b0b0088440
:10ca04000000000001970181b0b00884000000001c
:10ca140001970181b0b008840000000007970181ec
:10ca2400b0b008840000000003970181b0b008840e
:10ca34000000000001970181b0b0088400000000ec
:10ca440001970181b0b008840000000002970181c1
:10ca5400b0b009840000000008970181b0b00984d7
:10ca64000000000005970181b0b0088400000000b8
:10ca740001970181b0b00b8400000000019701818f
:10ca8400b0b008840000000001970181b0b00884b0
:10ca94000000000001970181b0b00884000000008c
:10caa40001970181b0b00884000000000197018162
:10cab400b0b008840000000001970181b0b0088480
:10cac4000000000001970181b0b00884000000005c
:10cad40001970181b0b00884000000000197018132
:10cae400b0b008840000000006970181b0b009844a
:10caf4000000000005970181b0b008840000000028
:10cb040001970181b0b00884000000000197018101
:10cb1400b0b008840000000005970181b0b008841b
:10cb24000000000001970181b0b0088400000000fb
:10cb340001970181b0b008840000000005970181cd
:10cb4400b0b008840000000001970181b0b00884ef
:10cb54000000000001970181b0b0088400000000cb
:10cb640001970181b0b008840000000001970181a1
:10cb7400b0b00884000000000b970181b0b00884b5
:10cb84000000000005970181b0b008840000000097
:10cb940001970181b0b00884000000000197018171
:10cba400b0b008840000000001970181b0b008848f
:10cbb4000000000001970181b0b00884000000006b
:10cbc40001970181b0b008840000000008b1018120
:10cbd400b0b000840000000008b10181b0b000844e
:10cbe40000000000f8b500bff8bc08bc9e467047c2
:10cbf40081e9060085d306007d7803005d270300e4
:10cc0400395e06004d440600e5d6050009700200b1
:10cc1400cda2060049830300715b0200f58d030079
:10cc2400f1640500b16d03008101060099fd020065
:10cc34000d520600510b0400b9de020009a30500e1
:10cc440089fa0500f113020059e5050055ee0200ca
:10cc5400291506009d40030081ec0500a1cf0500c5
:10cc6400559802008df305003d840500fdc00500c4
:10cc7400b9aa050031980300e90b030029b20500a5
:10cc840059a2030065080600b9740500d95c0500c3
:10cc9400a5930500857c0500599b05000dd3030071
:10cca40099b9050025de0500ddf80300f8b500bfdd
:0cccb400f8bc08bc9e46704761d3060027
:020000040000fa
:10ccc000602c010001000000e82c010028fcff7f1f
:10ccd000b82e010001000000f42e010024fcff7fab
:10cce00008300100010000004030010020fcff7fff
:10ccf0000c31010001000000403101000100000082
:10cd00008431010001000000303201000100000008
:10cd10006c320100010000009832010001000000a7
:10cd2000f8320100f4fbff7f4834010001000000ed
:10cd3000b8340100f0fbff7f783a010001000000e9
:10cd4000e83a0100ecfbff7f883f0100f0fbff7f2a
:10cd5000e03f0100f4fbff7f5040010001000000b4
:10cd60009046010001000000fc7801000100000075
:10cd70001c790100010000003c7901000100000065
:10cd800070790100010000009a79010001000000a3
:10cd9000207a010008f9ff7f7c7d01000cf9ff7ffc
:10cda000ea7d010010f9ff7fa67e010014f9ff7fe4
:10cdb000247f010018f9ff7f0c8001001cf9ff7f20
:10cdc000f482010020f9ff7ff883010024f9ff7f3e
:10cdd0005087010001000000988d01000100000053
:10cde000a08d010001000000c08d010001000000c5
:10cdf000da8d010001000000fa8d01000100000041
:10ce00001a8e010001000000368e010001000000b2
:10ce1000568e010001000000728e0100010000002a
:10ce2000ca8e010001000000208f010001000000f7
:10ce3000728f010001000000ae8f010001000000b0
:10ce4000ea8f0100010000000a90010001000000cb
:10ce5000cc900100bcf6ff7f28910100010000008a
:10ce6000b8910100010000002892010001000000bb
:10ce70004e920100010000006092010001000000dc
:10ce80008a92010098f6ff7fba9201009cf6ff7f1c
:10ce900080930100a0f6ff7f1496010001000000be
:10cea000b896010001000000e897010094f6ff7faa
:10ceb000c298010098f6ff7ff09a0100010000007f
:10cec000129b010094f6ff7f289b010098f6ff7fdc
:10ced0004e9b010001000000929b01000100000038
:10cee00028a101000100000030a1010001000000a4
:10cef00050a10100010000006aa101000100000032
:10cf00008aa1010001000000aaa1010001000000a7
:10cf1000c6a1010001000000e6a10100010000001f
:10cf200002a20100010000005aa20100010000005d
:10cf3000b0a201000100000002a3010001000000f6
:10cf400022a3010001000000e4a301000100000091
:10cf500018a40100b8f3ff7f74a4010001000000d1
:10cf6000e4a4010001000000f6a40100010000009b
:10cf700020a50100010000004aa501009cf3ff7fed
:10cf80007aa50100a0f3ff7fb0a701000100000017
:10cf9000dca7010001000000f2a701000100000071
:10cfa00008a80100010000001ea8010084f3ff7f13
:10cfb00034a8010088f3ff7f4aa8010001000000a7
:10cfc00060a80100010000007ca801000100000031
:10cfd00090a8010074f3ff7f58aa010078f3ff7f47
:10cfe00082aa01007cf3ff7facaa010001000000cf
:10cff000c4aa010078f3ff7f62ab01007cf3ff7fde
:10d000008cab010080f3ff7fb0ab0100010000009a
:10d0100010ad01000100000070ad01000100000032
:10d020005cae01006cf3ff7f7aae010070f3ff7f0e
:10d0300098ae010074f3ff7fb6ae0100010000005e
:10d0400028af01000100000086af010068f3ff7ff8
:10d0500094b0010001000000bcb00100010000001c
:10d0600038b101005cf3ff7ff6b101000100000060
:10d0700044b201000100000058b2010001000000ac
:10d080006cb201000100000080b20100010000004c
:10d0900094b2010001000000b8b2010001000000dc
:10d0a000e4b201000100000032b301000100000001
:10d0b00078b30100010000009cb3010001000000f2
:10d0c000d0b301000100000048b401003cf9ff7f2b
:10d0d00044b7010040f9ff7f84b7010044f9ff7fa6
:10d0e00058ba010048f9ff7f40bb01004cf9ff7faf
:10d0f000a4bb010050f9ff7f10bc0100010000003b
:10d10000ecbc01004cf9ff7f38bf0100ad029780f5
:10d1100074c00100010000003cc7010001000000d4
:10d12000ecec0100010000000ced0100010000002a
:10d1300026ed01000100000046ed010001000000a5
:10d1400066ed01000100000082ed01000100000019
:10d15000a2ed010001000000beed01000100000091
:10d1600016ee0100010000006cee0100010000005d
:10d17000beee010001000000faee01000100000017
:10d1800036ef01000100000056ef01000100000031
:10d1900018f00100010000004cf0010030f2ff7fa8
:10d1a000a8f001000100000038f1010001000000ba
:10d1b000a8f1010001000000cef101000100000013
:10d1c000e0f10100010000000af20100010000008e
:10d1d00034f2010004f2ff7f64f20100010000005c
:10d1e00072f2010001000000e6f30100f8f1ff7f98
:10d1f0002ef40100fcf1ff7f8ef4010000f2ff7fae
:10d20000e0f4010004f2ff7f1cf5010001000000c2
:10d2100030f501000100000044f5010001000000ac
:10d2200058f50100010000006cf50100010000004c
:10d2300080f501000100000094f5010001000000ec
:10d240007af60100010000008ef60100c8f1ff7fb0
:10d25000a6f60100ccf1ff7fd6f60100d0f1ff7fea
:10d2600068f70100d4f1ff7f9ef70100d8f1ff7f3e
:10d270006cfa0100dcf1ff7f9cfa0100e0f1ff7f16
:10d28000aefa0100e4f1ff7fc0fa0100e8f1ff7f90
:10d29000fefa0100010000004afb0100e4f1ff7ffb
:10d2a0006efb0100e8f1ff7f92fb0100ecf1ff7fd4
:10d2b000dcfb0100e0f5ff7f54fd0100e4f5ff7f9a
:10d2c00074ff0100e8f5ff7ffc000200ecf5ff7f32
:10d2d00020030200f0f5ff7f50050200f4f5ff7f08
:10d2e000c405020001000000d00b02000100000094
:10d2f000d80b02006cf6ff7f000d020070f6ff7f76
:10d30000a40e020001000000ec0e02006cf6ff7f8c
:10d310001010020070f6ff7f1813020001000000d9
:10d320004c1302006cf6ff7f1c15020070f6ff7fa5
:10d3300084150200010000001c1b02000100000017
:10d34000241b020001000000801b020001000000fd
:10d35000ea1b0200010000005e1c02000100000048
:10d36000aa1c02007cf4ff7fe81c020080f4ff7f0f
:10d37000261f020001000000321f02007cf4ff7f24
:10d380007423020080f4ff7f0e24020084f4ff7fe8
:10d390006424020001000000a024020080f4ff7f4a
:10d3a0005825020084f4ff7f7c25020088f4ff7f6b
:10d3b000b82502008cf4ff7f1026020090f4ff7f56
:10d3c0000028020094f4ff7f5828020098f4ff7fa1
:10d3d000b02802009cf4ff7f6229020001000000d7
:10d3e0008229020001000000b029020001000000b3
:10d3f000b829020001000000d82902000100000045
:10d40000f829020001000000182a020001000000b3
:10d41000382a020001000000902a020001000000ea
:10d42000e62a020001000000382b02000100000083
:10d43000742b020001000000942b02000100000088
:10d44000582c0200010000008c2c0200010000009a
:10d45000fc2c0200010000001c2d02000100000055
:10d460003c2d0200010000004e2d020001000000d2
:10d47000782d020001000000a22d02000100000032
:10d48000542e020020f6ff7fa42e020024f6ff7f18
:10d490001c310200010000005037020001000000b2
:10d4a000a445020001000000c44502000100000084
:10d4b000e4450200010000000446020001000000f3
:10d4c00024460200010000007c460200010000002a
:10d4d000d2460200010000002447020001000000c3
:10d4e000444702000100000008480200010000005b
:10d4f0003c48020001000000ac48020001000000ae
:10d50000be48020001000000e848020001000000df
:10d5100012490200010000004649020078edff7f39
:10d52000944902007cedff7fc249020080edff7f3d
:10d53000d649020084edff7f064a020088edff7f96
:10d540002c4a0200ae119780b84c020084edff7f98
:10d55000f44c0200010000000e4d0200010000002a
:10d560001e4d0200010000002e4d020001000000cf
:10d57000564d020068edff7f7a4d02000100000069
:10d58000dc51020001000000e45e020028f4ff7f8d
:10d59000086002002cf4ff7fc461020030f4ff7fba
:10d5a0008063020001000000b46302002cf4ff7fde
:10d5b000f864020030f4ff7f4465020001000000bf
:10d5c000dc6a020001000000288d0200c0f1ff7f2c
:10d5d000d08d0200c4f1ff7fb88f0200c8f1ff7f39
:10d5e0000092020001000000c89702000100000044
:10d5f000d097020070ecff7f10980200010000003d
:10d600004c9802006cecff7fc89a020070ecff7f20
:10d610004c9b020074ecff7fbc9b02000884978047
:10d62000049c02000100000054a20200010000005e
:10d630005ca202005cf0ff7f24a602000100000053
:10d6400008ad02000100000010ad020004f1ff7ff0
:10d65000ccad020008f1ff7f1caf02000cf1ff7f90
:10d660005cb0020010f1ff7fa4b1020001000000d5
:10d6700084b70200010000008cb7020010f4ff7fa5
:10d6800008b8020014f4ff7f40bb02000100000054
:10d69000a0c1020001000000a8c1020038f4ff7f11
:10d6a000c8c102003cf4ff7fb8c5020001000000c1
:10d6b000a8cb020001000000b0cb02000100000076
:10d6c000bccb02000100000014cc020001000000ed
:10d6d00034cc0200b0a90280cccc0200b0b0a8804b
:10d6e0001ccd02000100000020cd0200010000005e
:10d6f0001ccd02000100000018cd0200b0b0aa80cd
:10d7000050cd0200ae71b28020ce020001000000b8
:10d710001cce0200ab3f388074ce02000100000036
:10d7200080ce0200b0b0aa80bcce02000100000092
:10d73000c4ce020001000000c0ce020001000000c3
:10d74000c4ce020001000000f0ce02000100000083
:10d7500000cf0200010000002ccf020001000000f9
:10d7600040cf0200ab0eb280a8cf0200b0af0a805b
:10d7700070d20200010000006cd202000100000023
:10d7800068d202000100000064d20200ab3f0480b6
:10d79000dcf102000100000014f20200ecf3ff7f54
:10d7a000b0f502000100000064fb0200010000006f
:10d7b000e017030001000000001803000100000052
:10d7c00020180300010000005418030001000000ad
:10d7d0007e180300d8f3ff7f44190300dcf3ff7fba
:10d7e000081a0300e0f3ff7f141b03000100000090
:10d7f000ec20030001000000302a030001000000bb
:10d800001c2b030001000000582b03007cf0ff7f5d
:10d81000842d0300010000003833030001000000e4
:10d820009c63040001000000bc63040001000000d0
:10d83000d663040001000000f6630400010000004c
:10d8400016640400010000003264040001000000be
:10d8500052640400010000006e6404000100000036
:10d860008e64040001000000506504000100000007
:10d870008465040068edff7fe0650400010000009e
:10d880000a66040001000000346604005cedff7fbe
:10d8900064660400010000008c66040001000000c2
:10d8a000be66040050edff7f3267040054edff7f39
:10d8b0007667040058edff7fc06704005cedff7fd2
:10d8c00004680400010000006c68040058edff7f4c
:10d8d000626904005cedff7f5c6a040060edff7f1d
:10d8e000b46a040064edff7fea6a040001000000ee
:10d8f000126b0400010000003c6b040001000000fa
:10d900005c6b040001000000766b04000100000065
:10d91000966b040001000000b66b040001000000db
:10d92000d26b040001000000f26b04000100000053
:10d930000e6c040001000000666c04000100000091
:10d94000bc6c0400010000000e6d0400010000002a
:10d950004a6d040001000000866d04000100000013
:10d96000a66d040001000000686e040001000000c4
:10d970009c6e040048eeff7ff86e0400010000007a
:10d98000886f040001000000f86f0400010000002f
:10d990001e7004000100000030700400010000004f
:10d9a0005a70040001000000847004001ceeff7f28
:10d9b000b4700400010000008671040018eeff7fbf
:10d9c000c872040001000000e872040001000000b9
:10d9d0000273040001000000227304000100000033
:10d9e00042730400010000005e73040001000000a7
:10d9f0007e730400010000009a730400010000001f
:10da0000f2730400010000004874040001000000eb
:10da10009a74040001000000ba74040001000000c0
:10da20007c75040001000000b075040044ebff7f2a
:10da30000c760400010000007c7604000100000068
:10da40008e76040001000000b8760400010000009a
:10da5000e276040028ebff7f127704002cebff7fb7
:10da6000d477040030ebff7f0478040034ebff7fb1
:10da70002878040038ebff7f6c7904000100000077
:10da80008c79040034ebff7fb279040001000000c0
:10da9000c679040001000000da79040028ebff7f5a
:10daa000ee79040001000000247a04000100000067
:10dab0003e7a0400010000005a7a040001000000d0
:10dac000767a040058f0ff7fd07a04005cf0ff7f84
:10dad000007b040008849780c47b040058f0ff7f1b
:10dae0003c7c040001000000f08104000100000003
:10daf000f8810400010000003c82040001000000e5
:10db0000e48204007cecff7f4884040001000000f4
:10db1000e089040001000000d4910400010000002d
:10db2000ee910400010000000a92040001000000d0
:10db300026920400c4efff7f80920400c8efff7fad
:10db4000b09204000884978034930400c4efff7ff0
:10db5000ac93040001000000609904000100000083
:10db60006899040001000000d09a040004f0ff7fcf
:10db7000589b0400010000000ca1040001000000fb
:10db800014a104000100000060a1040001000000d5
:10db9000aca10400d4eeff7fd0a20400010000007d
:10dba0009ca804000100000058b00400010000001f
:10dbb00072b00400010000008eb0040001000000fb
:10dbc000aab004007cefff7f04b1040080efff7f68
:10dbd00034b1040084efff7f90b1040088efff7f31
:10dbe00008b2040001000000bcb7040001000000fe
:10dbf000c4b70400010000003cb8040080efff7fc0
:10dc00009cb904000100000050bf040001000000a6
:10dc100058bf0400c8ecff7ff0c004000100000002
:10dc2000e8c6040001000000f0c604000100000086
:10dc300034c7040001000000ccc7040044eeff7f9d
:10dc4000d8c804000100000070ce040001000000ec
:10dc500078ce040068eeff7facce04006ceeff7f50
:10dc6000e4cf040001000000c0d504000100000062
:10dc7000c8d5040001000000f8d5040018efff7fac
:10dc80005cd704000100000010dd0400010000006a
:10dc900018dd04000100000038dd0400d8edff7f2e
:10dca00090de04000100000054e4040001000000c4
:10dcb0005ce40400010000007ce4040001000000ba
:10dcc0009ce4040001000000bce40400010000002a
:10dcd000dce404000100000034e504000100000061
:10dce0008ae5040001000000dce5040001000000fa
:10dcf00018e604000100000038e6040001000000fe
:10dd0000fce604000100000030e704000100000010
:10dd1000a0e7040001000000c0e7040001000000cb
:10dd2000e0e7040001000000f2e704000100000049
:10dd30001ce804000100000046e8040018e9ff7f29
:10dd40000ce904001ce9ff7f30e9040020e9ff7fb3
:10dd50004ee904000100000060e904000100000039
:10dd600074e904000100000084e9040001000000df
:10dd700092e9040004e9ff7fb8ea04000100000012
:10dd8000ccea040001000000e0ea04000100000009
:10dd900014eb040068ecff7f68ec04000100000055
:10dda00000f204000100000008f20400f8e6ff7f22
:10ddb000a4f2040001000000d0f204000100000001
:10ddc000f8f204000100000012f30400e4e6ff7f13
:10ddd00068f30400ac07978008f40400e0e6ff7fd6
:10dde0004af40400e4e6ff7f94f40400e8e6ff7fd1
:10ddf0004af50400010000005af50400010000008b
:10de00006af50400dce6ff7f24f604000100000050
:10de10005cf60400d8e6ff7f72f604000100000003
:10de2000a4f60400d4e6ff7fd8f60400d8e6ff7f0e
:10de300080f8040001000000acf8040001000000bc
:10de4000b4f8040001000000e4f8040054edff7f82
:10de500018fa040001000000ccff040001000000db
:10de6000d4ff040001000000fcff040001000000da
:10de7000060005000100000014000500d8eaff7f3d
:10de80001c01050001000000d00605000100000093
:10de9000d8060500010000001807050054ebff7fbd
:10dea0004008050001000000d80d05000100000039
:10deb000e00d050001000000140e0500a0ebff7f3f
:10dec000100f050001000000c4140500010000004f
:10ded000cc14050001000000041505000ceaff7fca
:10dee000ec15050001000000a01b0500010000006a
:10def000a81b0500bce8ff7fd01c05000100000046
:10df000080220500010000008822050001000000b9
:10df1000bc220500d8ebff7f902305000100000024
:10df20004429050001000000083005007ceaff7f5d
:10df30004030050001000000f03505000100000040
:10df40007841050001000000984105000100000033
:10df5000b841050001000000d841050001000000a3
:10df6000f8410500010000005042050001000000da
:10df7000a642050001000000f84205000100000073
:10df80001843050001000000dc430500010000000b
:10df9000104405000100000080440500010000005d
:10dfa0009244050001000000bc440500010000008f
:10dfb000e64405000100000068450500010000007e
:10dfc00082450500010000009c450500010000009d
:10dfd000b645050001000000dc4505000100000019
:10dfe0000e460500010000003c460500010000004f
:10dff0009c46050001000000cc4605000100000021
:10e0000010470500010000004c470500010000001a
:10e010007447050001000000ea4705000100000008
:10e020005048050001000000d6480500010000002e
:10e03000ca49050001000000f04a05000100000087
:10e04000905a050001000000b05a050001000000d0
:10e05000d05a050001000000f05a05000100000040
:10e06000105b050001000000305b050001000000ae
:10e07000885b050001000000de5b05000100000078
:10e08000305c050001000000505c0500010000004c
:10e09000145d050001000000485d0500010000005e
:10e0a000645d050001000000d45d05000100000072
:10e0b000e65d050001000000105e050001000000a3
:10e0c0003a5e0500010000005c5e050001000000f2
:10e0d000905e050001000000a45e05000100000044
:10e0e000b85e050001000000cc5e050001000000e4
:10e0f000f25e05000100000054630500010000000d
:10e10000906c050001000000d86c050001000000c3
:10e11000286d050001000000606d05000100000091
:10e120007c6d050001000000b86d050001000000d5
:10e13000da6d050001000000fc6d05000100000023
:10e14000386e050001000000846e0500010000002b
:10e15000a46e050001000000e46e0500010000004f
:10e16000406f050001000000a06f050001000000e5
:10e17000fc6f0500010000000870050001000000b0
:10e1800018700500010000002c700500010000005f
:10e190007c70050001000000b0780500010000005f
:10e1a0004079050044e1ff7fb07a050048e1ff7f38
:10e1b0003a7b05004ce1ff7fba7b050001000000bf
:10e1c000787c0500010000000488050001000000c3
:10e1d00034880500008404804888050001000000a0
:10e1e00044880500b0ad04800c8b0500b0a8038006
:10e1f0002c8b0500dce9ff7f308b0500e0e9ff7f19
:10e200003c8b0500010000003c8b05000100000074
:10e21000789e05000100000068b4050001000000c0
:10e220009ab4050001000000acb405000100000034
:10e23000bcb4050001000000ccb4050001000000e2
:10e24000dcb4050001000000ecb405000100000092
:10e2500006b50500010000001eb505000100000024
:10e260004ab505000100000062b50500010000008c
:10e270007eb50500010000009ab505000100000010
:10e28000c8b5050001000000ccbe0500010000007b
:10e2900018bf0500f0e3ff7f8cbf05000100000000
:10e2a0002cc005000100000034c005000100000082
:10e2b00042c005000100000058c005000100000038
:10e2c00068c0050038e4ff7f84c005003ce4ff7fa0
:10e2d000a0c0050040e4ff7fbcc0050044e4ff7f10
:10e2e000d8c0050048e4ff7ff4c005004ce4ff7f80
:10e2f00028c1050050e4ff7f54c105000100000063
:10e3000060c10500010000006ec10500c4e2ff7f8e
:10e31000bcc105000100000076c20500010000003c
:10e3200080d9050001000000a8d905000100000007
:10e33000dad90500010000000cda05000100000038
:10e34000acef050001000000f0f7050030e5ff7fad
:08e350001004060001000000aa
:020000040000fa
:10e35800e43f02200400000001000000000000006b
:10e36800503f02201c00000000000000e83f02208f
:10e378000400000001000000006cdc02ec3f0220f9
:10e388000400000000000000dc3f0220050000003f
:10e3980000000000f03f0220040000000000000020
:10e3a800f43f0220040000000000000000000020ec
:10e3b80024020000000000002402002010000000d9
:10e3c80000000000f83e02203000000001000000bc
:10e3d800020000000400104000000300020070006a
:10e3e800b9fc000000000000050000001400200037
:10e3f80000010000353600000000d700001bb70000
:10e40800883f02201800000000000000f83f0220aa
:10e418000400000001000000aaaaaaaabc3f02202a
:10e428000800000000000000fc3f0220040000007b
:10e4380001000000389c000008040020549c0000e3
:10e4480000000000683b02200401000000000000fa
:10e45800183e02203c00000000000000243a022080
:10e468004401000000000000a03f0220100000004e
:10e478000100000030313233343536373839414203
:10e4880043444546b8dc01201104000000000000a8
:10e4980034020020a80000000000000074d301200e
:10e4a8001b05000000000000dc020020080000003e
:10e4b800000000008c3e0220350000000000000033
:10e4c800e40200201001000000000000c43f022008
:10e4d8000800000000000000d8ff01203002000002
:10e4e8000100000038e704000000000002000000fe
:10e4f8000100000000000000001000000000000003
:10e508003ce7040048e704000000000000040000a5
:10e518000000000058e7040048e70400000000007d
:10e52800000200000000000064e7040048e704005f
:10e538000000000020000000000000003ce704008c
:10e5480070e70400000000008000000000000000e8
:10e5580058e7040070e70400000000000001000014
:10e568000000000064e7040070e7040000000000f9
:10e578007ce7040000010000010000000100000029
:10e588000000000020000000000000003ce704003c
:10e5980080e7040000000000800000000000000088
:10e5a80058e7040080e704000000000000010000b4
:10e5b8000000000064e7040080e704000000000099
:10e5c80063000000000000000000000000000000e0
:10e5d80000000000630000000000000000000000d0
:10e5e80000000000000000006300000000000000c0
:10e5f8000000000000000000000000001ce804000b
:10e6080000010000010000000100000000000000ff
:10e6180020000000000000003ce7040070e7040050
:10e6280000000000800000000000000064e7040013
:10e6380070e7040000000000000400000000000073
:10e6480064e7040048e704000000000063000000dd
:10e6580000000000000000000000000000000000b2
:10e66800630000000000000000000000000000003f
:10e67800000000006300000000000000000000002f
:10e68800000000000000000024e804000001000071
:10e698000100000001000000000000000010000060
:10e6a800000000003ce7040048e704000000000008
:10e6b800000400000000000064e7040048e70400cc
:10e6c80000000000800000000000000064e7040073
:10e6d80070e7040000000000630000000000000074
:10e6e80000000000000000000000000063000000bf
:10e6f8000000000000000000000000000000000012
:10e70800630000000000000000000000000000009e
:10e718000000000050ac0020c00b0000000000000a
:10e72800f4c50120c006000000000000c43e02201d
:10e738003300000000000000b4cc0120c006000037
:10e7480000000000cc3f022008000000000000008c
:10e75800f40300200400000000000000b03f022085
:10e768000c00000000000000080202203002000037
:10e778000100000008010500000000000200000080
:10e788000100000000000000001000000000000070
:10e798000c0105001801050000000000000400003d
:10e7a8000000000028010500180105000000000015
:10e7b80000020000000000003401050018010500f7
:10e7c8000000000020000000000000000c0105000f
:10e7d800400105000000000080000000000000006b
:10e7e80028010500400105000000000000010000ac
:10e7f8000000000034010500400105000000000091
:10e808004c010500000100000100000001000000ab
:10e818000000000020000000000000000c010500be
:10e82800500105000000000080000000000000000a
:10e83800280105005001050000000000000100004b
:10e848000000000034010500500105000000000030
:10e85800630000000000000000000000000000004d
:10e86800000000006300000000000000000000003d
:10e87800000000000000000063000000000000002d
:10e88800000000000000000000000000ec0105008e
:10e89800000100000100000001000000000000006d
:10e8a80020000000000000000c01050040010500e8
:10e8b8000000000080000000000000003401050096
:10e8c80040010500000000000004000000000000f6
:10e8d8003401050018010500000000006300000075
:10e8e8000000000000000000000000000000000020
:10e8f80063000000000000000000000000000000ad
:10e90800000000006300000000000000000000009c
:10e918000000000000000000f401050000010000f4
:10e9280001000000010000000000000000100000cd
:10e93800000000000c01050018010500000000009f
:10e948000004000000000000340105001801050063
:10e9580000000000800000000000000034010500f5
:10e9680040010500000000006300000000000000f6
:10e97800000000000000000000000000630000002c
:10e98800000000000000000000000000000000007f
:10e99800630000000000000000000000000000000c
:10e9a8000000000030bf0120c10600000000000088
:10e9b800004002200400000000000000f8030020ce
:10e9c8000400000000000000703d0220a8000000c4
:10e9d80000000000d4e401206c02000001000000e7
:10e9e800ccdd030000000000020000000100000070
:10e9f800000000000010000000000000d0dd03004f
:10ea0800dcdd03000000000000040000000000003e
:10ea1800ecdd0300dcdd0300000000000002000064
:10ea280000000000f8dd0300dcdd0300000000004a
:10ea38002000000000000000d0dd030004de030019
:10ea4800000000008000000000000000ecdd030072
:10ea580004de0300000000000001000000000000c8
:10ea6800f8dd030004de03000000000010de0300f0
:10ea7800000100000100000001000000000000008b
:10ea88002000000000000000d0dd030014de0300b9
:10ea9800000000008000000000000000ecdd030022
:10eaa80014de030000000000000100000000000068
:10eab800f8dd030014de030000000000630000001e
:10eac800000000000000000000000000000000003e
:10ead80063000000000000000000000000000000cb
:10eae80000000000630000000000000000000000bb
:10eaf8000000000000000000b0de0300000100007c
:10eb080001000000010000000000000020000000db
:10eb180000000000d0dd030004de03000000000058
:10eb28008000000000000000f8dd030004de0300a0
:10eb3800000000000004000000000000f8dd0300f1
:10eb4800dcdd03000000000063000000000000009e
:10eb5800000000000000000000000000630000004a
:10eb6800000000000000000000000000000000009d
:10eb7800630000000000000000000000000000002a
:10eb880000000000b8de03000001000001000000e2
:10eb9800010000000000000000100000000000005c
:10eba800d0dd0300dcdd03000000000000040000ed
:10ebb80000000000f8dd0300dcdd030000000000b9
:10ebc8008000000000000000f8dd030004de030000
:10ebd80000000000630000000000000000000000ca
:10ebe80000000000000000006300000000000000ba
:10ebf80000000000000000000000000063000000aa
:10ec080000000000000000000000000000000000fc
:10ec18006cd3002094d30020bcd30020e4d3002080
:10ec28000cd4002034d400205cd4002084d40020ec
:10ec3800acd40020d4d40020fcd4002024d500205b
:10ec48004cd5002074d500209cd50020accc0020e9
:10ec580048090000000000003804022030020000cb
:10ec6800010000009c1504000000000002000000e4
:10ec7800010000000000000000100000000000007b
:10ec8800a0150400ac1504000000000000040000fa
:10ec980000000000bc150400ac15040000000000d2
:10eca8000002000000000000c8150400ac150400b4
:10ecb800000000002000000000000000a015040073
:10ecc800d4150400000000008000000000000000cf
:10ecd800bc150400d4150400000000000001000069
:10ece80000000000c8150400d4150400000000004e
:10ecf800e015040000010000010000000100000010
:10ed0800000000002000000000000000a015040022
:10ed1800e41504000000000080000000000000006e
:10ed2800bc150400e4150400000000000001000008
:10ed380000000000c8150400e415040000000000ed
:10ed48006300000000000000000000000000000058
:10ed58000000000063000000000000000000000048
:10ed68000000000000000000630000000000000038
:10ed780000000000000000000000000080160400f1
:10ed88000001000001000000010000000000000078
:10ed98002000000000000000a0150400d4150400a5
:10eda800000000008000000000000000c8150400fa
:10edb800d41504000000000000040000000000005a
:10edc800c8150400ac150400000000006300000032
:10edd800000000000000000000000000000000002b
:10ede80063000000000000000000000000000000b8
:10edf80000000000630000000000000000000000a8
:10ee08000000000000000000881604000001000057
:10ee180001000000010000000000000000100000d8
:10ee280000000000a0150400ac150400000000005c
:10ee38000004000000000000c8150400ac15040020
:10ee4800000000008000000000000000c815040059
:10ee5800d41504000000000063000000000000005a
:10ee68000000000000000000000000006300000037
:10ee7800000000000000000000000000000000008a
:10ee88006300000000000000000000000000000017
:10ee98000000000054c300205809000000000000d2
:10eea800044002200400000000000000543e02203c
:10eeb800380000000000000048f001203c0200007b
:10eec80001000000687f040000000000020000004c
:10eed8000100000000000000001000000000000019
:10eee8006c7f0400787f040000000000000400002c
:10eef80000000000887f0400787f04000000000004
:10ef08000002000000000000947f0400787f0400e5
:10ef18000000000020000000000000006c7f0400da
:10ef2800a07f040000000000800000000000000036
:10ef3800887f0400a07f040000000000000100009a
:10ef480000000000947f0400a07f0400000000007f
:10ef5800ac7f040000010000010000000100000077
:10ef68000000000020000000000000006c7f04008a
:10ef7800b07f0400000000008000000000000000d6
:10ef8800887f0400b07f040000000000000100003a
:10ef980000000000947f0400b07f0400000000001f
:10efa80063000000000000000000000000000000f6
:10efb80000000000630000000000000000000000e6
:10efc80000000000000000006300000000000000d6
:10efd8000000000000000000000000004c80040059
:10efe8000001000001000000010000000000000016
:10eff80020000000000000006c7f0400a07f0400d7
:10f00800000000008000000000000000947f040061
:10f01800a07f0400000000000004000000000000c1
:10f02800947f0400787f0400000000006300000063
:10f0380000000000000000000000000000000000c8
:10f048006300000000000000000000000000000055
:10f058000000000063000000000000000000000045
:10f0680000000000000000005480040000010000bf
:10f078000100000001000000000000000010000076
:10f08800000000006c7f0400787f0400000000008e
:10f098000004000000000000947f0400787f040052
:10f0a800000000008000000000000000947f0400c1
:10f0b800a07f0400000000006300000000000000c2
:10f0c80000000000000000000000000063000000d5
:10f0d8000000000000000000000000000000000028
:10f0e80063000000000000000000000000000000b5
:10f0f800000000001f1c1f1e1f1e1f1f1e1f1e1f9b
:10f108007c2b012040070000000000006806022058
:10f1180030020000010000009c090500000000000a
:10f1280002000000010000000000000000100000c4
:10f1380000000000a0090500ac090500000000005f
:10f148000004000000000000bc090500ac0905002f
:10f15800000000000002000000000000c8090500cf
:10f16800ac090500000000002000000000000000bd
:10f17800a0090500d4090500000000008000000077
:10f1880000000000bc090500d409050000000000cb
:10f198000001000000000000c8090500d4090500ae
:10f1a80000000000e0090500000100000100000067
:10f1b8000100000000000000200000000000000026
:10f1c800a0090500e4090500000000008000000017
:10f1d80000000000bc090500e4090500000000006b
:10f1e8000001000000000000c8090500e40905004e
:10f1f80000000000630000000000000000000000a4
:10f208000000000000000000630000000000000093
:10f218000000000000000000000000006300000083
:10f2280000000000000000000000000000000000d6
:10f23800800a050000010000010000000100000034
:10f24800000000002000000000000000a0090500e8
:10f25800d409050000000000800000000000000044
:10f26800c8090500d40905000000000000040000da
:10f2780000000000c8090500ac09050000000000f6
:10f288006300000000000000000000000000000013
:10f298000000000063000000000000000000000003
:10f2a80000000000000000006300000000000000f3
:10f2b800000000000000000000000000880a0500af
:10f2c8000001000001000000010000000000000033
:10f2d8000010000000000000a0090500ac090500ae
:10f2e800000000000004000000000000c80905003c
:10f2f800ac090500000000008000000000000000cc
:10f30800c8090500d40905000000000063000000da
:10f3180000000000000000000000000000000000e5
:10f328006300000000000000000000000000000072
:10f338000000000063000000000000000000000062
:10f348000000000000000000e41c01204c07000041
:10f3580000000000980802203002000001000000b0
:10f368006cb304000000000002000000010000006f
:10f3780000000000001000000000000070b304004e
:10f388007cb304000000000000040000000000003e
:10f398008cb304007cb304000000000000020000ed
:10f3a8000000000098b304007cb3040000000000d3
:10f3b800200000000000000070b30400a4b30400a3
:10f3c8000000000080000000000000008cb3040072
:10f3d800a4b30400000000000001000000000000c9
:10f3e80098b30400a4b3040000000000b0b3040004
:10f3f8000001000001000000010000000000000002
:10f40800200000000000000070b30400b4b3040042
:10f418000000000080000000000000008cb3040021
:10f42800b4b3040000000000000100000000000068
:10f4380098b30400b4b304000000000063000000a7
:10f4480000000000000000000000000000000000b4
:10f458006300000000000000000000000000000041
:10f468000000000063000000000000000000000031
:10f47800000000000000000050b40400000100007b
:10f488000100000001000000000000002000000052
:10f498000000000070b30400a4b3040000000000e2
:10f4a800800000000000000098b30400a4b304002a
:10f4b80000000000000400000000000098b30400f1
:10f4c8007cb304000000000063000000000000009e
:10f4d80000000000000000000000000063000000c1
:10f4e8000000000000000000000000000000000014
:10f4f80063000000000000000000000000000000a1
:10f508000000000058b404000001000001000000e1
:10f5180001000000000000000010000000000000d2
:10f5280070b304007cb30400000000000004000075
:10f538000000000098b304007cb304000000000041
:10f54800800000000000000098b30400a4b3040089
:10f558000000000063000000000000000000000040
:10f568000000000000000000630000000000000030
:10f578000000000000000000000000006300000020
:10f588000000000000000000000000000000000073
:10f59800304801201807000000000000c80a0220b7
:10f5a80030020000010000001ca20400000000005e
:10f5b8000200000001000000000000000010000030
:10f5c8000000000020a204002ca20400000000009b
:10f5d80000040000000000003ca204002ca204006b
:10f5e80000000000000200000000000048a2040023
:10f5f8002ca2040000000000200000000000000011
:10f6080020a2040054a204000000000080000000b2
:10f61800000000003ca2040054a204000000000006
:10f62800000100000000000048a2040054a20400e9
:10f638000000000060a204000001000001000000ba
:10f648000100000000000000200000000000000091
:10f6580020a2040064a20400000000008000000052
:10f66800000000003ca2040064a2040000000000a6
:10f67800000100000000000048a2040064a2040089
:10f68800000000006300000000000000000000000f
:10f6980000000000000000006300000000000000ff
:10f6a80000000000000000000000000063000000ef
:10f6b8000000000000000000000000000000000042
:10f6c80000a3040000010000010000000100000088
:10f6d80000000000200000000000000020a204003c
:10f6e80054a2040000000000800000000000000098
:10f6f80048a2040054a20400000000000004000016
:10f708000000000048a204002ca204000000000031
:10f71800630000000000000000000000000000007e
:10f72800000000006300000000000000000000006e
:10f73800000000000000000063000000000000005e
:10f7480000000000000000000000000008a3040002
:10f75800000100000100000001000000000000009e
:10f76800001000000000000020a204002ca20400e9
:10f7780000000000000400000000000048a204008f
:10f788002ca204000000000080000000000000001f
:10f7980048a2040054a20400000000006300000016
:10f7a8000000000000000000000000000000000051
:10f7b80063000000000000000000000000000000de
:10f7c80000000000630000000000000000000000ce
:10f7d800000000000000000050b80120e006000012
:10f7e80000000000d43f02200800000000000000d4
:10f7f80051c30020030000000100000001010100c6
:10f808006c3f022019000000000000006c3c022040
:10f81800010100000000000070fb0120340200001c
:10f8280001000000c4aa040000000000020000005b
:10f8380001000000000000000010000000000000af
:10f84800c8aa0400d4aa04000000000000040000b4
:10f8580000000000e4aa0400d4aa0400000000008c
:10f868000002000000000000f0aa0400d4aa04006e
:10f87800000000002000000000000000c8aa0400ea
:10f88800fcaa040000000000800000000000000046
:10f89800e4aa0400fcaa0400000000000001000023
:10f8a80000000000f0aa0400fcaa04000000000008
:10f8b80008ab040000010000010000000100000086
:10f8c800000000002000000000000000c8aa04009a
:10f8d8000cab0400000000008000000000000000e5
:10f8e800e4aa04000cab04000000000000010000c2
:10f8f80000000000f0aa04000cab040000000000a7
:10f90800630000000000000000000000000000008c
:10f91800000000006300000000000000000000007c
:10f92800000000000000000063000000000000006c
:10f93800000000000000000000000000a8ab040068
:10f9480000010000010000000100000000000000ac
:10f958002000000000000000c8aa0400fcaa04005f
:10f96800000000008000000000000000f0aa040071
:10f97800fcaa0400000000000004000000000000d1
:10f98800f0aa0400d4aa04000000000063000000ec
:10f99800000000000000000000000000000000005f
:10f9a80063000000000000000000000000000000ec
:10f9b80000000000630000000000000000000000dc
:10f9c8000000000000000000b0ab040000010000cf
:10f9d800010000000100000000000000001000000d
:10f9e80000000000c8aa0400d4aa04000000000017
:10f9f8000004000000000000f0aa0400d4aa0400db
:10fa0800000000008000000000000000f0aa0400d0
:10fa1800fcaa0400000000006300000000000000d1
:10fa2800000000000000000000000000630000006b
:10fa380000000000000000000000000000000000be
:10fa4800630000000000000000000000000000004b
:10fa580000000000c3000000b08001200007000083
:10fa68000000000040e70120410200000100000002
:10fa780078300400000000000200000001000000cf
:10fa88000000000000100000000000007c300400ae
:10fa9800883004000000000000040000000000009e
:10faa80098300400883004000000000000020000c4
:10fab80000000000a43004008830040000000000aa
:10fac80020000000000000007c300400b03004007a
:10fad80000000000800000000000000098300400d2
:10fae800b030040000000000000100000000000029
:10faf800a4300400b030040000000000bc30040052
:10fb080000010000010000000100000000000000ea
:10fb180020000000000000007c300400c030040019
:10fb28000000000080000000000000009830040081
:10fb3800c0300400000000000001000000000000c8
:10fb4800a4300400c030040000000000630000007e
:10fb5800000000000000000000000000000000009d
:10fb6800630000000000000000000000000000002a
:10fb7800000000006300000000000000000000001a
:10fb880000000000000000005c31040000010000db
:10fb9800010000000100000000000000200000003b
:10fba800000000007c300400b030040000000000b9
:10fbb8008000000000000000a4300400b030040001
:10fbc800000000000004000000000000a430040051
:10fbd80088300400000000006300000000000000fe
:10fbe80000000000000000000000000063000000aa
:10fbf80000000000000000000000000000000000fd
:10fc08006300000000000000000000000000000089
:10fc18000000000064310400000100000100000041
:10fc280001000000000000000010000000000000bb
:10fc38007c3004008830040000000000000400004c
:10fc480000000000a4300400883004000000000018
:10fc58008000000000000000a4300400b030040060
:10fc68000000000063000000000000000000000029
:10fc78000000000000000000630000000000000019
:10fc88000000000000000000000000006300000009
:10fc9800000000000000000000000000000000005c
:10fca80001000000090000001e0000002c010000f7
:10fcb8000100000068ff00207d0700000000000030
:10fcc800f80c022030020000010000002842040065
:10fcd8000000000002000000010000000000000019
:10fce80000100000000000002c420400384204000c
:10fcf800000000000004000000000000484204006a
:10fd0800384204000000000000020000000000006b
:10fd180054420400384204000000000020000000a3
:10fd2800000000002c4204006042040000000000b3
:10fd38008000000000000000484204006042040007
:10fd48000000000000010000000000005442040010
:10fd580060420400000000006c4204000001000042
:10fd68000100000001000000000000002000000069
:10fd7800000000002c420400704204000000000053
:10fd880080000000000000004842040070420400a7
:10fd980000000000000100000000000054420400c0
:10fda8007042040000000000630000000000000032
:10fdb80000000000000000000000000063000000d8
:10fdc800000000000000000000000000000000002b
:10fdd80063000000000000000000000000000000b8
:10fde800000000000c4304000001000001000000b6
:10fdf80001000000000000002000000000000000da
:10fe08002c42040060420400000000008000000052
:10fe1800000000005442040060420400000000009a
:10fe280000040000000000005442040038420400ae
:10fe38000000000063000000000000000000000057
:10fe48000000000000000000630000000000000047
:10fe58000000000000000000000000006300000037
:10fe6800000000000000000000000000000000008a
:10fe7800144304000001000001000000010000001c
:10fe88000000000000100000000000002c420400e8
:10fe980038420400000000000004000000000000d8
:10fea80054420400384204000000000080000000b2
:10feb80000000000544204006042040000000000fa
:10fec80063000000000000000000000000000000c7
:10fed80000000000630000000000000000000000b7
:10fee80000000000000000006300000000000000a7
:10fef800000000000000000000000000e8060120eb
:10ff08005807000000000000280f022030020000ff
:10ff180001000000d4ef040000000000020000000f
:10ff280001000000000000000010000000000000b8
:10ff3800d8ef0400e4ef0400000000000004000013
:10ff480000000000f4ef0400e4ef040000000000eb
:10ff5800000200000000000000f00400e4ef0400cc
:10ff6800000000002000000000000000d8ef04009e
:10ff78000cf00400000000008000000000000000f9
:10ff8800f4ef04000cf00400000000000001000081
:10ff98000000000000f004000cf004000000000065
:10ffa80018f004000001000001000000010000003a
:10ffb800000000002000000000000000d8ef04004e
:10ffc8001cf0040000000000800000000000000099
:10ffd800f4ef04001cf00400000000000001000021
:10ffe8000000000000f004001cf004000000000005
:10fff8006300000000000000000000000000000096
:020000040001f9
:100008000000000063000000000000000000000085
:100018000000000000000000630000000000000075
:10002800000000000000000000000000b8f004001c
:1000380000010000010000000100000000000000b5
:100048002000000000000000d8ef04000cf00400bd
:1000580000000000800000000000000000f0040024
:100068000cf0040000000000000400000000000084
:1000780000f00400e4ef040000000000630000004a
:100088000000000000000000000000000000000068
:1000980063000000000000000000000000000000f5
:1000a80000000000630000000000000000000000e5
:1000b8000000000000000000c0f004000001000083
:1000c8000100000001000000000000000010000016
:1000d80000000000d8ef0400e4ef04000000000076
:1000e800000400000000000000f00400e4ef040039
:1000f80000000000800000000000000000f0040084
:100108000cf0040000000000630000000000000084
:100118000000000000000000000000006300000074
:1001280000000000000000000000000000000000c7
:100138006300000000000000000000000000000054
:1001480000000000b0870120f80600000000000051
:10015800fcf60120390200000100000014fa030037
:100168000000000002000000010000000000000084
:10017800001000000000000018fa030024fa030031
:1001880000000000000400000000000034fa030032
:1001980024fa030000000000000200000000000034
:1001a80040fa030024fa03000000000020000000c9
:1001b8000000000018fa03004cfa030000000000d9
:1001c800800000000000000034fa03004cfa03002d
:1001d80000000000000100000000000040fa0300d9
:1001e8004cfa03000000000058fa03000001000068
:1001f80001000000010000000000000020000000d5
:100208000000000018fa03005cfa03000000000078
:10021800800000000000000034fa03005cfa0300cc
:1002280000000000000100000000000040fa030088
:100238005cfa0300000000006300000000000000fa
:100248000000000000000000000000006300000043
:100258000000000000000000000000000000000096
:100268006300000000000000000000000000000023
:1002780000000000f8fa030000010000010000007f
:100288000100000000000000200000000000000045
:1002980018fa03004cfa0300000000008000000078
:1002a8000000000040fa03004cfa030000000000c0
:1002b800000400000000000040fa030024fa0300d4
:1002c80000000000630000000000000000000000c3
:1002d80000000000000000006300000000000000b3
:1002e80000000000000000000000000063000000a3
:1002f80000000000000000000000000000000000f6
:1003080000fb0300000100000100000001000000e4
:1003180000000000001000000000000018fa0300b0
:1003280024fa0300000000000004000000000000a0
:1003380040fa030024fa03000000000080000000d7
:100348000000000040fa03004cfa0300000000001f
:100358006300000000000000000000000000000032
:100368000000000063000000000000000000000022
:100378000000000000000000630000000000000012
:100388000000000000000000000000000200000063
:100398000500000003000000c0de00209c080000eb
:1003a8000000000058110220300200000100000087
:1003b800583904000000000002000000010000009d
:1003c8000000000000100000000000005c3904007c
:1003d800683904000000000000040000000000006c
:1003e80078390400683904000000000000020000a9
:1003f800000000008439040068390400000000008f
:1004080020000000000000005c390400903904005e
:10041800000000008000000000000000783904009f
:1004280090390400000000000001000000000000f6
:100438008439040090390400000000009c3904004d
:1004480000010000010000000100000000000000a1
:1004580020000000000000005c390400a0390400fe
:10046800000000008000000000000000783904004f
:10047800a039040000000000000100000000000096
:1004880084390400a0390400000000006300000063
:100498000000000000000000000000000000000054
:1004a80063000000000000000000000000000000e1
:1004b80000000000630000000000000000000000d1
:1004c80000000000000000003c3a040000010000a9
:1004d80001000000010000000000000020000000f2
:1004e800000000005c39040090390400000000009e
:1004f80080000000000000008439040090390400e6
:10050800000000000004000000000000843904001e
:1005180068390400000000006300000000000000cb
:100528000000000000000000000000006300000060
:1005380000000000000000000000000000000000b3
:100548006300000000000000000000000000000040
:1005580000000000443a040000010000010000000f
:100568000100000000000000001000000000000072
:100578005c39040068390400000000000004000031
:1005880000000000843904006839040000000000fd
:100598008000000000000000843904009039040045
:1005a80000000000630000000000000000000000e0
:1005b80000000000000000006300000000000000d0
:1005c80000000000000000000000000063000000c0
:1005d8000000000000000000000000000000000013
:1005e8005ca00020f40b000000000000881302202b
:1005f800300200000100000044d4030000000000a5
:1006080002000000010000000000000000100000cf
:100618000000000048d4030054d403000000000088
:10062800000400000000000064d4030054d4030058
:1006380000000000000200000000000070d4030069
:1006480054d4030000000000200000000000000057
:1006580048d403007cd403000000000080000000a0
:100668000000000064d403007cd4030000000000f4
:10067800000100000000000070d403007cd40300d7
:100688000000000088d40300000100000100000001
:100698000100000000000000200000000000000031
:1006a80048d403008cd40300000000008000000040
:1006b8000000000064d403008cd403000000000094
:1006c800000100000000000070d403008cd4030077
:1006d80000000000630000000000000000000000af
:1006e800000000000000000063000000000000009f
:1006f800000000000000000000000000630000008f
:1007080000000000000000000000000000000000e1
:1007180028d50300000100000100000001000000ce
:1007280000000000200000000000000048d4030082
:100738007cd40300000000008000000000000000de
:1007480070d403007cd40300000000000004000003
:100758000000000070d4030054d40300000000001f
:10076800630000000000000000000000000000001e
:10077800000000006300000000000000000000000e
:1007880000000000000000006300000000000000fe
:1007980000000000000000000000000030d5030049
:1007a800000100000100000001000000000000003e
:1007b800001000000000000048d4030054d40300d7
:1007c80000000000000400000000000070d40300d6
:1007d80054d4030000000000800000000000000066
:1007e80070d403007cd40300000000006300000004
:1007f80000000000000000000000000000000000f1
:10080800630000000000000000000000000000007d
:10081800000000006300000000000000000000006d
:100828000000000000000000f4d50020ca08000005
:1008380000000000b815022030020000010000008e
:10084800b47604000000000002000000010000006f
:10085800000000000010000000000000b87604004e
:10086800c47604000000000000040000000000003e
:10087800d4760400c47604000000000000020000e2
:1008880000000000e0760400c476040000000000c8
:100898002000000000000000b8760400ec76040098
:1008a800000000008000000000000000d476040072
:1008b800ec760400000000000001000000000000c9
:1008c800e0760400ec76040000000000f8760400ee
:1008d800000100000100000001000000000000000d
:1008e8002000000000000000b8760400fc76040038
:1008f800000000008000000000000000d476040022
:10090800fc76040000000000000100000000000068
:10091800e0760400fc76040000000000630000009c
:1009280000000000000000000000000000000000bf
:10093800630000000000000000000000000000004c
:10094800000000006300000000000000000000003c
:10095800000000000000000098770400000100007b
:10096800010000000100000000000000200000005d
:1009780000000000b8760400ec76040000000000d7
:100988008000000000000000e0760400ec7604001f
:10099800000000000004000000000000e0760400f1
:1009a800c47604000000000063000000000000009e
:1009b80000000000000000000000000063000000cc
:1009c800000000000000000000000000000000001f
:1009d80063000000000000000000000000000000ac
:1009e80000000000a07704000001000001000000e2
:1009f80001000000000000000010000000000000de
:100a0800b8760400c476040000000000000400006a
:100a180000000000e0760400c47604000000000036
:100a28008000000000000000e0760400ec7604007e
:100a3800000000006300000000000000000000004b
:100a4800000000000000000063000000000000003b
:100a5800000000000000000000000000630000002b
:100a6800000000000000000000000000000000007e
:100a78006cb10120e40600000000000038f90120f4
:100a88003502000001000000942704000000000067
:100a9800020000000100000000000000001000003b
:100aa8000000000098270400a427040000000000ac
:100ab8000004000000000000b4270400a42704007c
:100ac800000000000002000000000000c027040031
:100ad800a42704000000000020000000000000001f
:100ae80098270400cc2704000000000080000000c4
:100af80000000000b4270400cc2704000000000018
:100b08000001000000000000c0270400cc270400fa
:100b180000000000d82704000001000001000000c8
:100b2800010000000000000020000000000000009c
:100b380098270400dc270400000000008000000063
:100b480000000000b4270400dc27040000000000b7
:100b58000001000000000000c0270400dc2704009a
:100b6800000000006300000000000000000000001a
:100b7800000000000000000063000000000000000a
:100b880000000000000000000000000063000000fa
:100b9800000000000000000000000000000000004d
:100ba8007828040000010000010000000100000096
:100bb800000000002000000000000000982704004a
:100bc800cc270400000000008000000000000000a6
:100bd800c0270400cc270400000000000004000027
:100be80000000000c0270400a42704000000000043
:100bf800630000000000000000000000000000008a
:100c08000000000063000000000000000000000079
:100c18000000000000000000630000000000000069
:100c28000000000000000000000000008028040010
:100c380000010000010000000100000000000000a9
:100c4800001000000000000098270400a4270400fa
:100c5800000000000004000000000000c02704009d
:100c6800a42704000000000080000000000000002d
:100c7800c0270400cc270400000000006300000027
:100c8800000000000000000000000000000000005c
:100c980063000000000000000000000000000000e9
:100ca80000000000630000000000000000000000d9
:100cb800000000000000000001000000010000002a
:100cc8005ce700207808000000000000e817022018
:100cd800300200000100000070f80400000000006d
:100ce80002000000010000000000000000100000e9
:100cf8000000000074f8040080f804000000000000
:100d0800000400000000000090f8040080f80400cf
:100d18000000000000020000000000009cf8040031
:100d280080f804000000000020000000000000001f
:100d380074f80400a8f80400000000008000000017
:100d48000000000090f80400a8f80400000000006b
:100d580000010000000000009cf80400a8f804004e
:100d680000000000b4f804000001000001000000c9
:100d7800010000000000000020000000000000004a
:100d880074f80400b8f804000000000080000000b7
:100d98000000000090f80400b8f80400000000000b
:100da80000010000000000009cf80400b8f80400ee
:100db80000000000630000000000000000000000c8
:100dc80000000000000000006300000000000000b8
:100dd80000000000000000000000000063000000a8
:100de80000000000000000000000000000000000fb
:100df80054f9040000010000010000000100000097
:100e080000000000200000000000000074f804004a
:100e1800a8f80400000000008000000000000000a6
:100e28009cf80400a8f8040000000000000400007a
:100e3800000000009cf8040080f804000000000096
:100e48006300000000000000000000000000000037
:100e58000000000063000000000000000000000027
:100e68000000000000000000630000000000000017
:100e78000000000000000000000000005cf9040011
:100e88000001000001000000010000000000000057
:100e9800001000000000000074f8040080f804004e
:100ea8000000000000040000000000009cf804009e
:100eb80080f804000000000080000000000000002e
:100ec8009cf80400a8f8040000000000630000007b
:100ed800000000000000000000000000000000000a
:100ee8006300000000000000000000000000000097
:100ef8000000000063000000000000000000000087
:100f08000000000000000000a87901200807000088
:100f180000000000181a0220300200000100000042
:100f28001888040000000000020000000100000012
:100f38000000000000100000000000001c880400f1
:100f480028880400000000000004000000000000e1
:100f5800388804002888040000000000000200000f
:100f680000000000448804002888040000000000f5
:100f780020000000000000001c88040050880400c5
:100f88000000000080000000000000003888040015
:100f9800508804000000000000010000000000006c
:100fa8004488040050880400000000005c880400a5
:100fb8000001000001000000010000000000000026
:100fc80020000000000000001c8804006088040065
:100fd80000000000800000000000000038880400c5
:100fe800608804000000000000010000000000000c
:100ff80044880400608804000000000063000000ca
:1010080000000000000000000000000000000000d8
:101018006300000000000000000000000000000065
:101028000000000063000000000000000000000055
:101038000000000000000000fc880400000100001f
:101048000100000001000000000000002000000076
:10105800000000001c880400508804000000000004
:10106800800000000000000044880400508804004c
:101078000000000000040000000000004488040094
:101088002888040000000000630000000000000041
:1010980000000000000000000000000063000000e5
:1010a8000000000000000000000000000000000038
:1010b80063000000000000000000000000000000c5
:1010c8000000000004890400000100000100000085
:1010d80001000000000000000010000000000000f7
:1010e8001c88040028880400000000000004000098
:1010f8000000000044880400288804000000000064
:1011080080000000000000004488040050880400ab
:101118000000000063000000000000000000000064
:101128000000000000000000630000000000000054
:101138000000000000000000000000006300000044
:101148000000000000000000000000000000000097
:101158000c4101202407000000000000481c022068
:1011680030020000010000005cad03000000000038
:101178000200000001000000000000000010000054
:101188000000000060ad03006cad0300000000002b
:1011980000040000000000007cad03006cad0300fb
:1011a80000000000000200000000000088ad0300fd
:1011b8006cad0300000000002000000000000000eb
:1011c80060ad030094ad0300000000008000000043
:1011d800000000007cad030094ad03000000000097
:1011e800000100000000000088ad030094ad03007a
:1011f80000000000a0ad0300000100000100000095
:1012080001000000000000002000000000000000b5
:1012180060ad0300a4ad03000000000080000000e2
:10122800000000007cad0300a4ad03000000000036
:10123800000100000000000088ad0300a4ad030019
:101248000000000063000000000000000000000033
:101258000000000000000000630000000000000023
:101268000000000000000000000000006300000013
:101278000000000000000000000000000000000066
:1012880040ae030000010000010000000100000062
:1012980000000000200000000000000060ad030016
:1012a80094ad030000000000800000000000000072
:1012b80088ad030094ad03000000000000040000a6
:1012c8000000000088ad03006cad030000000000c2
:1012d80063000000000000000000000000000000a3
:1012e8000000000063000000000000000000000093
:1012f8000000000000000000630000000000000083
:1013080000000000000000000000000048ae0300dc
:1013180000010000010000000100000000000000c2
:10132800001000000000000060ad03006cad030079
:1013380000000000000400000000000088ad030069
:101348006cad0300000000008000000000000000f9
:1013580088ad030094ad03000000000063000000a6
:101368000000000000000000000000000000000075
:101378006300000000000000000000000000000002
:1013880000000000630000000000000000000000f2
:10139800000000000000000010b80020410b000011
:1013a80000000000781e022030020000010000004a
:1013b80058cd0400000000000200000001000000f9
:1013c8000000000000100000000000005ccd0400d8
:1013d80068cd0400000000000004000000000000c8
:1013e80078cd040068cd0400000000000002000071
:1013f8000000000084cd040068cd04000000000057
:1014080020000000000000005ccd040090cd040026
:1014180000000000800000000000000078cd0400fb
:1014280090cd040000000000000100000000000052
:1014380084cd040090cd0400000000009ccd040081
:101448000001000001000000010000000000000091
:1014580020000000000000005ccd0400a0cd0400c6
:1014680000000000800000000000000078cd0400ab
:10147800a0cd0400000000000001000000000000f2
:1014880084cd0400a0cd040000000000630000002b
:101498000000000000000000000000000000000044
:1014a80063000000000000000000000000000000d1
:1014b80000000000630000000000000000000000c1
:1014c80000000000000000003cce04000001000005
:1014d80001000000010000000000000020000000e2
:1014e800000000005ccd040090cd04000000000066
:1014f800800000000000000084cd040090cd0400ae
:1015080000000000000400000000000084cd04007a
:1015180068cd040000000000630000000000000027
:101528000000000000000000000000006300000050
:1015380000000000000000000000000000000000a3
:101548006300000000000000000000000000000030
:101558000000000044ce040000010000010000006b
:101568000100000000000000001000000000000062
:101578005ccd040068cd04000000000000040000f9
:101588000000000084cd040068cd040000000000c5
:10159800800000000000000084cd040090cd04000d
:1015a80000000000630000000000000000000000d0
:1015b80000000000000000006300000000000000c0
:1015c80000000000000000000000000063000000b0
:1015d8000000000000000000000000000000000003
:1015e800906b01200907000000000000c8eb0120f3
:1015f8003e02000001000000c4900400000000004a
:1016080002000000010000000000000000100000bf
:1016180000000000c8900400d490040000000000fe
:101628000004000000000000e4900400d4900400ce
:10163800000000000002000000000000f09004001c
:10164800d49004000000000020000000000000000a
:10165800c8900400fc900400000000008000000016
:1016680000000000e4900400fc900400000000006a
:101678000001000000000000f0900400fc9004004d
:1016880000000000089104000001000001000000b3
:101698000100000000000000200000000000000021
:1016a800c89004000c9104000000000080000000b5
:1016b80000000000e49004000c9104000000000009
:1016c8000001000000000000f09004000c910400ec
:1016d800000000006300000000000000000000009f
:1016e800000000000000000063000000000000008f
:1016f800000000000000000000000000630000007f
:1017080000000000000000000000000000000000d1
:10171800a891040000010000010000000100000081
:10172800000000002000000000000000c890040035
:10173800fc90040000000000800000000000000091
:10174800f0900400fc900400000000000004000079
:1017580000000000f0900400d49004000000000095
:10176800630000000000000000000000000000000e
:1017780000000000630000000000000000000000fe
:1017880000000000000000006300000000000000ee
:10179800000000000000000000000000b0910400fc
:1017a800000100000100000001000000000000002e
:1017b8000010000000000000c8900400d49004004d
:1017c800000000000004000000000000f090040089
:1017d800d490040000000000800000000000000019
:1017e800f0900400fc90040000000000630000007a
:1017f80000000000000000000000000000000000e1
:10180800630000000000000000000000000000006d
:10181800000000006300000000000000000000005d
:101828000000000000000000284e4f5754522900c5
:101838002857545229000000400e0120510700008b
:1018480000000000a8200220300200000100000073
:1018580010bc0400000000000200000001000000ad
:1018680000000000001000000000000014bc04008c
:1018780020bc04000000000000040000000000007c
:1018880030bc040020bc040000000000000200007e
:10189800000000003cbc040020bc04000000000064
:1018a800200000000000000014bc040048bc040034
:1018b80000000000800000000000000030bc0400b0
:1018c80048bc040000000000000100000000000007
:1018d8003cbc040048bc04000000000054bc0400e8
:1018e80000010000010000000100000000000000ed
:1018f800200000000000000014bc040058bc0400d4
:1019080000000000800000000000000030bc04005f
:1019180058bc0400000000000001000000000000a6
:101928003cbc040058bc0400000000006300000038
:10193800000000000000000000000000000000009f
:10194800630000000000000000000000000000002c
:10195800000000006300000000000000000000001c
:101968000000000000000000f4bc040000010000ba
:10197800010000000100000000000000200000003d
:101988000000000014bc040048bc04000000000073
:1019980080000000000000003cbc040048bc0400bb
:1019a8000000000000040000000000003cbc04002f
:1019b80020bc0400000000006300000000000000dc
:1019c80000000000000000000000000063000000ac
:1019d80000000000000000000000000000000000ff
:1019e800630000000000000000000000000000008c
:1019f80000000000fcbc0400000100000100000021
:101a080001000000000000000010000000000000bd
:101a180014bc040020bc0400000000000004000006
:101a2800000000003cbc040020bc040000000000d2
:101a380080000000000000003cbc040048bc04001a
:101a4800000000006300000000000000000000002b
:101a5800000000000000000063000000000000001b
:101a6800000000000000000000000000630000000b
:101a7800000000000000000000000000000000005e
:101a8800705d01201107000000000000d82202202c
:101a980030020000010000002812050000000000cc
:101aa800020000000100000000000000001000001b
