:020000040000fa
:10c00000f0ff032091c00600af8c06009b7706006e
:10c01000af8c060095770600af8c0600000000008c
:10c020000000000000000000000000004d39060084
:10c03000af8c060000000000b93b0600273c06005c
:10c04000af8c0600af8c0600af8c0600af8c0600ec
:10c05000af8c0600af8c0600af8c0600af8c0600dc
:10c06000af8c0600af8c0600af8c060031bc03001d
:10c07000af8c0600af8c0600af8c0600af8c0600bc
:10c08000af8c0600af8c0600af8c0600af8c0600ac
:10c09000af8c0600af8c0600af8c0600af8c06009c
:10c0a000af8c0600af8c0600af8c0600af8c06008c
:10c0b000af8c0600af8c0600af8c0600af8c06007c
:10c0c000af8c0600af8c0600af8c0600af8c06006c
:10c0d000af8c0600af8c0600af8c0600af8c06005c
:10c0e000af8c0600af8c06000000000000000000ce
:10c0f0000000000099810600af8c0600af8c06009e
:10c10000af8c0600af8c0600af8c0600af8c06002b
:10c11000af8c0600af8c0600857b01009d7b010083
:10c12000b57b0100af8c0600af8c0600af8c06001b
:10c13000af8c0600af8c0600af8c0600af8c0600fb
:10c14000af8c0600af8c0600e57b0100fd7b010093
:10c15000157c0100af8c0600af8c0600af8c06008a
:10c16000af8c0600af8c0600af8c0600af8c0600cb
:10c17000af8c0600af8c0600af8c0600af8c0600bb
:10c18000af8c0600af8c0600af8c0600af8c0600ab
:10c19000af8c0600af8c0600af8c0600af8c06009b
:10c1a000af8c0600af8c0600af8c0600af8c06008b
:10c1b000af8c0600af8c0600af8c0600af8c06007b
:10c1c000af8c0600af8c0600af8c0600af8c06006b
:10c1d000af8c0600af8c0600af8c0600af8c06005b
:10c1e000af8c0600af8c0600af8c0600af8c06004b
:10c1f000af8c0600af8c0600af8c0600af8c06003b
:10c20000af8c0600af8c0600af8c0600af8c06002a
:10c21000af8c0600af8c0600af8c06005d8a06006e
:10c22000af8c0600af8c0600af8c0600af8c06000a
:10c23000af8c0600af8c0600af8c0600af8c0600fa
:10c24000af8c0600af8c0600af8c0600af8c0600ea
:10c25000af8c0600af8c0600af8c0600af8c0600da
:04c26000af8c060099
:020000040000fa
:10c2640003970181b0b00884000000000d9701819c
:10c27400b0b00b840000000009970181b0b00b84ba
:10c284000000000003970181b0b0088400000000a2
:10c2940003970181b0b00884000000000197018178
:10c2a400b0b008840000000001970181b0b0088498
:10c2b4000000000001970181b0b008840000000074
:10c2c40001970181b0b00884000000000397018148
:10c2d400b0b008840000000003970181b0b0088466
:10c2e4000000000003970181b0b008840000000042
:10c2f40001970181b0b0088400000000019701811a
:10c30400b0b008840000000005970181b0b0088433
:10c314000000000001970181b0b008840000000013
:10c3240002970181b0b009840000000001970181e7
:10c33400b0b008840000000001970181b0b0088407
:10c344000000000003970181b0b0088400000000e1
:10c3540001970181b0b008840000000001970181b9
:10c36400b0b008840000000001970181b0b00884d7
:10c374000000000001970181b0b0088400000000b3
:10c3840003970181b0b00884000000000397018185
:10c39400b0b008840000000003970181b0b00884a5
:10c3a4000000000003970181b0b008840000000081
:10c3b40004970181b0b00984000000000597018151
:10c3c400b0b008840000000005970181b0b0088473
:10c3d4000000000001970181b0b008840000000053
:10c3e40001970181b0b00884000000000397018127
:10c3f400b0b008840000000003970181b0b0088445
:10c404000000000001970181b0b008840000000022
:10c4140001970181b0b008840000000005970181f4
:10c42400b0b008840000000003970181b0b0088414
:10c434000000000003970181b0b0088400000000f0
:10c4440003970181b0b008840000000003970181c4
:10c45400b0b008840000000001970181b0b00884e6
:10c464000000000001970181b0b0088400000000c2
:10c4740003970181b0b00884000000000197018196
:10c48400b0b008840000000001970181b0b00884b6
:10c494000000000003970181b0b008840000000090
:10c4a40001970181b0b00884000000000397018166
:10c4b400b0b008840000000003970181b0b0088484
:10c4c4000000000003970181b0b008840000000060
:10c4d40009970181b0b0088400000000039701812e
:10c4e400b0b008840000000001970181b0b0088456
:10c4f4000000000003970181b0b008840000000030
:10c504000b970181b0b008840000000005970181f9
:10c51400b0b008840000000001970181b0b0088425
:10c524000000000004970181b0b0098400000000fd
:10c5340004970181b0b009840000000001970181d3
:10c54400b0b008840000000002970181b0b00984f3
:10c554000000000001970181b0b0088400000000d1
:10c5640001970181b0b008840000000005970181a3
:10c57400b0b008840000000001970181b0b00884c5
:10c584000000000003970181b0b00884000000009f
:10c5940001970181b0030884000000000197018124
:10c5a400b0b008840000000007970181b0b008848f
:10c5b4000000000001970181b0b008840000000071
:10c5c40001970181b0b00884000000000597018143
:10c5d400b0b008840000000005970181b0b0088461
:10c5e4000000000001970181b0b008840000000041
:10c5f40001970181b0b00884000000000397018115
:10c60400b0b008840000000003970181b0b0088432
:10c614000000000003970181b0b00884000000000e
:10c6240007970181b0b008840000000007970181da
:10c63400b0b008840000000006970181b0b00984fe
:10c644000000000005970181b0b0088400000000dc
:10c6540003970181b0b008840000000001970181b4
:10c66400b0b008840000000001970181b0b00884d4
:10c674000000000005970181b0b0088400000000ac
:10c6840001970181b0b00884000000000597018182
:10c69400b0b008840000000003970181b0b00884a2
:10c6a400000000000d970181b0b008840000000074
:10c6b40009970181b0b00884000000000997018146
:10c6c400b0b008840000000002970181b0b0098472
:10c6d4000000000001970181b0b03b84000000001d
:10c6e40003970181b0b03b840000000003970181ef
:10c6f400b0b008840000000003970181b0b0088442
:10c704000000000003970181b0b00884000000001d
:10c7140003970181b0b008840000000003970181f1
:10c72400b0b008840000000005970181b0b008840f
:10c734000000000003970181b0b0088400000000ed
:10c7440001970181b0b008840000000001970181c5
:10c75400b0b008840000000001970181b0b00884e3
:10c764000000000001970181b0b0088400000000bf
:10c7740001970181b0b00884000000000197018195
:10c78400b0b00b840000000001970181b0b00b84ad
:10c794000000000001970181b0b00b84000000008c
:10c7a40001970181b0b00884000000000597018161
:10c7b400b0b008840000000001970181b0b0088483
:10c7c4000000000009970181b0b008840000000057
:10c7d40001970181b0030b840000000004970181dc
:10c7e400b0030984000000000d970181b0b00884f3
:10c7f4000000000005970181b0b00884000000002b
:10c8040005970181b0b008840000000007970181fa
:10c81400b0b008840000000003970181b0b0088420
:10c824000000000003970181b0b0088400000000fc
:10c8340005970181b0b008840000000009970181c8
:10c84400b0b008840000000005970181b0b00884ee
:10c854000000000005970181b0b0088400000000ca
:10c8640006970181b0b0098400000000019701819e
:10c87400b0b008840000000005970181b0b00884be
:10c884000000000007970181b0b008840000000098
:10c8940007970181b0b00884000000000797018168
:10c8a400b0b008840000000007970181b0b008848c
:10c8b4000000000007970181b0b008840000000068
:10c8c40001970181b0b00884000000000597018140
:10c8d400b0b00b840000000005970181b0b008845b
:10c8e4000000000001970181b0b00884000000003e
:10c8f40001970181b0b00884000000000197018114
:10c90400b0b008840000000003970181b0b008842f
:10c914000000000003970181b0b00884000000000b
:10c9240003970181b0b008840000000001970181e1
:10c93400b0b008840000000001970181b0b0088401
:10c944000000000001970181b0b0088400000000dd
:10c9540003970181b0b00b840000000001970181ae
:10c96400b0b008840000000001970181b0b00884d1
:10c974000000000011970181b0b00884000000009d
:10c9840001970181b0b00884000000000197018183
:10c99400b0b008840000000001970181b0b00884a1
:10c9a4000000000005970181b0b008840000000079
:10c9b40005970181b0b0088400000000059701814b
:10c9c400b0b008840000000001970181b0b0088471
:10c9d4000000000004970181b0b009840000000049
:10c9e40001970181b0b00884000000000197018123
:10c9f400b0b008840000000001970181b0b0088441
:10ca04000000000007970181b0b008840000000016
:10ca140003970181b0b008840000000001970181f0
:10ca2400b0b008840000000001970181b0b0088410
:10ca34000000000002970181b0b0098400000000ea
:10ca440008970181b0b009840000000005970181b6
:10ca5400b0b008840000000001970181b0b00b84dd
:10ca64000000000001970181b0b0088400000000bc
:10ca740001970181b0b00884000000000197018192
:10ca8400b0b008840000000001970181b0b00884b0
:10ca94000000000001970181b0b00884000000008c
:10caa40001970181b0b00884000000000197018162
:10cab400b0b008840000000001970181b0b0088480
:10cac4000000000001970181b0b00884000000005c
:10cad40006970181b0b00984000000000597018128
:10cae400b0b008840000000001970181b0b0088450
:10caf4000000000001970181b0b00884000000002c
:10cb040005970181b0b008840000000001970181fd
:10cb1400b0b008840000000001970181b0b008841f
:10cb24000000000005970181b0b0088400000000f7
:10cb340001970181b0b008840000000001970181d1
:10cb4400b0b008840000000001970181b0b00884ef
:10cb54000000000001970181b0b0088400000000cb
:10cb64000b970181b0b00884000000000597018193
:10cb7400b0b008840000000001970181b0b00884bf
:10cb84000000000001970181b0b00884000000009b
:10cb940001970181b0b00884000000000197018171
:10cba400b0b008840000000001970181b0b008848f
:10cbb4000000000008b10181b0b000840000000052
:10cbc40008b10181b0b0008400000000f8b500bfd6
:10cbd400f8bc08bc9e4670477ddd060085c706008c
:10cbe4001d750300fd230300695206007538060015
:10cbf40041d20500f9580200ed960600e97f0300d2
:10cc040041810200958a030095580500516a03008a
:10cc1400a9f50500f5ea02003d46060001fe030001
:10cc2400b1db0200659e0500b1ee0500d12c0200c7
:10cc3400e177050035fa0200510906003d3d030085
:10cc4400a9e00500fdca05004d950200b5e7050001
:10cc5400997f050059bc050015a60500d194030071
:10cc64008508030085ad0500f99e03008dfc0500d1
:10cc74005d6805007d500500018f050029700500e1
:10cc8400b5960500e9c50300f5b4050081d9050092
:10cc94003de20300f8b500bff8bc08bc9e467047ef
:04cca40061c706005e
:020000040000fa
:10cca80028470100010000005447010034fcff7fc1
:10ccb80014480100010000005048010030fcff7fcb
:10ccc8001049010001000000484901002cfcff7fc9
:10ccd800144a010001000000484a01000100000058
:10cce8008c4a010001000000384b010001000000df
:10ccf800744b010001000000a04b0100010000007e
:10cd0800004c010000fcff7f484d010001000000bd
:10cd1800b84d0100fcfbff7f7053010001000000cb
:10cd2800e0530100f8fbff7f80580100fcfbff7f08
:10cd3800d858010000fcff7f48590100010000009d
:10cd4800885f010001000000207701000100000059
:10cd580040770100010000005a770100010000003f
:10cd68007a770100010000009a77010001000000b5
:10cd7800b677010001000000d6770100010000002d
:10cd8800f2770100010000004a780100010000006c
:10cd9800a078010001000000f27801000100000005
:10cda8002e790100010000006a79010001000000ed
:10cdb8008a790100010000004c7a01004cf7ff7fde
:10cdc800a87a010001000000387b01000100000082
:10cdd800a87b010001000000ce7b010001000000db
:10cde800e07b0100010000000a7c010028f7ff7fba
:10cdf8003a7c01002cf7ff7f007d010030f7ff7fb0
:10ce0800947f01000100000038800100010000004b
:10ce18006881010024f7ff7f4282010028f7ff7f25
:10ce280070840100010000009284010024f7ff7f54
:10ce3800a884010028f7ff7fce84010001000000cc
:10ce48001285010001000000a88a0100010000000d
:10ce5800b08a010001000000d08a01000100000032
:10ce6800ea8a0100010000000a8b010001000000ad
:10ce78002a8b010001000000468b01000100000020
:10ce8800668b010001000000828b01000100000098
:10ce9800da8b010001000000308c01000100000065
:10cea800828c010001000000a28c0100010000003a
:10ceb800648d010001000000988d010048f4ff7f97
:10cec800f48d010001000000648e010001000000e3
:10ced800768e010001000000a08e01000100000014
:10cee800ca8e01002cf4ff7ffa8e010030f4ff7f18
:10cef80030910100010000005c9101000100000078
:10cf080072910100010000008891010001000000f9
:10cf18009e91010014f4ff7fb491010018f4ff7f83
:10cf2800ca91010001000000e09101000100000029
:10cf3800fc910100010000001092010004f4ff7f41
:10cf4800d893010008f4ff7f029401000cf4ff7fde
:10cf58002c940100010000004494010008f4ff7fb4
:10cf6800e29401000cf4ff7f0c95010010f4ff7fa0
:10cf780030950100010000009096010001000000ba
:10cf8800f096010001000000dc970100fcf3ff7f30
:10cf9800fa97010000f4ff7f1898010004f4ff7f5e
:10cfa8003698010001000000a89801000100000067
:10cfb80006990100f8f3ff7f149a010001000000b0
:10cfc8003c9a010001000000b89a0100ecf3ff7fd1
:10cfd800769b010001000000c49b010001000000d5
:10cfe800d89b010001000000ec9b0100010000003b
:10cff800009c010001000000149c010001000000d9
:10d00800389c010001000000649c01000100000040
:10d01800b29c010001000000f89c01000100000022
:10d028001c9d0100010000003c9d01000100000062
:10d038005c9d010001000000909d010001000000be
:10d04800ba9d010001000000409e0100ab169780c8
:10d05800a0a0010040f6ff7f0ea1010044f6ff7f6b
:10d06800caa1010048f6ff7f48a201004cf6ff7fe5
:10d0780030a3010050f6ff7f04a6010054f6ff7f9d
:10d0880008a7010058f6ff7f60aa01000100000010
:10d09800a8b0010001000000b0b0010001000000cc
:10d0a800e4b00100010000005cb101003cf9ff7f21
:10d0b80058b4010040f9ff7f98b4010044f9ff7f9c
:10d0c8006cb7010048f9ff7f54b801004cf9ff7fa5
:10d0d800b8b8010050f9ff7f24b901000100000031
:10d0e80000ba01004cf9ff7f4cbc0100ad029780eb
:10d0f80084bd0100010000004cc4010001000000d3
:10d10800fce90100010000001cea01000100000028
:10d1180036ea01000100000056ea010001000000a3
:10d1280076ea01000100000092ea01000100000017
:10d13800b2ea010001000000ceea0100010000008f
:10d1480026eb0100010000007ceb0100010000005b
:10d15800ceeb0100010000000aec01000100000014
:10d1680046ec01000100000066ec0100010000002f
:10d1780028ed0100010000005ced010048f2ff7f8e
:10d18800b8ed01000100000048ee010001000000b8
:10d19800b8ee010001000000deee01000100000011
:10d1a800f0ee0100010000001aef0100010000008c
:10d1b80044ef01001cf2ff7f74ef01000100000042
:10d1c80082ef010001000000f6f0010010f2ff7f7d
:10d1d8003ef1010014f2ff7f9ef1010018f2ff7f7b
:10d1e800f0f101001cf2ff7f2cf2010001000000a9
:10d1f80040f201000100000054f2010001000000ab
:10d2080068f20100010000007cf20100010000004a
:10d2180090f2010001000000a4f2010001000000ea
:10d228008af30100010000009ef30100e0f1ff7f96
:10d23800b6f30100e4f1ff7fe6f30100e8f1ff7fb8
:10d2480078f40100ecf1ff7faef40100f0f1ff7f0c
:10d258007cf70100f4f1ff7facf70100f8f1ff7fe4
:10d26800bef70100fcf1ff7fd0f7010000f2ff7f5d
:10d278000ef80100010000005af80100fcf1ff7fe0
:10d288007ef8010000f2ff7fa2f8010004f2ff7fa0
:10d29800ecf80100ecf5ff7f64fa0100f0f5ff7f80
:10d2a80084fc0100f4f5ff7f0cfe0100f8f5ff7f18
:10d2b80030000200fcf5ff7f6002020000f6ff7fed
:10d2c800d402020001000000e00802000100000092
:10d2d800e808020001000000440902000100000003
:10d2e800ae09020001000000220a0200010000004d
:10d2f8006e0a0200d8f4ff7fac0a0200dcf4ff7f5c
:10d30800ea0c020001000000f60c0200d8f4ff7fce
:10d3180038110200dcf4ff7fd2110200e0f4ff7f35
:10d32800281202000100000064120200dcf4ff7ff2
:10d338001c130200e0f4ff7f40130200e4f4ff7fb7
:10d348007c130200e8f4ff7fd4130200ecf4ff7fa3
:10d35800c4150200f0f4ff7f1c160200f4f4ff7fee
:10d3680074160200f8f4ff7f26170200010000007f
:10d3780046170200010000007417020001000000b7
:10d388007c170200bcf5ff7fa4180200c0f5ff7fe0
:10d39800481a020001000000901a0200bcf5ff7f45
:10d3a800881b0200c0f5ff7f901e020001000000ec
:10d3b800c41e0200bcf5ff7f64200200c0f5ff7f99
:10d3c800cc200200010000006426020001000000d9
:10d3d8006c260200010000008c26020001000000fb
:10d3e800ac26020001000000cc260200010000006b
:10d3f800ec260200010000004427020001000000a2
:10d408009a27020001000000ec270200010000003a
:10d41800282802000100000048280200010000003e
:10d428000c29020001000000402902000100000050
:10d43800b029020001000000d0290200010000000c
:10d44800f029020001000000022a02000100000089
:10d458002c2a020001000000562a020001000000e8
:10d46800082b020020f6ff7f582b020024f6ff7fce
:10d47800d02d020001000000043402000100000069
:10d488005c420200010000007c4202000100000032
:10d498009c42020001000000bc42020001000000a2
:10d4a800dc420200010000003443020001000000d9
:10d4b8008a43020001000000dc4302000100000072
:10d4c800fc43020001000000c0440200010000000b
:10d4d800f44402000100000064450200010000005d
:10d4e8007645020001000000a0450200010000008e
:10d4f800ca45020001000000fe45020090edff7fd2
:10d508004c46020094edff7f7a46020098edff7fbb
:10d518008e4602009cedff7fbe460200a0edff7f15
:10d52800e4460200ae119780704902009cedff7f2f
:10d53800ac49020001000000c649020001000000d9
:10d54800d649020001000000e6490200010000007f
:10d558000e4a020080edff7f324a020001000000ff
:10d56800944e0200010000009c5b020028f4ff7f3b
:10d57800c05c02002cf4ff7f7c5e020030f4ff7f69
:10d5880038600200010000006c6002002cf4ff7f8c
:10d59800b061020030f4ff7ffc610200010000006e
:10d5a8009467020001000000e0890200ccf1ff7fcf
:10d5b800888a0200d0f1ff7f708c0200d4f1ff7fcf
:10d5c800b88e0200010000008094020001000000f3
:10d5d8008894020088ecff7fc894020001000000d4
:10d5e8000495020084ecff7f8097020088ecff7f9f
:10d5f800049802008cecff7f7498020008849780de
:10d60800bc980200010000000c9f0200010000000d
:10d61800149f020074f0ff7fdca2020001000000ea
:10d62800c0a9020001000000c8a9020010f1ff7f94
:10d6380084aa020014f1ff7fd4ab020018f1ff7f27
:10d6480014ad02001cf1ff7f5cae02000100000077
:10d658003cb402000100000044b4020010f4ff7f53
:10d66800c0b4020014f4ff7ff8b702000100000004
:10d6780058be02000100000060be020038f4ff7fbf
:10d6880080be02003cf4ff7f70c20200010000006f
:10d6980060c802000100000068c802000100000024
:10d6a80074c8020001000000ccc80200010000009c
:10d6b800ecc80200b0a9028084c90200b0b0a880fa
:10d6c800d4c9020001000000d8c90200010000000e
:10d6d800d4c9020001000000d0c90200b0b0aa807d
:10d6e80008ca0200ae71b280d8ca02000100000068
:10d6f800d4ca0200ab3f38802ccb020001000000e6
:10d7080038cb0200b0b0aa8074cb02000100000040
:10d718007ccb02000100000078cb02000100000071
:10d728007ccb020001000000a8cb02000100000031
:10d73800b8cb020001000000e4cb020001000000a9
:10d74800f8cb0200ab0eb28060cc0200b0af0a800a
:10d7580028cf02000100000024cf020001000000d1
:10d7680020cf0200010000001ccf0200ab3f048064
:10d77800d0e402000100000008e50200ecf3ff7f9e
:10d78800a4e802000100000058ee020001000000b9
:10d7980058010300010000007801030001000000a7
:10d7a8009801030001000000cc0103000100000003
:10d7b800f6010300d8f3ff7fbc020300dcf3ff7f10
:10d7c80080030300e0f3ff7f8c04030001000000e6
:10d7d800640a030001000000f81c030001000000b7
:10d7e800e41d030001000000201e030088f0ff7ff5
:10d7f8004c20030001000000002603000100000087
:10d808008c96030001000000ac96030001000000a4
:10d81800c696030001000000e69603000100000020
:10d828000697030001000000229703000100000092
:10d8380042970300010000005e970300010000000a
:10d848007e970300010000004098030001000000db
:10d858007498030080edff7fd0980300010000005a
:10d86800fa980300010000002499030074edff7f7b
:10d8780054990300010000007c9903000100000096
:10d88800ae99030068edff7f229a03006cedff7fdd
:10d89800669a030070edff7fb09a030074edff7f76
:10d8a800f49a0300010000005c9b030070edff7f09
:10d8b800529c030074edff7f4c9d030078edff7fc1
:10d8c800a49d03007cedff7fda9d030001000000aa
:10d8d800029e030001000000182d04000100000052
:10d8e800382d040001000000522d04000100000042
:10d8f800722d040001000000922d040001000000b8
:10d90800ae2d040001000000ce2d0400010000002f
:10d91800ea2d040001000000422e0400010000006e
:10d92800982e040001000000ea2e04000100000007
:10d93800262f040001000000622f040001000000ef
:10d94800822f0400010000004430040001000000a0
:10d958007830040054eeff7fd4300400010000004a
:10d968006431040001000000d4310400010000000b
:10d97800fa310400010000000c320400010000002c
:10d9880036320400010000006032040028eeff7ff8
:10d9980090320400010000006233040024eeff7f8f
:10d9a8008466040001000000a46604000100000071
:10d9b800be66040001000000de66040001000000ed
:10d9c800fe660400010000001a6704000100000060
:10d9d8003a670400010000005667040001000000d7
:10d9e800ae670400010000000468040001000000a4
:10d9f8005668040001000000766804000100000079
:10da080038690400010000006c6904005cebff7fca
:10da1800c869040001000000386a04000100000021
:10da28004a6a040001000000746a04000100000052
:10da38009e6a040040ebff7fce6a040044ebff7f40
:10da4800906b040048ebff7fc06b04004cebff7f3a
:10da5800e46b040050ebff7f286d04000100000018
:10da6800486d04004cebff7f6e6d04000100000060
:10da7800826d040001000000966d040040ebff7ffa
:10da8800aa6d040001000000e06d04000100000020
:10da9800fa6d040001000000166e04000100000089
:10daa800326e040058f0ff7f8c6e04005cf0ff7f3c
:10dab800bc6e040008849780806f040058f0ff7fd4
:10dac800f86f040001000000ac75040001000000bc
:10dad800b475040001000000f8750400010000009e
:10dae800a076040088ecff7f0478040001000000a1
:10daf8009c7d0400010000009085040001000000e6
:10db0800aa85040001000000c68504000100000089
:10db1800e2850400c4efff7f3c860400c8efff7f66
:10db28006c86040008849780f0860400c4efff7fa9
:10db380068870400010000001c8d0400010000003b
:10db4800248d0400010000008c8e040004f0ff7f87
:10db5800148f040001000000c894040001000000b4
:10db6800d094040001000000f894040001000000b3
:10db7800029504000100000010950400ab14978082
:10db88009c96040001000000509c04000100000065
:10db9800589c040001000000a49c0400010000003f
:10dba800f09c0400a4eeff7f149e04000100000016
:10dbb800e0a30400010000009cab04000100000089
:10dbc800b6ab040001000000d2ab04000100000065
:10dbd800eeab04004cefff7f48ac040050efff7f32
:10dbe80078ac040054efff7fd4ac040058efff7ffb
:10dbf8004cad04000100000000b304000100000067
:10dc080008b304000100000080b3040050efff7f58
:10dc1800e0b404000100000094ba04000100000010
:10dc28009cba0400a4ecff7f34bc0400010000008f
:10dc38002cc204000100000034c2040001000000ee
:10dc480078c204000100000010c3040014eeff7f36
:10dc58001cc4040001000000b4c904000100000055
:10dc6800bcc9040038eeff7ff0c904003ceeff7f1a
:10dc780028cb04000100000004d1040001000000ca
:10dc88000cd10400010000003cd10400e8eeff7f45
:10dc9800a0d204000100000054d8040001000000d4
:10dca8005cd80400010000007cd80400a8edff7fc8
:10dcb800d4d904000100000098df0400010000002e
:10dcc800a0df040001000000c0df04000100000024
:10dcd800e0df04000100000000e004000100000093
:10dce80020e004000100000078e0040001000000ca
:10dcf800cee004000100000020e104000100000063
:10dd08005ce10400010000007ce104000100000067
:10dd180040e204000100000074e204000100000079
:10dd2800e4e204000100000004e304000100000034
:10dd380024e304000100000036e3040001000000b1
:10dd480060e30400010000008ae3040000e9ff7fab
:10dd580050e4040004e9ff7f74e4040008e9ff7f4d
:10dd680092e4040001000000a4e4040001000000a3
:10dd7800b8e4040001000000c8e404000100000049
:10dd8800d6e40400ece8ff7ffce504000100000095
:10dd980010e604000100000024e604000100000071
:10dda80058e6040038ecff7face7040001000000ef
:10ddb80044ed0400010000004ced0400e0e6ff7fa4
:10ddc800e8ed04000100000014ee0400010000006a
:10ddd8003cee04000100000056ee0400cce6ff7f94
:10dde800acee0400ac0797804cef0400c8e6ff7f58
:10ddf8008eef0400cce6ff7fd8ef0400d0e6ff7f6b
:10de08008ef00400010000009ef0040001000000f4
:10de1800aef00400c4e6ff7f68f1040001000000d2
:10de2800a0f10400c0e6ff7fb6f104000100000085
:10de3800e8f10400bce6ff7f1cf20400c0e6ff7fa7
:10de4800c4f3040001000000f0f304000100000026
:10de5800f8f304000100000028f4040024edff7f1b
:10de68005cf504000100000010fb04000100000044
:10de780018fb04000100000058fb040054ebff7f6e
:10de880080fc0400010000001802050001000000e9
:10de9800200205000100000054020500a0ebff7fee
:10dea80050030500010000000409050001000000fe
:10deb8000c090500010000004409050018eaff7f6d
:10dec8002c0a050001000000e00f05000100000019
:10ded800e80f0500c8e8ff7f1011050001000000e9
:10dee800c016050001000000c8160500010000006a
:10def800fc160500d8ebff7fd017050001000000d5
:10df0800841d050001000000482405007ceaff7f0d
:10df18008024050001000000302a050001000000ef
:10df2800b835050001000000d835050001000000e3
:10df3800f835050001000000183605000100000052
:10df48003836050001000000903605000100000089
:10df5800e636050001000000383705000100000022
:10df680058370500010000001c38050001000000ba
:10df78005038050001000000c0380500010000000d
:10df8800d238050001000000fc380500010000003f
:10df98002639050001000000a8390500010000002d
:10dfa800c239050001000000dc390500010000004d
:10dfb800f6390500010000001c3a050001000000c8
:10dfc8004e3a0500010000007c3a050001000000ff
:10dfd800dc3a0500010000000c3b050001000000d0
:10dfe800503b0500010000008c3b050001000000cb
:10dff800b43b0500010000002a3c050001000000b8
:10e00800903c050001000000163d050001000000dd
:10e018000a3e050001000000303f05000100000035
:10e02800d04e050001000000f04e05000100000080
:10e03800104f050001000000304f050001000000ee
:10e04800504f050001000000704f0500010000005e
:10e05800c84f0500010000001e5005000100000027
:10e0680070500500010000009050050001000000fc
:10e07800545105000100000088510500010000000e
:10e08800a451050001000000145205000100000021
:10e098002652050001000000505205000100000052
:10e0a8007a520500010000009c52050001000000a2
:10e0b800d052050001000000e452050001000000f4
:10e0c800f8520500010000000c5305000100000093
:10e0d80032530500010000009457050001000000bc
:10e0e800d860050001000000206105000100000063
:10e0f8007061050001000000a86105000100000032
:10e10800c461050001000000006205000100000074
:10e1180022620500010000004462050001000000c1
:10e128008062050001000000cc62050001000000cb
:10e13800ec620500010000002c63050001000000ee
:10e148008863050001000000e86305000100000085
:10e15800446405000100000050640500010000004f
:10e1680060640500010000007464050001000000ff
:10e17800c464050001000000f86c050001000000ff
:10e18800886d05005ce1ff7ff86e050060e1ff7fa8
:10e19800826f050064e1ff7f027005000100000046
:10e1a800c0700500010000004c7c05000100000063
:10e1b8007c7c050000840480907c05000100000040
:10e1c8008c7c0500b0ad0480547f0500b0a80380a6
:10e1d800747f0500dce9ff7f787f0500e0e9ff7fb9
:10e1e800847f050001000000847f05000100000015
:10e1f800c092050001000000a0a805000100000071
:10e20800d2a8050001000000e4a8050001000000f4
:10e21800f4a805000100000004a9050001000000a1
:10e2280014a905000100000024a905000100000050
:10e238003ea905000100000056a9050001000000e4
:10e2480082a90500010000009aa90500010000004c
:10e25800b6a9050001000000d2a9050001000000d0
:10e2680000aa05000100000004b305000100000039
:10e2780050b3050008e4ff7fc4b3050001000000a7
:10e2880064b40500010000006cb405000100000042
:10e298007ab405000100000090b4050001000000f8
:10e2a800a0b4050044e4ff7fbcb4050048e4ff7f48
:10e2b800d8b405004ce4ff7ff4b4050050e4ff7fb8
:10e2c80010b5050054e4ff7f2cb5050058e4ff7f26
:10e2d80060b505005ce4ff7f8cb505000100000017
:10e2e80098b5050001000000a6b50500dce2ff7f37
:10e2f800f4b5050001000000aeb6050001000000fd
:10e308007ccd050001000000a4cd0500010000003f
:10e31800d6cd05000100000008ce05000100000070
:10e32800c4e305000100000008ec05003ce5ff7fa0
:08e3380028f8050001000000b7
:020000040000fa
:10e340005ca00020040000000100000000000000ac
:10e35000103b02201c000000000000005cd40120e3
:10e360000400000001000000006cdc02a43b02205d
:10e3700004000000000000009c3b0220050000009b
:10e3800000000000a83b0220040000000000000084
:10e39000ac3b022004000000000000000000002050
:10e3a00024020000000000002402002010000000f1
:10e3b00000000000b83a0220300000000100000018
:10e3c0000200000004001040000003000200700082
:10e3d000b9fc00000000000005000000140020004f
:10e3e00000010000353600000000d700001bb70018
:10e3f000483b02201800000000000000b03b022053
:10e400000400000001000000aaaaaaaa7c3b022086
:10e410000800000000000000b43b022004000000df
:10e4200001000000389c000008040020549c0000fb
:10e430000000000028370220040100000000000056
:10e44000d83902203c00000000000000e435022022
:10e450004401000000000000603b022010000000aa
:10e46000010000003031323334353637383941421b
:10e470004344454688d801201104000000000000f4
:10e4800034020020a80000000000000040cf01205e
:10e490001b05000000000000dc0200200800000056
:10e4a000000000004c3a022035000000000000008f
:10e4b000e40200201001000000000000843b022064
:10e4c000080000000000000068f901203002000090
:10e4d0000100000070e504000000000002000000e0
:10e4e000010000000000000000100000000000001b
:10e4f00074e5040080e50400000000000004000052
:10e500000000000090e5040080e504000000000029
:10e5100000020000000000009ce5040080e504000b
:10e5200000000000200000000000000074e504006e
:10e53000a8e50400000000008000000000000000ca
:10e5400090e50400a8e504000000000000010000c0
:10e55000000000009ce50400a8e5040000000000a5
:10e56000b4e504000001000001000000010000000b
:10e5700000000000200000000000000074e504001e
:10e58000b8e504000000000080000000000000006a
:10e5900090e50400b8e50400000000000001000060
:10e5a000000000009ce50400b8e504000000000045
:10e5b00063000000000000000000000000000000f8
:10e5c00000000000630000000000000000000000e8
:10e5d00000000000000000006300000000000000d8
:10e5e00000000000000000000000000054e60400ed
:10e5f0000001000001000000010000000000000018
:10e60000200000000000000074e50400a8e50400fc
:10e610000000000080000000000000009ce50400f5
:10e62000a8e5040000000000000400000000000055
:10e630009ce5040080e50400000000006300000089
:10e6400000000000000000000000000000000000ca
:10e650006300000000000000000000000000000057
:10e660000000000063000000000000000000000047
:10e6700000000000000000005ce604000001000053
:10e680000100000001000000000000000010000078
:10e690000000000074e5040080e5040000000000b4
:10e6a00000040000000000009ce5040080e5040078
:10e6b0000000000080000000000000009ce5040055
:10e6c000a8e5040000000000630000000000000056
:10e6d00000000000000000000000000063000000d7
:10e6e000000000000000000000000000000000002a
:10e6f00063000000000000000000000000000000b7
:10e700000000000060a00020800b0000000000005e
:10e71000c0c10120c006000000000000843a0220b1
:10e72000330000000000000080c80120c006000087
:10e73000000000008c3b02200800000000000000e8
:10e74000f40300200400000000000000703b0220e1
:10e750000c0000000000000098fb012030020000c7
:10e76000010000008cfe0400000000000200000018
:10e770000100000000000000001000000000000088
:10e7800090fe04009cfe0400000000000004000055
:10e7900000000000acfe04009cfe0400000000002d
:10e7a0000002000000000000b8fe04009cfe04000f
:10e7b00000000000200000000000000090fe0400a7
:10e7c000c4fe040000000000800000000000000003
:10e7d000acfe0400c4fe04000000000000010000c4
:10e7e00000000000b8fe0400c4fe040000000000a9
:10e7f000d0fe040000010000010000000100000044
:10e8000000000000200000000000000090fe040056
:10e81000d4fe0400000000008000000000000000a2
:10e82000acfe0400d4fe0400000000000001000063
:10e8300000000000b8fe0400d4fe04000000000048
:10e840006300000000000000000000000000000065
:10e850000000000063000000000000000000000055
:10e860000000000000000000630000000000000045
:10e8700000000000000000000000000070ff040025
:10e880000001000001000000010000000000000085
:10e89000200000000000000090fe0400c4fe040000
:10e8a000000000008000000000000000b8fe04002e
:10e8b000c4fe04000000000000040000000000008e
:10e8c000b8fe04009cfe040000000000630000008d
:10e8d0000000000000000000000000000000000038
:10e8e00063000000000000000000000000000000c5
:10e8f00000000000630000000000000000000000b5
:10e90000000000000000000078ff0400000100008b
:10e9100001000000010000000000000000100000e5
:10e920000000000090fe04009cfe040000000000b7
:10e930000004000000000000b8fe04009cfe04007b
:10e94000000000008000000000000000b8fe04008d
:10e95000c4fe04000000000063000000000000008e
:10e960000000000000000000000000006300000044
:10e970000000000000000000000000000000000097
:10e980006300000000000000000000000000000024
:10e9900000000000fcba0120c106000000000000d9
:10e9a000b83b02200400000000000000f803002033
:10e9b000040000000000000030390220a800000020
:10e9c00000000000a4e001206c0200000100000033
:10e9d00084ec0300000000000200000001000000c1
:10e9e00000000000001000000000000088ec0300a0
:10e9f00094ec030000000000000400000000000090
:10ea0000a4ec030094ec03000000000000020000ee
:10ea100000000000b0ec030094ec030000000000d4
:10ea2000200000000000000088ec0300bcec0300a4
:10ea3000000000008000000000000000a4ec0300c3
:10ea4000bcec03000000000000010000000000001a
:10ea5000b0ec0300bcec030000000000c8ec0300b5
:10ea600000010000010000000100000000000000a3
:10ea7000200000000000000088ec0300ccec030044
:10ea8000000000008000000000000000a4ec030073
:10ea9000ccec0300000000000001000000000000ba
:10eaa000b0ec0300ccec03000000000063000000a9
:10eab0000000000000000000000000000000000056
:10eac00063000000000000000000000000000000e3
:10ead00000000000630000000000000000000000d3
:10eae000000000000000000068ed030000010000cd
:10eaf00001000000010000000000000020000000f4
:10eb00000000000088ec0300bcec030000000000e3
:10eb10008000000000000000b0ec0300bcec03002b
:10eb2000000000000004000000000000b0ec030042
:10eb300094ec0300000000006300000000000000ef
:10eb40000000000000000000000000006300000062
:10eb500000000000000000000000000000000000b5
:10eb60006300000000000000000000000000000042
:10eb70000000000070ed0300000100000100000033
:10eb80000100000000000000001000000000000074
:10eb900088ec030094ec0300000000000004000077
:10eba00000000000b0ec030094ec03000000000043
:10ebb0008000000000000000b0ec0300bcec03008b
:10ebc00000000000630000000000000000000000e2
:10ebd00000000000000000006300000000000000d2
:10ebe00000000000000000000000000063000000c2
:10ebf0000000000000000000000000000000000015
:10ec000038c7002060c7002088c70020b0c7002098
:10ec1000d8c7002000c8002028c8002050c8002005
:10ec200078c80020a0c80020c8c80020f0c8002074
:10ec300018c9002040c9002068c9002078c0002001
:10ec40004809000000000000c8fd0120300200005b
:10ec500001000000d41004000000000002000000c9
:10ec60000100000000000000001000000000000093
:10ec7000d8100400e41004000000000000040000ac
:10ec800000000000f4100400e41004000000000084
:10ec9000000200000000000000110400e410040065
:10eca000000000002000000000000000d810040058
:10ecb0000c110400000000008000000000000000b3
:10ecc000f41004000c11040000000000000100001a
:10ecd00000000000001104000c11040000000000fe
:10ece00018110400000100000100000001000000f4
:10ecf000000000002000000000000000d810040008
:10ed00001c11040000000000800000000000000052
:10ed1000f41004001c1104000000000000010000b9
:10ed200000000000001104001c110400000000009d
:10ed30006300000000000000000000000000000070
:10ed40000000000063000000000000000000000060
:10ed50000000000000000000630000000000000050
:10ed6000000000000000000000000000b8110400d6
:10ed70000001000001000000010000000000000090
:10ed80002000000000000000d81004000c11040056
:10ed900000000000800000000000000000110400de
:10eda0000c1104000000000000040000000000003e
:10edb00000110400e41004000000000063000000e3
:10edc0000000000000000000000000000000000043
:10edd00063000000000000000000000000000000d0
:10ede00000000000630000000000000000000000c0
:10edf0000000000000000000c0110400000100003d
:10ee000001000000010000000000000000100000f0
:10ee100000000000d8100400e4100400000000000e
:10ee2000000400000000000000110400e4100400d1
:10ee3000000000008000000000000000001104003d
:10ee40000c1104000000000063000000000000003e
:10ee5000000000000000000000000000630000004f
:10ee600000000000000000000000000000000000a2
:10ee7000630000000000000000000000000000002f
:10ee80000000000024b7002054090000000000002a
:10ee9000bc3b02200400000000000000143a0220e5
:10eea000380000000000000018ec01203c020000c7
:10eeb000010000007080040000000000020000005b
:10eec0000100000000000000001000000000000031
:10eed0007480040080800400000000000004000032
:10eee000000000009080040080800400000000000a
:10eef00000020000000000009c80040080800400ec
:10ef000000000000200000000000000074800400e9
:10ef1000a880040000000000800000000000000045
:10ef200090800400a88004000000000000010000a0
:10ef3000000000009c800400a88004000000000085
:10ef4000b480040000010000010000000100000086
:10ef50000000000020000000000000007480040099
:10ef6000b8800400000000008000000000000000e5
:10ef700090800400b8800400000000000001000040
:10ef8000000000009c800400b88004000000000025
:10ef9000630000000000000000000000000000000e
:10efa00000000000630000000000000000000000fe
:10efb00000000000000000006300000000000000ee
:10efc0000000000000000000000000005481040068
:10efd000000100000100000001000000000000002e
:10efe000200000000000000074800400a8800400dd
:10eff0000000000080000000000000009c80040071
:10f00000a8800400000000000004000000000000d0
:10f010009c80040080800400000000006300000069
:10f0200000000000000000000000000000000000e0
:10f03000630000000000000000000000000000006d
:10f04000000000006300000000000000000000005d
:10f0500000000000000000005c81040000010000ce
:10f06000010000000100000000000000001000008e
:10f070000000000074800400808004000000000094
:10f0800000040000000000009c8004008080040058
:10f090000000000080000000000000009c800400d0
:10f0a000a8800400000000006300000000000000d1
:10f0b00000000000000000000000000063000000ed
:10f0c0000000000000000000000000000000000040
:10f0d00063000000000000000000000000000000cd
:10f0e000000000001f1c1f1e1f1e1f1f1e1f1e1fb3
:10f0f000482701204007000000000000f8ff012021
:10f100003002000001000000380f05000000000080
:10f1100002000000010000000000000000100000dc
:10f12000000000003c0f0500480f05000000000033
:10f130000004000000000000580f0500480f050003
:10f14000000000000002000000000000640f050045
:10f15000480f050000000000200000000000000033
:10f160003c0f0500700f050000000000800000004b
:10f1700000000000580f0500700f0500000000009f
:10f180000001000000000000640f0500700f050082
:10f19000000000007c0f05000001000001000000dd
:10f1a000010000000000000020000000000000003e
:10f1b0003c0f0500800f05000000000080000000eb
:10f1c00000000000580f0500800f0500000000003f
:10f1d0000001000000000000640f0500800f050022
:10f1e00000000000630000000000000000000000bc
:10f1f00000000000000000006300000000000000ac
:10f20000000000000000000000000000630000009b
:10f2100000000000000000000000000000000000ee
:10f220001c100500000100000100000001000000aa
:10f230000000000020000000000000003c0f05005e
:10f24000700f0500000000008000000000000000ba
:10f25000640f0500700f05000000000000040000ae
:10f2600000000000640f0500480f050000000000ca
:10f27000630000000000000000000000000000002b
:10f28000000000006300000000000000000000001b
:10f29000000000000000000063000000000000000b
:10f2a0000000000000000000000000002410050025
:10f2b000000100000100000001000000000000004b
:10f2c00000100000000000003c0f0500480f050082
:10f2d000000000000004000000000000640f0500b2
:10f2e000480f050000000000800000000000000042
:10f2f000640f0500700f05000000000063000000af
:10f3000000000000000000000000000000000000fd
:10f31000630000000000000000000000000000008a
:10f32000000000006300000000000000000000007a
:10f330000000000000000000b01801204c07000091
:10f34000000000002802022030020000010000003e
:10f350000cb30400000000000200000001000000e7
:10f3600000000000001000000000000010b30400c6
:10f370001cb30400000000000004000000000000b6
:10f380002cb304001cb304000000000000020000c5
:10f390000000000038b304001cb3040000000000ab
:10f3a000200000000000000010b3040044b304007b
:10f3b0000000000080000000000000002cb30400ea
:10f3c00044b3040000000000000100000000000041
:10f3d00038b3040044b304000000000050b304003c
:10f3e000000100000100000001000000000000001a
:10f3f000200000000000000010b3040054b304001b
:10f400000000000080000000000000002cb3040099
:10f4100054b30400000000000001000000000000e0
:10f4200038b3040054b3040000000000630000007f
:10f4300000000000000000000000000000000000cc
:10f440006300000000000000000000000000000059
:10f450000000000063000000000000000000000049
:10f460000000000000000000f0b3040000010000f4
:10f47000010000000100000000000000200000006a
:10f480000000000010b3040044b3040000000000ba
:10f49000800000000000000038b3040044b3040002
:10f4a00000000000000400000000000038b3040069
:10f4b0001cb3040000000000630000000000000016
:10f4c00000000000000000000000000063000000d9
:10f4d000000000000000000000000000000000002c
:10f4e00063000000000000000000000000000000b9
:10f4f00000000000f8b3040000010000010000005b
:10f5000001000000000000000010000000000000ea
:10f5100010b304001cb3040000000000000400004d
:10f520000000000038b304001cb304000000000019
:10f53000800000000000000038b3040044b3040061
:10f540000000000063000000000000000000000058
:10f550000000000000000000630000000000000048
:10f560000000000000000000000000006300000038
:10f57000000000000000000000000000000000008b
:10f58000fc4301201807000000000000580402207e
:10f59000300200000100000034a20400000000005e
:10f5a0000200000001000000000000000010000048
:10f5b0000000000038a2040044a204000000000083
:10f5c000000400000000000054a2040044a2040053
:10f5d00000000000000200000000000060a2040023
:10f5e00044a2040000000000200000000000000011
:10f5f00038a204006ca2040000000000800000009b
:10f600000000000054a204006ca2040000000000ee
:10f61000000100000000000060a204006ca20400d1
:10f620000000000078a204000001000001000000ba
:10f6300001000000000000002000000000000000a9
:10f6400038a204007ca2040000000000800000003a
:10f650000000000054a204007ca20400000000008e
:10f66000000100000000000060a204007ca2040071
:10f670000000000063000000000000000000000027
:10f680000000000000000000630000000000000017
:10f690000000000000000000000000006300000007
:10f6a000000000000000000000000000000000005a
:10f6b00018a3040000010000010000000100000088
:10f6c00000000000200000000000000038a204003c
:10f6d0006ca2040000000000800000000000000098
:10f6e00060a204006ca204000000000000040000fe
:10f6f0000000000060a2040044a20400000000001a
:10f700006300000000000000000000000000000096
:10f710000000000063000000000000000000000086
:10f720000000000000000000630000000000000076
:10f7300000000000000000000000000020a3040002
:10f7400000010000010000000100000000000000b6
:10f75000001000000000000038a2040044a20400d1
:10f7600000000000000400000000000060a204008f
:10f7700044a204000000000080000000000000001f
:10f7800060a204006ca204000000000063000000fe
:10f790000000000000000000000000000000000069
:10f7a00063000000000000000000000000000000f6
:10f7b00000000000630000000000000000000000e6
:10f7c00000000000000000001cb40120e006000062
:10f7d00000000000943b0220080000000000000030
:10f7e00021b700200300000001000000010101001a
:10f7f0002c3b022019000000000000002c380220e1
:10f800000101000000000000ccf2012034020000e1
:10f8100001000000a0aa0400000000000200000097
:10f8200001000000000000000010000000000000c7
:10f83000a4aa0400b0aa0400000000000004000014
:10f8400000000000c0aa0400b0aa040000000000ec
:10f850000002000000000000ccaa0400b0aa0400ce
:10f86000000000002000000000000000a4aa040026
:10f87000d8aa040000000000800000000000000082
:10f88000c0aa0400d8aa0400000000000001000083
:10f8900000000000ccaa0400d8aa04000000000068
:10f8a000e4aa0400000100000100000001000000c3
:10f8b000000000002000000000000000a4aa0400d6
:10f8c000e8aa040000000000800000000000000022
:10f8d000c0aa0400e8aa0400000000000001000023
:10f8e00000000000ccaa0400e8aa04000000000008
:10f8f00063000000000000000000000000000000a5
:10f900000000000063000000000000000000000094
:10f910000000000000000000630000000000000084
:10f9200000000000000000000000000084ab0400a4
:10f9300000010000010000000100000000000000c4
:10f940002000000000000000a4aa0400d8aa0400bf
:10f95000000000008000000000000000ccaa0400ad
:10f96000d8aa04000000000000040000000000000d
:10f97000ccaa0400b0aa040000000000630000004c
:10f980000000000000000000000000000000000077
:10f990006300000000000000000000000000000004
:10f9a00000000000630000000000000000000000f4
:10f9b00000000000000000008cab0400000100000b
:10f9c0000100000001000000000000000010000025
:10f9d00000000000a4aa0400b0aa04000000000077
:10f9e0000004000000000000ccaa0400b0aa04003b
:10f9f000000000008000000000000000ccaa04000d
:10fa0000d8aa04000000000063000000000000000d
:10fa10000000000000000000000000006300000083
:10fa200000000000000000000000000000000000d6
:10fa30006300000000000000000000000000000063
:10fa400000000000c30000007c7c012000070000d3
:10fa50000000000010e3012041020000010000004e
:10fa6000b4330400000000000200000001000000a8
:10fa7000000000000010000000000000b833040087
:10fa8000c433040000000000000400000000000077
:10fa9000d4330400c433040000000000000200005e
:10faa00000000000e0330400c43304000000000044
:10fab0002000000000000000b8330400ec33040014
:10fac000000000008000000000000000d4330400ab
:10fad000ec33040000000000000100000000000002
:10fae000e0330400ec33040000000000f8330400ad
:10faf0000001000001000000010000000000000003
:10fb00002000000000000000b8330400fc330400b3
:10fb1000000000008000000000000000d43304005a
:10fb2000fc330400000000000001000000000000a1
:10fb3000e0330400fc330400000000006300000018
:10fb400000000000000000000000000000000000b5
:10fb50006300000000000000000000000000000042
:10fb60000000000063000000000000000000000032
:10fb700000000000000000009834040000010000b4
:10fb80000100000001000000000000002000000053
:10fb900000000000b8330400ec3304000000000053
:10fba0008000000000000000e0330400ec3304009b
:10fbb000000000000004000000000000e03304002a
:10fbc000c4330400000000006300000000000000d7
:10fbd00000000000000000000000000063000000c2
:10fbe0000000000000000000000000000000000015
:10fbf00063000000000000000000000000000000a2
:10fc000000000000a034040000010000010000001a
:10fc100001000000000000000010000000000000d3
:10fc2000b8330400c43304000000000000040000e6
:10fc300000000000e0330400c433040000000000b2
:10fc40008000000000000000e0330400ec330400fa
:10fc50000000000063000000000000000000000041
:10fc60000000000000000000630000000000000031
:10fc70000000000000000000000000006300000021
:10fc80000000000000000000000000000000000074
:10fc900001000000090000001e0000002c0100000f
:10fca0000100000034fb00207d0700000000000080
:10fcb000880602203002000001000000583c0400c9
:10fcc0000000000002000000010000000000000031
:10fcd00000100000000000005c3c0400683c0400d0
:10fce000000000000004000000000000783c040058
:10fcf000683c04000000000000020000000000005a
:10fd0000843c0400683c0400000000002000000067
:10fd1000000000005c3c0400903c04000000000077
:10fd20008000000000000000783c0400903c0400cb
:10fd3000000000000001000000000000843c0400fe
:10fd4000903c0400000000009c3c04000001000006
:10fd50000100000001000000000000002000000081
:10fd6000000000005c3c0400a03c04000000000017
:10fd70008000000000000000783c0400a03c04006b
:10fd8000000000000001000000000000843c0400ae
:10fd9000a03c040000000000630000000000000020
:10fda00000000000000000000000000063000000f0
:10fdb0000000000000000000000000000000000043
:10fdc00063000000000000000000000000000000d0
:10fdd000000000003c3d04000001000001000000a4
:10fde00001000000000000002000000000000000f2
:10fdf0005c3c0400903c0400000000008000000017
:10fe000000000000843c0400903c0400000000005e
:10fe10000004000000000000843c0400683c040072
:10fe2000000000006300000000000000000000006f
:10fe3000000000000000000063000000000000005f
:10fe4000000000000000000000000000630000004f
:10fe500000000000000000000000000000000000a2
:10fe6000443d04000001000001000000010000000a
:10fe70000000000000100000000000005c3c0400d6
:10fe8000683c0400000000000004000000000000c6
:10fe9000843c0400683c0400000000008000000076
:10fea00000000000843c0400903c040000000000be
:10feb00063000000000000000000000000000000df
:10fec00000000000630000000000000000000000cf
:10fed00000000000000000006300000000000000bf
:10fee000000000000000000000000000b40201203b
:10fef0005807000000000000b8080220300200008f
:10ff000001000000d0ed040000000000020000002d
:10ff100001000000000000000010000000000000d0
:10ff2000d4ed0400e0ed0400000000000004000037
:10ff300000000000f0ed0400e0ed0400000000000f
:10ff40000002000000000000fced0400e0ed0400f1
:10ff5000000000002000000000000000d4ed0400bc
:10ff600008ee040000000000800000000000000017
:10ff7000f0ed040008ee04000000000000010000a5
:10ff800000000000fced040008ee0400000000008a
:10ff900014ee040000010000010000000100000058
:10ffa000000000002000000000000000d4ed04006c
:10ffb00018ee0400000000008000000000000000b7
:10ffc000f0ed040018ee0400000000000001000045
:10ffd00000000000fced040018ee0400000000002a
:10ffe00063000000000000000000000000000000ae
:10fff000000000006300000000000000000000009e
:020000040001f9
:10000000000000000000000063000000000000008d
:10001000000000000000000000000000b4ee04003a
:1000200000010000010000000100000000000000cd
:100030002000000000000000d4ed040008ee0400e1
:10004000000000008000000000000000fced040043
:1000500008ee0400000000000004000000000000a2
:10006000fced0400e0ed040000000000630000006f
:100070000000000000000000000000000000000080
:10008000630000000000000000000000000000000d
:1000900000000000630000000000000000000000fd
:1000a0000000000000000000bcee040000010000a1
:1000b000010000000100000000000000001000002e
:1000c00000000000d4ed0400e0ed0400000000009a
:1000d0000004000000000000fced0400e0ed04005e
:1000e000000000008000000000000000fced0400a3
:1000f00008ee0400000000006300000000000000a3
:10010000000000000000000000000000630000008c
:1001100000000000000000000000000000000000df
:10012000630000000000000000000000000000006c
:10013000000000007c830120f806000000000000a1
:10014000e80a02203002000001000000fcfe03006b
:10015000000000000200000001000000000000009c
:10016000001000000000000000ff03000cff03006f
:100170000000000000040000000000001cff03005d
:100180000cff03000000000000020000000000005f
:1001900028ff03000cff0300000000002000000007
:1001a0000000000000ff030034ff03000000000017
:1001b00080000000000000001cff030034ff03006b
:1001c00000000000000100000000000028ff030004
:1001d00034ff03000000000040ff030000010000a6
:1001e00001000000010000000000000020000000ed
:1001f0000000000000ff030044ff030000000000b7
:1002000080000000000000001cff030044ff03000a
:1002100000000000000100000000000028ff0300b3
:1002200044ff030000000000630000000000000025
:10023000000000000000000000000000630000005b
:1002400000000000000000000000000000000000ae
:10025000630000000000000000000000000000003b
:1002600000000000e0ff03000001000001000000aa
:10027000010000000000000020000000000000005d
:1002800000ff030034ff03000000000080000000b6
:100290000000000028ff030034ff030000000000fe
:1002a000000400000000000028ff03000cff030012
:1002b00000000000630000000000000000000000db
:1002c00000000000000000006300000000000000cb
:1002d00000000000000000000000000063000000bb
:1002e000000000000000000000000000000000000e
:1002f000e8ff030000010000010000000100000011
:1003000000000000001000000000000000ff0300db
:100310000cff0300000000000004000000000000cb
:1003200028ff03000cff0300000000008000000015
:100330000000000028ff030034ff0300000000005d
:10034000630000000000000000000000000000004a
:10035000000000006300000000000000000000003a
:10036000000000000000000063000000000000002a
:100370000000000000000000000000008cd20020ff
:100380008808000000000000180d02203002000064
:1003900001000000845e0400000000000200000074
:1003a000010000000000000000100000000000003c
:1003b000885e0400945e0400000000000004000059
:1003c00000000000a45e0400945e04000000000031
:1003d0000002000000000000b05e0400945e040013
:1003e000000000002000000000000000885e040003
:1003f000bc5e04000000000080000000000000005f
:10040000a45e0400bc5e04000000000000010000c7
:1004100000000000b05e0400bc5e040000000000ac
:10042000c85e04000001000001000000010000009f
:10043000000000002000000000000000885e0400b2
:10044000cc5e0400000000008000000000000000fe
:10045000a45e0400cc5e0400000000000001000067
:1004600000000000b05e0400cc5e0400000000004c
:100470006300000000000000000000000000000019
:100480000000000063000000000000000000000009
:1004900000000000000000006300000000000000f9
:1004a000000000000000000000000000685f040081
:1004b0000001000001000000010000000000000039
:1004c0002000000000000000885e0400bc5e040004
:1004d000000000008000000000000000b05e04008a
:1004e000bc5e0400000000000004000000000000ea
:1004f000b05e0400945e0400000000006300000091
:1005000000000000000000000000000000000000eb
:100510006300000000000000000000000000000078
:100520000000000063000000000000000000000068
:100530000000000000000000705f040000010000e7
:100540000100000001000000000000000010000099
:1005500000000000885e0400945e040000000000bb
:100560000004000000000000b05e0400945e04007f
:10057000000000008000000000000000b05e0400e9
:10058000bc5e0400000000006300000000000000ea
:1005900000000000000000000000000063000000f8
:1005a000000000000000000000000000000000004b
:1005b00063000000000000000000000000000000d8
:1005c0000000000090e30020100800000000000080
:1005d000480f0220300200000100000038e3030051
:1005e0000000000002000000010000000000000008
:1005f00000100000000000003ce3030048e303009b
:1006000000000000000400000000000058e30300a8
:1006100048e30300000000000002000000000000aa
:1006200064e3030048e30300000000002000000032
:10063000000000003ce3030070e303000000000042
:10064000800000000000000058e3030070e3030096
:1006500000000000000100000000000064e303004f
:1006600070e30300000000007ce3030000010000d1
:100670000100000001000000000000002000000058
:10068000000000003ce3030080e3030000000000e2
:10069000800000000000000058e3030080e3030036
:1006a00000000000000100000000000064e30300ff
:1006b00080e3030000000000630000000000000071
:1006c00000000000000000000000000063000000c7
:1006d000000000000000000000000000000000001a
:1006e00063000000000000000000000000000000a7
:1006f000000000001ce403000001000001000000f5
:1007000001000000000000002000000000000000c8
:100710003ce3030070e303000000000080000000e1
:100720000000000064e3030070e303000000000029
:10073000000400000000000064e3030048e303003d
:100740000000000063000000000000000000000046
:100750000000000000000000630000000000000036
:100760000000000000000000000000006300000026
:100770000000000000000000000000000000000079
:1007800024e403000001000001000000010000005b
:100790000000000000100000000000003ce3030027
:1007a00048e3030000000000000400000000000017
:1007b00064e3030048e30300000000008000000041
:1007c0000000000064e3030070e303000000000089
:1007d00063000000000000000000000000000000b6
:1007e00000000000630000000000000000000000a6
:1007f0000000000000000000630000000000000096
:10080000000000000000000000000000c0c900203f
:10081000ca08000000000000781102203002000029
:1008200001000000f8770400000000000200000052
:1008300001000000000000000010000000000000a7
:10084000fc770400087804000000000000040000a9
:100850000000000018780400087804000000000080
:100860000002000000000000247804000878040062
:10087000000000002000000000000000fc770400e1
:10088000307804000000000080000000000000003c
:100890001878040030780400000000000001000017
:1008a00000000000247804003078040000000000fc
:1008b0003c7804000001000001000000010000007d
:1008c000000000002000000000000000fc77040091
:1008d00040780400000000008000000000000000dc
:1008e00018780400407804000000000000010000b7
:1008f000000000002478040040780400000000009c
:100900006300000000000000000000000000000084
:100910000000000063000000000000000000000074
:100920000000000000000000630000000000000064
:10093000000000000000000000000000dc7804005f
:1009400000010000010000000100000000000000a4
:100950002000000000000000fc7704003078040054
:100960000000000080000000000000002478040067
:1009700030780400000000000004000000000000c7
:1009800024780400087804000000000063000000e0
:100990000000000000000000000000000000000057
:1009a00063000000000000000000000000000000e4
:1009b00000000000630000000000000000000000d4
:1009c0000000000000000000e478040000010000c6
:1009d0000100000001000000000000000010000005
:1009e00000000000fc77040008780400000000000c
:1009f00000040000000000002478040008780400cf
:100a000000000000800000000000000024780400c6
:100a100030780400000000006300000000000000c7
:100a20000000000000000000000000006300000063
:100a300000000000000000000000000000000000b6
:100a40006300000000000000000000000000000043
:100a50000000000038ad0120e406000000000000a6
:100a600034f7012031020000010000000c2b0400cb
:100a70000000000002000000010000000000000073
:100a80000010000000000000102b04001c2b0400cc
:100a90000000000000040000000000002c2b0400f7
:100aa0001c2b0400000000000002000000000000f9
:100ab000382b04001c2b0400000000002000000064
:100ac00000000000102b0400442b04000000000074
:100ad00080000000000000002c2b0400442b0400c8
:100ae000000000000001000000000000382b04009e
:100af000442b040000000000502b04000001000003
:100b000001000000010000000000000020000000c3
:100b100000000000102b0400542b04000000000013
:100b200080000000000000002c2b0400542b040067
:100b3000000000000001000000000000382b04004d
:100b4000542b0400000000006300000000000000bf
:100b50000000000000000000000000006300000032
:100b60000000000000000000000000000000000085
:100b70006300000000000000000000000000000012
:100b800000000000f02b0400000100000100000044
:100b90000100000000000000200000000000000034
:100ba000102b0400442b0400000000008000000013
:100bb00000000000382b0400442b0400000000005b
:100bc0000004000000000000382b04001c2b04006f
:100bd00000000000630000000000000000000000b2
:100be00000000000000000006300000000000000a2
:100bf0000000000000000000000000006300000092
:100c000000000000000000000000000000000000e4
:100c1000f82b0400000100000100000001000000aa
:100c2000000000000010000000000000102b040075
:100c30001c2b040000000000000400000000000065
:100c4000382b04001c2b0400000000008000000072
:100c500000000000382b0400442b040000000000ba
:100c60006300000000000000000000000000000021
:100c70000000000063000000000000000000000011
:100c80000000000000000000630000000000000001
:100c90000000000000000000000000000100000053
:100ca00014db00207c08000000000000a8130220d4
:100cb000300200000100000030f6040000000000d7
:100cc0000200000001000000000000000010000011
:100cd0000000000034f6040040f6040000000000ac
:100ce000000400000000000050f6040040f604007c
:100cf0000000000000020000000000005cf604009c
:100d000040f6040000000000200000000000000089
:100d100034f6040068f604000000000080000000c3
:100d20000000000050f6040068f604000000000017
:100d300000010000000000005cf6040068f60400fa
:100d40000000000074f60400000100000100000033
:100d50000100000000000000200000000000000072
:100d600034f6040078f60400000000008000000063
:100d70000000000050f6040078f6040000000000b7
:100d800000010000000000005cf6040078f604009a
:100d900000000000630000000000000000000000f0
:100da00000000000000000006300000000000000e0
:100db00000000000000000000000000063000000d0
:100dc0000000000000000000000000000000000023
:100dd00014f7040000010000010000000100000001
:100de00000000000200000000000000034f60400b5
:100df00068f6040000000000800000000000000011
:100e00005cf6040068f60400000000000004000026
:100e1000000000005cf6040040f604000000000042
:100e2000630000000000000000000000000000005f
:100e3000000000006300000000000000000000004f
:100e4000000000000000000063000000000000003f
:100e50000000000000000000000000001cf704007b
:100e6000000100000100000001000000000000007f
:100e7000001000000000000034f6040040f60400fa
:100e80000000000000040000000000005cf6040008
:100e900040f6040000000000800000000000000098
:100ea0005cf6040068f60400000000006300000027
:100eb0000000000000000000000000000000000032
:100ec00063000000000000000000000000000000bf
:100ed00000000000630000000000000000000000af
:100ee00000000000000000007475012008070000e9
:100ef00000000000d81502203002000001000000b0
:100f0000e48804000000000002000000010000006e
:100f1000000000000010000000000000e88804004d
:100f2000f48804000000000000040000000000003d
:100f300004890400f488040000000000000200009e
:100f40000000000010890400f48804000000000084
:100f50002000000000000000e88804001c89040054
:100f60000000000080000000000000000489040070
:100f70001c890400000000000001000000000000c7
:100f8000108904001c890400000000002889040066
:100f9000000100000100000001000000000000004e
:100fa0002000000000000000e88804002c890400f4
:100fb0000000000080000000000000000489040020
:100fc0002c89040000000000000100000000000067
:100fd000108904002c890400000000006300000058
:100fe0000000000000000000000000000000000001
:100ff000630000000000000000000000000000008e
:10100000000000006300000000000000000000007d
:101010000000000000000000c8890400000100007a
:10102000010000000100000000000000200000009e
:1010300000000000e88804001c8904000000000093
:101040008000000000000000108904001c890400da
:1010500000000000000400000000000010890400ef
:10106000f48804000000000063000000000000009d
:10107000000000000000000000000000630000000d
:101080000000000000000000000000000000000060
:1010900063000000000000000000000000000000ed
:1010a00000000000d08904000001000001000000e1
:1010b000010000000000000000100000000000001f
:1010c000e8880400f4880400000000000004000028
:1010d0000000000010890400f488040000000000f3
:1010e0008000000000000000108904001c8904003a
:1010f000000000006300000000000000000000008d
:10110000000000000000000063000000000000007c
:10111000000000000000000000000000630000006c
:1011200000000000000000000000000000000000bf
:10113000d83c01202407000000000000081802200d
:101140003002000001000000e4c6030000000000bf
:10115000020000000100000000000000001000007c
:1011600000000000e8c60300f4c603000000000011
:10117000000400000000000004c70300f4c60300e0
:1011800000000000000200000000000010c7030083
:10119000f4c6030000000000200000000000000072
:1011a000e8c603001cc70300000000008000000028
:1011b0000000000004c703001cc70300000000007b
:1011c000000100000000000010c703001cc703005e
:1011d0000000000028c7030000010000010000001b
:1011e00001000000000000002000000000000000de
:1011f000e8c603002cc703000000000080000000c8
:101200000000000004c703002cc70300000000001a
:10121000000100000000000010c703002cc70300fd
:10122000000000006300000000000000000000005b
:10123000000000000000000063000000000000004b
:10124000000000000000000000000000630000003b
:10125000000000000000000000000000000000008e
:10126000c8c70300000100000100000001000000e9
:10127000000000002000000000000000e8c603009d
:101280001cc70300000000008000000000000000f8
:1012900010c703001cc7030000000000000400008a
:1012a0000000000010c70300f4c6030000000000a7
:1012b00063000000000000000000000000000000cb
:1012c00000000000630000000000000000000000bb
:1012d00000000000000000006300000000000000ab
:1012e000000000000000000000000000d0c7030064
:1012f00000010000010000000100000000000000eb
:101300000010000000000000e8c60300f4c603005f
:1013100000000000000400000000000010c70300ef
:10132000f4c6030000000000800000000000000080
:1013300010c703001cc7030000000000630000008a
:10134000000000000000000000000000000000009d
:10135000630000000000000000000000000000002a
:10136000000000006300000000000000000000001a
:101370000000000000000000e0ab0020410b000076
:1013800000000000381a02203002000001000000b6
:1013900044cc040000000000020000000100000036
:1013a00000000000001000000000000048cc040015
:1013b00054cc040000000000000400000000000005
:1013c00064cc040054cc04000000000000020000c3
:1013d0000000000070cc040054cc040000000000a9
:1013e000200000000000000048cc04007ccc040079
:1013f00000000000800000000000000064cc040039
:101400007ccc04000000000000010000000000008f
:1014100070cc04007ccc04000000000088cc0400e8
:1014200000010000010000000100000000000000b9
:10143000200000000000000048cc04008ccc040018
:1014400000000000800000000000000064cc0400e8
:101450008ccc04000000000000010000000000002f
:1014600070cc04008ccc040000000000630000007d
:10147000000000000000000000000000000000006c
:1014800063000000000000000000000000000000f9
:1014900000000000630000000000000000000000e9
:1014a000000000000000000028cd04000001000042
:1014b000010000000100000000000000200000000a
:1014c0000000000048cc04007ccc040000000000b8
:1014d000800000000000000070cc04007ccc040000
:1014e00000000000000400000000000070cc0400b8
:1014f00054cc040000000000630000000000000065
:101500000000000000000000000000006300000078
:1015100000000000000000000000000000000000cb
:101520006300000000000000000000000000000058
:101530000000000030cd04000001000001000000a8
:10154000010000000000000000100000000000008a
:1015500048cc040054cc040000000000000400004b
:101560000000000070cc040054cc04000000000017
:10157000800000000000000070cc04007ccc04005f
:1015800000000000630000000000000000000000f8
:1015900000000000000000006300000000000000e8
:1015a00000000000000000000000000063000000d8
:1015b000000000000000000000000000000000002b
:1015c0005c670120090700000000000098e7012087
:1015d0003e020000010000005491040000000000e1
:1015e00002000000010000000000000000100000e8
:1015f0000000000058910400649104000000000005
:1016000000040000000000007491040064910400d4
:1016100000000000000200000000000080910400b3
:1016200064910400000000002000000000000000a1
:10163000589104008c91040000000000800000001c
:1016400000000000749104008c9104000000000070
:101650000001000000000000809104008c91040053
:10166000000000009891040000010000010000004b
:101670000100000000000000200000000000000049
:10168000589104009c9104000000000080000000bc
:1016900000000000749104009c9104000000000010
:1016a0000001000000000000809104009c910400f3
:1016b00000000000630000000000000000000000c7
:1016c00000000000000000006300000000000000b7
:1016d00000000000000000000000000063000000a7
:1016e00000000000000000000000000000000000fa
:1016f0003892040000010000010000000100000019
:1017000000000000200000000000000058910400cc
:101710008c91040000000000800000000000000028
:10172000809104008c91040000000000000400007f
:10173000000000008091040064910400000000009b
:101740006300000000000000000000000000000036
:101750000000000063000000000000000000000026
:101760000000000000000000630000000000000016
:101770000000000000000000000000004092040093
:101780000001000001000000010000000000000056
:101790000010000000000000589104006491040053
:1017a0000000000000040000000000008091040020
:1017b00064910400000000008000000000000000b0
:1017c000809104008c910400000000006300000080
:1017d0000000000000000000000000000000000009
:1017e0006300000000000000000000000000000096
:1017f0000000000063000000000000000000000086
:101800000000000000000000284e4f5754522900ed
:1018100028575452290000000c0a012051070000eb
:1018200000000000681c02203002000001000000df
:1018300074bb040000000000020000000100000072
:1018400000000000001000000000000078bb040051
:1018500084bb040000000000000400000000000041
:1018600094bb040084bb04000000000000020000e0
:1018700000000000a0bb040084bb040000000000c6
:10188000200000000000000078bb0400acbb040096
:1018900000000000800000000000000094bb040075
:1018a000acbb0400000000000001000000000000cc
:1018b000a0bb0400acbb040000000000b8bb0400e7
:1018c0000001000001000000010000000000000015
:1018d000200000000000000078bb0400bcbb040036
:1018e00000000000800000000000000094bb040025
:1018f000bcbb04000000000000010000000000006c
:10190000a0bb0400bcbb040000000000630000009a
:1019100000000000000000000000000000000000c7
:101920006300000000000000000000000000000054
:101930000000000063000000000000000000000044
:10194000000000000000000058bc0400000100007e
:101950000100000001000000000000002000000065
:101960000000000078bb0400acbb040000000000d5
:101970008000000000000000a0bb0400acbb04001d
:10198000000000000004000000000000a0bb0400f4
:1019900084bb0400000000006300000000000000a1
:1019a00000000000000000000000000063000000d4
:1019b0000000000000000000000000000000000027
:1019c00063000000000000000000000000000000b4
:1019d0000000000060bc04000001000001000000e5
:1019e00001000000000000000010000000000000e6
:1019f00078bb040084bb0400000000000004000069
:101a000000000000a0bb040084bb04000000000034
:101a10008000000000000000a0bb0400acbb04007c
:101a20000000000063000000000000000000000053
:101a30000000000000000000630000000000000043
:101a40000000000000000000000000006300000033
:101a50000000000000000000000000000000000086
:101a60003c5901201107000000000000981e0220d0
:101a7000300200000100000088170500000000008f
:101a80000200000001000000000000000010000043
:101a9000000000008c1705009817050000000000ea
:101aa0000004000000000000a817050098170500ba
:101ab000000000000002000000000000b417050054
