:020000040000fa
:10c00000f0ff0320a1bb06000f88060097da0600a8
:10c010000f88060091da06000f8806000000000075
:10c020000000000000000000000000009d34060039
:10c030000f88060000000000093706007737060069
:10c040000f8806000f8806000f8806000f8806007c
:10c050000f8806000f8806000f8806000f8806006c
:10c060000f8806000f8806000f880600b1be030087
:10c070000f8806000f8806000f8806000f8806004c
:10c080000f8806000f8806000f8806000f8806003c
:10c090000f8806000f8806000f8806000f8806002c
:10c0a0000f8806000f8806000f8806000f8806001c
:10c0b0000f8806000f8806000f8806000f8806000c
:10c0c0000f8806000f8806000f8806000f880600fc
:10c0d0000f8806000f8806000f8806000f880600ec
:10c0e0000f8806000f880600000000000000000016
:10c0f00000000000f97c06000f8806000f8806008b
:10c100000f8806000f8806000f8806000f880600bb
:10c110000f8806000f880600957b0100ad7b0100ab
:10c12000c57b01000f8806000f8806000f880600f7
:10c130000f8806000f8806000f8806000f8806008b
:10c140000f8806000f880600f57b01000d7c0100ba
:10c15000257c01000f8806000f8806000f88060066
:10c160000f8806000f8806000f8806000f8806005b
:10c170000f8806000f8806000f8806000f8806004b
:10c180000f8806000f8806000f8806000f8806003b
:10c190000f8806000f8806000f8806000f8806002b
:10c1a0000f8806000f8806000f8806000f8806001b
:10c1b0000f8806000f8806000f8806000f8806000b
:10c1c0000f8806000f8806000f8806000f880600fb
:10c1d0000f8806000f8806000f8806000f880600eb
:10c1e0000f8806000f8806000f8806000f880600db
:10c1f0000f8806000f8806000f8806000f880600cb
:10c200000f8806000f8806000f8806000f880600ba
:10c210000f8806000f8806000f880600bd850600ff
:10c220000f8806000f8806000f8806000f8806009a
:10c230000f8806000f8806000f8806000f8806008a
:10c240000f8806000f8806000f8806000f8806007a
:10c250000f8806000f8806000f8806000f8806006a
:04c260000f8806003d
:020000040000fa
:10c2640003970181b0b00884000000000d9701819c
:10c27400b0b00b840000000009970181b0b00b84ba
:10c284000000000003970181b0b0088400000000a2
:10c2940003970181b0b00884000000000197018178
:10c2a400b0b008840000000001970181b0b0088498
:10c2b4000000000001970181b0b008840000000074
:10c2c40001970181b0b00884000000000397018148
:10c2d400b0b008840000000003970181b0b0088466
:10c2e4000000000003970181b0b008840000000042
:10c2f40001970181b0b0088400000000019701811a
:10c30400b0b008840000000005970181b0b0088433
:10c314000000000001970181b0b008840000000013
:10c3240002970181b0b009840000000001970181e7
:10c33400b0b008840000000001970181b0b0088407
:10c344000000000003970181b0b0088400000000e1
:10c3540001970181b0b008840000000001970181b9
:10c36400b0b008840000000001970181b0b00884d7
:10c374000000000001970181b0b0088400000000b3
:10c3840003970181b0b00884000000000397018185
:10c39400b0b008840000000003970181b0b00884a5
:10c3a4000000000003970181b0b008840000000081
:10c3b40004970181b0b00984000000000597018151
:10c3c400b0b008840000000005970181b0b0088473
:10c3d4000000000001970181b0b008840000000053
:10c3e40001970181b0b00884000000000397018127
:10c3f400b0b008840000000003970181b0b0088445
:10c404000000000001970181b0b008840000000022
:10c4140001970181b0b008840000000005970181f4
:10c42400b0b008840000000003970181b0b0088414
:10c434000000000003970181b0b0088400000000f0
:10c4440003970181b0b008840000000003970181c4
:10c45400b0b008840000000001970181b0b00884e6
:10c464000000000001970181b0b0088400000000c2
:10c4740003970181b0b00884000000000197018196
:10c48400b0b008840000000001970181b0b00884b6
:10c494000000000003970181b0b008840000000090
:10c4a40001970181b0b00884000000000397018166
:10c4b400b0b008840000000003970181b0b0088484
:10c4c4000000000003970181b0b008840000000060
:10c4d40009970181b0b0088400000000039701812e
:10c4e400b0b008840000000001970181b0b0088456
:10c4f4000000000003970181b0b008840000000030
:10c504000b970181b0b008840000000005970181f9
:10c51400b0b008840000000001970181b0b0088425
:10c524000000000004970181b0b0098400000000fd
:10c5340004970181b0b009840000000001970181d3
:10c54400b0b008840000000002970181b0b00984f3
:10c554000000000001970181b0b0088400000000d1
:10c5640001970181b0b008840000000005970181a3
:10c57400b0b008840000000001970181b0b00884c5
:10c584000000000003970181b0b00884000000009f
:10c5940001970181b0030884000000000197018124
:10c5a400b0b008840000000007970181b0b008848f
:10c5b4000000000001970181b0b008840000000071
:10c5c40001970181b0b00884000000000597018143
:10c5d400b0b008840000000005970181b0b0088461
:10c5e4000000000001970181b0b008840000000041
:10c5f40001970181b0b00884000000000397018115
:10c60400b0b008840000000003970181b0b0088432
:10c614000000000003970181b0b00884000000000e
:10c6240007970181b0b008840000000007970181da
:10c63400b0b008840000000006970181b0b00984fe
:10c644000000000005970181b0b0088400000000dc
:10c6540003970181b0b008840000000001970181b4
:10c66400b0b008840000000001970181b0b00884d4
:10c674000000000005970181b0b0088400000000ac
:10c6840001970181b0b00884000000000597018182
:10c69400b0b008840000000003970181b0b00884a2
:10c6a400000000000d970181b0b008840000000074
:10c6b40009970181b0b00884000000000997018146
:10c6c400b0b008840000000002970181b0b0098472
:10c6d4000000000001970181b0b03b84000000001d
:10c6e40003970181b0b03b840000000003970181ef
:10c6f400b0b008840000000003970181b0b0088442
:10c704000000000003970181b0b00884000000001d
:10c7140003970181b0b008840000000003970181f1
:10c72400b0b008840000000005970181b0b008840f
:10c734000000000003970181b0b0088400000000ed
:10c7440001970181b0b008840000000001970181c5
:10c75400b0b008840000000001970181b0b00884e3
:10c764000000000001970181b0b0088400000000bf
:10c7740001970181b0b00884000000000197018195
:10c78400b0b00b840000000001970181b0b00b84ad
:10c794000000000001970181b0b00b84000000008c
:10c7a40001970181b0b00884000000000597018161
:10c7b400b0b008840000000001970181b0b0088483
:10c7c4000000000009970181b0b008840000000057
:10c7d40001970181b0030b840000000004970181dc
:10c7e400b0030984000000000d970181b0b00884f3
:10c7f4000000000005970181b0b00884000000002b
:10c8040005970181b0b008840000000007970181fa
:10c81400b0b008840000000003970181b0b0088420
:10c824000000000003970181b0b0088400000000fc
:10c8340005970181b0b008840000000009970181c8
:10c84400b0b008840000000005970181b0b00884ee
:10c854000000000005970181b0b0088400000000ca
:10c8640006970181b0b0098400000000019701819e
:10c87400b0b008840000000005970181b0b00884be
:10c884000000000007970181b0b008840000000098
:10c8940007970181b0b00884000000000797018168
:10c8a400b0b008840000000007970181b0b008848c
:10c8b4000000000007970181b0b008840000000068
:10c8c40001970181b0b00884000000000597018140
:10c8d400b0b00b840000000005970181b0b008845b
:10c8e4000000000001970181b0b00884000000003e
:10c8f40001970181b0b00884000000000197018114
:10c90400b0b008840000000003970181b0b008842f
:10c914000000000003970181b0b00884000000000b
:10c9240003970181b0b008840000000001970181e1
:10c93400b0b008840000000001970181b0b0088401
:10c944000000000001970181b0b0088400000000dd
:10c9540003970181b0b00b840000000001970181ae
:10c96400b0b008840000000001970181b0b00884d1
:10c97400000000000d970181b0b0088400000000a1
:10c9840001970181b0b00884000000000197018183
:10c99400b0b008840000000001970181b0b00884a1
:10c9a4000000000005970181b0b008840000000079
:10c9b40005970181b0b0088400000000059701814b
:10c9c400b0b008840000000001970181b0b0088471
:10c9d4000000000004970181b0b009840000000049
:10c9e40001970181b0b00884000000000197018123
:10c9f400b0b008840000000001970181b0b0088441
:10ca04000000000007970181b0b008840000000016
:10ca140003970181b0b008840000000001970181f0
:10ca2400b0b008840000000001970181b0b0088410
:10ca34000000000002970181b0b0098400000000ea
:10ca440008970181b0b009840000000005970181b6
:10ca5400b0b008840000000001970181b0b00b84dd
:10ca64000000000001970181b0b0088400000000bc
:10ca740001970181b0b00884000000000197018192
:10ca8400b0b008840000000001970181b0b00884b0
:10ca94000000000001970181b0b00884000000008c
:10caa40001970181b0b00884000000000197018162
:10cab400b0b008840000000001970181b0b0088480
:10cac4000000000001970181b0b00884000000005c
:10cad40006970181b0b00984000000000597018128
:10cae400b0b008840000000001970181b0b0088450
:10caf4000000000001970181b0b00884000000002c
:10cb040005970181b0b008840000000001970181fd
:10cb1400b0b008840000000001970181b0b008841f
:10cb24000000000005970181b0b0088400000000f7
:10cb340001970181b0b008840000000001970181d1
:10cb4400b0b008840000000001970181b0b00884ef
:10cb54000000000001970181b0b0088400000000cb
:10cb64000b970181b0b00884000000000597018193
:10cb7400b0b008840000000001970181b0b00884bf
:10cb84000000000001970181b0b00884000000009b
:10cb940001970181b0b00884000000000197018171
:10cba400b0b008840000000001970181b0b008848f
:10cbb4000000000008b10181b0b000840000000052
:10cbc40008b10181b0b0008400000000f8b500bfd6
:10cbd400f8bc08bc9e46704791d8060095c2060072
:10cbe400ed770300ad260300b94d0600c5330600fa
:10cbf40091cd0500996f02004d920600158d03003a
:10cc0400015b020099820300e9530500216d0300d2
:10cc1400f9f00500e5fc02008d410600c9ed0300b2
:10cc240005de0200b599050001ea0500d9130200ea
:10cc34009d820500a1ed0200a10406000d40030041
:10cc4400f9db05004dc60500a197020005e30500c8
:10cc540035730500a9b7050065a1050051970300c8
:10cc6400350b0300d5a8050079a10300ddf7050005
:10cc7400b1630500d14b0500518a05007d6b0500a9
:10cc84000592050069c8030045b00500d1d405002c
:10cc940035db0300f8b500bff8bc08bc9e467047fe
:04cca40071c2060053
:020000040000fa
:10cca800602c010001000000e82c010034fcff7f2b
:10ccb800b82e010001000000f42e010030fcff7fb7
:10ccc8000830010001000000403001002cfcff7f0b
:10ccd8000c3101000100000040310100010000009a
:10cce8008431010001000000303201000100000021
:10ccf8006c320100010000009832010001000000c0
:10cd0800f832010000fcff7f4834010001000000f8
:10cd1800b8340100fcfbff7f783a010001000000f5
:10cd2800e83a0100f8fbff7f883f0100fcfbff7f2a
:10cd3800e03f010000fcff7f5040010001000000bf
:10cd48009046010001000000fc780100010000008d
:10cd58001c790100010000003c790100010000007d
:10cd680070790100010000009a79010001000000bb
:10cd7800207a0100ab149780247d010018f9ff7f09
:10cd8800927d01001cf9ff7f4e7e010020f9ff7f94
:10cd9800cc7e010024f9ff7fb47f010028f9ff7fd2
:10cda8009c8201002cf9ff7fa083010030f9ff7fee
:10cdb800f886010001000000408d0100010000001c
:10cdc800488d010001000000688d0100010000008d
:10cdd800828d010001000000a28d01000100000009
:10cde800c28d010001000000de8d0100010000007d
:10cdf800fe8d0100010000001a8e010001000000f4
:10ce0800728e010001000000c88e010001000000c0
:10ce18001a8f010001000000568f01000100000078
:10ce2800928f010001000000b28f01000100000094
:10ce380074900100d4f6ff7fd0900100010000003b
:10ce48006091010001000000d09101000100000084
:10ce5800f6910100010000000892010001000000a5
:10ce680032920100b0f6ff7f62920100b4f6ff7fb4
:10ce780028930100b8f6ff7fbc950100010000006f
:10ce8800609601000100000090970100acf6ff7f5a
:10ce98006a980100b0f6ff7f989a0100010000002f
:10cea800ba9a0100acf6ff7fd09a0100b0f6ff7f76
:10ceb800f69a0100010000003a9b01000100000001
:10cec800d0a0010001000000d8a00100010000006e
:10ced800f8a001000100000012a1010001000000fb
:10cee80032a101000100000052a101000100000070
:10cef8006ea10100010000008ea1010001000000e8
:10cf0800aaa101000100000002a201000100000026
:10cf180058a2010001000000aaa2010001000000bf
:10cf2800caa20100010000008ca30100010000005a
:10cf3800c0a30100d0f3ff7f1ca401000100000082
:10cf48008ca40100010000009ea401000100000063
:10cf5800c8a4010001000000f2a40100b4f3ff7f9f
:10cf680022a50100b8f3ff7f58a7010001000000c7
:10cf780084a70100010000009aa701000100000039
:10cf8800b0a7010001000000c6a701009cf3ff7fc5
:10cf9800dca70100a0f3ff7ff2a701000100000059
:10cfa80008a801000100000024a8010001000000f9
:10cfb80038a801008cf3ff7f00aa010090f3ff7fdf
:10cfc8002aaa010094f3ff7f54aa0100010000007f
:10cfd8006caa010090f3ff7f0aab010094f3ff7f76
:10cfe80034ab010098f3ff7f58ab0100010000004b
:10cff800b8ac01000100000018ad010001000000fc
:10d0080004ae010084f3ff7f22ae010088f3ff7fa6
:10d0180040ae01008cf3ff7f5eae0100010000000e
:10d02800d0ae0100010000002eaf010080f3ff7fa9
:10d038003cb001000100000064b0010001000000e4
:10d04800e0b0010074f3ff7f9eb101000100000011
:10d05800ecb101000100000000b201000100000075
:10d0680014b201000100000028b201000100000014
:10d078003cb201000100000060b2010001000000a4
:10d088008cb2010001000000dab2010001000000ca
:10d0980020b301000100000044b3010001000000ba
:10d0a80078b3010001000000f0b301003cf9ff7ff4
:10d0b800ecb6010040f9ff7f2cb7010044f9ff7f6f
:10d0c80000ba010048f9ff7fe8ba01004cf9ff7f78
:10d0d8004cbb010050f9ff7fb8bb01000100000004
:10d0e80094bc01004cf9ff7fe0be0100ac019780c1
:10d0f800d8bf010001000000a0c601000100000027
:10d1080050ec01000100000070ec0100010000007b
:10d118008aec010001000000aaec010001000000f7
:10d12800caec010001000000e6ec0100010000006b
:10d1380006ed01000100000022ed010001000000e1
:10d148007aed010001000000d0ed010001000000af
:10d1580022ee0100010000005eee01000100000067
:10d168009aee010001000000baee01000100000083
:10d178007cef010001000000b0ef010048f2ff7fe2
:10d188000cf00100010000009cf00100010000000b
:10d198000cf101000100000032f101000100000063
:10d1a80044f10100010000006ef1010001000000df
:10d1b80098f101001cf2ff7fc8f101000100000096
:10d1c800d6f10100010000004af3010010f2ff7fd0
:10d1d80092f3010014f2ff7ff2f3010018f2ff7fcf
:10d1e80044f401001cf2ff7f80f4010001000000fc
:10d1f80094f4010001000000a8f4010001000000ff
:10d20800bcf4010001000000d0f40100010000009e
:10d21800e4f4010001000000f8f40100010000003e
:10d22800def5010001000000f2f50100e0f1ff7fea
:10d238000af60100e4f1ff7f3af60100e8f1ff7f0a
:10d24800ccf60100ecf1ff7f02f70100f0f1ff7f5f
:10d25800d0f90100f4f1ff7f00fa0100f8f1ff7f37
:10d2680012fa0100fcf1ff7f24fa010000f2ff7faf
:10d2780062fa010001000000aefa0100fcf1ff7f34
:10d28800d2fa010000f2ff7ff6fa010004f2ff7ff4
:10d2980040fb0100ecf5ff7fb8fc0100f0f5ff7fd3
:10d2a800d8fe0100f4f5ff7f60000200f8f5ff7f6b
:10d2b80084020200fcf5ff7fb404020000f6ff7f41
:10d2c8002805020001000000340b020001000000e4
:10d2d8003c0b02006cf6ff7f640c020070f6ff7fc7
:10d2e800080e020001000000500e02006cf6ff7fdd
:10d2f800740f020070f6ff7f7c120200010000002c
:10d30800b01202006cf6ff7f8014020070f6ff7ff7
:10d31800e814020001000000801a02000100000069
:10d32800881a020001000000e41a0200010000004f
:10d338004e1b020001000000c21b02000100000099
:10d348000e1c020088f4ff7f4c1c02008cf4ff7f47
:10d358008a1e020001000000961e020088f4ff7f6a
:10d36800d82202008cf4ff7f7223020090f4ff7f22
:10d37800c823020001000000042402008cf4ff7f8f
:10d38800bc24020090f4ff7fe024020094f4ff7fa5
:10d398001c25020098f4ff7f742502009cf4ff7f8f
:10d3a80064270200a0f4ff7fbc270200a4f4ff7fdb
:10d3b80014280200a8f4ff7fc6280200010000001c
:10d3c800e628020001000000142902000100000004
:10d3d8001c290200010000003c2902000100000095
:10d3e8005c290200010000007c2902000100000005
:10d3f8009c29020001000000f4290200010000003d
:10d408004a2a0200010000009c2a020001000000d4
:10d41800d82a020001000000f82a020001000000da
:10d42800bc2b020001000000f02b020001000000ec
:10d43800602c020001000000802c020001000000a6
:10d44800a02c020001000000b22c02000100000024
:10d45800dc2c020001000000062d02000100000083
:10d46800b82d020020f6ff7f082e020024f6ff7f69
:10d478008030020001000000b43602000100000004
:10d488000c450200010000002c45020001000000cc
:10d498004c450200010000006c450200010000003c
:10d4a8008c45020001000000e44502000100000074
:10d4b8003a460200010000008c460200010000000c
:10d4c800ac460200010000007047020001000000a5
:10d4d800a4470200010000001448020001000000f7
:10d4e8002648020001000000504802000100000028
:10d4f8007a48020001000000ae48020090edff7f6c
:10d50800fc48020094edff7f2a49020098edff7f56
:10d518003e4902009cedff7f6e490200a0edff7faf
:10d5280094490200ae119780204c02009cedff7fc9
:10d538005c4c020001000000764c02000100000073
:10d54800864c020001000000964c02000100000019
:10d55800be4c020080edff7fe24c0200010000009b
:10d5680044510200010000004c5e020028f4ff7fd5
:10d57800705f02002cf4ff7f3c61020030f4ff7ff3
:10d5880008630200010000003c6302002cf4ff7fe6
:10d598008064020030f4ff7fcc64020001000000c8
:10d5a800646a020001000000b08c0200ccf1ff7f29
:10d5b800588d0200d0f1ff7f408f0200d4f1ff7f29
:10d5c800889102000100000050970200010000004d
:10d5d8005897020088ecff7f98970200010000002e
:10d5e800d497020084ecff7f509a020088ecff7ffa
:10d5f800d49a02008cecff7f449b02000884978039
:10d608008c9b020001000000dca102000100000068
:10d61800e4a1020028f1ff7fa0a202002cf1ff7f05
:10d62800f0a3020030f1ff7f30a5020034f1ff7f44
:10d6380078a602000100000058ac020001000000ba
:10d6480060ac020044f0ff7fd8af02000100000088
:10d65800bcb6020001000000c4b6020010f4ff7f4f
:10d6680040b7020014f4ff7f78ba020001000000fe
:10d67800d8c0020001000000e0c0020038f4ff7fbb
:10d6880000c102003cf4ff7ff0c40200010000006a
:10d69800e0ca020001000000e8ca02000100000020
:10d6a800f4ca0200010000004ccb02000100000097
:10d6b8006ccb0200b0a9028004cc0200b0b0a880f4
:10d6c80054cc02000100000058cc02000100000008
:10d6d80054cc02000100000050cc0200b0b0aa8077
:10d6e80088cc0200ae71b28058cd02000100000063
:10d6f80054cd0200ab3f3880accd020001000000e1
:10d70800b8cd0200b0b0aa80f4cd0200010000003c
:10d71800fccd020001000000f8cd0200010000006d
:10d72800fccd02000100000028ce0200010000002c
:10d7380038ce02000100000064ce020001000000a3
:10d7480078ce0200ab0eb280e0ce0200b0af0a8005
:10d75800a8d1020001000000a4d1020001000000cd
:10d76800a0d10200010000009cd10200ab3f048060
:10d7780050e702000100000088e70200ecf3ff7f99
:10d7880024eb020001000000d8f0020001000000b4
:10d7980050fa02000100000070fa020001000000c7
:10d7a80090fa020001000000c4fa02000100000023
:10d7b800eefa0200d8f3ff7fb4fb0200dcf3ff7f30
:10d7c80078fc0200e0f3ff7f84fd02000100000006
:10d7d8005c03030001000000c00c0300010000000e
:10d7e800ac0d030001000000e80d030088f0ff7f86
:10d7f8001410030001000000c81503000100000018
:10d808004c530300010000006c53030001000000aa
:10d818008653030001000000a65303000100000026
:10d82800c653030001000000e2530300010000009a
:10d8380002540300010000001e5403000100000010
:10d848003e540300010000000055030001000000e1
:10d858003455030080edff7f905503000100000060
:10d86800ba55030001000000e455030074edff7f82
:10d8780014560300010000003c560300010000009c
:10d888006e56030068edff7fe25603006cedff7fe4
:10d898002657030070edff7f7057030074edff7f7c
:10d8a800b4570300010000001c58030070edff7f0f
:10d8b8001259030074edff7f0c5a030078edff7fc7
:10d8c800645a03007cedff7f9a5a030001000000b0
:10d8d800c25a030001000000f084030001000000a8
:10d8e80010850300010000002a85030001000000e4
:10d8f8004a850300010000006a850300010000005a
:10d908008685030001000000a685030001000000d1
:10d91800c2850300010000001a8603000100000010
:10d928007086030001000000c286030001000000a9
:10d93800fe860300010000003a8703000100000092
:10d948005a870300010000001c8803000100000042
:10d958005088030054eeff7fac88030001000000ec
:10d968003c89030001000000ac89030001000000ad
:10d97800d289030001000000e489030001000000cf
:10d988000e8a030001000000388a030028eeff7f9a
:10d99800688a0300010000003a8b030024eeff7f31
:10d9a80064a503000100000084a503000100000035
:10d9b8009ea5030001000000bea5030001000000b1
:10d9c800dea5030001000000faa503000100000025
:10d9d8001aa603000100000036a60300010000009b
:10d9e8008ea6030001000000e4a603000100000069
:10d9f80036a703000100000056a70300010000003d
:10da080018a80300010000004ca803005cebff7f8e
:10da1800a8a803000100000018a9030001000000e5
:10da28002aa903000100000054a903000100000016
:10da38007ea9030040ebff7faea9030044ebff7f04
:10da480070aa030048ebff7fa0aa03004cebff7ffe
:10da5800c4aa030050ebff7f08ac030001000000dc
:10da680028ac03004cebff7f4eac03000100000024
:10da780062ac03000100000076ac030040ebff7fbe
:10da88008aac0300010000003469040001000000b2
:10da98004e690400010000006a69040001000000ea
:10daa8008669040058f0ff7fe06904005cf0ff7f9e
:10dab800106a040008849780d46a040058f0ff7f35
:10dac8004c6b04000100000000710400010000001c
:10dad80008710400010000004c71040001000000fe
:10dae800f471040088ecff7f587304000100000003
:10daf800f078040001000000e48004000100000048
:10db0800fe800400010000001a81040001000000ea
:10db180036810400c4efff7f90810400c8efff7fc7
:10db2800c08104000884978044820400c4efff7f0a
:10db3800bc8204000100000070880400010000009d
:10db48007888040001000000e089040004f0ff7fe9
:10db5800688a0400010000001c9004000100000015
:10db680024900400010000007090040001000000ef
:10db7800bc900400d4eeff7fe09104000100000097
:10db8800ac97040001000000689f04000100000039
:10db9800909f040001000000989f0400010000000d
:10dba800a49f0400ab10978030a10400010000007e
:10dbb800e4a6040001000000eca604000100000037
:10dbc80006a704000100000022a7040001000000cd
:10dbd8003ea704004cefff7f98a7040050efff7f9b
:10dbe800c8a7040054efff7f24a8040058efff7f64
:10dbf8009ca804000100000050ae040001000000d1
:10dc080058ae040001000000d0ae040050efff7fc2
:10dc180030b0040001000000e4b504000100000079
:10dc2800ecb50400a4ecff7f84b7040001000000f9
:10dc38007cbd04000100000084bd04000100000058
:10dc4800c8bd04000100000060be040014eeff7fa0
:10dc58006cbf04000100000004c5040001000000be
:10dc68000cc5040038eeff7f40c504003ceeff7f82
:10dc780078c604000100000054cc04000100000034
:10dc88005ccc0400010000008ccc0400e8eeff7faf
:10dc9800f0cd040001000000a4d30400010000003e
:10dca800acd3040001000000ccd30400a8edff7f32
:10dcb80024d5040001000000e8da04000100000097
:10dcc800f0da04000100000010db0400010000008d
:10dcd80030db04000100000050db040001000000fc
:10dce80070db040001000000c8db04000100000034
:10dcf8001edc04000100000070dc040001000000cc
:10dd0800acdc040001000000ccdc040001000000d1
:10dd180090dd040001000000c4dd040001000000e3
:10dd280034de04000100000054de0400010000009d
:10dd380074de04000100000086de0400010000001b
:10dd4800b0de040001000000dade040000e9ff7f15
:10dd5800a0df040004e9ff7fc4df040008e9ff7fb7
:10dd6800e2df040001000000f4df0400010000000d
:10dd780008e004000100000018e0040001000000b1
:10dd880026e00400ece8ff7f4ce1040001000000fd
:10dd980060e104000100000074e1040001000000db
:10dda800a8e1040038ecff7ffce204000100000059
:10ddb80094e80400010000009ce80400e0e6ff7f0e
:10ddc80038e904000100000064e9040001000000d3
:10ddd8008ce9040001000000a6e90400cce6ff7ffe
:10dde800fce90400ac0797809cea0400c8e6ff7fc2
:10ddf800deea0400cce6ff7f28eb0400d0e6ff7fd4
:10de0800deeb040001000000eeeb0400010000005e
:10de1800feeb0400c4e6ff7fb8ec0400010000003c
:10de2800f0ec0400c0e6ff7f06ed040001000000ee
:10de380038ed0400bce6ff7f6ced0400c0e6ff7f10
:10de480014ef04000100000040ef0400010000008e
:10de580048ef04000100000078ef040024edff7f84
:10de6800acf004000100000060f6040001000000ae
:10de780068f6040001000000a8f6040054ebff7fd8
:10de8800d0f704000100000068fd04000100000054
:10de980070fd040001000000a4fd0400a0ebff7f5a
:10dea800a0fe040001000000540405000100000069
:10deb8005c040500010000009404050018eaff7fd7
:10dec8007c05050001000000300b05000100000082
:10ded800380b0500c8e8ff7f600c05000100000052
:10dee80010120500010000001812050001000000d2
:10def8004c120500d8ebff7f20130500010000003d
:10df0800d418050001000000981f05007ceaff7f77
:10df1800d01f050001000000802505000100000059
:10df2800083105000100000028310500010000004b
:10df380048310500010000006831050001000000bb
:10df48008831050001000000e031050001000000f3
:10df5800363205000100000088320500010000008b
:10df6800a8320500010000006c3305000100000024
:10df7800a033050001000000103405000100000076
:10df880022340500010000004c34050001000000a7
:10df98007634050001000000f83405000100000097
:10dfa80012350500010000002c35050001000000b5
:10dfb80046350500010000006c3505000100000031
:10dfc8009e35050001000000cc3505000100000069
:10dfd8002c360500010000005c3605000100000039
:10dfe800a036050001000000dc3605000100000035
:10dff80004370500010000007a3705000100000021
:10e00800e037050001000000663805000100000047
:10e018005a39050001000000803a0500010000009f
:10e02800204a050001000000404a050001000000e8
:10e03800604a050001000000804a05000100000058
:10e04800a04a050001000000c04a050001000000c8
:10e05800184b0500010000006e4b05000100000090
:10e06800c04b050001000000e04b05000100000066
:10e07800a44c050001000000d84c05000100000078
:10e08800f44c050001000000644d0500010000008b
:10e09800764d050001000000a04d050001000000bc
:10e0a800ca4d050001000000ec4d0500010000000c
:10e0b800204e050001000000344e0500010000005c
:10e0c800484e0500010000005c4e050001000000fc
:10e0d800824e050001000000e45205000100000026
:10e0e800285c050001000000705c050001000000cc
:10e0f800c05c050001000000f85c0500010000009c
:10e10800145d050001000000505d050001000000dd
:10e11800725d050001000000945d0500010000002b
:10e12800d05d0500010000001c5e05000100000034
:10e138003c5e0500010000007c5e05000100000057
:10e14800d85e050001000000385f050001000000ee
:10e15800945f050001000000a05f050001000000b9
:10e16800b05f050001000000c45f05000100000069
:10e178001460050001000000486805000100000067
:10e18800d86805005ce1ff7f486a050060e1ff7f11
:10e19800d26a050064e1ff7f526b050001000000b0
:10e1a800106c0500010000009c77050001000000cc
:10e1b800cc77050000840480e077050001000000aa
:10e1c800dc770500b0ad0480a47a0500b0a8038010
:10e1d800c47a0500dce9ff7fc87a0500e0e9ff7f23
:10e1e800d47a050001000000d47a0500010000007f
:10e1f800108e05000100000000a4050001000000c9
:10e2080032a405000100000044a40500010000003c
:10e2180054a405000100000064a4050001000000ea
:10e2280074a405000100000084a40500010000009a
:10e238009ea4050001000000b6a40500010000002e
:10e24800e2a4050001000000faa405000100000096
:10e2580016a505000100000032a505000100000018
:10e2680060a505000100000064ae05000100000083
:10e27800b0ae050008e4ff7f24af050001000000f0
:10e28800c4af050001000000ccaf0500010000008c
:10e29800daaf050001000000f0af05000100000042
:10e2a80000b0050044e4ff7f1cb0050048e4ff7f90
:10e2b80038b005004ce4ff7f54b0050050e4ff7f00
:10e2c80070b0050054e4ff7f8cb0050058e4ff7f70
:10e2d800c0b005005ce4ff7fecb005000100000061
:10e2e800f8b005000100000006b10500dce2ff7f80
:10e2f80054b10500010000000eb205000100000045
:10e30800d8c705000100000000c805000100000092
:10e3180032c805000100000064c8050001000000c3
:10e32800d4de05000100000018e705003ce5ff7f8a
:08e3380038f3050001000000ac
:020000040000fa
:10e340005ca00020040000000100000000000000ac
:10e350006c3a02201c00000000000000003b02207c
:10e360000400000001000000006cdc02043b0220fd
:10e370000400000000000000f83a02200500000040
:10e3800000000000083b0220040000000000000024
:10e390000c3b0220040000000000000000000020f0
:10e3a00024020000000000002402002010000000f1
:10e3b00000000000143a02203000000001000000bc
:10e3c0000200000004001040000003000200700082
:10e3d000b9fc00000000000005000000140020004f
:10e3e00000010000353600000000d700001bb70018
:10e3f000a43a02201800000000000000103b022098
:10e400000400000001000000aaaaaaaad83a02202b
:10e410000800000000000000143b0220040000007f
:10e4200001000000389c000008040020549c0000fb
:10e4300000000000843602200401000000000000fb
:10e44000343902203c00000000000000403502206a
:10e450004401000000000000bc3a0220100000004f
:10e46000010000003031323334353637383941421b
:10e4700043444546d8d701201104000000000000a5
:10e4800034020020a80000000000000094ce01200b
:10e490001b05000000000000dc0200200800000056
:10e4a00000000000a8390220350000000000000034
:10e4b000e40200201001000000000000e03a022009
:10e4c0000800000000000000f4fa01203002000003
:10e4d000010000000cf30400000000000200000036
:10e4e000010000000000000000100000000000001b
:10e4f00010f304001cf304000000000000040000fe
:10e50000000000002cf304001cf3040000000000d5
:10e51000000200000000000038f304001cf30400b7
:10e5200000000000200000000000000010f30400c4
:10e5300044f3040000000000800000000000000020
:10e540002cf3040044f3040000000000000100006c
:10e550000000000038f3040044f304000000000051
:10e5600050f3040000010000010000000100000061
:10e5700000000000200000000000000010f3040074
:10e5800054f30400000000008000000000000000c0
:10e590002cf3040054f3040000000000000100000c
:10e5a0000000000038f3040054f3040000000000f1
:10e5b00063000000000000000000000000000000f8
:10e5c00000000000630000000000000000000000e8
:10e5d00000000000000000006300000000000000d8
:10e5e000000000000000000000000000f0f3040044
:10e5f0000001000001000000010000000000000018
:10e60000200000000000000010f3040044f30400a8
:10e6100000000000800000000000000038f304004b
:10e6200044f30400000000000004000000000000ab
:10e6300038f304001cf30400000000006300000035
:10e6400000000000000000000000000000000000ca
:10e650006300000000000000000000000000000057
:10e660000000000063000000000000000000000047
:10e670000000000000000000f8f3040000010000aa
:10e680000100000001000000000000000010000078
:10e690000000000010f304001cf304000000000060
:10e6a000000400000000000038f304001cf3040024
:10e6b00000000000800000000000000038f30400ab
:10e6c00044f30400000000006300000000000000ac
:10e6d00000000000000000000000000063000000d7
:10e6e000000000000000000000000000000000002a
:10e6f00063000000000000000000000000000000b7
:10e700000000000060a00020500b0000000000008e
:10e7100014c10120c006000000000000e039022002
:10e720003300000000000000d4c70120c006000034
:10e7300000000000e83a022008000000000000008d
:10e74000f40300200400000000000000cc3a022086
:10e750000c0000000000000024fd01203002000039
:10e7600001000000980b05000000000002000000fe
:10e770000100000000000000001000000000000088
:10e780009c0b0500a80b0500000000000004000021
:10e7900000000000b80b0500a80b050000000000f9
:10e7a0000002000000000000c40b0500a80b0500db
:10e7b0000000000020000000000000009c0b05008d
:10e7c000d00b0500000000008000000000000000e9
:10e7d000b80b0500d00b0500000000000001000090
:10e7e00000000000c40b0500d00b05000000000075
:10e7f000dc0b05000001000001000000010000002a
:10e800000000000020000000000000009c0b05003c
:10e81000e00b050000000000800000000000000088
:10e82000b80b0500e00b050000000000000100002f
:10e8300000000000c40b0500e00b05000000000014
:10e840006300000000000000000000000000000065
:10e850000000000063000000000000000000000055
:10e860000000000000000000630000000000000045
:10e870000000000000000000000000007c0c05000b
:10e880000001000001000000010000000000000085
:10e8900020000000000000009c0b0500d00b0500cc
:10e8a000000000008000000000000000c40b050014
:10e8b000d00b050000000000000400000000000074
:10e8c000c40b0500a80b0500000000006300000059
:10e8d0000000000000000000000000000000000038
:10e8e00063000000000000000000000000000000c5
:10e8f00000000000630000000000000000000000b5
:10e900000000000000000000840c05000001000071
:10e9100001000000010000000000000000100000e5
:10e92000000000009c0b0500a80b05000000000083
:10e930000004000000000000c40b0500a80b050047
:10e94000000000008000000000000000c40b050073
:10e95000d00b050000000000630000000000000074
:10e960000000000000000000000000006300000044
:10e970000000000000000000000000000000000097
:10e980006300000000000000000000000000000024
:10e990000000000050ba0120c10600000000000085
:10e9a000183b02200400000000000000f8030020d3
:10e9b00004000000000000008c380220a8000000c5
:10e9c00000000000f4df01206c02000001000000e4
:10e9d000b0f703000000000002000000010000008a
:10e9e000000000000010000000000000b4f7030069
:10e9f000c0f7030000000000000400000000000059
:10ea0000d0f70300c0f70300000000000002000080
:10ea100000000000dcf70300c0f703000000000066
:10ea20002000000000000000b4f70300e8f7030036
:10ea3000000000008000000000000000d0f703008c
:10ea4000e8f70300000000000001000000000000e3
:10ea5000dcf70300e8f7030000000000f4f7030010
:10ea600000010000010000000100000000000000a3
:10ea70002000000000000000b4f70300f8f70300d6
:10ea8000000000008000000000000000d0f703003c
:10ea9000f8f7030000000000000100000000000083
:10eaa000dcf70300f8f7030000000000630000003b
:10eab0000000000000000000000000000000000056
:10eac00063000000000000000000000000000000e3
:10ead00000000000630000000000000000000000d3
:10eae000000000000000000094f803000001000096
:10eaf00001000000010000000000000020000000f4
:10eb000000000000b4f70300e8f703000000000075
:10eb10008000000000000000dcf70300e8f70300bd
:10eb2000000000000004000000000000dcf703000b
:10eb3000c0f70300000000006300000000000000b8
:10eb40000000000000000000000000006300000062
:10eb500000000000000000000000000000000000b5
:10eb60006300000000000000000000000000000042
:10eb7000000000009cf803000001000001000000fc
:10eb80000100000000000000001000000000000074
:10eb9000b4f70300c0f70300000000000004000009
:10eba00000000000dcf70300c0f7030000000000d5
:10ebb0008000000000000000dcf70300e8f703001d
:10ebc00000000000630000000000000000000000e2
:10ebd00000000000000000006300000000000000d2
:10ebe00000000000000000000000000063000000c2
:10ebf0000000000000000000000000000000000015
:10ec000008c7002030c7002058c7002080c7002058
:10ec1000a8c70020d0c70020f8c7002020c80020c7
:10ec200048c8002070c8002098c80020c0c8002034
:10ec3000e8c8002010c9002038c9002048c00020c2
:10ec4000480900000000000054ff012030020000cd
:10ec500001000000f01a04000000000002000000a3
:10ec60000100000000000000001000000000000093
:10ec7000f41a0400001b040000000000000400005f
:10ec800000000000101b0400001b04000000000036
:10ec900000020000000000001c1b0400001b040018
:10eca000000000002000000000000000f41a040032
:10ecb000281b04000000000080000000000000008d
:10ecc000101b0400281b04000000000000010000cd
:10ecd000000000001c1b0400281b040000000000b2
:10ece000341b0400000100000100000001000000ce
:10ecf000000000002000000000000000f41a0400e2
:10ed0000381b04000000000080000000000000002c
:10ed1000101b0400381b040000000000000100006c
:10ed2000000000001c1b0400381b04000000000051
:10ed30006300000000000000000000000000000070
:10ed40000000000063000000000000000000000060
:10ed50000000000000000000630000000000000050
:10ed6000000000000000000000000000d41b0400b0
:10ed70000001000001000000010000000000000090
:10ed80002000000000000000f41a0400281b04000a
:10ed90000000000080000000000000001c1b0400b8
:10eda000281b040000000000000400000000000018
:10edb0001c1b0400001b0400000000006300000096
:10edc0000000000000000000000000000000000043
:10edd00063000000000000000000000000000000d0
:10ede00000000000630000000000000000000000c0
:10edf0000000000000000000dc1b04000001000017
:10ee000001000000010000000000000000100000f0
:10ee100000000000f41a0400001b040000000000c1
:10ee200000040000000000001c1b0400001b040084
:10ee30000000000080000000000000001c1b040017
:10ee4000281b040000000000630000000000000018
:10ee5000000000000000000000000000630000004f
:10ee600000000000000000000000000000000000a2
:10ee7000630000000000000000000000000000002f
:10ee800000000000f4b6002054090000000000005b
:10ee90001c3b02200400000000000000703902202a
:10eea000380000000000000068eb01203c02000078
:10eeb000010000000c8804000000000002000000b7
:10eec0000100000000000000001000000000000031
:10eed000108804001c8804000000000000040000ea
:10eee000000000002c8804001c88040000000000c2
:10eef0000002000000000000388804001c880400a4
:10ef00000000000020000000000000001088040045
:10ef100044880400000000008000000000000000a1
:10ef20002c88040044880400000000000001000058
:10ef3000000000003888040044880400000000003d
:10ef400050880400000100000100000001000000e2
:10ef500000000000200000000000000010880400f5
:10ef60005488040000000000800000000000000041
:10ef70002c880400548804000000000000010000f8
:10ef800000000000388804005488040000000000dd
:10ef9000630000000000000000000000000000000e
:10efa00000000000630000000000000000000000fe
:10efb00000000000000000006300000000000000ee
:10efc000000000000000000000000000f0880400c5
:10efd000000100000100000001000000000000002e
:10efe0002000000000000000108804004488040095
:10eff00000000000800000000000000038880400cd
:10f00000448804000000000000040000000000002c
:10f01000388804001c880400000000006300000021
:10f0200000000000000000000000000000000000e0
:10f03000630000000000000000000000000000006d
:10f04000000000006300000000000000000000005d
:10f050000000000000000000f8880400000100002b
:10f06000010000000100000000000000001000008e
:10f0700000000000108804001c880400000000004c
:10f080000004000000000000388804001c88040010
:10f09000000000008000000000000000388804002c
:10f0a000448804000000000063000000000000002d
:10f0b00000000000000000000000000063000000ed
:10f0c0000000000000000000000000000000000040
:10f0d00063000000000000000000000000000000cd
:10f0e000000000001f1c1f1e1f1e1f1f1e1f1e1fb3
:10f0f0009c2601204007000000000000840102203f
:10f100003002000001000000c013050000000000f4
:10f1100002000000010000000000000000100000dc
:10f1200000000000c4130500d0130500000000001b
:10f130000004000000000000e0130500d0130500eb
:10f14000000000000002000000000000ec130500b9
:10f15000d0130500000000002000000000000000a7
:10f16000c4130500f8130500000000008000000033
:10f1700000000000e0130500f81305000000000087
:10f180000001000000000000ec130500f81305006a
:10f190000000000004140500000100000100000050
:10f1a000010000000000000020000000000000003e
:10f1b000c4130500081405000000000080000000d2
:10f1c00000000000e0130500081405000000000026
:10f1d0000001000000000000ec1305000814050009
:10f1e00000000000630000000000000000000000bc
:10f1f00000000000000000006300000000000000ac
:10f20000000000000000000000000000630000009b
:10f2100000000000000000000000000000000000ee
:10f22000a41405000001000001000000010000001e
:10f23000000000002000000000000000c4130500d2
:10f24000f81305000000000080000000000000002e
:10f25000ec130500f8130500000000000004000096
:10f2600000000000ec130500d013050000000000b2
:10f27000630000000000000000000000000000002b
:10f28000000000006300000000000000000000001b
:10f29000000000000000000063000000000000000b
:10f2a000000000000000000000000000ac14050099
:10f2b000000100000100000001000000000000004b
:10f2c0000010000000000000c4130500d01305006a
:10f2d000000000000004000000000000ec13050026
:10f2e000d0130500000000008000000000000000b6
:10f2f000ec130500f8130500000000006300000097
:10f3000000000000000000000000000000000000fd
:10f31000630000000000000000000000000000008a
:10f32000000000006300000000000000000000007a
:10f330000000000000000000041801204c0700003d
:10f3400000000000b40302203002000001000000b1
:10f35000c8c104000000000002000000010000001d
:10f36000000000000010000000000000ccc10400fc
:10f37000d8c10400000000000004000000000000ec
:10f38000e8c10400d8c10400000000000002000031
:10f3900000000000f4c10400d8c104000000000017
:10f3a0002000000000000000ccc1040000c20400e6
:10f3b000000000008000000000000000e8c1040020
:10f3c00000c2040000000000000100000000000076
:10f3d000f4c1040000c20400000000000cc20400dc
:10f3e000000100000100000001000000000000001a
:10f3f0002000000000000000ccc1040010c2040086
:10f40000000000008000000000000000e8c10400cf
:10f4100010c2040000000000000100000000000015
:10f42000f4c1040010c204000000000063000000ea
:10f4300000000000000000000000000000000000cc
:10f440006300000000000000000000000000000059
:10f450000000000063000000000000000000000049
:10f460000000000000000000acc204000001000029
:10f47000010000000100000000000000200000006a
:10f4800000000000ccc1040000c204000000000025
:10f490008000000000000000f4c1040000c204006d
:10f4a000000000000004000000000000f4c104009f
:10f4b000d8c104000000000063000000000000004c
:10f4c00000000000000000000000000063000000d9
:10f4d000000000000000000000000000000000002c
:10f4e00063000000000000000000000000000000b9
:10f4f00000000000b4c20400000100000100000090
:10f5000001000000000000000010000000000000ea
:10f51000ccc10400d8c104000000000000040000b9
:10f5200000000000f4c10400d8c104000000000085
:10f530008000000000000000f4c1040000c20400cc
:10f540000000000063000000000000000000000058
:10f550000000000000000000630000000000000048
:10f560000000000000000000000000006300000038
:10f57000000000000000000000000000000000008b
:10f58000504301201807000000000000e40502209d
:10f59000300200000100000050b104000000000033
:10f5a0000200000001000000000000000010000048
:10f5b0000000000054b1040060b10400000000002d
:10f5c000000400000000000070b1040060b10400fd
:10f5d0000000000000020000000000007cb10400f8
:10f5e00060b10400000000002000000000000000e6
:10f5f00054b1040088b10400000000008000000045
:10f600000000000070b1040088b104000000000098
:10f6100000010000000000007cb1040088b104007b
:10f620000000000094b1040000010000010000008f
:10f6300001000000000000002000000000000000a9
:10f6400054b1040098b104000000000080000000e4
:10f650000000000070b1040098b104000000000038
:10f6600000010000000000007cb1040098b104001b
:10f670000000000063000000000000000000000027
:10f680000000000000000000630000000000000017
:10f690000000000000000000000000006300000007
:10f6a000000000000000000000000000000000005a
:10f6b00034b204000001000001000000010000005d
:10f6c00000000000200000000000000054b1040011
:10f6d00088b104000000000080000000000000006d
:10f6e0007cb1040088b104000000000000040000a8
:10f6f000000000007cb1040060b1040000000000c4
:10f700006300000000000000000000000000000096
:10f710000000000063000000000000000000000086
:10f720000000000000000000630000000000000076
:10f730000000000000000000000000003cb20400d7
:10f7400000010000010000000100000000000000b6
:10f75000001000000000000054b1040060b104007b
:10f760000000000000040000000000007cb1040064
:10f7700060b10400000000008000000000000000f4
:10f780007cb1040088b104000000000063000000a8
:10f790000000000000000000000000000000000069
:10f7a00063000000000000000000000000000000f6
:10f7b00000000000630000000000000000000000e6
:10f7c000000000000000000070b30120e00600000f
:10f7d00000000000f03a02200800000000000000d5
:10f7e000f1b600200300000001000000010101004b
:10f7f000883a02201900000000000000883702202b
:10f80000010100000000000058f401203402000053
:10f81000010000008cb9040000000000020000009c
:10f8200001000000000000000010000000000000c7
:10f8300090b904009cb9040000000000000400001e
:10f8400000000000acb904009cb9040000000000f6
:10f850000002000000000000b8b904009cb90400d8
:10f8600000000000200000000000000090b904002b
:10f87000c4b9040000000000800000000000000087
:10f88000acb90400c4b9040000000000000100008d
:10f8900000000000b8b90400c4b904000000000072
:10f8a000d0b90400000100000100000001000000c8
:10f8b00000000000200000000000000090b90400db
:10f8c000d4b9040000000000800000000000000027
:10f8d000acb90400d4b9040000000000000100002d
:10f8e00000000000b8b90400d4b904000000000012
:10f8f00063000000000000000000000000000000a5
:10f900000000000063000000000000000000000094
:10f910000000000000000000630000000000000084
:10f9200000000000000000000000000070ba0400a9
:10f9300000010000010000000100000000000000c4
:10f94000200000000000000090b90400c4b90400c9
:10f95000000000008000000000000000b8b90400b2
:10f96000c4b9040000000000000400000000000012
:10f97000b8b904009cb90400000000006300000056
:10f980000000000000000000000000000000000077
:10f990006300000000000000000000000000000004
:10f9a00000000000630000000000000000000000f4
:10f9b000000000000000000078ba04000001000010
:10f9c0000100000001000000000000000010000025
:10f9d0000000000090b904009cb904000000000081
:10f9e0000004000000000000b8b904009cb9040045
:10f9f000000000008000000000000000b8b9040012
:10fa0000c4b9040000000000630000000000000012
:10fa10000000000000000000000000006300000083
:10fa200000000000000000000000000000000000d6
:10fa30006300000000000000000000000000000063
:10fa400000000000c3000000d07b01200007000080
:10fa50000000000060e201204102000001000000ff
:10fa6000003d040000000000020000000100000052
:10fa7000000000000010000000000000043d040031
:10fa8000103d040000000000000400000000000021
:10fa9000203d0400103d04000000000000020000b2
:10faa000000000002c3d0400103d04000000000098
:10fab0002000000000000000043d0400383d040068
:10fac000000000008000000000000000203d040055
:10fad000383d0400000000000001000000000000ac
:10fae0002c3d0400383d040000000000443d0400ab
:10faf0000001000001000000010000000000000003
:10fb00002000000000000000043d0400483d040007
:10fb1000000000008000000000000000203d040004
:10fb2000483d04000000000000010000000000004b
:10fb30002c3d0400483d040000000000630000006c
:10fb400000000000000000000000000000000000b5
:10fb50006300000000000000000000000000000042
:10fb60000000000063000000000000000000000032
:10fb70000000000000000000e43d0400000100005f
:10fb80000100000001000000000000002000000053
:10fb900000000000043d0400383d040000000000a7
:10fba00080000000000000002c3d0400383d0400ef
:10fbb0000000000000040000000000002c3d0400d4
:10fbc000103d040000000000630000000000000081
:10fbd00000000000000000000000000063000000c2
:10fbe0000000000000000000000000000000000015
:10fbf00063000000000000000000000000000000a2
:10fc000000000000ec3d04000001000001000000c5
:10fc100001000000000000000010000000000000d3
:10fc2000043d0400103d040000000000000400003a
:10fc3000000000002c3d0400103d04000000000006
:10fc400080000000000000002c3d0400383d04004e
:10fc50000000000063000000000000000000000041
:10fc60000000000000000000630000000000000031
:10fc70000000000000000000000000006300000021
:10fc80000000000000000000000000000000000074
:10fc900001000000090000001e0000002c0100000f
:10fca0000100000088fa00207d070000000000002d
:10fcb0001408022030020000010000007445040016
:10fcc0000000000002000000010000000000000031
:10fcd0000010000000000000784504008445040086
:10fce0000000000000040000000000009445040033
:10fcf0008445040000000000000200000000000035
:10fd0000a04504008445040000000000200000001d
:10fd10000000000078450400ac450400000000002d
:10fd2000800000000000000094450400ac45040081
:10fd3000000000000001000000000000a0450400d9
:10fd4000ac45040000000000b845040000010000bc
:10fd50000100000001000000000000002000000081
:10fd60000000000078450400bc45040000000000cd
:10fd7000800000000000000094450400bc45040021
:10fd8000000000000001000000000000a045040089
:10fd9000bc450400000000006300000000000000fb
:10fda00000000000000000000000000063000000f0
:10fdb0000000000000000000000000000000000043
:10fdc00063000000000000000000000000000000d0
:10fdd000000000005846040000010000010000007f
:10fde00001000000000000002000000000000000f2
:10fdf00078450400ac4504000000000080000000cd
:10fe000000000000a0450400ac4504000000000014
:10fe10000004000000000000a04504008445040028
:10fe2000000000006300000000000000000000006f
:10fe3000000000000000000063000000000000005f
:10fe4000000000000000000000000000630000004f
:10fe500000000000000000000000000000000000a2
:10fe600060460400000100000100000001000000e5
:10fe700000000000001000000000000078450400b1
:10fe800084450400000000000004000000000000a1
:10fe9000a04504008445040000000000800000002c
:10fea00000000000a0450400ac4504000000000074
:10feb00063000000000000000000000000000000df
:10fec00000000000630000000000000000000000cf
:10fed00000000000000000006300000000000000bf
:10fee00000000000000000000000000008020120e7
:10fef0005807000000000000440a02203002000001
:10ff0000010000003cfb04000000000002000000b3
:10ff100001000000000000000010000000000000d0
:10ff200040fb04004cfb0400000000000004000043
:10ff3000000000005cfb04004cfb0400000000001b
:10ff4000000200000000000068fb04004cfb0400fd
:10ff500000000000200000000000000040fb040042
:10ff600074fb04000000000080000000000000009e
:10ff70005cfb040074fb04000000000000010000b2
:10ff80000000000068fb040074fb04000000000097
:10ff900080fb0400000100000100000001000000df
:10ffa00000000000200000000000000040fb0400f2
:10ffb00084fb04000000000080000000000000003e
:10ffc0005cfb040084fb0400000000000001000052
:10ffd0000000000068fb040084fb04000000000037
:10ffe00063000000000000000000000000000000ae
:10fff000000000006300000000000000000000009e
:020000040001f9
:10000000000000000000000063000000000000008d
:1000100000000000000000000000000020fc0400c0
:1000200000010000010000000100000000000000cd
:10003000200000000000000040fb040074fb0400ee
:1000400000000000800000000000000068fb0400c9
:1000500074fb040000000000000400000000000029
:1000600068fb04004cfb040000000000630000007b
:100070000000000000000000000000000000000080
:10008000630000000000000000000000000000000d
:1000900000000000630000000000000000000000fd
:1000a000000000000000000028fc04000001000027
:1000b000010000000100000000000000001000002e
:1000c0000000000040fb04004cfb040000000000a6
:1000d000000400000000000068fb04004cfb04006a
:1000e00000000000800000000000000068fb040029
:1000f00074fb04000000000063000000000000002a
:10010000000000000000000000000000630000008c
:1001100000000000000000000000000000000000df
:10012000630000000000000000000000000000006c
:1001300000000000d0820120f8060000000000004e
:100140001cf201203902000001000000c000040080
:10015000000000000200000001000000000000009c
:100160000010000000000000c4000400d0000400e3
:10017000000000000004000000000000e000040097
:10018000d000040000000000000200000000000099
:10019000ec000400d000040000000000200000007b
:1001a00000000000c4000400f8000400000000008b
:1001b0008000000000000000e0000400f8000400df
:1001c000000000000001000000000000ec0004003e
:1001d000f800040000000000040104000001000019
:1001e00001000000010000000000000020000000ed
:1001f00000000000c400040008010400000000002a
:100200008000000000000000e0000400080104007d
:10021000000000000001000000000000ec000400ed
:10022000080104000000000063000000000000005e
:10023000000000000000000000000000630000005b
:1002400000000000000000000000000000000000ae
:10025000630000000000000000000000000000003b
:1002600000000000a40104000001000001000000e3
:10027000010000000000000020000000000000005d
:10028000c4000400f800040000000000800000002a
:1002900000000000ec000400f80004000000000072
:1002a0000004000000000000ec000400d000040086
:1002b00000000000630000000000000000000000db
:1002c00000000000000000006300000000000000cb
:1002d00000000000000000000000000063000000bb
:1002e000000000000000000000000000000000000e
:1002f000ac0104000001000001000000010000004a
:10030000000000000010000000000000c400040015
:10031000d000040000000000000400000000000005
:10032000ec000400d0000400000000008000000089
:1003300000000000ec000400f800040000000000d1
:10034000630000000000000000000000000000004a
:10035000000000006300000000000000000000003a
:10036000000000000000000063000000000000002a
:10037000000000000000000000000000020000007b
:100380000500000003000000d8da00207808000013
:1003900000000000740c0220300200000100000088
:1003a0005090040000000000020000000100000066
:1003b0000000000000100000000000005490040045
:1003c0006090040000000000000400000000000035
:1003d0007090040060900400000000000002000023
:1003e000000000007c900400609004000000000009
:1003f00020000000000000005490040088900400d9
:100400000000000080000000000000007090040068
:1004100088900400000000000001000000000000bf
:100420007c90040088900400000000009490040078
:1004300000010000010000000100000000000000b9
:100440002000000000000000549004009890040078
:100450000000000080000000000000007090040018
:10046000989004000000000000010000000000005f
:100470007c900400989004000000000063000000dd
:10048000000000000000000000000000000000006c
:1004900063000000000000000000000000000000f9
:1004a00000000000630000000000000000000000e9
:1004b0000000000000000000349104000001000072
:1004c000010000000100000000000000200000000a
:1004d0000000000054900400889004000000000018
:1004e00080000000000000007c9004008890040060
:1004f0000000000000040000000000007c900400e8
:100500006090040000000000630000000000000094
:100510000000000000000000000000006300000078
:1005200000000000000000000000000000000000cb
:100530006300000000000000000000000000000058
:10054000000000003c9104000001000001000000d8
:10055000010000000000000000100000000000008a
:1005600054900400609004000000000000040000ab
:10057000000000007c900400609004000000000077
:1005800080000000000000007c90040088900400bf
:1005900000000000630000000000000000000000f8
:1005a00000000000000000006300000000000000e8
:1005b00000000000000000000000000063000000d8
:1005c000000000000000000000000000000000002b
:1005d000e4f20020a407000000000000a40e0220a6
:1005e000300200000100000094ee03000000000053
:1005f00002000000010000000000000000100000e8
:100600000000000098ee0300a4ee030000000000cc
:100610000004000000000000b4ee0300a4ee03009c
:10062000000000000002000000000000c0ee030017
:10063000a4ee030000000000200000000000000005
:1006400098ee0300ccee03000000000080000000e4
:1006500000000000b4ee0300ccee03000000000038
:100660000001000000000000c0ee0300ccee03001b
:1006700000000000d8ee03000001000001000000af
:100680000100000000000000200000000000000049
:1006900098ee0300dcee0300000000008000000084
:1006a00000000000b4ee0300dcee030000000000d8
:1006b0000001000000000000c0ee0300dcee0300bb
:1006c00000000000630000000000000000000000c7
:1006d00000000000000000006300000000000000b7
:1006e00000000000000000000000000063000000a7
:1006f00000000000000000000000000000000000fa
:1007000078ef03000001000001000000010000007c
:1007100000000000200000000000000098ee030030
:10072000ccee03000000000080000000000000008c
:10073000c0ee0300ccee0300000000000004000047
:1007400000000000c0ee0300a4ee03000000000063
:100750006300000000000000000000000000000036
:100760000000000063000000000000000000000026
:100770000000000000000000630000000000000016
:1007800000000000000000000000000080ef0300f7
:100790000001000001000000010000000000000056
:1007a000001000000000000098ee0300a4ee03001b
:1007b000000000000004000000000000c0ee030084
:1007c000a4ee030000000000800000000000000014
:1007d000c0ee0300ccee0300000000006300000048
:1007e0000000000000000000000000000000000009
:1007f0006300000000000000000000000000000096
:100800000000000063000000000000000000000085
:10081000000000000000000090c90020ca0800008d
:1008200000000000d410022030020000010000008f
:1008300080770400000000000200000001000000ba
:100840000000000000100000000000008477040099
:100850009077040000000000000400000000000089
:10086000a077040090770400000000000002000060
:1008700000000000ac770400907704000000000046
:10088000200000000000000084770400b877040016
:10089000000000008000000000000000a0770400bd
:1008a000b877040000000000000100000000000014
:1008b000ac770400b877040000000000c47704009f
:1008c0000001000001000000010000000000000025
:1008d000200000000000000084770400c8770400b6
:1008e000000000008000000000000000a07704006d
:1008f000c8770400000000000001000000000000b4
:10090000ac770400c877040000000000630000001a
:1009100000000000000000000000000000000000d7
:100920006300000000000000000000000000000064
:100930000000000063000000000000000000000054
:1009400000000000000000006478040000010000c6
:100950000100000001000000000000002000000075
:100960000000000084770400b87704000000000055
:100970008000000000000000ac770400b87704009d
:10098000000000000004000000000000ac7704003c
:1009900090770400000000006300000000000000e9
:1009a00000000000000000000000000063000000e4
:1009b0000000000000000000000000000000000037
:1009c00063000000000000000000000000000000c4
:1009d000000000006c78040000010000010000002d
:1009e00001000000000000000010000000000000f6
:1009f00084770400907704000000000000040000e9
:100a000000000000ac7704009077040000000000b4
:100a10008000000000000000ac770400b8770400fc
:100a20000000000063000000000000000000000063
:100a30000000000000000000630000000000000053
:100a40000000000000000000000000006300000043
:100a50000000000000000000000000000000000096
:100a60008cac0120e406000000000000c0f801206a
:100a70003102000001000000883404000000000082
:100a80000200000001000000000000000010000053
:100a9000000000008c3404009834040000000000c2
:100aa0000004000000000000a83404009834040092
:100ab000000000000002000000000000b434040048
:100ac0009834040000000000200000000000000036
:100ad0008c340400c03404000000000080000000da
:100ae00000000000a8340400c0340400000000002e
:100af0000001000000000000b4340400c034040011
:100b000000000000cc3404000001000001000000df
:100b100001000000000000002000000000000000b4
:100b20008c340400d0340400000000008000000079
:100b300000000000a8340400d034040000000000cd
:100b40000001000000000000b4340400d0340400b0
:100b50000000000063000000000000000000000032
:100b60000000000000000000630000000000000022
:100b70000000000000000000000000006300000012
:100b80000000000000000000000000000000000065
:100b90006c350400000100000100000001000000ad
:100ba0000000000020000000000000008c34040061
:100bb000c0340400000000008000000000000000bd
:100bc000b4340400c034040000000000000400003d
:100bd00000000000b4340400983404000000000059
:100be00063000000000000000000000000000000a2
:100bf0000000000063000000000000000000000092
:100c00000000000000000000630000000000000081
:100c10000000000000000000000000007435040027
:100c200000010000010000000100000000000000c1
:100c300000100000000000008c3404009834040010
:100c4000000000000004000000000000b4340400b4
:100c50009834040000000000800000000000000044
:100c6000b4340400c034040000000000630000003d
:100c70000000000000000000000000000000000074
:100c80006300000000000000000000000000000001
:100c900000000000630000000000000000000000f1
:100ca0000000000000000000010000005cd20020f5
:100cb0007c08000000000000041302203002000045
:100cc000010000006c0305000000000002000000ad
:100cd0000100000000000000001000000000000003
:100ce000700305007c030500000000000004000004
:100cf000000000008c0305007c03050000000000dc
:100d00000002000000000000980305007c030500bd
:100d1000000000002000000000000000700305003b
:100d2000a403050000000000800000000000000097
:100d30008c030500a4030500000000000001000072
:100d40000000000098030500a40305000000000057
:100d5000b0030500000100000100000001000000d8
:100d600000000000200000000000000070030500eb
:100d7000b403050000000000800000000000000037
:100d80008c030500b4030500000000000001000012
:100d90000000000098030500b403050000000000f7
:100da00063000000000000000000000000000000e0
:100db00000000000630000000000000000000000d0
:100dc00000000000000000006300000000000000c0
:100dd00000000000000000000000000050040500ba
:100de0000001000001000000010000000000000000
:100df000200000000000000070030500a4030500af
:100e000000000000800000000000000098030500c2
:100e1000a403050000000000000400000000000022
:100e2000980305007c03050000000000630000003b
:100e300000000000000000000000000000000000b2
:100e4000630000000000000000000000000000003f
:100e5000000000006300000000000000000000002f
:100e60000000000000000000580405000001000020
:100e70000100000001000000000000000010000060
:100e800000000000700305007c0305000000000066
:100e90000004000000000000980305007c0305002a
:100ea0000000000080000000000000009803050022
:100eb000a403050000000000630000000000000023
:100ec00000000000000000000000000063000000bf
:100ed0000000000000000000000000000000000012
:100ee000630000000000000000000000000000009f
:100ef00000000000c8740120080700000000000086
:100f00003415022030020000010000009098040017
:100f100000000000020000000100000000000000ce
:100f2000001000000000000094980400a098040045
:100f3000000000000004000000000000b098040061
:100f4000a098040000000000000200000000000063
:100f5000bc980400a09804000000000020000000dd
:100f60000000000094980400c898040000000000ed
:100f70008000000000000000b0980400c898040041
:100f8000000000000001000000000000bc98040008
:100f9000c898040000000000d4980400000100007c
:100fa000010000000100000000000000200000001f
:100fb0000000000094980400d8980400000000008d
:100fc0008000000000000000b0980400d8980400e1
:100fd000000000000001000000000000bc980400b8
:100fe000d89804000000000063000000000000002a
:100ff000000000000000000000000000630000008e
:1010000000000000000000000000000000000000e0
:10101000630000000000000000000000000000006d
:1010200000000000749904000001000001000000ad
:10103000010000000000000020000000000000008f
:1010400094980400c898040000000000800000008c
:1010500000000000bc980400c898040000000000d4
:101060000004000000000000bc980400a0980400e8
:10107000000000006300000000000000000000000d
:1010800000000000000000006300000000000000fd
:1010900000000000000000000000000063000000ed
:1010a0000000000000000000000000000000000040
:1010b0007c99040000010000010000000100000014
:1010c00000000000001000000000000094980400e0
:1010d000a0980400000000000004000000000000d0
:1010e000bc980400a09804000000000080000000ec
:1010f00000000000bc980400c89804000000000034
:10110000630000000000000000000000000000007c
:10111000000000006300000000000000000000006c
:10112000000000000000000063000000000000005c
:101130000000000000000000000000002c3c012026
:1011400024070000000000006417022030020000a5
:101150000100000000dc03000000000002000000ad
:10116000010000000000000000100000000000006e
:1011700004dc030010dc0300000000000004000099
:101180000000000020dc030010dc03000000000071
:1011900000020000000000002cdc030010dc030053
:1011a00000000000200000000000000004dc03003c
:1011b00038dc030000000000800000000000000098
:1011c00020dc030038dc0300000000000001000008
:1011d000000000002cdc030038dc030000000000ed
:1011e00044dc0300000100000100000001000000d9
:1011f00000000000200000000000000004dc0300ec
:1012000048dc030000000000800000000000000037
:1012100020dc030048dc03000000000000010000a7
:10122000000000002cdc030048dc0300000000008c
:10123000630000000000000000000000000000004b
:10124000000000006300000000000000000000003b
:10125000000000000000000063000000000000002b
:10126000000000000000000000000000e4dc0300bb
:10127000000100000100000001000000000000006b
:10128000200000000000000004dc030038dc030044
:101290000000000080000000000000002cdc0300c3
:1012a00038dc030000000000000400000000000023
:1012b0002cdc030010dc03000000000063000000d1
:1012c000000000000000000000000000000000001e
:1012d00063000000000000000000000000000000ab
:1012e000000000006300000000000000000000009b
:1012f0000000000000000000ecdc03000001000022
:1013000001000000010000000000000000100000cb
:101310000000000004dc030010dc030000000000fb
:1013200000040000000000002cdc030010dc0300bf
:101330000000000080000000000000002cdc030022
:1013400038dc030000000000630000000000000023
:10135000000000000000000000000000630000002a
:10136000000000000000000000000000000000007d
:10137000630000000000000000000000000000000a
:1013800000000000b0ab0020410b00000000000096
:1013900094190220300200000100000070da0400fd
:1013a000000000000200000001000000000000003a
:1013b000001000000000000074da040080da04006d
:1013c00000000000000400000000000090da0400ab
:1013d00080da0400000000000002000000000000ad
:1013e0009cda040080da0400000000002000000005
:1013f0000000000074da0400a8da04000000000015
:10140000800000000000000090da0400a8da040068
:101410000000000000010000000000009cda040051
:10142000a8da040000000000b4da040000010000a3
:10143000010000000100000000000000200000008a
:101440000000000074da0400b8da040000000000b4
:10145000800000000000000090da0400b8da040008
:101460000000000000010000000000009cda040001
:10147000b8da040000000000630000000000000073
:1014800000000000000000000000000063000000f9
:10149000000000000000000000000000000000004c
:1014a00063000000000000000000000000000000d9
:1014b0000000000054db04000001000001000000f7
:1014c00001000000000000002000000000000000fb
:1014d00074da0400a8da04000000000080000000b4
:1014e000000000009cda0400a8da040000000000fc
:1014f00000040000000000009cda040080da040010
:101500000000000063000000000000000000000078
:101510000000000000000000630000000000000068
:101520000000000000000000000000006300000058
:1015300000000000000000000000000000000000ab
:101540005cdb04000001000001000000010000005d
:1015500000000000001000000000000074da040029
:1015600080da040000000000000400000000000019
:101570009cda040080da0400000000008000000013
:10158000000000009cda0400a8da0400000000005b
:1015900063000000000000000000000000000000e8
:1015a00000000000630000000000000000000000d8
:1015b00000000000000000006300000000000000c8
:1015c000000000000000000000000000b0660120e4
:1015d0000907000000000000e8e601203e020000cc
:1015e00001000000d0a00400000000000200000084
:1015f00001000000000000000010000000000000da
:10160000d4a00400e0a004000000000000040000da
:1016100000000000f0a00400e0a0040000000000b2
:101620000002000000000000fca00400e0a0040094
:10163000000000002000000000000000d4a0040012
:1016400008a104000000000080000000000000006d
:10165000f0a0040008a10400000000000001000048
:1016600000000000fca0040008a10400000000002d
:1016700014a10400000100000100000001000000ae
:10168000000000002000000000000000d4a00400c2
:1016900018a104000000000080000000000000000d
:1016a000f0a0040018a104000000000000010000e8
:1016b00000000000fca0040018a1040000000000cd
:1016c00063000000000000000000000000000000b7
:1016d00000000000630000000000000000000000a7
:1016e0000000000000000000630000000000000097
:1016f000000000000000000000000000b4a1040091
:1017000000010000010000000100000000000000d6
:101710002000000000000000d4a0040008a1040084
:10172000000000008000000000000000fca0040099
:1017300008a10400000000000004000000000000f8
:10174000fca00400e0a00400000000006300000012
:101750000000000000000000000000000000000089
:101760006300000000000000000000000000000016
:101770000000000063000000000000000000000006
:101780000000000000000000bca1040000010000f7
:101790000100000001000000000000000010000037
:1017a00000000000d4a00400e0a00400000000003d
:1017b0000004000000000000fca00400e0a0040001
:1017c000000000008000000000000000fca00400f9
:1017d00008a10400000000006300000000000000f9
:1017e0000000000000000000000000006300000096
:1017f00000000000000000000000000000000000e9
:101800006300000000000000000000000000000075
:1018100000000000284e4f575452290028575452b8
:1018200029000000600901205107000000000000ad
:10183000c41b0220300200000100000000ca0400a6
:101840000000000002000000010000000000000095
:10185000001000000000000004ca040010ca0400c8
:1018600000000000000400000000000020ca040086
:1018700010ca040000000000000200000000000088
:101880002cca040010ca0400000000002000000060
:101890000000000004ca040038ca04000000000070
:1018a000800000000000000020ca040038ca0400c4
:1018b0000000000000010000000000002cca04002d
:1018c00038ca04000000000044ca040000010000ff
:1018d00001000000010000000000000020000000e6
:1018e0000000000004ca040048ca04000000000010
:1018f000800000000000000020ca040048ca040064
:101900000000000000010000000000002cca0400dc
:1019100048ca04000000000063000000000000004e
:101920000000000000000000000000006300000054
:1019300000000000000000000000000000000000a7
:101940006300000000000000000000000000000034
:1019500000000000e4ca04000001000001000000d3
:101960000100000000000000200000000000000056
:1019700004ca040038ca040000000000800000000f
:10198000000000002cca040038ca04000000000057
:1019900000040000000000002cca040010ca04006b
:1019a00000000000630000000000000000000000d4
:1019b00000000000000000006300000000000000c4
:1019c00000000000000000000000000063000000b4
:1019d0000000000000000000000000000000000007
:1019e000ecca04000001000001000000010000003a
:1019f00000000000001000000000000004ca040005
:101a000010ca0400000000000004000000000000f4
:101a10002cca040010ca040000000000800000006e
:101a2000000000002cca040038ca040000000000b6
:101a30006300000000000000000000000000000043
:101a40000000000063000000000000000000000033
:101a50000000000000000000630000000000000023
:101a6000000000000000000000000000905801206d
:101a70001107000000000000f41d022030020000e9
:101a800001000000e01b0500000000000200000053
:101a90000100000000000000001000000000000035
:101aa000e41b0500f01b050000000000000400001e
:101ab00000000000001c0500f01b050000000000f5
