:020000040000fa
:10c00000f0ff032021bb06008f87060023da06001d
:10c010008f8706001dda06008f87060000000000eb
:10c020000000000000000000000000001d340600b9
:10c030008f8706000000000089360600f7360600ec
:10c040008f8706008f8706008f8706008f87060080
:10c050008f8706008f8706008f8706008f87060070
:10c060008f8706008f8706008f87060039be030082
:10c070008f8706008f8706008f8706008f87060050
:10c080008f8706008f8706008f8706008f87060040
:10c090008f8706008f8706008f8706008f87060030
:10c0a0008f8706008f8706008f8706008f87060020
:10c0b0008f8706008f8706008f8706008f87060010
:10c0c0008f8706008f8706008f8706008f87060000
:10c0d0008f8706008f8706008f8706008f870600f0
:10c0e0008f8706008f870600000000000000000018
:10c0f00000000000797c06008f8706008f8706000d
:10c100008f8706008f8706008f8706008f870600bf
:10c110008f8706008f870600957b0100ad7b0100ad
:10c12000c57b01008f8706008f8706008f8706007a
:10c130008f8706008f8706008f8706008f8706008f
:10c140008f8706008f870600f57b01000d7c0100bc
:10c15000257c01008f8706008f8706008f870600e9
:10c160008f8706008f8706008f8706008f8706005f
:10c170008f8706008f8706008f8706008f8706004f
:10c180008f8706008f8706008f8706008f8706003f
:10c190008f8706008f8706008f8706008f8706002f
:10c1a0008f8706008f8706008f8706008f8706001f
:10c1b0008f8706008f8706008f8706008f8706000f
:10c1c0008f8706008f8706008f8706008f870600ff
:10c1d0008f8706008f8706008f8706008f870600ef
:10c1e0008f8706008f8706008f8706008f870600df
:10c1f0008f8706008f8706008f8706008f870600cf
:10c200008f8706008f8706008f8706008f870600be
:10c210008f8706008f8706008f8706003d85060002
:10c220008f8706008f8706008f8706008f8706009e
:10c230008f8706008f8706008f8706008f8706008e
:10c240008f8706008f8706008f8706008f8706007e
:10c250008f8706008f8706008f8706008f8706006e
:04c260008f870600be
:020000040000fa
:10c2640003970181b0b00884000000000d9701819c
:10c27400b0b00b840000000009970181b0b00b84ba
:10c284000000000003970181b0b0088400000000a2
:10c2940003970181b0b00884000000000197018178
:10c2a400b0b008840000000001970181b0b0088498
:10c2b4000000000001970181b0b008840000000074
:10c2c40001970181b0b00884000000000397018148
:10c2d400b0b008840000000003970181b0b0088466
:10c2e4000000000003970181b0b008840000000042
:10c2f40001970181b0b0088400000000019701811a
:10c30400b0b008840000000005970181b0b0088433
:10c314000000000001970181b0b008840000000013
:10c3240002970181b0b009840000000001970181e7
:10c33400b0b008840000000001970181b0b0088407
:10c344000000000003970181b0b0088400000000e1
:10c3540001970181b0b008840000000001970181b9
:10c36400b0b008840000000001970181b0b00884d7
:10c374000000000001970181b0b0088400000000b3
:10c3840003970181b0b00884000000000397018185
:10c39400b0b008840000000003970181b0b00884a5
:10c3a4000000000003970181b0b008840000000081
:10c3b40004970181b0b00984000000000597018151
:10c3c400b0b008840000000005970181b0b0088473
:10c3d4000000000001970181b0b008840000000053
:10c3e40001970181b0b00884000000000397018127
:10c3f400b0b008840000000003970181b0b0088445
:10c404000000000001970181b0b008840000000022
:10c4140001970181b0b008840000000005970181f4
:10c42400b0b008840000000003970181b0b0088414
:10c434000000000003970181b0b0088400000000f0
:10c4440003970181b0b008840000000003970181c4
:10c45400b0b008840000000001970181b0b00884e6
:10c464000000000001970181b0b0088400000000c2
:10c4740003970181b0b00884000000000197018196
:10c48400b0b008840000000001970181b0b00884b6
:10c494000000000003970181b0b008840000000090
:10c4a40001970181b0b00884000000000397018166
:10c4b400b0b008840000000003970181b0b0088484
:10c4c4000000000003970181b0b008840000000060
:10c4d40009970181b0b0088400000000039701812e
:10c4e400b0b008840000000001970181b0b0088456
:10c4f4000000000003970181b0b008840000000030
:10c504000b970181b0b008840000000005970181f9
:10c51400b0b008840000000001970181b0b0088425
:10c524000000000004970181b0b0098400000000fd
:10c5340004970181b0b009840000000001970181d3
:10c54400b0b008840000000002970181b0b00984f3
:10c554000000000001970181b0b0088400000000d1
:10c5640001970181b0b008840000000005970181a3
:10c57400b0b008840000000001970181b0b00884c5
:10c584000000000003970181b0b00884000000009f
:10c5940001970181b0030884000000000197018124
:10c5a400b0b008840000000007970181b0b008848f
:10c5b4000000000001970181b0b008840000000071
:10c5c40001970181b0b00884000000000597018143
:10c5d400b0b008840000000005970181b0b0088461
:10c5e4000000000001970181b0b008840000000041
:10c5f40001970181b0b00884000000000397018115
:10c60400b0b008840000000003970181b0b0088432
:10c614000000000003970181b0b00884000000000e
:10c6240007970181b0b008840000000007970181da
:10c63400b0b008840000000006970181b0b00984fe
:10c644000000000005970181b0b0088400000000dc
:10c6540003970181b0b008840000000001970181b4
:10c66400b0b008840000000001970181b0b00884d4
:10c674000000000005970181b0b0088400000000ac
:10c6840001970181b0b00884000000000597018182
:10c69400b0b008840000000003970181b0b00884a2
:10c6a400000000000d970181b0b008840000000074
:10c6b40009970181b0b00884000000000997018146
:10c6c400b0b008840000000002970181b0b0098472
:10c6d4000000000001970181b0b03b84000000001d
:10c6e40003970181b0b03b840000000003970181ef
:10c6f400b0b008840000000003970181b0b0088442
:10c704000000000003970181b0b00884000000001d
:10c7140003970181b0b008840000000003970181f1
:10c72400b0b008840000000005970181b0b008840f
:10c734000000000003970181b0b0088400000000ed
:10c7440001970181b0b008840000000001970181c5
:10c75400b0b008840000000001970181b0b00884e3
:10c764000000000001970181b0b0088400000000bf
:10c7740001970181b0b00884000000000197018195
:10c78400b0b00b840000000001970181b0b00b84ad
:10c794000000000001970181b0b00b84000000008c
:10c7a40001970181b0b00884000000000597018161
:10c7b400b0b008840000000001970181b0b0088483
:10c7c4000000000009970181b0b008840000000057
:10c7d40001970181b0030b840000000004970181dc
:10c7e400b0030984000000000d970181b0b00884f3
:10c7f4000000000005970181b0b00884000000002b
:10c8040005970181b0b008840000000007970181fa
:10c81400b0b008840000000003970181b0b0088420
:10c824000000000003970181b0b0088400000000fc
:10c8340005970181b0b008840000000009970181c8
:10c84400b0b008840000000005970181b0b00884ee
:10c854000000000005970181b0b0088400000000ca
:10c8640006970181b0b0098400000000019701819e
:10c87400b0b008840000000005970181b0b00884be
:10c884000000000007970181b0b008840000000098
:10c8940007970181b0b00884000000000797018168
:10c8a400b0b008840000000007970181b0b008848c
:10c8b4000000000007970181b0b008840000000068
:10c8c40001970181b0b00884000000000597018140
:10c8d400b0b00b840000000005970181b0b008845b
:10c8e4000000000001970181b0b00884000000003e
:10c8f40001970181b0b00884000000000197018114
:10c90400b0b008840000000003970181b0b008842f
:10c914000000000003970181b0b00884000000000b
:10c9240003970181b0b008840000000001970181e1
:10c93400b0b008840000000001970181b0b0088401
:10c944000000000001970181b0b0088400000000dd
:10c9540003970181b0b00b840000000001970181ae
:10c96400b0b008840000000001970181b0b00884d1
:10c97400000000000d970181b0b0088400000000a1
:10c9840001970181b0b00884000000000197018183
:10c99400b0b008840000000001970181b0b00884a1
:10c9a4000000000005970181b0b008840000000079
:10c9b40005970181b0b0088400000000059701814b
:10c9c400b0b008840000000001970181b0b0088471
:10c9d4000000000004970181b0b009840000000049
:10c9e40001970181b0b00884000000000197018123
:10c9f400b0b008840000000001970181b0b0088441
:10ca04000000000007970181b0b008840000000016
:10ca140003970181b0b008840000000001970181f0
:10ca2400b0b008840000000001970181b0b0088410
:10ca34000000000002970181b0b0098400000000ea
:10ca440008970181b0b009840000000005970181b6
:10ca5400b0b008840000000001970181b0b00b84dd
:10ca64000000000001970181b0b0088400000000bc
:10ca740001970181b0b00884000000000197018192
:10ca8400b0b008840000000001970181b0b00884b0
:10ca94000000000001970181b0b00884000000008c
:10caa40001970181b0b00884000000000197018162
:10cab400b0b008840000000001970181b0b0088480
:10cac4000000000001970181b0b00884000000005c
:10cad40006970181b0b00984000000000597018128
:10cae400b0b008840000000001970181b0b0088450
:10caf4000000000001970181b0b00884000000002c
:10cb040005970181b0b008840000000001970181fd
:10cb1400b0b008840000000001970181b0b008841f
:10cb24000000000005970181b0b0088400000000f7
:10cb340001970181b0b008840000000001970181d1
:10cb4400b0b008840000000001970181b0b00884ef
:10cb54000000000001970181b0b0088400000000cb
:10cb64000b970181b0b00884000000000597018193
:10cb7400b0b008840000000001970181b0b00884bf
:10cb84000000000001970181b0b00884000000009b
:10cb940001970181b0b00884000000000197018171
:10cba400b0b008840000000001970181b0b008848f
:10cbb4000000000008b10181b0b000840000000052
:10cbc40008b10181b0b0008400000000f8b500bfd6
:10cbd400f8bc08bc9e46704711d8060015c2060072
:10cbe4002577030005260300394d06004d33060062
:10cbf40019cd0500d95a0200cd910600f181030038
:10cc0400318302009d8c030071530500596c0300ad
:10cc140081f0050041fc02000d41060051ed0300c6
:10cc240061dd02003d99050089e90500d913020080
:10cc340025820500fdec020029040600453f03009f
:10cc440081db0500d5c50500fd9602008de20500d7
:10cc5400bd72050031b70500eda00500d9960300ab
:10cc6400910a03005da8050001a1030065f7050012
:10cc740039630500594b0500d9890500056b05008a
:10cc84008d910500f1c70300cdaf050059d405000f
:10cc9400bdda0300f8b500bff8bc08bc9e46704777
:04cca400f1c10600d4
:020000040000fa
:10cca800602c010001000000e82c010034fcff7f2b
:10ccb800b82e010001000000f42e010030fcff7fb7
:10ccc8000830010001000000403001002cfcff7f0b
:10ccd8000c3101000100000040310100010000009a
:10cce8008431010001000000303201000100000021
:10ccf8006c320100010000009832010001000000c0
:10cd0800f832010000fcff7f4834010001000000f8
:10cd1800b8340100fcfbff7f783a010001000000f5
:10cd2800e83a0100f8fbff7f883f0100fcfbff7f2a
:10cd3800e03f010000fcff7f5040010001000000bf
:10cd48009046010001000000007901000100000088
:10cd580020790100010000003a790100010000007b
:10cd68005a790100010000007a79010001000000f1
:10cd78009679010001000000b67901000100000069
:10cd8800d2790100010000002a7a010001000000a8
:10cd9800807a010001000000d27a01000100000041
:10cda8000e7b0100010000004a7b01000100000029
:10cdb8006a7b0100010000002c7c01004cf7ff7f1a
:10cdc800887c010001000000187d010001000000be
:10cdd800887d010001000000ae7d01000100000017
:10cde800c07d010001000000ea7d010028f7ff7ff7
:10cdf8001a7e01002cf7ff7fe07e010030f7ff7fed
:10ce08007481010001000000188201000100000087
:10ce18004883010024f7ff7f2284010028f7ff7f61
:10ce280050860100010000007286010024f7ff7f90
:10ce38008886010028f7ff7fae8601000100000008
:10ce4800f286010001000000888c0100010000004a
:10ce5800908c010001000000b08c0100010000006e
:10ce6800ca8c010001000000ea8c010001000000ea
:10ce78000a8d010001000000268d0100010000005c
:10ce8800468d010001000000628d010001000000d4
:10ce9800ba8d010001000000108e010001000000a1
:10cea800628e010001000000828e01000100000076
:10ceb800448f010001000000788f010048f4ff7fd3
:10cec800d48f01000100000044900100010000001f
:10ced8005690010001000000809001000100000050
:10cee800aa9001002cf4ff7fda90010030f4ff7f54
:10cef80010930100010000003c93010001000000b4
:10cf08005293010001000000689301000100000035
:10cf18007e93010014f4ff7f9493010018f4ff7fbf
:10cf2800aa93010001000000c09301000100000065
:10cf3800dc93010001000000f093010004f4ff7f7e
:10cf4800b895010008f4ff7fe29501000cf4ff7f1b
:10cf58000c960100010000002496010008f4ff7ff0
:10cf6800c29601000cf4ff7fec96010010f4ff7fdd
:10cf780010970100010000007098010001000000f6
:10cf8800d098010001000000bc990100fcf3ff7f6c
:10cf9800da99010000f4ff7ff899010004f4ff7f9b
:10cfa800169a010001000000889a010001000000a3
:10cfb800e69a0100f8f3ff7ff49b010001000000ee
:10cfc8001c9c010001000000989c0100ecf3ff7f0d
:10cfd800569d010001000000a49d01000100000011
:10cfe800b89d010001000000cc9d01000100000077
:10cff800e09d010001000000f49d01000100000017
:10d00800189e010001000000449e0100010000007c
:10d01800929e010001000000d89e0100010000005e
:10d02800fc9e0100010000001c9f0100010000009f
:10d038003c9f010001000000709f010001000000fa
:10d048009a9f01000100000020a00100ab12978008
:10d058007ca2010040f6ff7feaa2010044f6ff7fb0
:10d06800a6a3010048f6ff7f24a401004cf6ff7f29
:10d078000ca5010050f6ff7ff4a7010054f6ff7fce
:10d08800f8a8010058f6ff7f50ac0100010000002d
:10d0980098b2010001000000a0b2010001000000e8
:10d0a800d4b20100010000004cb301003cf9ff7f3d
:10d0b80048b6010040f9ff7f88b6010044f9ff7fb8
:10d0c8005cb9010048f9ff7f44ba01004cf9ff7fc1
:10d0d800a8ba010050f9ff7f14bb0100010000004d
:10d0e800f0bb01004cf9ff7f3cbe0100ac0197800a
:10d0f80034bf010001000000fcc501000100000070
:10d10800aceb010001000000cceb010001000000c5
:10d11800e6eb01000100000006ec01000100000040
:10d1280026ec01000100000042ec010001000000b3
:10d1380062ec0100010000007eec0100010000002b
:10d14800d6ec0100010000002ced010001000000f8
:10d158007eed010001000000baed010001000000b1
:10d16800f6ed01000100000016ee010001000000cc
:10d17800d8ee0100010000000cef010048f2ff7f2b
:10d1880068ef010001000000f8ef01000100000055
:10d1980068f00100010000008ef0010001000000ad
:10d1a800a0f0010001000000caf001000100000029
:10d1b800f4f001001cf2ff7f24f1010001000000df
:10d1c80032f1010001000000a6f2010010f2ff7f19
:10d1d800eef2010014f2ff7f4ef3010018f2ff7f18
:10d1e800a0f301001cf2ff7fdcf301000100000046
:10d1f800f0f301000100000004f401000100000048
:10d2080018f40100010000002cf4010001000000e6
:10d2180040f401000100000054f401000100000086
:10d228003af50100010000004ef50100e0f1ff7f32
:10d2380066f50100e4f1ff7f96f50100e8f1ff7f54
:10d2480028f60100ecf1ff7f5ef60100f0f1ff7fa8
:10d258002cf90100f4f1ff7f5cf90100f8f1ff7f80
:10d268006ef90100fcf1ff7f80f9010000f2ff7ff9
:10d27800bef90100010000000afa0100fcf1ff7f7d
:10d288002efa010000f2ff7f52fa010004f2ff7f3c
:10d298009cfa0100ecf5ff7f14fc0100f0f5ff7f1c
:10d2a80034fe0100f4f5ff7fbcff0100f8f5ff7fb5
:10d2b800e0010200fcf5ff7f1004020000f6ff7f8a
:10d2c8008404020001000000900a0200010000002e
:10d2d800980a02006cf6ff7fc00b020070f6ff7f11
:10d2e800640d020001000000ac0d02006cf6ff7f27
:10d2f800d00e020070f6ff7fd81102000100000076
:10d308000c1202006cf6ff7fdc13020070f6ff7f40
:10d318004414020001000000dc19020001000000b2
:10d32800e419020001000000401a02000100000098
:10d33800aa1a0200010000001e1b020001000000e2
:10d348006a1b020088f4ff7fa81b02008cf4ff7f91
:10d35800e61d020001000000f21d020088f4ff7fb4
:10d36800342202008cf4ff7fce22020090f4ff7f6b
:10d378002423020001000000602302008cf4ff7fd8
:10d388001824020090f4ff7f3c24020094f4ff7fed
:10d398007824020098f4ff7fd02402009cf4ff7fd9
:10d3a800c0260200a0f4ff7f18270200a4f4ff7f24
:10d3b80070270200a8f4ff7f222802000100000065
:10d3c800422802000100000070280200010000004d
:10d3d80078280200010000009828020001000000df
:10d3e800b828020001000000d8280200010000004f
:10d3f800f828020001000000502902000100000086
:10d40800a629020001000000f8290200010000001e
:10d41800342a020001000000542a02000100000022
:10d42800182b0200010000004c2b02000100000034
:10d43800bc2b020001000000dc2b020001000000f0
:10d44800fc2b0200010000000e2c0200010000006d
:10d45800382c020001000000622c020001000000cc
:10d46800142d020020f6ff7f642d020024f6ff7fb2
:10d47800dc2f02000100000010360200010000004d
:10d48800644402000100000084440200010000001e
:10d49800a444020001000000c4440200010000008e
:10d4a800e4440200010000003c45020001000000c5
:10d4b8009245020001000000e4450200010000005e
:10d4c8000446020001000000c846020001000000f6
:10d4d800fc460200010000006c4702000100000049
:10d4e8007e47020001000000a8470200010000007a
:10d4f800d2470200010000000648020090edff7fbd
:10d508005448020094edff7f8248020098edff7fa7
:10d51800964802009cedff7fc6480200a0edff7f01
:10d52800ec480200ae119780784b02009cedff7f1b
:10d53800b44b020001000000ce4b020001000000c5
:10d54800de4b020001000000ee4b0200010000006b
:10d55800164c020080edff7f3a4c020001000000eb
:10d568009c50020001000000a45d020028f4ff7f27
:10d57800c85e02002cf4ff7f8460020030f4ff7f55
:10d588004062020001000000746202002cf4ff7f78
:10d59800b863020030f4ff7f046402000100000059
:10d5a8009c69020001000000e88b0200ccf1ff7fbb
:10d5b800908c0200d0f1ff7f788e0200d4f1ff7fbb
:10d5c800c0900200010000008896020001000000df
:10d5d8009096020088ecff7fd096020001000000c0
:10d5e8000c97020084ecff7f8899020088ecff7f8b
:10d5f8000c9a02008cecff7f7c9a020008849780ca
:10d60800c49a02000100000014a1020001000000f9
:10d618001ca1020074f0ff7fe4a4020001000000d6
:10d62800c8ab020001000000d0ab020010f1ff7f80
:10d638008cac020014f1ff7fdcad020018f1ff7f13
:10d648001caf02001cf1ff7f64b002000100000063
:10d6580044b60200010000004cb6020010f4ff7f3f
:10d66800c8b6020014f4ff7f00ba020001000000ef
:10d6780060c002000100000068c0020038f4ff7fab
:10d6880088c002003cf4ff7f78c40200010000005b
:10d6980068ca02000100000070ca02000100000010
:10d6a8007cca020001000000d4ca02000100000088
:10d6b800f4ca0200b0a902808ccb0200b0b0a880e6
:10d6c800dccb020001000000e0cb020001000000fa
:10d6d800dccb020001000000d8cb0200b0b0aa8069
:10d6e80010cc0200ae71b280e0cc02000100000054
:10d6f800dccc0200ab3f388034cd020001000000d2
:10d7080040cd0200b0b0aa807ccd0200010000002c
:10d7180084cd02000100000080cd0200010000005d
:10d7280084cd020001000000b0cd0200010000001d
:10d73800c0cd020001000000eccd02000100000095
:10d7480000ce0200ab0eb28068ce0200b0af0a80f5
:10d7580030d10200010000002cd1020001000000bd
:10d7680028d102000100000024d10200ab3f048050
:10d77800d8e602000100000010e70200ecf3ff7f8a
:10d78800acea02000100000060f0020001000000a5
:10d79800d8f9020001000000f8f9020001000000b9
:10d7a80018fa0200010000004cfa02000100000013
:10d7b80076fa0200d8f3ff7f3cfb0200dcf3ff7f20
:10d7c80000fc0200e0f3ff7f0cfd020001000000f6
:10d7d800e402030001000000480c030001000000ff
:10d7e800340d030001000000700d030088f0ff7f76
:10d7f8009c0f030001000000501503000100000009
:10d80800d452030001000000f4520300010000009c
:10d818000e530300010000002e5303000100000016
:10d828004e530300010000006a530300010000008a
:10d838008a53030001000000a65303000100000002
:10d84800c6530300010000008854030001000000d3
:10d85800bc54030080edff7f185503000100000051
:10d8680042550300010000006c55030074edff7f72
:10d878009c55030001000000c4550300010000008e
:10d88800f655030068edff7f6a5603006cedff7fd5
:10d89800ae56030070edff7ff856030074edff7f6e
:10d8a8003c57030001000000a457030070edff7f00
:10d8b8009a58030074edff7f9459030078edff7fb9
:10d8c800ec5903007cedff7f225a030001000000a1
:10d8d8004a5a030001000000788403000100000098
:10d8e8009884030001000000b284030001000000d6
:10d8f800d284030001000000f2840300010000004c
:10d908000e850300010000002e85030001000000c1
:10d918004a85030001000000a28503000100000001
:10d92800f8850300010000004a860300010000009a
:10d938008686030001000000c28603000100000083
:10d94800e286030001000000a48703000100000034
:10d95800d887030054eeff7f3488030001000000dd
:10d96800c48803000100000034890300010000009e
:10d978005a890300010000006c89030001000000bf
:10d988009689030001000000c089030028eeff7f8c
:10d99800f089030001000000c28a030024eeff7f23
:10d9a800eca40300010000000ca503000100000026
:10d9b80026a503000100000046a5030001000000a1
:10d9c80066a503000100000082a503000100000015
:10d9d800a2a5030001000000bea50300010000008d
:10d9e80016a60300010000006ca603000100000059
:10d9f800bea6030001000000dea60300010000002f
:10da0800a0a7030001000000d4a703005cebff7f80
:10da180030a8030001000000a0a8030001000000d6
:10da2800b2a8030001000000dca803000100000008
:10da380006a9030040ebff7f36a9030044ebff7ff4
:10da4800f8a9030048ebff7f28aa03004cebff7fef
:10da58004caa030050ebff7f90ab030001000000cd
:10da6800b0ab03004cebff7fd6ab03000100000016
:10da7800eaab030001000000feab030040ebff7fb0
:10da880012ac030001000000bc68040001000000a3
:10da9800d668040001000000f268040001000000dc
:10daa8000e69040058f0ff7f686904005cf0ff7f8e
:10dab80098690400088497805c6a040058f0ff7f26
:10dac800d46a04000100000088700400010000000e
:10dad8009070040001000000d470040001000000f0
:10dae8007c71040088ecff7fe072040001000000f4
:10daf80078780400010000006c8004000100000038
:10db08008680040001000000a280040001000000db
:10db1800be800400c4efff7f18810400c8efff7fb8
:10db28004881040008849780cc810400c4efff7ffb
:10db38004482040001000000f8870400010000008e
:10db480000880400010000006889040004f0ff7fd9
:10db5800f089040001000000a48f04000100000007
:10db6800ac8f040001000000f88f040001000000e1
:10db780044900400d4eeff7f689104000100000087
:10db88003497040001000000f09e0400010000002a
:10db9800189f040001000000209f040001000000fd
:10dba8002c9f0400ab109780b8a00400010000006f
:10dbb8006ca604000100000074a604000100000027
:10dbc8008ea6040001000000aaa6040001000000bf
:10dbd800c6a604004cefff7f20a7040050efff7f8c
:10dbe80050a7040054efff7faca7040058efff7f55
:10dbf80024a8040001000000d8ad040001000000c2
:10dc0800e0ad04000100000058ae040050efff7fb3
:10dc1800b8af0400010000006cb50400010000006a
:10dc280074b50400a4ecff7f0cb7040001000000e9
:10dc380004bd0400010000000cbd04000100000048
:10dc480050bd040001000000e8bd040014eeff7f91
:10dc5800f4be0400010000008cc4040001000000b0
:10dc680094c4040038eeff7fc8c404003ceeff7f74
:10dc780000c6040001000000dccb04000100000025
:10dc8800e4cb04000100000014cc0400e8eeff7fa0
:10dc980078cd0400010000002cd30400010000002e
:10dca80034d304000100000054d30400a8edff7f22
:10dcb800acd404000100000070da04000100000088
:10dcc80078da04000100000098da0400010000007e
:10dcd800b8da040001000000d8da040001000000ee
:10dce800f8da04000100000050db04000100000025
:10dcf800a6db040001000000f8db040001000000be
:10dd080034dc04000100000054dc040001000000c1
:10dd180018dd0400010000004cdd040001000000d3
:10dd2800bcdd040001000000dcdd0400010000008f
:10dd3800fcdd0400010000000ede0400010000000c
:10dd480038de04000100000062de040000e9ff7f05
:10dd580028df040004e9ff7f4cdf040008e9ff7fa7
:10dd68006adf0400010000007cdf040001000000fd
:10dd780090df040001000000a0df040001000000a3
:10dd8800aedf0400ece8ff7fd4e0040001000000ef
:10dd9800e8e0040001000000fce0040001000000cd
:10dda80030e1040038ecff7f84e204000100000049
:10ddb8001ce804000100000024e80400e0e6ff7ffe
:10ddc800c0e8040001000000ece8040001000000c5
:10ddd80014e90400010000002ee90400cce6ff7fee
:10dde80084e90400ac07978024ea0400c8e6ff7fb2
:10ddf80066ea0400cce6ff7fb0ea0400d0e6ff7fc5
:10de080066eb04000100000076eb0400010000004e
:10de180086eb0400c4e6ff7f40ec0400010000002c
:10de280078ec0400c0e6ff7f8eec040001000000df
:10de3800c0ec0400bce6ff7ff4ec0400c0e6ff7f02
:10de48009cee040001000000c8ee04000100000080
:10de5800d0ee04000100000000ef040024edff7f75
:10de680034f0040001000000e8f50400010000009f
:10de7800f0f504000100000030f6040054ebff7fc9
:10de880058f7040001000000f0fc04000100000045
:10de9800f8fc0400010000002cfd0400a0ebff7f4b
:10dea80028fe040001000000dc030500010000005a
:10deb800e4030500010000001c04050018eaff7fc8
:10dec8000405050001000000b80a05000100000073
:10ded800c00a0500c8e8ff7fe80b05000100000044
:10dee8009811050001000000a011050001000000c4
:10def800d4110500d8ebff7fa8120500010000002f
:10df08005c18050001000000201f05007ceaff7f67
:10df1800581f050001000000082505000100000049
:10df28009030050001000000b0300500010000003d
:10df3800d030050001000000f030050001000000ad
:10df480010310500010000006831050001000000e3
:10df5800be3105000100000010320500010000007c
:10df68003032050001000000f43205000100000015
:10df78002833050001000000983305000100000067
:10df8800aa33050001000000d43305000100000099
:10df9800fe33050001000000803405000100000088
:10dfa8009a34050001000000b434050001000000a7
:10dfb800ce34050001000000f43405000100000023
:10dfc8002635050001000000543505000100000059
:10dfd800b435050001000000e4350500010000002b
:10dfe8002836050001000000643605000100000025
:10dff8008c36050001000000023705000100000012
:10e008006837050001000000ee3705000100000038
:10e01800e238050001000000083a05000100000090
:10e02800a849050001000000c849050001000000da
:10e03800e849050001000000084a05000100000049
:10e04800284a050001000000484a050001000000b8
:10e05800a04a050001000000f64a05000100000082
:10e06800484b050001000000684b05000100000056
:10e078002c4c050001000000604c05000100000068
:10e088007c4c050001000000ec4c0500010000007c
:10e09800fe4c050001000000284d050001000000ad
:10e0a800524d050001000000744d050001000000fc
:10e0b800a84d050001000000bc4d0500010000004e
:10e0c800d04d050001000000e44d050001000000ee
:10e0d8000a4e0500010000006c5205000100000016
:10e0e800a85b050001000000f05b050001000000ce
:10e0f800405c050001000000785c0500010000009c
:10e10800945c050001000000d05c050001000000df
:10e11800f25c050001000000145d0500010000002c
:10e12800505d0500010000009c5d05000100000035
:10e13800bc5d050001000000fc5d05000100000059
:10e14800585e050001000000b85e050001000000ef
:10e15800145f050001000000205f050001000000b9
:10e16800305f050001000000445f05000100000069
:10e17800945f050001000000c86705000100000069
:10e18800586805005ce1ff7fc869050060e1ff7f12
:10e19800526a050064e1ff7fd26a050001000000b1
:10e1a800906b0500010000001c77050001000000cd
:10e1b8004c770500008404806077050001000000aa
:10e1c8005c770500b0ad0480247a0500b0a8038010
:10e1d800447a0500dce9ff7f487a0500e0e9ff7f23
:10e1e800547a050001000000547a0500010000007f
:10e1f800908d05000100000080a3050001000000cb
:10e20800b2a3050001000000c4a30500010000003e
:10e21800d4a3050001000000e4a3050001000000ec
:10e22800f4a305000100000004a40500010000009b
:10e238001ea405000100000036a40500010000002e
:10e2480062a40500010000007aa405000100000096
:10e2580096a4050001000000b2a40500010000001a
:10e26800e0a4050001000000e4ad05000100000085
:10e2780030ae050008e4ff7fa4ae050001000000f1
:10e2880044af0500010000004caf0500010000008c
:10e298005aaf05000100000070af05000100000042
:10e2a80080af050044e4ff7f9caf050048e4ff7f92
:10e2b800b8af05004ce4ff7fd4af050050e4ff7f02
:10e2c800f0af050054e4ff7f0cb0050058e4ff7f71
:10e2d80040b005005ce4ff7f6cb005000100000061
:10e2e80078b005000100000086b00500dce2ff7f81
:10e2f800d4b00500010000008eb105000100000047
:10e3080058c705000100000080c705000100000093
:10e31800b2c7050001000000e4c7050001000000c5
:10e3280054de05000100000098e605003ce5ff7f8b
:08e33800b8f20500010000002d
:020000040000fa
:10e340005ca00020040000000100000000000000ac
:10e350006c3a02201c00000000000000003b02207c
:10e360000400000001000000006cdc02043b0220fd
:10e370000400000000000000f83a02200500000040
:10e3800000000000083b0220040000000000000024
:10e390000c3b0220040000000000000000000020f0
:10e3a00024020000000000002402002010000000f1
:10e3b00000000000143a02203000000001000000bc
:10e3c0000200000004001040000003000200700082
:10e3d000b9fc00000000000005000000140020004f
:10e3e00000010000353600000000d700001bb70018
:10e3f000a43a02201800000000000000103b022098
:10e400000400000001000000aaaaaaaad83a02202b
:10e410000800000000000000143b0220040000007f
:10e4200001000000389c000008040020549c0000fb
:10e4300000000000843602200401000000000000fb
:10e44000343902203c00000000000000403502206a
:10e450004401000000000000bc3a0220100000004f
:10e46000010000003031323334353637383941421b
:10e4700043444546d8d701201104000000000000a5
:10e4800034020020a80000000000000094ce01200b
:10e490001b05000000000000dc0200200800000056
:10e4a00000000000a8390220350000000000000034
:10e4b000e40200201001000000000000e03a022009
:10e4c0000800000000000000f4fa01203002000003
:10e4d0000100000094f204000000000002000000af
:10e4e000010000000000000000100000000000001b
:10e4f00098f20400a4f204000000000000040000f0
:10e5000000000000b4f20400a4f2040000000000c7
:10e510000002000000000000c0f20400a4f20400a9
:10e5200000000000200000000000000098f204003d
:10e53000ccf2040000000000800000000000000099
:10e54000b4f20400ccf2040000000000000100005e
:10e5500000000000c0f20400ccf204000000000043
:10e56000d8f20400000100000100000001000000da
:10e5700000000000200000000000000098f20400ed
:10e58000dcf2040000000000800000000000000039
:10e59000b4f20400dcf204000000000000010000fe
:10e5a00000000000c0f20400dcf2040000000000e3
:10e5b00063000000000000000000000000000000f8
:10e5c00000000000630000000000000000000000e8
:10e5d00000000000000000006300000000000000d8
:10e5e00000000000000000000000000078f30400bc
:10e5f0000001000001000000010000000000000018
:10e60000200000000000000098f20400ccf204009a
:10e61000000000008000000000000000c0f20400c4
:10e62000ccf2040000000000000400000000000024
:10e63000c0f20400a4f20400000000006300000027
:10e6400000000000000000000000000000000000ca
:10e650006300000000000000000000000000000057
:10e660000000000063000000000000000000000047
:10e67000000000000000000080f304000001000022
:10e680000100000001000000000000000010000078
:10e690000000000098f20400a4f204000000000052
:10e6a0000004000000000000c0f20400a4f2040016
:10e6b000000000008000000000000000c0f2040024
:10e6c000ccf2040000000000630000000000000025
:10e6d00000000000000000000000000063000000d7
:10e6e000000000000000000000000000000000002a
:10e6f00063000000000000000000000000000000b7
:10e700000000000060a00020500b0000000000008e
:10e7100014c10120c006000000000000e039022002
:10e720003300000000000000d4c70120c006000034
:10e7300000000000e83a022008000000000000008d
:10e74000f40300200400000000000000cc3a022086
:10e750000c0000000000000024fd01203002000039
:10e7600001000000200b0500000000000200000076
:10e770000100000000000000001000000000000088
:10e78000240b0500300b0500000000000004000011
:10e7900000000000400b0500300b050000000000e9
:10e7a00000020000000000004c0b0500300b0500cb
:10e7b000000000002000000000000000240b050005
:10e7c000580b050000000000800000000000000061
:10e7d000400b0500580b0500000000000001000080
:10e7e000000000004c0b0500580b05000000000065
:10e7f000640b0500000100000100000001000000a2
:10e80000000000002000000000000000240b0500b4
:10e81000680b050000000000800000000000000000
:10e82000400b0500680b050000000000000100001f
:10e83000000000004c0b0500680b05000000000004
:10e840006300000000000000000000000000000065
:10e850000000000063000000000000000000000055
:10e860000000000000000000630000000000000045
:10e87000000000000000000000000000040c050083
:10e880000001000001000000010000000000000085
:10e890002000000000000000240b0500580b0500bc
:10e8a0000000000080000000000000004c0b05008c
:10e8b000580b0500000000000004000000000000ec
:10e8c0004c0b0500300b0500000000006300000049
:10e8d0000000000000000000000000000000000038
:10e8e00063000000000000000000000000000000c5
:10e8f00000000000630000000000000000000000b5
:10e9000000000000000000000c0c050000010000e9
:10e9100001000000010000000000000000100000e5
:10e9200000000000240b0500300b05000000000073
:10e9300000040000000000004c0b0500300b050037
:10e940000000000080000000000000004c0b0500eb
:10e95000580b0500000000006300000000000000ec
:10e960000000000000000000000000006300000044
:10e970000000000000000000000000000000000097
:10e980006300000000000000000000000000000024
:10e990000000000050ba0120c10600000000000085
:10e9a000183b02200400000000000000f8030020d3
:10e9b00004000000000000008c380220a8000000c5
:10e9c00000000000f4df01206c02000001000000e4
:10e9d00038f7030000000000020000000100000002
:10e9e0000000000000100000000000003cf70300e1
:10e9f00048f70300000000000004000000000000d1
:10ea000058f7030048f70300000000000002000070
:10ea10000000000064f7030048f703000000000056
:10ea200020000000000000003cf7030070f7030026
:10ea300000000000800000000000000058f7030004
:10ea400070f703000000000000010000000000005b
:10ea500064f7030070f70300000000007cf7030078
:10ea600000010000010000000100000000000000a3
:10ea700020000000000000003cf7030080f70300c6
:10ea800000000000800000000000000058f70300b4
:10ea900080f70300000000000001000000000000fb
:10eaa00064f7030080f7030000000000630000002b
:10eab0000000000000000000000000000000000056
:10eac00063000000000000000000000000000000e3
:10ead00000000000630000000000000000000000d3
:10eae00000000000000000001cf80300000100000e
:10eaf00001000000010000000000000020000000f4
:10eb0000000000003cf7030070f703000000000065
:10eb1000800000000000000064f7030070f70300ad
:10eb200000000000000400000000000064f7030083
:10eb300048f7030000000000630000000000000030
:10eb40000000000000000000000000006300000062
:10eb500000000000000000000000000000000000b5
:10eb60006300000000000000000000000000000042
:10eb70000000000024f80300000100000100000074
:10eb80000100000000000000001000000000000074
:10eb90003cf7030048f703000000000000040000f9
:10eba0000000000064f7030048f7030000000000c5
:10ebb000800000000000000064f7030070f703000d
:10ebc00000000000630000000000000000000000e2
:10ebd00000000000000000006300000000000000d2
:10ebe00000000000000000000000000063000000c2
:10ebf0000000000000000000000000000000000015
:10ec000008c7002030c7002058c7002080c7002058
:10ec1000a8c70020d0c70020f8c7002020c80020c7
:10ec200048c8002070c8002098c80020c0c8002034
:10ec3000e8c8002010c9002038c9002048c00020c2
:10ec4000480900000000000054ff012030020000cd
:10ec500001000000781a040000000000020000001b
:10ec60000100000000000000001000000000000093
:10ec70007c1a0400881a0400000000000004000050
:10ec800000000000981a0400881a04000000000028
:10ec90000002000000000000a41a0400881a04000a
:10eca0000000000020000000000000007c1a0400aa
:10ecb000b01a040000000000800000000000000006
:10ecc000981a0400b01a04000000000000010000bf
:10ecd00000000000a41a0400b01a040000000000a4
:10ece000bc1a040000010000010000000100000047
:10ecf0000000000020000000000000007c1a04005a
:10ed0000c01a0400000000008000000000000000a5
:10ed1000981a0400c01a040000000000000100005e
:10ed200000000000a41a0400c01a04000000000043
:10ed30006300000000000000000000000000000070
:10ed40000000000063000000000000000000000060
:10ed50000000000000000000630000000000000050
:10ed60000000000000000000000000005c1b040028
:10ed70000001000001000000010000000000000090
:10ed800020000000000000007c1a0400b01a0400fb
:10ed9000000000008000000000000000a41a040031
:10eda000b01a040000000000000400000000000091
:10edb000a41a0400881a0400000000006300000088
:10edc0000000000000000000000000000000000043
:10edd00063000000000000000000000000000000d0
:10ede00000000000630000000000000000000000c0
:10edf0000000000000000000641b0400000100008f
:10ee000001000000010000000000000000100000f0
:10ee1000000000007c1a0400881a040000000000b2
:10ee20000004000000000000a41a0400881a040076
:10ee3000000000008000000000000000a41a040090
:10ee4000b01a040000000000630000000000000091
:10ee5000000000000000000000000000630000004f
:10ee600000000000000000000000000000000000a2
:10ee7000630000000000000000000000000000002f
:10ee800000000000f4b6002054090000000000005b
:10ee90001c3b02200400000000000000703902202a
:10eea000380000000000000068eb01203c02000078
:10eeb0000100000094870400000000000200000030
:10eec0000100000000000000001000000000000031
:10eed00098870400a48704000000000000040000dc
:10eee00000000000b4870400a487040000000000b4
:10eef0000002000000000000c0870400a487040096
:10ef000000000000200000000000000098870400be
:10ef1000cc8704000000000080000000000000001a
:10ef2000b4870400cc87040000000000000100004a
:10ef300000000000c0870400cc870400000000002f
:10ef4000d88704000001000001000000010000005b
:10ef5000000000002000000000000000988704006e
:10ef6000dc870400000000008000000000000000ba
:10ef7000b4870400dc8704000000000000010000ea
:10ef800000000000c0870400dc87040000000000cf
:10ef9000630000000000000000000000000000000e
:10efa00000000000630000000000000000000000fe
:10efb00000000000000000006300000000000000ee
:10efc000000000000000000000000000788804003d
:10efd000000100000100000001000000000000002e
:10efe000200000000000000098870400cc87040087
:10eff000000000008000000000000000c087040046
:10f00000cc870400000000000004000000000000a5
:10f01000c0870400a4870400000000006300000013
:10f0200000000000000000000000000000000000e0
:10f03000630000000000000000000000000000006d
:10f04000000000006300000000000000000000005d
:10f0500000000000000000008088040000010000a3
:10f06000010000000100000000000000001000008e
:10f070000000000098870400a4870400000000003e
:10f080000004000000000000c0870400a487040002
:10f09000000000008000000000000000c0870400a5
:10f0a000cc870400000000006300000000000000a6
:10f0b00000000000000000000000000063000000ed
:10f0c0000000000000000000000000000000000040
:10f0d00063000000000000000000000000000000cd
:10f0e000000000001f1c1f1e1f1e1f1f1e1f1e1fb3
:10f0f0009c2601204007000000000000840102203f
:10f10000300200000100000048130500000000006c
:10f1100002000000010000000000000000100000dc
:10f12000000000004c13050058130500000000000b
:10f1300000040000000000006813050058130500db
:10f140000000000000020000000000007413050031
:10f15000581305000000000020000000000000001f
:10f160004c13050080130500000000008000000023
:10f170000000000068130500801305000000000077
:10f18000000100000000000074130500801305005a
:10f19000000000008c1305000001000001000000c9
:10f1a000010000000000000020000000000000003e
:10f1b0004c130500901305000000000080000000c3
:10f1c0000000000068130500901305000000000017
:10f1d00000010000000000007413050090130500fa
:10f1e00000000000630000000000000000000000bc
:10f1f00000000000000000006300000000000000ac
:10f20000000000000000000000000000630000009b
:10f2100000000000000000000000000000000000ee
:10f220002c14050000010000010000000100000096
:10f230000000000020000000000000004c1305004a
:10f2400080130500000000008000000000000000a6
:10f250007413050080130500000000000004000086
:10f2600000000000741305005813050000000000a2
:10f27000630000000000000000000000000000002b
:10f28000000000006300000000000000000000001b
:10f29000000000000000000063000000000000000b
:10f2a0000000000000000000000000003414050011
:10f2b000000100000100000001000000000000004b
:10f2c00000100000000000004c130500581305005a
:10f2d000000000000004000000000000741305009e
:10f2e000581305000000000080000000000000002e
:10f2f0007413050080130500000000006300000087
:10f3000000000000000000000000000000000000fd
:10f31000630000000000000000000000000000008a
:10f32000000000006300000000000000000000007a
:10f330000000000000000000041801204c0700003d
:10f3400000000000b40302203002000001000000b1
:10f3500050c1040000000000020000000100000095
:10f3600000000000001000000000000054c1040074
:10f3700060c1040000000000000400000000000064
:10f3800070c1040060c10400000000000002000021
:10f39000000000007cc1040060c104000000000007
:10f3a000200000000000000054c1040088c10400d7
:10f3b00000000000800000000000000070c1040098
:10f3c00088c10400000000000001000000000000ef
:10f3d0007cc1040088c104000000000094c1040046
:10f3e000000100000100000001000000000000001a
:10f3f000200000000000000054c1040098c1040077
:10f4000000000000800000000000000070c1040047
:10f4100098c104000000000000010000000000008e
:10f420007cc1040098c104000000000063000000db
:10f4300000000000000000000000000000000000cc
:10f440006300000000000000000000000000000059
:10f450000000000063000000000000000000000049
:10f46000000000000000000034c2040000010000a1
:10f47000010000000100000000000000200000006a
:10f480000000000054c1040088c104000000000016
:10f4900080000000000000007cc1040088c104005e
:10f4a0000000000000040000000000007cc1040017
:10f4b00060c10400000000006300000000000000c4
:10f4c00000000000000000000000000063000000d9
:10f4d000000000000000000000000000000000002c
:10f4e00063000000000000000000000000000000b9
:10f4f000000000003cc20400000100000100000008
:10f5000001000000000000000010000000000000ea
:10f5100054c1040060c104000000000000040000a9
:10f52000000000007cc1040060c104000000000075
:10f5300080000000000000007cc1040088c10400bd
:10f540000000000063000000000000000000000058
:10f550000000000000000000630000000000000048
:10f560000000000000000000000000006300000038
:10f57000000000000000000000000000000000008b
:10f58000504301201807000000000000e40502209d
:10f590003002000001000000d8b0040000000000ac
:10f5a0000200000001000000000000000010000048
:10f5b00000000000dcb00400e8b00400000000001f
:10f5c0000004000000000000f8b00400e8b00400ef
:10f5d00000000000000200000000000004b1040070
:10f5e000e8b004000000000020000000000000005f
:10f5f000dcb0040010b10400000000008000000036
:10f6000000000000f8b0040010b104000000000089
:10f61000000100000000000004b1040010b104006b
:10f62000000000001cb10400000100000100000007
:10f6300001000000000000002000000000000000a9
:10f64000dcb0040020b104000000000080000000d5
:10f6500000000000f8b0040020b104000000000029
:10f66000000100000000000004b1040020b104000b
:10f670000000000063000000000000000000000027
:10f680000000000000000000630000000000000017
:10f690000000000000000000000000006300000007
:10f6a000000000000000000000000000000000005a
:10f6b000bcb10400000100000100000001000000d6
:10f6c000000000002000000000000000dcb004008a
:10f6d00010b10400000000008000000000000000e5
:10f6e00004b1040010b10400000000000004000098
:10f6f0000000000004b10400e8b0040000000000b5
:10f700006300000000000000000000000000000096
:10f710000000000063000000000000000000000086
:10f720000000000000000000630000000000000076
:10f73000000000000000000000000000c4b1040050
:10f7400000010000010000000100000000000000b6
:10f750000010000000000000dcb00400e8b004006d
:10f7600000000000000400000000000004b10400dc
:10f77000e8b004000000000080000000000000006d
:10f7800004b1040010b10400000000006300000098
:10f790000000000000000000000000000000000069
:10f7a00063000000000000000000000000000000f6
:10f7b00000000000630000000000000000000000e6
:10f7c000000000000000000070b30120e00600000f
:10f7d00000000000f03a02200800000000000000d5
:10f7e000f1b600200300000001000000010101004b
:10f7f000883a02201900000000000000883702202b
:10f80000010100000000000058f401203402000053
:10f810000100000014b90400000000000200000014
:10f8200001000000000000000010000000000000c7
:10f8300018b9040024b9040000000000000400000e
:10f840000000000034b9040024b9040000000000e6
:10f85000000200000000000040b9040024b90400c8
:10f8600000000000200000000000000018b90400a3
:10f870004cb90400000000008000000000000000ff
:10f8800034b904004cb9040000000000000100007d
:10f890000000000040b904004cb904000000000062
:10f8a00058b9040000010000010000000100000040
:10f8b00000000000200000000000000018b9040053
:10f8c0005cb904000000000080000000000000009f
:10f8d00034b904005cb9040000000000000100001d
:10f8e0000000000040b904005cb904000000000002
:10f8f00063000000000000000000000000000000a5
:10f900000000000063000000000000000000000094
:10f910000000000000000000630000000000000084
:10f92000000000000000000000000000f8b9040022
:10f9300000010000010000000100000000000000c4
:10f94000200000000000000018b904004cb90400b9
:10f9500000000000800000000000000040b904002a
:10f960004cb904000000000000040000000000008a
:10f9700040b9040024b90400000000006300000046
:10f980000000000000000000000000000000000077
:10f990006300000000000000000000000000000004
:10f9a00000000000630000000000000000000000f4
:10f9b000000000000000000000ba04000001000088
:10f9c0000100000001000000000000000010000025
:10f9d0000000000018b9040024b904000000000071
:10f9e000000400000000000040b9040024b9040035
:10f9f00000000000800000000000000040b904008a
:10fa00004cb904000000000063000000000000008a
:10fa10000000000000000000000000006300000083
:10fa200000000000000000000000000000000000d6
:10fa30006300000000000000000000000000000063
:10fa400000000000c3000000d07b01200007000080
:10fa50000000000060e201204102000001000000ff
:10fa6000883c0400000000000200000001000000cb
:10fa70000000000000100000000000008c3c0400aa
:10fa8000983c04000000000000040000000000009a
:10fa9000a83c0400983c04000000000000020000a4
:10faa00000000000b43c0400983c0400000000008a
:10fab00020000000000000008c3c0400c03c04005a
:10fac000000000008000000000000000a83c0400ce
:10fad000c03c040000000000000100000000000025
:10fae000b43c0400c03c040000000000cc3c040016
:10faf0000001000001000000010000000000000003
:10fb000020000000000000008c3c0400d03c0400f9
:10fb1000000000008000000000000000a83c04007d
:10fb2000d03c0400000000000001000000000000c4
:10fb3000b43c0400d03c040000000000630000005e
:10fb400000000000000000000000000000000000b5
:10fb50006300000000000000000000000000000042
:10fb60000000000063000000000000000000000032
:10fb700000000000000000006c3d040000010000d7
:10fb80000100000001000000000000002000000053
:10fb9000000000008c3c0400c03c04000000000099
:10fba0008000000000000000b43c0400c03c0400e1
:10fbb000000000000004000000000000b43c04004d
:10fbc000983c0400000000006300000000000000fa
:10fbd00000000000000000000000000063000000c2
:10fbe0000000000000000000000000000000000015
:10fbf00063000000000000000000000000000000a2
:10fc000000000000743d040000010000010000003d
:10fc100001000000000000000010000000000000d3
:10fc20008c3c0400983c040000000000000400002c
:10fc300000000000b43c0400983c040000000000f8
:10fc40008000000000000000b43c0400c03c040040
:10fc50000000000063000000000000000000000041
:10fc60000000000000000000630000000000000031
:10fc70000000000000000000000000006300000021
:10fc80000000000000000000000000000000000074
:10fc900001000000090000001e0000002c0100000f
:10fca0000100000088fa00207d070000000000002d
:10fcb000140802203002000001000000fc4404008f
:10fcc0000000000002000000010000000000000031
:10fcd0000010000000000000004504000c45040076
:10fce0000000000000040000000000001c450400ab
:10fcf0000c450400000000000002000000000000ad
:10fd0000284504000c45040000000000200000000d
:10fd1000000000000045040034450400000000001d
:10fd200080000000000000001c4504003445040071
:10fd30000000000000010000000000002845040051
:10fd400034450400000000004045040000010000ac
:10fd50000100000001000000000000002000000081
:10fd600000000000004504004445040000000000bd
:10fd700080000000000000001c4504004445040011
:10fd80000000000000010000000000002845040001
:10fd90004445040000000000630000000000000073
:10fda00000000000000000000000000063000000f0
:10fdb0000000000000000000000000000000000043
:10fdc00063000000000000000000000000000000d0
:10fdd00000000000e04504000001000001000000f8
:10fde00001000000000000002000000000000000f2
:10fdf00000450400344504000000000080000000bd
:10fe00000000000028450400344504000000000004
:10fe10000004000000000000284504000c45040018
:10fe2000000000006300000000000000000000006f
:10fe3000000000000000000063000000000000005f
:10fe4000000000000000000000000000630000004f
:10fe500000000000000000000000000000000000a2
:10fe6000e84504000001000001000000010000005e
:10fe70000000000000100000000000000045040029
:10fe80000c45040000000000000400000000000019
:10fe9000284504000c45040000000000800000001c
:10fea0000000000028450400344504000000000064
:10feb00063000000000000000000000000000000df
:10fec00000000000630000000000000000000000cf
:10fed00000000000000000006300000000000000bf
:10fee00000000000000000000000000008020120e7
:10fef0005807000000000000440a02203002000001
:10ff000001000000c4fa040000000000020000002c
:10ff100001000000000000000010000000000000d0
:10ff2000c8fa0400d4fa0400000000000004000035
:10ff300000000000e4fa0400d4fa0400000000000d
:10ff40000002000000000000f0fa0400d4fa0400ef
:10ff5000000000002000000000000000c8fa0400bb
:10ff6000fcfa040000000000800000000000000017
:10ff7000e4fa0400fcfa04000000000000010000a4
:10ff800000000000f0fa0400fcfa04000000000089
:10ff900008fb040000010000010000000100000057
:10ffa000000000002000000000000000c8fa04006b
:10ffb0000cfb0400000000008000000000000000b6
:10ffc000e4fa04000cfb0400000000000001000043
:10ffd00000000000f0fa04000cfb04000000000028
:10ffe00063000000000000000000000000000000ae
:10fff000000000006300000000000000000000009e
:020000040001f9
:10000000000000000000000063000000000000008d
:10001000000000000000000000000000a8fb040039
:1000200000010000010000000100000000000000cd
:100030002000000000000000c8fa0400fcfa0400e0
:10004000000000008000000000000000f0fa040042
:10005000fcfa0400000000000004000000000000a2
:10006000f0fa0400d4fa040000000000630000006d
:100070000000000000000000000000000000000080
:10008000630000000000000000000000000000000d
:1000900000000000630000000000000000000000fd
:1000a0000000000000000000b0fb040000010000a0
:1000b000010000000100000000000000001000002e
:1000c00000000000c8fa0400d4fa04000000000098
:1000d0000004000000000000f0fa0400d4fa04005c
:1000e000000000008000000000000000f0fa0400a2
:1000f000fcfa0400000000006300000000000000a3
:10010000000000000000000000000000630000008c
:1001100000000000000000000000000000000000df
:10012000630000000000000000000000000000006c
:1001300000000000d0820120f8060000000000004e
:100140001cf20120390200000100000048000400f8
:10015000000000000200000001000000000000009c
:1001600000100000000000004c00040058000400d3
:10017000000000000004000000000000680004000f
:100180005800040000000000000200000000000011
:10019000740004005800040000000000200000006b
:1001a000000000004c00040080000400000000007b
:1001b00080000000000000006800040080000400cf
:1001c00000000000000100000000000074000400b6
:1001d00080000400000000008c000400000100000a
:1001e00001000000010000000000000020000000ed
:1001f000000000004c00040090000400000000001b
:10020000800000000000000068000400900004006e
:100210000000000000010000000000007400040065
:1002200090000400000000006300000000000000d7
:10023000000000000000000000000000630000005b
:1002400000000000000000000000000000000000ae
:10025000630000000000000000000000000000003b
:10026000000000002c01040000010000010000005b
:10027000010000000000000020000000000000005d
:100280004c0004008000040000000000800000001a
:100290000000000074000400800004000000000062
:1002a0000004000000000000740004005800040076
:1002b00000000000630000000000000000000000db
:1002c00000000000000000006300000000000000cb
:1002d00000000000000000000000000063000000bb
:1002e000000000000000000000000000000000000e
:1002f00034010400000100000100000001000000c2
:100300000000000000100000000000004c0004008d
:10031000580004000000000000040000000000007d
:100320007400040058000400000000008000000079
:1003300000000000740004008000040000000000c1
:10034000630000000000000000000000000000004a
:10035000000000006300000000000000000000003a
:10036000000000000000000063000000000000002a
:10037000000000000000000000000000020000007b
:100380000500000003000000d8da00207808000013
:1003900000000000740c0220300200000100000088
:1003a000d88f0400000000000200000001000000df
:1003b000000000000010000000000000dc8f0400be
:1003c000e88f0400000000000004000000000000ae
:1003d000f88f0400e88f0400000000000002000015
:1003e0000000000004900400e88f040000000000fa
:1003f0002000000000000000dc8f040010900400ca
:10040000000000008000000000000000f88f0400e1
:100410001090040000000000000100000000000037
:100420000490040010900400000000001c900400e0
:1004300000010000010000000100000000000000b9
:100440002000000000000000dc8f04002090040069
:10045000000000008000000000000000f88f040091
:1004600020900400000000000001000000000000d7
:1004700004900400209004000000000063000000cd
:10048000000000000000000000000000000000006c
:1004900063000000000000000000000000000000f9
:1004a00000000000630000000000000000000000e9
:1004b0000000000000000000bc90040000010000eb
:1004c000010000000100000000000000200000000a
:1004d00000000000dc8f0400109004000000000009
:1004e0008000000000000000049004001090040050
:1004f0000000000000040000000000000490040060
:10050000e88f04000000000063000000000000000d
:100510000000000000000000000000006300000078
:1005200000000000000000000000000000000000cb
:100530006300000000000000000000000000000058
:1005400000000000c4900400000100000100000051
:10055000010000000000000000100000000000008a
:10056000dc8f0400e88f040000000000000400009d
:100570000000000004900400e88f04000000000068
:1005800080000000000000000490040010900400af
:1005900000000000630000000000000000000000f8
:1005a00000000000000000006300000000000000e8
:1005b00000000000000000000000000063000000d8
:1005c000000000000000000000000000000000002b
:1005d000e4f20020a407000000000000a40e0220a6
:1005e00030020000010000001cee030000000000cb
:1005f00002000000010000000000000000100000e8
:100600000000000020ee03002cee030000000000bc
:1006100000040000000000003cee03002cee03008c
:1006200000000000000200000000000048ee03008f
:100630002cee03000000000020000000000000007d
:1006400020ee030054ee03000000000080000000d4
:10065000000000003cee030054ee03000000000028
:10066000000100000000000048ee030054ee03000b
:100670000000000060ee0300000100000100000027
:100680000100000000000000200000000000000049
:1006900020ee030064ee0300000000008000000074
:1006a000000000003cee030064ee030000000000c8
:1006b000000100000000000048ee030064ee0300ab
:1006c00000000000630000000000000000000000c7
:1006d00000000000000000006300000000000000b7
:1006e00000000000000000000000000063000000a7
:1006f00000000000000000000000000000000000fa
:1007000000ef0300000100000100000001000000f4
:1007100000000000200000000000000020ee0300a8
:1007200054ee030000000000800000000000000004
:1007300048ee030054ee0300000000000004000037
:100740000000000048ee03002cee03000000000053
:100750006300000000000000000000000000000036
:100760000000000063000000000000000000000026
:100770000000000000000000630000000000000016
:1007800000000000000000000000000008ef03006f
:100790000001000001000000010000000000000056
:1007a000001000000000000020ee03002cee03000b
:1007b00000000000000400000000000048ee0300fc
:1007c0002cee03000000000080000000000000008c
:1007d00048ee030054ee0300000000006300000038
:1007e0000000000000000000000000000000000009
:1007f0006300000000000000000000000000000096
:100800000000000063000000000000000000000085
:10081000000000000000000090c90020ca0800008d
:1008200000000000d410022030020000010000008f
:100830000877040000000000020000000100000032
:100840000000000000100000000000000c77040011
:100850001877040000000000000400000000000001
:100860002877040018770400000000000002000050
:100870000000000034770400187704000000000036
:1008800020000000000000000c7704004077040006
:100890000000000080000000000000002877040035
:1008a000407704000000000000010000000000008c
:1008b0003477040040770400000000004c77040007
:1008c0000001000001000000010000000000000025
:1008d00020000000000000000c77040050770400a6
:1008e00000000000800000000000000028770400e5
:1008f000507704000000000000010000000000002c
:10090000347704005077040000000000630000000a
:1009100000000000000000000000000000000000d7
:100920006300000000000000000000000000000064
:100930000000000063000000000000000000000054
:100940000000000000000000ec770400000100003f
:100950000100000001000000000000002000000075
:10096000000000000c770400407704000000000045
:10097000800000000000000034770400407704008d
:1009800000000000000400000000000034770400b4
:100990001877040000000000630000000000000061
:1009a00000000000000000000000000063000000e4
:1009b0000000000000000000000000000000000037
:1009c00063000000000000000000000000000000c4
:1009d00000000000f47704000001000001000000a6
:1009e00001000000000000000010000000000000f6
:1009f0000c770400187704000000000000040000d9
:100a000000000000347704001877040000000000a4
:100a100080000000000000003477040040770400ec
:100a20000000000063000000000000000000000063
:100a30000000000000000000630000000000000053
:100a40000000000000000000000000006300000043
:100a50000000000000000000000000000000000096
:100a60008cac0120e406000000000000c0f801206a
:100a700031020000010000001034040000000000fa
:100a80000200000001000000000000000010000053
:100a900000000000143404002034040000000000b2
:100aa0000004000000000000303404002034040082
:100ab0000000000000020000000000003c340400c0
:100ac00020340400000000002000000000000000ae
:100ad00014340400483404000000000080000000ca
:100ae000000000003034040048340400000000001e
:100af00000010000000000003c3404004834040001
:100b00000000000054340400000100000100000057
:100b100001000000000000002000000000000000b4
:100b20001434040058340400000000008000000069
:100b300000000000303404005834040000000000bd
:100b400000010000000000003c34040058340400a0
:100b50000000000063000000000000000000000032
:100b60000000000000000000630000000000000022
:100b70000000000000000000000000006300000012
:100b80000000000000000000000000000000000065
:100b9000f434040000010000010000000100000026
:100ba00000000000200000000000000014340400d9
:100bb0004834040000000000800000000000000035
:100bc0003c3404004834040000000000000400002d
:100bd000000000003c340400203404000000000049
:100be00063000000000000000000000000000000a2
:100bf0000000000063000000000000000000000092
:100c00000000000000000000630000000000000081
:100c1000000000000000000000000000fc340400a0
:100c200000010000010000000100000000000000c1
:100c30000010000000000000143404002034040000
:100c40000000000000040000000000003c3404002c
:100c500020340400000000008000000000000000bc
:100c60003c3404004834040000000000630000002d
:100c70000000000000000000000000000000000074
:100c80006300000000000000000000000000000001
:100c900000000000630000000000000000000000f1
:100ca0000000000000000000010000005cd20020f5
:100cb0007c08000000000000041302203002000045
:100cc00001000000f4020500000000000200000026
:100cd0000100000000000000001000000000000003
:100ce000f8020500040305000000000000040000f5
:100cf00000000000140305000403050000000000cc
:100d000000020000000000002003050004030500ad
:100d1000000000002000000000000000f8020500b4
:100d20002c0305000000000080000000000000000f
:100d3000140305002c030500000000000001000062
:100d400000000000200305002c0305000000000047
:100d50003803050000010000010000000100000050
:100d6000000000002000000000000000f802050064
:100d70003c030500000000008000000000000000af
:100d8000140305003c030500000000000001000002
:100d900000000000200305003c03050000000000e7
:100da00063000000000000000000000000000000e0
:100db00000000000630000000000000000000000d0
:100dc00000000000000000006300000000000000c0
:100dd000000000000000000000000000d803050033
:100de0000001000001000000010000000000000000
:100df0002000000000000000f80205002c030500a0
:100e0000000000008000000000000000200305003a
:100e10002c0305000000000000040000000000009a
:100e2000200305000403050000000000630000002b
:100e300000000000000000000000000000000000b2
:100e4000630000000000000000000000000000003f
:100e5000000000006300000000000000000000002f
:100e60000000000000000000e00305000001000099
:100e70000100000001000000000000000010000060
:100e800000000000f8020500040305000000000057
:100e9000000400000000000020030500040305001a
:100ea000000000008000000000000000200305009a
:100eb0002c0305000000000063000000000000009b
:100ec00000000000000000000000000063000000bf
:100ed0000000000000000000000000000000000012
:100ee000630000000000000000000000000000009f
:100ef00000000000c8740120080700000000000086
:100f0000341502203002000001000000189804008f
:100f100000000000020000000100000000000000ce
:100f200000100000000000001c9804002898040035
:100f300000000000000400000000000038980400d9
:100f400028980400000000000002000000000000db
:100f500044980400289804000000000020000000cd
:100f6000000000001c9804005098040000000000dd
:100f70008000000000000000389804005098040031
:100f80000000000000010000000000004498040080
:100f900050980400000000005c980400000100006c
:100fa000010000000100000000000000200000001f
:100fb000000000001c98040060980400000000007d
:100fc00080000000000000003898040060980400d1
:100fd0000000000000010000000000004498040030
:100fe00060980400000000006300000000000000a2
:100ff000000000000000000000000000630000008e
:1010000000000000000000000000000000000000e0
:10101000630000000000000000000000000000006d
:1010200000000000fc980400000100000100000026
:10103000010000000000000020000000000000008f
:101040001c9804005098040000000000800000007c
:1010500000000000449804005098040000000000c4
:1010600000040000000000004498040028980400d8
:10107000000000006300000000000000000000000d
:1010800000000000000000006300000000000000fd
:1010900000000000000000000000000063000000ed
:1010a0000000000000000000000000000000000040
:1010b000049904000001000001000000010000008c
:1010c0000000000000100000000000001c98040058
:1010d0002898040000000000000400000000000048
:1010e00044980400289804000000000080000000dc
:1010f0000000000044980400509804000000000024
:10110000630000000000000000000000000000007c
:10111000000000006300000000000000000000006c
:10112000000000000000000063000000000000005c
:101130000000000000000000000000002c3c012026
:1011400024070000000000006417022030020000a5
:101150000100000088db0300000000000200000026
:10116000010000000000000000100000000000006e
:101170008cdb030098db030000000000000400008b
:1011800000000000a8db030098db03000000000063
:101190000002000000000000b4db030098db030045
:1011a0000000000020000000000000008cdb0300b5
:1011b000c0db030000000000800000000000000011
:1011c000a8db0300c0db03000000000000010000fa
:1011d00000000000b4db0300c0db030000000000df
:1011e000ccdb030000010000010000000100000052
:1011f0000000000020000000000000008cdb030065
:10120000d0db0300000000008000000000000000b0
:10121000a8db0300d0db0300000000000001000099
:1012200000000000b4db0300d0db0300000000007e
:10123000630000000000000000000000000000004b
:10124000000000006300000000000000000000003b
:10125000000000000000000063000000000000002b
:101260000000000000000000000000006cdc030033
:10127000000100000100000001000000000000006b
:1012800020000000000000008cdb0300c0db030036
:10129000000000008000000000000000b4db03003c
:1012a000c0db03000000000000040000000000009c
:1012b000b4db030098db03000000000063000000c3
:1012c000000000000000000000000000000000001e
:1012d00063000000000000000000000000000000ab
:1012e000000000006300000000000000000000009b
:1012f000000000000000000074dc0300000100009a
:1013000001000000010000000000000000100000cb
:10131000000000008cdb030098db030000000000ed
:101320000004000000000000b4db030098db0300b1
:10133000000000008000000000000000b4db03009b
:10134000c0db03000000000063000000000000009c
:10135000000000000000000000000000630000002a
:10136000000000000000000000000000000000007d
:10137000630000000000000000000000000000000a
:1013800000000000b0ab0020410b00000000000096
:10139000941902203002000001000000f8d9040076
:1013a000000000000200000001000000000000003a
:1013b0000010000000000000fcd9040008da04005e
:1013c00000000000000400000000000018da040023
:1013d00008da040000000000000200000000000025
:1013e00024da040008da04000000000020000000f5
:1013f00000000000fcd9040030da04000000000006
:10140000800000000000000018da040030da040058
:1014100000000000000100000000000024da0400c9
:1014200030da0400000000003cda04000001000093
:10143000010000000100000000000000200000008a
:1014400000000000fcd9040040da040000000000a5
:10145000800000000000000018da040040da0400f8
:1014600000000000000100000000000024da040079
:1014700040da0400000000006300000000000000eb
:1014800000000000000000000000000063000000f9
:10149000000000000000000000000000000000004c
:1014a00063000000000000000000000000000000d9
:1014b00000000000dcda0400000100000100000070
:1014c00001000000000000002000000000000000fb
:1014d000fcd9040030da04000000000080000000a5
:1014e0000000000024da040030da040000000000ec
:1014f000000400000000000024da040008da040000
:101500000000000063000000000000000000000078
:101510000000000000000000630000000000000068
:101520000000000000000000000000006300000058
:1015300000000000000000000000000000000000ab
:10154000e4da0400000100000100000001000000d6
:10155000000000000010000000000000fcd90400a2
:1015600008da040000000000000400000000000091
:1015700024da040008da0400000000008000000003
:101580000000000024da040030da0400000000004b
:1015900063000000000000000000000000000000e8
:1015a00000000000630000000000000000000000d8
:1015b00000000000000000006300000000000000c8
:1015c000000000000000000000000000b0660120e4
:1015d0000907000000000000e8e601203e020000cc
:1015e0000100000058a004000000000002000000fc
:1015f00001000000000000000010000000000000da
:101600005ca0040068a004000000000000040000ca
:101610000000000078a0040068a0040000000000a2
:10162000000200000000000084a0040068a0040084
:101630000000000020000000000000005ca004008a
:1016400090a00400000000008000000000000000e6
:1016500078a0040090a00400000000000001000039
:101660000000000084a0040090a00400000000001e
:101670009ca0040000010000010000000100000027
:101680000000000020000000000000005ca004003a
:10169000a0a0040000000000800000000000000086
:1016a00078a00400a0a004000000000000010000d9
:1016b0000000000084a00400a0a0040000000000be
:1016c00063000000000000000000000000000000b7
:1016d00000000000630000000000000000000000a7
:1016e0000000000000000000630000000000000097
:1016f0000000000000000000000000003ca1040009
:1017000000010000010000000100000000000000d6
:1017100020000000000000005ca0040090a0040075
:1017200000000000800000000000000084a0040011
:1017300090a0040000000000000400000000000071
:1017400084a0040068a00400000000006300000002
:101750000000000000000000000000000000000089
:101760006300000000000000000000000000000016
:101770000000000063000000000000000000000006
:10178000000000000000000044a10400000100006f
:101790000100000001000000000000000010000037
:1017a000000000005ca0040068a00400000000002d
:1017b000000400000000000084a0040068a00400f1
:1017c00000000000800000000000000084a0040071
:1017d00090a0040000000000630000000000000072
:1017e0000000000000000000000000006300000096
:1017f00000000000000000000000000000000000e9
:101800006300000000000000000000000000000075
:1018100000000000284e4f575452290028575452b8
:1018200029000000600901205107000000000000ad
:10183000c41b0220300200000100000088c904001f
:101840000000000002000000010000000000000095
:1018500000100000000000008cc9040098c90400ba
:10186000000000000004000000000000a8c90400ff
:1018700098c9040000000000000200000000000001
:10188000b4c9040098c90400000000002000000052
:10189000000000008cc90400c0c904000000000062
:1018a0008000000000000000a8c90400c0c90400b6
:1018b000000000000001000000000000b4c90400a6
:1018c000c0c9040000000000ccc9040000010000f1
:1018d00001000000010000000000000020000000e6
:1018e000000000008cc90400d0c904000000000002
:1018f0008000000000000000a8c90400d0c9040056
:10190000000000000001000000000000b4c9040055
:10191000d0c90400000000006300000000000000c7
:101920000000000000000000000000006300000054
:1019300000000000000000000000000000000000a7
:101940006300000000000000000000000000000034
:10195000000000006cca040000010000010000004b
:101960000100000000000000200000000000000056
:101970008cc90400c0c90400000000008000000001
:1019800000000000b4c90400c0c904000000000049
:101990000004000000000000b4c9040098c904005d
:1019a00000000000630000000000000000000000d4
:1019b00000000000000000006300000000000000c4
:1019c00000000000000000000000000063000000b4
:1019d0000000000000000000000000000000000007
:1019e00074ca0400000100000100000001000000b2
:1019f0000000000000100000000000008cc904007e
:101a000098c904000000000000040000000000006d
:101a1000b4c9040098c90400000000008000000060
:101a200000000000b4c90400c0c9040000000000a8
:101a30006300000000000000000000000000000043
:101a40000000000063000000000000000000000033
:101a50000000000000000000630000000000000023
:101a6000000000000000000000000000905801206d
:101a70001107000000000000f41d022030020000e9
:101a800001000000681b05000000000002000000cb
:101a90000100000000000000001000000000000035
:101aa0006c1b0500781b050000000000000400000e
:101ab00000000000881b0500781b050000000000e6
